:10000000FCFF0220F5330000C1330000C1330000C3
:10001000C1330000C1330000C1330000C133000010
:10002000C1330000C1330000C1330000C133000000
:10003000C1330000C1330000C1330000C1330000F0
:10004000C1330000C1330000C1330000C1330000E0
:10005000C1330000C1330000C1330000C1330000D0
:10006000C1330000C1330000C1330000C1330000C0
:10007000C1330000C1330000C1330000C1330000B0
:10008000C1330000C1330000C1330000C1330000A0
:10009000C1330000C1330000C1330000C133000090
:1000A000C1330000C1330000C1330000C133000080
:1000B000C1330000C1330000C1330000C133000070
:1000C000C1330000C1330000C1330000C133000060
:1000D000C1330000C1330000C1330000C133000050
:1000E000C1330000C1330000C1330000C133000040
:1000F000C1330000C1330000C1330000C133000030
:10010000C1330000C1330000C1330000C13300001F
:10011000C1330000C1330000C1330000C13300000F
:10012000C1330000C1330000C1330000C1330000FF
:10013000C1330000C1330000C1330000C1330000EF
:10014000C1330000C1330000C1330000C1330000DF
:10015000C1330000C1330000C1330000C1330000CF
:10016000C1330000C1330000C1330000C1330000BF
:10017000C1330000C1330000C1330000C1330000AF
:10018000C1330000C1330000C1330000C13300009F
:08019000C1330000C13300007F
:1033F40000F07CF8FFF7E6FF03F0A8FAFFF7EEFF12
:1034040003F064FAFFF776FD2C492D48FFF7AEFF71
:1034140041F2FE17C0F27A0700BF00BF7F1EFDD144
:1034240000BF00BF00BF40F20000FFF7F9FE0A2210
:1034340000212448FFF704FF234800224FF6FF71C0
:10344400FFF760FF21484B220521FFF729FDFFF715
:10345400BDFE1F49087000F04001C9B21D4801704B
:10346400F1B1FFF767FC1C491C482DED010A02B4B9
:1034740001B4FFF789FF03B019491848FFF746FC68
:1034840018490870C0B258B1174B142212B2372130
:1034940009B21248FFF7ACFC10491148FDF7A2FE2F
:1034A40042F6FE47C0F2311700BF00BF7F1EFDD1B8
:1034B40000BF00BF00BFCAE7FEE700BFE46600002C
:1034C400A0860100383A00005E5600000000FF1F8D
:1034D4002B00FF1F2C00FF1FC86800002D00FF1FDA
:0C34E4003800FF1F3700FF1F0F00FF1F04
:102EF80081B0CDF800E00321A64801700021A64862
:102F080001604FF40051A548FFF7CAFB4FF4004198
:102F1800A348FFF7C5FB4FF04001A248FFF7C0FBED
:102F28004FF48011A048FFF7BBFBA04AA049A14875
:102F3800FFF798FB012149B29F4801609F48016053
:102F48009F480160FFF7A4FBFEF73EF9002149B254
:102F58009C480160FEF738F9012149B2994801609F
:102F6800FEF732F9FEF728F90121FD20FEF74CF9AA
:102F780008B102200AE100211220FEF745F908B144
:102F8800022003E10121FD20FEF73EF908B10220ED
:102F9800FCE00021B120FEF737F908B10220F5E086
:102FA8000121AE20FEF730F908B10220EEE0012140
:102FB800B320FEF729F908B10220E7E00021F1204B
:102FC800FEF722F908B10220E0E00121CA20FEF74D
:102FD8001BF908B10220D9E000215F20FEF714F99F
:102FE80008B10220D2E00121A020FEF70DF908B1B6
:102FF8000220CBE000216020FEF706F908B102208C
:10300800C4E001211520FEF7FFF808B10220BDE059
:1030180000210020FEF7F8F808B10220B6E00021F0
:103028005F20FEF7F1F808B10220AFE0012175201A
:10303800FEF7EAF808B10220A8E000210020FEF718
:10304800E3F808B10220A1E000215F20FEF7DCF8D8
:1030580008B102209AE00121A120FEF7D5F808B1B5
:10306800022093E000218020FEF7CEF808B102206C
:103078008CE00121A220FEF7C7F808B1022085E004
:1030880000216020FEF7C0F808B102207EE001218F
:10309800B120FEF7B9F808B1022077E0012132200B
:1030A800FEF7B2F808B1022070E00121BE20FEF759
:1030B800ABF808B1022069E001210520FEF7A4F869
:1030C80008B1022062E00121A620FEF79DF808B1B0
:1030D80002205BE00121C120FEF796F808B102202A
:1030E80054E000218A20FEF78FF808B102204DE055
:1030F80000215120FEF788F808B1022046E000219F
:103108008A20FEF781F808B102203FE00121C7209C
:10311800FEF77AF808B1022038E00021CF20FEF748
:1031280073F808B1022031E00121B420FEF76CF8F1
:1031380008B102202AE00021A020FEF765F808B1B6
:10314800022023E00021B520FEF75EF808B1022036
:103158001CE000215520FEF757F808B1022015E0C1
:103168000121B620FEF750F808B102200EE0002138
:103178000120FEF749F808B1022007E00121AF203D
:10318800FEF742F808B1022000E00020DDF800E078
:1031980001B070475A48FF1F5C48FF1F80F00F407E
:1031A800C0F00F4000F10F4040F00F40786600007B
:1031B8000700008680A81201980A9442180B9442CE
:0831C800980B94421820FE430D
:1026A80081B0CDF800E0034AFEF77CFDDDF800E0DC
:0826B80001B0704704010400A9
:1011AC0081B0CDF800E0FFF7F3FBDDF800E001B013
:0211BC0070477A
:10099C0083B0CDF800E006460C4615463046FFF70E
:1009AC001FFE40F2FF1306EA0300800900262246D0
:1009BC002946202E39D24FF0010303FA06F402EA3D
:1009CC0004031F46A3422ED104031A4B1C19B30077
:1009DC00E51801952C68184B04EA03032B60174BA0
:1009EC0001EA0304019B1B6843EA0404019B1C609D
:1009FC0001F48033B3F5803F15D08401104B1B19E3
:100A0C001433029301F400333BB1FC43029B1B688B
:100A1C0003EA0404029B1C6005E0029B1B6843EA8A
:100A2C000704029B1C60761CC3E7DDF800E003B0F2
:100A3C00704700BF009004400000FFFFFFFF000064
:040A4C0000F00F4067
:1005EC0081B040F2FF1100EA01018909084600F2CE
:1005FC0009024FF0010101FA02F20449096841EACB
:10060C00020202490A6001B0704700BF3880044002
:00061C00DE
:10266C0081B0CDF800E003460C4615460648FEF74F
:10267C00D9FC224619462B460348FEF709FDDDF826
:0C268C0000E001B0704700BF00C00A4031
:1010300081B00F49884206D10E4A0F490A600F4A13
:101040000F490A6012E00F49884206D10E4A0A4948
:101050000A600E4A0A490A6008E00D49884205D133
:101060000C4A05490A600C4A05490A6001B07047FC
:1010700000C00240FFFFFFFF7048FF1FFFFFFFFFA0
:101080007448FF1F00D00240FFFFFFFFFFFFFFFF7C
:0C10900000C00A408D110000FFFFFFFFB0
:10109C0084B0CDF800E00391014610460190029116
:1010AC001846FFF743FD0299019800F0100424093B
:1010BC002746019002910846FFF794FD0299029190
:1010CC000846FFF759FD0299019800F000450C689D
:1010DC002C430C6000F080450C682C430C600C68B1
:1010EC0044F440540C600D686FF4804405EA040429
:1010FC000C6001F20C05BC002E1900F00F053468D1
:10110C002C43346001F20C05BC002E1900F08065F4
:10111C0034682C43346001F20C05BC002E1900F02D
:10112C00007534682C43346001F20C05BC002E1998
:10113C0000F0807534682C43346001F20C05BC005F
:10114C002E1935686FF0F04405EA0404346001F29E
:10115C000C05BC002E1900F00F04E50634682C4376
:10116C0034600191039A0846F9B2FFF773FB0199B9
:0E117C000846FFF79DFADDF800E004B070476A
:100B380081B0CDF800E040F2000C83464FEA8C010A
:100B48000BEB01010968B1F1FF3F12D00BF1340141
:100B58004FEA8C03C91809680A460BEB03010968B8
:100B680008461146FFF704FD0CF1010C1FFA8CFC36
:0A0B7800E4E7DDF800E001B070478B
:1005780082B0CDF800E080464FEA581202F0070238
:10058800914608F01F04A24693010D4AD3184FF074
:100598000102A240019218460A46019900F002FEA3
:1005A8004FEA0933074AD3184FEA8A029C1808F41D
:1005B800E06322681A432260DDF800E002B0704769
:0805C80000F00F400090044018
:100BF00081B00B49884203D1012252B209490A60EF
:100C00000949884203D1012252B208490A600849C1
:100C1000884203D1012252B206490A6001B07047EE
:100C200000C00240B007904200D00240B40790429A
:080C300000C00A4030069042AA
:100B840081B002686FF4804102EA010101600168EA
:100B940041F00101016000F22C031A68124942EA93
:100BA4000101196000F208020021116000F20C0238
:100BB4004FF0F041116000F210024FF0F04111606B
:100BC40000F230020021116000F2340200211160B1
:100BD400016841F440610160026844F2010142EAA3
:0C0BE4000101016001B0704700000A9A96
:1008600091B0CDF800E00F9010468DF840100E903A
:1008700001AB1846FFF748FE4FF0FF330D930023FE
:1008800006930023089301230A9300230B9300236C
:100890000593059B042B41D20D9B002B3ED00023DA
:1008A0000793079B102B35D20D9B002B32D00123D1
:1008B0000993099B032B29D20D9B3BB3099C029BF7
:1008C00003FB04F6059B9C00314B1B191D68079B1D
:1008D0009C00304B1B191B686B43B6FBF3F420469E
:1008E0000E9BA3420ED30E9B1C1A0C940D9BA3428D
:1008F00008D90C9B0D93059B0693079B08930B90BF
:10090000099B0A93099B5B1C0993D2E7079B5B1C1D
:100910000793C6E7059B5B1C0593BAE70F9B03F2A1
:100920000C049DF840309B00E5182C681A4B04EA33
:1009300003032B600F9B03F20C049DF840309B00D7
:10094000E5180A9B5B1EDC072B6823432B600F9B7B
:1009500003F20C049DF840309B00E518069B1B0435
:1009600003F440342B6823432B600F9B03F20C04E9
:100970009DF840309B00E518089B03F00F042B689E
:1009800023432B600B98DDF800E011B0704700BFE7
:0C099000B868000050670000F0FFFC7F1A
:1005080081B0CDF800E00446FFF77EFF40F2E83105
:1005180000FB01F3154909680A0F1449096801F03D
:100528007061090EC8B21149096801F47001090D1A
:10053800CDB20E49096801F47021090CCEB2D1B2CE
:1005480003FA01F10F462360221D27FA00F111601A
:1005580004F2080227FA05F1116004F20C0227FAE6
:1005680006F11160DDF800E001B0704744800440F6
:0005780083
:0C04100001480068704700BF6048FF1FF3
:1006BC0081B002686FF0010102EA0101016001B032
:0206CC00704775
:10269800002149B201480160704700BF3410FE4371
:0026A80032
:1011D00049F63E47C0F2000700BF00BF7F1EFDD1A9
:0811E00000BF00BF00BF704713
:1011C000012149B201480160704700BF3410FE435D
:0011D0001F
:1012100081B0CDF800E021B100235BB20B4A13602E
:1012200003E001235BB2094A136000235BB2084A62
:101230001360C0B2FFF7AAFF01235BB2044A136038
:101240000020DDF800E001B0704700BF3C18FE430D
:041250005008FE4301
:10118C0081B0CDF800E082B24FF080610348FFF7E8
:10119C0099FADDF800E001B0704700BF00C00A40CA
:0011AC0043
:1006D00081B000F22C04236843F00043236000F251
:1006E000340493B241EA0303236000F22C031C6834
:0C06F000C4F3C07303B9F8E701B0704711
:1033700081B0CDF800E00A4601460348FFF7A0F906
:0C338000DDF800E001B07047006006407E
:1026C0008AB0CDF800E04C4B98420DD1012464B2A1
:1026D0004A4B1C604A4C4B4B1C604B4C4B4B1C6098
:1026E0004B4C4C4B1C6020E04B4B98420DD10124CD
:1026F00064B24A4B1C604A4C424B1C60494C434BF1
:102700001C60494C434B1C600FE0484B98420CD175
:10271000012464B2464B1C60464C3A4B1C60464C4C
:102720003A4B1C60454C3B4B1C600191029010469B
:10273000FEF702FA06AB1846FDF7E6FE029801998D
:102740004FF0FF39002740F200080022022A37D854
:10275000B9F1000F34D001231BB203FA02F52DB2F8
:102760000026322E28D2F400354B1B191B1D1B6886
:1027700005FB03F4079BB3FBF4F30493994203D9DD
:10278000049BCB1A039302E0049B5B1A0393039B05
:102790000593039B4B450BD21746F400284B1B199E
:1027A000D3F80080059C059B002B00D105E000E0DC
:1027B0004C46761CA146D4E74C46521CA146C5E7C0
:1027C000441CBB0143EA08032370851C01242B78B9
:1027D00064F3C7132B70851C01242B7864F38613D4
:1027E0002B70851D01242B7864F345132B70DDF8C5
:1027F00000E00AB0704700BF0060064098069042B3
:10280000110D00006C48FF1F350E00006848FF1FC7
:10281000C50F00006448FF1F007006409C069042F0
:10282000390C0000E90F00000D10000000600E40A0
:1028300018059042F90D0000BD0D0000110E0000BA
:04284000E864000048
:1032240081B0CDF800E001B46023602200210020C9
:0E323400FFF7DCFC01B0DDF800E001B07047F0
:102BF00081B0CDF800E01FFA80FA1FFA81F995B292
:102C00001FFA83F8BDF8046005FB08F4A4B2A7B26C
:102C10000AEB0504A4B2641EA4B2602C0ED8BAF16B
:102C2000000F0BD309EB0804A4B2641EA4B2602CFD
:102C300004D8B9F1000F01D3002400E001240CB145
:102C400003205DE00AF1100A1FFA8AFA012115201B
:102C5000FEF7DEFA08B1022052E000211FFA8AF0E6
:102C6000FEF7D6FA08B102204AE06C1EA4B20AEBC5
:102C70000404A4B20021A0B2FEF7CAFA08B10220EF
:102C80003EE001217520FEF7C3FA08B1022037E0CB
:102C900000211FFA89F0FEF7BBFA08B102202FE0ED
:102CA000A8F10104A4B209EB0404A4B20021A0B26B
:102CB000FEF7AEFA08B1022022E001215C20FEF707
:102CC000A7FA08B102201BE001256DB20E4C256069
:102CD00000256DB20D4C256000203D4687B2AF4205
:102CE00009D2340AE0B2FEF751FAF0B2FEF74EFA1A
:102CF0007F1CBFB2F3E701256DB2044C25600020B4
:102D0000DDF800E001B070473C18FE435008FE4378
:002D1000C3
:1032440082B0CDF800E05FFA81FA5FFA82FB0146B2
:103254008C1C2378D9B2641C23781B029BB2CB1834
:103264001FFA83FC641C2178C9B2631C1B781B02FF
:103274009BB2CB189BB299B20AEB03039BB25B1EC1
:103284009BB2602B0ED8BAF1000F0BD30BEB0C03DF
:103294009BB25B1E9BB2602B04D8BBF1000F01D321
:1032A400002300E0012303B10BE001FB0CF4831DB8
:1032B400ADF80410A2B219461148FFF773FCBDF82B
:1032C4000410ADF804105FFA8CF3CAB25FFA8BF104
:1032D4005FFA8AF0FFF7E4FABDF8041001FB0CF37F
:1032E4009BB25B009BB299B20548FFF7A9FA08B1FB
:1032F400022000E00020DDF800E002B0704700BFCB
:043304004200FF1F65
:102BA80093B20A4600211446024698B281420DD2D9
:102BB80023781B021380631C1D461C78138823434B
:0E2BC8001380921C6B1C1C46491CEFE77047E3
:1028A40081B0CDF800E000F21004E6B2CCB2E5B29B
:1028B4005FFA82F8DFB240F2000901211520FEF729
:1028C400A5FC49EA00095FFA89F90021F0B2FEF794
:1028D4009DFC49EA00095FFA89F9A8F1010424B2D0
:1028E400341924B2002120B2FEF790FC49EA000911
:1028F4005FFA89F901217520FEF788FC49EA00098D
:102904005FFA89F90021E8B2FEF780FC49EA000980
:102914005FFA89F97C1E24B22C1924B2002120B25A
:10292400FEF774FC49EA0004E4B2002C00D100E094
:0A293400C1E7DDF800E001B07047D4
:1028440081B0CDF800E005460E4601215C20FEF77C
:10285400DDFC08B102201AE001235BB20E4A1360CA
:1028640000235BB20D4A13602846054630460346F2
:10287400421E164633B12A7890B2FEF785FC6D1CD1
:102884003046F4E701235BB2044A13600020DDF80C
:1028940000E001B0704700BF3C18FE435008FE43FF
:0028A40034
:10330800114B1860831C1C78C31C1B781B029BB2D2
:10331800E4180E4B1C80031D1C78431D1B781B02F0
:103328009BB2E4180A4B1C80831D1C78094B1C8037
:10333800094B1980094B1A700124094B1C70002491
:10334800084B1C70704700BF4C48FF1F4648FF1FC2
:103358004848FF1F5048FF1F5248FF1F4A48FF1F99
:083368001900FF1F4B48FF1F75
:102EA40083B0CDF800E00290602900D31DE0602AD1
:102EB40000D31AE00023ADF8043088B291B2FFF7D2
:102EC40049FDBDF80440029B1B191B786BB1BDF88A
:102ED4000440029B1B191B7898B2FFF745FDBDF80F
:102EE40004305B1CADF80430EBE7DDF800E003B020
:022EF400704725
:10295800024A1080024A1180704700BF4248FF1F98
:042968004448FF1FC1
:10296C0086B0CDF800E085B240F20001ADF814104D
:10297C0000218DF816107F49097849B97E4900224B
:10298C00084640F2000100F0B9FC012279490A70B6
:10299C007A4909888D4200D2E7E0794909888D424D
:1029AC0000D9E2E075490988691A89B28A0092B2A5
:1029BC00744C216808318B1893F800C0591C0978A5
:1029CC00CAB2991C097809025218D91C0978090451
:1029DC00521821460968891804916B49097821B16C
:1029EC0069490978022900D064E068490A88002105
:1029FC008DF80D105FFA8CF390B265490A889DF83A
:102A0C000D1091424AD263490988ADF81410002682
:102A1C0000218DF80C1082B25FFA83FC9DF80C102B
:102A2C00614530D24EB9049909788DF81610049985
:102A3C00491C04910126F0B200E0F0B29DF816108A
:102A4C000140C9B291B1544909888DF80400ADF820
:102A5C000620ADF80820BDF814008AB2BDF90810A4
:102A6C00FEF75CF9BDF806209DF80400BDF81410C3
:102A7C00491CADF814104100CEB29DF80C10491C45
:102A8C008DF80C10CAE7521C92B29DF80D10491C1F
:102A9C008DF80D105FFA8CF390B2AEE73A490978D5
:102AAC0029B9BDF814104A1C3A490A8001E037498B
:102ABC0008805AE037490B8800218DF80D1098B228
:102ACC005FFA8CF332490A889DF80D10914247D277
:102ADC002E490988ADF81410002600218DF80C1031
:102AEC0082B25FFA83FC9DF80C1061452DD24EB971
:102AFC00049909788DF816100499491C0491012643
:102B0C00F0B200E0F0B29DF816100140C9B279B1F4
:102B1C00214909888DF80400ADF8062010B28AB25C
:102B2C00BDF81410FEF7FAF8BDF806209DF8040065
:102B3C00BDF81410491EADF814104100CEB29DF82A
:102B4C000C10491C8DF80C10CDE7511C8BB29DF864
:102B5C000D10491C8DF80D1098B25FFA8CF3B1E78B
:102B6C00BDF814104A1E09490A80DDF800E006B0D1
:102B7C00704700BF1900FF1F565E00004648FF1F3C
:102B8C004848FF1F4C48FF1F4A48FF1F4448FF1F7F
:0C2B9C005048FF1F4248FF1F5248FF1F17
:100D280082B0CDF800E00FFA80FA0FFA81FB0AF1E1
:100D380001031BB25B1E1BB2602B0EDCBAF1000F65
:100D48000BDB0BF101031BB25B1E1BB2602B04DC37
:100D5800BBF1000F01DB002300E001230BB10320EE
:100D680024E0ADF80420602360225FFA8BF15FFA7B
:100D78008AF001F093FDBDF8043003F47F439BB281
:100D88001C0AA4B2BDF8043003F0FF039BB21B0297
:100D98009BB244EA0303ADF8043001AB02211846C4
:100DA80001F04CFD08B1022000E00020DDF800E071
:040DB80002B07047CE
:1031D00081B0CDF800E0042111480170FFF7B0FB89
:1031E00040F2000301220E496020FFF7F5FC40F297
:1031F000CE77C0F2000700BF00BF7F1EFDD100BF29
:1032000000BF00BF40F20103012205496020FEF724
:1032100021F803480078DDF800E001B0704700BFF6
:043220002100FF1F6B
:1029400081B0CDF800E0034C2468A047DDF800E03A
:0829500001B070476C48FF1F45
:100D100081B0CDF800E00348FFF780FCDDF800E08B
:080D200001B0704700600640BD
:10061C0081B0CDF800E004462046FFF7D3FFA31CC1
:10062C000122197862F345111970E11C0A78C2F3A2
:10063C000011C9B1E31C0122197862F3041119707D
:10064C00A11D0A78C2F3001129B1A31D012219784A
:10065C0062F304111970E31C0122197862F3410151
:10066C0019704FF6FF701EE02046C11C0A78C2F3C9
:10067C00400101B9F9E7811D0A78C2F3001129B1D3
:10068C00831D0122197862F304111970C31C012215
:10069C00197862F341011970C11C0A78C2F3400148
:0E06AC0001B1F9E70020DDF800E001B0704771
:1005D00081B0CDF800E003461846FFF71FFF00B9D1
:0A05E000FAE7DDF800E001B0704713
:10041C0081B0C11C0A78C2F3401181F00101C9B24C
:06042C00C8B201B07047E8
:100C380081B0CDF800E00348FFF7ECFCDDF800E0F8
:080C480001B070470070064086
:100DF80081B0CDF800E00348FFF70CFCDDF800E017
:080E080001B0704700600E40CC
:102BD80081B0CDF800E0034C2468A047DDF800E0A0
:082BE80001B070476448FF1FB3
:100FC40081B0CDF800E008B413460A46C1B2044823
:100FD400FFF792FB01B0DDF800E001B0704700BFFD
:040FE4000060064063
:1006FC0082B0CDF800E0054616461F46DDF80880AE
:10070C004C00E1B22846FFF78FFE20B92846FFF7D0
:10071C00BFFE002099E040F20009CDF80480B046FD
:10072C003E462F46019DB1450FD208EB09042478B3
:10073C00E1B23846FFF778FE20B93846FFF7A8FE3D
:10074C00002082E009F10109EDE7012D2FD1384697
:10075C00C41C2578C5F3400404B1F9E7861C0025B8
:10076C00347865F345143470C41C2578C5F3400403
:10077C0004B9F9E7841D2578C5F300142CB1861D46
:10078C000125347865F304143470841D2578C5F381
:10079C0080142CB1861D0125347865F386143470D1
:1007AC00C61C0125347865F34104347046E0BE1C48
:1007BC000025347865F3451434703846C41C25780C
:1007CC00C5F3400404B9F9E7841D2578C5F38014FA
:1007DC002CB1861D0125347865F386143470C61C43
:1007EC000125347865F341043470C41C2578C5F3B5
:1007FC00400404B1F9E7861C0125347865F34514EF
:10080C003470C41C2578C5F3400404B9F9E7841D81
:10081C002578C5F300142CB1861D0125347865F3B9
:10082C0004143470C61C0125347865F3410434700B
:10083C00C41C2578C5F3400404B1F9E7C41C257821
:10084C00C5F3400404B1F9E70020DDF800E002B084
:02085C007047E3
:1004340081B0841C0123227863F304122270021D0C
:100444001170C21C1378C3F3400202B9F9E7C41C4B
:100454000123227863F341022270C21C1378C3F390
:0E046400000282F00102D2B2D0B201B07047A5
:10049C0082B0CDF800E0831C0022197862F345117C
:1004AC001970831C0022197862F3041119700190E1
:1004BC0000F088F80198C11C0A78C2F3400101B918
:1004CC00F9E7811D0A78C2F3801129B1831D01223D
:1004DC00197862F386111970C31C0122197862F322
:1004EC0041011970C11C0A78C2F3400101B1F9E74E
:0A04FC000020DDF800E002B07047B8
:10100C0081B0CDF800E008B413460A46C1B20448DA
:10101C00FFF76EFB01B0DDF800E001B0704700BFD8
:04102C00007006400A
:100E100081B0CDF800E008B413460A46C1B20448D8
:100E2000FFF76CFC01B0DDF800E001B0704700BFD7
:040E300000600E4010
:1012540081B0CDF800E0034C2468A047DDF800E03D
:0812640001B070476848FF1F4C
:100E340081B0CDF800E008B413460A46C1B20448B4
:100E4400FFF704FE01B0DDF800E001B0704700BF19
:040E540000600640F4
:100A500081B0CDF800E0804617469A46DDF8049054
:100A60004C00A4B244F00104E1B24046FFF7E2FCBE
:100A700018B94046FFF712FD59E008F102060025BB
:100A8000347865F304143470BAF1010F07D108F11A
:100A900002060125347865F3C304347006E008F1DA
:100AA00002060025347865F3C30434704046FFF72E
:100AB000E1FCAAF101042046BA464F468146B9F14D
:100AC000000F30DB13E04046FFF7E8FC16E008F1CA
:100AD00002060125347865F3C30434700EE008F192
:100AE00002060025347865F3C304347006E0B9F1DA
:100AF000000FE8D0B9F1010FE9D0F0E7B9F1000F2C
:100B000007D108F1040424788AF800400AF1010AA8
:100B100006E04046FFF7AEFC8AF800000AF1010A41
:100B2000A9F10109CBE717B94046FFF777FDDDF8DA
:060B300000E001B0704777
:1004740081B00246111D08781446E11C0A78C2F3C3
:10048400400101B9F9E7E31C0122197862F3410143
:06049400197001B0704771
:100FE80081B0CDF800E008B413460A46C1B20448FF
:100FF800FFF72AFD01B0DDF800E001B0704700BF3F
:04100800007006402E
:100DBC0081B0CDF800E008B413460A46C1B204482D
:100DCC00FFF740FE01B0DDF800E001B0704700BF56
:040DDC0000600E4065
:10338C0083B0CDF800E0039A0498049002A904A835
:10339C00001D0860019210460A460499FDF760FF73
:1033AC00019A03B211180020087018B2DDF800E081
:0433BC0003B07047A3
:10126C008BB0CDF800E040F2000636B215460246CF
:10127C0008460446471C23788DF81430002B01F0E7
:10128C00E9819DF81430252B07D09DF8143013708C
:10129C00521C761C36B23846EBE7002424B20020F0
:1012AC001EE040F0080080B27B1C19460F4627E078
:1012BC0040F0010080B2791C0F4621E040F00200A2
:1012CC0080B2791C0F461BE040F4006080B2791CA0
:1012DC000F4615E040F0040080B2791C0F460FE079
:1012EC003B782D2BDDD03B78202BE1D03B782B2B82
:1012FC00E4D03B78232BE7D03B78302BEAD000E0CE
:10130C00CEE700F002039BB233B14FF6FE731840E8
:10131C0080B21FFA80F801E01FFA80F808F0080389
:10132C009BB233B14FF6FB7308EA03081FFA88F837
:10133C00FFE73B78D8B2FFF74DFD28B3002000B291
:10134C00394601E038B249460A231BB200FB03F7C9
:10135C003FB20B78FF183FB2303F3FB24B1C99465F
:10136C001B78D8B2FFF736FD0028EBD1ADF804603E
:10137C00ADF8067017462E461FFA88F04946BDF99F
:10138C000620BDF9045014E03B782A2B06D12C68BA
:10139C00231D2B60B4F90000791C01E0394620B202
:1013AC00ADF80460174602B21FFA88F02E46BDF95C
:1013BC0004500B782E2B46D14B1C98461B782A2BAD
:1013CC0010D13468231D3360B4F9001008F1010307
:1013DC00ADF804202AB21D4633460EB23C46BDF988
:1013EC00041027E040F200090FFA89F91FFA80FA7D
:1013FC0098F80030D8B2FFF7EDFC90B10A231BB27D
:10140C0003FB09F90FFA89F998F8003009EB030985
:10141C000FFA89F9A9F130090FFA89F908F10108D5
:10142C00E6E733460FFA89F611B22AB245463C4636
:10143C001FFA8AF0019585B230B20EB217B29846F7
:10144C00A14601990AE0002424B240F4805080B2F5
:10145C00B04616B2B9462FB285B220B20C4601F195
:10146C00010A23788DF81430CBE038B201F0F3B8D0
:10147C0045F01005ADB25146F0E745F4806B1FFA0C
:10148C008BFB0DE145F0200189B200E0A9B241F4DB
:10149C00807B1FFA8BFB03E145F4007B1FFA8BFB6F
:1014AC00FEE045F0400B1FFA8BFBF9E01FFA85FBC1
:1014BC00F6E045F0200189B200E0A9B241F0800BC2
:1014CC001FFA8BFBECE0D8F80040231DC8F8003065
:1014DC00236808930BB9FC4B08930023ADF8243018
:1014EC00AAB24D465146BDF82440089B1B191B78E7
:1014FC002BB1BDF824305B1CADF82430F3E72C463F
:10150C000D4639B207B290B242462FB1BDF8243025
:10151C009F4201D2ADF82470BDF824309E4204D90C
:10152C00BDF82430F61A36B201E0002636B200F0CF
:10153C0008039BB2ABB9274634B2761E36B22CB137
:10154C0020233B707F1C491C09B2F5E7ADF8046001
:10155C0002922A4685B208B23E460299BDF9047041
:10156C0008E0ADF8040037B2264608B211462A4608
:10157C00BDF80450BDF82440BDF824305B1EADF816
:10158C0024304CB1089B1B783370761C089B5B1C79
:10159C000893401C00B2EDE705F008039BB283B141
:1015AC003DB22CB26D1E2DB22CB120233370761CA3
:1015BC00401C00B2F5E70192324606B20D46019886
:1015CC0004E0019606B210460D46019A51E6D8F891
:1015DC000040231DC8F80030B4F900308DF81430E9
:1015EC0005AB08930123ADF8243039B207B2A8B289
:1015FC0055464C46424688E745F0C00B1FFA8BFB1C
:10160C004EE09DF81430002B3FF42FAF9DF81430B2
:10161C006C2B3FF42DAF9DF814304C2B3FF428AFBE
:10162C009DF81430662B3FF428AF9DF81430452BF1
:10163C003FF428AF9DF81430652B3FF427AF9DF88D
:10164C001430672B3FF428AF9DF814306F2B3FF408
:10165C0028AF9DF81430642B3FF428AF9DF814305C
:10166C00692B3FF423AF9DF81430702B3FF421AF5E
:10167C009DF81430582B3FF41CAF9DF81430782B88
:10168C003FF41BAF9DF81430732B3FF41CAF9DF847
:10169C001430632B9BD09DF81430752BACD09FE786
:1016AC000BF4E0639BB2002B00F058850BF48053D5
:1016BC009BB223B1062000B20FFA80FC01E00FFAB6
:1016CC0080FCD8F80040231DC8F8003014ED000A47
:1016DC008DED060AB5EEC00AF1EE10FA0ADA9DEDB0
:1016EC00060AB1EE400A8DED060A4BF0030B1FFA09
:1016FC008BFBFFE700231BB2ADF81C309DED060AF7
:10170C00B5EEC00AF1EE10FA4AD007AC06AB1B6876
:10171C00DB0D03F0FF037E3B2380BDF91C305C1E08
:10172C0024B2ADF81C4003231BB25C4324B2ADF8C9
:10173C001C400A231BB294FBF3F31BB2ADF81C3014
:10174C00002B04DABDF91C305B1EADF81C30BDF962
:10175C001C305B4258B2FFF779FBDDED060A20EE38
:10176C00800A8DED080ADDED080AB7EE000AF4EEEA
:10177C00C00AF1EE10FA05DABDF91C305B1EADF8AB
:10178C001C300DE0DDED080AB2EE040AF4EEC00ADE
:10179C00F1EE10FA04DBBDF91C305B1CADF81C300B
:1017AC00BDF91C30002B03DC01238DF8143003E051
:1017BC00BDF91C308DF814300BF480739BB283B9D7
:1017CC000BF400739BB25BB1BDF91C406FF00303CB
:1017DC009C4204DBBDF91C30634500DA00E000E0FC
:1017EC0058E2BCF1000F09D00BF400739BB233B17B
:1017FC00ACF1010000B20FFA80FCFFE7FFE71FFA23
:10180C008CF3082B03D908238DF8143001E08DF8E4
:10181C0014C09DED060AB5EEC00AF1EE10FA70D0B8
:10182C00BDF91C00FFF712FBDDED060A80EE800A05
:10183C008DED060A9DF814305B4258B2FFF706FB9B
:10184C00DDED060AC0EE800ACDED060ABCEE600A9C
:10185C0010EE103A00EE103AB8EE400A70EEC00AE4
:10186C00B6EE000AF4EEC00AF1EE10FA07DBDDED7D
:10187C00060AB6EE000A30EE800A8DED060A9DEDE2
:10188C00060ABCEE400A10EE105A9DF814305B1C90
:10189C001BB29C000D4B1B191B689D420ED3DDED3A
:1018AC00060A0B4B00EE103A20EE800A8DED060A6C
:1018BC00BDF91C305B1CADF81C3022E09DED060A16
:1018CC00BCEE400A00F006B81A00FF1F28680000A2
:1018DC00CDCCCC3D10EE105A9DF814309C00FB4B37
:1018EC001B191B689D420CD2DDED060AB2EE040AF0
:1018FC0020EE800A8DED060ABDF91C305B1EADF89A
:10190C001C300BF400739BB2002B41D00BF4006322
:10191C009BB2002B45D1BCF10A0F04DD0A2000B2AA
:10192C000FFA80FCFFE79DED060ABCEE400A10EEB4
:10193C00103A0893089B83B1089D0A24B5FBF4F375
:10194C0004FB13534BB9ACF1010C0FFA8CFC089C43
:10195C000A23B4FBF3F30893ECE79DF814309C4591
:10196C000EDA9DF81430A3EB0C0358B2FFF76EFAA5
:10197C00DDED060A80EE800A8DED060A8DF814C0A6
:10198C0033B2444652461FFA8BF00FFA8CF106E044
:10199C000FFA8CF11FFA8BF05246444633B21DB24B
:1019AC0006E00FFA8CF11FFA8BF05246444635B222
:1019BC004B1D1BB2ED1A2DB221B900F400639BB282
:1019CC0003B901E06D1E2DB200F003039BB213B1FD
:1019DC006D1E2DB2FFE700F004039BB2002B3ED02E
:1019EC0000F002039BB2ABB100F001039BB21BB140
:1019FC002D238DF80C3002E02B238DF80C309DF844
:101A0C000C3089F8003009F101067B1C1BB23746FB
:101A1C001EB210E000F001039BB243B1202389F801
:101A2C00003009F101067F1C3FB23BB201E03BB232
:101A3C004E4637461EB2002D07DD30233B707F1C0F
:101A4C00761C36B26D1E2DB2F5E7ADF804101146BA
:101A5C002AB2B84687B22046BDF9045050E000F0D7
:101A6C0008039BB2B3B93EB287B208B2C846002D88
:101A7C0009DD202388F8003008F10108761C36B205
:101A8C006D1E2DB2F3E70194144629B235B24646C9
:101A9C00019A0AE00192ADF8087087B208B229B237
:101AAC0022464E46BDF90850019C07F002039BB23A
:101ABC009BB107F001039BB21BB12D238DF80D30A8
:101ACC0002E02B238DF80D309DF80D303370761C11
:101ADC006B1C1BB2B0461EB20EE007F001039BB2AA
:101AEC003BB120233370761C6D1C2DB233462EB2C5
:101AFC0001E033462EB2984605B210460AB2214692
:101B0C009DED060ABCEE400A10EE103A08939DF8C3
:101B1C0014309C006D4B1B191C68089BB3FBF4F331
:101B2C00303388F8003008F10108741C24B22DB948
:101B3C0007F400639BB20BB9454641E02E2388F8AD
:101B4C00003008F1010904F101080FFA88F89DF83A
:101B5C001430EC1A24B20E4611B2024620B29DF893
:101B6C001430DBB19DF814305B1EDBB28DF81430F1
:101B7C009C00564B1B191C68089BB3FBF4F50A24FC
:101B8C00B5FBF4F304FB1353303389F8003009F13F
:101B9C00010908F101080FFA88F8E0E704B21046D1
:101BAC000AB231464E460FFA88F53CB130233370F9
:101BBC00761C6D1C2DB2641E24B2F6E72CB2354691
:101BCC0007F020039BB22BB145232B706D1C641CBA
:101BDC0024B204E065232B706D1C641C24B2BDF987
:101BEC001C30002B0BDABDF91C305B42ADF81C30FD
:101BFC002D232B7005F10108651C2DB205E02B235C
:101C0C002B7005F10108651C2DB2BDF91C400A238F
:101C1C001BB294FBF3F31BB2303388F8003008F19D
:101C2C000106B14605F101080FFA88F8BDF91C5000
:101C3C000A2424B295FBF4F304FB13531BB2303388
:101C4C00337009F1010408F101052DB207F0080306
:101C5C009BB29BB1002A17DDADF8045015B2BDF94B
:101C6C000420FFE720232370641C521C12B26B1E4D
:101C7C001BB21DB2002BF5D1234601E02AB223463C
:101C8C00054616B21A4602E02EB205462246084612
:101C9C00FFF7EFBA0BF400739BB2002B00F07380CC
:101CAC00BDF91C30002B07DABDF91C305B1E1BB2D2
:101CBC00ACEB030000B201E00FFA8CF09DED060ACC
:101CCC00BCEE400A10EE103A089301E028680000C0
:101CDC0001238DF814301FFA8BF59DF814300A2B64
:101CEC000FD09DF814309C00F84B1B191C68089BF6
:101CFC00A34200D205E09DF814305B1C8DF8143023
:101D0C00EBE79DF81430C41A0FFA84FB9DED080A1A
:101D1C00F8EE400A9DED060A30EE600A8DED0A0AD7
:101D2C0060B2FFF793F8DDED0A0A60EE800AB6EEBA
:101D3C00000A30EE800ABCEE400A10EE103A08930E
:101D4C0039B2AFB230B24E4642460FFA8BF8B8F108
:101D5C00000F10D0089D0A24B5FBF4F304FB1353B9
:101D6C004BB9089C0A23B4FBF3F30893A8F10108C0
:101D7C000FFA88F8EBE7B14606B2BDB20FB20FFA14
:101D8C0088F4904603E01FFA8BF50FFA8CF40C2CB8
:101D9C0008DCE0B2FEF756FFDDED060A30EE800AF5
:101DAC008DED060A9DED060AB5EEC00AF1EE10FAAD
:101DBC0039D09DED060ABCEE400A10EE103A93BBEA
:101DCC00BDF91C30012B2EDDBDF91C00FFF73EF8D0
:101DDC00DDED060AC0EE800ABD4B00EE103AF4EEC3
:101DEC00C00AF1EE10FA05DABDF91C30093BADF86A
:101DFC001C3004E0BDF91C30083BADF81C30BDF9BB
:101E0C001C00FFF723F8DDED060A80EE800ABCEE1D
:101E1C00400A10EE103A08934FF0000300EE103A0F
:101E2C008DED060A14E09DED060ABCEE400A10EE9C
:101E3C00103A08939DED080AF8EE400A9DED060A4B
:101E4C0030EE600A8DED060A00231BB2ADF81C3093
:101E5C0001238DF8143022B2514640460FFA86F811
:101E6C003EB24F469DF814300A2B0FD09DF814301B
:101E7C009C00964B1B191C68089BA34200D205E0E2
:101E8C009DF814305B1C8DF81430EBE79DF8143082
:101E9C00D41824B2BDF91C30E3181BB2A8EB030410
:101EAC0024B205F400639BB20BB902B901E0641EC5
:101EBC0024B205F003039BB213B1641E24B2FFE7F6
:101ECC0005F004039BB2002B38D005F002039BB243
:101EDC008BB105F001039BB21BB12D238DF80E3095
:101EEC0002E02B238DF80E309DF80E303B707F1CDA
:101EFC00761C36B20FE005F001039BB23BB12023F8
:101F0C003B707F1C761C36B233B23E4601E033B2D6
:101F1C003E4637461EB2002C07DD30233B707F1C3B
:101F2C00761C36B2641E24B2F5E70190B94627B28E
:101F3C000FFA86F8AEB210B2019A48E005F0080329
:101F4C009BB28BB9002C07DD20233B707F1C761CC9
:101F5C0036B2641E24B2F5E7ADF804400C46A9B2C3
:101F6C000546BDF9040004E00191A9B2054620B272
:101F7C00019C01F002039BB293B101F001039BB2EF
:101F8C001BB12D238DF80F3002E02B238DF80F3071
:101F9C009DF80F303B707F1C731C1BB23E460EE04D
:101FAC0001F001039BB233B120233B707F1C761CE4
:101FBC0036B23B4600E03B46019333B2019E07B27A
:101FCC0010B22A46B1468EB221460FFA83F89DF81C
:101FDC0014409DF814305B1E8DF81430BCB19DF884
:101FEC0014309C00394B1B191C68089BB3FBF4F58F
:101FFC000A24B5FBF4F304FB1353303389F8003097
:10200C0009F1010908F101080FFA88F8DFE70D461C
:10201C001446CA460FFA88F9BDF91C30002B0EDDA8
:10202C0030238AF800300AF1010A09F101090FFA8C
:10203C0089F9BDF91C305B1EADF81C30ECE70828A3
:10204C0003DD08238DF8143001E08DF814009DF8A1
:10205C001430C31A0FFA83F89DF8143023B906F420
:10206C0000639BB203B90AE02E238AF800300AF110
:10207C000103184609F101090FFA89F982469DF806
:10208C001400FEF7E3FEDDED060A20EE800ABDEE3D
:10209C00400A10EE103A089339B22746B2B22E46D7
:1020AC000FFA88F00FFA89F8D1469DF8143003B373
:1020BC009DF814305B1EDBB28DF814309C00034B82
:1020CC001B191C68089BB3FBF4F503E0286800009F
:1020DC005F7089400A24B5FBF4F304FB13533033CF
:1020EC0089F8003009F1010908F101080FFA88F8A4
:1020FC00DBE70DB2314606B238464F4694B20FFAC2
:10210C0088F23EB130233B707F1C521C12B2761EFB
:10211C0036B2F6E704F008039BB293B1002D16DD3E
:10212C0014B22AB23D46FFE720232B706D1C641CB1
:10213C0024B2531E1BB21AB2002BF5D123B22A467D
:10214C0001E013B23A4605461EB2134602E03B4686
:10215C0016B205461A460846FFF78BB80BF0C003BB
:10216C009BB20BBB0BF010039BB23BB1D8F80040F9
:10217C00231DC8F800302368089307E0D8F8004006
:10218C00231DC8F80030B4F900300893089B002BCD
:10219C0007DA4BF0030399B2089B5B4208938AB2AF
:1021AC0001E01FFA8BF214E00BF010039BB23BB171
:1021BC00D8F80040231DC8F800302368089306E0C7
:1021CC00D8F80040231DC8F80030238808931FFA64
:1021DC008BF228B9089B2BB9401C00B204B200E06A
:1021EC0004B200E004B202F0C003DDB263E00123EC
:1021FC008DF81430CDF804800FFA87F84F460FFA9B
:10220C0086F9514620B2019E9DF814300A2B0FD04E
:10221C009DF814309C00F24B1B191C68089BA342C0
:10222C0000D205E09DF814305B1C8DF81430EBE700
:10223C0004B230460FFA89F60FFA88F547E001230D
:10224C008DF81430514620B29DF81430082B0FD065
:10225C009DF814309C00E34B1B191C68089BA3428F
:10226C0000D205E09DF814305B1C8DF81430EBE7C0
:10227C0004B240463DB24F4629E001238DF814309C
:10228C00514620B29DF814300C2B0FD09DF8143011
:10229C009C00D54B1B191C68089BA34200D205E07F
:1022AC009DF814305B1C8DF81430EBE704B24046FB
:1022BC003DB24F460BE0002D99D0C02D97D0802D0C
:1022CC00BDD0402DD9D051463DB24F4640469DF829
:1022DC001430A34202DA8DF8144007E09DF8143054
:1022EC009C4203DA9DF814301CB2FFE736B102F0C1
:1022FC0003039BB21BB1761E36B2FFE7FFE7A64283
:10230C0002DD361B36B201E0002636B240F6C403BD
:10231C0002EA03039BB2B3F5046F04D116B1761E27
:10232C0036B2FFE70EE002F40C639BB2B3F5086F14
:10233C0008D1022E02DDB31E1BB201E000231BB23A
:10234C001EB2FFE702F004039BB2002B00F0798071
:10235C0002F002039BB2A3B102F001039BB21BB1CA
:10236C002D238DF8103002E02B238DF810309DF8C2
:10237C0010303B707F1C05F1010A0FFA8AFA3B46BC
:10238C002EE002F001039BB233B120233B707F1C83
:10239C006B1C1BB23D4620E002F40C639BB2B3F500
:1023AC00086F18D130233B707F1C6D1C2DB202F0CE
:1023BC0020039BB21BB158238DF8113002E0782317
:1023CC008DF811309DF811303B707F1C6D1C2DB2B7
:1023DC002BB23D4601E02BB23D460FFA83FA2B4659
:1023EC0026B305460F461FFA82F80FFA84F99B466E
:1023FC0002E00FFA8BF6E34630238BF800300BF13A
:10240C0001039C460AF1010A0FFA8AFA731E1BB2E9
:10241C000FFA83FB002BECD1284639461FFA88F2C1
:10242C000FFA89F40FFA8BF66346FFE70FFA86F979
:10243C001FFA82F8024620B21C460F460FFA8AF1A8
:10244C006EE0A6B102F008039BB28BB901E00FFA63
:10245C0088F620233B707F1C6D1C2DB2731E1BB2A3
:10246C000FFA83F8002BF2D10FFA88F6FFE7FFE79B
:10247C0002F002039BB28BB102F001039BB21BB1C1
:10248C002D238DF8123002E02B238DF812309DF89D
:10249C0012303B707F1C6D1C2DB209E002F0010361
:1024AC009BB22BB120233B707F1C6D1C2DB2FFE720
:1024BC0002F40C639BB2B3F5046F06D130233B706E
:1024CC007F1C6B1C1BB23D4621E002F40C639BB2DB
:1024DC00B3F5086F17D130233B707F1C6D1C2DB2E8
:1024EC0002F020039BB21BB158238DF8133002E08D
:1024FC0078238DF813309DF813303B707F1C6D1CC6
:10250C002DB23B4600E03B4601932BB2019D0FFAE6
:10251C0086F91FFA82F8024620B22C460F4619B2F1
:10252C009DF81430984205DD30232370641C491C3F
:10253C0009B2F5E705B208B221462CB26B1E0FFAB0
:10254C0083FA002C00F0638008F0C003DEB242E096
:10255C004FEA8A04224B1B191C68089BB3FBF4F549
:10256C000A24B5FBF4F304FB135330338DF8143009
:10257C0044E008F020039BB27BB14FEA8A04194B6C
:10258C001B191C68089BB3FBF4F303F00F04174BE7
:10259C001B191B788DF814300EE04FEA8A04114B8E
:1025AC001B191C68089BB3FBF4F303F00F04104BCE
:1025BC001B191B788DF8143020E04FEA8A040A4B63
:1025CC001B191C68089BB3FBF4F303F007033033AF
:1025DC008DF8143012E0002EBAD0C02EB8D009E01D
:1025EC002868000074680000F8670000A568000007
:1025FC0094680000802EBCD0402EDED09DF81430A4
:10260C000B70491C401C00B20FFA8AF595E708F0D4
:10261C0008039BB293B1B9F1000F14DD3D460FFADC
:10262C0089F4FFE720230B70491C401C00B2631E89
:10263C001BB21CB2002BF5D12B4600E03B4606B278
:10264C0015460A4603E03B4615460A4606B21846AE
:0E265C00FEF70FBE30B2DDF800E00BB07047A5
:100DE00081B0392803D8302801D3012100E0002147
:060DF000C8B201B070471B
:100E580081B0002857DA414248B249B26E292FDBE7
:100E6800642149B290FBF1F149B2123109B28A000A
:100E78005049891851ED000A642149B290FBF1F2FA
:100E880001FB120252B20A2149B292FBF1F149B2B6
:100E9800093109B28A004749891811ED000A60EE44
:100EA800800A0A2252B290FBF2F102FB110149B208
:100EB8008A004049891811ED000A20EE800A76E080
:100EC8000A281ADD0A2149B290FBF1F149B2093129
:100ED80009B28A003749891851ED000A0A2252B22C
:100EE80090FBF2F102FB110149B28A0031498918DD
:100EF80011ED000A20EE800A59E082002D49891878
:100F080011ED000A53E06E282FDB642149B290FBF3
:100F1800F1F149B2123109B28A002749891851ED15
:100F2800000A642149B290FBF1F201FB120252B2AD
:100F38000A2149B292FBF1F149B2093109B28A009A
:100F48001D49891811ED000A60EE800A0A2252B282
:100F580090FBF2F102FB110149B28A001649891887
:100F680011ED000A20EE800A21E00A281ADD0A2184
:100F780049B290FBF1F149B2093109B28A000E4930
:100F8800891851ED000A0A2252B290FBF2F102FBD5
:100F9800110149B28A000849891811ED000A20EEAA
:100FA800800A04E082000449891811ED000A01B0A2
:0C0FB800704700BF90670000C467000095
:100C500081B06E282FD36421B0FBF1F1C9B21231FB
:100C600009B28A002949891851ED000AB6EE000A36
:100C700060EE200A6421B0FBF1F201FB1202D2B255
:100C80000A21B2FBF1F1C9B2093109B28A001F4948
:100C9000891811ED000A60EE800A0A22B0FBF2F119
:100CA00002FB1101C9B28A001849891811ED000A26
:100CB00020EE800A27E00A281CD90A21B0FBF1F1B6
:100CC000C9B2093109B28A001049891851ED000AE8
:100CD000B6EE000A60EE200A0A22B0FBF2F102FB37
:100CE0001101C9B28A000949891811ED000A20EEE4
:100CF000800A08E082000549891851ED000AB6EE25
:100D0000000A20EE200A01B0704700BF9067000083
:000D1000E3
:102D380081B0CDF800E000212A480170FFF7FCFDC2
:102D480040F20003012227496020FFF741FF40F2CB
:102D5800CE77C0F2000700BF00BF7F1EFDD100BFC5
:102D680000BF00BF40F2010302221E496020FEF7A7
:102D78006DFA1C48007800F08000C0B2802815D198
:102D88001849087800F07F00C0B20870010109B244
:102D9800154800780009C0B2081800B2C0F5806074
:102DA80000B200EE100AB8EEC00A17E00D4800782D
:102DB800010109B20C48007800EE900AF8EE600AAA
:102DC800B3EE000AC0EE800A00EE101AB8EEC00A90
:102DD80030EE200AF0EE400AB0EE600ADDF800E0BE
:0C2DE80001B070472100FF1F2200FF1FF8
:102D100081B00091014600980A7832B10B780278B0
:102D2000934202D1491C401CF6E70B7802789A1AAC
:062D300010B201B0704773
:102DF40085B0CDF800E00190ADF80810ADF80C20D6
:102E04000493124C002240F20001204600F07AFAAA
:102E1400BDF90C20BDF90810049800F041F801999F
:102E24000498FEF7DFF9094C00224FF6FF712046A3
:102E340000F068FABDF90C20BDF90810049800F000
:102E44002FF8DDF800E005B0704700BF5E560000C3
:002E54007E
:1011E80081B00091014600980B461C465A1C1546D2
:1011F8000346421C10461A78227022780AB12B4600
:08120800F3E7084601B070474E
:102E900081B01CF8019B0BF8019BBBEB0A0FF8D12A
:042EA00001B07047C6
:102E540081B04FF000094FF0000CBDEB0A0F04DC09
:102E6400BDEB0B0F01DBD446EA464BF8049BBBEBEE
:102E74000A0FFAD1BCEB0A0F05DDE246D9F800B01F
:0A2E84000BF1040BF1E701B07047F9
:1034F00090B072B697480190974802909748039011
:1035000097480490974805909748069097480790E9
:10351000974808909748099097480A9097480B90C9
:1035200097480C90974998480D9098480E900D98A0
:1035300000F007000F9001F0010050B94CF220504C
:10354000934908804DF62810088040F2D211914826
:1035500001800021904801609048007800F001004F
:10356000C0B258B18E48007800F00800C0B220B157
:103570008B49087840F00800087021E0894800680D
:1035800040F00051874801608748006800F480706F
:10359000B0B9854801686FF4705001EA000040F44A
:1035A0004071814801608048006840F480717E4825
:1035B00001607D4801686FF4007001407A48016045
:1035C000AA217A4801700D9800F0100058B9784887
:1035D000007800F09F017648017076480078012855
:1035E00000D0FAE71BE00D9800F01000B8B10E997A
:1035F0007148814208D960216D4801706D4800789A
:10360000802800D0FAE70AE06948007800F09F01BE
:103610006748017067480078012800D0FAE70499EC
:1036200066480160664801686FF4402001400298D6
:1036300000F44020014362480160624801686FF471
:1036400040300140039800F4403001435D48016080
:103650000F9830B10F98012803D00F98022800D09E
:1036600064E0019800F0800050B9089800F0400034
:1036700028B10B9800F00300002800D100E015E00D
:103680005148006840F400714F4801604F4801689C
:103690004F4801404D480160069800F0040028B1F1
:1036A0004C4801684A4801404A4801600A994A4822
:1036B0000170059949480170059800F0040040B177
:1036C0004748007800F01000C0B2002800D1F7E7AA
:1036D00006E04348007800F01000C0B200B1F8E7FF
:1036E0004048007800F0BF01C9B2069800F0FD0024
:1036F00001433C480170079800F0E0013A48007827
:1037000000F01F00C0B201433748017001993748EB
:1037100001700B99364801700F98022805D1314885
:10372000007840F002012F480170BDE0019800F0E0
:10373000800020B90B9800F0030000B166E0224839
:10374000006840F40071204801602048016820486A
:1037500001404FE00000000000000C0000000100EC
:1037600000001401220000002400000000000000FE
:103770000200000046000000000000000000000001
:10378000000000000000000007000000C0D401009D
:103790000E2005400020054008ED00E000F0074045
:1037A00002D007403C80044010D0034000E00740B6
:1037B00001E0074003E007408038010044800440F6
:1037C0000070044004800440388004404890044065
:1037D000FFF8FFFE4C9004400840064000400640C1
:1037E00006400640014006400340064000500640A7
:1037F0000C4006407F480160069800F0040028B1A4
:103800007D4801687D4801407B4801600A997C48F9
:1038100001707C48007800F0BF01C9B2069800F042
:10382000FD000143774801700199774801700B99B9
:10383000764801700F98072805D1059840F080015F
:103840007348017002E0059971480170069800F014
:10385000040050B10B9800F0030030B96D480078B7
:1038600000F00200C0B200B9F8E7059800F00400CB
:1038700040B16848007800F01000C0B2002800D1C4
:10388000F7E706E06348007800F01000C0B200B12E
:10389000F8E7079800F0E0015F48007800F01F00AB
:1038A000C0B201435C480170089800F0BF015B485A
:1038B0000170099800F0BF0159480170089800F0A4
:1038C000400028B15548007840F04001534801704D
:1038D0000F98052806D14B48007840F0020149486E
:1038E00001701CE00F98062803D00F98072800D01D
:1038F00015E04B48007840F04001494801704548C8
:10390000007800F04000C0B200B9F8E70F9807282F
:1039100005D13F48007800F03F013D4801700F9805
:1039200018B10F98032800D029E03A48007800F039
:103930000C00C0B200B1F8E73A48006840F001015D
:103940003848016000213848016080213748016013
:10395000052137480160012134480160334800687F
:1039600000F0800000B9F9E70021304801602D48DF
:1039700001686FF0010001402A4801602DE00F98B6
:10398000012803D00F98022800D008E021480078D1
:1039900000F00C00C0B2042800D0F7E71DE00F983B
:1039A000042806D00F98062803D00F98052800D0C9
:1039B00008E01848007800F00C00C0B2082800D0D9
:1039C000F7E70AE00F98072807D11248007800F0BF
:1039D0000C00C0B20C2800D0F7E7164801686FF061
:1039E0000F0001400C9800F00F00014311480160E6
:1039F00010B07047489004404C900440FFF8FFFE20
:103A00000840064001400640005006400C40064079
:103A10000040064006400640034006400440064081
:103A2000054006403880044008000440000004407F
:083A300004000440488004403A
:1033E00081B002490248016001B07047C0D40100B9
:0433F0006048FF1F13
:0833C00081B0FEE701B0704787
:1033C80081B072B60349086840F47000086062B6BC
:0833D80001B0704788ED00E030
:1068D00000B5DFF814B0DFF814A0DFF814C0FCF73F
:1068E000D7FA00BD704700BF0000FF1F2100FF1F47
:0468F00050680000EC
:1069500000B5DFF810B0DFF810A0FCF77BFA00BD3F
:0C696000704700BF0000FF1F7848FF1FB9
:100400000000000000000000FFFFFFFF02FDFFFFF3
:103A380000103C003C0000000000000000000000F6
:103A4800000000000000000000000000000000006E
:103A5800000000000000000000000000000000005E
:103A680000000000084255AD7DEFFBDE9AD61084B9
:103A780061080000000000000000000000000000D5
:103A8800000000000000000000000000000000002E
:103A9800000000000000000000000000000000001E
:103AA800000000000000000000000000000000000E
:103AB80000000000000000000000000000000000FE
:103AC80000000000000000000000000000000000EE
:103AD800000000000000000045297DEFFFFFFFFF08
:103AE800FFFFFFFFFFFFFFFFFFFF929400000000B2
:103AF80000000000000000000000000000000000BE
:103B080000000000000000000000000000000000AD
:103B1800000000000000000000000000000000009D
:103B2800000000000000000000000000000000008D
:103B3800000000000000000000000000000000007D
:103B480000000000000000000000000000004529FF
:103B5800FFFFFFFFFFFFFFFFFFFFFFFFFFFFFFFF6D
:103B6800FFFFFFFF34A50000000000000000000078
:103B7800000000000000000000000000000000003D
:103B8800000000000000000000000000000000002D
:103B9800000000000000000000000000000000001D
:103BA800000000000000000000000000000000000D
:103BB80000000000000000000000000000000000FD
:103BC800000000000000FFFFFFFFFFFFFFFFFFFFF7
:103BD8007DEF5DEFFFFFFFFFFFFFFFFFFFFFF39CA0
:103BE80000000000000000000000000000000000CD
:103BF80000000000000000000000000000000000BD
:103C080000000000000000000000000000000000AC
:103C1800000000000000000000000000000000009C
:103C2800000000000000000000000000000000008C
:103C3800000000000000000000000000D39CFFFF0F
:103C4800FFFFFFFFFFFF084200000000610875AD9D
:103C5800FFFFFFFFFFFFFFFFA210000000000000B2
:103C6800000000000000000000000000000000004C
:103C7800000000000000000000000000000000003C
:103C8800000000000000000000000000000000002C
:103C9800000000000000000000000000000000001C
:103CA800000000000000000000000000000000000C
:103CB80000000000BEF7FFFFFFFFFFFF0421000028
:103CC8000000000000000000B6B5FFFFFFFFFFFF87
:103CD800CF7B0000000000000000E31845294529BB
:103CE80045294529452945294529452924210000F3
:103CF80000000000000000000000000000000000BC
:103D080000000000000000000000000000000000AB
:103D1800000000000000000000000000000000009B
:103D2800000000000000000000004108FFFFFFFF46
:103D3800FFFF18C60000000000000000000000009F
:103D48008210FFFFFFFFFFFF14A500000000000026
:103D58000421FFFFFFFFFFFFFFFFFFFFFFFFFFFF44
:103D6800FFFFFFFFFFFFCB5A00000000000000002C
:103D7800000000000000000000000000000000003B
:103D8800000000000000000000000000000000002B
:103D9800000000000000000000000000000000001B
:103DA80000000000FFFFFFFFFFFFD7BD000000007D
:103DB80000000000000000008210FFFFFFFFFFFF6F
:103DC800F7BD00000000000096B5FFFFFFFFFFFFF2
:103DD800FFFFFFFFFFFFFFFFFFFFFFFFFFFF34A510
:103DE80000000000000000000000000000000000CB
:103DF80000000000000000000000000000000000BB
:103E080000000000000000000000000000000000AA
:103E1800000000000000000000000000FFFFFFFF9E
:103E2800FFFF18C6000000000000000000000000AE
:103E38000000FFFFFFFFFFFF9AD600000000000010
:103E48006529FFFFFFFFFFFFFFFFFFFFFFFFFFFFEA
:103E5800FFFFFFFFFFFFEF7B0000000000000000F6
:103E6800000000000000000000000000000000004A
:103E7800000000000000000000000000000000003A
:103E8800000000000000000000000000000000002A
:103E980000000000FFFFFFFFFFFF18C60000000042
:103EA80000000000000000000000FFFFFFFFFFFF10
:103EB80079CE000000000000000086319294308422
:103EC80030843084308430843084518C0C6300001A
:103ED80000000000000000000000000000000000DA
:103EE80000000000000000000000000000000000CA
:103EF80000000000000000000000000000000000BA
:103F0800000000000000000000000000FFFFFFFFAD
:103F1800FFFF18C6000000000000000000000000BD
:103F28000000FFFFFFFFFFFF79CE00000000000048
:103F38000000000000000000000000000000000079
:103F48000000000000000000000000000000000069
:103F58000000000000000000000000000000000059
:103F68000000000000000000000000000000000049
:103F78000000000000000000000000000000000039
:103F880000000000FFFFFFFFFFFF18C60000000051
:103F980000000000000000000000FFFFFFFFFFFF1F
:103FA80079CE0000000000000000000000000000C2
:103FB80000000000000000000000000000000000F9
:103FC80000000000000000000000000000000000E9
:103FD80000000000000000000000000000000000D9
:103FE80000000000000000000000000000000000C9
:103FF800000000000000000000000000FFFFFFFFBD
:10400800FFFF18C6000000000000000000000000CC
:104018000000FFFFFFFFFFFF79CE00000000000057
:104028000000000000000000000000000000000088
:104038000000000000000000000000000000000078
:104048000000000000000000000000000000000068
:104058000000000000000000000000000000000058
:104068000000000000000000000000000000000048
:1040780000000000FFFFFFFFFFFF18C60000000060
:1040880000000000000000000000FFFFFFFFFFFF2E
:1040980079CE000000000000000096B518C6F7BDF4
:1040A800F7BDF7BDF7BDF7BDF7BDF7BD9AD6200040
:1040B80000000000000000000000000000000000F8
:1040C80000000000000000000000000000000000E8
:1040D80000000000000000000000000000000000D8
:1040E800000000000000000000000000FFFFFFFFCC
:1040F800FFFF18C6000000000000000000000000DC
:104108000000FFFFFFFFFFFF79CE00000000000066
:104118001084FFFFFFFFFFFFFFFFFFFFFFFFFFFF11
:10412800FFFFFFFFFFFF55AD00000000000000008B
:104138000000000000000000000000000000000077
:104148000000000000000000000000000000000067
:104158000000000000000000000000000000000057
:1041680000000000FFFFFFFFFFFF18C6000000006F
:1041780000000000000000000000FFFFFFFFFFFF3D
:1041880079CE0000000000009294FFFFFFFFFFFFC0
:10419800FFFFFFFFFFFFFFFFFFFFFFFFFFFF96B5DA
:1041A8000000000000000000000000000000000007
:1041B80000000000000000000000000000000000F7
:1041C80000000000000000000000000000000000E7
:1041D800000000000000000000000000FFFFFFFFDB
:1041E800FFFF18C6000000000000000000000000EB
:1041F8000000FFFFFFFFFFFF79CE00000000000076
:10420800000096B5FFFFFFFFFFFFFFFFFFFFFFFF67
:10421800FFFFFFFF9EF7E31800000000000000000A
:104228000000000000000000000000000000000086
:104238000000000000000000000000000000000076
:104248000000000000000000000000000000000066
:1042580000000000FFFFFFFFFFFF18C6000000007E
:1042680000000000000000000000FFFFFFFFFFFF4C
:1042780079CE0000000000000000000000000000EF
:104288000000000000000000000000000000000026
:104298000000000000000000000000000000000016
:1042A8000000000000000000000000000000000006
:1042B80000000000000000000000000000000000F6
:1042C800000000000000000000000000FFFFFFFFEA
:1042D800FFFF18C6000000000000000000000000FA
:1042E8000000FFFFFFFFFFFF79CE00000000000085
:1042F80000000000000000000000000000000000B6
:1043080000000000000000000000000000000000A5
:104318000000000000000000000000000000000095
:104328000000000000000000000000000000000085
:104338000000000000000000000000000000000075
:1043480000000000FFFFFFFFFFFF18C6000000008D
:1043580000000000000000000000FFFFFFFFFFFF5B
:1043680079CE0000000000000000000000000000FE
:104378000000000000000000000000000000000035
:104388000000000000000000000000000000000025
:104398000000000000000000000000000000000015
:1043A8000000000000000000000000000000000005
:1043B800000000000000000000000000FFFFFFFFF9
:1043C800FFFF18C600000000E318042100000000E9
:1043D8000000FFFFFFFFFFFF79CE00000000000094
:1043E80000002421A210A210A210A210A210A21054
:1043F800A210A2102421000000000000000000000C
:1044080000000000000000000000000000000000A4
:104418000000000000000000000000000000000094
:104428000000000000000000000000000000000084
:1044380000000000FFFFFFFFFFFF18C60000694AE9
:10444800FFFFFFFF5DEF00000000FFFFFFFFFFFF22
:1044580079CE0000000000004529FFFFFFFFFFFFA5
:10446800FFFFFFFFFFFFFFFFFFFFFFFFFFFF2C63C3
:104478000000000000000000000000000000000034
:104488000000000000000000000000000000000024
:104498000000000000000000000000000000000014
:1044A800000000000000000000000000FFFFFFFF08
:1044B800FFFF18C60000518CFFFFFFFFFFFFA6316A
:1044C8000000FFFFFFFFFFFF79CE000000000000A3
:1044D80018C6FFFFFFFFFFFFFFFFFFFFFFFFFFFF04
:1044E800FFFFFFFFFFFF34A50000000000000000F1
:1044F80000000000000000000000000000000000B4
:1045080000000000000000000000000000000000A3
:104518000000000000000000000000000000000093
:1045280000000000FFFFFFFFFFFF18C6000055ADA9
:10453800FFFFFFFFFFFF694A0000FFFFFFFFFFFFCC
:1045480079CE000000000000A631FFFFFFFFFFFF4B
:10455800FFFFFFFFFFFFFFFFFFFFFFFFFFFFAE7340
:104568000000000000000000000000000000000043
:104578000000000000000000000000000000000033
:104588000000000000000000000000000000000023
:10459800000000000000000000000000FFFFFFFF17
:1045A800FFFF18C6000034A5FFFFFFFFFFFF494AC1
:1045B8000000FFFFFFFFFFFF79CE000000000000B2
:1045C8000000652934A5D39CD39CD39CD39CD39C51
:1045D800D39C34A524210000000000000000000046
:1045E80000000000000000000000000000000000C3
:1045F80000000000000000000000000000000000B3
:1046080000000000000000000000000000000000A2
:1046180000000000FFFFFFFFFFFF18C6000034A5E1
:10462800FFFFFFFFFFFF494A0000FFFFFFFFFFFFFB
:1046380079CE00000000000000000000000000002B
:104648000000000000000000000000000000000062
:104658000000000000000000000000000000000052
:104668000000000000000000000000000000000042
:104678000000000000000000000000000000000032
:10468800000000000000000000000000FFFFFFFF26
:10469800FFFF18C6000034A5FFFFFFFFFFFF494AD0
:1046A8000000FFFFFFFFFFFF79CE000000000000C1
:1046B80000000000000000000000000000000000F2
:1046C80000000000000000000000000000000000E2
:1046D80000000000000000000000000000000000D2
:1046E80000000000000000000000000000000000C2
:1046F80000000000000000000000000000000000B2
:1047080000000000FFFFFFFFFFFF18C6000034A5F0
:10471800FFFFFFFFFFFF494A0000FFFFFFFFFFFF0A
:1047280079CE00000000000000000000000000003A
:104738000000000000000000000000000000000071
:104748000000000000000000000000000000000061
:104758000000000000000000000000000000000051
:104768000000000000000000000000000000000041
:10477800000000000000000000000000FFFFFFFF35
:10478800FFFF18C6000034A5FFFFFFFFFFFF494ADF
:104798000000FFFFFFFFFFFF79CE000000000000D0
:1047A80000000000821096B5FFFFBEF7BEF7BEF707
:1047B800BEF7FFFFF7BDA2100000000000000000D8
:1047C80000000000000000000000000000000000E1
:1047D80000000000000000000000000000000000D1
:1047E80000000000000000000000000000000000C1
:1047F80000000000FFFFFFFFFFFF18C6000034A500
:10480800FFFFFFFFFFFF494A0000FFFFFFFFFFFF19
:1048180079CE00000000000000000000F7BDFFFF97
:10482800FFFFFFFFFFFFFFFFFFFFFFFFFFFF14A5D5
:104838000000000000000000000000000000000070
:104848000000000000000000000000000000000060
:104858000000000000000000000000000000000050
:10486800000000000000000000000000FFFFFFFF44
:10487800FFFF18C6000034A5FFFFFFFFFFFF494AEE
:104888000000FFFFFFFFFFFF79CE000000000000DF
:1048980000000000F7BDFFFFFFFFFFFFFFFFFFFF66
:1048A800FFFFFFFFFFFF14A500000000000000004D
:1048B80000000000000000000000000000000000F0
:1048C80000000000000000000000000000000000E0
:1048D80000000000000000000000000000000000D0
:1048E80000000000FFFFFFFFFFFF18C6000034A50F
:1048F800FFFFFFFFFFFF494A0000FFFFFFFFFFFF29
:104908009AD600000000000000000000821096B552
:10491800FFFFBEF7BEF7BEF7BEF7FFFFF7BDA21059
:10492800000000000000000000000000000000007F
:10493800000000000000000000000000000000006F
:10494800000000000000000000000000000000005F
:1049580000000000000000002421DBDEFFFFFFFF55
:10496800FFFF18C6000034A5FFFFFFFFFFFF494AFD
:104978000000FFFFFFFFFFFFFFFF92940000000011
:10498800000000000000000000000000000000001F
:10499800000000000000000000000000000000000F
:1049A80000000000000000000000000000000000FF
:1049B80000000000000000000000000000000000EF
:1049C80000000000000000000000000000004D6B27
:1049D800FFFFFFFFFFFFFFFFFFFF79CE000034A5B9
:1049E800FFFFFFFFFFFF494A0000FFFFFFFFFFFF38
:1049F800FFFFFFFFBAD661080000000000000000BA
:104A0800000000000000000000000000000000009E
:104A1800000000000000000000000000000000008E
:104A2800000000000000000000000000000000007E
:104A3800000000000000000000000000000000006E
:104A480000000000EF7BFFFFFFFFFFFFFFFFFFFFFE
:104A58003CE7AA52000014A5FFFFFFFFFFFF494AE9
:104A6800000096B5DFFFFFFFFFFFFFFFFFFF5DEFD1
:104A780041080000000000000000000000000000E5
:104A8800000000000000000000000000000000001E
:104A9800000000000000000000000000000000000E
:104AA80000000000000000000000000000000000FE
:104AB80000000000000000000000AA52FFFFFFFFF6
:104AC800FFFFFFFFFFFFCB5A00000000000018C6E1
:104AD800FFFFFFFFFFFF694A000000008210B6B524
:104AE800FFFFFFFFFFFFFFFFBEF700000000000011
:104AF80000000000000000000000000000000000AE
:104B0800000000000000000000000000000000009D
:104B1800000000000000000000000000000000008D
:104B2800000000000000000000000000000000007D
:104B3800A210FFFFFFFFFFFFFFFF5DEF2000000057
:104B4800821014A5FFFFFFFFFFFFFFFFFFFFFFFF1E
:104B58003CE7CB5A000000008E73FFFFFFFFFFFF0A
:104B6800FFFF34A500000000000000000000000066
:104B7800000000000000000000000000000000002D
:104B8800000000000000000000000000000000001D
:104B9800000000000000000000000000000000000D
:104BA800000000000000000059CEFFFFFFFFFFFFDC
:104BB8001CE741080000AE73FFFFFFFFFFFFFFFF88
:104BC800FFFFFFFFFFFFFFFFFFFFFFFF1CE761087D
:104BD8000000EF7BFFFFFFFFFFFFFFFF45290000FD
:104BE80000000000000000000000000000000000BD
:104BF80000000000000000000000000000000000AD
:104C0800000000000000000000000000000000009C
:104C18000000000000000000000000000000A631B5
:104C2800FFFFFFFFFFFFFFFF04210000AE73FFFF40
:104C3800FFFFFFFFFFFFFFFFFFFFFFFFFFFFFFFF7C
:104C4800FFFFFFFFFFFF3CE720000000F39CFFFF92
:104C5800FFFFFFFF79CE0000000000000000000009
:104C6800000000000000000000000000000000003C
:104C7800000000000000000000000000000000002C
:104C8800000000000000000000000000000000001C
:104C9800000000000000B6B5FFFFFFFFFFFFEF7B3D
:104CA80000002842FFFFFFFFFFFFFFFFFFFFFFFF9E
:104CB800FFFFFFFFFFFFFFFFFFFFFFFFFFFFFFFFFC
:104CC8005DEF00000000FFFFFFFFFFFFFFFF8631E1
:104CD80000000000000000000000000000000000CC
:104CE80000000000000000000000000000000000BC
:104CF80000000000000000000000000000000000AC
:104D08000000000000000000000000000000FFFF9D
:104D1800FFFFFFFFFFFF00000000FFFFFFFFFFFF97
:104D2800FFFFFFFFFFFFFFFFFFFFFFFFFFFFFFFF8B
:104D3800FFFFFFFFFFFFFFFFFFFFCF7B00008E732A
:104D4800FFFFFFFFFFFFB29400000000000000001B
:104D5800000000000000000000000000000000004B
:104D6800000000000000000000000000000000003B
:104D7800000000000000000000000000000000002B
:104D8800000000002842FFFFFFFFFFFFB6B500004C
:104D9800CF7BFFFFFFFFFFFFFFFFFFFFFFFFFFFFCF
:104DA800FFFFFFFFFFFFFFFFFFFFFFFFFFFFFFFF0B
:104DB800FFFFFFFF00004108FFFFFFFFFFFF9EF717
:104DC80000000000000000000000000000000000DB
:104DD80000000000000000000000000000000000CB
:104DE80000000000000000000000000000000000BB
:104DF8000000000000000000000000001084FFFF19
:104E0800FFFFFFFF494A0000DBDEFFFFFFFFFFFF58
:104E1800FFFFFFFFFFFFFFFFFFFFFFFFFFFFFFFF9A
:104E2800FFFFFFFFFFFFFFFFFFFFFFFF084200003C
:104E38009EF7FFFFFFFFFFFF410800000000000092
:104E4800000000000000000000000000000000005A
:104E5800000000000000000000000000000000004A
:104E6800000000000000000000000000000000003A
:104E78000000000075ADFFFFFFFFFFFF000000000E
:104E8800FFFFFFFFFFFFFFFFFFFFFFFFFFFFFFFF2A
:104E9800FFFFFFFFFFFFFFFFFFFFFFFFFFFFFFFF1A
:104EA800FFFFFFFF518C0000B294FFFFFFFFFFFFE1
:104EB80020000000000000000000000000000000CA
:104EC80000000000000000000000000000000000DA
:104ED80000000000000000000000000000000000CA
:104EE800000000000000000000000000B294FFFF76
:104EF800FFFFFFFFA2100000FFFFFFFFFFFFFFFF04
:104F0800FFFFFFFFFFFFFFFFFFFFFFFFFFFFFFFFA9
:104F1800FFFFFFFFFFFFFFFFFFFFFFFF30840000E1
:104F2800F7BDFFFFFFFFFFFF0000000000000000CB
:104F38000000000000000000000000000000000069
:104F48000000000000000000000000000000000059
:104F58000000000000000000000000000000000049
:104F680000000000B294FFFFFFFFFFFF8210000067
:104F7800FFFFFFFFFFFFFFFFFFFFFFFFFFFFFFFF39
:104F8800FFFFFFFFFFFFFFFFFFFFFFFFFFFFFFFF29
:104F9800FFFFFFFF8E730000F7BDFFFFFFFFFFFF5E
:104FA80000000000000000000000000000000000F9
:104FB80000000000000000000000000000000000E9
:104FC80000000000000000000000000000000000D9
:104FD800000000000000000000000000B6B5FFFF60
:104FE800FFFFFFFF00000000FFFFFFFFFFFFFFFFC5
:104FF800FFFFFFFFFFFFFFFFFFFFFFFFFFFFFFFFB9
:10500800FFFFFFFFFFFFFFFFFFFFFFFF30840000F0
:10501800718CFFFFFFFFFFFF410800000000000048
:105028000000000000000000000000000000000078
:105038000000000000000000000000000000000068
:105048000000000000000000000000000000000058
:1050580000000000AE73FFFFFFFFFFFFCB5A000008
:1050680059CEFFFFFFFFFFFFFFFFFFFFFFFFFFFF1F
:10507800FFFFFFFFFFFFFFFFFFFFFFFFFFFFFFFF38
:10508800FFFFFFFFC73900003CE7FFFFFFFFFFFFFF
:10509800610800000000000000000000000000009F
:1050A80000000000000000000000000000000000F8
:1050B80000000000000000000000000000000000E8
:1050C800000000000000000000000000E739FFFFBA
:1050D800FFFFFFFFF7BD0000EB5AFFFFFFFFFFFFD9
:1050E800FFFFFFFFFFFFFFFFFFFFFFFFFFFFFFFFC8
:1050F800FFFFFFFFFFFFFFFFFFFFFFFF000061084B
:10510800FFFFFFFFFFFF3CE700000000000000007A
:105118000000000000000000000000000000000087
:105128000000000000000000000000000000000077
:105138000000000000000000000000000000000067
:10514800000000002000FFFFFFFFFFFF9EF70000A8
:105158000000BEF7FFFFFFFFFFFFFFFFFFFFFFFF9E
:10516800FFFFFFFFFFFFFFFFFFFFFFFFFFFFFFFF47
:10517800FFFF0C6300003084FFFFFFFFFFFF9294E6
:105188000000000000000000000000000000000017
:105198000000000000000000000000000000000007
:1051A80000000000000000000000000000000000F7
:1051B800000000000000000000000000000014A52E
:1051C800FFFFFFFFFFFFB2940000E739FFFFFFFF7B
:1051D800FFFFFFFFFFFFFFFFFFFFFFFFFFFFFFFFD7
:1051E800FFFFFFFFFFFFFFFF59CE00000000FFFF9A
:1051F800FFFFFFFFFFFF2421000000000000000068
:105208000000000000000000000000000000000096
:105218000000000000000000000000000000000086
:105228000000000000000000000000000000000076
:105238000000000000004529FFFFFFFFFFFFFFFF00
:1052480004210000518CFFFFFFFFFFFFFFFFFFFF5E
:10525800FFFFFFFFFFFFFFFFFFFFFFFFFFFFDFFF76
:1052680082100000B6B5FFFFFFFFFFFFB6B50000D4
:105278000000000000000000000000000000000026
:105288000000000000000000000000000000000016
:105298000000000000000000000000000000000006
:1052A80000000000000000000000000000000000F6
:1052B80014A5FFFFFFFFFFFFDFFF0000000086319E
:1052C800FFFFFFFFFFFFFFFFFFFFFFFFFFFFFFFFE6
:1052D800FFFFFFFF18C6000000000C63FFFFFFFF81
:1052E800FFFFFFFF4529000000000000000000004C
:1052F80000000000000000000000000000000000A6
:105308000000000000000000000000000000000095
:105318000000000000000000000000000000000085
:1053280000000000000000004108BEF7FFFFFFFF7B
:10533800FFFF5DEF452900000000CF7B9EF7FFFFD0
:10534800FFFFFFFFFFFFFFFF38C6494A00000000CC
:105358001084FFFFFFFFFFFFFFFF92940000000093
:105368000000000000000000000000000000000035
:105378000000000000000000000000000000000025
:105388000000000000000000000000000000000015
:105398000000000000000000000000000000000005
:1053A80000008631FFFFFFFFFFFFFFFFFFFFAE7327
:1053B8000000000000006108A6312421C739000060
:1053C80000000000C31879CEFFFFFFFFFFFFFFFFBB
:1053D80038C60000000000000000000000000000C7
:1053E80000000000000000000000000000000000B5
:1053F80000000000000000000000000000000000A5
:105408000000000000000000000000000000000094
:10541800000000000000000000000000694AFFFFD3
:10542800FFFFFFFFFFFFFFFFFFFF1084A210000038
:105438000000000000000000694AF7BDFFFFFFFF01
:10544800FFFFFFFFFFFF1CE7000000000000000057
:105458000000000000000000000000000000000044
:105468000000000000000000000000000000000034
:105478000000000000000000000000000000000024
:105488000000000000000000000000000000000014
:105498000000000000008631FFFFFFFFFFFFFFFF55
:1054A800FFFFFFFFFFFFFFFF3CE7BEF7FBDEFFFF4D
:1054B800FFFFFFFFFFFFFFFFFFFFFFFFF7BD00003C
:1054C80000000000000000000000000000000000D4
:1054D80000000000000000000000000000000000C4
:1054E80000000000000000000000000000000000B4
:1054F80000000000000000000000000000000000A4
:105508000000000000000000000000000000000093
:10551800410879CEFFFFFFFFFFFFFFFFFFFFFFFFFF
:10552800FFFFFFFFFFFFFFFFFFFFFFFFFFFFFFFF83
:10553800FFFF2C63000000000000000000000000D6
:105548000000000000000000000000000000000053
:105558000000000000000000000000000000000043
:105568000000000000000000000000000000000033
:105578000000000000000000000000000000000023
:10558800000000000000000000000000084238C6CB
:10559800FFFFFFFFFFFFFFFFFFFFFFFFFFFFFFFF13
:1055A800FFFFFFFFFFFFF39C610800000000000001
:1055B80000000000000000000000000000000000E3
:1055C80000000000000000000000000000000000D3
:1055D80000000000000000000000000000000000C3
:1055E80000000000000000000000000000000000B3
:1055F80000000000000000000000000000000000A3
:1056080000000000000000000000AA52F39CDBDE4E
:105618001CE7FBDE7DEF96B5CF7B863100000000EE
:105628000000000000000000000000000000000072
:105638000000000000000000000000000000000062
:105648000000000000000000000000000000000052
:065658000000000000004C
:10565E00000020007F001010038801000298010056
:10566E0004A8010008B8010006C801000BD801000B
:10567E0008F80100020802000518020004280200C2
:10568E0006380200074802000258020004680200B1
:10569E0002780200058802000698020006A80200A1
:1056AE0006B8020006C8020006D8020006E802008C
:1056BE0006F8020006080300061803000628030079
:1056CE00033803000348030008580300086803006A
:1056DE0008780300058803000B98030007B8030041
:1056EE0006C8030007D8030007E8030006F8030006
:1056FE0006080400071804000728040003380400F5
:10570E0004480400065804000568040009780400E3
:10571E000798040008A8040006B8040008C804008E
:10572E0007D8040007E8040007F80400070805007E
:10573E00071805000B280500074805000758050047
:10574E000668050004780500058805000498050024
:10575E0009A8050007C8050005D8050006E80500DC
:10576E0006F80500050806000618060006280600BD
:10577E0005380600064806000658060002680600B0
:10578E000378060005880600029806000AA806009F
:10579E0006C8060006D8060006E8060006F806004B
:1057AE00040807000518070004280700063807003C
:1057BE000548070009580700057807000588070007
:1057CE000598070005A8070003B8070005C80700DD
:1057DE0008D8070003E807000000000000000000E2
:1057EE0000000000000000000000000002020202A3
:1057FE0002020002020000000000000A0A0A0A006B
:10580E000000000000000000000000005050FC28C6
:10581E00287E28141400000000000004043E050534
:10582E00061C24241F0404000000000000000000D9
:10583E000C019200920052002C03A00490049004DC
:10584E000803000000000000000000001E212112CD
:10585E004E5161619E000000000000020202020033
:10586E000000000000000000000000100804040208
:10587E0002020202040408100000000102040408DF
:10588E000808080804040201000000082A1C2A085F
:10589E0000000000000000000000000000080808E2
:1058AE007F08080800000000000000000000000053
:1058BE0000000002020201000000000000000000D3
:1058CE000F000000000000000000000000000000BB
:1058DE00000000020200000000000010100808087E
:1058EE000404020202010100000000001E21212119
:1058FE00212121211E00000000000000080E0808D2
:10590E00080808083E000000000000001E212020AC
:10591E00100C02013F000000000000001E2120209C
:10592E001C2020211E000000000000001018141280
:10593E00113F101010000000000000003F01011F79
:10594E00202020211E000000000000001C02011F6C
:10595E00212121211E000000000000003F20101018
:10596E000808040402000000000000001E2121218E
:10597E001E2121211E000000000000001E212121F9
:10598E00213E20100E000000000000000000040464
:10599E0000000004040000000000000000000404E9
:1059AE0000000004040402000000000000806018E3
:1059BE00061860800000000000000000000000FEDD
:1059CE000000FE00000000000000000000020C308D
:1059DE00C0300C0200000000000000000E11100884
:1059EE00040200020200000000000000000000009F
:1059FE00F8000603F2028904890489048904F2037B
:105A0E000600F80000000000000000000808141452
:105A1E0022223E4141000000000000000F11111132
:105A2E001F2121211F000000000000003C42010147
:105A3E00010101423C000000000000001F21414115
:105A4E00414141211F000000000000003F01010103
:105A5E003F0101013F000000000000003F01010175
:105A6E003F01010101000000000000003C42010165
:105A7E00017141427C0000000000000041414141A3
:105A8E007F41414141000000000000000702020278
:105A9E000202020207000000000000000E080808C3
:105AAE000808080807000000000000002111090581
:105ABE000305091121000000000000000101010191
:105ACE00010101011F0000000000000000000000A5
:105ADE0083018301450145012901290111011101AC
:105AEE000101000000000000000000004343454596
:105AFE004951516161000000000000003C4281816B
:105B0E00818181423C000000000000001F21212104
:105B1E001F01010101000000000000003C428181D4
:105B2E00818181423C10E000000000001F212121F4
:105B3E001F09112141000000000000003E4101013B
:105B4E003E4040413E000000000000007F08080873
:105B5E00080808080800000000000000414141410B
:105B6E00414141221C000000000000004141412241
:105B7E0022141408080000000000000000000000BD
:105B8E00210421045104510452028A028A028A021B
:105B9E000401000000000000000000004122141467
:105BAE0008141422410000000000000041222214BB
:105BBE000808080808000000000000003F20100838
:105BCE00040402013F0000000000000E0202020267
:105BDE000202020202020E00000000010102020295
:105BEE0004040808081010000000000E0808080839
:105BFE000808080808080E00000000000000000059
:105C0E003000480084000201000000000000000087
:105C1E000000000000000000000000000000000076
:105C2E000000000000007F000000000810000000CF
:105C3E0000000000000000000000000000001E2018
:105C4E00203E21312E0000000000000101011D2325
:105C5E00212121211F0000000000000000001E0174
