:10000000FCFF022001100000F10F0000F10F0000C2
:10001000F10F0000F10F0000F10F0000F10F0000E0
:10002000F10F0000F10F0000F10F0000F10F0000D0
:10003000F10F0000F10F0000F10F0000F10F0000C0
:10004000F10F0000F10F0000F10F0000F10F0000B0
:10005000F10F0000F10F0000F10F0000F10F0000A0
:10006000F10F0000F10F0000F10F0000F10F000090
:10007000F10F0000F10F0000F10F0000F10F000080
:10008000F10F0000F10F0000F10F0000F10F000070
:10009000F10F0000F10F0000F10F0000F10F000060
:1000A000F10F0000F10F0000F10F0000F10F000050
:1000B000F10F0000F10F0000F10F0000F10F000040
:1000C000F10F0000F10F0000F10F0000F10F000030
:1000D000F10F0000F10F0000F10F0000F10F000020
:1000E000F10F0000F10F0000F10F0000F10F000010
:1000F000F10F0000F10F0000F10F0000F10F000000
:10010000F10F0000F10F0000F10F0000F10F0000EF
:10011000F10F0000F10F0000F10F0000F10F0000DF
:10012000F10F0000F10F0000F10F0000F10F0000CF
:10013000F10F0000F10F0000F10F0000F10F0000BF
:10014000F10F0000F10F00000D160000F10F00008C
:10015000F10F0000F10F0000F10F0000F10F00009F
:10016000F10F0000F10F0000F10F0000F10F00008F
:10017000F10F0000F10F0000F10F0000F10F00007F
:10018000F10F0000F10F0000F10F0000F10F00006F
:08019000F10F0000F10F000067
:1010000000F01AFB00F0F6FA05F0AAFA00F0B8FDBD
:1010100005F058FA4FF48061374800F0DFFA4FF0DE
:101020001001364800F0DAFA4FF40001344800F0BD
:10103000D5FA00F075F9334801B440F2200340F2CC
:10104000000240F200014FF46130FFF797FF01B05A
:10105000FFF78CFF40F25200FFF742FF2A49087861
:1010600040F020000870012149B22848016041F693
:101070007E27C0F2060700BF00BF7F1EFDD100BF64
:1010800000BF00BF012149B22148016041F2FE17B3
:10109000C0F27A0700BF00BF7F1EFDD100BF00BFB6
:1010A00000BF002149B21B4801601B4801601B487A
:1010B0000022002100F0D2F819480078B0F1FF0FAB
:1010C00017D00AE0012149B2164801600EE0012163
:1010D00049B21548016009E008E01148007800288D
:1010E000F0D00F4800780128F1D0F5E7FF210C4837
:1010F0000170E1E7FEE700BF00F00F4080F00F4015
:1011000040F00F409C63000003A00E405C09FE43CA
:10111000DC08FE431010FE432800FE43941B000031
:0C1120000000FF1F9011FE43A801FE43D9
:0E0F6C0081B0EFF3108C604662B601B07047A2
:100EE00081B0042806D11949096841F480321749B4
:100EF0000A6028E0052806D11449096841F4003247
:100F000012490A601FE0062806D11049096841F419
:100F100080220E490A6016E00F2806D10C490968A4
:100F200041F002020A490A600DE010280BD3A0F23A
:100F3000100461098A0007498B1804F01F024FF062
:100F400001019140196001B0704700BF24ED00E03D
:080F500010E000E000E100E008
:100F580081B01CF8019B0BF8019BBBEB0A0FF8D181
:040F680001B070471D
:100FB40081B04FF000094FF0000CBDEB0A0F04DCC8
:100FC400BDEB0B0F01DBD446EA464BF8049BBBEBAD
:100FD4000A0FFAD1BCEB0A0F05DDE246D9F800B0DE
:0A0FE4000BF1040BF1E701B07047B8
:1015DC0081B0CDF800E0034AFFF73CFCDDF800E0F9
:0815EC0001B070470401040086
:100E600081B0CDF800E0FFF717FEDDF800E001B03B
:020E70007047C9
:100A980083B0CDF800E006460C4615463046FFF711
:100AA8005BFE40F2FF1306EA030080090026224697
:100AB8002946202E39D24FF0010303FA06F402EA40
:100AC80004031F46A3422ED104031A4B1C19B3007A
:100AD800E51801952C68184B04EA03032B60174BA3
:100AE80001EA0304019B1B6843EA0404019B1C60A0
:100AF80001F48033B3F5803F15D08401104B1B19E6
:100B08001433029301F400333BB1FC43029B1B688E
:100B180003EA0404029B1C6005E0029B1B6843EA8D
:100B28000704029B1C60761CC3E7DDF800E003B0F5
:100B3800704700BF009004400000FFFFFFFF000067
:040B480000F00F406A
:1007600081B040F2FF1100EA01018909084600F258
:1007700009024FF0010101FA02F20449096841EA55
:10078000020202490A6001B0704700BF388004408D
:0007900069
:1013200081B0CDF800E00321A24801700021A2485D
:1013300001604FF40051A14800F050F94FF4004112
:101340009F4800F04BF94FF040019E4800F046F9ED
:101350004FF480119C4800F041F99C4A9C499D48FB
:10136000FFF768FDFFF75EFDFFF784FD002149B23E
:1013700099480160FFF77EFD012149B2964801605E
:10138000FFF778FDFFF7A4FD0121FD20FFF77EFDAB
:1013900008B102200AE100211220FFF777FD08B111
:1013A000022003E10121FD20FFF770FD08B10220BA
:1013B000FCE00021B120FFF769FD08B10220F5E053
:1013C0000121AE20FFF762FD08B10220EEE001210D
:1013D000B320FFF75BFD08B10220E7E00021F12018
:1013E000FFF754FD08B10220E0E00121CA20FFF719
:1013F0004DFD08B10220D9E000215F20FFF746FD36
:1014000008B10220D2E00121A020FFF73FFD08B182
:101410000220CBE000216020FFF738FD08B1022058
:10142000C4E001211520FFF731FD08B10220BDE025
:1014300000210020FFF72AFD08B10220B6E00021BC
:101440005F20FFF723FD08B10220AFE001217520E6
:10145000FFF71CFD08B10220A8E000210020FFF7E3
:1014600015FD08B10220A1E000215F20FFF70EFD6D
:1014700008B102209AE00121A120FFF707FD08B181
:10148000022093E000218020FFF700FD08B1022038
:101490008CE00121A220FFF7F9FC08B1022085E0D1
:1014A00000216020FFF7F2FC08B102207EE001215C
:1014B000B120FFF7EBFC08B1022077E001213220D8
:1014C000FFF7E4FC08B1022070E00121BE20FFF725
:1014D000DDFC08B1022069E001210520FFF7D6FC00
:1014E00008B1022062E00121A620FFF7CFFC08B17D
:1014F00002205BE00121C120FFF7C8FC08B10220F7
:1015000054E000218A20FFF7C1FC08B102204DE021
:1015100000215120FFF7BAFC08B1022046E000216B
:101520008A20FFF7B3FC08B102203FE00121C72069
:10153000FFF7ACFC08B1022038E00021CF20FFF714
:10154000A5FC08B1022031E00121B420FFF79EFC88
:1015500008B102202AE00021A020FFF797FC08B183
:10156000022023E00021B520FFF790FC08B1022003
:101570001CE000215520FFF789FC08B1022015E08E
:101580000121B620FFF782FC08B102200EE0002105
:101590000120FFF77BFC08B1022007E00121AF200A
:1015A000FFF774FC08B1022000E00020DDF800E045
:1015B00001B070470E00FF1F1000FF1F80F00F40AA
:1015C000C0F00F4000F10F4040F00F4008640000F1
:0C15D00007000084C0E1E4001820FE4386
:100E340081B0CDF800E003460C4615460648FFF79E
:100E4400C7FD224619462B460348FFF749FDDDF846
:0C0E540000E001B0704700BF00C00A4081
:1009D40081B00F49884206D10E4A0F490A600F4A76
:1009E4000F490A6012E00F49884206D10E4A0A49AB
:1009F4000A600E4A0A490A6008E00D49884205D196
:100A04000C4A05490A600C4A05490A6001B070475E
:100A140000C00240FFFFFFFF3448FF1FFFFFFFFF3E
:100A24003848FF1F00D00240FFFFFFFFFFFFFFFF1A
:0C0A340000C00A40B1070000FFFFFFFFF8
:1008E40084B0CDF800E003910146104601900291D6
:1008F4001846FFF719FE0299019800F01004240924
:100904002746019002910846FFF7EAFD02990291F9
:100914000846FFF72FFE0299019800F000450C6885
:100924002C430C6000F080450C682C430C600C6870
:1009340044F440540C600D686FF4804405EA0404E8
:100944000C6001F20C05BC002E1900F00F05346890
:100954002C43346001F20C05BC002E1900F08065B4
:1009640034682C43346001F20C05BC002E1900F0ED
:10097400007534682C43346001F20C05BC002E1958
:1009840000F0807534682C43346001F20C05BC001F
:100994002E1935686FF0F04405EA0404346001F25E
:1009A4000C05BC002E1900F00F04E50634682C4336
:1009B40034600191039A0846F9B2FFF731FE0199B8
:0E09C4000846FFF723FEDDF800E004B07047A0
:10052C0081B0CDF800E040F2000C83464FEA8C011C
:10053C000BEB01010968B1F1FF3F12D00BF1340153
:10054C004FEA8C03C91809680A460BEB03010968CA
:10055C0008461146FFF794FF0CF1010C1FFA8CFCB6
:0A056C00E4E7DDF800E001B070479D
:10048C0082B0CDF800E080464FEA581202F0070225
:10049C00914608F01F04A24693010D4AD3184FF061
:1004AC000102A240019218460A46019900F0D2FCC2
:1004BC004FEA0933074AD3184FEA8A029C1808F40A
:1004CC00E06322681A432260DDF800E002B0704756
:0804DC0000F00F400090044005
:1004E40081B00B49884203D1012252B209490A6002
:1004F4000949884203D1012252B208490A600849D5
:10050400884203D1012252B206490A6001B0704701
:1005140000C00240B007904200D00240B4079042AD
:0805240000C00A4030069042BD
:1005780081B002686FF4804102EA010101600168FC
:1005880041F00101016000F22C031A68124942EAA5
:100598000101196000F208020021116000F20C024A
:1005A8004FF0F041116000F210024FF0F04111607D
:1005B80000F230020021116000F2340200211160C3
:1005C800016841F440610160026844F2010142EAB5
:0C05D8000101016001B0704700000A9AA8
:1006240091B0CDF800E00F9010468DF840100E9078
:1006340001AB1846FFF7F0FE4FF0FF330D93002394
:1006440006930023089301230A9300230B930023AA
:100654000593059B042B41D20D9B002B3ED0002318
:100664000793079B102B35D20D9B002B32D001230F
:100674000993099B032B29D20D9B3BB3099C029B35
:1006840003FB04F6059B9C00314B1B191D68079B5B
:100694009C00304B1B191B686B43B6FBF3F42046DC
:1006A4000E9BA3420ED30E9B1C1A0C940D9BA342CB
:1006B40008D90C9B0D93059B0693079B08930B90FD
:1006C400099B0A93099B5B1C0993D2E7079B5B1C5C
:1006D4000793C6E7059B5B1C0593BAE70F9B03F2E0
:1006E4000C049DF840309B00E5182C681A4B04EA72
:1006F40003032B600F9B03F20C049DF840309B0016
:10070400E5180A9B5B1EDC072B6823432B600F9BB9
:1007140003F20C049DF840309B00E518069B1B0473
:1007240003F440342B6823432B600F9B03F20C0427
:100734009DF840309B00E518089B03F00F042B68DC
:1007440023432B600B98DDF800E011B0704700BF25
:0C075400B464000074640000F0FFFC7F3F
:10041C0081B0CDF800E00446FFF7F4FF40F2E8317C
:10042C0000FB01F3154909680A0F1449096801F02A
:10043C007061090EC8B21149096801F47001090D07
:10044C00CDB20E49096801F47021090CCEB2D1B2BB
:10045C0003FA01F10F462360221D27FA00F1116007
:10046C0004F2080227FA05F1116004F20C0227FAD3
:10047C0006F11160DDF800E001B0704744800440E3
:00048C0070
:0C04100001480068704700BF3048FF1F23
:1006100081B002686FF0010102EA0101016001B0DE
:02062000704721
:100E2400002149B201480160704700BF3410FE43FD
:000E3400BE
:100E740049F63E47C0F2000700BF00BF7F1EFDD108
:080E840000BF00BF00BF704772
:100ED000012149B201480160704700BF3410FE4350
:000EE00012
:100E8C0081B0CDF800E021B100235BB20B4A1360B6
:100E9C0003E001235BB2094A136000235BB2084AEA
:100EAC001360C0B2FFF77EFC01235BB2044A1360EF
:100EBC000020DDF800E001B0704700BF3C18FE4395
:040ECC005008FE4389
:1007B00081B0CDF800E082B24FF080610348FFF7CE
:1007C00011FFDDF800E001B0704700BF00C00A4033
:0007D00029
:1005E40081B000F22C04236843F00043236000F23E
:1005F400340493B241EA0303236000F22C031C6821
:0C060400C4F3C07303B9F8E701B07047FD
:100F7C0081B0CDF800E09FB203468DB296B2DDF899
:100F8C0004800848FFF7DCFD4446AAB21946B3B208
:100F9C00044810B480B4FFF70FFF02B0DDF800E096
:080FAC0001B0704700A00E40E7
:100B4C0081B0304988420CD12F4A30490A60304A72
:100B5C0030490A60304A31490A60314A31490A60E9
:100B6C004EE0314988420CD1304A28490A60304A5B
:100B7C0028490A602F4A29490A602F4A29490A60E4
:100B8C003EE02E4988420CD12D4A20490A602D4A5C
:100B9C0020490A602C4A21490A602C4A21490A60E2
:100BAC002EE02B4988420CD12A4A18490A602A4A5D
:100BBC0018490A60294A19490A60294A19490A60E0
:100BCC001EE0284988420CD1274A10490A60274A5E
:100BDC0010490A60264A11490A60264A11490A60DE
:100BEC000EE0254988420BD1244A08490A60244A60
:100BFC0008490A60234A09490A60234A09490A60DC
:100C0C0001B0704700A00640FFFFFFFF3C48FF1FEC
:100C1C00FFFFFFFF4048FF1FFFFFFFFF4448FF1F80
:100C2C00FFFFFFFF4848FF1F00B00640FFFFFFFF1C
:100C3C00FFFFFFFFFFFFFFFFFFFFFFFF00C00640AE
:100C4C00FFFFFFFFFFFFFFFFFFFFFFFFFFFFFFFFA8
:100C5C0000D00640FFFFFFFFFFFFFFFFFFFFFFFF7E
:100C6C00FFFFFFFF00A00E40FFFFFFFFFFFFFFFF96
:100C7C00FFFFFFFFFFFFFFFF00B00E40FFFFFFFF76
:0C0C8C00FFFFFFFFFFFFFFFFFFFFFFFF68
:100DC40085B0CDF800E001900291ADF80C20ADF8AB
:100DD4001030BDF81440ADF814400698FFF7A4FB9A
:100DE4000198FFF7F3FC02990198FFF739FDBDF86C
:100DF4000C100198FFF722FEBDF810100198FFF7C0
:100E04002DFEBDF814100198FFF764FD0198FFF75B
:100E1400C5FC0198FFF7BAFCDDF800E005B07047A7
:000E2400CE
:1007D00081B01849884204D1012252B216490A60F8
:1007E00026E01649884204D1012252B214490A6017
:1007F0001EE01449884204D1012252B212490A6013
:1008000016E01249884204D1012252B210490A600E
:100810000EE01049884204D1012252B20E490A600A
:1008200006E00E49884203D1012252B20C490A6007
:1008300001B0704700A00640A806904200B00640F4
:10084000AC06904200C00640B006904200D0064080
:10085000B406904200A00E402805904200B00E4021
:040860002C05904291
:1008640085B0CDF800E08046894601AA1046FFF71E
:10087400D3FD164A904503D0154A904500D001E0B7
:10088400019800E002984FEA0912B0FBF2F291B22B
:1008940092B2130A9BB298F800201A4388F80020F9
:1008A40008F10103CAB21A7043014FEA0912B3FBFB
:1008B400F2F34A0192B29A1AD0B208F10A031A78F2
:1008C40002431A70DDF800E005B0704700A006404E
:0408D40000B006402A
:100A400081B0841C23784FF6EF7212B203EA0202DF
:100A50002270841C0B0122781A43227001B0704767
:000A600096
:100A600081B001F0020262B1841C01F0020322781D
:100A70001A432270841C01F0010322781A43227069
:100A800007E0841C23784FF6FD7212B203EA0202DB
:060A9000227001B0704766
:0C08D80081B002780A43027001B0704742
:1007A00081B0C21C117841F00401117001B0704792
:0007B00049
:1007900081B0C21C117841F00801117001B070479E
:0007A00059
:10125C0082B0CDF800E05FFA81FA5FFA82FB0146BA
:10126C008C1C2378D9B2641C23781B029BB2CB183C
:10127C001FFA83FC641C2178C9B2631C1B781B0207
:10128C009BB2CB189BB299B20AEB03039BB25B1EC9
:10129C009BB2602B0ED8BAF1000F0BD30BEB0C03E7
:1012AC009BB25B1E9BB2602B04D8BBF1000F01D329
:1012BC00002300E0012303B10BE001FB0CF4831DC0
:1012CC00ADF80410A2B219461148FFF75DFDBDF848
:1012DC000410ADF804105FFA8CF3CAB25FFA8BF10C
:1012EC005FFA8AF0FFF702FDBDF8041001FB0CF366
:1012FC009BB25B009BB299B20548FFF7C7FC08B1E3
:10130C00022000E00020DDF800E002B0704700BFD2
:04131C001400FF1F9B
:100D940093B20A4600211446024698B281420DD20B
:100DA40023781B021380631C1D461C78138823437D
:0E0DB4001380921C6B1C1C46491CEFE7704715
:100CF80081B0CDF800E000F21004E6B2CCB2E5B263
:100D08005FFA82F8DFB240F200090121152000F0F5
:100D1800B9F849EA00095FFA89F90021F0B200F050
:100D2800B1F849EA00095FFA89F9A8F1010424B287
:100D3800341924B2002120B200F0A4F849EA0009CD
:100D48005FFA89F90121752000F09CF849EA000949
:100D58005FFA89F90021E8B200F094F849EA00093D
:100D68005FFA89F97C1E24B22C1924B2002120B222
:100D780000F088F849EA0004E4B2002C00D100E051
:0A0D8800C1E7DDF800E001B070479C
:100C980081B0CDF800E005460E4601215C2000F049
:100CA800F1F808B102201AE001235BB20E4A136082
:100CB80000235BB20D4A13602846054630460346BA
:100CC800421E164633B12A7890B2FFF76DFD6D1CAF
:100CD8003046F4E701235BB2044A13600020DDF8D4
:100CE80000E001B0704700BF3C18FE435008FE43C7
:000CF800FC
:1016380090B072B6974801909748029097480390E7
:1016480097480490974805909748069097480790C0
:10165800974808909748099097480A9097480B90A0
:1016680097480C90974998480D9098480E900D9877
:1016780000F007000F9001F0010050B94CF2205023
:10168800934908804DF62810088040F2D2119148FD
:1016980001800021904801609048007800F0010026
:1016A800C0B258B18E48007800F00800C0B220B12E
:1016B8008B49087840F00800087021E089480068E4
:1016C80040F00051874801608748006800F4807046
:1016D800B0B9854801686FF4705001EA000040F421
:1016E8004071814801608048006840F480717E48FC
:1016F80001607D4801686FF4007001407A4801601C
:10170800AA217A4801700D9800F0100058B978485D
:10171800007800F09F01764801707648007801282B
:1017280000D0FAE71BE00D9800F01000B8B10E9950
:101738007148814208D960216D4801706D48007870
:10174800802800D0FAE70AE06948007800F09F0195
:101758006748017067480078012800D0FAE70499C3
:1017680066480160664801686FF4402001400298AD
:1017780000F44020014362480160624801686FF448
:1017880040300140039800F4403001435D48016057
:101798000F9830B10F98012803D00F98022800D075
:1017A80064E0019800F0800050B9089800F040000B
:1017B80028B10B9800F00300002800D100E015E0E4
:1017C8005148006840F400714F4801604F48016873
:1017D8004F4801404D480160069800F0040028B1C8
:1017E8004C4801684A4801404A4801600A994A48F9
:1017F8000170059949480170059800F0040040B14E
:101808004748007800F01000C0B2002800D1F7E780
:1018180006E04348007800F01000C0B200B1F8E7D5
:101828004048007800F0BF01C9B2069800F0FD00FA
:1018380001433C480170079800F0E0013A480078FD
:1018480000F01F00C0B201433748017001993748C2
:1018580001700B99364801700F98022805D131485C
:10186800007840F002012F480170BDE0019800F0B7
:10187800800020B90B9800F0030000B166E0224810
:10188800006840F400712048016020480168204841
:1018980001404FE080000000000008000000010047
:1018A80000004401220000002400000000000000A5
:1018B80002000000460000000000000000000000D8
:1018C800090000000000000007000000C0D401006B
:1018D8000E2005400020054008ED00E000F007401C
:1018E80002D007403C80044010D0034000E007408D
:1018F80001E0074003E007408038010044800440CD
:10190800007004400480044038800440489004403B
:10191800FFF8FFFE4C900440084006400040064097
:10192800064006400140064003400640005006407D
:101938000C4006407F480160069800F0040028B17A
:101948007D4801687D4801407B4801600A997C48D0
:1019580001707C48007800F0BF01C9B2069800F019
:10196800FD000143774801700199774801700B9990
:10197800764801700F98072805D1059840F0800136
:101988007348017002E0059971480170069800F0EB
:10199800040050B10B9800F0030030B96D4800788E
:1019A80000F00200C0B200B9F8E7059800F00400A2
:1019B80040B16848007800F01000C0B2002800D19B
:1019C800F7E706E06348007800F01000C0B200B105
:1019D800F8E7079800F0E0015F48007800F01F0082
:1019E800C0B201435C480170089800F0BF015B4831
:1019F8000170099800F0BF0159480170089800F07B
:101A0800400028B15548007840F040015348017023
:101A18000F98052806D14B48007840F00201494844
:101A280001701CE00F98062803D00F98072800D0F3
:101A380015E04B48007840F040014948017045489E
:101A4800007800F04000C0B200B9F8E70F98072806
:101A580005D13F48007800F03F013D4801700F98DC
:101A680018B10F98032800D029E03A48007800F010
:101A78000C00C0B200B1F8E73A48006840F0010134
:101A880038480160002138480160802137480160EA
:101A98000521374801600121344801603348006856
:101AA80000F0800000B9F9E70021304801602D48B6
:101AB80001686FF0010001402A4801602DE00F988D
:101AC800012803D00F98022800D008E021480078A8
:101AD80000F00C00C0B2042800D0F7E71DE00F9812
:101AE800042806D00F98062803D00F98052800D0A0
:101AF80008E01848007800F00C00C0B2082800D0B0
:101B0800F7E70AE00F98072807D11248007800F095
:101B18000C00C0B20C2800D0F7E7164801686FF037
:101B28000F0001400C9800F00F00014311480160BC
:101B380010B07047489004404C900440FFF8FFFEF6
:101B48000840064001400640005006400C40064050
:101B58000040064006400640034006400440064058
:101B68000540064038800440080004400000044056
:081B7800040004404880044011
:101B800081B002490248016001B07047C0D4010031
:041B90003048FF1FBB
:080FF00081B0FEE701B070477B
:1015F40081B072B60349086840F47000086062B6AE
:0816040001B0704788ED00E021
:1064C40000B5DFF824B0DFF824A0DFF824C0FAF721
:1064D40041FDDFF820B0DFF820A0DFF820C0FAF794
:1064E40039FD00BD704700BF0000FF1F0200FF1F01
:1064F400760500000400FF1F0800FF1FF80F0000CE
:0065040097
:1065600000B5DFF810B0DFF810A0FAF723FD00BD8A
:0C657000704700BF0000FF1F4C48FF1FD9
:10160C0081B0CDF800E0064800780648017806481D
:10161C0000680170FFF784FDDDF800E001B0704751
:0C162C0004A00E4007A00E400400FF1FA9
:10112C0071E043480078552807D142490878401CA3
:10113C00087041490868401C086078E03C48007819
:10114C0055280BD13D48007800F0FE00C0B2AA280B
:10115C0004D13B480078172800D806E00021354818
:10116C00017033493448016010E033490868401C71
:10117C0008603348007818B905212E48017005E045
:10118C0000213048017004212A4801704FE02D499C
:10119C000878421CD2B20A7027490868401C0860C3
:1011AC0027480078904202D10521224801703EE088
:1011BC00214800680078452815D10BE00121224810
:1011CC00017010E00021204801700CE0FF211E4846
:1011DC00017008E01D4800780328EFD01B48007808
:1011EC000228EFD0F2E70021124801701049124892
:1011FC0001601CE00F490878401C08700E49086813
:10120C00401C086013E00B48007800283FF489AFBD
:10121C000848007803283FF491AF0648007804286A
:10122C003FF4B5AF034800780528C1D0E2E770471A
:10123C001448FF1F0100FF1F0400FF1F1548FF1F6C
:10124C001748FF1F0200FF1F0000FF1F1648FF1F5B
:00125C0092
:100400000000000000000000FFFFFFFF02FDFFFFF3
:02057600FF0084
:040FF8001448FF1F7B
:101B94000010600060000000000000000000000071
:101BA4000000000000000000000000000000000031
:101BB4000000000000000000000000000000000021
:101BC4000000000000000000000000000000000011
:101BD4000000000000000000000000000000000001
:1021F400000000000000FFFFFFFF000000000000DF
:1022040000000000000000000000000000000000CA
:1022140000000000000000000000000000000000BA
:1022240000000000000000000000000000000000AA
:10223400000000000000000000000000000000009A
:10224400000000000000000000000000000000008A
:10225400000000000000000000000000000000007A
:10226400000000000000000000000000000000006A
:10227400000000000000000000000000000000005A
:10228400000000000000000000000000000000004A
:10229400000000000000FFFFFFFFFFFFFFFFFFFF44
:1022A400FFFF00000000000000000000000000002C
:1022B400000000000000FFFFFFFF0000000000001E
:1022C400000000000000000000000000000000000A
:1022D40000000000000000000000000000000000FA
:1022E40000000000000000000000000000000000EA
:1022F40000000000000000000000000000000000DA
:1023040000000000000000000000000000000000C9
:1023140000000000000000000000000000000000B9
:1023240000000000000000000000000000000000A9
:102334000000000000000000000000000000000099
:102344000000000000000000000000000000000089
:10235400000000000000FFFFFFFF0000000000007D
:10236400FFFFFFFF0000000000000000000000006D
:10237400000000000000FFFFFFFF0000000000005D
:102384000000000000000000000000000000000049
:102394000000000000000000000000000000000039
:1023A4000000000000000000000000000000000029
:1023B4000000000000000000000000000000000019
:1023C4000000000000000000000000000000000009
:1023D40000000000000000000000000000000000F9
:1023E40000000000000000000000000000000000E9
:1023F40000000000000000000000000000000000D9
:1024040000000000000000000000000000000000C8
:10241400000000000000FFFFFFFF000000000000BC
:10242400FFFFFFFF000000000000FFFFFFFFFFFFB2
:10243400FFFF00000000FFFFFFFF0000000000009E
:10244400FFFFFFFFFFFF00000000FFFFFFFF000092
:102454000000FFFFFFFF000000000000000000007C
:102464000000000000000000000000000000000068
:102474000000000000000000000000000000000058
:102484000000000000000000000000000000000048
:102494000000000000000000000000000000000038
:1024A4000000000000000000000000000000000028
:1024B4000000000000000000000000000000000018
:1024C4000000000000000000000000000000000008
:1024D400000000000000FFFFFFFF000000000000FC
:1024E400FFFFFFFF00000000FFFFFFFF00000000F0
:1024F400FFFFFFFF0000FFFFFFFF00000000FFFFE2
:1025040000000000FFFFFFFF0000FFFFFFFF0000CF
:102514000000FFFFFFFF00000000000000000000BB
:1025240000000000000000000000000000000000A7
:102534000000000000000000000000000000000097
:102544000000000000000000000000000000000087
:102554000000000000000000000000000000000077
:102564000000000000000000000000000000000067
:102574000000000000000000000000000000000057
:102584000000000000000000000000000000000047
:10259400000000000000FFFFFFFFFFFFFFFFFFFF41
:1025A400FFFF000000000000FFFFFFFF000000002D
:1025B400FFFFFFFF0000FFFFFFFF0000000000001F
:1025C40000000000FFFFFFFF0000FFFFFFFF00000F
:1025D4000000FFFFFFFF00000000000000000000FB
:1025E40000000000000000000000000000000000E7
:1025F40000000000000000000000000000000000D7
:1026040000000000000000000000000000000000C6
:1026140000000000000000000000000000000000B6
:1026240000000000000000000000000000000000A6
:102634000000000000000000000000000000000096
:102644000000000000000000000000000000000086
:10265400000000000000FFFFFFFF0000FFFFFFFF7E
:102664000000000000000000FFFFFFFFFFFFFFFF6E
:10267400FFFFFFFF0000FFFFFFFF00000000FFFF60
:10268400FFFFFFFFFFFFFFFF00000000FFFFFFFF52
:10269400FFFFFFFF0000000000000000000000003A
:1026A4000000000000000000000000000000000026
:1026B4000000000000000000000000000000000016
:1026C4000000000000000000000000000000000006
:1026D40000000000000000000000000000000000F6
:1026E40000000000000000000000000000000000E6
:1026F40000000000000000000000000000000000D6
:1027040000000000000000000000000000000000C5
:10271400000000000000FFFFFFFF00000000FFFFBB
:10272400FFFF000000000000FFFFFFFF00000000AB
:10273400000000000000FFFFFFFF0000FFFFFFFF9D
:1027440000000000FFFFFFFF00000000FFFFFFFF8D
:10275400FFFFFFFF00000000000000000000000079
:102764000000000000000000000000000000000065
:102774000000000000000000000000000000000055
:102784000000000000000000000000000000000045
:102794000000000000000000000000000000000035
:1027A4000000000000000000000000000000000025
:1027B4000000000000000000000000000000000015
:1027C4000000000000000000000000000000000005
:1027D400000000000000FFFFFFFF000000000000F9
:1027E400FFFFFFFF00000000FFFFFFFF00000000ED
:1027F4000000FFFF0000FFFFFFFF0000FFFFFFFFDF
:1028040000000000FFFFFFFF000000000000FFFFCA
:10281400FFFF0000000000000000000000000000B6
:1028240000000000000000000000000000000000A4
:102834000000000000000000000000000000000094
:102844000000000000000000000000000000000084
:102854000000000000000000000000000000000074
:102864000000000000000000000000000000000064
:102874000000000000000000000000000000000054
:102884000000000000000000000000000000000044
:10289400000000000000FFFFFFFF00000000000038
:1028A4000000FFFFFFFF00000000FFFFFFFFFFFF2E
:1028B400FFFF00000000FFFFFFFF00000000FFFF1C
:1028C400FFFFFFFFFFFFFFFF000000000000FFFF0E
:1028D400FFFF0000000000000000000000000000F6
:1028E40000000000000000000000000000000000E4
:1028F40000000000000000000000000000000000D4
:1029040000000000000000000000000000000000C3
:1029140000000000000000000000000000000000B3
:1029240000000000000000000000000000000000A3
:102934000000000000000000000000000000000093
:102944000000000000000000000000000000000083
:102954000000000000000000000000000000000073
:102964000000000000000000000000000000000063
:102974000000000000000000000000000000000053
:10298400000000000000000000000000FFFFFFFF47
:102994000000000000000000000000000000000033
:1029A4000000000000000000000000000000000023
:1029B4000000000000000000000000000000000013
:1029C4000000000000000000000000000000000003
:1029D40000000000000000000000000000000000F3
:1029E40000000000000000000000000000000000E3
:1029F40000000000000000000000000000000000D3
:102A040000000000000000000000000000000000C2
:102A140000000000000000000000000000000000B2
:102A240000000000000000000000000000000000A2
:102A34000000000000000000000000000000000092
:102A4400000000000000000000000000FFFFFFFF86
:102A54000000000000000000000000000000000072
:102A64000000000000000000000000000000000062
:102A74000000000000000000000000000000000052
:102A84000000000000000000000000000000000042
:102D040000000000000000000000FFFFFFFFFFFFC5
:102D1400FFFFFFFFFFFFFFFFFFFFFFFFFFFFFFFFBF
:102D2400FFFFFFFFFFFFFFFFFFFFFFFFFFFFFFFFAF
:102D3400FFFFFFFFFFFFFFFFFFFFFFFFFFFFFFFF9F
:102D4400FFFFFFFFFFFFFFFFFFFFFFFFFFFFFFFF8F
:102D5400FFFFFFFFFFFFFFFFFFFFFFFFFFFFFFFF7F
:102D6400FFFF000000000000000000000000000061
:102D7400000000000000000000000000000000004F
:102D8400000000000000000000000000000000003F
:102D9400000000000000000000000000000000002F
:102DA400000000000000000000000000000000001F
:102DB400000000000000000000000000000000000F
:102DC40000000000000000007DEFFFFF8210821071
:102DD4008210821082108210821000000000000015
:102DE4000000000000008210821082108210821005
:102DF400821082108210821082108210821082103F
:102E0400821082108210821082108210821082102E
:102E1400821082108210821082108210821082101E
:102E2400FFFFFFFF000000000000000000000000A2
:102E3400000000000000000000000000000000008E
:102E4400000000000000000000000000000000007E
:102E5400000000000000000000000000000000006E
:102E6400000000000000000000000000000000005E
:102E7400000000000000000000000000000000004E
:102E84000000000000003CE7FFFF0000000000001D
:102E9400000000000000000000000000000000002E
:102EA400000000000000000000000000000000001E
:102EB400000000000000000000000000000000000E
:102EC40000000000000000000000000000000000FE
:102ED40000000000000000000000000000000000EE
:102EE4000000FFFFFFFF00000000000000000000E2
:102EF40000000000000000000000000000000000CE
:102F040000000000000000000000000000000000BD
:102F140000000000000000000000000000000000AD
:102F2400000000000000000000000000000000009D
:102F3400000000000000000000000000000000008D
:102F4400000000000000FFFF00000000000000007F
:102F5400000000000000000000000000000000006D
:102F6400000000000000000000000000000000005D
:102F7400000000000000000000000000000000004D
:102F8400000000000000000000000000000000003D
:102F9400000000000000000000000000000000002D
:102FA40000000000FFFF000000000000000000001F
:102FB400000000000000000000000000000000000D
:102FC40000000000000000000000000000000000FD
:102FD40000000000000000000000000000000000ED
:102FE40000000000000000000000000000000000DD
:102FF40000000000000000000000000000000000CD
:10300400000000000000FFFF0000000000000000BE
:1030140000000000000000000000000000000000AC
:10302400000000000000000000000000000000009C
:10303400000000000000000000000000000000008C
:10304400000000000000000000000000000000007C
:10305400000000000000000000000000000000006C
:1030640000000000FFFF000000000000000000005E
:10307400000000000000000000000000000000004C
:10308400000000000000000000000000000000003C
:10309400000000000000000000000000000000002C
:1030A400000000000000000000000000000000001C
:1030B400000000000000000000000000000000000C
:1030C400000000000000FFFF0000000000000000FE
:1030D40000000000000000000000000000000000EC
:1030E40000000000000000000000000000000000DC
:1030F40000000000000000000000000000000000CC
:1031040000000000000000000000000000000000BB
:1031140000000000000000000000000000000000AB
:1031240000000000FFFF000000000000000000009D
:10313400000000000000000000000000000000008B
:10314400000000000000000000000000000000007B
:10315400000000000000000000000000000000006B
:10316400000000000000000000000000000000005B
:10317400000000000000000000000000000000004B
:10318400000000000000FFFF00000000000000003D
:10319400000000000000000000000000000000002B
:1031A400000000000000000000000000000000001B
:1031B400000000000000000000000000000000000B
:1031C40000000000000000000000000000000000FB
:1031D40000000000000000000000000000000000EB
:1031E40000000000FFFF00000000000000000000DD
:1031F40000000000000000000000000000000000CB
:1032040000000000000000000000000000000000BA
:1032140000000000000000000000000000000000AA
:10322400000000000000000000000000000000009A
:10323400000000000000000000000000000000008A
:10324400000000000000FFFF00000000000000007C
:10325400000000000000000000000000000000006A
:10326400000000000000000000000000000000005A
:10327400000000000000000000000000000000004A
:10328400000000000000000000000000000000003A
:10329400000000000000000000000000000000002A
:1032A40000000000FFFF000000000000000000001C
:1032B400000000000000000000000000000000000A
:1032C40000000000000000000000000000000000FA
:1032D40000000000000000000000000000000000EA
:1032E40000000000000000000000000000000000DA
:1032F40000000000000000000000000000000000CA
:10330400000000000000FFFF0000000000000000BB
:1033140000000000000000000000000000000000A9
:103324000000000000000000000000000000000099
:103334000000000000000000000000000000000089
:103344000000000000000000000000000000000079
:103354000000000000000000000000000000000069
:1033640000000000FFFF000000000000000000005B
:103374000000000000000000000000000000000049
:103384000000000000000000000000000000000039
:103394000000000000000000000000000000000029
:1033A4000000000000000000000000000000000019
:1033B4000000000000000000000000000000000009
:1033C400000000000000FFFF0000000000000000FB
:1033D40000000000000000000000000000000000E9
:1033E40000000000000000000000000000000000D9
:1033F40000000000000000000000000000000000C9
:1034040000000000000000000000000000000000B8
:1034140000000000000000000000000000000000A8
:1034240000000000FFFF000000000000000000009A
:103434000000000000000000000000000000000088
:103444000000000000000000000000000000000078
:103454000000000000000000000000000000000068
:103464000000000000000000000000000000000058
:103474000000000000000000000000000000000048
:10348400000000000000FFFF00000000000000003A
:103494000000000000000000000000000000000028
:1034A4000000000000000000000000000000000018
:1034B4000000000000000000000000000000000008
:1034C40000000000000000000000000000000000F8
:1034D40000000000000000000000000000000000E8
:1034E40000000000FFFF00000000000000000000DA
:1034F40000000000000000000000000000000000C8
:1035040000000000000000000000000000000000B7
:1035140000000000000000000000000000000000A7
:103524000000000000000000000000000000000097
:103534000000000000000000000000000000000087
:10354400000000000000FFFF000000000000000079
:103554000000000000000000000000000000000067
:103564000000000000000000000000000000000057
:103574000000000000000000000000000000000047
:103584000000000000000000000000000000000037
:103594000000000000000000000000000000000027
:1035A40000000000FFFF0000000000000000000019
:1035B4000000000000000000000000000000000007
:1035C40000000000000000000000000000000000F7
:1035D40000000000000000000000000000000000E7
:1035E40000000000000000000000000000000000D7
:1035F40000000000000000000000000000000000C7
:10360400000000000000FFFF0000000000000000B8
:1036140000000000000000000000C7394D6B4D6B36
:103624004D6B4D6B4D6B4D6B4D6B4D6B4D6B4D6BD6
:103634004D6B4D6B4D6B4D6B4D6B4D6B4D6B4D6BC6
:103644004D6B4D6B4D6B4D6B4D6B4D6B4D6B4D6BB6
:1036540045290000000000000000000000000000F8
:1036640000000000FFFF0000000000000000000058
:103674000000000000000000000000000000000046
:103684000000000000000000000000000000000036
:103694000000000000000000000000000000000026
:1036A4000000000000000000000000000000000016
:1036B4000000000000000000000000000000000006
:1036C400000000000000FFFF0000000000000000F8
:1036D40000000000000000000000B294FFFFFFFFA4
:1036E400FFFFFFFFFFFFFFFF7DEF3CE7FFFFFFFF53
:1036F400FFFFFFFFFFFFFFFFFFFFFFFFFFFFFFFFD6
:103704003CE77DEFFFFFFFFFFFFFFFFFFFFFFFFF32
:103714008E730000000000000000000000000000A4
:1037240000000000FFFF0000000000000000000097
:103734000000000000000000000000000000000085
:103744000000000000000000000000000000000075
:103754000000000000000000000000000000000065
:103764000000000000000000000000000000000055
:103774000000000000000000000000000000000045
:10378400000000000000FFFF000000000000000037
:1037940000000000000000000000B294FFFFFFFFE3
:1037A400FFFFFFFF79CE8A52C3188210C73975AD67
:1037B400FFFFFFFFFFFFFFFFFFFFFFFFF39C8631CB
:1037C400821004210C63FBDEFFFFFFFFFFFFFFFFFE
:1037D4004D6B00000000000000000000000000002D
:1037E40000000000FFFF00000000000000000000D7
:1037F40000000000000000000000000000000000C5
:1038040000000000000000000000000000000000B4
:1038140000000000000000000000000000000000A4
:103824000000000000000000000000000000000094
:103834000000000000000000000000000000000084
:10384400000000000000FFFF000000000000000076
:1038540000000000000000000000B294FFFFFFFF22
:10386400FFFFF7BD41080000000000000000000059
:10387400F39CFFFFFFFFFFFFFFFFCF7B0000000073
:103884000000000000004529FBDEFFFFFFFFFFFFF3
:103894004D6B00000000000000000000000000006C
:1038A40000000000FFFF0000000000000000000016
:1038B4000000000000000000000000000000000004
:1038C40000000000000000000000000000000000F4
:1038D40000000000000000000000000000000000E4
:1038E40000000000000000000000000000000000D4
:1038F40000000000000000000000000000000000C4
:10390400000000000000FFFF0000000000000000B5
:1039140000000000000000000000B294FFFFFFFF61
:10392400FFFF718C8631C318000000000000000006
:103934008210FBDEFFFFFFFFFBDE042141080000D5
:103944000000000000000000CB5AFFFFFFFFFFFF54
:103954004D6B0000000000000000000000000000AB
:1039640000000000FFFF0000000000000000000055
:103974000000000000000000000000000000000043
:103984000000000000000000000000000000000033
:103994000000000000000000000000000000000023
:1039A4000000000000000000000000000000000013
:1039B4000000000000000000000000000000000003
:1039C400000000000000FFFF0000000000000000F5
:1039D40000000000000000000000B294FFFFFFFFA1
:1039E400FFFFFFFFFFFF3CE738C6B2940C63C73903
:1039F400C31875ADFFFFFFFFFFFF7DEFFBDE38C689
:103A040075ADB294CF7BCB5A0C63BEF7FFFFFFFFBB
:103A14004D6B0000000000000000000000000000EA
:103A240000000000FFFF0000000000000000000094
:103A34000000000000000000000000000000000082
:103A44000000000000000000000000000000000072
:103A54000000000000000000000000000000000062
:103A64000000000000000000000000000000000052
:103A74000000000000000000000000000000000042
:103A8400000000000000FFFF000000000000000034
:103A940000000000000000000000B294FFFFFFFFE0
:103AA400FBDECF7B75ADBAD6FFFFFFFFFFFFFFFF45
:103AB4007DEF7DEFFFFFFFFFFBDE79CEFBDEBEF780
:103AC400FFFFFFFFFFFFFFFFFFFFFFFFFFFFFFFF02
:103AD4004D6B00000000000000000000000000002A
:103AE40000000000FFFF00000000000000000000D4
:103AF40000000000000000000000000000000000C2
:103B040000000000000000000000000000000000B1
:103B140000000000000000000000000000000000A1
:103B24000000000000000000000000000000000091
:103B34000000000000000000000000000000000081
:103B4400000000000000FFFF000000000000000073
:103B540000000000000000000000B294FFFFFFFF1F
:103B64007DEF821000004108042108428E73F39C0B
:103B740079CEFFFFFFFFFFFF34A500008210042170
:103B840045290842CB5A8E7375ADFFFFFFFFFFFF37
:103B94004D6B000000000000000000000000000069
:103BA40000000000FFFF0000000000000000000013
:103BB4000000000000000000000000000000000001
:103BC40000000000000000000000000000000000F1
:103BD40000000000000000000000000000000000E1
:103BE40000000000000000000000000000000000D1
:103BF40000000000000000000000000000000000C1
:103C0400000000000000FFFF0000000000000000B2
:103C140000000000000000000000B294FFFFFFFF5E
:103C2400FFFF3084000000000000000000000000DE
:103C3400494AFFFFFFFFFFFF7DEF45290000000019
:103C44000000000000000000F39CFFFFFFFFFFFFE7
:103C54004D6B0000000000000000000000000000A8
:103C640000000000FFFF0000000000000000000052
:103C74000000000000000000000000000000000040
:103C84000000000000000000000000000000000030
:103C94000000000000000000000000000000000020
:103CA4000000000000000000000000000000000010
:103CB4000000000000000000000000000000000000
:103CC400000000000000FFFF0000000000000000F2
:103CD40000000000000000000000B294FFFFFFFF9E
:103CE400FFFFBEF74D6B000000000000000008421B
:103CF400FBDEFFFFFFFFFFFFFFFF79CE452900003A
:103D04000000000041083084FFFFFFFFFFFFFFFFBA
:103D14004D6B0000000000000000000000000000E7
:103D240000000000FFFF0000000000000000000091
:103D3400000000000000000000000000000000007F
:103D4400000000000000000000000000000000006F
:103D5400000000000000000000000000000000005F
:103D6400000000000000000000000000000000004F
:103D7400000000000000000000000000000000003F
:103D8400000000000000FFFF000000000000000031
:103D940000000000000000000000B294FFFFFFFFDD
:103DA400FFFFFFFFFFFF38C63084CF7BB6B5FFFFB0
:103DB400FFFFFFFFFFFFFFFFFFFFFFFFBEF775AD34
:103DC400CF7B718CBAD6FFFFFFFFFFFFFFFFFFFF22
:103DD4008E730000000000000000000000000000DE
:103DE40000000000FFFF00000000000000000000D1
:103DF40000000000000000000000000000000000BF
:103E040000000000000000000000000000000000AE
:103E1400000000000000000000000000000000009E
:103E2400000000000000000000000000000000008E
:103E3400000000000000000000000000000000007E
:103E4400000000000000FFFF000000000000000070
:103E540000000000000000000000CF7BBAD6BAD6F4
:103E6400BAD6BAD6BAD6FBDE3CE73CE7FBDEBAD616
:103E7400BAD6BAD6BAD6BAD6BAD6BAD6FBDEFBDE2C
:103E84003CE73CE7FBDEBAD6BAD6BAD6BAD6BAD63F
:103E9400CB5A0000000000000000000000000000F9
:103EA40000000000FFFF0000000000000000000010
:103EB40000000000000000000000000000000000FE
:103EC40000000000000000000000000000000000EE
:103ED40000000000000000000000000000000000DE
:103EE40000000000000000000000000000000000CE
:103EF40000000000000000000000000000000000BE
:103F0400000000000000FFFF0000000000000000AF
:103F1400000000000000000000000000000000009D
:103F2400000000000000000000000000000000008D
:103F3400000000000000000000000000000000007D
:103F4400000000000000000000000000000000006D
:103F5400000000000000000000000000000000005D
:103F640000000000FFFF000000000000000000004F
:103F7400000000000000000000000000000000003D
:103F8400000000000000000000000000000000002D
:103F9400000000000000000000000000000000001D
:103FA400000000000000000000000000000000000D
:103FB40000000000000000000000000000000000FD
:103FC400000000000000FFFF0000000000000000EF
:103FD40000000000000000000000C3184529452926
:103FE400452945294529452945294529452945295D
:103FF400452945294529452945294529452945294D
:10400400452945294529452945294529452945293C
:10401400821000000000000000000000000000000A
:1040240000000000FFFF000000000000000000008E
:10403400000000000000000000000000000000007C
:10404400000000000000000000000000000000006C
:10405400000000000000000000000000000000005C
:10406400000000000000000000000000000000004C
:10407400000000000000000000000000000000003C
:10408400000000000000FFFF00000000000000002E
:1040940000000000000000000000B294FFFFBEF723
:1040A400BEF7BEF7FFFFFFFFFFFFBEF7FFFFFFFFF7
:1040B400BEF7BEF7BEF7BEF7BEF7BEF7FFFFFFFFC2
:1040C400BEF7FFFFFFFFFFFFBEF7BEF7BEF7FFFF20
:1040D4004D6B000000000000000000000000000024
:1040E40000000000FFFF00000000000000000000CE
:1040F40000000000000000000000000000000000BC
:1041040000000000000000000000000000000000AB
:10411400000000000000000000000000000000009B
:10412400000000000000000000000000000000008B
:10413400000000000000000000000000000000007B
:10414400000000000000FFFF00000000000000006D
:1041540000000000000000000000B294FFFFFFFF19
:10416400FFFFFFFFBEF7718C494A08428E73FBDEE6
:10417400FFFFFFFFFFFFFFFFFFFFFFFF79CE4D6B48
:1041840008428A52F39CFFFFFFFFFFFFFFFFFFFF80
:104194004D6B000000000000000000000000000063
:1041A40000000000FFFF000000000000000000000D
:1041B40000000000000000000000000000000000FB
:1041C40000000000000000000000000000000000EB
:1041D40000000000000000000000000000000000DB
:1041E40000000000000000000000000000000000CB
:1041F40000000000000000000000000000000000BB
:10420400000000000000FFFF0000000000000000AC
:1042140000000000000000000000B294FFFFFFFF58
:10422400FFFFFBDE86310000000000000000C31821
:1042340038C6FFFFFFFFFFFFFFFF75AD82100000D0
:104244000000000000008A52BEF7FFFFFFFFFFFFDF
:104254004D6B0000000000000000000000000000A2
:1042640000000000FFFF000000000000000000004C
:10427400000000000000000000000000000000003A
:10428400000000000000000000000000000000002A
:10429400000000000000000000000000000000001A
:1042A400000000000000000000000000000000000A
:1042B40000000000000000000000000000000000FA
:1042C400000000000000FFFF0000000000000000EC
:1042D40000000000000000000000B294FFFFFFFF98
:1042E400FFFFCF7B41080000000000000000000039
:1042F40045297DEFFFFFFFFFFBDE82100000000079
:1043040000000000000000003084FFFFFFFFFFFFFB
:104314004D6B0000000000000000000000000000E1
:1043240000000000FFFF000000000000000000008B
:104334000000000000000000000000000000000079
:104344000000000000000000000000000000000069
:104354000000000000000000000000000000000059
:104364000000000000000000000000000000000049
:104374000000000000000000000000000000000039
:10438400000000000000FFFF00000000000000002B
:1043940000000000000000000000B294FFFFFFFFD7
:1043A400FFFFFFFFFBDEB6B5718CCB5A8631C31815
:1043B400000075ADFFFFFFFF7DEFB6B534A5718C2E
:1043C4004D6B8A52C73945290842FFFFFFFFFFFFA3
:1043D4004D6B000000000000000000000000000021
:1043E40000000000FFFF00000000000000000000CB
:1043F40000000000000000000000000000000000B9
:1044040000000000000000000000000000000000A8
:104414000000000000000000000000000000000098
:104424000000000000000000000000000000000088
:104434000000000000000000000000000000000078
:10444400000000000000FFFF00000000000000006A
:1044540000000000000000000000B294FFFFFFFF16
:104464007DEFF7BDFBDEFFFFFFFFFFFFFFFF3CE734
:10447400F7BDBAD6FFFFFFFF7DEFBEF7FFFFFFFFDB
:10448400FFFFFFFFFFFFFFFF7DEFFFFFFFFFFFFFCA
:104494004D6B000000000000000000000000000060
:1044A40000000000FFFF000000000000000000000A
:1044B40000000000000000000000000000000000F8
:1044C40000000000000000000000000000000000E8
:1044D40000000000000000000000000000000000D8
:1044E40000000000000000000000000000000000C8
:1044F40000000000000000000000000000000000B8
:10450400000000000000FFFF0000000000000000A9
:1045140000000000000000000000B294FFFFFFFF55
:104524003CE74108410886318A52CF7BB6B5BAD6FA
:10453400BEF7FFFFFFFFFFFF34A50421C739494A37
:104544000C63CF7BB294B6B5BAD6FFFFFFFFFFFF73
:104554004D6B00000000000000000000000000009F
:1045640000000000FFFF0000000000000000000049
:104574000000000000000000000000000000000037
:104584000000000000000000000000000000000027
:104594000000000000000000000000000000000017
:1045A4000000000000000000000000000000000007
:1045B40000000000000000000000000000000000F7
:1045C400000000000000FFFF0000000000000000E9
:1045D40000000000000000000000B294FFFFFFFF95
:1045E400FFFF0C630000000000000000000000005A
:1045F400494ABEF7FFFFFFFFFBDE82100000000008
:1046040000000000000000003084FFFFFFFFFFFFF8
:104614004D6B0000000000000000000000000000DE
:1046240000000000FFFF0000000000000000000088
:104634000000000000000000000000000000000076
:104644000000000000000000000000000000000066
:104654000000000000000000000000000000000056
:104664000000000000000000000000000000000046
:104674000000000000000000000000000000000036
:10468400000000000000FFFF000000000000000028
:1046940000000000000000000000B294FFFFFFFFD4
:1046A400FFFF3CE7C7390000000000000000821053
:1046B400B6B5FFFFFFFFFFFFFFFF75AD4108000028
:1046C4000000000000008A52BEF7FFFFFFFFFFFF5B
:1046D4004D6B00000000000000000000000000001E
:1046E40000000000FFFF00000000000000000000C8
:1046F40000000000000000000000000000000000B6
:1047040000000000000000000000000000000000A5
:104714000000000000000000000000000000000095
:104724000000000000000000000000000000000085
:104734000000000000000000000000000000000075
:10474400000000000000FFFF000000000000000067
:1047540000000000000000000000B294FFFFFFFF13
:10476400FFFFFFFFBEF7718C494A08428E73FBDEE0
:10477400FFFFFFFFFFFFFFFFFFFFFFFF79CE0C638B
:104784000842494AF39CFFFFFFFFFFFFFFFFFFFFC3
:104794004D6B00000000000000000000000000005D
:1047A40000000000FFFF0000000000000000000007
:1047B40000000000000000000000000000000000F5
:1047C40000000000000000000000000000000000E5
:1047D40000000000000000000000000000000000D5
:1047E40000000000000000000000000000000000C5
:1047F40000000000000000000000000000000000B5
:10480400000000000000FFFF0000000000000000A6
:1048140000000000000000000000B294FFFFFFFF52
:10482400FFFFFFFFFFFFFFFFFFFFFFFFFFFFFFFF94
:10483400FFFFFFFFFFFFFFFFFFFFFFFFFFFFFFFF84
:10484400FFFFFFFFFFFFFFFFFFFFFFFFFFFFFFFF74
:104854004D6B00000000000000000000000000009C
:1048640000000000FFFF0000000000000000000046
:104874000000000000000000000000000000000034
:104884000000000000000000000000000000000024
:104894000000000000000000000000000000000014
:1048A4000000000000000000000000000000000004
:1048B40000000000000000000000000000000000F4
:1048C400000000000000FFFF0000000000000000E6
:1048D40000000000000000000000C318452945291D
:1048E4004529452945294529452945294529452954
:1048F4004529452945294529452945294529452944
:104904004529452945294529452945294529452933
:104914008210000000000000000000000000000001
:1049240000000000FFFF0000000000000000000085
:104934000000000000000000000000000000000073
:104944000000000000000000000000000000000063
:104954000000000000000000000000000000000053
:104964000000000000000000000000000000000043
:104974000000000000000000000000000000000033
:10498400000000000000FFFF000000000000000025
:104994000000000000000000000000000000000013
:1049A4000000000000000000000000000000000003
:1049B40000000000000000000000000000000000F3
:1049C40000000000000000000000000000000000E3
:1049D40000000000000000000000000000000000D3
:1049E40000000000FFFF00000000000000000000C5
:1049F40000000000000000000000000000000000B3
:104A040000000000000000000000000000000000A2
:104A14000000000000000000000000000000000092
:104A24000000000000000000000000000000000082
:104A34000000000000000000000000000000000072
:104A4400000000000000FFFF000000000000000064
:104A54000000000000000000000000000000000052
:104A64000000000000000000000000000000000042
:104A74000000000000000000000000000000000032
:104A84000000000000000000000000000000000022
:104A94000000000000000000000000000000000012
:104AA40000000000FFFF0000000000000000000004
:104AB40000000000000000000000000000000000F2
:104AC40000000000000000000000000000000000E2
:104AD40000000000000000000000000000000000D2
:104AE40000000000000000000000000000000000C2
:104AF40000000000000000000000000000000000B2
:104B0400000000000000FFFF0000000000000000A3
:104B14000000000000000000000000000000000091
:104B24000000000000000000000000000000000081
:104B34000000000000000000000000000000000071
:104B44000000000000000000000000000000000061
:104B54000000000000000000000000000000000051
:104B640000000000FFFF0000000000000000000043
:104B74000000000000000000000000000000000031
:104B84000000000000000000000000000000000021
:104B94000000000000000000000000000000000011
:104BA4000000000000000000000000000000000001
:104BB40000000000000000000000000000000000F1
:104BC400000000000000FFFF0000000000000000E3
:104BD40000000000000000000000000000000000D1
:104BE40000000000000000000000000000000000C1
:104BF40000000000000000000000000000000000B1
:104C040000000000000000000000000000000000A0
:104C14000000000000000000000000000000000090
:104C240000000000FFFF0000000000000000000082
:104C34000000000000000000000000000000000070
:104C44000000000000000000000000000000000060
:104C54000000000000000000000000000000000050
:104C64000000000000000000000000000000000040
:104C74000000000000000000000000000000000030
:104C8400000000000000FFFF000000000000000022
:104C94000000000000000000000000000000000010
:104CA4000000000000000000000000000000000000
:104CB40000000000000000000000000000000000F0
:104CC40000000000000000000000000000000000E0
:104CD40000000000000000000000000000000000D0
:104CE40000000000FFFF00000000000000000000C2
:104CF40000000000000000000000000000000000B0
:104D0400000000000000000000000000000000009F
:104D1400000000000000000000000000000000008F
:104D2400000000000000000000000000000000007F
:104D3400000000000000000000000000000000006F
:104D4400000000000000FFFF000000000000000061
:104D5400000000000000000000000000000000004F
:104D6400000000000000000000000000000000003F
:104D7400000000000000000000000000000000002F
:104D8400000000000000000000000000000000001F
:104D9400000000000000000000000000000000000F
:104DA40000000000FFFF0000000000000000000001
:104DB40000000000000000000000000000000000EF
:104DC40000000000000000000000000000000000DF
:104DD40000000000000000000000000000000000CF
:104DE40000000000000000000000000000000000BF
:104DF40000000000000000000000000000000000AF
:104E0400000000000000FFFF0000000000000000A0
:104E1400000000000000000000000000000000008E
:104E2400000000000000000000000000000000007E
:104E3400000000000000000000000000000000006E
:104E4400000000000000000000000000000000005E
:104E5400000000000000000000000000000000004E
:104E640000000000FFFF0000000000000000000040
:104E7400000000000000000000000000000000002E
:104E8400000000000000000000000000000000001E
:104E9400000000000000000000000000000000000E
:104EA40000000000000000000000000000000000FE
:104EB40000000000000000000000000000000000EE
:104EC400000000000000FFFF0000000000000000E0
:104ED40000000000000000000000000000000000CE
:104EE40000000000000000000000000000000000BE
:104EF40000000000000000000000000000000000AE
:104F0400000000000000000000000000000000009D
:104F1400000000000000000000000000000000008D
:104F240000000000FFFF000000000000000000007F
:104F3400000000000000000000000000000000006D
:104F4400000000000000000000000000000000005D
:104F5400000000000000000000000000000000004D
:104F6400000000000000000000000000000000003D
:104F7400000000000000000000000000000000002D
:104F8400000000000000FFFF00000000000000001F
:104F9400000000000000000000000000000000000D
:104FA40000000000000000000000000000000000FD
:104FB40000000000000000000000000000000000ED
:104FC40000000000000000000000000000000000DD
:104FD40000000000000000000000000000000000CD
:104FE40000000000FFFF00000000000000000000BF
:104FF40000000000000000000000000000000000AD
:10500400000000000000000000000000000000009C
:10501400000000000000000000000000000000008C
:10502400000000000000000000000000000000007C
:10503400000000000000000000000000000000006C
:10504400000000000000FFFFFFFF00000000000060
:10505400000000000000000000000000000000004C
:10506400000000000000000000000000000000003C
:10507400000000000000000000000000000000002C
:10508400000000000000000000000000000000001C
:10509400000000000000000000000000000000000C
:1050A4000000FFFFFFFF0000000000000000000000
:1050B40000000000000000000000000000000000EC
:1050C40000000000000000000000000000000000DC
:1050D40000000000000000000000000000000000CC
:1050E40000000000000000000000000000000000BC
:1050F40000000000000000000000000000000000AC
:105104000000000000000000FFFFFFFF000000009F
:10511400000000000000000000000000000000008B
:10512400000000000000000000000000000000007B
:10513400000000000000000000000000000000006B
:10514400000000000000000000000000000000005B
:10515400000000000000000000000000000000004B
:10516400FFFFFFFF0000000000000000000000003F
:10517400000000000000000000000000000000002B
:10518400000000000000000000000000000000001B
:10519400000000000000000000000000000000000B
:1051A40000000000000000000000000000000000FB
:1051B40000000000000000000000000000000000EB
:1051C40000000000000000000000FFFFFFFFFFFFE1
:1051D400FFFFFFFFFFFFFFFFFFFFFFFFFFFFFFFFDB
:1051E400FFFFFFFFFFFFFFFFFFFFFFFFFFFFFFFFCB
:1051F400FFFFFFFFFFFFFFFFFFFFFFFFFFFFFFFFBB
:10520400FFFFFFFFFFFFFFFFFFFFFFFFFFFFFFFFAA
:10521400FFFFFFFFFFFFFFFFFFFFFFFFFFFFFFFF9A
:10522400FFFF00000000000000000000000000007C
:10523400000000000000000000000000000000006A
:10524400000000000000000000000000000000005A
:10525400000000000000000000000000000000004A
:10526400000000000000000000000000000000003A
:0663940000000000000003
:10639C009803000099030000FFFFFFFF00000000BE
:1063AC0000000000000000000000000000000000E1
:1063BC0000000000000000000000000000000000D1
:1063CC00000000000000080000000800FFFFFFFFB5
:1063DC0000000000000000000000000000000000B1
:1063EC0000000000000000000000000000000000A1
:0C63FC0000000000000000000000000095
:10640800350200003702000036020000FFFFFFFFE0
:106418000000000000000000000000000000000074
:106428000000000000000000000000000000000064
:10643800000000000000080000000800000008003C
:10644800FFFFFFFF00000000000000000000000048
:106458000000000000000000000000000000000034
:0C64680000000000000000000000000028
:106474000200000004000000060000000800000004
:106484001000000020000000400000008000000018
:1064940000010000000200000004000000080000E9
:1064A40000100000002000000040000000800000F8
:1064B40002000000030000000500000007000000C7
:00000001FF
