:10000000FCFF022061290000592900005929000045
:1000100059290000592900005929000059290000D8
:1000200059290000592900005929000059290000C8
:1000300059290000592900005929000059290000B8
:1000400059290000592900005929000059290000A8
:100050005929000059290000592900005929000098
:100060005929000059290000592900005929000088
:100070005929000059290000592900005929000078
:100080005929000059290000592900005929000068
:100090005929000059290000592900005929000058
:1000A0005929000059290000592900005929000048
:1000B0005929000059290000592900005929000038
:1000C0005929000059290000592900005929000028
:1000D0005929000059290000592900005929000018
:1000E0005929000059290000592900005929000008
:1000F00059290000592900005929000059290000F8
:10010000352900005929000059290000592900000B
:1001100059290000592900005929000059290000D7
:1001200059290000592900005929000059290000C7
:1001300059290000592900005929000059290000B7
:100140005929000059290000FD2800005929000004
:100150005929000059290000592900005929000097
:100160005929000059290000592900005929000087
:100170005929000059290000592900005929000077
:100180005929000059290000592900005929000067
:08019000592900005929000063
:1029600000F0C6F8FFF7BEFF06F006F900F064FBC2
:1029700006F0C2F8FFF7D8FEFFF7C4FEFFF786FFA8
:10298000FFF778FF00F00100C0B210B10121484804
:10299000017047480078002800F0888000214448F2
:1029A00001704448007838B9012142480170FFF7AE
:1029B00025FF4148FFF750FFFFF7C0FD3F49086082
:1029C0003F4800683F49FFF73FFE3C4800683E49EA
:1029D000FFF73AFE3C48FFF71BFE3A48FFF718FEA8
:1029E0003648006800282BD934480068B0F5FA4F03
:1029F00026D2012135480170012149B234480160D5
:102A0000002149B23348016033480078A0B9334807
:102A100000224FF60001FFF74DFA4FF6FF7001B4A8
:102A20000B23602255210020FFF778FA01B02C48D3
:102A300052220C21FFF780FB01212748017035E06D
:102A40001E480068002831D0002120480170002174
:102A500049B21F480160012149B21E4801601E4869
:102A60000078A0B11D48002240F2E071FFF722FA81
:102A70004FF6FF7001B40B23602255210020FFF7B1
:102A80004DFA01B0174852221921FFF755FB0021DA
:102A9000114801700C48FFF7DFFE1348FFF7DCFE1A
:102AA0000848FFF7D9FE1148FFF7D6FE68E7FEE7B2
:102AB0000800FF1F0900FF1F0A00FF1F1400FF1F6F
:102AC0001800FF1F6001FF1F7201FF1F1200FF1F90
:102AD0000018FE432010FE431300FF1F5278000031
:102AE0001C00FF1F2900FF1F3400FF1F3600FF1FBF
:002AF000E6
:1026F00081B01CF8019B0BF8019BBBEB0A0FF8D1D2
:0427000001B070476D
:1026B40081B04FF000094FF0000CBDEB0A0F04DCB1
:1026C400BDEB0B0F01DBD446EA464BF8049BBBEB96
:1026D4000A0FFAD1BCEB0A0F05DDE246D9F800B0C7
:0A26E4000BF1040BF1E701B07047A1
:1027280081B0CDF800E04FF400512748FFF770FD65
:102738004FF480712548FFF7E3FE4FF0010124486C
:10274800FFF7DEFE012149B22248016022480160FC
:10275800224801B440F2000340F2000240F20001B6
:102768004EF20010FFF786FB01B040F6FE07C0F2FC
:102778003D0700BF00BF7F1EFDD100BF00BF00BFE7
:1027880017491848FFF7C8FEFFF74EFD1648002204
:102798004FF60001FFF78AFB144800220021FFF7DB
:1027A80049FC4FF6FF7001B40B236022552100202D
:1027B800FFF7B0FB01B00E4852220C21FFF7B8FC1E
:1027C800DDF800E001B0704750F00F4080F00F4096
:1027D800C0F00F402010FE430018FE43D0890000CF
:1027E80064890000801A0600527800004C3000000E
:0427F8003900FF1F86
:1022180081B0CDF800E0034AFFF76EFCDDF800E07E
:0822280001B07047040102003F
:101B000081B0CDF800E0FFF771FADDF800E001B038
:021B100070471C
:100FEC0083B0CDF800E006460C4615463046FFF7B8
:100FFC0097FC40F2FF1306EA030080090026224604
:10100C002946202E39D24FF0010303FA06F402EAE6
:10101C0004031F46A3422ED104031A4B1C19B30020
:10102C00E51801952C68184B04EA03032B60174B49
:10103C0001EA0304019B1B6843EA0404019B1C6046
:10104C0001F48033B3F5803F15D08401104B1B198C
:10105C001433029301F400333BB1FC43029B1B6835
:10106C0003EA0404029B1C6005E0029B1B6843EA34
:10107C000704029B1C60761CC3E7DDF800E003B09C
:10108C00704700BF009004400000FFFFFFFF00000E
:04109C0000F00F4011
:10092C0081B040F2FF1100EA01018909084600F28A
:10093C0009024FF0010101FA02F20449096841EA87
:10094C00020202490A6001B0704700BF38800440BF
:00095C009B
:1025080081B0CDF800E0034AFFF7F6FADDF800E005
:0825180001B07047040104004A
:101E7C0081B0CDF800E09FB203468DB296B2DDF88A
:101E8C0004800848FFF788FD4446AAB21946B3B24D
:101E9C00044810B480B4FFF777FA02B0DDF800E024
:081EAC0001B0704700D00640B0
:1019A40081B0304988420CD12F4A30490A60304A0C
:1019B40030490A60304A31490A60314A31490A6083
:1019C4004EE0314988420CD1304A28490A60304AF5
:1019D40028490A602F4A29490A602F4A29490A607E
:1019E4003EE02E4988420CD12D4A20490A602D4AF6
:1019F40020490A602C4A21490A602C4A21490A607C
:101A04002EE02B4988420CD12A4A18490A602A4AF6
:101A140018490A60294A19490A60294A19490A6079
:101A24001EE0284988420CD1274A10490A60274AF7
:101A340010490A60264A11490A60264A11490A6077
:101A44000EE0254988420BD1244A08490A60244AF9
:101A540008490A60234A09490A60234A09490A6075
:101A640001B0704700A00640FFFFFFFFB049FF1F11
:101A7400E5080000B449FF1F15090000B849FF1F1D
:101A8400FD080000BC49FF1F00B00640FFFFFFFF38
:101A9400250800000D080000F507000000C00640FE
:101AA400FFFFFFFF3D080000850800006D080000EF
:101AB40000D00640FFFFFFFF550800007D0A00002C
:101AC400650A000000A00E40FFFFFFFF4D0A000062
:101AD400950A0000DD0A000000B00E40FFFFFFFF82
:0C1AE400C50A0000AD0A0000A5090000C2
:1013940085B0CDF800E001900291ADF80C20ADF8D5
:1013A4001030BDF81440ADF814400698FFF776FEEF
:1013B4000198FFF799FE02990198FFF797FFBDF88E
:1013C4000C100198FFF726FDBDF810100198FFF7E7
:1013D40031FDBDF814100198FFF706FD0198FFF7E1
:1013E40045FD0198FFF7F8FDDDF800E005B0704712
:0013F400F9
:1010A00081B0CDF800E040F2000C83464FEA8C019D
:1010B0000BEB01010968B1F1FF3F12D00BF13401D4
:1010C0004FEA8C03C91809680A460BEB030109684B
:1010D00008461146FFF702FE0CF1010C1FFA8CFCCA
:0A10E000E4E7DDF800E001B070471E
:100CDC0082B0CDF800E080464FEA581202F00702CD
:100CEC00914608F01F04A24693010D4AD3184FF009
:100CFC000102A240019218460A46019900F0FAFE40
:100D0C004FEA0933074AD3184FEA8A029C1808F4B1
:100D1C00E06322681A432260DDF800E002B07047FD
:080D2C0000F00F4000900440AC
:1010EC0081B01849884204D1012252B216490A60D3
:1010FC0026E01649884204D1012252B214490A60F2
:10110C001EE01449884204D1012252B212490A60ED
:10111C0016E01249884204D1012252B210490A60E9
:10112C000EE01049884204D1012252B20E490A60E5
:10113C0006E00E49884203D1012252B20C490A60E2
:10114C0001B0704700A00640A806904200B00640CF
:10115C00AC06904200C00640B006904200D006405B
:10116C00B406904200A00E402805904200B00E40FC
:04117C002C0590426C
:1012F00085B0CDF800E08046894601AA1046FFF788
:1013000019FD164A904503D0154A904500D001E0DA
:10131000019800E002984FEA0912B0FBF2F291B294
:1013200092B2130A9BB298F800201A4388F8002062
:1013300008F10103CAB21A7043014FEA0912B3FB64
:10134000F2F34A0192B29A1AD0B208F10A031A785B
:1013500002431A70DDF800E005B0704700A00640B7
:0413600000B0064093
:100D340081B0CDF800E00446FFF7ECFB40F2E83167
:100D440000FB01F3154909680A0F1449096801F009
:100D54007061090EC8B21149096801F47001090DE6
:100D6400CDB20E49096801F47021090CCEB2D1B29A
:100D740003FA01F10F462360221D27FA00F11160E6
:100D840004F2080227FA05F1116004F20C0227FAB2
:100D940006F11160DDF800E001B0704744800440C2
:000DA4004F
:0C05180001480068704700BFA449FF1FA5
:100E180081B0841C23784FF6EF7212B203EA020203
:100E28002270841C0B0122781A43227001B070478B
:000E3800BA
:100E380081B001F0020262B1841C01F00203227841
:100E48001A432270841C01F0010322781A4322708D
:100E580007E0841C23784FF6FD7212B203EA0202FF
:060E6800227001B070478A
:0C0DEC0081B002780A43027001B0704729
:100E700081B0C21C117841F00401117001B07047BB
:000E800072
:100FDC0081B0C21C117841F00801117001B070474A
:000FEC0005
:1025200081B0CDF800E00A4601460348FEF7D6FF29
:0C253000DDF800E001B0704700600640DC
:1014DC008AB0CDF800E04C4B98420DD1012464B297
:1014EC004A4B1C604A4C4B4B1C604B4C4B4B1C608E
:1014FC004B4C4C4B1C6020E04B4B98420DD10124C3
:10150C0064B24A4B1C604A4C424B1C60494C434BE6
:10151C001C60494C434B1C600FE0484B98420CD16B
:10152C00012464B2464B1C60464C3A4B1C60464C42
:10153C003A4B1C60454C3B4B1C6001910290104691
:10154C00FFF7A8FD06AB1846FFF7EEFB02980199D2
:10155C004FF0FF39002740F200080022022A37D84A
:10156C00B9F1000F34D001231BB203FA02F52DB2EE
:10157C000026322E28D2F400354B1B191B1D1B687C
:10158C0005FB03F4079BB3FBF4F30493994203D9D3
:10159C00049BCB1A039302E0049B5B1A0393039BFB
:1015AC000593039B4B450BD21746F400284B1B1994
:1015BC00D3F80080059C059B002B00D105E000E0D2
:1015CC004C46761CA146D4E74C46521CA146C5E7B6
:1015DC00441CBB0143EA08032370851C01242B78AF
:1015EC0064F3C7132B70851C01242B7864F38613CA
:1015FC002B70851D01242B7864F345132B70DDF8BB
:10160C0000E00AB0704700BF0060064098069042A8
:10161C00CD0800005401FF1F290A00005C01FF1FC8
:10162C00810900005801FF1F007006409C06904283
:10163C00B5080000050A00005D09000000600E40BE
:10164C00180590429D080000E1090000BD0900004A
:04165C008C86000078
:1022300081B0CDF800E00321A64801700021A64836
:1022400001604FF40051A54800F05EF94FF40041E1
:10225000A34800F059F94FF04001A24800F054F9AA
:102260004FF48011A04800F04FF9A04AA049A148BE
:10227000FFF70EF9012149B29F4801609F480160B4
:102280009F480160FFF734FCFFF744FC002149B28E
:102290009C480160FFF73EFC012149B2994801606A
:1022A000FFF738FCFFF748FA0121FD20FFF722FA7B
:1022B00008B102200AE100211220FFF71BFA08B141
:1022C000022003E10121FD20FFF714FA08B10220EA
:1022D000FCE00021B120FFF70DFA08B10220F5E083
:1022E0000121AE20FFF706FA08B10220EEE001213D
:1022F000B320FFF7FFF908B10220E7E00021F12049
:10230000FFF7F8F908B10220E0E00121CA20FFF749
:10231000F1F908B10220D9E000215F20FFF7EAF9C6
:1023200008B10220D2E00121A020FFF7E3F908B1B3
:102330000220CBE000216020FFF7DCF908B1022089
:10234000C4E001211520FFF7D5F908B10220BDE056
:1023500000210020FFF7CEF908B10220B6E00021ED
:102360005F20FFF7C7F908B10220AFE00121752017
:10237000FFF7C0F908B10220A8E000210020FFF714
:10238000B9F908B10220A1E000215F20FFF7B2F9FE
:1023900008B102209AE00121A120FFF7ABF908B1B2
:1023A000022093E000218020FFF7A4F908B1022069
:1023B0008CE00121A220FFF79DF908B1022085E001
:1023C00000216020FFF796F908B102207EE001218C
:1023D000B120FFF78FF908B1022077E00121322008
:1023E000FFF788F908B1022070E00121BE20FFF755
:1023F00081F908B1022069E001210520FFF77AF98F
:1024000008B1022062E00121A620FFF773F908B1AC
:1024100002205BE00121C120FFF76CF908B1022026
:1024200054E000218A20FFF765F908B102204DE051
:1024300000215120FFF75EF908B1022046E000219B
:102440008A20FFF757F908B102203FE00121C72099
:10245000FFF750F908B1022038E00021CF20FFF744
:1024600049F908B1022031E00121B420FFF742F917
:1024700008B102202AE00021A020FFF73BF908B1B3
:10248000022023E00021B520FFF734F908B1022033
:102490001CE000215520FFF72DF908B1022015E0BE
:1024A0000121B620FFF726F908B102200EE0002135
:1024B0000120FFF71FF908B1022007E00121AF203A
:1024C000FFF718F908B1022000E00020DDF800E075
:1024D00001B070479E49FF1FA049FF1F80F00F40C9
:1024E000C0F00F4000F10F4040F00F403C8A000068
:1024F0000700008680A81201980A9442180B9442A3
:08250000980B94421820FE43E1
:1014900081B0CDF800E003460C4615460648FFF73C
:1014A000EFFC224619462B460348FFF71FFDDDF8E7
:0C14B00000E001B0704700BF00C00A401F
:100E800081B00F49884206D10E4A0F490A600F4AC5
:100E90000F490A6012E00F49884206D10E4A0A49FA
:100EA0000A600E4A0A490A6008E00D49884205D1E5
:100EB0000C4A05490A600C4A05490A6001B07047AE
:100EC00000C00240FFFFFFFFA849FF1FFFFFFFFF19
:100ED000AC49FF1F00D00240FFFFFFFFFFFFFFFFF5
:0C0EE00000C00A40F90D0000FFFFFFFFFA
:100EEC0084B0CDF800E003910146104601900291C8
:100EFC00184600F0CFF80299019800F0100424096C
:100F0C002746019002910846FFF746FF029902918D
:100F1C000846FFF7A7FE0299019800F000450C68FF
:100F2C002C430C6000F080450C682C430C600C6862
:100F3C0044F440540C600D686FF4804405EA0404DA
:100F4C000C6001F20C05BC002E1900F00F05346882
:100F5C002C43346001F20C05BC002E1900F08065A6
:100F6C0034682C43346001F20C05BC002E1900F0DF
:100F7C00007534682C43346001F20C05BC002E194A
:100F8C0000F0807534682C43346001F20C05BC0011
:100F9C002E1935686FF0F04405EA0404346001F250
:100FAC000C05BC002E1900F00F04E50634682C4328
:100FBC0034600191039A0846F9B2FFF795FD019947
:0E0FCC000846FFF72FFEDDF800E004B0704786
:100DA40081B00B49884203D1012252B209490A6039
:100DB4000949884203D1012252B208490A6008490C
:100DC400884203D1012252B206490A6001B0704739
:100DD40000C00240B007904200D00240B4079042E5
:080DE40000C00A4030069042F5
:100C700081B002686FF4804102EA010101600168FD
:100C800041F00101016000F22C031A68124942EAA6
:100C90000101196000F208020021116000F20C024B
:100CA0004FF0F041116000F210024FF0F04111607E
:100CB00000F230020021116000F2340200211160C4
:100CC000016841F440610160026844F2010142EAB6
:0C0CD0000101016001B0704700000A9AA9
:100AF40091B0CDF800E00F9010468DF840100E90A4
:100B040001AB184600F014F94FF0FF330D930023A6
:100B140006930023089301230A9300230B930023D5
:100B24000593059B042B41D20D9B002B3ED0002343
:100B34000793079B102B35D20D9B002B32D001233A
:100B44000993099B032B29D20D9B3BB3099C029B60
:100B540003FB04F6059B9C00314B1B191D68079B86
:100B64009C00304B1B191B686B43B6FBF3F4204607
:100B74000E9BA3420ED30E9B1C1A0C940D9BA342F6
:100B840008D90C9B0D93059B0693079B08930B9028
:100B9400099B0A93099B5B1C0993D2E7079B5B1C87
:100BA4000793C6E7059B5B1C0593BAE70F9B03F20B
:100BB4000C049DF840309B00E5182C681A4B04EA9D
:100BC40003032B600F9B03F20C049DF840309B0041
:100BD400E5180A9B5B1EDC072B6823432B600F9BE5
:100BE40003F20C049DF840309B00E518069B1B049F
:100BF40003F440342B6823432B600F9B03F20C0453
:100C04009DF840309B00E518089B03F00F042B6807
:100C140023432B600B98DDF800E011B0704700BF50
:0C0C2400E88A0000A88A0000F0FFFC7FB6
:100C300081B002686FF0010102EA0101016001B0B8
:020C40007047FB
:101AF000002149B201480160704700BF3410FE4325
:001B0000E5
:101B140049F63E47C0F2000700BF00BF7F1EFDD15B
:081B240000BF00BF00BF7047C5
:10173800012149B201480160704700BF3410FE43DF
:00174800A1
:1016F40081B0CDF800E021B100235BB20B4A136046
:1017040003E001235BB2094A136000235BB2084A79
:101714001360C0B2FFF76EFB01235BB2044A13608F
:101724000020DDF800E001B0704700BF3C18FE4324
:041734005008FE4318
:100DF80081B0CDF800E082B24FF080610348FFF780
:100E08001DFFDDF800E001B0704700BF00C00A40D8
:000E1800DA
:100C440081B000F22C04236843F00043236000F2D7
:100C5400340493B241EA0303236000F22C031C68BA
:0C0C6400C4F3C07303B9F8E701B0704797
:101EB400114B1860831C1C78C31C1B781B029BB23B
:101EC400E4180E4B1C80031D1C78431D1B781B0259
:101ED4009BB2E4180A4B1C80831D1C78094B1C80A0
:101EE400094B1980094B1A700124094B1C700024FA
:101EF400084B1C70704700BF8401FF1F8801FF1F3F
:101F04008A01FF1F8C01FF1F8E01FF1F9001FF1F1D
:081F14004600FF1F9101FF1FB1
:10203C0082B0CDF800E05FFA81FA5FFA82FB0146CC
:10204C008C1C2378D9B2641C23781B029BB2CB184E
:10205C001FFA83FC641C2178C9B2631C1B781B0219
:10206C009BB2CB189BB299B20AEB03039BB25B1EDB
:10207C009BB2602B0ED8BAF1000F0BD30BEB0C03F9
:10208C009BB25B1E9BB2602B04D8BBF1000F01D33B
:10209C00002300E0012303B10BE001FB0CF4831DD2
:1020AC00ADF80410A2B219461148FFF755F9BDF866
:1020BC000410ADF804105FFA8CF3CAB25FFA8BF11E
:1020CC005FFA8AF0FFF790F9BDF8041001FB0CF3EE
:1020DC009BB25B009BB299B20548FFF7CBFA08B1F3
:1020EC00022000E00020DDF800E002B0704700BFE5
:0420FC009201FF1F2F
:1013640093B20A4600211446024698B281420DD235
:1013740023781B021380631C1D461C7813882343A7
:0E1384001380921C6B1C1C46491CEFE770473F
:1013F40081B0CDF800E000F21004E6B2CCB2E5B260
:101404005FFA82F8DFB240F200090121152000F0F2
:101414006FF949EA00095FFA89F90021F0B200F096
:1014240067F949EA00095FFA89F9A8F1010424B2CD
:10143400341924B2002120B200F05AF949EA000913
:101444005FFA89F90121752000F052F949EA00098F
:101454005FFA89F90021E8B200F04AF949EA000983
:101464005FFA89F97C1E24B22C1924B2002120B21F
:1014740000F03EF949EA0004E4B2002C00D100E097
:0A148400C1E7DDF800E001B0704799
:1016800081B0CDF800E005460E4601215C2000F057
:1016900031F808B102201AE001235BB20E4A136050
:1016A00000235BB20D4A13602846054630460346C8
:1016B000421E164633B12A7890B2FFF79DFB6D1C8F
:1016C0003046F4E701235BB2044A13600020DDF8E2
:1016D00000E001B0704700BF3C18FE435008FE43D5
:0016E0000A
:101F1C0081B0CDF800E01FFA80FA1FFA81F995B272
:101F2C001FFA83F8BDF8046005FB08F4A4B2A7B24D
:101F3C000AEB0504A4B2641EA4B2602C0ED8BAF14C
:101F4C00000F0BD309EB0804A4B2641EA4B2602CDE
:101F5C0004D8B9F1000F01D3002400E001240CB126
:101F6C0003205DE00AF1100A1FFA8AFA01211520FC
:101F7C00FFF7BAFB08B1022052E000211FFA8AF0E9
:101F8C00FFF7B2FB08B102204AE06C1EA4B20AEBC8
:101F9C000404A4B20021A0B2FFF7A6FB08B10220F2
:101FAC003EE001217520FFF79FFB08B1022037E0CE
:101FBC0000211FFA89F0FFF797FB08B102202FE0F0
:101FCC00A8F10104A4B209EB0404A4B20021A0B24C
:101FDC00FFF78AFB08B1022022E001215C20FFF709
:101FEC0083FB08B102201BE001256DB20E4C25606D
:101FFC0000256DB20D4C256000203D4687B2AF42E6
:10200C0009D2340AE0B2FEF7F1FEF0B2FEF7EEFEB2
:10201C007F1CBFB2F3E701256DB2044C2560002094
:10202C00DDF800E001B070473C18FE435008FE4359
:00203C00A4
:1021380083B0CDF800E00290602900D31DE0602A4A
:1021480000D31AE00023ADF8043088B291B2FFF74B
:10215800C3FABDF80440029B1B191B786BB1BDF88C
:102168000440029B1B191B7898B2FFF7E9FABDF8E7
:1021780004305B1CADF80430EBE7DDF800E003B099
:0221880070479E
:1016E000024A1080024A1180704700BF9449FF1FD0
:0416F0009249FF1FFD
:1017480086B0CDF800E085B240F20001ADF8141083
:1017580000218DF816107F49097849B97E49002281
:10176800084640F2000100F0A1FB012279490A7005
:101778007A4909888D4200D2E7E0794909888D4283
:1017880000D9E2E075490988691A89B28A0092B2DB
:10179800744C216808318B1893F800C0591C0978DB
:1017A800CAB2991C097809025218D91C0978090487
:1017B800521821460968891804916B49097821B1A2
:1017C80069490978022900D064E068490A8800213B
:1017D8008DF80D105FFA8CF390B265490A889DF870
:1017E8000D1091424AD263490988ADF814100026B9
:1017F80000218DF80C1082B25FFA83FC9DF80C1062
:10180800614530D24EB9049909788DF816100499BB
:10181800491C04910126F0B200E0F0B29DF81610C0
:101828000140C9B291B1544909888DF80400ADF856
:101838000620ADF80820BDF814008AB2BDF90810DA
:10184800FFF7C6FCBDF806209DF80400BDF814108B
:10185800491CADF814104100CEB29DF80C10491C7B
:101868008DF80C10CAE7521C92B29DF80D10491C55
:101878008DF80D105FFA8CF390B2AEE73A4909780B
:1018880029B9BDF814104A1C3A490A8001E03749C1
:1018980008805AE037490B8800218DF80D1098B25E
:1018A8005FFA8CF332490A889DF80D10914247D2AD
:1018B8002E490988ADF81410002600218DF80C1067
:1018C80082B25FFA83FC9DF80C1061452DD24EB9A7
:1018D800049909788DF816100499491C0491012679
:1018E800F0B200E0F0B29DF816100140C9B279B12B
:1018F800214909888DF80400ADF8062010B28AB293
:10190800BDF81410FFF764FCBDF806209DF804002C
:10191800BDF81410491EADF814104100CEB29DF860
:101928000C10491C8DF80C10CDE7511C8BB29DF89A
:101938000D10491C8DF80D1098B25FFA8CF3B1E7C1
:10194800BDF814104A1E09490A80DDF800E006B007
:10195800704700BF4600FF1FFA7F00008801FF1F85
:101968008A01FF1F8401FF1F9001FF1F9249FF1F7B
:0C1978008C01FF1F9449FF1F8E01FF1F10
:1011D80082B0CDF800E00FFA80FA0FFA81FB0AF12D
:1011E80001031BB25B1E1BB2602B0EDCBAF1000FB1
:1011F8000BDB0BF101031BB25B1E1BB2602B04DC83
:10120800BBF1000F01DB002300E001230BB1032039
:1012180024E0ADF80420602360225FFA8BF15FFAC6
:101228008AF000F0E3F8BDF8043003F47F439BB282
:101238001C0AA4B2BDF8043003F0FF039BB21B02E2
:101248009BB244EA0303ADF8043001AB022118460F
:1012580000F012FA08B1022000E00020DDF800E0FA
:0412680002B0704719
:1027040081B0CDF800E0FFF7F9FC6420FFF7A6FBE9
:10271400FFF794FB6420FFF7A1FBDDF800E001B0B4
:022724007047FC
:1021000007480168074801600748016807480160FF
:102110000748016807480160002000B2704700BF0F
:102120005401FF1F4801FF1F5801FF1F4C01FF1FF3
:082130005C01FF1F5001FF1FBD
:101E600081B0CDF800E082B2411E88B212B1FFF716
:0C1E700051FEF8E7DDF800E001B070471B
:101E400081B0CDF800E00920FFF79CFD40F0400094
:101E5000C1B20920FFF704FCDDF800E001B07047D3
:001E600082
:1019840082B0CDF800E08DF8040001A901225720AF
:10199400FFF76AFC9DF80400DDF800E002B0704730
:0019A40043
:10126C0085B0CDF800E08DF80C000D46ADF81020DF
:10127C0040F20004ADF808400195174C2468A047D3
:10128C00BDF908300343ADF8083040F201030122E8
:10129C0001999DF80C00114C2468A047BDF9084039
:1012AC000443ADF808400C4C2468A047BDF9083045
:1012BC000343ADF8083040F20103BDF8102001994A
:1012CC009DF80C00064C2468A047BDF90800DDF819
:1012DC0000E005B0704700BF4801FF1F4C01FF1F25
:0412EC005001FF1F8F
:1008CC0081B0CDF800E00348FFF726FEDDF800E02C
:0808DC0001B070470060064006
:1005240081B0CDF800E004462046FFF79BFFA31CF2
:100534000122197862F345111970E11C0A78C2F39B
:100544000011C9B1E31C0122197862F30411197076
:10055400A11D0A78C2F3001129B1A31D0122197843
:1005640062F304111970E31C0122197862F341014A
:1005740019704FF6FF701EE02046C11C0A78C2F3C2
:10058400400101B9F9E7811D0A78C2F3001129B1CC
:10059400831D0122197862F304111970C31C01220E
:1005A400197862F341011970C11C0A78C2F3400141
:0E05B40001B1F9E70020DDF800E001B070476A
:1004680081B0CDF800E003461846FFF7CDFF00B98C
:0A047800FAE7DDF800E001B070477C
:1004100081B0C11C0A78C2F3401181F00101C9B258
:06042000C8B201B07047F4
:1008B40081B0CDF800E00348FFF732FEDDF800E038
:0808C40001B07047007006400E
:10089C0081B0CDF800E00348FFF73EFEDDF800E044
:0808AC0001B0704700600E402E
:1008E40081B0CDF800E00348FFF76AFEDDF800E0D0
:0808F40001B0704700A00640AE
:1005C40081B0011D0A78C2F3401101B9F9E7C11DD8
:0805D4000978C8B201B07047BC
:1009140081B0CDF800E00348FFF75AFFDDF800E0AE
:0809240001B0704700A006407D
:0E07D40081B0011D0978C1F3401001B07047DB
:1008FC0081B0CDF800E00348FFF76EFFDDF800E0B3
:08090C0001B0704700A0064095
:0E07E40081B0011D0978C1F3801001B070478B
:1008240081B0CDF800E00348FFF7CAFEDDF800E030
:0808340001B0704700B006405E
:10080C0081B0CDF800E00348FFF7DEFFDDF800E033
:08081C0001B0704700B0064076
:1007F40081B0CDF800E00348FFF7F2FFDDF800E038
:0808040001B0704700B006408E
:10083C0081B0CDF800E00348FFF7BEFEDDF800E024
:08084C0001B0704700C0064036
:1008840081B0CDF800E00348FFF7A2FFDDF800E0F7
:0808940001B0704700C00640EE
:10086C0081B0CDF800E00348FFF7B6FFDDF800E0FB
:08087C0001B0704700C0064006
:1008540081B0CDF800E00348FFF7B2FEDDF800E018
:0808640001B0704700D006400E
:100A7C0081B0CDF800E00348FFF7A6FEDDF800E0FA
:080A8C0001B0704700D00640E4
:100A640081B0CDF800E00348FFF7BAFEDDF800E0FE
:080A740001B0704700D00640FC
:100A4C0081B0CDF800E00348FFF7B6FDDDF800E01B
:080A5C0001B0704700A00E403C
:100A940081B0CDF800E00348FFF79AFEDDF800E0EE
:080AA40001B0704700A00E40F4
:100ADC0081B0CDF800E00348FFF77EFEDDF800E0C2
:080AEC0001B0704700A00E40AC
:100AC40081B0CDF800E00348FFF77AFDDDF800E0DF
:080AD40001B0704700B00E40B4
:100AAC0081B0CDF800E00348FFF78EFEDDF800E0E2
:080ABC0001B0704700B00E40CC
:1009A40081B0CDF800E00348FFF71AFFDDF800E05E
:0809B40001B0704700B00E40D5
:1009800081B0CDF800E008B413460A46C1B204486D
:10099000FFF724FE01B0DDF800E001B0704700BFB2
:0409A00000600640AD
:1005DC0082B0CDF800E0054616461F46DDF80880CF
:1005EC004C00E1B22846FFF719FF20B92846FFF767
:1005FC0057FF002070E040F20009CDF80480B046AF
:10060C003E462F46019DB1450FD208EB09042478D4
:10061C00E1B23846FFF702FF20B93846FFF740FF3A
:10062C00002059E009F10109EDE7012D2FD13846E1
:10063C00C41C2578C5F3400404B1F9E7861C0025D9
:10064C00347865F345143470C41C2578C5F3400424
:10065C0004B9F9E7841D2578C5F300142CB1861D67
:10066C000125347865F304143470841D2578C5F3A2
:10067C0080142CB1861D0125347865F386143470F2
:10068C00C61C0125347865F3410434701DE0BE1C92
:10069C000125347865F3820434703846C41C2578FF
:1006AC00C5F3400404B9F9E7841D2578C5F300149B
:1006BC002CB1861D0125347865F304143470C61CE6
:1006CC000125347865F341043470C41C2578C5F3D6
:1006DC00400404B1F9E70020DDF800E002B07047F7
:0006EC000E
:1004280081B0841C0123227863F304122270021D18
:100438001170C21C1378C3F3400202B9F9E7C41C57
:100448000123227863F341022270C21C1378C3F39C
:0E045800000282F00102D2B2D0B201B07047B1
:1004AC0082B0CDF800E0831C0022197862F345116C
:1004BC001970831C0022197862F3041119700190D1
:1004CC00FFF7CCFF0198C11C0A78C2F3400101B9B7
:1004DC00F9E7811D0A78C2F3801129B1831D01222D
:1004EC00197862F386111970C31C0122197862F312
:1004FC0041011970C11C0A78C2F3400101B1F9E73E
:0A050C000020DDF800E002B07047A7
:10095C0081B0CDF800E008B413460A46C1B2044891
:10096C00FFF736FE01B0DDF800E001B0704700BFC4
:04097C0000700640C1
:1009BC0081B0CDF800E008B413460A46C1B2044831
:1009CC00FFF706FE01B0DDF800E001B0704700BF94
:0409DC0000600E4069
:100A280081B0CDF800E008B413460A46C1B20448C4
:100A3800FFF758FE01B0DDF800E001B0704700BFD5
:040A48000060064004
:1006EC0081B0CDF800E0804617469A46DDF80490BC
:1006FC004C00A4B244F00104E1B24046FFF78EFE78
:10070C0018B94046FFF7CCFE59E008F10206002567
:10071C00347865F304143470BAF1010F07D108F181
:10072C0002060125347865F3C304347006E008F141
:10073C0002060025347865F3C30434704046FFF795
:10074C009BFEAAF101042046BA464F468146B9F1F8
:10075C00000F30DB13E04046FFF7A2FE16E008F175
:10076C0002060125347865F3C30434700EE008F1F9
:10077C0002060025347865F3C304347006E0B9F141
:10078C00000FE8D0B9F1010FE9D0F0E7B9F1000F93
:10079C0007D108F1040424788AF800400AF1010A10
:1007AC0006E04046FFF768FE8AF800000AF1010AED
:1007BC00A9F10109CBE717B94046FFF7ADFEDDF80B
:0607CC0000E001B07047DF
:1004840081B00246111D08781446E11C0A78C2F3B3
:10049400400101B9F9E7E31C0122197862F3410133
:0604A400197001B0704761
:100A040081B0CDF800E008B413460A46C1B20448E8
:100A1400FFF76AFE01B0DDF800E001B0704700BFE7
:040A24000070064018
:1009E00081B0CDF800E008B413460A46C1B204480D
:1009F000FFF77CFE01B0DDF800E001B0704700BFFA
:040A000000600E4044
:1016600082B0CDF800E001AB18705A1C1170022254
:1016700019465720FFF784FDDDF800E002B07047FF
:001680006A
:1011800085B0CDF800E08DF80C000D46ADF81020CC
:1011900040F20004ADF8084001950D4C2468A047CA
:1011A000BDF908300343ADF8083040F20103BDF843
:1011B000102001999DF80C00064C2468A047BDF949
:1011C0000830034318B2DDF800E005B0704700BFF7
:0811D0004801FF1F4C01FF1F45
:10288C0081B0CDF800E00520FFF74AF90120FFF7F1
:10289C00ADF90120FFF760FA0220FFF7A5FA052039
:1028AC00FFF784FA0120FFF71FFA0020FFF73AFA2E
:1028BC001F20FFF701FA1F20FFF70AFA1F20FFF76E
:1028CC0069FA0F20FFF786F91F20FFF7DFF9DDF813
:0628DC0000E001B07047AE
:101B2C0082B0CDF800E0C2B2072A02D9FF2040B241
:101B3C0010E08DF804200820FFF71EFF9DF804200C
:101B4C00510189B240EA0101C9B20820FFF782FDB8
:0C1B5C00002040B2DDF800E002B070474D
:101BF80082B0CDF800E08DF804000820FFF7BEFEA3
:101C08009DF8041019B140F01000C0B205E04FF67D
:101C1800EF7109B200EA0101C8B2C1B20820FFF7AA
:0A1C28001BFDDDF800E002B070477C
:101D640082B0CDF800E08DF804000220FFF708FEF1
:101D74009DF8041019B140F01000C0B205E04FF610
:101D8400EF7109B200EA0101C8B2C1B20220FFF743
:0A1D940065FCDDF800E002B07047C6
:101DF40081B0CDF800E00022072809D840B10128BD
:101E040006D0042804D0052802D0062800D002E019
:101E1400FF2040B206E042EA00010920FFF71EFC61
:0C1E2400002040B2DDF800E001B0704783
:101DB80082B0CDF800E0C2B2072A02D9FF2040B2B3
:101DC80010E08DF804200A20FFF7D8FD9DF80420C4
:101DD800910089B240EA0101C9B20A20FFF73CFC30
:0C1DE800002040B2DDF800E002B07047BF
:101CF40082B0CDF800E08DF804000220FFF740FE2A
:101D04009DF8041019B140F04000C0B205E04FF650
:101D1400BF7109B200EA0101C8B2C1B20220FFF7E3
:0A1D24009DFCDDF800E002B07047FE
:101D300082B0CDF800E08DF804000220FFF722FE0B
:101D40009DF8041019B140F08000C0B202E000F02C
:101D50007F00C0B2C1B20220FFF782FCDDF800E0D4
:041D600002B0704716
:101CC40081B0CDF800E0C1B20C20FFF7C7FCDDF80D
:061CD40000E001B07047C2
:101CDC0081B0CDF800E0C1B20D20FFF7BBFCDDF800
:061CEC0000E001B07047AA
:101DA00081B0CDF800E0C1B20E20FFF759FCDDF89C
:061DB00000E001B07047E5
:101BE00081B0CDF800E0C1B21020FFF739FDDDF87B
:061BF00000E001B07047A7
:101C980081B0CDF800E0C1B23020FFF7DDFCDDF8FF
:061CA80000E001B07047EE
:1028740081B0CDF800E00020FFF782F88009DDF890
:0628840000E001B0704706
:1027FC0081B0CDF800E01048006840F400010E48AC
:10280C00016040F24000FFF7A9F900210B4801607C
:10281C000B490C4801600C48006840F002010A4862
:10282C0001600948006840F0010107480160DDF8CB
:10283C0000E001B0704700BF3C80044000700340D2
:0C284C00BFD4010000710340087103407C
:101B680081B0042806D11949096841F4803217491F
:101B78000A6028E0052806D11449096841F40032B2
:101B880012490A601FE0062806D11049096841F485
:101B980080220E490A6016E00F2806D10C49096810
:101BA80041F002020A490A600DE010280BD3A0F2A6
:101BB800100461098A0007498B1804F01F024FF0CE
:101BC80001019140196001B0704700BF24ED00E0A9
:081BD80010E000E000E100E074
:1028580081B0CDF800E001460348FFF7F1F9DDF853
:0C28680000E001B0704700BF00D0064047
:101C480082B0CDF800E00B4600211A78D4B28DF8A6
:101C5800044004461D469DF80400A0B1CEB2221DE2
:101C6800127802F08002D2B2D209D2B202B9F6E7F3
:101C7800C1B22046FFF71EFC721CD2B2D1B2AA181C
:0E1C88001278D0B2E9E7DDF800E002B0704754
:1014BC0081B0ADF800100146BDF800000A1D13788C
:1014CC00C3F3C01202B9F9E7CA1D107001B070471E
:0014DC0010
:10253C0086B0CDF800E000208DF8080000208DF862
:10254C0009008DF80A0000212C480160FFF76CFB94
:10255C008DF80D00FFF7A6FB9DF80D10103109B298
:10256C00081AFFF75FFC102212B290FBF2F102FB8B
:10257C0011018DF80C10C8B2012839D300208DF848
:10258C000B009DF80C109DF80B00884229D202A874
:10259C000590032201460720FFF72AFE01ABD91C48
:1025AC0000200870991C059A107800F00300087040
:1025BC00591C501C00780870901C0078187004226C
:1025CC0012B219460E48FFF701FE0D4802680B497E
:1025DC000868801808609DF80B00401C8DF80B00F3
:1025EC00CFE79DF80C2005490868B0FBF2F00860B5
:1025FC0002480068DDF800E006B070470000FF1FDD
:04260C000400FF1FA8
:101C340081B0CDF800E00420FFF7A2FEDDF800E05B
:041C440001B0704734
:101CB00081B0CDF800E00620FFF764FEDDF800E01B
:041CC00001B07047B8
:101E300081B0002802DA414208B2FFE701B07047E2
:001E4000A2
:1021FC0081B0CDF800E00B46087019465720FFF768
:0A220C002FF8DDF800E001B0704784
:1021D80081B00B46014618460D4614B2531E1AB27A
:1021E80024B103782B706D1C401CF6E7084601B03B
:0221F80070472E
:1026480081B0CDF800E00E4600210346002804DAE8
:102658000121404200468FB201E018468FB2314650
:10266800FFF790FD0B213446B8B2002908D963184A
:102678004A1E92B2A21812781A70491E89B2F4E75B
:102688002022227070B1002081B2204642181278B0
:10269800202A02D1491C89B2F8E74A1E92B283184F
:0C26A8002D221A70DDF800E001B0704730
:10218C0081B00A46014600200D4611460A2805D2A8
:10219C000B1820221A70401C80B2F7E70B18002293
:1021AC001A70401E80B20C180A23B5FBF3F203FB25
:1021BC001252303222700A22B5FBF2F2154602B9E5
:0C21CC0002E0401E80B2EEE701B0704758
:1026100081B0014640F200052DB208460C460B463B
:10262000FFE70178202901D105B904E001252DB289
:1026300001782170641C0246401C11780029F0D1F9
:06264000184601B07047CE
:102AF00090B072B69748019097480290974803901B
:102B000097480490974805909748069097480790F3
:102B1000974808909748099097480A9097480B90D3
:102B200097480C90974998480D9098480E900D98AA
:102B300000F007000F9001F0010050B94CF2205056
:102B4000934908804DF62810088040F2D211914830
:102B500001800021904801609048007800F0010059
:102B6000C0B258B18E48007800F00800C0B220B161
:102B70008B49087840F00800087021E08948006817
:102B800040F00051874801608748006800F4807079
:102B9000B0B9854801686FF4705001EA000040F454
:102BA0004071814801608048006840F480717E482F
:102BB00001607D4801686FF4007001407A4801604F
:102BC000AA217A4801700D9800F0100058B9784891
:102BD000007800F09F01764801707648007801285F
:102BE00000D0FAE71BE00D9800F01000B8B10E9984
:102BF0007148814208D960216D4801706D480078A4
:102C0000802800D0FAE70AE06948007800F09F01C8
:102C10006748017067480078012800D0FAE70499F6
:102C200066480160664801686FF4402001400298E0
:102C300000F44020014362480160624801686FF47B
:102C400040300140039800F4403001435D4801608A
:102C50000F9830B10F98012803D00F98022800D0A8
:102C600064E0019800F0800050B9089800F040003E
:102C700028B10B9800F00300002800D100E015E017
:102C80005148006840F400714F4801604F480168A6
:102C90004F4801404D480160069800F0040028B1FB
:102CA0004C4801684A4801404A4801600A994A482C
:102CB0000170059949480170059800F0040040B181
:102CC0004748007800F01000C0B2002800D1F7E7B4
:102CD00006E04348007800F01000C0B200B1F8E709
:102CE0004048007800F0BF01C9B2069800F0FD002E
:102CF00001433C480170079800F0E0013A48007831
:102D000000F01F00C0B201433748017001993748F5
:102D100001700B99364801700F98022805D131488F
:102D2000007840F002012F480170BDE0019800F0EA
:102D3000800020B90B9800F0030000B166E0224843
:102D4000006840F400712048016020480168204874
:102D500001404FE00000000000000C0000000100F6
:102D60000000140122000000240000000000000008
:102D7000020000004600000000000000000000000B
:102D8000000000000000000007000000C0D40100A7
:102D90000E2005400020054008ED00E000F007404F
:102DA00002D007403C80044010D0034000E00740C0
:102DB00001E0074003E00740803801004480044000
:102DC000007004400480044038800440489004406F
:102DD000FFF8FFFE4C9004400840064000400640CB
:102DE00006400640014006400340064000500640B1
:102DF0000C4006407F480160069800F0040028B1AE
:102E00007D4801687D4801407B4801600A997C4803
:102E100001707C48007800F0BF01C9B2069800F04C
:102E2000FD000143774801700199774801700B99C3
:102E3000764801700F98072805D1059840F0800169
:102E40007348017002E0059971480170069800F01E
:102E5000040050B10B9800F0030030B96D480078C1
:102E600000F00200C0B200B9F8E7059800F00400D5
:102E700040B16848007800F01000C0B2002800D1CE
:102E8000F7E706E06348007800F01000C0B200B138
:102E9000F8E7079800F0E0015F48007800F01F00B5
:102EA000C0B201435C480170089800F0BF015B4864
:102EB0000170099800F0BF0159480170089800F0AE
:102EC000400028B15548007840F040015348017057
:102ED0000F98052806D14B48007840F00201494878
:102EE00001701CE00F98062803D00F98072800D027
:102EF00015E04B48007840F04001494801704548D2
:102F0000007800F04000C0B200B9F8E70F98072839
:102F100005D13F48007800F03F013D4801700F980F
:102F200018B10F98032800D029E03A48007800F043
:102F30000C00C0B200B1F8E73A48006840F0010167
:102F4000384801600021384801608021374801601D
:102F50000521374801600121344801603348006889
:102F600000F0800000B9F9E70021304801602D48E9
:102F700001686FF0010001402A4801602DE00F98C0
:102F8000012803D00F98022800D008E021480078DB
:102F900000F00C00C0B2042800D0F7E71DE00F9845
:102FA000042806D00F98062803D00F98052800D0D3
:102FB00008E01848007800F00C00C0B2082800D0E3
:102FC000F7E70AE00F98072807D11248007800F0C9
:102FD0000C00C0B20C2800D0F7E7164801686FF06B
:102FE0000F0001400C9800F00F00014311480160F0
:102FF00010B07047489004404C900440FFF8FFFE2A
:103000000840064001400640005006400C40064083
:10301000004006400640064003400640044006408B
:103020000540064038800440080004400000044089
:08303000040004404880044044
:1030380081B002490248016001B07047C0D4010064
:04304800A449FF1F79
:0829580081B0FEE701B07047F9
:1028E40081B072B60349086840F47000086062B6AB
:0828F40001B0704788ED00E01F
:108AF80000B5DFF814B0DFF814A0DFF814C0F9F7F8
:108B0800F3FD00BD704700BF0000FF1F4801FF1FB5
:048B18001C880000B5
:108B780000B5DFF810B0DFF810A0F9F797FD00BDD9
:0C8B8800704700BF0000FF1FC049FF1F26
:1028FC000948007800F02000C0B258B107480278AF
:10290C000748017807484018027005480078411CB8
:10291C0003480170704700BF04A00E4007A00E4092
:08292C004701FF1F4700FF1FD8
:10293400012149B2044801600448007818B90449E7
:102944000868401C0860704780216E421200FF1F17
:042954001800FF1F49
:100400000000000000000000FFFFFFFF02FDFFFFF3
:10304C0000105C005F008A2B2923491B491B492374
:10305C00692369236A238A2B8A2B8A2B8A2BAA330E
:10306C00AB33AB33CB33CB33CB3BCB3BEB3BEB3B44
:10307C00EC3BEC3BEC43EC430C440C440C440C4458
:10308C002C4C2D4C2D4C2D4C2D4C2D4C4D4C4D4C2D
:10309C004D4C4D4C4D544D544D544D544D544D542C
:1030AC004D544D544D544D544D544D544D544D540C
:1030BC004D544D544D544D544D544D544D544D4C04
:1030CC004D4C4D4C4D4C2D4C2D4C2D4C2D4C2C4CCD
:1030DC000C440C440C440C440C440C440C44EC4385
:1030EC00EC3BEB3BEB3BCB3BCB3BCB33CB33AB337B
:1030FC00AB33AA33AA2B8A2B8A2B8A2B6A236A23FB
:10310C006923492349238A2B6923492369236A2389
:10311C006A2B8A2B8A2B8A2BAA2BAA33AB33AB3381
:10312C00CB33CB3BCB3BEB3BEB3BEB3BCB3BCB3313
:10313C00CB33AB33AB33AB33AB33CB33EB3B0C4499
:10314C002C442D4C4D4C4D4C4D544D544D544D54D4
:10315C004D546D546D546D546E546E546E546E5477
:10316C006E546E546E546E546E546E546E546E5443
:10317C006E546E546E546D546D546D544D544D5478
:10318C004D544D544D4C2D4C0C44EC3BCB3BCB3364
:10319C00CB33CB33CB3BCB3BEB3BEC3BEC43EC4370
:1031AC00EC43EC3BEB3BEB3BCB3BCB3BCB33CB3369
:1031BC00AB33AB33AA338A2B8A2B8A2B8A236A2311
:1031CC00AB33491B4923AB336A2B6A238A2B8A2BDB
:1031DC008A2BAA2BAA33AB33AB33CB33CB3BCB3BB6
:1031EC00EB3BCB3BCB33AB338A2B6923491B291BE2
:1031FC00281B081308130813281B491B6A23AA331E
:10320C00CB3B0C444D4C4D546D546E546E546E541B
:10321C006E546E5C6E5C6E5C6E5C8E5C8E5C8E5CFA
:10322C008E5C8E5C8E5C8E5C8E5C8E5C8E5C8E5C42
:10323C006E5C6E5C6E5C6E5C6E546E546E544D4C7B
:10324C000C44EB3BAA336A23491B291B2813081394
:10325C002813291B291B49236A23AA2BCB33EB3BAD
:10326C00EC43EC43EC3BEC3BEB3BCB3BCB3BCB3376
:10327C00CB33AB33AA33AA2B8A2B8A2BCB338A2B97
:10328C00692369236A2BCB338A2B8A2B8A2BAA338B
:10329C00AB33AB33CB33CB33CB3BEB3BCB3BCB333A
:1032AC008A2B4923281BE80AE70AC702C702C70270
:1032BC00A702A702A702C702C702E70A0813281B26
:1032CC006A23CB330C444D546E5C8E5C8E5C8E5CEE
:1032DC008E5C8E5C8E5C8E5C8E5C8E5C8E5C8E5C92
:1032EC008E5C8E5C8E5C8E5C8E5C8E5C8E5C8E5C82
:1032FC008E5C8E5C8E5C8E5C4D540C44CB3369239F
:10330C00281BE80AE70AC702C702A702A702C702DE
:10331C00C702C702C70AE70A0813291B6A23AB3383
:10332C00EB3BEC43EC43EC3BEC3BEB3BCB3BCB3B8D
:10333C00CB33AB33AA33AB33EC3BAA336A2B6923C5
:10334C006A238A2B8A2BEB3BAB33AA33AB33CB33BD
:10335C00CB33CB3BCB3BCB3BCB338A2B491B08131F
:10336C00E70AC702A702A602A602A602A602A602A6
:10337C00A602A602A602A602A602A702C702C70AB6
:10338C0008136923EB3B4D4C8E5C8E5C8E5CAE5C03
:10339C00AE64AE64AF64AF64AF64AF64AF64AF648B
:1033AC00AF64AF64AF64AF64AF64AF64AF64AF6479
:1033BC00AE5C8E5C2D4CCB3369230813C70AC70255
:1033CC00A602A602A602A602A602A602A602A602B1
:1033DC00A602A602A602A702C702E70A28136923BF
:1033EC00AB33EB3B0C44EC43EC3BEB3BEB3BCB3BD5
:1033FC00CB33CB3BEC43AB338A2B8A2B6A238A2B04
:10340C008A2B8A2BAA33EC3BCB3BAB33CB3BCB3B52
:10341C00EB3BCB3BAA3349230813C70AA702A602EE
:10342C00A602A602A602A602A602A602A602A60250
:10343C00A602A602A602A602A602A602A602A7023F
:10344C00C70A2813AA2B2C4C8E5CAF64AF64AF64F4
:10345C00AF64AF64AF64AF64AF64CF64CF64CF6468
:10346C00CF64CF64AF64AF64AF64AF64AF648E5CA1
:10347C000C448A2B0813C702A702A602A602A602B6
:10348C00A602A602A602A602A602A602A602A602F0
:10349C00A602A602A602A602A602C702E70A2813E3
:1034AC008A2BCB3BEC430C44EC43EC3BCB3BEB3B54
:1034BC000C44CB3BAB33AB33AA338A2B8A2B8A2BF2
:1034CC00AA33AB33AB330C44EC3BCB3BEB3BCB33B6
:1034DC008A2B281BE70AC702A602A602A602A6028E
:1034EC00A602A602A602A602A602A602A702A7028E
:1034FC00A602A702A602A602A602A602A602A6027F
:10350C00C702E80A69230C448E5CCF64CF6CCF6C85
:10351C00CF6CCF6CCF6CCF6CCF6CCF6CCF6CCF6CC7
:10352C00CF6CCF6CCF6CCF6CCF646E5CEC3B491B1B
:10353C00E70AA702A602A602A602A602A602A602F5
:10354C00A702A702A602A602A602A602A602A6022D
:10355C00A602A602A602A602A602A602C702E80AB4
:10356C004923AB33EC3B0C44EC430C442D4CEB3B70
:10357C00CB3BCB33CB33AB338A2BAA2BAA33AB331A
:10358C00CB33CB33CB3B0D4C0C44AB3369230813FF
:10359C00C702A602A602A602A602A602A602A702BD
:1035AC00A602A702A702A602A602A6028602A702EC
:1035BC00A6028602A602A702A702C602A602A602BD
:1035CC00A702C70A491BEC3B8E5CCF6CEF6CF06C0E
:1035DC00F06CF06CF06CF06CF06CF06CF06CF06CFF
:1035EC00F06CF06CCF6C8E5CCB3B281BC702A60238
:1035FC00A602A602A602A702A602A602A702A6027D
:10360C008602A702A602A702A702A602A602A7028A
:10361C00A602A602A702A602A602A602A702C70A33
:10362C0028138A2BEB3B0C4C4D4CEC43EC3BEB3B0B
:10363C00CB3BCB3BCB33AA2BAB33AB33CB33CB3BDF
:10364C00CB3BEB3BCB3B0C448A2BE70AC702A602D5
:10365C00A602A602A602A602A602A602A602C702FD
:10366C0086028602A702A602071B282BA602C60208
:10367C00282BC602870286028602A702A702A60290
:10368C00A602C702291BEC3BAE64F06CF074F0741C
:10369C00F074F074F074F074F074F074F074F074FE
:1036AC00F06C8E5CCB3B2813C702A602A602A602C6
:1036BC00A70286028602A702C702A602E61A482BB8
:1036CC008602A70287028602A70286026602A7026A
:1036DC00A602A602A602A602A602A602A602C7027D
:1036EC000813AB332D4C0C440C440C44EC3BEB3B1F
:1036FC00EB3BCB3BAB33AB33CB33CB3BEB3BEC3B85
:10370C00EC3BCB336923491BE80A8602A602A602CE
:10371C00A602A602A602A602A702870286022823F8
:10372C00282BA602A60A0A646B6CA60249338B7C72
:10373C004833C7124B6C48338602A602A60A87028E
:10374C00A602C702491B0C44CF6410751075107586
:10375C001075107510751075107510751075AF64A7
:10376C00EB3B0813C702A602A602A602A70286021A
:10377C00C94BEA5BA60AA7028602EA536B7C071BBD
:10378C008602E712EA53E71A272B893B8602A70227
:10379C00A602A702A602A602A602A6028602C70AD3
:1037AC006A238A2BEC430C440C440C44EC43EC3B56
:1037BC00EB3BCB33CB33CB3BEB3BEC3BEC3BEB3B3B
:1037CC008A2B0813A702E80AE80A8602A602A702B7
:1037DC00A602C702A702A602A943483B2B6C6B7436
:1037EC00A60A8602C953EA5B8602071B6B7CE71AA2
:1037FC00071B8B8489438602E71A4A6C482B860286
:10380C00A702C70A69234D4CF06C317D317D317DA7
:10381C00317D317D317D317D317DCF6C0C44291B67
:10382C00C702A602A602A602A702860286020A5CAC
:10383C004A6CC70AA7028602683B2B6CC70A660251
:10384C008943AC846933E9636B74E7128602C60260
:10385C00A602A602A702A702A602C70A0813A7027D
:10386C00281BAB330C440C440C440C44EC43EC3B95
:10387C00CB33CB3BEB3BEC3BEC43EC3BAA2B0813A5
:10388C00C702A602A602E80AE80A8602A602A60257
:10389C0086028602C60A6C7C4A74072B4A6C684303
:1038AC006602482B693B46020723EA5B86028602C6
:1038BC00EA5BE7126602A94BAB7C4833860AA70287
:1038CC00A702E70A8A2B8E5C1075317D317D317D24
:1038DC00317D317D317D10756D546923C702C6026F
:1038EC00A702A60286026602282BA712482BA94320
:1038FC006602A602A602E61AC94B450207230A6411
:10390C004733860A883BE95B8502A702EA53EA5BE8
:10391C00A602A6028602C702E70AA602A602C70AE8
:10392C00491BCB3B2C442C440C440C44EC43CB3B6C
:10393C00EB3BEC3BEC430C44CB33491BC702A602DC
:10394C00A602A602A602E70A080B8602E71AEA53A9
:10395C002723C60AE7220A54683B45020A5CE71A89
:10396C00282B893B860A2A64C712A602A602C953D1
:10397C00A60A482B0A54860A88432A64C70A860278
:10398C00A7020813CB3BCF6C517D518551855185D6
:10399C005185317DAF64AB33E70AA60285028602FE
:1039AC00E70AEA530A646A7CEA4B272B893B8502B7
:1039BC00A70286020A642723C7124A6CA70A693B2E
:1039CC002A6428336943660207138C84EA5BE61A7F
:1039DC00E71208232823E71AC70AA602A702E70A58
:1039EC006A23EC432D4C2C4C0C440C44EB3BEC3B31
:1039FC00EC430C44EC3B6A23E70AA702A602A6029E
:103A0C00A602A602A602E70AC81268338B844A6C87
:103A1C00CA5BA9434502095CE82A4833282B2823B2
:103A2C006833082388438602C7028602C94BE71213
:103A3C000A5CA612282BA94B8B84483B6602C70252
:103A4C00C702291B4D4C317D72857285728572853A
:103A5C0010750C440813A702E712EA5B27232723EF
:103A6C00A95366020A64483B2723893B86028502D8
:103A7C00EA5B6833860A4A6CC71286028B7CE95370
:103A8C00E95B682B86020A6428236502AC840D95D9
:103A9C000D9D6B746DADCA4B6602A702A70208138D
:103AAC00AB332C442D4C2C4C0C44EC3BEC430C44D5
:103ABC000C44CB332813C702A602A602A602A60208
:103ACC00A7028602071B6C6C88332823A70A6502A1
:103ADC00A94BA94B0823893B683327232823683338
:103AEC00071B893B8602C702A602C94B271B8943C9
:103AFC00282BAB84883BA60A4A64272366028602DD
:103B0C00C70A8A2BAF645285728D728D51858E5C7B
:103B1C006923C70A6502E81A6B84A943A6122A64B2
:103B2C00AA4B4B74C94B282B88434602EA53683B7B
:103B3C0066024A6CE71A65020A640723883BCA537B
:103B4C0086020A5C4833C70A6602AA43693B683B93
:103B5C00282B884B0723A602A602A602C702491BE4
:103B6C00EC3B2D4C2D4C2C4CEC430C440C44EC43BA
:103B7C006A23E70AA602A602A602A602A702A602CA
:103B8C00E71208234B7C2B6CA702A702C602660225
:103B9C00CA4BA94B4833683328232823693307239E
:103BAC00893B8602C602A602C94B071BC94BC60A33
:103BBC00E9532B6CA602A70A2B64C94BC953C60A3E
:103BCC0008132C4C317D928D928D1075EB3BE812C5
:103BDC008602693B4833095C0723282BE81A272304
:103BEC00CA5B683BA502EB5BC9538943A50A2A5CF7
:103BFC00072366020A64282B272B0B5C4602893BA1
:103C0C008943CA4B4A74E81A281B282B6833472B64
:103C1C004833A702A602A602A602A7020813AB33DA
:103C2C002D4C4D4C2D4C0C440C440C44CB3B291BC3
:103C3C00C702A602A602A602A7028602893B6C7CDA
:103C4C002723A602A94BC94BC702C7028602683BB1
:103C5C00A94B483368332823282369330723893B2E
:103C6C008602C602A602C94B071BC953860245022F
:103C7C00E7224B64A602A60A071B48330A5CA60A75
:103C8C006A23AF64928D728D8E5C4923A702C702A2
:103C9C002B744A6CA94BA94B6B7C2A64A94BCA4B5D
:103CAC00A953472B483BC94B483BAC8C6833250286
:103CBC000A5C473308232A5C46026602893B2723A9
:103CCC00894B6C74C8128602C712C712C70A482BDC
:103CDC00C70AA602A602A602A602C70A69230C44BA
:103CEC004D4C4D4C0C442C440C44AA2BE80AA60217
:103CFC00A602A702A702C702A602082B4B74EA531E
:103D0C0066028602CA4BA94BC8028602893B8943CC
:103D1C00482B68332823282369330723883B660202
:103D2C00A602A602C94B071BA943C70A0B64E71AD4
:103D3C0007232A648602482B89434833095C69337C
:103D4C002C4C5185317DEC3BE70AA6026602A94357
:103D5C00A9438943682BEA530723C70A0723893BE6
:103D6C000A64E71A4402A94B2A6CA60AEA4B683B80
:103D7C00E71A2A64C612683B850289332823482B2C
:103D8C00AA436502C6120DA5C95326024723C70ACA
:103D9C00A602A702A602A602A7022813CB3B4D4CF3
:103DAC004D542C442D4C0C446923C70AA602A60280
:103DBC00A602C7028602A60286026502AA4BA94B7E
:103DCC0066028602EA538943A802893B2B6C682B56
:103DDC004833282308236833E71AEA5BA60AC7127C
:103DEC006602EA534833AA53082B8B840A5C2502DB
:103DFC006833EA5BA953CB8CC712C953AC84EB4B29
:103E0C00CF6CAE646923A602C7128602482B482BDE
:103E1C00A94BC7124502282BE9534A6C4B746943D2
:103E2C002B5CEA53EA53E95B0A646933C71A4B64A7
:103E3C004502883BCC84072368338A3B482B893B5B
:103E4C00C6120DA5EEDDAECD6843071BC60A870270
:103E5C006602A602A602A602E70A8A2B2D4C4D5436
:103E6C002D4C2D4CEB3B291BC702A602A602A70228
:103E7C00A602893B483BC60AC7124502E953894B47
:103E8C00660286020A5C693BA7024C74494368339C
:103E9C0008232723A9432602893B0A540A5CA94319
:103EAC00860A2A64A94BCA4BE61AE95B683B2502D1
:103EBC0069330A644833EA5B2723C953492B4C4CBA
:103ECC000C44E812C6022A64CA4B482B4833884378
:103EDC002823883B0A64C712282BC953C70A8602B9
:103EEC00C612C712C712A612071B2B6CA60AA60A6B
:103EFC002B74894B07234C6CC60A282B482BCA53AE
:103F0C002FE66ECDF0DDE95B0723E7120723A94B03
:103F1C00C60AA602A602C70269232C4C6D542D4C6E
:103F2C002D4CCB3B0813A702A602A602A602C71271
:103F3C004C748B7CEA5B0B64C94B4502EA53883B9F
:103F4C008602A7020A5C482BC70AA702282BC95372
:103F5C0065020B640723450286026602C953894336
:103F6C00A70A0A5CA94BAA4345020A6448334502D6
:103F7C00883BA943E6220B5C6502C70AAB336A2B6C
:103F8C008602272B8C8C68436733A84B0A542B6C06
:103F9C006B7CA60A8602082B0A6CE71A071BEB53EC
:103FAC00A943CA4BAA4BEA53A502A7024B6CE71ACA
:103FBC00A6026C7407136602292BC95307238C8C39
:103FCC002FE6E95B07234B74EA4B4B748B7C482B35
:103FDC008602A702C702491B0C446E544D4C2D4C53
:103FEC00CB330813A702A602A602A6028602082358
:103FFC00E71A66026502A943CA4B25020A5C483BD4
:10400C008502A60A2A5C2823C712E712CA538943E1
:10401C0066022B64282BE712E81A4602CA53683B47
:10402C00C60A0A64A953A94345022B64282B4502EE
:10403C00C94B894307234A5C8702281B0813E712E4
:10404C000B64A712061B0B6C2A64C71AA94B2A6CAB
:10405C00A94B66020A646B6C273B6B7C8843483B1C
:10406C00683B683B4833682B0A5CC61A860A8C6C22
:10407C00E81AA60AA702272B095C072368336833C2
:10408C00072B2A5C85026602A612682B8602860222
:10409C00A602C702291B0C446E544D4C2D4CAB335D
:1040AC00E80AA602A602870228230A64472BE71A0D
:1040BC002823282BA602A94BA94345022A6448337E
:1040CC006602E71A0A6489430D95C712EA53673BE7
:1040DC00A602EA5BE94BEA530B5C65020A5C4833C7
:1040EC00C7120A5CC953894366022B6C072345022D
:1040FC00CA4B883B272B0A5CC70AA602893B48336C
:10410C00A60A2B64472BA94BC953C9530A6C2A6CBA
:10411C000A5C8843483B0A542B744B6C6B746B746D
:10412C006B746B746B7C0A5C89436B6C081B86022A
:10413C002A6CCA530723095C282B6602071B0A64E6
:10414C00860A28232723271B0723EA5B893B860241
:10415C00C7022813EC3B6E544D542D4CAA33E70A7E
:10416C00A602A7028602693B8B7C0A5C883B8943CA
:10417C0089430B64C612C94B894345022B64072340
:10418C0027238C842A6C8943C8128602EA5B683325
:10419C0045026602450248330B5C65020A5C282B1B
:1041AC00E71A0954EA53683B86024A64E72245023F
:1041BC00EA534833683BCA4B65028933472BEA53B1
:1041CC00C60AA712ED8CE71AC70AEA63AB84A84BA0
:1041DC00282BEA5B0723E71AE81AC712E712E71243
:1041EC00C81AE712E71A6933E7126502482BAC8448
:1041FC00683B8943E953450207232B64A60AEA5B13
:10420C00A94B8943A93BC94B6B7CEA5B8702C7026C
:10421C002813EC3B6E5C4D544D4CAB33E70AA602B5
:10422C00A602A602A602C712072BA94B8943894BEB
:10423C00072B2B64A612EA53683B65024B64E71A02
:10424C0048336B7CA953E61A080BA60AE95B295C78
:10425C00E953EA5B860A482B0A5466020B64272B47
:10426C00282BCA53EA534833860A4B6CE712660272
:10427C000A5CE71ACA4B450269334833AA4BA94B6F
:10428C006933A60AC6124B64272BC7120723EA5BB5
:10429C00A6028602A60265028933EA53C94BC943BA
:1042AC00E94B0A54C94BA943CA530A5C860A282B0A
:1042BC000A5C6602E71A2A64860AEA5347336843A3
:1042CC008943883B4833C712C60AA602C702281383
:1042DC00EC438E5C6D544D4CAA2BE70AA602A60249
:1042EC00A602A70A472B2A5C071B271B272B0A5C55
:1042FC00072B2B5CA60A0A5C283386024B64C71A70
:10430C00A843E94B6B84C953E812C70AC812C712F9
:10431C0027234A6466026833EA5366028B7CE95BA6
:10432C00683BE853EA5B482BA60A4A6CA60AA943E9
:10433C000823EA53A9532B64282B0A5C8B7CEA5B79
:10434C00082B2A64E71A4602E712CB8CA95B65029C
:10435C00A70A6602893BEA53A60AE712E81A492B18
:10436C00E71AE71AC94B693B450228234A5C6602E7
:10437C00E7124A64A70AEA534833C953693B4833E6
:10438C00095CEA538943C70AA602A7020813EC3B4F
:10439C008E5C6E544D4C8A2BE70AA602A602C60A06
:1043AC002A648B7CC60A8602A7026602E61A0A6495
:1043BC00272B0A5C860A295C2823860A4B6CA60AE2
:1043CC004602EA5BA9436502E802A60265026602A0
:1043DC0007234A6465028943AA4B69432A6C860207
:1043EC006833CA4B0A5C271B082BA94B893B072354
:1043FC002A642A748B7C472B8943E95B4B748B842E
:10440C00493B6502E71AAB84AC940C95CA53450240
:10441C00693BEA5B8502EA5BEA53EA4BA94BA94389
:10442C00CA534B74C94B07232B646702C60A4B6CE7
:10443C00A612EA4B483BC953693B4502AA4B8B84F5
:10444C00E7220A5C8B74072386020813EB3B8E5C15
:10445C006E544D4C8A2BE70AA602A602C702EA5BF1
:10446C00A94BA702C602A702C7028702E71AE953A3
:10447C00272B0A5C860A2B64E71AA60A4B6C884326
:10448C00A9438943893B8943AA43CA43071B660254
:10449C00282B2A646502A843A9536602A702860248
:1044AC00C953A9530A54082B883B894328238943B1
:1044BC00A94BC94B482B89438843A943EA53C70AE4
:1044CC00E6128B848B84CB8CCC940723282B0A5C30
:1044DC0065020B64282B081BAA4BA94BC94BA94B93
:1044EC006B742B6C0A5CA70AA6024B64C612C943F8
:1044FC0068438943883B6602E71A6B744833A6020B
:10450C00482B4A6CE71AA6020813EB3B8E5C6E5CD8
:10451C004D548A2BE70AA602A602A602A702A602FF
:10452C00A602A60AA602A602A6124833E95BEA5B1B
:10453C00472BEB5BA6124B64E71A8602282B271B32
:10454C00282308230723893B893B6C6CE71A6502F7
:10455C00482B2B5C4502C94BA9436502CA530A641C
:10456C000A64EA5B4733893B893B2823A9436833B8
:10457C00A94B48338943A943683B0A64E612CA53E2
:10458C006B7465028C7C282BE7222A646502EA5B3B
:10459C004833E70A2B64883B071BE712E712A61285
:1045AC00C712660286024B64E7228943884389431B
:1045BC002A64860286028602C95348336602A70A19
:1045CC00C602A602A6020813EB3B8E5C8E5C4D5411
:1045DC00AA2BE70AA602A602A702C602A602C702D7
:1045EC008702A60A0A5C0A5C8C7C2A646833CA536C
:1045FC00683B8943A60A2B64894388336833683344
:10460C008833CA534B74283308136C74E612460271
:10461C0068330A5C4502CA4B6833883B4B6CA94330
:10462C000A64272B883B893B2823A943683BA94B69
:10463C004833893BA943A9436B7CCA536502860264
:10464C00EA4B482BC71A4B646502EA53893BC70AED
:10465C002A64483B2A6C2B64883B893BA93BA93BC9
:10466C00A93B0A5C27230723C95348332B6C2A74B4
:10467C006B74EA5B282B46022A6469336502860256
:10468C00A602A7020813EC3B8E5C8E5C6E54CB33F7
:10469C00E80AA602A602A602A602A702A6028602A3
:1046AC00295C482B6602072307232402683B4B6CCA
:1046BC00C9536602C612482B27238943A94BE71A14
:1046CC0048330A64282B450228236C74C7126502F0
:1046DC00693B4A6C282BCA53883B893B483B2A646C
:1046EC00272B893B89432823A943683BAA4B483392
:1046FC0089434833E95BC6120A5C28238943894302
:10470C00A7126A646602AA4BAA43A60A4A6CE71A65
:10471C0086020A5C89430723082307230723282BD7
:10472C00A94B660268334A74C9538502AA4B2833D5
:10473C00C7120A6448334502EA5BA94BE712A6028A
:10474C00A70228130C44AF648E5C6E5CEB3B081321
:10475C00A602A602A602C702A60A8A436B744833B5
:10476C008602A602E7228933E9532A644B748A43F2
:10477C008602A60266026602EA534A74CA4B894B49
:10478C00C94BCA4BA94B6602482B6B6CA70AA602F5
:10479C006B740A64282BE9536833483B2A64272B33
:1047AC00893B893B282BA943683BA94B4833C94318
:1047BC006502893B6943C60AEA5BC853C6122B647F
:1047CC008602A943EA4BA6022C64071B272BEA5B43
:1047DC00CA4BA94BA943A943A94B89430A5C6B74E7
:1047EC00683BE8124B740A64EB63683B483346023F
:1047FC00A7022A5C69430723AB840A5C8602C702C2
:10480C00491B2D4CAF648E5C8E5C0C44291BA7029B
:10481C00A602A602A70286022A642964A6026602E0
:10482C00482B0A64472B483B4B7C683BA60AE71293
:10483C00C712E712C712894BE95B27232723072BE3
:10484C00E7228943EA534502682B4C6C85022823E6
:10485C00E71A272BCA53483389432A64282B683B11
:10486C00A9430823A943683BA94B48338943282310
:10487C00E71AC94BE71AC94B483B89432723483BE6
:10488C00CB4B86020B642723272BEA5BE7222723DB
:10489C000723272307230723072347330A64272BE0
:1048AC00A60A07236A7CC943272BC953EA4B660225
:1048BC0008238B84C94B483B48338602C7026923C3
:1048CC006D54CF6C8E5CAE5C4D4C6923C702A60256
:1048DC00A602C60AA9438843E722A60A683B0A5CDB
:1048EC00860A450248332A64C94BEA53E94BEA531A
:1048FC00EA4BC94B89438943A943AA43A9430A5CA0
:10490C0088438843C94B460268334B64660266028F
:10491C00482BA94B4A74A94BC94B482BE9534A6CF9
:10492C00A9538943683BAA4B472BEA534B742A6C17
:10493C00A94BE712EA5B0A5C894388430A5C493B52
:10494C004B64472B0723EA5B47332A5CA94BCA4BC2
:10495C00CA4BCA4BCA4BCA4BC94BA943C94BEA4BAE
:10496C00C94B0A5CAA4B65026602A94BC953C61215
:10497C00CA5B8843A943C71AA602E70AAB338E5C0D
:10498C00CF6C8E5CAF646E54AA33E70AA602860223
:10499C0008236B846B74C94B0A5CCA53A60A660263
:1049AC00893BEA5B86028702860286028602470200
:1049BC00E71A4833282B282B483327236602A94BA8
:1049CC00A843884BC94B250268332B646502482BDE
:1049DC00A94BCA4B07330A54E61A0B642A6CE95BE1
:1049EC008943693BA94B4833A9430B6CC953A84372
:1049FC00C7128C8C2A6C2B6CAA4BEA4B4A6C0A6C37
:104A0C000723EA5B482B0A5C6602C612C60AC60A72
:104A1C00C60AC60AC60AC60AC612C712A60AA71230
:104A2C006602883BEA5B86026602893B2A54894B04
:104A3C002A648B8489438602081B0C44CF64CF6C98
:104A4C00AE5CAF648E5CEC3B0813A602A602A60219
:104A5C004833C61286028602450245024833EB5B98
:104A6C008602A60286028602C70AA602E7124A5BE3
:104A7C00AC738B6B8B6BCC6B2A53C71A8502C943F7
:104A8C00883BA94B89434502893BEA4B4733683342
:104A9C00A60A2A648602E71AC843870A071BA94399
:104AAC00683BA94B4833693B8943482BA94B860289
:104ABC006B6CA953893BE95B69330723A94BEA5B10
:104ACC0028332A5C6502CA4B0A5CEA53EA53CA4B88
:104ADC00AA43CA4BAA4BCA43A9430A5C0A5C0A5CA8
:104AEC0065028843CA53660266024602A702860A1A
:104AFC006833A612A702491B4D4CCF6CEF6CAE6409
:104B0C00AF64AF642D4C491BC702A702A602670213
:104B1C00E7122A6CEA5B482B89430A5CA6028602E0
:104B2C00E71A094C2B6CCD94A602C9434B6BCC5A9B
:104B3C00EC5AEC5ACB5AE741A95BC70A6602E94B1F
:104B4C006833CA5B081B6502AA4B2B5C2823A9435C
:104B5C004833683BC7120B5CE71AC712C943693B61
:104B6C00A94B48338943A9436833C94B6502A60A4C
:104B7C000A5CCA53894389338602095C272B0A5C79
:104B8C008502CA4B89436502A6026602C712884396
:104B9C00683B683B683B884B4B6C6843282B0B6429
:104BAC004402A94BEA53282BA9434B6C48336602A9
:104BBC00A702C70A8A2B8E5CF06CF06CAF64AF64F2
:104BCC00CF646E5CAA2BE70AA702C6028602E71A1C
:104BDC002A6CE94B483B883BA70A6702C6124A6419
:104BEC00C712C71A483B8702A94B6B630C5B0C635B
:104BFC002C63494AC639A953C60AA702A60AC95347
:104C0C008943272366026833EA53482B4833EA5B0F
:104C1C008B7C4833A612EA5BE712A94B683BA94B85
:104C2C004833893BA943483389434833C843E71A7F
:104C3C008C7CA9536833482B6833893B0723693331
:104C4C00C953C95BA943660207232A6469334833F5
:104C5C006833282B482BE95B0A64A6126833EA5B9D
:104C6C002502282B8733C9534B7468338602A7025D
:104C7C000813EC3BCF64F074F06CAF64AF64CF649A
:104C8C00AF640C440813A702A602C70286020723CE
:104C9C004833650266028602C7120A64282B693BF8
:104CAC00E95B6C7CA502A9434C63EC622C63694AFA
:104CBC00A631E739A953C602A602C702A94BA843DD
:104CCC00281B6602893BC953282B883B48332A6C26
:104CDC00C712A702C94BC71AA943683BA94B483353
:104CEC00893BA9436833A943AA53AC8CE71A8602C3
:104CFC00692B883327234833883B081BA94B271B78
:104D0C006B7CA943A6122A6408234502660225027D
:104D1C000723A953C95B8A744B6C8602893B4A6C86
:104D2C00072B66028502C70A8702A702C702491B26
:104D3C004D54F06CF074F06CAF64AF64CF64CF6C16
:104D4C006D546A23C702A702A6028602EA538B841B
:104D5C002B64CA53EA532B64E7124833A943072345
:104D6C00A94BA602A94B6C6B0C63694AA639C739CF
:104D7C00E7398953C70AA602C60AA943C94B282397
:104D8C006602893BCA532823883B2823AA4BA702D7
:104D9C00C60ACA4BE712A943683BA94B4833893B67
:104DAC00A94B0823CA534733693BEA5365020823CE
:104DBC00893B28236733893B271BA94BA70ACA4B7E
:104DCC00E6128943EA5B2B6CEA5B893BC94B0A64AC
:104DDC000823E71AA94BA9438602A70A6B742B6414
:104DEC00A60AA70AE60AA702A602E70ACB33AF6413
:104DFC001075F074F06CAF64AF64CF64CF6CAF64BB
:104E0C00EC3B0813A702A60286022823A94BC71263
:104E1C00C70AC712A6024502883BCA53693B0A64FB
:104E2C008602CA5B0A5BC739863186318629C63150
:104E3C00CA63C60AA602C60AC94B07230B648602BC
:104E4C00683BC94B282B893B0723A94BA602A70A11
:104E5C00C94BE712A943683BA94B483389434833F4
:104E6C00CA53850A2A648602C94B0A640A646833E9
:104E7C0027234833883B0823A94BC60AC953E71A92
:104E8C00884389434B6C683B0723282B86026502B9
:104E9C00660266028602282BA602482B272366028E
:104EAC00A9434B74E71AA702491B4D54F0741075B3
:104EBC00F074F06CAF64AF64CF64CF6CCF6C6E5495
:104ECC006A23C702A602A602860266026602860250
:104EDC004602C702C712C70A6833A9432A6CC60226
:104EEC002723A742884AA84AA952E952A84A27234D
:104EFC00C702A602C602EA536602A843282B6833EF
:104F0C002B64482B893B892BEB5B8602A602C94B91
:104F1C00E712A943683BA94B482BA94B8602A9432E
:104F2C00683B272B883BCA4BCD8C8B84883327233B
:104F3C004833883B0823A83B282B4C7C8943C94326
:104F4C002C6CCA53CA4BA9438943C94BEA4BA94B96
:104F5C00893B0A644B7448336602A6028602C95325
:104F6C004B74C712E70ACB33CF6410751075F0740D
:104F7C00F06CAF64AF64CF64CF6CF06CCF64EC3B7F
:104F8C000813A702A602A702C70A8943A943A8438C
:104F9C004B6C2A74A70AA60AAA53C612A602870249
:104FAC00282BE95B8743AA436943893B8502A60208
:104FBC00A602A602E95366026833072B6933EB5B42
:104FCC00492BAA43293BEB53E612C71AC94BE712EC
:104FDC00A943683BA94B482BCA4BA602C60AC95326
:104FEC000823A83B293BCA63EA532833282B683390
:104FFC00883BE71AC94B27232B64893B8602E8229E
:10500C00871A4833071B28230823E612894BC94B00
:10501C000A5CAB8C0A642B6C282BA6020A64C712A0
:10502C00C60229234D54107510751075F074F06C70
:10503C00AF64AF64CF64CF6CF06CF06C6E5C8A2B99
:10504C00C70AA602A702A70A6B74283B0823A94B20
:10505C00095C8602282B8B84C94B6502A602E812D8
:10506C004B640A5C8943E732AA430813E70AA70298
:10507C000813EA5B6602AA438933493B284B6A331F
:10508C00AA4B87220B646B6C2B6CEA5B2923EB53CA
:10509C00683BCA4B8943CA4BE81228238A434933DD
:1050AC00EB53082B2943CA53AA3B6933493BAA4308
:1050BC00893B6B7CCB4B66024933CA4B6933294B1A
:1050CC008C742833E912C802483BEA53272B493326
:1050DC004833C94B6B7C2723683B683B6602E8125C
:1050EC00CB33CF6C317D10751075F074F06CAF64F0
:1050FC00AF64CF64CF6CF06CF074CF6C0C4428139D
:10510C00A702A602860268334833E61AA853E71AA8
:10511C00C612C94BC9530A5C0823C80AE722895B2B
:10512C00AA5BEB43A72A083B8953A81A291BC81A68
:10513C00CA5BA70269438A43493BC742C72A073B5C
:10514C00661A08434D74EB5BE7428722493B2B5CA4
:10515C002A6C28538A532923861A483B082B2C5C2B
:10516C00C72AE73AAA53CB4B8622C72AAA4B683BDD
:10517C004C6CA832894B2943493BAA43494B8D7C43
:10518C00A72AC7026843EA5386028943071B860293
:10519C00860A8602A60A0A5C8602C70249236D5457
:1051AC001075317D10751075F074F06CAF64AF64D0
:1051BC00CF64CF6CF06CF074F0748E5CAB33E70A98
:1051CC00A602C602A702E95BEA634C74EA53CA530F
:1051DC006A7C8943860A6B6C082B46022923E71AE2
:1051EC00EB53861AA7124933484B09238712CA532B
:1051FC00C70A283B28338A43284B8A3BAA4BA72A49
:10520C00CB4BCA53C732CA4BAA33083BEB5B2B7C44
:10521C008A536B64460AC8224C5C8A3BCA430833E7
:10522C00AA530B5C29330943EA53A93B692BA70A00
:10523C0028430B548A43AA43C7126612A722E81AC2
:10524C00883BEA5B4502282BAC94CA530A5C6B740E
:10525C00683B0A64282B86020813EC43F06C317D02
:10526C00317D10751075F074F06CAF64AF64CF6461
:10527C00CF6CF06CF06C1075F06C4D544923C70278
:10528C00A7028702272B4B74E953683B683B2A64BF
:10529C00E9536602E7120B648722A702AA3BAD8C86
:1052AC00A9632C64EA4BC72A2C648612AA5BC7023A
:1052BC00493B082B693B694B492B8943C82AC94B8D
:1052CC008933C832684B87124843493B8A53283389
:1052DC00C94B693BC732895B493BEA534943694B2C
:1052EC00C94BA94B0C642B648A4B082BAA4B494B1A
:1052FC00E8124A6C8C7C0A5CE742E7422C6CEA535D
:10530C008602A70A0A648943E712EA5BE95B283341
:10531C002723A602C70A8A2BAE64317D317D317DED
:10532C0010751075F074F06CAE64AF64CF64CF6C14
:10533C00EF6CF06CF0741075CF6CEC430813A70293
:10534C00A702A702272BC9536833482B0723683BB6
:10535C000A646602271B0B64A82A661A0C5CA72A2F
:10536C00A70ACA4B28438A436953CA5B682B293363
:10537C00293B4933495368338A43C7320B5C894311
:10538C0029436943EC6328238D748722EB5B273315
:10539C002B5C4C6C4C74E73AAD84C722AA53AA43DD
:1053AC00C94B893B2B640B64E73AEB5B0602E80ABA
:1053BC0069336933A70A460A4A33460AE80A860261
:1053CC002B6407234502860265022723A60A860260
:1053DC00C602491B4D4C1075517D317D317D1075C8
:1053EC001075F06CF06CAE5CAF64AF64CF6CCF6CCE
:1053FC00F06CF074107510758E5CAA33E70AA70276
:10540C008602482B6A740A64894BC94B683B273364
:10541C002A64A80A28238C6CE83AAB53293B2B6CE2
:10542C002823083BCB4B083389534C64E732895310
:10543C000B5CE842AA536A33684BC8328D7407433D
:10544C008943A94B8A4B4A238953E7222B64493B56
:10545C00CA5B0833470A292BEB634622EB5B2723F5
:10546C00A712A953084369438A33284B4943E83AA6
:10547C00CB53EB538A53CD84493B870A8B6CE82280
:10548C00282B0B5CA9530A648B7CEA5BA6020813DD
:10549C00EC3BF06C517D317D317D107D1075F074DD
:1054AC00F06CEF6C8E5CAF64AF64CF64CF6CF06C5F
:1054BC00F07410751075F0744D546923C702860290
:1054CC00E71A0A54482BE712C71AA94389436833D1
:1054DC000C6CE732C732493B2B54283BE8226C64F6
:1054EC00C722EB5BCB53E8324953894B6A3B2B64A5
:1054FC000A6489532C64292BAA5369432C640943ED
:10550C004843A94B0B54C82A2B6407230C64E7327D
:10551C00A953292BEA5B6933EA53893BA70A2B5C15
:10552C00EA53AA4B482B2B646933282B2933482385
:10553C006933AA4B2A6C693B4C644933272B0A5CB0
:10554C00E612E71AE71AE9534833C70AAA33AF64DD
:10555C00317D5185317D317D10751075F074F06C95
:10556C00CF6C8E5CAF64AF64CF64CF6CF06CF06CBE
:10557C00107510751075EF6C0C44281BC702A60231
:10558C008602860289430A648602A843A94B082333
:10559C004933482B6933292BCA4B0B5C86128C6C14
:1055AC00E71AE94BA94389430B5CEA5B07230A64BE
:1055BC002A64EA5BC95308230B5C072B2B5CA94BB1
:1055CC00CA4B8943A943C71A0B5C061B2B64492B96
:1055DC002B6C272BA94B894366020A5CA84BEA5318
:1055EC00E7222B64C60A8602A702A702EA53A94B3C
:1055FC00A943A94BC8530823072B0B646602A94B7C
:10560C00EA53A6028602A70249236D54317D5185C7
:10561C00517D317D317D10751075F074F06CCF6C4F
:10562C008E5CAE64AF64CF64CF6CCF6CF06CF074F6
:10563C00107510751075AF64CB3B0813A702C70229
:10564C008602C943AC8448334502C94BEA53883BB4
:10565C00A94388438843450248330954A6122B5C5E
:10566C00C61AEA5B272B883BA94B0A5C0723EA5B2B
:10567C00E95BEA5BA84BE81A095C2723C95388430A
:10568C00AA4BC94B68330723CA4B0723A94BC61235
:10569C00CA53A94345020A5CA84BA94BE71A2A64D2
:1056AC00C612A602A702860A2A6407234733CA4BEE
:1056BC00C94BA94BAA4B0A5C8602A6128C84EA63DE
:1056CC00A60AC702281B2C4C107551855185317DBB
:1056DC00317D107D10751075F06CEF6CCF6C8E5C9D
:1056EC008E5CAF64AF64CF64CF6CF06CF0741075EB
:1056FC001075317D10758E5CAA2BE70AA602A602E6
:10570C00A602E7222B64071B660208230823072343
:10571C00082B894B0A5C45028833CA53E71AAC7CC8
:10572C00AA530A54EA5BAC8448330A5C272B0A64FC
:10573C00C95BEA5B88430723EA5B282BC94BA84368
:10574C008943EA53272BAA4BC7120A5C4B744A7441
:10575C0045020A5C28334B6C0A640A5CE71AA60201
:10576C00A70285022B64E7224833EA53272B071B39
:10577C0008232723A60AA60A0A5C482BA60AA70216
:10578C000813EB3BEF6C51855185517D317D317D9B
:10579C0010751075F074F06CCF6CCF6C8E5C8E5CE9
:1057AC00AF64AF64CF64CF6CEF6CF06CF0741075B9
:1057BC001075317D10756E546A23C70AA602A702B4
:1057CC008702E61A2A64A60A85026602A70A2B64D7
:1057DC00893B68330A5C25028943EA5BCA53A94BAF
:1057EC006502E61AA7128502C61AEA53272B0A6429
:1057FC00CA5B095C893B2823E9534833A94BC9434D
:10580C00A94B693BA943E71ACA53C94B282BC94B6F
:10581C008943683B272B071BA70A8702A602A612FF
:10582C000A5C0823482BE953082B4B6C07236602B0
:10583C0066028602E95348334602A702E80AAA33F5
:10584C00AF64518551855185317D317D107D107549
:10585C001075F06CF06CCF6CCF648E5C8E5C8E5CD3
:10586C00AF64AF64CF6CCF6CF06CF07410751075C6
:10587C00317D317DF0742D4C491BC702A602C70245
:10588C008602C94B071BAA43282BC70A0A648B7CC8
:10589C006502893BE953460269432A64A94BAA4B2A
:1058AC00A943A94BCA4BCA53A953C94B282B0A6409
:1058BC00EA5B0964693B4833A94B894BA94BC95333
:1058CC004833A943E71AAA4B2502C953AA43E62237
:1058DC00AC8CA9434602A60AA60269338C846833B1
:1058EC0008232B6445022A5C4B7C0723C612C94B48
:1058FC00E712E953A70AC602E70A8A2B8E5C317DB0
:10590C0052855185517D317D317D10751075F07446
:10591C00F06CCF6CCF6CCF646E5C8E5C8E5CAF64C5
:10592C00AF64CF64CF6CEF6CF06CF07410751075C5
:10593C00317D317DCF6C0C44281BC702A702860237
:10594C00C943282B8B7C0A6C6502A60A082B2B6496
:10595C006602A94BC94B450207132723482B8833F2
:10596C00081B2823492BC953C953A93B4833CA5B8D
:10597C00A943E9532823A94BA94BA943C94B683325
:10598C00A943071BA9434833CA5386026B6C89434E
:10599C00E7222A64C7128602A8430A6C883BEB6391
:1059AC004502C94B894BA60A6502A943AC8C493305
:1059BC00AA43E70AC70269234D54317D728551858C
:1059CC005185317D317D107D10751075F06CF06C4A
:1059DC00CF6CCF64AF646E548E5C8E5C8E5CAF64A7
:1059EC00AF64CF6CCF6CF06CF07410751075307DAB
:1059FC00317D317DCF64EB3B0813C7028602CA436D
:105A0C00483BE71A0B64483386028602272B2A5C34
:105A1C006502CA53A94326022B6C2A6C693B4A6463
:105A2C00081B4502282BA94BA8430823A943893BF3
:105A3C00483B69338943A94BA943C94B6833A943F4
:105A4C00071B8943693B0823CA53483BC70AE71223
:105A5C00CB8CA94B8602660228332B646502A943C2
:105A6C00C94B86028602E7120B6C4833E7220A5CAC
:105A7C00C602291B2D4C1075728551855185317DBF
:105A8C00317D317D10751075F074F06CCF6CCF6C6E
:105A9C00AF64AF646E546E5C8E5C8E5CAF64AF644E
:105AAC00CF64CF6CCF6CF06CF07410751075317DC9
:105ABC00317D317DAF64CB330813A702A6022B5C7A
:105ACC00072365020B64482B8602860248332A5C46
:105ADC004602EA53883B86020A64AA43282B0A5CD6
:105AEC00A70A2823A943883B2723A9438943693B59
:105AFC006833894BA94BA943C94B6833A943071B8E
:105B0C00894368338943C94B25022B64ED8C04020D
:105B1C000A5C4833E7124A6466028943EA538602F8
:105B2C00A602C7124B64C61266022B64071B08132D
:105B3C000C44F074518551855185517D317D317DF9
:105B4C0010751075F074F06CEF6CCF6CCF64AF64A3
:105B5C00AF646D546E548E5C8E5C8E5CAF64AF64BF
:105B6C00CF64CF6CF06CF06CF07410751075317DE7
:105B7C00317D107D8E5CAB33E80AA602A7022A6445
:105B8C00072365022A64282B6602450268330A54EF
:105B9C0045020B64272B8943ED940723282B693B83
:105BAC00071BA94B893B2823A943893B68334833FE
:105BBC00894BA94BA943C94B6833A943071B89439C
:105BCC0068338943893B6602A70A0A5C0B5CCA539B
:105BDC00472B2B6486026833EA5345026602A70AF8
:105BEC004B64C71A86024B640723E812EC3BF06C3B
