:10000000FCFF0220D10500009D0500009D050000B9
:100010009D0500009D0500009D0500009D05000058
:100020009D0500009D0500009D0500009D05000048
:100030009D0500009D0500009D0500009D05000038
:100040009D0500009D0500009D0500009D05000028
:100050009D0500009D0500009D0500009D05000018
:100060009D0500009D0500009D0500009D05000008
:100070009D0500009D0500009D0500009D050000F8
:100080009D0500009D0500009D0500009D050000E8
:100090009D0500009D0500009D0500009D050000D8
:1000A0009D0500009D0500009D0500009D050000C8
:1000B0009D0500009D0500009D0500009D050000B8
:1000C0009D0500009D0500009D0500009D050000A8
:1000D0009D0500009D0500009D0500009D05000098
:1000E0009D0500009D0500009D0500009D05000088
:1000F0009D0500009D0500009D0500009D05000078
:100100009D0500009D0500009D0500009D05000067
:100110009D0500009D0500009D0500009D05000057
:100120009D0500009D0500009D0500009D05000047
:100130009D0500009D0500009D0500009D05000037
:100140009D0500009D0500009D0500009D05000027
:100150009D0500009D0500009D0500009D05000017
:100160009D0500009D0500009D0500009D05000007
:100170009D0500009D0500009D0500009D050000F7
:100180009D0500009D0500009D0500009D050000E7
:080190009D0500009D05000023
:1005D00081B000F053F8FFF7E5FF00F0F3FAFFF702
:1005E000EDFFFFF7C5FF002149B222480160224A12
:1005F00011604CF2FE17C0F6EB3700BF00BF7F1E44
:10060000FDD100BF00BF00BF002149B21948016001
:10061000012040B210604CF2FE17C0F6EB3700BF6D
:1006200000BF7F1EFDD100BF00BF00BF012149B246
:100630001048016011604CF2FE17C0F6EB3700BFA6
:1006400000BF7F1EFDD100BF00BF00BF012149B226
:1006500008480160002040B210604CF2FE17C0F65E
:10066000EB3700BF00BF7F1EFDD100BF00BF00BF42
:0C067000B9E7FEE72800FE433408FE4313
:1005340081B04FF000094FF0000CBDEB0A0F04DC52
:10054400BDEB0B0F01DBD446EA464BF8049BBBEB37
:100554000A0FFAD1BCEB0A0F05DDE246D9F800B068
:0A0564000BF1040BF1E701B0704742
:1005700081B0CDF800E04FF480610648FFF7C4FF7A
:100580004FF400510448FFF7BFFFDDF800E001B071
:0C059000704700BF00F00F4040F00F402B
:1005080081B0CDF800E0034AFFF7F0FFDDF800E026
:0805180001B07047040104006A
:1004F40081B0CDF800E0FFF7A1FFDDF800E001B026
:0205040070473E
:1004400083B0CDF800E006460C4615463046FFF76F
:10045000DFFF40F2FF1306EA030080090026224670
:100460002946202E39D24FF0010303FA06F402EA9E
:1004700004031F46A3422ED104031A4B1C19B300D8
:10048000E51801952C68184B04EA03032B60174B01
:1004900001EA0304019B1B6843EA0404019B1C60FE
:1004A00001F48033B3F5803F15D08401104B1B1944
:1004B0001433029301F400333BB1FC43029B1B68ED
:1004C00003EA0404029B1C6005E0029B1B6843EAEC
:1004D0000704029B1C60761CC3E7DDF800E003B054
:1004E000704700BF009004400000FFFFFFFF0000C6
:0404F00000F00F40C9
:1004100081B040F2FF1100EA01018909084600F2AB
:1004200009024FF0010101FA02F20449096841EAA8
:10043000020202490A6001B0704700BF38800440E0
:00044000BC
:1005200081B01CF8019B0BF8019BBBEB0A0FF8D1C3
:0405300001B070475F
:10067C0090B072B6974801909748029097480390B3
:10068C00974804909748059097480690974807908C
:10069C00974808909748099097480A9097480B906C
:1006AC0097480C90974998480D9098480E900D9843
:1006BC0000F007000F9001F0010050B94CF22050EF
:1006CC00934908804DF62810088040F2D2119148C9
:1006DC0001800021904801609048007800F00100F2
:1006EC00C0B258B18E48007800F00800C0B220B1FA
:1006FC008B49087840F00800087021E089480068B0
:10070C0040F00051874801608748006800F4807011
:10071C00B0B9854801686FF4705001EA000040F4EC
:10072C004071814801608048006840F480717E48C7
:10073C0001607D4801686FF4007001407A480160E7
:10074C00AA217A4801700D9800F0100058B9784829
:10075C00007800F09F0176480170764800780128F7
:10076C0000D0FAE71BE00D9800F01000B8B10E991C
:10077C007148814208D960216D4801706D4800783C
:10078C00802800D0FAE70AE06948007800F09F0161
:10079C006748017067480078012800D0FAE704998F
:1007AC0066480160664801686FF440200140029879
:1007BC0000F44020014362480160624801686FF414
:1007CC0040300140039800F4403001435D48016023
:1007DC000F9830B10F98012803D00F98022800D041
:1007EC0064E0019800F0800050B9089800F04000D7
:1007FC0028B10B9800F00300002800D100E015E0B0
:10080C005148006840F400714F4801604F4801683E
:10081C004F4801404D480160069800F0040028B193
:10082C004C4801684A4801404A4801600A994A48C4
:10083C000170059949480170059800F0040040B119
:10084C004748007800F01000C0B2002800D1F7E74C
:10085C0006E04348007800F01000C0B200B1F8E7A1
:10086C004048007800F0BF01C9B2069800F0FD00C6
:10087C0001433C480170079800F0E0013A480078C9
:10088C0000F01F00C0B2014337480170019937488E
:10089C0001700B99364801700F98022805D1314828
:1008AC00007840F002012F480170BDE0019800F083
:1008BC00800020B90B9800F0030000B166E02248DC
:1008CC00006840F40071204801602048016820480D
:1008DC0001404FE00000000000000C00000001008F
:1008EC0000001401220000002400000000000000A1
:1008FC0002000000460000000000000000000000A4
:10090C00000000000000000007000000C0D401003F
:10091C000E2005400020054008ED00E000F00740E7
:10092C0002D007403C80044010D0034000E0074058
:10093C0001E0074003E00740803801004480044098
:10094C000070044004800440388004404890044007
:10095C00FFF8FFFE4C900440084006400040064063
:10096C000640064001400640034006400050064049
:10097C000C4006407F480160069800F0040028B146
:10098C007D4801687D4801407B4801600A997C489C
:10099C0001707C48007800F0BF01C9B2069800F0E5
:1009AC00FD000143774801700199774801700B995C
:1009BC00764801700F98072805D1059840F0800102
:1009CC007348017002E0059971480170069800F0B7
:1009DC00040050B10B9800F0030030B96D4800785A
:1009EC0000F00200C0B200B9F8E7059800F004006E
:1009FC0040B16848007800F01000C0B2002800D167
:100A0C00F7E706E06348007800F01000C0B200B1D0
:100A1C00F8E7079800F0E0015F48007800F01F004D
:100A2C00C0B201435C480170089800F0BF015B48FC
:100A3C000170099800F0BF0159480170089800F046
:100A4C00400028B15548007840F0400153480170EF
:100A5C000F98052806D14B48007840F00201494810
:100A6C0001701CE00F98062803D00F98072800D0BF
:100A7C0015E04B48007840F040014948017045486A
:100A8C00007800F04000C0B200B9F8E70F980728D2
:100A9C0005D13F48007800F03F013D4801700F98A8
:100AAC0018B10F98032800D029E03A48007800F0DC
:100ABC000C00C0B200B1F8E73A48006840F0010100
:100ACC0038480160002138480160802137480160B6
:100ADC000521374801600121344801603348006822
:100AEC0000F0800000B9F9E70021304801602D4882
:100AFC0001686FF0010001402A4801602DE00F9859
:100B0C00012803D00F98022800D008E02148007873
:100B1C0000F00C00C0B2042800D0F7E71DE00F98DD
:100B2C00042806D00F98062803D00F98052800D06B
:100B3C0008E01848007800F00C00C0B2082800D07B
:100B4C00F7E70AE00F98072807D11248007800F061
:100B5C000C00C0B20C2800D0F7E7164801686FF003
:100B6C000F0001400C9800F00F0001431148016088
:100B7C0010B07047489004404C900440FFF8FFFEC2
:100B8C000840064001400640005006400C4006401C
:100B9C000040064006400640034006400440064024
:100BAC000540064038800440080004400000044022
:080BBC000400044048800440DD
:1005BC0081B002490248016001B07047C0D401000B
:0405CC000000FF1F0D
:08059C0081B0FEE701B07047D9
:1005A40081B072B60349086840F47000086062B60E
:0805B40001B0704788ED00E082
:100BC40000B5DFF810B0DFF810A0FFF7B1FC00BDEE
:0C0BD400704700BF0000FF1F0400FF1F5F
:100400000000000000000000FFFFFFFF02FDFFFFF3
:00000001FF
