:10000000FCFF0220E12C0000D92C0000D92C0000BC
:10001000D92C0000D92C0000D92C0000D92C0000CC
:10002000D92C0000D92C0000D92C0000D92C0000BC
:10003000D92C0000D92C0000D92C0000D92C0000AC
:10004000D92C0000D92C0000D92C0000D92C00009C
:10005000D92C0000D92C0000D92C0000D92C00008C
:10006000D92C0000D92C0000D92C0000D92C00007C
:10007000D92C0000D92C0000D92C0000D92C00006C
:10008000D92C0000D92C0000D92C0000D92C00005C
:10009000D92C0000D92C0000D92C0000D92C00004C
:1000A000D92C0000D92C0000D92C0000D92C00003C
:1000B000D92C0000D92C0000D92C0000D92C00002C
:1000C000D92C0000D92C0000D92C0000D92C00001C
:1000D000D92C0000D92C0000D92C0000D92C00000C
:1000E000D92C0000D92C0000D92C0000D92C0000FC
:1000F000D92C0000D92C0000D92C0000D92C0000EC
:10010000D92C0000D92C0000D92C0000D92C0000DB
:10011000D92C0000D92C0000D92C0000D92C0000CB
:10012000D92C0000D92C0000D92C0000D92C0000BB
:10013000D92C0000D92C0000D92C0000D92C0000AB
:10014000D92C0000D92C0000412C0000D92C000033
:10015000D92C0000D92C0000D92C0000D92C00008B
:10016000D92C0000D92C0000D92C0000D92C00007B
:10017000D92C0000D92C0000D92C0000D92C00006B
:10018000D92C0000D92C0000D92C0000D92C00005B
:08019000D92C0000D92C00005D
:102CE00081B000F077F8FFF79FFF05F049F800F09A
:102CF00015FB04F0F7FF002109B22D480180FEF713
:102D000029FF2C4800220021FFF790F84FF4000122
:102D10002948FEF71BFE294801B440F2200340F287
:102D2000000240F200014FF46130FFF71BFF01B0D9
:102D3000FFF710FF40F25200FFF73AFF20490878F2
:102D400040F020000870012149B21E48016041F6A0
:102D50007E27C0F2060700BF00BF7F1EFDD100BF67
:102D600000BF00BF012149B21748016041F2FE17C0
:102D7000C0F27A0700BF00BF7F1EFDD100BF00BFB9
:102D800000BF12480078B0F1FF0F0ED009E0012219
:102D900052B20F49087862F341000870FFF742F918
:102DA00003E00A4800780028F1D0EAE7FEE700BF18
:102DB0003400FF1F3033000040F00F40A47B0000C0
:102DC00003A00E405C09FE43DC08FE430000FF1F29
:042DD0000300FF1FDE
:0E2B540081B0EFF3108C604662B601B070479E
:102BB00081B0042806D11949096841F480321749C7
:102BC0000A6028E0052806D11449096841F400325A
:102BD00012490A601FE0062806D11049096841F42D
:102BE00080220E490A6016E00F2806D10C490968B8
:102BF00041F002020A490A600DE010280BD3A0F24E
:102C0000100461098A0007498B1804F01F024FF075
:102C100001019140196001B0704700BF24ED00E050
:082C200010E000E000E100E01B
:102B9C0081B01CF8019B0BF8019BBBEB0A0FF8D121
:042BAC0001B07047BD
:102B180081B04FF000094FF0000CBDEB0A0F04DC48
:102B2800BDEB0B0F01DBD446EA464BF8049BBBEB2D
:102B38000A0FFAD1BCEB0A0F05DDE246D9F800B05E
:0A2B48000BF1040BF1E701B0704738
:101B540081B0CDF800E00321A64801700021A64819
:101B640001604FF40051A548FFF7EEFE4FF4004129
:101B7400A348FFF7E9FE4FF04001A248FFF7E4FE57
:101B84004FF48011A048FFF7DFFEA04AA049A14806
:101B9400FFF776FF012149B29F4801609F48016029
:101BA4009F480160FFF782FFFFF78AFF002149B2D7
:101BB4009C480160FFF784FF012149B29948016004
:101BC400FFF77EFFFFF78AFF0121FD20FFF7F8FEF4
:101BD40008B102200AE100211220FFF7F1FE08B14A
:101BE400022003E10121FD20FFF7EAFE08B10220F3
:101BF400FCE00021B120FFF7E3FE08B10220F5E08C
:101C04000121AE20FFF7DCFE08B10220EEE0012145
:101C1400B320FFF7D5FE08B10220E7E00021F12050
:101C2400FFF7CEFE08B10220E0E00121CA20FFF751
:101C3400C7FE08B10220D9E000215F20FFF7C0FEF3
:101C440008B10220D2E00121A020FFF7B9FE08B1BB
:101C54000220CBE000216020FFF7B2FE08B1022091
:101C6400C4E001211520FFF7ABFE08B10220BDE05E
:101C740000210020FFF7A4FE08B10220B6E00021F5
:101C84005F20FFF79DFE08B10220AFE0012175201F
:101C9400FFF796FE08B10220A8E000210020FFF71C
:101CA4008FFE08B10220A1E000215F20FFF788FE2B
:101CB40008B102209AE00121A120FFF781FE08B1BA
:101CC400022093E000218020FFF77AFE08B1022071
:101CD4008CE00121A220FFF773FE08B1022085E009
:101CE40000216020FFF76CFE08B102207EE0012194
:101CF400B120FFF765FE08B1022077E00121322010
:101D0400FFF75EFE08B1022070E00121BE20FFF75C
:101D140057FE08B1022069E001210520FFF750FEBB
:101D240008B1022062E00121A620FFF749FE08B1B4
:101D340002205BE00121C120FFF742FE08B102202E
:101D440054E000218A20FFF73BFE08B102204DE059
:101D540000215120FFF734FE08B1022046E00021A3
:101D64008A20FFF72DFE08B102203FE00121C720A1
:101D7400FFF726FE08B1022038E00021CF20FFF74C
:101D84001FFE08B1022031E00121B420FFF718FE44
:101D940008B102202AE00021A020FFF711FE08B1BB
:101DA400022023E00021B520FFF70AFE08B102203B
:101DB4001CE000215520FFF703FE08B1022015E0C6
:101DC4000121B620FFF7FCFD08B102200EE000213E
:101DD4000120FFF7F5FD08B1022007E00121AF2043
:101DE400FFF7EEFD08B1022000E00020DDF800E07E
:101DF40001B070473E48FF1F4048FF1F80F00F406E
:101E0400C0F00F4000F10F4040F00F40387B00005D
:101E14000700008680A81201980A9442180B944285
:081E2400980B94421820FE43C4
:10194C0081B0CDF800E0034AFFF72CFDDDF800E094
:08195C0001B070470401040012
:1013B00081B0CDF800E0FFF727FEDDF800E001B0D6
:0213C000704774
:1010080083B0CDF800E006460C4615463046FFF79B
:10101800A5FE40F2FF1306EA0300800900262246D7
:101028002946202E39D24FF0010303FA06F402EACA
:1010380004031F46A3422ED104031A4B1C19B30004
:10104800E51801952C68184B04EA03032B60174B2D
:1010580001EA0304019B1B6843EA0404019B1C602A
:1010680001F48033B3F5803F15D08401104B1B1970
:101078001433029301F400333BB1FC43029B1B6819
:1010880003EA0404029B1C6005E0029B1B6843EA18
:101098000704029B1C60761CC3E7DDF800E003B080
:1010A800704700BF009004400000FFFFFFFF0000F2
:0410B80000F00F40F5
:100D640081B040F2FF1100EA01018909084600F24E
:100D740009024FF0010101FA02F20449096841EA4B
:100D8400020202490A6001B0704700BF3880044083
:000D94005F
:101A840081B0CDF800E003460C4615460648FFF742
:101A9400CDFD224619462B460348FFF74FFDDDF8DE
:0C1AA40000E001B0704700BF00C00A4025
:1016300081B00F49884206D10E4A0F490A600F4A0D
:101640000F490A6012E00F49884206D10E4A0A4942
:101650000A600E4A0A490A6008E00D49884205D12D
:101660000C4A05490A600C4A05490A6001B07047F6
:1016700000C00240FFFFFFFF6C48FF1FFFFFFFFF9E
:101680007048FF1F00D00240FFFFFFFFFFFFFFFF7A
:0C16900000C00A4021150000FFFFFFFF12
:1015400084B0CDF800E0039101461046019002916D
:101550001846FFF73BFE0299019800F01004240999
:101560002746019002910846FFF70CFE029902916E
:101570000846FFF713FD0299019800F000450C683A
:101580002C430C6000F080450C682C430C600C6808
:1015900044F440540C600D686FF4804405EA040480
:1015A0000C6001F20C05BC002E1900F00F05346828
:1015B0002C43346001F20C05BC002E1900F080654C
:1015C00034682C43346001F20C05BC002E1900F085
:1015D000007534682C43346001F20C05BC002E19F0
:1015E00000F0807534682C43346001F20C05BC00B7
:1015F0002E1935686FF0F04405EA0404346001F2F6
:101600000C05BC002E1900F00F04E50634682C43CD
:1016100034600191039A0846F9B2FFF721FC019961
:0E1620000846FFF7F9FDDDF800E004B0704762
:1011CC0081B0CDF800E040F2000C83464FEA8C0170
:1011DC000BEB01010968B1F1FF3F12D00BF13401A7
:1011EC004FEA8C03C91809680A460BEB030109681E
:1011FC0008461146FFF744FC0CF1010C1FFA8CFC5D
:0A120C00E4E7DDF800E001B07047F0
:100A8C0082B0CDF800E080464FEA581202F007021F
:100A9C00914608F01F04A24693010D4AD3184FF05B
:100AAC000102A240019218460A46019900F07AFC14
:100ABC004FEA0933074AD3184FEA8A029C1808F404
:100ACC00E06322681A432260DDF800E002B0704750
:080ADC0000F00F4000900440FF
:1011840081B00B49884203D1012252B209490A6055
:101194000949884203D1012252B208490A60084928
:1011A400884203D1012252B206490A6001B0704755
:1011B40000C00240B007904200D00240B407904201
:0811C40000C00A403006904211
:100F9C0081B002686FF4804102EA010101600168CE
:100FAC0041F00101016000F22C031A68124942EA77
:100FBC000101196000F208020021116000F20C021C
:100FCC004FF0F041116000F210024FF0F04111604F
:100FDC0000F230020021116000F234020021116095
:100FEC00016841F440610160026844F2010142EA87
:0C0FFC000101016001B0704700000A9A7A
:100E600091B0CDF800E00F9010468DF840100E9034
:100E700001AB1846FFF78EFF4FF0FF330D930023B1
:100E800006930023089301230A9300230B93002366
:100E90000593059B042B41D20D9B002B3ED00023D4
:100EA0000793079B102B35D20D9B002B32D00123CB
:100EB0000993099B032B29D20D9B3BB3099C029BF1
:100EC00003FB04F6059B9C00314B1B191D68079B17
:100ED0009C00304B1B191B686B43B6FBF3F4204698
:100EE0000E9BA3420ED30E9B1C1A0C940D9BA34287
:100EF00008D90C9B0D93059B0693079B08930B90B9
:100F0000099B0A93099B5B1C0993D2E7079B5B1C17
:100F10000793C6E7059B5B1C0593BAE70F9B03F29B
:100F20000C049DF840309B00E5182C681A4B04EA2D
:100F300003032B600F9B03F20C049DF840309B00D1
:100F4000E5180A9B5B1EDC072B6823432B600F9B75
:100F500003F20C049DF840309B00E518069B1B042F
:100F600003F440342B6823432B600F9B03F20C04E3
:100F70009DF840309B00E518089B03F00F042B6898
:100F800023432B600B98DDF800E011B0704700BFE1
:0C0F9000D07C00007C7C0000F0FFFC7FA7
:100D940081B0CDF800E00446FFF706FD40F2E831EB
:100DA40000FB01F3154909680A0F1449096801F0A9
:100DB4007061090EC8B21149096801F47001090D86
:100DC400CDB20E49096801F47021090CCEB2D1B23A
:100DD40003FA01F10F462360221D27FA00F1116086
:100DE40004F2080227FA05F1116004F20C0227FA52
:100DF40006F11160DDF800E001B070474480044062
:000E0400EE
:1007AC0081B00248006801B0704700BF4448FF1F89
:0007BC003D
:1012180081B002686FF0010102EA0101016001B0CA
:0212280070470D
:101AB00081B0002149B20248016001B0704700BF07
:041AC0003410FE439D
:101AC40081B049F63E47C0F2000700BF00BF7F1E49
:0C1AD400FDD100BF00BF00BF01B0704793
:101AE00081B0012149B20248016001B0704700BFD6
:041AF0003410FE436D
:1019C40081B0CDF800E021B100235BB20B4A136073
:1019D40003E001235BB2094A136000235BB2084AA7
:1019E4001360C0B2FFF79AFD01235BB2044A13608F
:1019F4000020DDF800E001B0704700BF3C18FE4352
:041A04005008FE4345
:1015200081B0CDF800E082B24FF080610348FFF750
:101530007DFEDDF800E001B0704700BF00C00A404A
:00154000AB
:10122C0081B000F22C04236843F00043236000F2E9
:10123C00340493B241EA0303236000F22C031C68CC
:0C124C00C4F3C07303B9F8E701B07047A9
:101E2C0082B0CDF800E05FFA81FA5FFA82FB0146DE
:101E3C008C1C2378D9B2641C23781B029BB2CB1860
:101E4C001FFA83FC641C2178C9B2631C1B781B022B
:101E5C009BB2CB189BB299B20AEB03039BB25B1EED
:101E6C009BB2602B0ED8BAF1000F0BD30BEB0C030B
:101E7C009BB25B1E9BB2602B04D8BBF1000F01D34D
:101E8C00002300E0012303B10BE001FB0CF4831DE4
:101E9C00ADF80410A2B219461148FFF737FDBDF892
:101EAC000410ADF804105FFA8CF3CAB25FFA8BF130
:101EBC005FFA8AF0FFF7DCFCBDF8041001FB0CF3B1
:101ECC009BB25B009BB299B20548FFF745FD08B188
:101EDC00022000E00020DDF800E002B0704700BFF7
:041EEC003600FF1F9E
:1019180081B093B20A4600211446024698B2814229
:101928000DD223781B021380631C1D461C78138874
:1019380023431380921C6B1C1C46491CEFE701B023
:021948007047E6
:10187C0081B0CDF800E000F21004E6B2CCB2E5B2D3
:10188C005FFA82F8DFB240F200090121152000F066
:10189C0093F849EA00095FFA89F90021F0B200F0E7
:1018AC008BF849EA00095FFA89F9A8F1010424B21E
:1018BC00341924B2002120B200F07EF849EA000964
:1018CC005FFA89F90121752000F076F849EA0009E0
:1018DC005FFA89F90021E8B200F06EF849EA0009D4
:1018EC005FFA89F97C1E24B22C1924B2002120B293
:1018FC0000F062F849EA0004E4B2002C00D100E0E8
:0A190C00C1E7DDF800E001B070470C
:1019640081B0CDF800E005460E4601215C2000F070
:1019740027F808B102201AE001235BB20E4A136073
:1019840000235BB20D4A13602846054630460346E1
:10199400421E164633B12A7890B2FFF7BFFD6D1C84
:1019A4003046F4E701235BB2044A13600020DDF8FB
:1019B40000E001B0704700BF3C18FE435008FE43EE
:0019C40023
:102B640081B0CDF800E09FB203468DB296B2DDF895
:102B740004800848FEF7DAFD4446AAB21946B3B207
:102B8400044810B480B4FEF7B3FF02B0DDF800E0EF
:082B940001B0704700A00E40E3
:1017300081B0304988420CD12F4A30490A60304A82
:1017400030490A60304A31490A60314A31490A60F9
:101750004EE0314988420CD1304A28490A60304A6B
:1017600028490A602F4A29490A602F4A29490A60F4
:101770003EE02E4988420CD12D4A20490A602D4A6C
:1017800020490A602C4A21490A602C4A21490A60F2
:101790002EE02B4988420CD12A4A18490A602A4A6D
:1017A00018490A60294A19490A60294A19490A60F0
:1017B0001EE0284988420CD1274A10490A60274A6E
:1017C00010490A60264A11490A60264A11490A60EE
:1017D0000EE0254988420BD1244A08490A60244A70
:1017E00008490A60234A09490A60234A09490A60EC
:1017F00001B0704700A00640FFFFFFFF7448FF1FC5
:10180000FFFFFFFF7848FF1FFFFFFFFF7C48FF1F20
:10181000FFFFFFFF8048FF1F00B00640FFFFFFFFF4
:10182000FFFFFFFFFFFFFFFFFFFFFFFF00C00640BE
:10183000FFFFFFFFFFFFFFFFFFFFFFFFFFFFFFFFB8
:1018400000D00640FFFFFFFFFFFFFFFFFFFFFFFF8E
:10185000FFFFFFFF00A00E40FFFFFFFFFFFFFFFFA6
:10186000FFFFFFFFFFFFFFFF00B00E40FFFFFFFF86
:0C187000FFFFFFFFFFFFFFFFFFFFFFFF78
:101AF40085B0CDF800E001900291ADF80C20ADF86E
:101B04001030BDF81440ADF814400698FFF75CFBA4
:101B14000198FFF7C1FD02990198FFF79DFCBDF8FC
:101B24000C100198FFF788FCBDF810100198FFF71E
:101B340061FCBDF814100198FFF778FC0198FFF7D9
:101B440051FC0198FFF73CFCDDF800E005B070475C
:001B540091
:10169C0081B01849884204D1012252B216490A601D
:1016AC0026E01649884204D1012252B214490A603C
:1016BC001EE01449884204D1012252B212490A6038
:1016CC0016E01249884204D1012252B210490A6034
:1016DC000EE01049884204D1012252B20E490A6030
:1016EC0006E00E49884203D1012252B20C490A602D
:1016FC0001B0704700A00640A806904200B006401A
:10170C00AC06904200C00640B006904200D00640A5
:10171C00B406904200A00E402805904200B00E4046
:04172C002C059042B6
:10145C0085B0CDF800E08046894601AA1046FFF71A
:10146C0093FC164A904503D0154A904500D001E0F4
:10147C00019800E002984FEA0912B0FBF2F291B227
:10148C0092B2130A9BB298F800201A4388F80020F5
:10149C0008F10103CAB21A7043014FEA0912B3FBF7
:1014AC00F2F34A0192B29A1AD0B208F10A031A78EE
:1014BC0002431A70DDF800E005B0704700A006404A
:0414CC0000B0064026
:10143C0081B0841C23784FF6EF7212B203EA0202D9
:10144C002270841C0B0122781A43227001B0704761
:00145C0090
:1013F80081B001F0020262B1841C01F0020322787C
:101408001A432270841C01F0010322781A432270C7
:1014180007E0841C23784FF6FD7212B203EA020239
:06142800227001B07047C4
:0C14300081B002780A43027001B07047DE
:1013E80081B0C21C117841F00401117001B070473E
:0013F800F5
:1013C40081B0C21C117841F00801117001B070475E
:0013D40019
:1020240081B0CDF800E040F22C1109B2DC20FFF7BA
:10203400E9FC012801D100F069BD4BF23E77C0F202
:10204400B70700BF00BF7F1EFDD100BF00BF00BFA8
:1020540040F22C1109B2DC20FFF7D4FC012801D195
:1020640000F054BD4BF23E77C0F2B70700BF00BF8B
:102074007F1EFDD100BF00BF00BF40F22C1109B28A
:10208400DC20FFF7BFFC012801D100F03FBD4BF27B
:102094003E77C0F2B70700BF00BF7F1EFDD100BF6F
:1020A40000BF00BFE12109B2AE20FFF7ABFC01285D
:1020B40001D100F02BBD4FF27E07C0F2890700BFAB
:1020C40000BF7F1EFDD100BF00BF00BF4B2109B27E
:1020D40040F20510FFF796FC012801D100F016BD6F
:1020E40046F2FE27C0F22E0700BF00BF7F1EFDD1BF
:1020F40000BF00BF00BF40F22C1109B2DC20FFF783
:1021040081FC012801D100F001BD4BF23E77C0F201
:10211400B70700BF00BF7F1EFDD100BF00BF00BFD7
:10212400E12109B2AE20FFF76DFC012801D100F0D6
:10213400EDBC4FF27E07C0F2890700BF00BF7F1ECF
:10214400FDD100BF00BF00BF4B2109B240F2051012
:10215400FFF758FC012801D100F0D8BC46F2FE2755
:10216400C0F22E0700BF00BF7F1EFDD100BF00BF1D
:1021740000BF40F2582109B2DC20FFF743FC0128DC
:1021840001D100F0C3BC4DF23E27C0F26E1700BF70
:1021940000BF7F1EFDD100BF00BF00BF40F22C1165
:1021A40009B240F24910FFF72DFC012801D100F0DB
:1021B400ADBC4BF23E77C0F2B70700BF00BF7F1E35
:1021C400FDD100BF00BF00BF40F22C1109B240F2A4
:1021D4004910FFF717FC012801D100F097BC4BF21E
:1021E4003E77C0F2B70700BF00BF7F1EFDD100BF1E
:1021F40000BF00BF40F22C1109B240F24910FFF7B2
:1022040001FC012801D100F081BC4BF23E77C0F201
:10221400B70700BF00BF7F1EFDD100BF00BF00BFD6
:10222400E12109B240F25D10FFF7ECFB012801D176
:1022340000F06CBC4FF27E07C0F2890700BF00BFFC
:102244007F1EFDD100BF00BF00BF4B2109B240F289
:102254000510FFF7D7FB012801D100F057BC46F267
:10226400FE27C0F22E0700BF00BF7F1EFDD100BFB6
:1022740000BF00BF40F22C1109B2CF20FFF7C2FB10
:10228400012801D100F042BC4BF23E77C0F2B707FF
:1022940000BF00BF7F1EFDD100BF00BF00BFE12112
:1022A40009B2AE20FFF7AEFB012801D100F02EBC2D
:1022B4004FF27E07C0F2890700BF00BF7F1EFDD129
:1022C40000BF00BF00BF4B2109B240F20510FFF769
:1022D40099FB012801D100F019BC46F2FE27C0F297
:1022E4002E0700BF00BF7F1EFDD100BF00BF00BF8F
:1022F40040F2582109B2DC20FFF784FB012801D108
:1023040000F004BC4DF23E27C0F26E1700BF00BFC0
:102314007F1EFDD100BF00BF00BF40F22C1109B2E7
:1023240040F2B810FFF76EFB012801D100F0EEBBBC
:102334004BF23E77C0F2B70700BF00BF7F1EFDD14E
:1023440000BF00BF00BFE12109B2DC20FFF75AFB48
:10235400012801D100F0DABB4FF27E07C0F28907F1
:1023640000BF00BF7F1EFDD100BF00BF00BF4B21D7
:1023740009B2DC20FFF746FB012801D100F0C6BBFF
:1023840046F2FE27C0F22E0700BF00BF7F1EFDD11C
:1023940000BF00BF00BF40F22C1109B240F2B810D8
:1023A400FFF730FB012801D100F0B0BB4BF23E77C0
:1023B400C0F2B70700BF00BF7F1EFDD100BF00BF42
:1023C40000BFE12109B240F29F10FFF71BFB012877
:1023D40001D100F09BBB4FF27E07C0F2890700BF1A
:1023E40000BF7F1EFDD100BF00BF00BF4B2109B25B
:1023F40040F28810FFF706FB012801D100F086BBEC
:1024040046F2FE27C0F22E0700BF00BF7F1EFDD19B
:1024140000BF00BF00BF4B2109B240F27110FFF7AB
:10242400F1FA012801D100F071BB46F2FE27C0F297
:102434002E0700BF00BF7F1EFDD100BF00BF00BF3D
:102444004B2109B240F24910FFF7DCFA012800D110
:102454005CE346F2FE27C0F22E0700BF00BF7F1EDA
:10246400FDD100BF00BF00BF962109B240F25D104C
:10247400FFF7C8FA012800D148E342F6BE17C0F2BC
:102484005C0700BF00BF7F1EFDD100BF00BF00BFBF
:1024940042F6BE17C0F25C0700BF00BF7F1EFDD12D
:1024A40000BF00BF00BF962109B2E920FFF7AAFAD6
:1024B400012800D12AE342F6BE17C0F25C0700BF30
:1024C40000BF7F1EFDD100BF00BF00BF40F22C1132
:1024D40009B240F23710FFF795FA012800D115E34D
:1024E4004BF23E77C0F2B70700BF00BF7F1EFDD19D
:1024F40000BF00BF00BFE12109B240F22510FFF781
:1025040081FA012800D101E34FF27E07C0F2890766
:1025140000BF00BF7F1EFDD100BF00BF00BF4B2125
:1025240009B240F21510FFF76DFA012800D1EDE26F
:1025340046F2FE27C0F22E0700BF00BF7F1EFDD16A
:1025440000BF00BF00BF4B2109B240F20510FFF7E6
:1025540059FA012800D1D9E246F2FE27C0F22E072B
:1025640000BF00BF7F1EFDD100BF00BF00BF4B21D5
:1025740009B2F620FFF746FA012800D1C6E246F276
:10258400FE27C0F22E0700BF00BF7F1EFDD100BF93
:1025940000BF00BF962109B240F20510FFF732FADE
:1025A400012800D1B2E242F6BE17C0F25C0700BFB8
:1025B40000BF7F1EFDD100BF00BF00BF42F6BE17A3
:1025C400C0F25C0700BF00BF7F1EFDD100BF00BF8B
:1025D40000BF962109B2AE20FFF714FA012800D1FA
:1025E40094E242F6BE17C0F25C0700BF00BF7F1E34
:1025F400FDD100BF00BF00BF40F22C1109B2CF20B3
:10260400FFF700FA012800D180E24BF23E77C0F2D6
:10261400B70700BF00BF7F1EFDD100BF00BF00BFD2
:10262400E12109B2AE20FFF7EDF9012800D16DE2F6
:102634004FF27E07C0F2890700BF00BF7F1EFDD1A5
:1026440000BF00BF00BF4B2109B2DC20FFF7DAF95D
:10265400012800D15AE246F2FE27C0F22E0700BF3D
:1026640000BF7F1EFDD100BF00BF00BF40F22C1190
:1026740009B240F20510FFF7C5F9012800D145E27F
:102684004BF23E77C0F2B70700BF00BF7F1EFDD1FB
:1026940000BF00BF00BFE12109B2DC20FFF7B2F99F
:1026A400012800D132E24FF27E07C0F2890700BF51
:1026B40000BF7F1EFDD100BF00BF00BF4B2109B288
:1026C40040F20510FFF79EF9012800D11EE246F200
:1026D400FE27C0F22E0700BF00BF7F1EFDD100BF42
:1026E40000BF00BF40F2582109B240F24910FFF781
:1026F40089F9012800D109E24DF23E27C0F26E1794
:1027040000BF00BF7F1EFDD100BF00BF00BF40F26D
:102714002C1109B240F2B810FFF774F9012800D166
:10272400F4E14BF23E77C0F2B70700BF00BF7F1E53
:10273400FDD100BF00BF00BFE12109B2DC20FFF7DB
:1027440061F9012800D1E1E14FF27E07C0F2890767
:1027540000BF00BF7F1EFDD100BF00BF00BF4B21E3
:1027640009B2DC20FFF74EF9012800D1CEE146F290
:10277400FE27C0F22E0700BF00BF7F1EFDD100BFA1
:1027840000BF00BF40F22C1109B240F2B810FFF7AD
:1027940039F9012800D1B9E14BF23E77C0F2B7070D
:1027A40000BF00BF7F1EFDD100BF00BF00BFE121FD
:1027B40009B240F29F10FFF725F9012800D1A5E1E5
:1027C4004FF27E07C0F2890700BF00BF7F1EFDD114
:1027D40000BF00BF00BF4B2109B240F28810FFF7D1
:1027E40011F9012800D191E146F2FE27C0F22E072B
:1027F40000BF00BF7F1EFDD100BF00BF00BF4B2143
:1028040009B240F27110FFF7FDF8012800D17DE113
:1028140046F2FE27C0F22E0700BF00BF7F1EFDD187
:1028240000BF00BF00BF4B2109B240F24910FFF7BF
:10283400E9F8012800D169E146F2FE27C0F22E072B
:1028440000BF00BF7F1EFDD100BF00BF00BF9621A7
:1028540009B240F25D10FFF7D5F8012800D155E127
:1028640042F6BE17C0F25C0700BF00BF7F1EFDD159
:1028740000BF00BF00BF42F6BE17C0F25C0700BF36
:1028840000BF7F1EFDD100BF00BF00BF962109B26B
:10289400E920FFF7B7F8012800D137E142F6BE1767
:1028A400C0F25C0700BF00BF7F1EFDD100BF00BFA8
:1028B40000BF40F22C1109B240F23710FFF7A2F822
:1028C400012800D122E14BF23E77C0F2B70700BFE6
:1028D40000BF7F1EFDD100BF00BF00BFE12109B2D0
:1028E40040F22510FFF78EF8012800D10EE14FF2D7
:1028F4007E07C0F2890700BF00BF7F1EFDD100BF65
:1029040000BF00BF4B2109B240F21510FFF77AF85F
:10291400012800D1FAE046F2FE27C0F22E0700BFDC
:1029240000BF7F1EFDD100BF00BF00BF4B2109B215
:1029340040F20510FFF766F8012800D1E6E046F200
:10294400FE27C0F22E0700BF00BF7F1EFDD100BFCF
:1029540000BF00BF4B2109B2F620FFF753F801284E
:1029640000D1D3E046F2FE27C0F22E0700BF00BF1D
:102974007F1EFDD100BF00BF00BF962109B240F207
:102984000510FFF73FF8012800D1BFE042F6BE175B
:10299400C0F25C0700BF00BF7F1EFDD100BF00BFB7
:1029A40000BF42F6BE17C0F25C0700BF00BF7F1E27
:1029B400FDD100BF00BF00BF962109B2AE20FFF7D2
:1029C40021F8012800D1A1E042F6BE17C0F25C074D
:1029D40000BF00BF7F1EFDD100BF00BF00BF40F29B
:1029E4002C1109B2CF20FFF70DF8012800D18DE09A
:1029F4004BF23E77C0F2B70700BF00BF7F1EFDD188
:102A040000BF00BF00BFE12109B2AE20FEF7FAFF0C
:102A1400012800D17AE04FF27E07C0F2890700BF97
:102A240000BF7F1EFDD100BF00BF00BF4B2109B214
:102A340040F20510FEF7E6FF012800D166E046F2F9
:102A4400FE27C0F22E0700BF00BF7F1EFDD100BFCE
:102A540000BF00BF40F22C1109B2DC20FEF7D2FF08
:102A6400012800D152E04BF23E77C0F2B70700BF15
:102A740000BF7F1EFDD100BF00BF00BFE12109B22E
:102A8400AE20FEF7BFFF012800D13FE04FF27E07E2
:102A9400C0F2890700BF00BF7F1EFDD100BF00BF89
:102AA40000BF4B2109B240F20510FEF7ABFF01282D
:102AB40000D12BE046F2FE27C0F22E0700BF00BF74
:102AC4007F1EFDD100BF00BF00BF40F2582109B2F4
:102AD400DC20FEF797FF012800D117E04DF23E27D6
:102AE400C0F26E1700BF00BF7F1EFDD100BF00BF44
:102AF40000BF46F6FE37C0F2DC2700BF00BF7F1ED2
:102B0400FDD100BF00BF00BFFFF78DBADDF800E0C4
:042B140001B0704755
:101A080083B0CDF800E0ADF8081040F20002ADF860
:101A18000420184B0122022180B2FFF755FD012254
:101A280000210520FFF7D2FC002000B2BDF90820F4
:101A3800904215DA104A1278C2F300020AB1012066
:101A480013E049F63E47C0F2000700BF00BF7F1E03
:101A5800FDD100BF00BF00BF421C11B208B2E5E7CC
:101A68000120FFF74DFDBDF90400DDF800E003B0EB
:0C1A7800704700BF107C00000300FF1F3F
:1014D00084B0CDF800E0ADF80400ADF80810ADF828
:1014E0000C201846FFF772FEBDF80C30BDF808203E
:1014F0000021BDF80400FFF7AFFEBDF80400DDF8E1
:0615000000E004B070479A
:1012580083B0CDF800E01FFA81FB02F00705404C8F
:10126800257001253F4C25703F4C206032253F4CAE
:10127800256000253E4C25803E4C246844F4785572
:101288003C4C256024E03C4D3C4C25603C4D3D4C9D
:10129800256029E0384D394C25603B4D394C256097
:1012A80022E0354D354C2560384D364C25601BE025
:1012B800314D324C2560334C2568354C2543314C33
:1012C8002560344C246844F00075324C25600BE0EE
:1012D800BBF1000FD7D0BBF1010FDBD0BBF1020F80
:1012E800DFD0BBF1030FE3D000248DF804400024C5
:1012F8008DF8054000248DF80640002402948024CF
:10130800029410E02448FFF721FC19E02348FFF776
:101318001DFC15E02248FFF719FC11E02148FFF7F2
:1013280015FC0DE00CE0BBF1000FEBD0BBF1010F99
:10133800ECD0BBF1020FEDD0BBF1030FEED0F1E71B
:1013480001AC21461FFA8BF0FFF7D2FB01220121E5
:101358005FFA8BF0FFF7ECFCDDF800E003B07047B4
:101368005848FF1F5948FF1F5C48FF1F6048FF1F70
:101378006448FF1F388004401090088000700440C3
:10138800010000613C80044001000062010000642B
:10139800010000603080044000800340009003405A
:0813A80000A0034000900B407F
:100B540081B003460E490B60002119809A1C0021C4
:100B640011801A1D002111809A1D04211180042076
:100B740027280AD241005A180021118041005A182E
:100B840003490A60401C80B2F2E701B0704700BF1D
:040B94006848FF1F8F
:100AF80081B0CDF800E089468300134AD218126805
:100B080092461046FFF7CEFE09F10402126811461C
:100B18005046FFF74FFE99F80020D1B25046FFF734
:100B28002DFE09F102021278D1B25046FFF7F6FD08
:100B380009F101021278D1B25046FFF703FE0020F6
:0C0B4800DDF800E001B070470400FF1F62
:1008AC0081B0CDF800E0054601212846FFF710FE87
:1008BC0000212846FFF7FCFDDDF800E001B0704791
:0008CC002C
:1004DC0081B000F25404CBB2226863F300022260B4
:0404EC0001B07047A4
:1004BC0081B003686FF0070203EA02020260CAB25D
:0E04CC0002F0070302681A43026001B0704795
:1007BC0081B0CDF800E005460E4601212846FFF732
:1007CC006DFE01212846FFF7A1FE01212846FFF707
:1007DC0093FE01212846FFF785FE01212846FFF7ED
:1007EC0035FE40F200082F46B8F1040F08D2012262
:1007FC005FFA88F13846FFF70FFE08F10108F3E7BE
:10080C0006F080029AB101213846FFF7FBFD012169
:10081C003846FFF739FE01213846FFF72BFE012140
:10082C003846FFF71DFE01213846FFF779FE06F02A
:10083C0070028AB301213846FFF738FF0121384690
:10084C00FFF72AFF01213846FFF71CFF012138462C
:10085C00FFF758FF01213846FFF74AFF06F0100258
:10086C0032B107F258040123226863F304122260A8
:10087C0006F0200232B107F258040123226863F318
:10088C000412226006F0400232B107F25804012330
:10089C00226863F304122260DDF800E001B07047B7
:0008AC004C
:1004A80081B000F28C04CBB2226863F3C7122260D9
:0404B80001B07047D8
:1005180081B000F28C04CBB2226863F382022260BD
:0405280001B0704767
:1005040081B000F28C04CBB2226863F3041222603F
:0405140001B070477B
:1004F00081B000F28C04CBB2226863F34512226013
:0405000001B070478F
:1004580081B000F25804CBB2226863F3C302226071
:0404680001B0704728
:1004240081B052B100F26405CC004FF0200303FA0E
:1004340004F42B6823432B6009E000F26405CC002C
:100444004FF02003A340DC432B6823402B6001B012
:020454007047EF
:1004100081B000F28C04CBB2226863F30822226020
:0404200001B0704770
:1004940081B000F28C04CBB2226863F3492222605B
:0404A40001B07047EC
:1004800081B000F28C04CBB2226863F3CB222260ED
:0404900001B0704700
:10046C0081B000F28C04CBB2226863F30C322260B0
:04047C0001B0704714
:10052C0081B000F28C04CBB2226863F38A22226081
:04053C0001B0704753
:1006B80081B000F28C04CBB2226863F3104222604E
:0406C80001B07047C6
:1006A40081B000F28C04CBB2226863F35142226021
:0406B40001B07047DA
:1006900081B000F28C04CBB2226863F3D3422260B3
:0406A00001B07047EE
:1007100081B000F28C04CBB2226863F314522260E1
:0407200001B070476D
:1006FC0081B000F28C04CBB2226863F39242226088
:04070C0001B0704781
:1007840081B000F2840423686FF01F0203EA0202BE
:10079400226000F28404CAB202F01F0322681A43E2
:0607A400226001B0704765
:1007240081B039B100F274040123226863F38612A4
:10073400226006E000F254040123226863F382027B
:06074400226001B07047C5
:10074C0081B000F2840423686FF0C00203EA020255
:10075C00226000F284048A0192B202F0C003226883
:08076C001A43226001B070473E
:100D380081B0CDF800E0CDB28400064B1B191B68CA
:100D4800D1B21846FFF7B6FB034B1D70DDF800E083
:0C0D580001B070470400FF1F0100FF1FE6
:1013D40081B0CDF800E00023FFF76EFEDDF800E0F9
:0413E40001B070479D
:1010BC0082B0CDF800E0ADF804308BB281B2BDF84F
:1010CC00040013B1254C216004E0C1F16405ADB2FC
:1010DC00224C2560ADF80400D2B22149FFF756FD31
:1010EC00BDF8040085001F4C64192468ADF8040099
:1010FC0001212046FFF7F0FCBDF8040020E01A4C5B
:10110C0025686FF001042540174C256021E0174C31
:10111C0025686FF001042540144C256019E0144C2F
:10112C0025686FF001042540114C256011E0114C2D
:10113C0025686FF0010425400E4C256009E008E09D
:10114C000028DCD00128E2D00228E8D00328EED019
:10115C00F5E7DDF800E002B0704700BF6048FF1F04
:10116C005848FF1F0400FF1F548003405490034055
:08117C0054A0034054900B4005
:100B980084B0CDF800E08C465FFA82FA8400624B9C
:100BA8001B191B689B4601901846FFF7DFFD5FFA8B
:100BB8008AF261465846FFF785FE01985B4B1B7821
:100BC8000BB90120ACE0C0B2FFF726FF06460021B2
:100BD8005846FFF7CFFE634603938EE00CF10403FB
:100BE8001B685B00B6FBF3F35D1EAEB20CF10803A5
:100BF8001C68ABB25C436423B4FBF3F398B2ACB2A9
:100C08009BB2A34203D3731C98B285B200E085B2AD
:100C1800B1B25846FFF7C4FEAAB25FFA8AF1584645
:100C2800FFF7D4FE75E00CF104031B689B00B6FBCC
:100C3800F3F5AEB20CF108031C68ABB25C43642355
:100C4800B4FBF3F398B2ACB29BB2A34203D3701CCB
:100C580080B285B200E085B2B1B25846FFF7A0FE77
:100C6800AAB25FFA8AF15846FFF7B0FE51E00CF1DC
:100C780004031B685B00B6FBF3F35E1EB7B20CF10E
:100C880008031C68B3B25C436423B4FBF3F5A8B251
:100C98000CF10C031C88B3B25C43A4B26423B4FB0C
:100CA800F3F31FFA83F8B4B2ABB2A34202D37E1CAB
:100CB800B6B200E086B2B9B25846FFF771FE5FFAE5
:100CC8008AF0FFF7FFFC43001FFA88F2D9B25846B2
:100CD800FFF77CFE06EB0803ADF808305FFA8AF0F0
:100CE800FFF7F0FC43005C1CBDF808309AB2E1B293
:100CF8005846FFF76BFE0CE00BE0039C2378022BB1
:100D08003FF46CAF2378032B8DD02378042BAED01F
:100D1800F2E7064B1B78D9B25846FFF76DFE002064
:100D2800DDF800E004B070470400FF1F0100FF1F5A
:000D3800BB
:1007740081B00022016862F3C711016001B07047C3
:0007840075
:1008CC0082B0CDF800E006468946D7B2F8B2FFF701
:1008DC00F7FE5FFA80F80022C1B23046FFF776FED1
:1008EC0009F101031B7813B1012040B201E0022091
:1008FC0040B2C2B2F9B23046FFF736FE4B46019316
:10090C0026E000225FFA88F13046FFF713FE002143
:10091C003046FFF7AFFE0222F9B23046FFF778FE01
:10092C0021E000225FFA88F13046FFF703FE012137
:10093C003046FFF79FFE16E000213046FFF79AFE87
:10094C0001225FFA88F13046FFF7F4FD0BE00AE074
:10095C00019C2378022BD4D02378032BE1D023786D
:0E096C00042BE9D0F3E7DDF800E002B070479D
:1006CC0081B010B1012800D001E000200EE002281A
:1006DC0002D0032800D001E0012007E0042802D05A
:1006EC00052800D001E0022000E0032001B0704793
:0006FC00FE
:1005D80081B052B100F26405CC004FF0040303FA75
:1005E80004F42B6823432B6009E000F26405CC0077
:1005F8004FF00403A340DC432B6823402B6001B079
:02060800704739
:1005740081B002F00103DBB243B100F20C04CB0002
:10058400E418236843F00403236009E000F20C0438
:10059400CB00E5182C686FF0040304EA03032B6016
:1005A40002F00203DBB243B100F20C04CB00E41806
:1005B400236843F00803236009E000F20C04CB0035
:1005C400E5182C686FF0080304EA03032B6001B0FC
:0205D40070476E
:1005400081B052B100F26405CC004FF0010303FA10
:1005500004F42B6823432B6009E000F26405CC000F
:100560004FF00103A340DC432B6823402B6001B014
:020570007047D2
:1006800081B0CBB2026863F34512026001B07047DB
:000690006A
:10061C0081B002F00103DBB243B100F20C04CB0059
:10062C00E418236843F01003236009E000F20C0483
:10063C00CB00E5182C686FF0100304EA03032B6061
:10064C0002F00203DBB243B100F20C04CB00E4185D
:10065C00236843F02003236009E000F20C04CB0074
:10066C00E5182C686FF0200304EA03032B6001B03B
:02067C007047C5
:100A200081B0CDF800E04FF000038200144989182E
:100A30000868FFF7EBFD012109B281405FFA81F8F8
:100A40000DE0184618E0184616E00E4800F0A2F92E
:100A50000C490968B1FBF8F00EE018460CE00A49B1
:100A600009780329EDD0084909780229EBD0064915
:100A700009780129E9D0F0E7DDF800E001B070471E
:0C0A80000400FF1F4848FF1F0100FF1F7B
:0E060C0081B0016801F00701C8B201B070476B
:10097C0081B000F24C042368064A03EA02022260AA
:10098C0000F24C04044A01EA020322681A43226072
:0C099C0001B070470000FFFFFFFF0000EB
:1009A80081B000F208042368064A03EA02022260C2
:1009B80000F20804044A01EA020322681A4322608A
:0C09C80001B070470000FFFFFFFF0000BF
:1009D40081B000F20C04CB00E3181D1D2C68054BFC
:1009E4001C40054B02EA030344EA03032B6001B0F5
:0C09F400704700BF0000FFFFFFFF000085
:100A000081B003686FF0180203EA02020260CA00B4
:100A100092B202F0180302681A43026001B07047F4
:000A2000D6
:100AE40081B000F25804CBB2226863F3C7122260CB
:040AF40001B0704796
:1015080081B0CDF800E0C2B200210020FFF776FCE0
:08151800DDF800E001B07047AE
:100E040081B0CDF800E0D6B28400134B1B191B68E7
:100E14001F46F0B2FFF758FC5FFA80F80022F1B2E7
:100E24003846FFF7D5FD0022F1B23846FFF7A0FBA4
:100E34000022F1B23846FFF7EFFB00213846FFF7F6
:100E44001DFC00225FFA88F13846FFF777FBDDF8D6
:0C0E540000E001B0704700BF0400FF1F69
:102DD40090B072B697480190974802909748039034
:102DE400974804909748059097480690974807900D
:102DF400974808909748099097480A9097480B90ED
:102E040097480C90974998480D9098480E900D98C3
:102E140000F007000F9001F0010050B94CF220506F
:102E2400934908804DF62810088040F2D211914849
:102E340001800021904801609048007800F0010072
:102E4400C0B258B18E48007800F00800C0B220B17A
:102E54008B49087840F00800087021E08948006830
:102E640040F00051874801608748006800F4807092
:102E7400B0B9854801686FF4705001EA000040F46D
:102E84004071814801608048006840F480717E4848
:102E940001607D4801686FF4007001407A48016068
:102EA400AA217A4801700D9800F0100058B97848AA
:102EB400007800F09F017648017076480078012878
:102EC40000D0FAE71BE00D9800F01000B8B10E999D
:102ED4007148814208D960216D4801706D480078BD
:102EE400802800D0FAE70AE06948007800F09F01E2
:102EF4006748017067480078012800D0FAE7049910
:102F040066480160664801686FF4402001400298F9
:102F140000F44020014362480160624801686FF494
:102F240040300140039800F4403001435D480160A3
:102F34000F9830B10F98012803D00F98022800D0C1
:102F440064E0019800F0800050B9089800F0400057
:102F540028B10B9800F00300002800D100E015E030
:102F64005148006840F400714F4801604F480168BF
:102F74004F4801404D480160069800F0040028B114
:102F84004C4801684A4801404A4801600A994A4845
:102F94000170059949480170059800F0040040B19A
:102FA4004748007800F01000C0B2002800D1F7E7CD
:102FB40006E04348007800F01000C0B200B1F8E722
:102FC4004048007800F0BF01C9B2069800F0FD0047
:102FD40001433C480170079800F0E0013A4800784A
:102FE40000F01F00C0B2014337480170019937480F
:102FF40001700B99364801700F98022805D13148A9
:10300400007840F002012F480170BDE0019800F003
:10301400800020B90B9800F0030000B166E022485C
:10302400006840F40071204801602048016820488D
:1030340001404FE00000000000000C00000001000F
:103044000000140122000000240000000000000021
:103054000200000046000000000000000000000024
:10306400000000000000000007000000C0D40100C0
:103074000E2005400020054008ED00E000F0074068
:1030840002D007403C80044010D0034000E00740D9
:1030940001E0074003E00740803801004480044019
:1030A4000070044004800440388004404890044088
:1030B400FFF8FFFE4C9004400840064000400640E4
:1030C40006400640014006400340064000500640CA
:1030D4000C4006407F480160069800F0040028B1C7
:1030E4007D4801687D4801407B4801600A997C481D
:1030F40001707C48007800F0BF01C9B2069800F066
:10310400FD000143774801700199774801700B99DC
:10311400764801700F98072805D1059840F0800182
:103124007348017002E0059971480170069800F037
:10313400040050B10B9800F0030030B96D480078DA
:1031440000F00200C0B200B9F8E7059800F00400EE
:1031540040B16848007800F01000C0B2002800D1E7
:10316400F7E706E06348007800F01000C0B200B151
:10317400F8E7079800F0E0015F48007800F01F00CE
:10318400C0B201435C480170089800F0BF015B487D
:103194000170099800F0BF0159480170089800F0C7
:1031A400400028B15548007840F040015348017070
:1031B4000F98052806D14B48007840F00201494891
:1031C40001701CE00F98062803D00F98072800D040
:1031D40015E04B48007840F04001494801704548EB
:1031E400007800F04000C0B200B9F8E70F98072853
:1031F40005D13F48007800F03F013D4801700F9829
:1032040018B10F98032800D029E03A48007800F05C
:103214000C00C0B200B1F8E73A48006840F0010180
:103224003848016000213848016080213748016036
:1032340005213748016001213448016033480068A2
:1032440000F0800000B9F9E70021304801602D4802
:1032540001686FF0010001402A4801602DE00F98D9
:10326400012803D00F98022800D008E021480078F4
:1032740000F00C00C0B2042800D0F7E71DE00F985E
:10328400042806D00F98062803D00F98052800D0EC
:1032940008E01848007800F00C00C0B2082800D0FC
:1032A400F7E70AE00F98072807D11248007800F0E2
:1032B4000C00C0B20C2800D0F7E7164801686FF084
:1032C4000F0001400C9800F00F0001431148016009
:1032D40010B07047489004404C900440FFF8FFFE43
:1032E4000840064001400640005006400C4006409D
:1032F40000400640064006400340064004400640A5
:1033040005400640388004400800044000000440A2
:0833140004000440488004405D
:10331C0081B002490248016001B07047C0D401007D
:04332C004448FF1FF3
:082CD80081B0FEE701B0704776
:102C280081B072B60349086840F47000086062B663
:082C380001B0704788ED00E0D7
:107CE40000B5DFF824B0DFF824A0DFF824C0FAF7E9
:107CF40053FFDFF820B0DFF820A0DFF820C0FAF748
:107D04004BFF00BD704700BF0000FF1F0300FF1FB3
:107D1400E07C00000400FF1F1800FF1FBC7C000073
:007D24005F
:107D800000B5DFF810B0DFF810A0FAF7C5FE00BDAF
:0C7D9000704700BF0000FF1F8448FF1F69
:102C400081B0CDF800E01D4800781D4801781D488E
:102C500000680170FFF74CF91B48B0F9000000282C
:102C600022D01A480078B0F1FF0F1DD018E01848A4
:102C70000078C0F3400090B1164A1078C0F300000D
:102C800080F00101107861F3000010700E48B0F977
:102C90000000322803D1012109B20B48018003E072
:102CA0000A4800780028E2D00749B1F90000401C2A
:102CB0000880DDF800E001B0704700BF04A00E40BE
:102CC00007A00E401400FF1F3400FF1F0000FF1F6D
:082CD0000300FF1F0300FF1FBA
:101EF00081B071E043480078552807D142490878FD
:101F0000401C087041490868401C086078E03D4862
:101F1000007855280BD13E48007800F0FE00C0B292
:101F2000AA2804D13B480078172800D806E00021F1
:101F30003548017033493548016010E0334908687D
:101F4000401C08603348007818B905212E480170FC
:101F500005E000213048017004212B4801704FE05A
:101F60002D490878421CD2B20A7028490868401CE2
:101F7000086028480078904202D10521224801706B
:101F80003EE0224800680078452815D10BE0012189
:101F90002248017010E00021204801700CE0FF2170
:101FA0001E48017008E01E4800780328EFD01C4846
:101FB00000780228EFD0F2E70021134801701149A0
:101FC000124801601CE010490878401C08700F4955
:101FD0000868401C086013E00B48007800283FF4B4
:101FE00089AF0948007803283FF491AF064800788C
:101FF00004283FF4B5AF044800780528C1D0E2E7D3
:1020000001B070471800FF1F0200FF1F1400FF1FE0
:102010001900FF1F1B00FF1F3648FF1F0000FF1F96
:042020001A00FF1F84
:100400000000000000000000FFFFFFFF02FDFFFFF3
:1033300000076000600000000000000000000000C6
:10334000000000000000000000000000000000007D
:10335000000000000000000000000000000000006D
:10336000000000000000000000000000000000005D
:10337000000000000000000000000000000000004D
:103A300000000000000000000000FFFFFFFFFFFF8C
:103A4000FFFFFFFFFFFF00000000FFFFFFFF000080
:103A500000000000FFFFFFFF0000FFFFFFFFFFFF70
:103A6000FFFFFFFFFFFF0000FFFFFFFFFFFFFFFF64
:103A7000FFFFFFFF0000000000000000000000004A
:103A80000000000000000000000000000000000036
:103A90000000000000000000000000000000000026
:103AA0000000000000000000000000000000000016
:103AB0000000000000000000000000000000000006
:103AC00000000000000000000000000000000000F6
:103AD00000000000000000000000000000000000E6
:103AE00000000000000000000000000000000000D6
:103AF00000000000000000000000FFFFFFFF0000CA
:103B000000000000FFFFFFFF0000FFFFFFFF0000BD
:103B100000000000FFFFFFFF0000000000000000A9
:103B20000000FFFFFFFF0000000000000000000099
:103B3000FFFFFFFF00000000000000000000000089
:103B40000000000000000000000000000000000075
:103B50000000000000000000000000000000000065
:103B60000000000000000000000000000000000055
:103B70000000000000000000000000000000000045
:103B80000000000000000000000000000000000035
:103B90000000000000000000000000000000000025
:103BA0000000000000000000000000000000000015
:103BB00000000000000000000000FFFFFFFF000009
:103BC00000000000FFFFFFFF0000FFFFFFFF0000FD
:103BD00000000000FFFFFFFF0000000000000000E9
:103BE0000000FFFFFFFF00000000000000000000D9
:103BF000FFFFFFFF000000000000000000000000C9
:103C000000000000000000000000000000000000B4
:103C100000000000000000000000000000000000A4
:103C20000000000000000000000000000000000094
:103C30000000000000000000000000000000000084
:103C40000000000000000000000000000000000074
:103C50000000000000000000000000000000000064
:103C60000000000000000000000000000000000054
:103C700000000000000000000000FFFFFFFF000048
:103C800000000000FFFFFFFF0000FFFFFFFF00003C
:103C900000000000FFFFFFFF000000000000000028
:103CA000FFFFFFFF00000000000000000000FFFF1A
:103CB000FFFF000000000000000000000000000006
:103CC00000000000000000000000000000000000F4
:103CD00000000000000000000000000000000000E4
:103CE00000000000000000000000000000000000D4
:103CF00000000000000000000000000000000000C4
:103D000000000000000000000000000000000000B3
:103D100000000000000000000000000000000000A3
:103D20000000000000000000000000000000000093
:103D300000000000000000000000FFFFFFFFFFFF89
:103D4000FFFFFFFFFFFF00000000FFFFFFFF00007D
:103D500000000000FFFFFFFF000000000000FFFF69
:103D6000FFFF00000000000000000000FFFFFFFF59
:103D70000000000000000000000000000000000043
:103D80000000000000000000000000000000000033
:103D90000000000000000000000000000000000023
:103DA0000000000000000000000000000000000013
:103DB0000000000000000000000000000000000003
:103DC00000000000000000000000000000000000F3
:103DD00000000000000000000000000000000000E3
:103DE00000000000000000000000000000000000D3
:103DF00000000000000000000000FFFFFFFF0000C7
:103E000000000000FFFFFFFF0000FFFFFFFF0000BA
:103E100000000000FFFFFFFF00000000FFFFFFFFAA
:103E200000000000000000000000FFFFFFFF000096
:103E30000000000000000000000000000000000082
:103E40000000000000000000000000000000000072
:103E50000000000000000000000000000000000062
:103E60000000000000000000000000000000000052
:103E70000000000000000000000000000000000042
:103E80000000000000000000000000000000000032
:103E90000000000000000000000000000000000022
:103EA0000000000000000000000000000000000012
:103EB00000000000000000000000FFFFFFFF000006
:103EC00000000000FFFFFFFF0000FFFFFFFF0000FA
:103ED00000000000FFFFFFFF0000FFFFFFFF0000EA
:103EE0000000000000000000FFFFFFFF00000000D6
:103EF00000000000000000000000000000000000C2
:103F000000000000000000000000000000000000B1
:103F100000000000000000000000000000000000A1
:103F20000000000000000000000000000000000091
:103F30000000000000000000000000000000000081
:103F40000000000000000000000000000000000071
:103F50000000000000000000000000000000000061
:103F60000000000000000000000000000000000051
:103F700000000000000000000000FFFFFFFF000045
:103F800000000000FFFFFFFF0000FFFFFFFF000039
:103F900000000000FFFFFFFF0000FFFFFFFF000029
:103FA0000000000000000000FFFFFFFF0000000015
:103FB0000000000000000000000000000000000001
:103FC00000000000000000000000000000000000F1
:103FD00000000000000000000000000000000000E1
:103FE00000000000000000000000000000000000D1
:103FF00000000000000000000000000000000000C1
:1040000000000000000000000000000000000000B0
:1040100000000000000000000000000000000000A0
:104020000000000000000000000000000000000090
:1040300000000000000000000000FFFFFFFFFFFF86
:10404000FFFFFFFFFFFF000000000000FFFFFFFF7A
:10405000FFFFFFFFFFFF00000000FFFFFFFFFFFF6C
:10406000FFFFFFFFFFFF0000FFFFFFFFFFFFFFFF5E
:10407000FFFFFFFF00000000000000000000000044
:104080000000000000000000000000000000000030
:104090000000000000000000000000000000000020
:1040A0000000000000000000000000000000000010
:1040B0000000000000000000000000000000000000
:1044A00000000000000000000000FFFFFFFFFFFF12
:1044B000FFFFFFFFFFFFFFFFFFFFFFFFFFFFFFFF0C
:1044C000FFFFFFFFFFFFFFFFFFFFFFFFFFFFFFFFFC
:1044D000FFFFFFFFFFFFFFFFFFFFFFFFFFFFFFFFEC
:1044E000FFFFFFFFFFFFFFFFFFFFFFFFFFFFFFFFDC
:1044F000FFFFFFFFFFFFFFFFFFFFFFFFFFFFFFFFCC
:10450000FFFF0000000000000000000000000000AD
:10451000000000000000000000000000000000009B
:10452000000000000000000000000000000000008B
:10453000000000000000000000000000000000007B
:10454000000000000000000000000000000000006B
:10455000000000000000000000000000000000005B
:1045600000000000000000007DEFFFFF82108210BD
:104570008210821082108210821000000000000061
:104580000000000000008210821082108210821051
:10459000821082108210821082108210821082108B
:1045A000821082108210821082108210821082107B
:1045B000821082108210821082108210821082106B
:1045C000FFFFFFFF000000000000000000000000EF
:1045D00000000000000000000000000000000000DB
:1045E00000000000000000000000000000000000CB
:1045F00000000000000000000000000000000000BB
:1046000000000000000000000000000000000000AA
:10461000000000000000000000000000000000009A
:104620000000000000003CE7FFFF00000000000069
:10463000000000000000000000000000000000007A
:10464000000000000000000000000000000000006A
:10465000000000000000000000000000000000005A
:10466000000000000000000000000000000000004A
:10467000000000000000000000000000000000003A
:104680000000FFFFFFFF000000000000000000002E
:10469000000000000000000000000000000000001A
:1046A000000000000000000000000000000000000A
:1046B00000000000000000000000000000000000FA
:1046C00000000000000000000000000000000000EA
:1046D00000000000000000000000000000000000DA
:1046E000000000000000FFFF0000000000000000CC
:1046F00000000000000000000000000000000000BA
:1047000000000000000000000000000000000000A9
:104710000000000000000000000000000000000099
:104720000000000000000000000000000000000089
:104730000000000000000000000000000000000079
:1047400000000000FFFF000000000000000000006B
:104750000000000000000000000000000000000059
:104760000000000000000000000000000000000049
:104770000000000000000000000000000000000039
:104780000000000000000000000000000000000029
:104790000000000000000000000000000000000019
:1047A000000000000000FFFF00000000000000000B
:1047B00000000000000000000000000000000000F9
:1047C00000000000000000000000000000000000E9
:1047D00000000000000000000000000000000000D9
:1047E00000000000000000000000000000000000C9
:1047F00000000000000000000000000000000000B9
:1048000000000000FFFF00000000000000000000AA
:104810000000000000000000000000000000000098
:104820000000000000000000000000000000000088
:104830000000000000000000000000000000000078
:104840000000000000000000000000000000000068
:104850000000000000000000000000000000000058
:10486000000000000000FFFF00000000000000004A
:104870000000000000000000000000000000000038
:104880000000000000000000000000000000000028
:104890000000000000000000000000000000000018
:1048A0000000000000000000000000000000000008
:1048B00000000000000000000000000000000000F8
:1048C00000000000FFFF00000000000000000000EA
:1048D00000000000000000000000000000000000D8
:1048E00000000000000000000000000000000000C8
:1048F00000000000000000000000000000000000B8
:1049000000000000000000000000000000000000A7
:104910000000000000000000000000000000000097
:10492000000000000000FFFF000000000000000089
:104930000000000000000000000000000000000077
:104940000000000000000000000000000000000067
:104950000000000000000000000000000000000057
:104960000000000000000000000000000000000047
:104970000000000000000000000000000000000037
:1049800000000000FFFF0000000000000000000029
:104990000000000000000000000000000000000017
:1049A0000000000000000000000000000000000007
:1049B00000000000000000000000000000000000F7
:1049C00000000000000000000000000000000000E7
:1049D00000000000000000000000000000000000D7
:1049E000000000000000FFFF0000000000000000C9
:1049F00000000000000000000000000000000000B7
:104A000000000000000000000000000000000000A6
:104A10000000000000000000000000000000000096
:104A20000000000000000000000000000000000086
:104A30000000000000000000000000000000000076
:104A400000000000FFFF0000000000000000000068
:104A50000000000000000000000000000000000056
:104A60000000000000000000000000000000000046
:104A70000000000000000000000000000000000036
:104A80000000000000000000000000000000000026
:104A90000000000000000000000000000000000016
:104AA000000000000000FFFF000000000000000008
:104AB00000000000000000000000000000000000F6
:104AC00000000000000000000000000000000000E6
:104AD00000000000000000000000000000000000D6
:104AE00000000000000000000000000000000000C6
:104AF00000000000000000000000000000000000B6
:104B000000000000FFFF00000000000000000000A7
:104B10000000000000000000000000000000000095
:104B20000000000000000000000000000000000085
:104B30000000000000000000000000000000000075
:104B40000000000000000000000000000000000065
:104B50000000000000000000000000000000000055
:104B6000000000000000FFFF000000000000000047
:104B70000000000000000000000000000000000035
:104B80000000000000000000000000000000000025
:104B90000000000000000000000000000000000015
:104BA0000000000000000000000000000000000005
:104BB00000000000000000000000000000000000F5
:104BC00000000000FFFF00000000000000000000E7
:104BD00000000000000000000000000000000000D5
:104BE00000000000000000000000000000000000C5
:104BF00000000000000000000000000000000000B5
:104C000000000000000000000000000000000000A4
:104C10000000000000000000000000000000000094
:104C2000000000000000FFFF000000000000000086
:104C30000000000000000000000000000000000074
:104C40000000000000000000000000000000000064
:104C50000000000000000000000000000000000054
:104C60000000000000000000000000000000000044
:104C70000000000000000000000000000000000034
:104C800000000000FFFF0000000000000000000026
:104C90000000000000000000000000000000000014
:104CA0000000000000000000000000000000000004
:104CB00000000000000000000000000000000000F4
:104CC00000000000000000000000000000000000E4
:104CD00000000000000000000000000000000000D4
:104CE000000000000000FFFF0000000000000000C6
:104CF00000000000000000000000000000000000B4
:104D000000000000000000000000000000000000A3
:104D10000000000000000000000000000000000093
:104D20000000000000000000000000000000000083
:104D30000000000000000000000000000000000073
:104D400000000000FFFF0000000000000000000065
:104D50000000000000000000000000000000000053
:104D60000000000000000000000000000000000043
:104D70000000000000000000000000000000000033
:104D80000000000000000000000000000000000023
:104D90000000000000000000000000000000000013
:104DA000000000000000FFFF000000000000000005
:104DB00000000000000000000000000000000000F3
:104DC00000000000000000000000000000000000E3
:104DD00000000000C7398210000000000000000041
:104DE00000000000000000000000000000000000C3
:104DF00000000000000000000000000000000000B3
:104E000000000000FFFF00000000000000000000A4
:104E10000000000000000000000000000000000092
:104E20000000000000000000000000000000000082
:104E30000000000000000000000000000000000072
:104E40000000000000000000000000000000000062
:104E50000000000000000000000000000000000052
:104E6000000000000000FFFF000000000000000044
:104E70000000000000000000000000000000000032
:104E80000000000000000000000000000000000022
:104E900000000842BEF7F7BD8210000000000000CD
:104EA0000000000000000000000000000000000002
:104EB00000000000000000000000000000000000F2
:104EC00000000000FFFF00000000000000000000E4
:104ED00000000000000000000000000000000000D2
:104EE00000000000000000000000000000000000C2
:104EF00000000000000000000000000000000000B2
:104F000000000000000000000000000000000000A1
:104F10000000000000000000000000000000000091
:104F2000000000000000FFFF000000000000000083
:104F30000000000000000000000000000000000071
:104F40000000000000004529494AC3180000000085
:104F5000C7397DEFFFFFFFFFF7BD82100000C318C8
:104F60008A52718C821000000000000000000000D6
:104F70000000000000000000000000000000000031
:104F800000000000FFFF0000000000000000000023
:104F90000000000000000000000000000000000011
:104FA0000000000000000000000000000000000001
:104FB00000000000000000000000000000000000F1
:104FC00000000000000000000000000000000000E1
:104FD00000000000000000000000000000000000D1
:104FE000000000000000FFFF0000000000000000C3
:104FF00000000000000000000000000000000000B1
:10500000000000000000718CFFFF7DEFF7BD718C88
:105010003CE7FFFF8A52718CFFFF79CE75ADBEF77A
:10502000FFFFFFFF494A00000000000000000000F1
:105030000000000000000000000000000000000070
:1050400000000000FFFF0000000000000000000062
:105050000000000000000000000000000000000050
:105060000000000000000000000000000000000040
:105070000000000000000000000000000000000030
:105080000000000000000000000000000000000020
:105090000000000000000000000000000000000010
:1050A000000000000000FFFF000000000000000002
:1050B00000000000000000000000000000000000F0
:1050C00000000000000038C6BEF738C6BEF7FFFF7C
:1050D000FFFFCB5A00000000718CFFFFFFFFF7BD00
:1050E000F39CFFFFB29400000000000000000000ED
:1050F00000000000000000000000000000000000B0
:1051000000000000FFFF00000000000000000000A1
:10511000000000000000000000000000000000008F
:10512000000000000000000000000000000000007F
:10513000000000000000000000000000000000006F
:10514000000000000000000000000000000000005F
:10515000000000000000000000000000000000004F
:10516000000000000000FFFF000000000000000041
:10517000000000000000000000000000000000002F
:1051800000000000C318FFFFB6B5000004218A52DA
:10519000494A0000000000000000494A452900007B
:1051A00000003CE7BAD6000000000000000000004C
:1051B00000000000000000000000000000000000EF
:1051C00000000000FFFF00000000000000000000E1
:1051D00000000000000000000000000000000000CF
:1051E00000000000000000000000000000000000BF
:1051F00000000000000000000000000000000000AF
:10520000000000000000000000000000000000009E
:10521000000000000000000000000000000000008E
:10522000000000000000FFFF000000000000000080
:10523000000000000000000000000000000000006E
:10524000000082108E73FFFFCF7B00000000000083
:10525000000000000000000000000000000000004E
:10526000000034A5FFFF718C0842C3180000000045
:10527000000000000000000000000000000000002E
:1052800000000000FFFF0000000000000000000020
:10529000000000000000000000000000000000000E
:1052A00000000000000000000000000000000000FE
:1052B00000000000000000000000000000000000EE
:1052C00000000000000000000000000000000000DE
:1052D00000000000000000000000000000000000CE
:1052E000000000000000FFFF0000000000000000C0
:1052F000000000000000000000000000C3180C6364
:1053000075AD3CE7FFFFFFFFC7390000000000005C
:10531000000000000000000000000000000000008D
:1053200000008A527DEFFFFFFFFF3CE7F7BD04213D
:10533000000000000000000000000000000000006D
:1053400000000000FFFF000000000000000000005F
:10535000000000000000000000000000000000004D
:10536000000000000000000000000000000000003D
:10537000000000000000000000000000000000002D
:10538000000000000000000000000000000000001D
:10539000000000000000000000000000000000000D
:1053A000000000000000FFFF0000000000000000FF
:1053B000000000000000000000000000494AFFFF5C
:1053C000FFFF79CE718C0842000000000000410808
:1053D00045294529452945294529452982100000A7
:1053E00000000000C318494A718CBEF7BEF7C3180D
:1053F00000000000000000000000000000000000AD
:1054000000000000FFFF000000000000000000009E
:10541000000000000000000000000000000000008C
:10542000000000000000000000000000000000007C
:10543000000000000000000000000000000000006C
:10544000000000000000000000000000000000005C
:10545000000000000000000000000000000000004C
:10546000000000000000FFFF00000000000000003E
:10547000000000000000000000000000C3187DEFE5
:10548000BAD6410800000000000000008E73FBDE69
:10549000FFFFFFFFFFFFFFFFFFFFFFFF3CE7308441
:1054A000410800000000000041087DEFF7BD00004A
:1054B00000000000000000000000000000000000EC
:1054C00000000000FFFF00000000000000000000DE
:1054D00000000000000000000000000000000000CC
:1054E00000000000000000000000000000000000BC
:1054F00000000000000000000000000000000000AC
:10550000000000000000000000000000000000009B
:10551000000000000000000000000000000000008B
:10552000000000000000FFFF00000000000000007D
:105530000000000000000000000000000000B6B500
:10554000BEF704210000000000003084FFFF3CE7AC
:1055500034A5F39CF39CF39CF39C34A5FBDEFFFF86
:10556000F39C000000000000494AFFFF8E7300001A
:10557000000000000000000000000000000000002B
:1055800000000000FFFF000000000000000000001D
:10559000000000000000000000000000000000000B
:1055A00000000000000000000000000000000000FB
:1055B00000000000000000000000000000000000EB
:1055C00000000000000000000000000000000000DB
:1055D00000000000000000000000000000000000CB
:1055E000000000000000FFFF0000000000000000BD
:1055F00000000000000000000000000000000C633C
:10560000FFFF4D6B000000004529FFFF79CEC31856
:105610000000000000000000000000008210F7BD44
:10562000FFFFC73900000000718CFFFF0C63000012
:10563000000000000000000000000000000000006A
:1056400000000000FFFF000000000000000000005C
:10565000000000000000000000000000000000004A
:10566000000000000000000000000000000000003A
:10567000000000000000000000000000000000002A
:10568000000000000000000000000000000000001A
:10569000000000000000000000000000000000000A
:1056A000000000000000FFFF0000000000000000FC
:1056B000000000000000000000000000410875AD7F
:1056C000FFFFCF7B000000000C63FFFF0C630000B6
:1056D0000000000000000000000000000000494A37
:1056E000FFFFCF7B000000008A52BEF73CE7084274
:1056F00000000000000000000000000000000000AA
:1057000000000000FFFF000000000000000000009B
:105710000000000000000000000000000000000089
:105720000000000000000000000000000000000079
:105730000000000000000000000000000000000069
:105740000000000000000000000000000000000059
:105750000000000000000000000000000000000049
:10576000000000000000FFFF00000000000000003B
:1057700000000000000000000000410834A5FFFF09
:1057800034A54108000000004D6BFFFF8A52000065
:105790000000000000000000000000000000C73909
:1057A000FFFF30840000000000008A52BEF77DEF4A
:1057B000494A000000000000000000000000000056
:1057C00000000000FFFF00000000000000000000DB
:1057D00000000000000000000000000000000000C9
:1057E00000000000000000000000000000000000B9
:1057F00000000000000000000000000000000000A9
:105800000000000000000000000000000000000098
:105810000000000000000000000000000000000088
:10582000000000000000FFFF00000000000000007A
:105830000000000000000000410834A5FFFF34A56F
:1058400041080000000000004D6BFFFF8A5200007D
:1058500000000000000000000000000000000842FE
:10586000FFFF308400000000000000004D6BFFFFD0
:105870007DEFC318000000000000000000000000E1
:1058800000000000FFFF000000000000000000001A
:105890000000000000000000000000000000000008
:1058A00000000000000000000000000000000000F8
:1058B00000000000000000000000000000000000E8
:1058C00000000000000000000000000000000000D8
:1058D00000000000000000000000000000000000C8
:1058E000000000000000FFFF0000000000000000BA
:1058F00000000000000000008210F7BDFFFFF39CD5
:1059000000000000000000004D6BFFFF494A00004E
:1059100000000000000000000000000000008631D0
:10592000FFFF3084000000000000042179CEFFFF5B
:105930004D6B0000000000000000000000000000AF
:1059400000000000FFFF0000000000000000000059
:105950000000000000000000000000000000000047
:105960000000000000000000000000000000000037
:105970000000000000000000000000000000000027
:105980000000000000000000000000000000000017
:105990000000000000000000000000000000000007
:1059A000000000000000FFFF0000000000000000F9
:1059B000000000000000000000008210B6B5FFFFEC
:1059C00034A54108000000004D6BFFFF75AD308429
:1059D000308430843084308430843084308434A502
:1059E000FFFF3084000000000421BAD6FFFF8E7351
:1059F00000000000000000000000000000000000A7
:105A000000000000FFFF0000000000000000000098
:105A10000000000000000000000000000000000086
:105A20000000000000000000000000000000000076
:105A30000000000000000000000000000000000066
:105A40000000000000000000000000000000000056
:105A50000000000000000000000000000000000046
:105A6000000000000000FFFF000000000000000038
:105A7000000000000000000000000000410875ADBB
:105A8000FFFF718C000000004D6BFFFFFFFFFFFF69
:105A9000FFFFFFFFFFFFFFFFFFFFFFFFFFFFFFFF16
:105AA000FFFF3084000000004D6BFFFFCF7B000044
:105AB00000000000000000000000000000000000E6
:105AC00000000000FFFF00000000000000000000D8
:105AD00000000000000000000000000000000000C6
:105AE00000000000000000000000000000000000B6
:105AF00000000000000000000000000000000000A6
:105B00000000000000000000000000000000000095
:105B10000000000000000000000000000000000085
:105B2000000000000000FFFF000000000000000077
:105B3000000000000000000000000000000041081C
:105B4000718C8A52000000008210C739863186317C
:105B5000863186318631863186318631863186318D
:105B6000C739C318000000008210C73900000000C8
:105B70000000000000000000000000000000000025
:105B800000000000FFFF0000000000000000000017
:105B90000000000000000000000000000000000005
:105BA00000000000000000000000000000000000F5
:105BB00000000000000000000000000000000000E5
:105BC00000000000000000000000000000000000D5
:105BD00000000000000000000000000000000000C5
:105BE000000000000000FFFF0000000000000000B7
:105BF00000000000000000000000000000000000A5
:105C000000000000000000004529452945294529DC
:105C10004529452945294529452945294529452914
:105C20004529452900000000000000000000000098
:105C30000000000000000000000000000000000064
:105C400000000000FFFF0000000000000000000056
:105C50000000000000000000000000000000000044
:105C60000000000000000000000000000000000034
:105C70000000000000000000000000000000000024
:105C80000000000000000000000000000000000014
:105C90000000000000000000000000000000000004
:105CA000000000000000FFFF0000000000000000F6
:105CB00000000000000000000000000000000000E4
:105CC00000000000410834A5FFFFFFFFFFFFFFFFBA
:105CD000FFFFFFFFFFFFFFFFFFFFFFFFFFFFFFFFD4
:105CE000FFFFFFFFB6B582100000000000000000BB
:105CF00000000000000000000000000000000000A4
:105D000000000000FFFF0000000000000000000095
:105D10000000000000000000000000000000000083
:105D20000000000000000000000000000000000073
:105D30000000000000000000000000000000000063
:105D40000000000000000000000000000000000053
:105D50000000000000000000000000000000000043
:105D6000000000000000FFFF000000000000000035
:105D70000000000000000000000000000000000023
:105D8000000000000C63FFFFFFFFFFFFFFFFFFFFAE
:105D9000FFFFFFFFFFFFFFFFFFFFFFFFFFFFFFFF13
:105DA000FFFFFFFFFFFFCF7B0000000000000000AF
:105DB00000000000000000000000000000000000E3
:105DC00000000000FFFF00000000000000000000D5
:105DD00000000000000000000000000000000000C3
:105DE00000000000000000000000000000000000B3
:105DF00000000000000000000000000000000000A3
:105E00000000000000000000000000000000000092
:105E10000000000000000000000000000000000082
:105E2000000000000000FFFF000000000000000074
:105E30000000000000000000000000000000000062
:105E4000000000003084FFFFFFFFFFFFFFFFFFFFA8
:105E5000FFFFFFFFFFFFFFFFFFFFFFFFFFFFFFFF52
:105E6000FFFFFFFFFFFFF39C0000000000000000A9
:105E70000000000000000000000000000000000022
:105E800000000000FFFF0000000000000000000014
:105E90000000000000000000000000000000000002
:105EA00000000000000000000000000000000000F2
:105EB00000000000000000000000000000000000E2
:105EC00000000000000000000000000000000000D2
:105ED00000000000000000000000000000000000C2
:105EE000000000000000FFFF0000000000000000B4
:105EF00000000000000000000000000000000000A2
:105F0000000000003084FFFFFFFFFFFFFFFFFFFFE7
:105F1000FFFFFFFFFFFFFFFFFFFFFFFFFFFFFFFF91
:105F2000FFFFFFFFFFFFB294000000000000000031
:105F30000000000000000000000000000000000061
:105F400000000000FFFF0000000000000000000053
:105F50000000000000000000000000000000000041
:105F60000000000000000000000000000000000031
:105F70000000000000000000000000000000000021
:105F80000000000000000000000000000000000011
:105F90000000000000000000000000000000000001
:105FA000000000000000FFFF0000000000000000F3
:105FB00000000000000000000000000000000000E1
:105FC000000000003084FFFFFFFFFFFFFFFFFFFF27
:105FD000FFFFFFFFFFFFFFFFFFFFFFFFFFFFFFFFD1
:105FE000FFFFFFFFFFFFF39C000000000000000028
:105FF00000000000000000000000000000000000A1
:1060000000000000FFFF0000000000000000000092
:106010000000000000000000000000000000000080
:106020000000000000000000000000000000000070
:106030000000000000000000000000000000000060
:106040000000000000000000000000000000000050
:106050000000000000000000000000000000000040
:10606000000000000000FFFF000000000000000032
:106070000000000000000000000000000000000020
:1060800000000000CB5AF7BDB6B5B6B5B6B5B6B58B
:10609000B6B5B6B5B6B5B6B5B6B5B6B5B6B5B6B5A8
:1060A000B6B5B6B5B6B54D6B0000000000000000F7
:1060B00000000000000000000000000000000000E0
:1060C00000000000FFFF00000000000000000000D2
:1060D00000000000000000000000000000000000C0
:1060E00000000000000000000000000000000000B0
:1060F00000000000000000000000000000000000A0
:10610000000000000000000000000000000000008F
:10611000000000000000000000000000000000007F
:10612000000000000000FFFF000000000000000071
:10613000000000000000000000000000000000005F
:10614000000000000000000000000000000000004F
:10615000000000000000000000000000000000003F
:10616000000000000000000000000000000000002F
:10617000000000000000000000000000000000001F
:1061800000000000FFFF0000000000000000000011
:1061900000000000000000000000000000000000FF
:1061A00000000000000000000000000000000000EF
:1061B00000000000000000000000000000000000DF
:1061C00000000000000000000000000000000000CF
:1061D00000000000000000000000000000000000BF
:1061E000000000000000FFFF0000000000000000B1
:1061F000000000000000000000000000000000009F
:10620000000000000000000000000000000000008E
:10621000000000000000000000000000000000007E
:10622000000000000000000000000000000000006E
:10623000000000000000000000000000000000005E
:1062400000000000FFFF0000000000000000000050
:10625000000000000000000000000000000000003E
:10626000000000000000000000000000000000002E
:10627000000000000000000000000000000000001E
:10628000000000000000000000000000000000000E
:1062900000000000000000000000000000000000FE
:1062A000000000000000FFFF0000000000000000F0
:1062B00000000000000000000000000000000000DE
:1062C00000000000000000000000000000000000CE
:1062D00000000000000000000000000000000000BE
:1062E00000000000000000000000000000000000AE
:1062F000000000000000000000000000000000009E
:1063000000000000FFFF000000000000000000008F
:10631000000000000000000000000000000000007D
:10632000000000000000000000000000000000006D
:10633000000000000000000000000000000000005D
:10634000000000000000000000000000000000004D
:10635000000000000000000000000000000000003D
:10636000000000000000FFFF00000000000000002F
:10637000000000000000000000000000000000001D
:10638000000000000000000000000000000000000D
:1063900000000000000000000000000000000000FD
:1063A00000000000000000000000000000000000ED
:1063B00000000000000000000000000000000000DD
:1063C00000000000FFFF00000000000000000000CF
:1063D00000000000000000000000000000000000BD
:1063E00000000000000000000000000000000000AD
:1063F000000000000000000000000000000000009D
:10640000000000000000000000000000000000008C
:10641000000000000000000000000000000000007C
:10642000000000000000FFFF00000000000000006E
:10643000000000000000000000000000000000005C
:10644000000000000000000000000000000000004C
:10645000000000000000000000000000000000003C
:10646000000000000000000000000000000000002C
:10647000000000000000000000000000000000001C
:1064800000000000FFFF000000000000000000000E
:1064900000000000000000000000000000000000FC
:1064A00000000000000000000000000000000000EC
:1064B00000000000000000000000000000000000DC
:1064C00000000000000000000000000000000000CC
:1064D00000000000000000000000000000000000BC
:1064E000000000000000FFFF0000000000000000AE
:1064F000000000000000000000000000000000009C
:10650000000000000000000000000000000000008B
:10651000000000000000000000000000000000007B
:10652000000000000000000000000000000000006B
:10653000000000000000000000000000000000005B
:1065400000000000FFFF000000000000000000004D
:10655000000000000000000000000000000000003B
:10656000000000000000000000000000000000002B
:10657000000000000000000000000000000000001B
:10658000000000000000000000000000000000000B
:1065900000000000000000000000000000000000FB
:1065A000000000000000FFFF0000000000000000ED
:1065B00000000000000000000000000000000000DB
:1065C00000000000000000000000000000000000CB
:1065D00000000000000000000000000000000000BB
:1065E00000000000000000000000000000000000AB
:1065F000000000000000000000000000000000009B
:1066000000000000FFFF000000000000000000008C
:10661000000000000000000000000000000000007A
:10662000000000000000000000000000000000006A
:10663000000000000000000000000000000000005A
:10664000000000000000000000000000000000004A
:10665000000000000000000000000000000000003A
:10666000000000000000FFFF00000000000000002C
:10667000000000000000000000000000000000001A
:10668000000000000000000000000000000000000A
