:10000000FCFF022001100000F90F0000F90F0000B2
:10001000F90F0000F90F0000F90F0000F90F0000C0
:10002000F90F0000F90F0000F90F0000F90F0000B0
:10003000F90F0000F90F0000F90F0000F90F0000A0
:10004000F90F0000F90F0000F90F0000F90F000090
:10005000F90F0000F90F0000F90F0000F90F000080
:10006000F90F0000F90F0000F90F0000F90F000070
:10007000F90F0000F90F0000F90F0000F90F000060
:10008000F90F0000F90F0000F90F0000F90F000050
:10009000F90F0000F90F0000F90F0000F90F000040
:1000A000F90F0000F90F0000F90F0000F90F000030
:1000B000F90F0000F90F0000F90F0000F90F000020
:1000C000F90F0000F90F0000F90F0000F90F000010
:1000D000F90F0000F90F0000F90F0000F90F000000
:1000E000F90F0000F90F0000F90F0000F90F0000F0
:1000F000F90F0000F90F0000F90F0000F90F0000E0
:10010000F90F0000F90F0000F90F0000F90F0000CF
:10011000F90F0000F90F0000F90F0000F90F0000BF
:10012000F90F0000F90F0000F90F0000F90F0000AF
:1001300059170000F90F0000F90F0000F90F000037
:10014000F90F0000F90F0000F90F0000F90F00008F
:10015000F90F0000F90F0000F90F0000F90F00007F
:10016000F90F0000F90F0000F90F0000F90F00006F
:10017000F90F0000F90F0000F90F0000F90F00005F
:10018000F90F0000F90F0000F90F0000F90F00004F
:08019000F90F0000F90F000057
:1010000000F0C0FB00F09EFB0AF066FA00F05EFE06
:101010000AF022FA00F00AFBFFF7ECF940F24C006C
:1010200000F09EFA0B223449086862F3134008600E
:101030004D220521314800F03FFB28E030480022D6
:10104000002100F089F82F4800224FF6FF7100F0D0
:10105000E5F84D220521294800F02EFBFF212A4802
:1010600001701DE029480022002100F075F8254894
:1010700000224FF6FF7100F0D1F84D2205211F48E4
:1010800000F01AFBFF212048017009E008E01E482B
:1010900000780028D2D01C4800780128E2D0F5E77B
:1010A0000C2000F0E5FA1A4908601A4900F092FA9B
:1010B000144800224FF6FF7100F0B0F84D222821AD
:1010C000144800F0F9FA42F6FE47C0F2311700BFAB
:1010D00000BF7F1EFDD100BF00BF00BF0948002236
:1010E00040F2000100F09AF84D222821094800F052
:1010F000E3FAA2E7FEE700BF34A004400000FF1FB0
:10110000E2640000E8AC00000B00FF1FDC1C0000E4
:081110000C00FF1F1000FF1F7F
:0A03F400EFF3108C604662B670470C
:10156000042806D11849096841F4803216490A60F6
:1015700028E0052806D11449096841F400321249CF
:101580000A601FE0062806D10F49096841F480224D
:101590000D490A6016E00F2806D10C49096841F090
:1015A00002020A490A600DE010280BD3A0F21004D1
:1015B00061098A0006498B1804F01F024FF00101EF
:1015C00091401960704700BF24ED00E010E000E09A
:0415D00000E100E056
:10161C001CF8019B0BF8019BBBEB0A0FF8D1704730
:00162C00BE
:10170C004FF000094FF0000CBDEB0A0F04DCBDEBF1
:10171C000B0F01DBD446EA464BF8049BBBEB0A0FDC
:10172C00FAD1BCEB0A0F05DDE246D9F800B00BF19B
:06173C00040BF1E7704709
:10162C0081B0CDF800E04FF400510B48FFF782FD7C
:10163C00FFF732FE094800224FF6FF71FFF7E8FD75
:10164C00074800220021FFF781FDFFF715FEDDF8AA
:10165C0000E001B0704700BF40F00F40E8AC000064
:04166C00E264000034
:1011400081B0CDF800E0034AFFF79CFDDDF800E038
:0811500001B070470401020028
:100C840081B0CDF800E080460A4B984503D20A4B68
:100C9400984500D909E0074BA8EB030303F03F0391
:100CA40003B102E04046FFF7FBFCDDF800E001B0D1
:0C0CB400704700BF00F00F4014F10F402B
:1006A40083B0CDF800E006460C4615463046FFF709
:1006B40073FF40F2FF1306EA030080090026224676
:1006C4002946202E39D24FF0010303FA06F402EA38
:1006D40004031F46A3422ED104031A4B1C19B30072
:1006E400E51801952C68184B04EA03032B60174B9B
:1006F40001EA0304019B1B6843EA0404019B1C6098
:1007040001F48033B3F5803F15D08401104B1B19DD
:100714001433029301F400333BB1FC43029B1B6886
:1007240003EA0404029B1C6005E0029B1B6843EA85
:100734000704029B1C60761CC3E7DDF800E003B0ED
:10074400704700BF009004400000FFFFFFFF00005F
:0407540000F00F4062
:10059C0040F2FF1100EA01018909084600F2090244
:1005AC004FF0010101FA02F20349096841EA020223
:0C05BC0001490A60704700BF388004400D
:1012A40081B0CDF800E00321A24801700021A248DA
:1012B40001604FF40051A148FFF708FD4FF40041CD
:1012C4009F48FFF703FD4FF040019E48FFF7FEFCE7
:1012D4004FF480119C48FFF7F9FC9C4A9C499D48B7
:1012E400FFF700FDFFF736FDFFF73CFD002149B293
:1012F40099480160FFF736FD012149B29648016023
:10130400FFF730FDFFF7DAFC0121FD20FFF700FDB8
:1013140008B102200AE100211220FFF7F9FC08B10C
:10132400022003E10121FD20FFF7F2FC08B10220B5
:10133400FCE00021B120FFF7EBFC08B10220F5E04E
:101344000121AE20FFF7E4FC08B10220EEE0012108
:10135400B320FFF7DDFC08B10220E7E00021F12013
:10136400FFF7D6FC08B10220E0E00121CA20FFF714
:10137400CFFC08B10220D9E000215F20FFF7C8FCB0
:1013840008B10220D2E00121A020FFF7C1FC08B17E
:101394000220CBE000216020FFF7BAFC08B1022054
:1013A400C4E001211520FFF7B3FC08B10220BDE021
:1013B40000210020FFF7ACFC08B10220B6E00021B8
:1013C4005F20FFF7A5FC08B10220AFE001217520E2
:1013D400FFF79EFC08B10220A8E000210020FFF7DF
:1013E40097FC08B10220A1E000215F20FFF790FCE8
:1013F40008B102209AE00121A120FFF789FC08B17D
:10140400022093E000218020FFF782FC08B1022033
:101414008CE00121A220FFF77BFC08B1022085E0CB
:1014240000216020FFF774FC08B102207EE0012156
:10143400B120FFF76DFC08B1022077E001213220D2
:10144400FFF766FC08B1022070E00121BE20FFF71F
:101454005FFC08B1022069E001210520FFF758FC78
:1014640008B1022062E00121A620FFF751FC08B177
:1014740002205BE00121C120FFF74AFC08B10220F1
:1014840054E000218A20FFF743FC08B102204DE01C
:1014940000215120FFF73CFC08B1022046E0002166
:1014A4008A20FFF735FC08B102203FE00121C72064
:1014B400FFF72EFC08B1022038E00021CF20FFF70F
:1014C40027FC08B1022031E00121B420FFF720FC01
:1014D40008B102202AE00021A020FFF719FC08B17E
:1014E400022023E00021B520FFF712FC08B10220FE
:1014F4001CE000215520FFF70BFC08B1022015E089
:101504000121B620FFF704FC08B102200EE00021FF
:101514000120FFF7FDFB08B1022007E00121AF2005
:10152400FFF7F6FB08B1022000E00020DDF800E040
:1015340001B070473600FF1F3800FF1F80F00F40D6
:10154400C0F00F4000F10F4040F00F4078B30000AE
:0C15540007000084C0E1E4001820FE4302
:100CD00081B0CDF800E0034AFFF7D4FFDDF800E073
:080CE00001B07047040104009B
:100CE80081B0CDF800E003460C4615460648FFF7EC
:100CF800BFFD224619462B460348FFF7EDFDDDF8F8
:0C0D080000E001B0704700BF00C00A40CE
:100878000E49884206D10E4A0E490A600E4A0F49AF
:100888000A6012E00E49884206D10E4A09490A60F8
:100898000D4A0A490A6008E00C49884205D10C4A09
:1008A80004490A600B4A05490A60704700C00240C3
:1008B800210400004C48FF1FFFFFFFFF5048FF1FA7
:1008C80000D00240B5020000FFFFFFFF00C00A4051
:0808D800DD040000FFFFFFFF3B
:1008E00084B0CDF800E003910146104601900291DA
:1008F0001846FFF769FE0299019800F010042409D8
:100900002746019002910846FFF784FE0299029162
:100910000846FFF70FFE0299019800F000450C68A9
:100920002C430C6000F080450C682C430C600C6874
:1009300044F440540C600D686FF4804405EA0404EC
:100940000C6001F20C05BC002E1900F00F05346894
:100950002C43346001F20C05BC002E1900F08065B8
:1009600034682C43346001F20C05BC002E1900F0F1
:10097000007534682C43346001F20C05BC002E195C
:1009800000F0807534682C43346001F20C05BC0023
:100990002D196FF0F0442C6001F20C05BC002D19EC
:1009A00000F00F04E4062C600191039A0846F9B2A6
:1009B000FFF790FC01990846FFF72AFDDDF800E0FB
:0409C00004B07047C8
:1005C80082B0CDF800E0014600208C4681000CEB9B
:1005D80001010968B1F1FF3F13D00CF13401830028
:1005E800C91809680A460CEB03010968ADF804004C
:1005F80008461146FFF7F6FDBDF80400401C80B21E
:0A060800E4E7DDF800E002B07047FF
:1001EC0082B0CDF800E081464FEA591202F00702C6
:1001FC00924609F01F04A34693010D4AD3184FF001
:10020C000102A240019218460A46019900F034FD01
:10021C004FEA0A33074AD3184FEA8B029C1809F4A9
:10022C00E06322681A432260DDF800E002B07047F8
:08023C0000F00F4000900440A7
:100614000A49884203D1012252B209490A600949B0
:10062400884203D1012252B207490A60074988422D
:1006340003D1012252B206490A60704700C0024049
:10064400B007904200D00240B407904200C00A4074
:04065400300690429A
:1005340002686FF4804102EA01010160016841F040
:100544000101016000F22C031A68124942EA010118
:10055400196000F208020021116000F20C024FF051
:10056400F041116000F210024FF0F041116000F20E
:1005740030020021116000F2340200211160016890
:1005840041F440610160026844F2010142EA010160
:080594000160704700000A9AA3
:1002D40091B0CDF800E00F9010468DF840100E90CC
:1002E40001AB1846FFF7ACFF4FF0FF330D9300232B
:1002F40006930023089301230A9300230B930023FE
:100304000593059B042B41D20D9B002B3ED000236B
:100314000793079B102B35D20D9B002B32D0012362
:100324000993099B032B29D20D9B3BB3099C029B88
:1003340003FB04F6059B9C002B4B1B191D68079BB4
:100344009C002A4B1B191B686B43B6FBF3F4204635
:100354000E9BA3420ED30E9B1C1A0C940D9BA3421E
:1003640008D90C9B0D93059B0693079B08930B9050
:10037400099B0A93099B5B1C0993D2E7079B5B1CAF
:100384000793C6E7059B5B1C0593BAE70F9B03F233
:100394000C049DF840309B00E5180A9B5B1EDC07AB
:1003A4002B6823432B600F9B03F20C049DF8403011
:1003B4009B00E518069B1B0403F440342B6823437D
:1003C4002B600F9B03F20C049DF840309B00E51852
:1003D400089B03F00F042B6823432B600B98DDF874
:1003E40000E011B0704700BF40B40000E4B3000067
:0003F40009
:1002440081B0CDF800E00446FFF7A4FF40F2E831A6
:1002540000FB01F3154909680A0F1449096801F004
:100264007061090EC8B21149096801F47001090DE1
:10027400CDB20E49096801F47021090CCEB2D1B295
:1002840003FA01F10F462360221D27FA00F11160E1
:1002940004F2080227FA05F1116004F20C0227FAAD
:1002A40006F11160DDF800E001B0704744800440BD
:0002B4004A
:0C01980001480068704700BF4848FF1F86
:0E04100002686FF0010102EA0101016070470D
:100D5800002149B201480160704700BF3410FE43CA
:000D68008B
:100D680049F63E47C0F2000700BF00BF7F1EFDD115
:080D780000BF00BF00BF70477F
:100CC000012149B201480160704700BF3410FE4362
:000CD00024
:100D140081B0CDF800E021B100235BB20B4A13602F
:100D240003E001235BB2094A136000235BB2084A63
:100D34001360C0B2FFF7A8FC01235BB2044A13603E
:100D44000020DDF800E001B0704700BF3C18FE430E
:040D54005008FE4302
:10068C0081B0CDF800E0034C2468A047DDF800E011
:08069C0001B070474C48FF1F3C
:1004200081B0CDF800E082B24FF080610348FFF761
:10043000B9FEDDF800E001B0704700BF00C0024027
:00044000BC
:1001A40000F22C04236843F00043236000F234047B
:1001B40093B241EA0303236000F22C031C68C4F3E6
:0801C400C07303B9F8E77047AE
:1002B40081B0CDF800E082B24FF080610348FFF7CF
:1002C4006FFFDDF800E001B0704700BF00D00240CE
:0002D4002A
:1004DC0081B0CDF800E082B24FF080610348FFF7A5
:1004EC005BFEDDF800E001B0704700BF00C00A40C1
:0004FC0000
:1004C00081B0CDF800E081B20348FFF77FFEDDF890
:0C04D00000E001B0704700BF00A0064033
:1001CC0081B0ADF800100146BDF800000A1D13788F
:1001DC00C3F3C01202B9F9E7CA1D107001B0704721
:0001EC0013
:1005180081B0CDF800E081B20348FFF753FEDDF863
:0C05280000E001B0704700BF00B00640CA
:1004FC0081B0CDF800E081B20348FFF761FEDDF872
:0C050C0000E001B0704700BF00C00640D6
:10045C0081B0CDF800E081B20348FFF7B1FEDDF8C2
:0C046C0000E001B0704700BF00D0064067
:1004400081B0CDF800E081B20348FFF7BFFEDDF8D0
:0C04500000E001B0704700BF00A00E40AB
:1004A40081B0CDF800E081B20348FFF78DFEDDF89E
:0C04B40000E001B0704700BF00B00E4037
:10121C00114B1860831C1C78C31C1B781B029BB2DF
:10122C00E4180E4B1C80031D1C78431D1B781B02FD
:10123C009BB2E4180A4B1C80831D1C78094B1C8044
:10124C00094B1980094B1A700124094B1C7000249E
:10125C00084B1C70704700BF2000FF1F1C00FF1FB5
:10126C001E00FF1F2800FF1F2C00FF1F2400FF1F64
:08127C001B00FF1F2500FF1FEE
:1011580084B0CDF800E003469C1C2578EDB2641CF1
:1011680023781B029BB2ED18ADB2641C2678F6B248
:10117800631C1B781B029BB2F3189BB29EB2CB1860
:101188009BB25B1E9BB2602B0BD8002909D3531965
:101198009BB25B1E9BB2602B03D8002A01D30023AD
:1011A80000E0012303B113E006FB05F4831DADF84D
:1011B80004508DF808208DF80C10A2B21946144876
:1011C800FFF756FC9DF80C109DF80820BDF8045058
:1011D800ADF80460ADF80650EBB2C8B2D1B2F2B2C5
:1011E800FFF75EFCBDF80650BDF8046006FB05F38A
:1011F8009BB25B009BB299B20548FFF7DFFB08B1D1
:10120800022000E00020DDF800E004B0704700BFD5
:041218003C00FF1F78
:100A780093B20A4600211446024698B281420DD22A
:100A880023781B021380631C1D461C78138823439C
:0E0A98001380921C6B1C1C46491CEFE7704734
:100AA80086B0CDF800E08DF808008DF80C108DF8B0
:100AB80010208DF814309DF8084010348DF8084047
:100AC8009DF80C408DF80C4000248DF8044001215D
:100AD800152000F01BF99DF8044004438DF80440EC
:100AE80000219DF8080000F011F99DF80440044326
:100AF8008DF804409DF81040651E2DB29DF8084001
:100B0800641924B2002120B200F000F99DF80440D5
:100B180004438DF804400121752000F0F7F89DF892
:100B2800044004438DF8044000219DF80C0000F0B7
:100B3800EDF89DF8044004438DF804409DF81440F6
:100B4800651E2DB29DF80C40641924B2002120B214
:100B580000F0DCF89DF804400443E4B2002C00D116
:0C0B680000E0B1E7DDF800E006B07047E7
:1009C40084B0CDF800E00290039101215C2000F096
:1009D4009FF908B102201CE001235BB20F4A1360A7
:1009E40000235BB20E4A13600298039B039A521EC3
:1009F40003924BB10278019090B2FFF745FE019843
:100A0400421C11460846F0E701235BB2044A136016
:100A14000020DDF800E004B0704700BF3C18FE433E
:040A24005008FE4335
:1012840081B0CDF800E00548FFF7CCFB034900200E
:10129400FFF76EFCDDF800E001B070473C48FF1F2B
:0012A4004A
:100A280008B9012023E001210170421C0321117043
:100A3800821C01211170C21C01211170021D0321A9
:100A48001170421D01211170821D00211170C21DFB
:100A58000021117000F208020021117000F2090251
:100A68000021117000F20A02002111700020704765
:000A78007E
:100B740081B0CDF800E00C4683000A4AD21812680E
:100B840015460CB9012009E0FFF7E4FD2846FFF7FC
:100B940061FD21462846FFF7EFFD0020DDF800E067
:080BA40001B0704750B40000DD
:1007580081B0CDF800E00549091809780448FFF789
:1007680087FEDDF800E001B0704700BFFE0300001F
:0407780000700440C9
:1004780041F228028318CAB2520992009A18A2F1CE
:100488008042520102F18443CAB202F01F02920074
:0A0498009B184FF001021A60704734
:1006580000F208020021116000F20C020021116072
:1006680000F218020021116000F21C020021116042
:1006780000F220020021116000F224020021116022
:020688007047B9
:10077C0000F20802126892B202F000039BB20A78EF
:10078C001AB143F080039BB2FFE74A1C1278520166
:10079C0002F0600243EA020293B28A1C12781AB188
:1007AC0043F010039BB2FFE7CA1C1278920002F0D0
:1007BC000C0243EA02040A1D127802F00303A2B2EF
:1007CC001A4394B200F20C02126893B24FF6F07214
:1007DC0013409BB24A1D12781AB143F008039BB226
:1007EC00FFE78A1D12781AB143F004039BB2FFE7AE
:1007FC00CA1D127802F0030243EA020295B200F21B
:10080C002002126893B24FF6BC7213409BB201F2F5
:10081C00080212781AB143F040039BB2FFE701F2D1
:10082C000902127802F0030243EA020296B200F2C5
:10083C002402126893B24FF6B77203EA020293B223
:10084C0001F20A0212781AB143F0080189B200E0F1
:10085C0099B200F20802146000F20C02156000F26A
:0C086C002002166000F2240211607047A8
:1016B80083B0CDF800E00290602900D31DE0602AD5
:1016C80000D31AE00023ADF8043088B291B2FFF7D6
:1016D80071FBBDF80440029B1B191B786BB1BDF868
:1016E8000440029B1B191B7898B2FFF781FBBDF8D9
:1016F80004305B1CADF80430EBE7DDF800E003B024
:02170800704728
:100DBC00024A1080024A1180704700BF2A00FF1FB0
:040DCC002600FF1FDF
:100DF80086B0CDF800E087B240F2000500267249BF
:100E0800097849B971490022084640F2000100F00A
:100E180001FA01226C490A706D4909888F4200D293
:100E2800CEE06C4909888F4200D9C9E06849098831
:100E3800791A89B28A0092B2674C216808318B18F6
:100E48001878591C0978CAB2991C097809025218ED
:100E5800D91C097809045218214609688C185F4979
:100E6800097821B15D490978022900D057E05C4929
:100E78000B880022A046ACB25A4909888A4244D25B
:100E880059490D8800270024844238D22FB998F890
:100E9800006008F101080127FFE706EA0701C9B267
:100EA80031B3524909888DF80460CDF808808DF86F
:100EB8000C708DF80D20ADF80E308DF81000ADF8DF
:100EC80012508DF814408AB219B228B2FFF77CFE8E
:100ED8009DF81440BDF812509DF81000BDF80E3072
:100EE8009DF80D209DF80C70DDF808809DF80460D1
:100EF8006D1CADB27900CFB2641CE4B2C4E75B1CD0
:100F08009BB2521CD2B2ACB2B6E73449097819B9CF
:100F1800621C35490A8001E031490B8050E03249B2
:100F28000B8800222F4909888A4246D22C490D880D
:100F380000270021A046CCB2844238D22FB998F8B5
:100F4800006008F101080127FFE706EA0701C9B2B6
:100F580031B3264909888DF80460CDF808808DF8EA
:100F68000C708DF80D20ADF80E308DF81000ADF82E
:100F780012508DF814408AB229B218B2FFF724FE35
:100F88009DF81440BDF812509DF81000BDF80E30C1
:100F98009DF80D209DF80C70DDF808809DF8046020
:100FA8006D1EADB27900CFB2641CE4B2C4E75B1C1D
:100FB8009BB2521CD2B24446B4E76A1E08490A8062
:100FC800DDF800E006B070471B00FF1FE8AC00002A
:100FD8001C00FF1F1E00FF1F2000FF1F2400FF1F13
:100FE8002600FF1F2800FF1F2A00FF1F2C00FF1FDD
:000FF800F9
:100BD00082B0CDF800E0431C1BB25B1E1BB2602B41
:100BE0000BDC002809DB4B1C1BB25B1E1BB2602B0D
:100BF00003DC002901DB002300E001230BB103200B
:100C000022E0ADF8042060236022C9B2C0B2FFF731
:100C10004BFFBDF8043003F47F439BB21C0AA4B21F
:100C2000BDF8043003F0FF039BB21B029BB244EA01
:100C30000303ADF8043001AB02211846FFF7C2FEF2
:100C400008B1022000E00020DDF800E002B07047AB
:000C5000A4
:1016700082B0CDF800E08DF8040000218DF806104E
:1016800000218DF8051001A90A4600210020FFF76E
:101690009FFB00210020FFF73FFD00210020FFF706
:1016A0006FFB06B200210020FFF774FB3046DDF827
:0616B00000E002B07047EB
:100DD00081B0CDF800E08400064B1B191B68184653
:100DE0000AB9012002E0FFF733FF0020DDF800E040
:080DF00001B0704750B400008F
:100C500040F20004531C1B781BB144F04004A4B2C2
:100C6000FFE7931C1B781BB144F02004A4B2FFE7FC
:100C7000137803F01F0344EA03058B00C418ABB2DA
:040C80002360704736
:101118008300084AD21810688A008218A2F1804217
:10112800520102F184421C321268012A00D0F3E70E
:08113800704700BF50B4000035
:100D800081B0CDF800E0FFF711FF00B2DDF800E020
:040D900001B07047F7
:100BAC008300074AD218126802F210038A009A18BE
:100BBC0013684FF6FF7203EA020290B2704700BF4F
:040BCC0050B4000021
:100D940082B0CDF800E01F228DF8042000228DF8E7
:100DA400052000228DF8062001AA00F00FF8DDF8D6
:060DB40000E002B07047F0
:1015D4000A46014600200D4611460A2805D20B187A
:1015E40020221A70401C80B2F7E70B1800221A70F0
:1015F400401E80B20C180A23B5FBF3F203FB12520F
:10160400303222700A22B5FBF2F2154602B902E02A
:08161400401E80B2EEE77047B2
:101784008FB072B69748009097480190974802909E
:101794009748039097480490974805909748069077
:1017A40097480790974808909748099097480A9057
:1017B40097480B90974998480C9098480D900C982E
:1017C40000F007000E9001F0010050B94CF22050D7
:1017D400934908804DF62810088040F2D2119148B0
:1017E40001800021904801609048007800F00100D9
:1017F400C0B258B18E48007800F00800C0B220B1E1
:101804008B49087840F00800087021E08948006896
:1018140040F00051874801608748006800F48070F8
:10182400B0B9854801686FF4705001EA000040F4D3
:101834004071814801608048006840F480717E48AE
:1018440001607D4801686FF4007001407A480160CE
:10185400AA217A4801700C9800F0100058B9784811
:10186400007800F09F0176480170764800780128DE
:1018740000D0FAE71BE00C9800F01000B8B10D9905
:101884007148814208D960216D4801706D48007823
:10189400802800D0FAE70AE06948007800F09F0148
:1018A4006748017067480078012800D0FAE7039977
:1018B40066480160664801686FF440200140019861
:1018C40000F44020014362480160624801686FF4FB
:1018D40040300140029800F4403001435D4801600B
:1018E4000E9830B10E98012803D00E98022800D02B
:1018F40064E0009800F0800050B9079800F04000C0
:1019040028B10A9800F00300002800D100E015E097
:101914005148006840F400714F4801604F48016825
:101924004F4801404D480160059800F0040028B17B
:101934004C4801684A4801404A48016009994A48AC
:101944000170049949480170049800F0040040B102
:101954004748007800F01000C0B2002800D1F7E733
:1019640006E04348007800F01000C0B200B1F8E788
:101974004048007800F0BF01C9B2059800F0FD00AE
:1019840001433C480170069800F0E0013A480078B1
:1019940000F01F00C0B20143374801700099374876
:1019A40001700A99364801700E98022805D1314811
:1019B400007840F002012F480170BDE0009800F06B
:1019C400800020B90A9800F0030000B166E02248C4
:1019D400006840F4007120480160204801682048F4
:1019E40001404FE0800000000000080000000100FA
:1019F4000000440122000000240000000000000058
:101A0400020000004600000000000000000000008A
:101A1400090000000000000007000000C0D401001D
:101A24000E2005400020054008ED00E000F00740CE
:101A340002D007403C80044010D0034000E007403F
:101A440001E0074003E0074080380100448004407F
:101A540000700440048004403880044048900440EE
:101A6400FFF8FFFE4C90044008400640004006404A
:101A74000640064001400640034006400050064030
:101A84000C4006407F480160059800F0040028B12E
:101A94007D4801687D4801407B48016009997C4884
:101AA40001707C48007800F0BF01C9B2059800F0CD
:101AB400FD000143774801700099774801700A9945
:101AC400764801700E98072805D1049840F08001EB
:101AD4007348017002E0049971480170059800F0A0
:101AE400040050B10A9800F0030030B96D48007842
:101AF40000F00200C0B200B9F8E7049800F0040056
:101B040040B16848007800F01000C0B2002800D14D
:101B1400F7E706E06348007800F01000C0B200B1B7
:101B2400F8E7069800F0E0015F48007800F01F0035
:101B3400C0B201435C480170079800F0BF015B48E4
:101B44000170089800F0BF0159480170079800F02F
:101B5400400028B15548007840F0400153480170D6
:101B64000E98052806D14B48007840F002014948F8
:101B740001701CE00E98062803D00E98072800D0A8
:101B840015E04B48007840F0400149480170454851
:101B9400007800F04000C0B200B9F8E70E980728BA
:101BA40005D13F48007800F03F013D4801700E9890
:101BB40018B10E98032800D029E03A48007800F0C4
:101BC4000C00C0B200B1F8E73A48006840F00101E7
:101BD400384801600021384801608021374801609D
:101BE4000521374801600121344801603348006809
:101BF40000F0800000B9F9E70021304801602D4869
:101C040001686FF0010001402A4801602DE00E9840
:101C1400012803D00E98022800D008E0214800785B
:101C240000F00C00C0B2042800D0F7E71DE00E98C5
:101C3400042806D00E98062803D00E98052800D054
:101C440008E01848007800F00C00C0B2082800D062
:101C5400F7E70AE00E98072807D11248007800F049
:101C64000C00C0B20C2800D0F7E7164801686FF0EA
:101C74000F0001400B9800F00F0001431148016070
:101C84000FB07047489004404C900440FFF8FFFEAA
:101C94000840064001400640005006400C40064003
:101CA400004006400640064003400640044006400B
:101CB4000540064038800440080004400000044009
:081CC4000400044048800440C4
:101CCC000149024801607047C0D401004848FF1F19
:001CDC0008
:040FF800FEE7704759
:1017440072B60349086840F470000860704700BF2F
:0417540088ED00E03C
:10B4580000B5DFF814B0DFF814A0DFF814C0F6F771
:10B46800D9F800BD704700BF0000FF1F1C00FF1F78
:04B4780024B40000F8
:10B4D80000B5DFF810B0DFF810A0F6F713F900BDDB
:0CB4E800704700BF0000FF1F5448FF1F0A
:101758004FF0FF31064801600649086818B10121B9
:101768000548017002E0002103480170704700BF7E
:0C177800A0A00440340AFE430B00FF1F39
:0203FE00BB5BE7
:100400000000000000000000FFFFFFFF02FDFFFFF3
:101CDC000010600060000000000000000000000028
:101CEC0000000000000000000000000000000000E8
:101CFC0000000000000000000000000000000000D8
:101D0C0000000000000000000000000000000000C7
:101D1C0000000000000000000000000000000000B7
:10232C000000FFFFFFFF00000000000000000000A5
:10233C000000000000000000000000000000000091
:10234C000000000000000000000000000000000081
:10235C000000000000000000000000000000000071
:10236C000000000000000000000000000000000061
:10237C000000000000000000000000000000000051
:10238C000000000000000000000000000000000041
:10239C000000000000000000000000000000000031
:1023AC000000000000000000000000000000000021
:1023BC000000000000000000000000000000000011
:1023CC000000000000000000000000000000000001
:1023DC00000000000000FFFFFFFFFFFFFFFFFFFFFB
:1023EC000000FFFFFFFF00000000000000000000E5
:1023FC0000000000000000000000000000000000D1
:10240C0000000000000000000000000000000000C0
:10241C0000000000000000000000000000000000B0
:10242C0000000000000000000000000000000000A0
:10243C000000000000000000000000000000000090
:10244C000000000000000000000000000000000080
:10245C000000000000000000000000000000000070
:10246C000000000000000000000000000000000060
:10247C000000000000000000000000000000000050
:10248C000000000000000000000000000000000040
:10249C00000000000000FFFFFFFF00000000000034
:1024AC000000FFFFFFFF0000000000000000000024
:1024BC000000000000000000000000000000000010
:1024CC000000000000000000000000000000000000
:1024DC0000000000000000000000000000000000F0
:1024EC0000000000000000000000000000000000E0
:1024FC0000000000000000000000000000000000D0
:10250C0000000000000000000000000000000000BF
:10251C0000000000000000000000000000000000AF
:10252C00000000000000000000000000000000009F
:10253C00000000000000000000000000000000008F
:10254C00000000000000000000000000000000007F
:10255C00000000000000FFFFFFFF00000000000073
:10256C000000FFFFFFFF000000000000FFFFFFFF67
:10257C00FFFF00000000FFFFFFFFFFFFFFFFFFFF5B
:10258C000000FFFFFFFFFFFF000000000000FFFF47
:10259C00FFFFFFFFFFFF0000000000000000000035
:1025AC00000000000000000000000000000000001F
:1025BC00000000000000000000000000000000000F
:1025CC0000000000000000000000000000000000FF
:1025DC0000000000000000000000000000000000EF
:1025EC0000000000000000000000000000000000DF
:1025FC0000000000000000000000000000000000CF
:10260C0000000000000000000000000000000000BE
:10261C00000000000000FFFFFFFF000000000000B2
:10262C000000FFFFFFFF00000000FFFF00000000A4
:10263C00FFFFFFFF0000FFFFFFFF00000000FFFF98
:10264C00FFFF00000000FFFFFFFF0000FFFFFFFF88
:10265C0000000000FFFFFFFF000000000000000072
:10266C00000000000000000000000000000000005E
:10267C00000000000000000000000000000000004E
:10268C00000000000000000000000000000000003E
:10269C00000000000000000000000000000000002E
:1026AC00000000000000000000000000000000001E
:1026BC00000000000000000000000000000000000E
:1026CC0000000000000000000000000000000000FE
:1026DC00000000000000FFFFFFFFFFFFFFFFFFFFF8
:1026EC000000FFFFFFFF00000000000000000000E2
:1026FC00FFFFFFFF0000FFFFFFFF00000000FFFFD8
:10270C00FFFF00000000FFFFFFFF0000FFFFFFFFC7
:10271C0000000000FFFFFFFF0000000000000000B1
:10272C00000000000000000000000000000000009D
:10273C00000000000000000000000000000000008D
:10274C00000000000000000000000000000000007D
:10275C00000000000000000000000000000000006D
:10276C00000000000000000000000000000000005D
:10277C00000000000000000000000000000000004D
:10278C00000000000000000000000000000000003D
:10279C00000000000000FFFFFFFF00000000000031
:1027AC000000FFFFFFFF00000000FFFFFFFFFFFF27
:1027BC00FFFFFFFF0000FFFFFFFF00000000FFFF17
:1027CC00FFFF00000000FFFFFFFF0000FFFFFFFF07
:1027DC00FFFFFFFFFFFFFFFF0000000000000000F5
:1027EC0000000000000000000000000000000000DD
:1027FC0000000000000000000000000000000000CD
:10280C0000000000000000000000000000000000BC
:10281C0000000000000000000000000000000000AC
:10282C00000000000000000000000000000000009C
:10283C00000000000000000000000000000000008C
:10284C00000000000000000000000000000000007C
:10285C00000000000000FFFFFFFF00000000000070
:10286C000000FFFFFFFF0000FFFFFFFF0000000064
:10287C00FFFFFFFF0000FFFFFFFF00000000FFFF56
:10288C00FFFF00000000FFFFFFFF0000FFFFFFFF46
:10289C00000000000000000000000000000000002C
:1028AC00000000000000000000000000000000001C
:1028BC00000000000000000000000000000000000C
:1028CC0000000000000000000000000000000000FC
:1028DC0000000000000000000000000000000000EC
:1028EC0000000000000000000000000000000000DC
:1028FC0000000000000000000000000000000000CC
:10290C0000000000000000000000000000000000BB
:10291C00000000000000FFFFFFFF000000000000AF
:10292C000000FFFFFFFF0000FFFFFFFF00000000A3
:10293C00FFFFFFFF0000FFFFFFFF00000000FFFF95
:10294C00FFFF00000000FFFFFFFF0000FFFFFFFF85
:10295C00000000000000FFFF00000000000000006D
:10296C00000000000000000000000000000000005B
:10297C00000000000000000000000000000000004B
:10298C00000000000000000000000000000000003B
:10299C00000000000000000000000000000000002B
:1029AC00000000000000000000000000000000001B
:1029BC00000000000000000000000000000000000B
:1029CC0000000000000000000000000000000000FB
:1029DC00000000000000FFFFFFFF000000000000EF
:1029EC000000FFFFFFFF00000000FFFFFFFFFFFFE5
:1029FC00FFFFFFFF0000FFFFFFFF00000000FFFFD5
:102A0C00FFFF00000000FFFFFFFF00000000FFFFC2
:102A1C00FFFFFFFFFFFF00000000000000000000B0
:102A2C00000000000000000000000000000000009A
:102A3C00000000000000000000000000000000008A
:102A4C00000000000000000000000000000000007A
:102A5C00000000000000000000000000000000006A
:102E4C0000000000000000000000FFFFFFFFFFFF7C
:102E5C00FFFFFFFFFFFFFFFFFFFFFFFFFFFFFFFF76
:102E6C00FFFFFFFFFFFFFFFFFFFFFFFFFFFFFFFF66
:102E7C00FFFFFFFFFFFFFFFFFFFFFFFFFFFFFFFF56
:102E8C00FFFFFFFFFFFFFFFFFFFFFFFFFFFFFFFF46
:102E9C00FFFFFFFFFFFFFFFFFFFFFFFFFFFFFFFF36
:102EAC00FFFF000000000000000000000000000018
:102EBC000000000000000000000000000000000006
:102ECC0000000000000000000000000000000000F6
:102EDC0000000000000000000000000000000000E6
:102EEC0000000000000000000000000000000000D6
:102EFC0000000000000000000000000000000000C6
:102F0C0000000000000000007DEFFFFF8210821027
:102F1C0082108210821082108210000000000000CB
:102F2C0000000000000082108210821082108210BB
:102F3C0082108210821082108210821082108210F5
:102F4C0082108210821082108210821082108210E5
:102F5C0082108210821082108210821082108210D5
:102F6C00FFFFFFFF00000000000000000000000059
:102F7C000000000000000000000000000000000045
:102F8C000000000000000000000000000000000035
:102F9C000000000000000000000000000000000025
:102FAC000000000000000000000000000000000015
:102FBC000000000000000000000000000000000005
:102FCC000000000000003CE7FFFF000000000000D4
:102FDC0000000000000000000000000000000000E5
:102FEC0000000000000000000000000000000000D5
:102FFC0000000000000000000000000000000000C5
:10300C0000000000000000000000000000000000B4
:10301C0000000000000000000000000000000000A4
:10302C000000FFFFFFFF0000000000000000000098
:10303C000000000000000000000000000000000084
:10304C000000000000000000000000000000000074
:10305C000000000000000000000000000000000064
:10306C000000000000000000000000000000000054
:10307C000000000000000000000000000000000044
:10308C00000000000000FFFF000000000000000036
:10309C000000000000000000000000000000000024
:1030AC000000000000000000000000000000000014
:1030BC000000000000000000000000000000000004
:1030CC0000000000000000000000000000000000F4
:1030DC0000000000000000000000000000000000E4
:1030EC0000000000FFFF00000000000000000000D6
:1030FC0000000000000000000000000000000000C4
:10310C0000000000000000000000000000000000B3
:10311C0000000000000000000000000000000000A3
:10312C000000000000000000000000000000000093
:10313C000000000000000000000000000000000083
:10314C00000000000000FFFF000000000000000075
:10315C000000000000000000000000000000000063
:10316C000000000000000000000000000000000053
:10317C000000000000000000000000000000000043
:10318C000000000000000000000000000000000033
:10319C000000000000000000000000000000000023
:1031AC0000000000FFFF0000000000000000000015
:1031BC000000000000000000000000000000000003
:1031CC0000000000000000000000000000000000F3
:1031DC0000000000000000000000000000000000E3
:1031EC0000000000000000000000000000000000D3
:1031FC0000000000000000000000000000000000C3
:10320C00000000000000FFFF0000000000000000B4
:10321C0000000000000000000000000000000000A2
:10322C000000000000000000000000000000000092
:10323C000000000000000000000000000000000082
:10324C000000000000000000000000000000000072
:10325C000000000000000000000000000000000062
:10326C0000000000FFFF0000000000000000000054
:10327C000000000000000000000000000000000042
:10328C000000000000000000000000000000000032
:10329C000000000000000000000000000000000022
:1032AC000000000000000000000000000000000012
:1032BC000000000000000000000000000000000002
:1032CC00000000000000FFFF0000000000000000F4
:1032DC0000000000000000000000000000000000E2
:1032EC0000000000000000000000000000000000D2
:1032FC0000000000000000000000000000000000C2
:10330C0000000000000000000000000000000000B1
:10331C0000000000000000000000000000000000A1
:10332C0000000000FFFF0000000000000000000093
:10333C000000000000000000000000000000000081
:10334C000000000000000000000000000000000071
:10335C000000000000000000000000000000000061
:10336C000000000000000000000000000000000051
:10337C000000000000000000000000000000000041
:10338C00000000000000FFFF000000000000000033
:10339C000000000000000000000000000000000021
:1033AC000000000000000000000000000000000011
:1033BC000000000000000000000000000000000001
:1033CC0000000000000000000000000000000000F1
:1033DC0000000000000000000000000000000000E1
:1033EC0000000000FFFF00000000000000000000D3
:1033FC0000000000000000000000000000000000C1
:10340C0000000000000000000000000000000000B0
:10341C0000000000000000000000000000000000A0
:10342C000000000000000000000000000000000090
:10343C000000000000000000000000000000000080
:10344C00000000000000FFFF000000000000000072
:10345C000000000000000000000000000000000060
:10346C000000000000000000000000000000000050
:10347C0000000000000041000000000000000000FF
:10348C000000000000000000000000000000000030
:10349C000000000000000000000000000000000020
:1034AC0000000000FFFF0000000000000000000012
:1034BC000000000000000000000000000000000000
:1034CC0000000000000000000000000000000000F0
:1034DC0000000000000000000000000000000000E0
:1034EC0000000000000000000000000000000000D0
:1034FC0000000000000000000000000000000000C0
:10350C00000000000000FFFF0000000000000000B1
:10351C00000000000000000000000000000000009F
:10352C00000000000000000000000000000000008F
:10353C000000000000008801C40000000000000032
:10354C00000000000000000000000000000000006F
:10355C00000000000000000000000000000000005F
:10356C0000000000FFFF0000000000000000000051
:10357C00000000000000000000000000000000003F
:10358C00000000000000000000000000000000002F
:10359C00000000000000000000000000000000001F
:1035AC00000000000000000000000000000000000F
:1035BC0000000000000000000000000000000000FF
:1035CC00000000000000FFFF0000000000000000F1
:1035DC0000000000000000000000000000000000DF
:1035EC0000000000000000000000000000000000CF
:1035FC000000000000004801510300000000000022
:10360C0000000000000000000000000000000000AE
:10361C00000000000000000000000000000000009E
:10362C0000000000FFFF0000000000000000000090
:10363C00000000000000000000000000000000007E
:10364C00000000000000000000000000000000006E
:10365C00000000000000000000000000000000005E
:10366C00000000000000000000000000000000004E
:10367C00000000000000000000000000000000003E
:10368C00000000000000FFFF000000000000000030
:10369C00000000000000000000000000000000001E
:1036AC00000000000000000000000000000000000E
:1036BC000000000000000501FA04C4000000000036
:1036CC0000000000000000000000000000000000EE
:1036DC0000000000000000000000000000000000DE
:1036EC0000000000FFFF00000000000000000000D0
:1036FC0000000000000000000000000000000000BE
:10370C0000000000000000000000000000000000AD
:10371C00000000000000000000000000000000009D
:10372C00000000000000000000000000000000008D
:10373C00000000000000000000000000000000007D
:10374C00000000000000FFFF00000000000000006F
:10375C00000000000000000000000000000000005D
:10376C00000000000000000000000000000000004D
:10377C000000000000000501BE050B020000000067
:10378C00000000000000000000000000000000002D
:10379C00000000000000000000000000000000001D
:1037AC0000000000FFFF000000000000000000000F
:1037BC0000000000000000000000000000000000FD
:1037CC0000000000000000000000000000000000ED
:1037DC0000000000000000000000000000000000DD
:1037EC0000000000000000000000000000000000CD
:1037FC0000000000000000000000000000000000BD
:10380C00000000000000FFFF0000000000000000AE
:10381C00000000000000000000000000000000009C
:10382C00000000000000000000000000000000008C
:10383C000000000000008801FF05100300000000DC
:10384C00000000000000000000000000000000006C
:10385C00000000000000000000000000000000005C
:10386C0000000000FFFF000000000000000000004E
:10387C00000000000000000000000000000000003C
:10388C00000000000000000000000000000000002C
:10389C00000000000000000000000000000000001C
:1038AC00000000000000000000000000000000000C
:1038BC0000000000000000000000000000000000FC
:1038CC00000000000000FFFF0000000000000000EE
:1038DC0000000000000000000000000000000000DC
:1038EC0000000000000000000000000000000000CC
:1038FC00000000000000D0023F0652030000000050
:10390C0000000000000000000000000000000000AB
:10391C00000000000000000000000000000000009B
:10392C0000000000FFFF000000000000000000008D
:10393C00000000000000000000000000000000007B
:10394C00000000000000000000000000000000006B
:10395C00000000000000000000000000000000005B
:10396C00000000000000000000000000000000004B
:10397C00000000000000000000000000000000003B
:10398C00000000000000FFFF00000000000000002D
:10399C00000000000000000000000000000000001B
:1039AC00000000000000000000000000000000000B
:1039BC00000000004100B804BD05520300000000E7
:1039CC0000000000000000000000000000000000EB
:1039DC0000000000000000000000000000000000DB
:1039EC0000000000FFFF00000000000000000000CD
:1039FC0000000000000000000000000000000000BB
:103A0C0000000000000000000000000000000000AA
:103A1C00000000000000000000000000000000009A
:103A2C00000000000000000000000000000000008A
:103A3C00000000000000000000000000000000007A
:103A4C00000000000000FFFF00000000000000006C
:103A5C00000000000000000000000000000000005A
:103A6C00000000000000000000000000000000004A
:103A7C00000000000B02BE057804100300000000DB
:103A8C00000000000000000000000000000000002A
:103A9C00000000000000000000000000000000001A
:103AAC0000000000FFFF000000000000000000000C
:103ABC0000000000000000000000000000000000FA
:103ACC0000000000000000000000000000000000EA
:103ADC0000000000000000000000000000000000DA
:103AEC0000000000000000000000000000000000CA
:103AFC0000000000000000000000000000000000BA
:103B0C00000000000000FFFF0000000000000000AB
:103B1C000000000000000000000000000000000099
:103B2C000000000000000000000000000000000089
:103B3C0000008200FA04BE0552034D020000000092
:103B4C000000000000000000000000000000000069
:103B5C000000000000000000000000000000000059
:103B6C0000000000FFFF000000000000000000004B
:103B7C000000000000000000000000000000000039
:103B8C000000000000000000000000000000000029
:103B9C000000000000000000000000000000000019
:103BAC000000000000000000000000000000000009
:103BBC0000000000000000000000000000000000F9
:103BCC00000000000000FFFF0000000000000000EB
:103BDC0000000000000000000000000000000000D9
:103BEC0000000000000000000000000000000000C9
:103BFC0000001103FF0578044C02CA01000000000C
:103C0C0000000000000000000000000000000000A8
:103C1C000000000000000000000000000000000098
:103C2C0000000000FFFF000000000000000000008A
:103C3C000000000000000000000000000000000078
:103C4C000000000000000000000000000000000068
:103C5C000000000000000000000000000000000058
:103C6C000000000000000000000000000000000048
:103C7C000000000000000000000000000000000038
:103C8C00000000000000FFFF00000000000000002A
:103C9C000000000000000000000000000000000018
:103CAC000000000000000000000000000000000008
:103CBC004801BD05FF050B024C0206010000000087
:103CCC0000000000000000000000000000000000E8
:103CDC0000000000000000000000000000000000D8
:103CEC0000000000FFFF00000000000000000000CA
:103CFC0000000000000000000000000000000000B8
:103D0C0000000000000000000000000000000000A7
:103D1C000000000000000000000000000000000097
:103D2C000000000000000000000000000000000087
:103D3C000000000000000000000000000000000077
:103D4C00000000000000FFFF000000000000000069
:103D5C000000000000000000000000000000000057
:103D6C000000000000000000000000000000410006
:103D7C00B804FF05360400001103830000000000A6
:103D8C000000000000000000000000000000000027
:103D9C000000000000000000000000000000000017
:103DAC0000000000FFFF0000000000000000000009
:103DBC0000000000000000000000000000000000F7
:103DCC0000000000000000000000000000000000E7
:103DDC0000000000000000000000000000000000D7
:103DEC0000000000000000000000000000000000C7
:103DFC0000000000000000000000000000000000B7
:103E0C00000000000000FFFF0000000000000000A8
:103E1C000000000000000000000000000000000096
:103E2C000000000000000000000000000000CF02B5
:103E3C00FF053B05C400C400930300000000000014
:103E4C000000000000000000000000000000000066
:103E5C000000000000000000000000000000000056
:103E6C0000000000FFFF0000000000000000000048
:103E7C000000000000000000000000000000000036
:103E8C000000000000000000000000000000000026
:103E9C000000000000000000000000000000000016
:103EAC000000000000000000000000000000000006
:103EBC0000000000000000000000000000000000F6
:103ECC00000000000000FFFF0000000000000000E8
:103EDC0000000000000000000000000000000000D6
:103EEC0000000000000000000000000006017D053D
:103EFC00FF054C0200000B0251030000C4004200FD
:103F0C0000000000000000000000000000000000A5
:103F1C000000000000000000000000000000000095
:103F2C0000000000FFFF0000000000000000000087
:103F3C000000000000000000000000000000000075
:103F4C000000000000000000000000000000000065
:103F5C000000000000000000000000000000000055
:103F6C000000000000000000000000000000000045
:103F7C000000000000000000000000000000000035
:103F8C00000000000000FFFF000000000000000027
:103F9C000000000000000000000000000000000015
:103FAC000000000000000000000000003604FF05C7
:103FBC0078044100000052038E02420093038200F9
:103FCC0000000000000000000000000000000000E5
:103FDC0000000000000000000000000000000000D5
:103FEC0000000000FFFF00000000000000000000C7
:103FFC0000000000000000000000000000000000B5
:10400C0000000000000000000000000000000000A4
:10401C000000000000000000000000000000000094
:10402C000000000000000000000000000000000084
:10403C000000000000000000000000000000000074
:10404C00000000000000FFFF000000000000000066
:10405C000000000000000000000000000000000054
:10406C0000000000000000000000CA01BE05BF05F2
:10407C004C0200000000350410038901B904010052
:10408C000000000000000000000000000000000024
:10409C000000000000000000000000000000000014
:1040AC0000000000FFFF0000000000000000000006
:1040BC0000000000000000000000000000000000F4
:1040CC0000000000000000000000000000000000E4
:1040DC0000000000000000000000000000000000D4
:1040EC0000000000000000000000000000000000C4
:1040FC0000000000000000000000000000000000B4
:10410C00000000000000FFFF0000000000000000A5
:10411C000000000000000000000000000000000093
:10412C00000000000000000001007704BF053C0502
:10413C00C40000000000D503B804CF027D05C40004
:10414C000000000000000000000000000000000063
:10415C000000000000000000000000000000000053
:10416C0000000000FFFF0000000000000000000045
:10417C000000000000000000000000000000000033
:10418C000000000000000000000000000000000023
:10419C000000000000000000000000000000000013
:1041AC000000000000000000000000000000000003
:1041BC0000000000000000000000000000000000F3
:1041CC00000000000000FFFF0000000000000000E5
:1041DC0000000000000000000000000000000000D3
:1041EC0000000000000000008801BE05BE05B804F8
:1041FC00000000000000D002BF05FA04BF058E02CB
:10420C0000000000000000000000000000000000A2
:10421C000000000000000000000000000000000092
:10422C0000000000FFFF0000000000000000000084
:10423C000000000000000000000000000000000072
:10424C000000000000000000000000000000000062
:10425C000000000000000000000000000000000052
:10426C000000000000000000000000000000000042
:10427C000000000000000000000000000000000032
:10428C00000000000000FFFF000000000000000024
:10429C000000000000000000000000000000000012
:1042AC0000000000000000005203BF05BE053604EC
:1042BC000000000000004701BE05BE05BE05FA0463
:1042CC008200000000000000000000000000000060
:1042DC0000000000000000000000000000000000D2
:1042EC0000000000FFFF00000000000000000000C4
:1042FC0000000000000000000000000000000000B2
:10430C0000000000000000000000000000000000A1
:10431C000000000000000000000000000000000091
:10432C000000000000000000000000000000000081
:10433C000000000000000000000000000000000071
:10434C00000000000000FFFF000000000000000063
:10435C000000000000000000000000000000000051
:10436C000000000000004100B904BE05BE05770442
:10437C0000000000000001003604BF057D05BF05EC
:10438C00D00200000000000000000000000000004F
:10439C000000000000000000000000000000000011
:1043AC0000000000FFFF0000000000000000000003
:1043BC0000000000000000000000000000000000F1
:1043CC0000000000000000000000000000000000E1
:1043DC0000000000000000000000000000000000D1
:1043EC0000000000000000000000000000000000C1
:1043FC0000000000000000000000000000000000B1
:10440C00000000000000FFFF0000000000000000A2
:10441C000000000000000000000000000000000090
:10442C00000000000000C4007C05BD05BE05FA04B8
:10443C00420000000000000047017D05BD05BE05DF
:10444C003C05C4000000000000000000000000005B
:10445C000000000000000000000000000000000050
:10446C0000000000FFFF0000000000000000000042
:10447C000000000000000000000000000000000030
:10448C000000000000000000000000000000000020
:10449C000000000000000000000000000000000010
:1044AC000000000000000000000000000000000000
:1044BC0000000000000000000000000000000000F0
:1044CC00000000000000FFFF0000000000000000E2
:1044DC0000000000000000000000000000000000D0
:1044EC0000000000000047017D05BD057D05BE05EF
:1044FC0088010000000000000000CF02BF057D0510
:10450C00FF05D002000000000000000000000000C9
:10451C00000000000000000000000000000000008F
:10452C0000000000FFFF0000000000000000000081
:10453C00000000000000000000000000000000006F
:10454C00000000000000000000000000000000005F
:10455C00000000000000000000000000000000004F
:10456C00000000000000000000000000000000003F
:10457C00000000000000000000000000000000002F
:10458C00000000000000FFFF000000000000000021
:10459C00000000000000000000000000000000000F
:1045AC0000000000000047017D05BD057D05BF052D
:1045BC009303000000000000000041007704BE05DA
:1045CC00BE05B8040100000000000000000000005F
:1045DC0000000000000000000000000000000000CF
:1045EC0000000000FFFF00000000000000000000C1
:1045FC0000000000000000000000000000000000AF
:10460C00000000000000000000000000000000009E
:10461C00000000000000000000000000000000008E
:10462C00000000000000000000000000000000007E
:10463C00000000000000000000000000000000006E
:10464C00000000000000FFFF000000000000000060
:10465C00000000000000000000000000000000004E
:10466C0000000000000006017C05BD057D05BD05B0
:10467C007D054701000000000000000006017D05DB
:10468C00BE057C05C4000000000000000000000016
:10469C00000000000000000000000000000000000E
:1046AC0000000000FFFF0000000000000000000000
:1046BC0000000000000000000000000000000000EE
:1046CC0000000000000000000000000000000000DE
:1046DC0000000000000000000000000000000000CE
:1046EC0000000000000000000000000000000000BE
:1046FC0000000000000000000000000000000000AE
:10470C00000000000000FFFF00000000000000009F
:10471C00000000000000000000000000000000008D
:10472C0000000000000083003C05BE057D057D05F2
:10473C00BE05B80442000000000000000000520357
:10474C00FF057D0546010000000000000000000090
:10475C00000000000000000000000000000000004D
:10476C0000000000FFFF000000000000000000003F
:10477C00000000000000000000000000000000002D
:10478C00000000000000000000000000000000001D
:10479C00000000000000000000000000000000000D
:1047AC0000000000000000000000000000000000FD
:1047BC0000000000000000000000000000000000ED
:1047CC00000000000000FFFF0000000000000000DF
:1047DC0000000000000000000000000000000000CD
:1047EC000000000000000100B804BE057D057D0539
:1047FC007D05BF05110300000000000000008801CA
:10480C00BE057D0546010000000000000000000010
:10481C00000000000000000000000000000000008C
:10482C0000000000FFFF000000000000000000007E
:10483C00000000000000000000000000000000006C
:10484C00000000000000000000000000000000005C
:10485C00000000000000000000000000000000004C
:10486C00000000000000000000000000000000003C
:10487C00000000000000000000000000000000002C
:10488C00000000000000FFFF00000000000000001E
:10489C00000000000000000000000000000000000C
:1048AC0000000000000000005203FF057D057D059F
:1048BC007D05BD057D0547010000000000000501D8
:1048CC007C057C0583000000000000000000000057
:1048DC0000000000000000000000000000000000CC
:1048EC0000000000FFFF00000000000000000000BE
:1048FC0000000000000000000000000000000000AC
:10490C00000000000000000000000000000000009B
:10491C00000000000000000000000000000000008B
:10492C00000000000000000000000000000000007B
:10493C00000000000000000000000000000000006B
:10494C00000000000000FFFF00000000000000005D
:10495C00000000000000000000000000000000004B
:10496C0000000000000000008901BE057D057D05EA
:10497C007D057D05BF059403000000000000460185
:10498C00BE057704000000000000000000000000DD
:10499C00000000000000000000000000000000000B
:1049AC0000000000FFFF00000000000000000000FD
:1049BC0000000000000000000000000000000000EB
:1049CC0000000000000000000000000000000000DB
:1049DC0000000000000000000000000000000000CB
:1049EC0000000000000000000000000000000000BB
:1049FC0000000000000000000000000000000000AB
:104A0C00000000000000FFFF00000000000000009C
:104A1C00000000000000000000000000000000008A
:104A2C00000000000000000041007704BF057D0578
:104A3C007D057D05BE05FA048200000000008E0293
:104A4C003F060B0200000000000000000000000008
:104A5C00000000000000000000000000000000004A
:104A6C0000000000FFFF000000000000000000003C
:104A7C00000000000000000000000000000000002A
:104A8C00000000000000000000000000000000001A
:104A9C00000000000000000000000000000000000A
:104AAC0000000000000000000000000000000000FA
:104ABC0000000000000000000000000000000000EA
:104ACC00000000000000FFFF0000000000000000DC
:104ADC0000000000000000000000000000000000CA
:104AEC000000000000000000000047017D05BE052D
:104AFC007D057D05BD057C05C5000000C4007D0558
:104B0C00D5030000000000000000000000000000C1
:104B1C000000000000000000000000000000000089
:104B2C0000000000FFFF000000000000000000007B
:104B3C000000000000000000000000000000000069
:104B4C000000000000000000000000000000000059
:104B5C000000000000000000000000000000000049
:104B6C000000000000000000000000000000000039
:104B7C000000000000000000000000000000000029
:104B8C00000000000000FFFF00000000000000001B
:104B9C000000000000000000000000000000000009
:104BAC000000000000000000000000000B027D056A
:104BBC00BF05BD05BE05FA0442004701FA047604A0
:104BCC008200000000000000000000000000000057
:104BDC0000000000000000000000000000000000C9
:104BEC0000000000FFFF00000000000000000000BB
:104BFC0000000000000000000000000000000000A9
:104C0C000000000000000000000000000000000098
:104C1C000000000000000000000000000000000088
:104C2C000000000000000000000000000000000078
:104C3C000000000000000000000000000000000068
:104C4C00000000000000FFFF00000000000000005A
:104C5C000000000000000000000000000000000048
:104C6C0000000000000000000000000000004701F0
:104C7C0036047D05BF05B8041103B904CF0200004A
:104C8C000000000000000000000000000000000018
:104C9C000000000000000000000000000000000008
:104CAC0000000000FFFF00000000000000000000FA
:104CBC0000000000000000000000000000000000E8
:104CCC0000000000000000000000000000000000D8
:104CDC0000000000000000000000000000000000C8
:104CEC0000000000000000000000000000000000B8
:104CFC0000000000000000000000000000000000A8
:104D0C00000000000000FFFF000000000000000099
:104D1C000000000000000000000000000000000087
:104D2C000000000000000000000000000000000077
:104D3C00000005010A020A0289014200000000007D
:104D4C000000000000000000000000000000000057
:104D5C000000000000000000000000000000000047
:104D6C0000000000FFFF0000000000000000000039
:104D7C000000000000000000000000000000000027
:104D8C000000000000000000000000000000000017
:104D9C000000000000000000000000000000000007
:104DAC0000000000000000000000000000000000F7
:104DBC0000000000000000000000000000000000E7
:104DCC00000000000000FFFF0000000000000000D9
:104DDC0000000000000000000000000000000000C7
:104DEC0000000000000000000000000000000000B7
:104DFC0000000000000000000000000000000000A7
:104E0C000000000000000000000000000000000096
:104E1C000000000000000000000000000000000086
:104E2C0000000000FFFF0000000000000000000078
:104E3C000000000000000000000000000000000066
:104E4C000000000000000000000000000000000056
:104E5C000000000000000000000000000000000046
:104E6C000000000000000000000000000000000036
:104E7C000000000000000000000000000000000026
:104E8C00000000000000FFFF000000000000000018
:104E9C000000000000000000000000000000000006
:104EAC0000000000000000000000000000000000F6
:104EBC0000000000000000000000000000000000E6
:104ECC0000000000000000000000000000000000D6
:104EDC0000000000000000000000000000000000C6
:104EEC0000000000FFFF00000000000000000000B8
:104EFC0000000000000000000000000000000000A6
:104F0C000000000000000000000000000000000095
:104F1C000000000000000000000000000000000085
:104F2C000000000000000000000000000000000075
:104F3C000000000000000000000000000000000065
:104F4C00000000000000FFFF000000000000000057
:104F5C000000000000000000000000000000000045
:104F6C000000000000000000000000000000000035
:104F7C000000000000000000000000000000000025
:104F8C000000000000000000000000000000000015
:104F9C000000000000000000000000000000000005
:104FAC0000000000FFFF00000000000000000000F7
:104FBC0000000000000000000000000000000000E5
:104FCC0000000000000000000000000000000000D5
:104FDC0000000000000000000000000000000000C5
:104FEC0000000000000000000000000000000000B5
:104FFC0000000000000000000000000000000000A5
:10500C00000000000000FFFF000000000000000096
:10501C000000000000000000000000000000000084
:10502C000000000000000000000000000000000074
:10503C000000000000000000000000000000000064
:10504C000000000000000000000000000000000054
:10505C000000000000000000000000000000000044
:10506C0000000000FFFF0000000000000000000036
:10507C000000000000000000000000000000000024
:10508C000000000000000000000000000000000014
:10509C000000000000000000000000000000000004
:1050AC0000000000000000000000000000000000F4
:1050BC0000000000000000000000000000000000E4
:1050CC00000000000000FFFF0000000000000000D6
:1050DC0000000000000000000000000000000000C4
:1050EC0000000000000000000000000000000000B4
:1050FC0000000000000000000000000000000000A4
:10510C000000000000000000000000000000000093
:10511C000000000000000000000000000000000083
:10512C0000000000FFFF0000000000000000000075
:10513C000000000000000000000000000000000063
:10514C000000000000000000000000000000000053
:10515C000000000000000000000000000000000043
:10516C000000000000000000000000000000000033
:10517C000000000000000000000000000000000023
:10518C00000000000000FFFFFFFF00000000000017
:10519C000000000000000000000000000000000003
:1051AC0000000000000000000000000000000000F3
:1051BC0000000000000000000000000000000000E3
:1051CC0000000000000000000000000000000000D3
:1051DC0000000000000000000000000000000000C3
:1051EC000000FFFFFFFF00000000000000000000B7
:1051FC0000000000000000000000000000000000A3
:10520C000000000000000000000000000000000092
:10521C000000000000000000000000000000000082
:10522C000000000000000000000000000000000072
:10523C000000000000000000000000000000000062
:10524C000000000000000000FFFFFFFF0000000056
:10525C000000000000000000000000000000000042
:10526C000000000000000000000000000000000032
:10527C000000000000000000000000000000000022
:10528C000000000000000000000000000000000012
:10529C000000000000000000000000000000000002
:1052AC00FFFFFFFF000000000000000000000000F6
:1052BC0000000000000000000000000000000000E2
:1052CC0000000000000000000000000000000000D2
:1052DC0000000000000000000000000000000000C2
:1052EC0000000000000000000000000000000000B2
:1052FC0000000000000000000000000000000000A2
:10530C0000000000000000000000FFFFFFFFFFFF97
:10531C00FFFFFFFFFFFFFFFFFFFFFFFFFFFFFFFF91
:10532C00FFFFFFFFFFFFFFFFFFFFFFFFFFFFFFFF81
:10533C00FFFFFFFFFFFFFFFFFFFFFFFFFFFFFFFF71
:10534C00FFFFFFFFFFFFFFFFFFFFFFFFFFFFFFFF61
:10535C00FFFFFFFFFFFFFFFFFFFFFFFFFFFFFFFF51
:10536C00FFFF000000000000000000000000000033
:10537C000000000000000000000000000000000021
:10538C000000000000000000000000000000000011
:10539C000000000000000000000000000000000001
:1053AC0000000000000000000000000000000000F1
:0664DC00000000000000BA
:1064E20000106000600000000000000000000000DA
:1064F200000000000000000000000000000000009A
:106502000000000000000000000000000000000089
:106512000000000000000000000000000000000079
:106522000000000000000000000000000000000069
:106B32000000FFFFFFFF0000000000000000000057
:106B42000000000000000000000000000000000043
:106B52000000000000000000000000000000000033
:106B62000000000000000000000000000000000023
:106B72000000000000000000000000000000000013
:106B82000000000000000000000000000000000003
:106B920000000000000000000000000000000000F3
:106BA20000000000000000000000000000000000E3
:106BB20000000000000000000000000000000000D3
:106BC20000000000000000000000000000000000C3
:106BD20000000000000000000000000000000000B3
:106BE200000000000000FFFFFFFFFFFFFFFFFFFFAD
:106BF2000000FFFFFFFF0000000000000000000097
:106C02000000000000000000000000000000000082
:106C12000000000000000000000000000000000072
:106C22000000000000000000000000000000000062
:106C32000000000000000000000000000000000052
:106C42000000000000000000000000000000000042
:106C52000000000000000000000000000000000032
:106C62000000000000000000000000000000000022
:106C72000000000000000000000000000000000012
:106C82000000000000000000000000000000000002
:106C920000000000000000000000000000000000F2
:106CA200000000000000FFFFFFFF000000000000E6
:106CB2000000FFFFFFFF00000000000000000000D6
:106CC20000000000000000000000000000000000C2
:106CD20000000000000000000000000000000000B2
:106CE20000000000000000000000000000000000A2
:106CF2000000000000000000000000000000000092
:106D02000000000000000000000000000000000081
:106D12000000000000000000000000000000000071
:106D22000000000000000000000000000000000061
:106D32000000000000000000000000000000000051
:106D42000000000000000000000000000000000041
:106D52000000000000000000000000000000000031
:106D6200000000000000FFFFFFFF00000000000025
:106D72000000FFFFFFFF000000000000FFFFFFFF19
:106D8200FFFF00000000FFFFFFFFFFFFFFFFFFFF0D
:106D92000000FFFFFFFFFFFF000000000000FFFFF9
:106DA200FFFFFFFFFFFF00000000000000000000E7
:106DB20000000000000000000000000000000000D1
:106DC20000000000000000000000000000000000C1
:106DD20000000000000000000000000000000000B1
:106DE20000000000000000000000000000000000A1
:106DF2000000000000000000000000000000000091
:106E02000000000000000000000000000000000080
:106E12000000000000000000000000000000000070
:106E2200000000000000FFFFFFFF00000000000064
:106E32000000FFFFFFFF00000000FFFF0000000056
:106E4200FFFFFFFF0000FFFFFFFF00000000FFFF4A
:106E5200FFFF00000000FFFFFFFF0000FFFFFFFF3A
:106E620000000000FFFFFFFF000000000000000024
:106E72000000000000000000000000000000000010
:106E82000000000000000000000000000000000000
:106E920000000000000000000000000000000000F0
:106EA20000000000000000000000000000000000E0
:106EB20000000000000000000000000000000000D0
:106EC20000000000000000000000000000000000C0
:106ED20000000000000000000000000000000000B0
:106EE200000000000000FFFFFFFFFFFFFFFFFFFFAA
:106EF2000000FFFFFFFF0000000000000000000094
:106F0200FFFFFFFF0000FFFFFFFF00000000FFFF89
:106F1200FFFF00000000FFFFFFFF0000FFFFFFFF79
:106F220000000000FFFFFFFF000000000000000063
:106F3200000000000000000000000000000000004F
:106F4200000000000000000000000000000000003F
:106F5200000000000000000000000000000000002F
:106F6200000000000000000000000000000000001F
:106F7200000000000000000000000000000000000F
:106F820000000000000000000000000000000000FF
:106F920000000000000000000000000000000000EF
:106FA200000000000000FFFFFFFF000000000000E3
:106FB2000000FFFFFFFF00000000FFFFFFFFFFFFD9
:106FC200FFFFFFFF0000FFFFFFFF00000000FFFFC9
:106FD200FFFF00000000FFFFFFFF0000FFFFFFFFB9
:106FE200FFFFFFFFFFFFFFFF0000000000000000A7
:106FF200000000000000000000000000000000008F
:10700200000000000000000000000000000000007E
:10701200000000000000000000000000000000006E
:10702200000000000000000000000000000000005E
:10703200000000000000000000000000000000004E
:10704200000000000000000000000000000000003E
:10705200000000000000000000000000000000002E
:10706200000000000000FFFFFFFF00000000000022
:107072000000FFFFFFFF0000FFFFFFFF0000000016
:10708200FFFFFFFF0000FFFFFFFF00000000FFFF08
:10709200FFFF00000000FFFFFFFF0000FFFFFFFFF8
:1070A20000000000000000000000000000000000DE
:1070B20000000000000000000000000000000000CE
:1070C20000000000000000000000000000000000BE
:1070D20000000000000000000000000000000000AE
:1070E200000000000000000000000000000000009E
:1070F200000000000000000000000000000000008E
:10710200000000000000000000000000000000007D
:10711200000000000000000000000000000000006D
:10712200000000000000FFFFFFFF00000000000061
:107132000000FFFFFFFF0000FFFFFFFF0000000055
:10714200FFFFFFFF0000FFFFFFFF00000000FFFF47
:10715200FFFF00000000FFFFFFFF0000FFFFFFFF37
:10716200000000000000FFFF00000000000000001F
:10717200000000000000000000000000000000000D
:1071820000000000000000000000000000000000FD
:1071920000000000000000000000000000000000ED
:1071A20000000000000000000000000000000000DD
:1071B20000000000000000000000000000000000CD
:1071C20000000000000000000000000000000000BD
:1071D20000000000000000000000000000000000AD
:1071E200000000000000FFFFFFFF000000000000A1
:1071F2000000FFFFFFFF00000000FFFFFFFFFFFF97
:10720200FFFFFFFF0000FFFFFFFF00000000FFFF86
:10721200FFFF00000000FFFFFFFF00000000FFFF74
:10722200FFFFFFFFFFFF0000000000000000000062
:10723200000000000000000000000000000000004C
:10724200000000000000000000000000000000003C
:10725200000000000000000000000000000000002C
:10726200000000000000000000000000000000001C
:1076520000000000000000000000FFFFFFFFFFFF2E
:10766200FFFFFFFFFFFFFFFFFFFFFFFFFFFFFFFF28
:10767200FFFFFFFFFFFFFFFFFFFFFFFFFFFFFFFF18
:10768200FFFFFFFFFFFFFFFFFFFFFFFFFFFFFFFF08
:10769200FFFFFFFFFFFFFFFFFFFFFFFFFFFFFFFFF8
:1076A200FFFFFFFFFFFFFFFFFFFFFFFFFFFFFFFFE8
:1076B200FFFF0000000000000000000000000000CA
:1076C20000000000000000000000000000000000B8
:1076D20000000000000000000000000000000000A8
:1076E2000000000000000000000000000000000098
:1076F2000000000000000000000000000000000088
:107702000000000000000000000000000000000077
:1077120000000000000000007DEFFFFF82108210D9
:10772200821082108210821082100000000000007D
:10773200000000000000821082108210821082106D
:1077420082108210821082108210821082108210A7
:107752008210821082108210821082108210821097
:107762008210821082108210821082108210821087
:10777200FFFFFFFF0000000000000000000000000B
:1077820000000000000000000000000000000000F7
:1077920000000000000000000000000000000000E7
:1077A20000000000000000000000000000000000D7
:1077B20000000000000000000000000000000000C7
:1077C20000000000000000000000000000000000B7
:1077D2000000000000003CE7FFFF00000000000086
:1077E2000000000000000000000000000000000097
:1077F2000000000000000000000000000000000087
:107802000000000000000000000000000000000076
:107812000000000000000000000000000000000066
:107822000000000000000000000000000000000056
:107832000000FFFFFFFF000000000000000000004A
:107842000000000000000000000000000000000036
:107852000000000000000000000000000000000026
:107862000000000000000000000000000000000016
:107872000000000000000000000000000000000006
:1078820000000000000000000000000000000000F6
:10789200000000000000FFFF0000000000000000E8
:1078A20000000000000000000000000000000000D6
:1078B20000000000000000000000000000000000C6
:1078C20000000000000000000000000000000000B6
:1078D20000000000000000000000000000000000A6
:1078E2000000000000000000000000000000000096
:1078F20000000000FFFF0000000000000000000088
:107902000000000000000000000000000000000075
:107912000000000000000000000000000000000065
:107922000000000000000000000000000000000055
:107932000000000000000000000000000000000045
:107942000000000000000000000000000000000035
:10795200000000000000FFFF000000000000000027
:107962000000000000000000000000000000000015
:107972000000000000000000000000000000000005
:1079820000000000000000000000000000000000F5
:1079920000000000000000000000000000000000E5
:1079A20000000000000000000000000000000000D5
:1079B20000000000FFFF00000000000000000000C7
:1079C20000000000000000000000000000000000B5
:1079D20000000000000000000000000000000000A5
:1079E2000000000000000000000000000000000095
:1079F2000000000000000000000000000000000085
:107A02000000000000000000000000000000000074
:107A1200000000000000FFFF000000000000000066
:107A22000000000000000000000000000000000054
:107A32000000000000000000000000000000000044
:107A42000000000000000000000000000000000034
:107A52000000000000000000000000000000000024
:107A62000000000000000000000000000000000014
:107A720000000000FFFF0000000000000000000006
:107A820000000000000000000000000000000000F4
:107A920000000000000000000000000000000000E4
:107AA20000000000000000000000000000000000D4
:107AB20000000000000000000000000000000000C4
:107AC20000000000000000000000000000000000B4
:107AD200000000000000FFFF0000000000000000A6
:107AE2000000000000000000000000000000000094
:107AF2000000000000000000000000000000000084
:107B02000000000000000000000000000000000073
:107B12000000000000000000000000000000000063
:107B22000000000000000000000000000000000053
:107B320000000000FFFF0000000000000000000045
:107B42000000000000000000000000000000000033
:107B52000000000000000000000000000000000023
:107B62000000000000000000000000000000000013
:107B72000000000000000000000000000000000003
:107B820000000000000000000000000000000000F3
:107B9200000000000000FFFF0000000000000000E5
:107BA20000000000000000000000000000000000D3
:107BB20000000000000000000000000000000000C3
:107BC20000000000000000000000000000000000B3
:107BD20000000000000000000000000000000000A3
:107BE2000000000000000000000000000000000093
:107BF20000000000FFFF0000000000000000000085
:107C02000000000000000000000000000000000072
:107C12000000000000000000000000000000000062
:107C22000000000000000000000000000000000052
:107C32000000000000000000000000000000000042
:107C42000000000000000000000000000000000032
:107C5200000000000000FFFF000000000000000024
:107C62000000000000000000000000000000000012
:107C72000000000000000000000000000000000002
:107C82000000000000008210000000000000000060
:107C920000000000000000000000000000000000E2
:107CA20000000000000000000000000000000000D2
:107CB20000000000FFFF00000000000000000000C4
:107CC20000000000000000000000000000000000B2
:107CD20000000000000000000000000000000000A2
:107CE2000000000000000000000000000000000092
:107CF2000000000000000000000000000000000082
:107D02000000000000000000000000000000000071
:107D1200000000000000FFFF000000000000000063
:107D22000000000000000000000000000000000051
:107D32000000000000000000000000000000000041
:107D42000000000000008631C7390000000000007A
:107D52000000000000000000000000000000000021
:107D62000000000000000000000000000000000011
:107D720000000000FFFF0000000000000000000003
:107D820000000000000000000000000000000000F1
:107D920000000000000000000000000000000000E1
:107DA20000000000000000000000000000000000D1
:107DB20000000000000000000000000000000000C1
:107DC20000000000000000000000000000000000B1
:107DD200000000000000FFFF0000000000000000A3
:107DE2000000000000000000000000000000000091
:107DF2000000000000000000000000000000000081
:107E0200000000000000C31834A541080000000073
:107E12000000000000000000000000000000000060
:107E22000000000000000000000000000000000050
:107E320000000000FFFF0000000000000000000042
:107E42000000000000000000000000000000000030
:107E52000000000000000000000000000000000020
:107E62000000000000000000000000000000000010
:107E72000000000000000000000000000000000000
:107E820000000000000000000000000000000000F0
:107E9200000000000000FFFF0000000000000000E2
:107EA20000000000000000000000000000000000D0
:107EB20000000000000000000000000000000000C0
:107EC2000000000000000000BAD68A520000000044
