:10000000FCFF0220591C0000251C0000251C0000DC
:10001000251C0000251C0000251C0000251C0000DC
:10002000251C0000251C0000251C0000251C0000CC
:10003000251C0000251C0000251C0000251C0000BC
:10004000251C0000251C0000251C0000251C0000AC
:10005000251C0000251C0000251C0000251C00009C
:10006000251C0000251C0000251C0000251C00008C
:10007000251C0000251C0000251C0000251C00007C
:10008000251C0000251C0000251C0000251C00006C
:10009000251C0000251C0000251C0000251C00005C
:1000A000251C0000251C0000251C0000251C00004C
:1000B000251C0000251C0000251C0000251C00003C
:1000C000251C0000251C0000251C0000251C00002C
:1000D000251C0000251C0000251C0000251C00001C
:1000E000251C0000251C0000251C0000251C00000C
:1000F000251C0000251C0000251C0000251C0000FC
:10010000251C0000251C0000251C0000251C0000EB
:10011000251C0000251C0000251C0000251C0000DB
:10012000251C0000251C0000251C0000251C0000CB
:10013000251C0000251C0000251C0000251C0000BB
:10014000251C0000251C0000251C0000251C0000AB
:10015000251C0000251C0000251C0000251C00009B
:10016000251C0000251C0000251C0000251C00008B
:10017000251C0000251C0000251C0000251C00007B
:10018000251C0000251C0000251C0000251C00006B
:08019000251C0000251C0000E5
:101C580000F028F8FFF7E6FF05F0EEFAFFF7EEFFD1
:101C680005F09CFAFFF73EFFFFF7DEFEFFF766FF81
:101C78000B4810ED000ABCEE400A10EE100A80B2C4
:101C8800FFF7ECFE42F6FE47C0F2311700BF00BF77
:101C98007F1EFDD100BF00BF00BFE5E7FEE700BF24
:041CA8001C00FF1FFE
:101A1C0081B01CF8019B0BF8019BBBEB0A0FF8D1B2
:041A2C0001B070474E
:101BE80081B04FF000094FF0000CBDEB0A0F04DC88
:101BF800BDEB0B0F01DBD446EA464BF8049BBBEB6D
:101C08000A0FFAD1BCEB0A0F05DDE246D9F800B09D
:0A1C18000BF1040BF1E701B0704777
:101AEC0081B0CDF800E0FFF753FD10480022002133
:101AFC00FFF7C0FE0E48002240F20001FFF72AFF5C
:101B0C004B2219210B48FFF759FFFFF79FFE40F6B8
:101B1C00FE07C0F23D0700BF00BF7F1EFDD100BF16
:101B2C0000BF00BFDDF800E001B07047F4210000F9
:081B3C00FA6900000000FF1F20
:10159C0081B0CDF800E00321A24801700021A248DF
:1015AC0001604FF40051A148FFF796FD4FF4004144
:1015BC009F48FFF791FD4FF040019E48FFF78CFDCF
:1015CC004FF480119C48FFF787FD9C4A9C499D482D
:1015DC00FFF78EFDFFF7A2FDFFF772FD002149B268
:1015EC0099480160FFF76CFD012149B296480160F2
:1015FC00FFF766FDFFF722FD0121FD20FFF726FD19
:10160C0008B102200AE100211220FFF71FFD08B1EA
:10161C00022003E10121FD20FFF718FD08B1022093
:10162C00FCE00021B120FFF711FD08B10220F5E02C
:10163C000121AE20FFF70AFD08B10220EEE00121E6
:10164C00B320FFF703FD08B10220E7E00021F120F1
:10165C00FFF7FCFC08B10220E0E00121CA20FFF7F3
:10166C00F5FC08B10220D9E000215F20FFF7EEFC69
:10167C0008B10220D2E00121A020FFF7E7FC08B15D
:10168C000220CBE000216020FFF7E0FC08B1022033
:10169C00C4E001211520FFF7D9FC08B10220BDE000
:1016AC0000210020FFF7D2FC08B10220B6E0002197
:1016BC005F20FFF7CBFC08B10220AFE001217520C1
:1016CC00FFF7C4FC08B10220A8E000210020FFF7BE
:1016DC00BDFC08B10220A1E000215F20FFF7B6FCA1
:1016EC0008B102209AE00121A120FFF7AFFC08B15C
:1016FC00022093E000218020FFF7A8FC08B1022013
:10170C008CE00121A220FFF7A1FC08B1022085E0AA
:10171C0000216020FFF79AFC08B102207EE0012135
:10172C00B120FFF793FC08B1022077E001213220B1
:10173C00FFF78CFC08B1022070E00121BE20FFF7FE
:10174C0085FC08B1022069E001210520FFF77EFC31
:10175C0008B1022062E00121A620FFF777FC08B156
:10176C0002205BE00121C120FFF770FC08B10220D0
:10177C0054E000218A20FFF769FC08B102204DE0FB
:10178C0000215120FFF762FC08B1022046E0002145
:10179C008A20FFF75BFC08B102203FE00121C72043
:1017AC00FFF754FC08B1022038E00021CF20FFF7EE
:1017BC004DFC08B1022031E00121B420FFF746FCBA
:1017CC0008B102202AE00021A020FFF73FFC08B15D
:1017DC00022023E00021B520FFF738FC08B10220DD
:1017EC001CE000215520FFF731FC08B1022015E068
:1017FC000121B620FFF72AFC08B102200EE00021DF
:10180C000120FFF723FC08B1022007E00121AF20E3
:10181C00FFF71CFC08B1022000E00020DDF800E01E
:10182C0001B070474A48FF1F4C48FF1F80F00F4023
:10183C00C0F00F4000F10F4040F00F408C700000E2
:0C184C0007000084C0E1E4001820FE4307
:1010E40081B0CDF800E0034AFFF790FCDDF800E0A2
:0810F40001B070470401040083
:100A100081B0CDF800E0FFF77BFFDDF800E001B02A
:020A200070471D
:1009100083B0CDF800E006460C4615463046FFF79A
:100920007DFD40F2FF1306EA0300800900262246FF
:100930002946202E39D24FF0010303FA06F402EAC9
:1009400004031F46A3422ED104031A4B1C19B30003
:10095000E51801952C68184B04EA03032B60174B2C
:1009600001EA0304019B1B6843EA0404019B1C6029
:1009700001F48033B3F5803F15D08401104B1B196F
:100980001433029301F400333BB1FC43029B1B6818
:1009900003EA0404029B1C6005E0029B1B6843EA17
:1009A0000704029B1C60761CC3E7DDF800E003B07F
:1009B000704700BF009004400000FFFFFFFF0000F1
:0409C00000F00F40F4
:10041C0081B040F2FF1100EA01018909084600F29F
:10042C0009024FF0010101FA02F20449096841EA9C
:10043C00020202490A6001B0704700BF38800440D4
:00044C00B0
:1010FC0081B0CDF800E003460C4615460648FFF7D4
:10110C009BFD224619462B460348FFF7CBFDDDF825
:0C111C0000E001B0704700BF00C00A40B6
:100C440081B00F49884206D10E4A0F490A600F4A03
:100C54000F490A6012E00F49884206D10E4A0A4938
:100C64000A600E4A0A490A6008E00D49884205D123
:100C74000C4A05490A600C4A05490A6001B07047EC
:100C840000C00240FFFFFFFF6048FF1FFFFFFFFFA0
:100C94006448FF1F00D00240FFFFFFFFFFFFFFFF7C
:0C0CA40000C00A40410A0000FFFFFFFFF3
:100CB00084B0CDF800E00391014610460190029106
:100CC0001846FFF77FFE0299019800F010042409EE
:100CD0002746019002910846FFF7CEFC0299029147
:100CE0000846FFF7EDFC0299019800F000450C68FA
:100CF0002C430C6000F080450C682C430C600C68A1
:100D000044F440540C600D686FF4804405EA040418
:100D10000C6001F20C05BC002E1900F00F053468C0
:100D20002C43346001F20C05BC002E1900F08065E4
:100D300034682C43346001F20C05BC002E1900F01D
:100D4000007534682C43346001F20C05BC002E1988
:100D500000F0807534682C43346001F20C05BC004F
:100D60002E1935686FF0F04405EA0404346001F28E
:100D70000C05BC002E1900F00F04E50634682C4366
:100D800034600191039A0846F9B2FFF7D7FB019945
:0E0D90000846FFF7BFFBDDF800E004B0704737
:1009C40081B0CDF800E040F2000C83464FEA8C0180
:1009D4000BEB01010968B1F1FF3F12D00BF13401B7
:1009E4004FEA8C03C91809680A460BEB030109682E
:1009F40008461146FFF728FD0CF1010C1FFA8CFC88
:0A0A0400E4E7DDF800E001B0704700
:10044C0082B0CDF800E080464FEA581202F0070265
:10045C00914608F01F04A24693010D4AD3184FF0A1
:10046C000102A240019218460A46019900F0CAFA0C
:10047C004FEA0933074AD3184FEA8A029C1808F44A
:10048C00E06322681A432260DDF800E002B0704796
:08049C0000F00F400090044045
:1006780081B00B49884203D1012252B209490A606C
:100688000949884203D1012252B208490A6008493F
:10069800884203D1012252B206490A6001B070476C
:1006A80000C00240B007904200D00240B407904218
:0806B80000C00A403006904228
:1006C00081B002686FF4804102EA010101600168B3
:1006D00041F00101016000F22C031A68124942EA5C
:1006E0000101196000F208020021116000F20C0201
:1006F0004FF0F041116000F210024FF0F041116034
:1007000000F230020021116000F234020021116079
:10071000016841F440610160026844F2010142EA6B
:0C0720000101016001B0704700000A9A5E
:10053C0091B0CDF800E00F9010468DF840100E9061
:10054C0001AB1846FFF7A8FF4FF0FF330D930023C4
:10055C0006930023089301230A9300230B93002393
:10056C000593059B042B41D20D9B002B3ED0002301
:10057C000793079B102B35D20D9B002B32D00123F8
:10058C000993099B032B29D20D9B3BB3099C029B1E
:10059C0003FB04F6059B9C00314B1B191D68079B44
:1005AC009C00304B1B191B686B43B6FBF3F42046C5
:1005BC000E9BA3420ED30E9B1C1A0C940D9BA342B4
:1005CC0008D90C9B0D93059B0693079B08930B90E6
:1005DC00099B0A93099B5B1C0993D2E7079B5B1C45
:1005EC000793C6E7059B5B1C0593BAE70F9B03F2C9
:1005FC000C049DF840309B00E5182C681A4B04EA5B
:10060C0003032B600F9B03F20C049DF840309B00FE
:10061C00E5180A9B5B1EDC072B6823432B600F9BA2
:10062C0003F20C049DF840309B00E518069B1B045C
:10063C0003F440342B6823432B600F9B03F20C0410
:10064C009DF840309B00E518089B03F00F042B68C5
:10065C0023432B600B98DDF800E011B0704700BF0E
:0C066C0084710000F8700000F0FFFC7FBB
:1004A40081B0CDF800E00446FFF7B0FF40F2E83138
:1004B40000FB01F3154909680A0F1449096801F0A2
:1004C4007061090EC8B21149096801F47001090D7F
:1004D400CDB20E49096801F47021090CCEB2D1B233
:1004E40003FA01F10F462360221D27FA00F111607F
:1004F40004F2080227FA05F1116004F20C0227FA4B
:1005040006F11160DDF800E001B07047448004405A
:00051400E7
:0C04100001480068704700BF5C48FF1FF7
:1005140081B002686FF0010102EA0101016001B0DB
:0205240070471E
:10112800002149B201480160704700BF3410FE43F6
:00113800B7
:1010CC0049F63E47C0F2000700BF00BF7F1EFDD1AE
:0810DC0000BF00BF00BF704718
:10104800012149B201480160704700BF3410FE43D6
:0010580098
:1010580081B0CDF800E021B100235BB20B4A1360E8
:1010680003E001235BB2094A136000235BB2084A1C
:101078001360C0B2FFF7E0FC01235BB2044A1360BF
:101088000020DDF800E001B0704700BF3C18FE43C7
:041098005008FE43BB
:100A400081B0CDF800E082B24FF080610348FFF73B
:100A500049FFDDF800E001B0704700BF00C00A4068
:000A600096
:1008E40081B000F22C04236843F00043236000F23B
:1008F400340493B241EA0303236000F22C031C681E
:0C090400C4F3C07303B9F8E701B07047FA
:1018800082B0CDF800E05FFA81FA5FFA82FB014690
:101890008C1C2378D9B2641C23781B029BB2CB1812
:1018A0001FFA83FC641C2178C9B2631C1B781B02DD
:1018B0009BB2CB189BB299B20AEB03039BB25B1E9F
:1018C0009BB2602B0ED8BAF1000F0BD30BEB0C03BD
:1018D0009BB25B1E9BB2602B04D8BBF1000F01D3FF
:1018E000002300E0012303B10BE001FB0CF4831D96
:1018F000ADF80410A2B219461148FFF7CFFBBDF8AE
:101900000410ADF804105FFA8CF3CAB25FFA8BF1E1
:101910005FFA8AF0FFF768FDBDF8041001FB0CF3D5
:101920009BB25B009BB299B20548FFF705FC08B17A
:10193000022000E00020DDF800E002B0704700BFA8
:041940003000FF1F55
:10109C0093B20A4600211446024698B281420DD200
:1010AC0023781B021380631C1D461C781388234372
:0E10BC001380921C6B1C1C46491CEFE770470A
:1013E80081B0CDF800E000F21004E6B2CCB2E5B26C
:1013F8005FFA82F8DFB240F2000901211520FFF7F9
:1014080027FE49EA00095FFA89F90021F0B2FFF7DF
:101418001FFE49EA00095FFA89F9A8F1010424B21C
:10142800341924B2002120B2FFF712FE49EA00095C
:101438005FFA89F901217520FFF70AFE49EA0009D8
:101448005FFA89F90021E8B2FFF702FE49EA0009CC
:101458005FFA89F97C1E24B22C1924B2002120B22B
:10146800FFF7F6FD49EA0004E4B2002C00D100E0E1
:0A147800C1E7DDF800E001B07047A5
:1011380081B0CDF800E005460E4601215C20FFF79E
:1011480087FF08B102201AE001235BB20E4A136040
:1011580000235BB20D4A1360284605463046034615
:10116800421E164633B12A7890B2FFF765FC6D1C13
:101178003046F4E701235BB2044A13600020DDF82F
:1011880000E001B0704700BF3C18FE435008FE4322
:0011980057
:10196000114B1860831C1C78C31C1B781B029BB294
:10197000E4180E4B1C80031D1C78431D1B781B02B2
:101980009BB2E4180A4B1C80831D1C78094B1C80F9
:10199000094B1980094B1A700124094B1C70002453
:1019A000084B1C70704700BF3848FF1F3448FF1FAA
:1019B0003648FF1F3E48FF1F4048FF1F3C48FF1F9F
:0819C0000500FF1F3D48FF1F59
:1019C80083B0CDF800E00290602900D31DE0602AC2
:1019D80000D31AE00023ADF8043088B291B2FFF7C3
:1019E800D7FBBDF80440029B1B191B786BB1BDF8EF
:1019F8000440029B1B191B7898B2FFF7D3FBBDF874
:101A080004305B1CADF80430EBE7DDF800E003B010
:021A1800704715
:10119800024A1080024A1180704700BF3048FF1F82
:0411A8003248FF1FAB
:1011AC0086B0CDF800E085B240F20001ADF8141025
:1011BC0000218DF816107F49097849B97E49002223
:1011CC00084640F2000100F0C5FB012279490A7083
:1011DC007A4909888D4200D2E7E0794909888D4225
:1011EC0000D9E2E075490988691A89B28A0092B27D
:1011FC00744C216808318B1893F800C0591C09787D
:10120C00CAB2991C097809025218D91C0978090428
:10121C00521821460968891804916B49097821B143
:10122C0069490978022900D064E068490A880021DC
:10123C008DF80D105FFA8CF390B265490A889DF811
:10124C000D1091424AD263490988ADF8141000265A
:10125C0000218DF80C1082B25FFA83FC9DF80C1003
:10126C00614530D24EB9049909788DF8161004995D
:10127C00491C04910126F0B200E0F0B29DF8161062
:10128C000140C9B291B1544909888DF80400ADF8F8
:10129C000620ADF80820BDF814008AB2BDF908107C
:1012AC00FFF702FCBDF806209DF80400BDF81410F1
:1012BC00491CADF814104100CEB29DF80C10491C1D
:1012CC008DF80C10CAE7521C92B29DF80D10491CF7
:1012DC008DF80D105FFA8CF390B2AEE73A490978AD
:1012EC0029B9BDF814104A1C3A490A8001E0374963
:1012FC0008805AE037490B8800218DF80D1098B200
:10130C005FFA8CF332490A889DF80D10914247D24E
:10131C002E490988ADF81410002600218DF80C1008
:10132C0082B25FFA83FC9DF80C1061452DD24EB948
:10133C00049909788DF816100499491C049101261A
:10134C00F0B200E0F0B29DF816100140C9B279B1CC
:10135C00214909888DF80400ADF8062010B28AB234
:10136C00BDF81410FFF7A0FBBDF806209DF8040093
:10137C00BDF81410491EADF814104100CEB29DF802
:10138C000C10491C8DF80C10CDE7511C8BB29DF83C
:10139C000D10491C8DF80D1098B25FFA8CF3B1E763
:1013AC00BDF814104A1E09490A80DDF800E006B0A9
:1013BC00704700BF0500FF1FFA6900003448FF1F8B
:1013CC003648FF1F3848FF1F3C48FF1F3248FF1F9D
:0C13DC003E48FF1F3048FF1F4048FF1F25
:100AB40082B0CDF800E00FFA80FA0FFA81FB0AF158
:100AC40001031BB25B1E1BB2602B0EDCBAF1000FDC
:100AD4000BDB0BF101031BB25B1E1BB2602B04DCAE
:100AE400BBF1000F01DB002300E001230BB1032065
:100AF40024E0ADF80420602360225FFA8BF15FFAF2
:100B04008AF000F06FFCBDF8043003F47F439BB21D
:100B14001C0AA4B2BDF8043003F0FF039BB21B020D
:100B24009BB244EA0303ADF8043001AB022118463A
:100B340000F000FB08B1022000E00020DDF800E036
:040B440002B0704744
:1018580081B0CDF800E00548FFF784FB044905484E
:101868000160DDF800E001B0704700BF00B0034040
:08187800451900000C00FF1FE0
:100F6C0081B0CDF800E003460548FFF773FD044956
:100F7C001846FFF7F9FDDDF800E001B0704700BF3F
:040F8C005048FF1FAB
:100A600081B008B9012023E001210170421C03215B
:100A70001170821C01211170C21C01211170021D14
:100A800003211170421D01211170821D002111707E
:100A9000C21D0021117000F208020021117000F245
:100AA00009020021117000F20A02002111700020D9
:040AB00001B07047DA
:100B740081B0CDF800E003460C460CB901200AE030
:100B84001846FFF7EDFD1846FFF7CEFD214618463F
:0E0B9400FFF700FE0020DDF800E001B0704722
:1007640081B00849884204D1012252B206490A6084
:1007740006E00649884203D1012252B204490A60C4
:1007840001B0704700B00340EC07904200B00B404A
:040794006C0690421D
:10072C0081B000F208020021116000F20C020021DD
:10073C00116000F218020021116000F21C0200216D
:10074C00116000F220020021116000F2240200214D
:06075C00116001B07047BE
:1007980081B000F20802126892B202F000039BB224
:1007A8000A781AB143F080039BB2FFE74A1C12781B
:1007B800520192B202F0600292B243EA0204A4B279
:1007C8008A1C12781AB144F01004A4B2FFE7CA1CBC
:1007D8001278920092B202F00C0292B244EA02033A
:1007E8009BB20A1D127802F00302D2B243EA020257
:1007F80094B200F20C02126893B24FF6F0721340F2
:100808009BB24A1D12781AB143F008039BB2FFE766
:100818008A1D12781AB143F004039BB2FFE7CA1D80
:10082800127802F00302D2B243EA020295B200F251
:100838002002126893B24FF6BC7213409BB201F2C9
:10084800080212781AB143F040039BB2FFE701F2A5
:100858000902127802F00302D2B243EA020296B207
:1008680000F22402126893B24FF6B77203EA02024A
:1008780093B201F20A0212781AB143F0080189B260
:1008880000E099B200F20802146000F20C02156050
:1008980000F22002166000F22402116001B07047D5
:0008A80050
:101A300081B0CDF800E00D20FFF784FF0849088051
:101A400041F67E27C0F2060700BF00BF7F1EFDD112
:101A500000BF00BF00BFDDF800E001B0704700BF6D
:041A60000600FF1F5E
:1019440081B0CDF800E0C1B20348FFF71FFBDDF81A
:0C19540000E001B0704700BF00B003408D
:100F900082B0CDF800E006468DF8041000228DF8EE
:100FA000062000228DF8052001AA00213046FFF717
:100FB00039FD00213046FFF73DFF00213046FFF7A5
:100FC0002FFF87B200213046FFF744FFB8B2DDF8AB
:060FD00000E002B07047D2
:100A240081B0CDF800E00AB9012002E0FFF73AFFF7
:0A0A34000020DDF800E001B070477B
:1008A80081B040F20004531C1B781BB144F0400493
:1008B800A4B2FFE7931C1B781BB144F02005ADB22E
:1008C80000E0A5B2137803F01F03DBB245EA030486
:0C08D800A4B28B00C3181C6001B0704774
:100E340081B0ADF800100146BDF8000082008A18A8
:0E0E44001368C3F3C01202B9F8E701B070479B
:100E200081B0CDF800E0FFF77FFB00B2DDF800E015
:040E300001B0704756
:1005280081B000F210038A009A18126890B201B0E4
:0205380070470A
:100E540082B0CDF800E01F228DF8042000228DF826
:100E6400052000228DF8062001AAFFF7D9FDDDF840
:060E740000E002B070472F
:101B440081B0CDF800E01E48008800EE900AF8EE5F
:101B5400600A1C4800EE100A20EE801A1A4800EDB4
:101B6400001AB1EE040A70EE410A184800EE100A99
:101B740020EE200AC0EE010A154840ED000A134881
:101B840000EE100A80EE800A124800ED000AFFF70A
:101B9400F3FC114800EE900A60EE200A0F4800EEB4
:101BA400100A30EE800AF0EE400AB2EE040AFFF7A3
:101BB40067FC0B4800ED000ADDF800E001B0704757
:101BC4000600FF1F3333533A1000FF1F00982346CB
:101BD4001400FF1F1800FF1FCDCC4CBF6666663F84
:041BE4001C00FF1FC3
:10157C0081B0CDF800E0FFF729FD044900EE901A88
:10158C0020EE200ADDF800E001B07047D95BDE3EAA
:00159C004F
:100FD80082B0CDF800E0B5EEC00AF1EE10FA04DCFC
:100FE8004FF0000100EE101A22E001A90846FFF7B1
:100FF800A7FDF0EE000A60EE200AB7EE000A30EE18
:10100800C00ABDF90410491EADF80410082109B240
:101018000948FFF7C3FDBDF9041001EE101AB8EE38
:10102800C11A064900EE901A60EE810A30EE200AD5
:10103800DDF800E002B07047607100001872313FBF
:00104800A8
:100B480082B08DED010ABDF80610C1F3C7117E39D8
:100B580009B201807E22BDF8061062F3CE11ADF80D
:0A0B680006109DED010A02B070476F
:100BA40081B0F0EE400A8A00821812ED000AB0EE1D
:100BB400401AB0EE410AB0EE601A79B161EE000A53
:100BC4004A1E12B211B29200821812ED000A30EEDF
:100BD400800A0DED000A1DED000AEEE701B0704732
:000BE40011
:1014840082B0CDF800E0F0EE402AB0EE602A0020F1
:10149400B5EEC02AF1EE10FA02D1B7EE000A3EE032
:1014A400F5EEC02AF1EE10FA04D14FF0000200EE7E
:1014B400102A34E0F5EEC02AF1EE10FA1BDABDEE84
:1014C400420A10EE102A104600EE102AB8EEC00AA6
:1014D400B4EEC20AF1EE10FA04D04FF0000200EEAE
:1014E400102A1CE000F00102D0B2F1EE620AC5B28B
:1014F400B0EE600A05E08DF80400B0EE620A9DF8D3
:101504000450FFF767FD20EE020AFFF7B5FCF0EE8A
:10151400400A15B1B1EE600A01E0B0EE600ADDF8F0
:0615240000E002B0704778
:100E7C0081B0CDF800E0F0EE401AF5EEC01AF1EEBC
:100E8C0010FA02D1B7EE000A5CE0304900EE101AFD
:100E9C00F4EEC01AF1EE10FA03DD2D4900EE101A33
:100EAC0050E02C4900EE101AF4EEC01AF1EE10FAD4
:100EBC0004DA4FF0000100EE101A43E0F5EEC01A10
:100ECC00F1EE10FA40F2000100DA0121CBB2C9B206
:100EDC0011B1F1EE610A01E0F0EE610A1E4900EE7B
:100EEC00101A20EE800AF0EE401AFFF753FFBDEE09
:100EFC00400A10EE101A09B20CB200EE101AB8EE3D
:100F0C00C00A31EEC00A092109B21448FFF744FEA9
:100F1C0020B2FFF761FEF0EE400A8BB10C4900EEF7
:100F2C00101AF4EEC00AF1EE10FA04D14FF00001E1
:100F3C0000EE101A06E0B7EE000A80EE200A01E07F
:100F4C00B0EE600ADDF800E001B07047FED4B242AA
:100F5C00FFFF7F7F50ACAEC23BAAB83F3871000098
:000F6C0085
:100DA00082B08DED010A01A90968C90D01F0FF01AA
:100DB00009B27F3909B208B200290EDA9DED010AA5
:100DC000B5EEC00AF1EE10FA02DABFEE000A24E036
:100DD0004FF0000100EE101A1FE081B2182902D96D
:100DE0009DED010A19E09DED010ABDEE400A10EEED
:100DF000101A00EE901AF8EEE00AB0EE601A9DEDBF
:100E0000010AF4EEC00AF1EE10FA04DDB7EE000AB2
:0E0E100031EE400A01E0B0EE410A02B0704738
:100BE40082B08DED010ABDF80610C1F3C71141189A
:100BF40008B209B2002904DA4FF0000100EE101A1D
:100C040019E0B0F1FF0F0DDDB5EEC00AF1EE10FAF8
:100C140004DA6FF4000100EE101A0CE0074900EE4C
:100C2400101A08E082B2BDF8061062F3CE11ADF8D6
:100C340006109DED010A02B0704700BFFFFF7F7FE1
:000C4400B0
:101A640082B0CDF800E0ADF80400BDF8041000EE3B
:101A7400901AF8EE600A194911ED000AB4EEE00A72
:101A8400F1EE10FA1CD01649002208464FF6FF71F9
:101A9400FFF764FF4B2232211248FFF793FF1149ED
:101AA400BDF80400FFF740FD0D490022084640F24E
:101AB4000001FFF753FF4B2232210A48FFF782FF50
:101AC400BDF8041000EE101AB8EE400A034901ED07
:101AD400000ADDF800E002B0704700BF0800FF1FF5
:081AE400FA6900002000FF1F59
:10152C0081B00A4681B200208DB21146052805D241
:10153C000B1820221A70401CC0B2F7E70B180022BF
:10154C001A70401EC0B20C180A23B5FBF3F203FB51
:10155C00125292B2303222700A22B5FBF2F292B2DF
:10156C0095B202B902E0401EC0B2ECE701B0704780
:00157C006F
:101CAC0090B072B69748019097480290974803906D
:101CBC009748049097480590974806909748079046
:101CCC00974808909748099097480A9097480B9026
:101CDC0097480C90974998480D9098480E900D98FD
:101CEC0000F007000F9001F0010050B94CF22050A9
:101CFC00934908804DF62810088040F2D211914883
:101D0C0001800021904801609048007800F00100AB
:101D1C00C0B258B18E48007800F00800C0B220B1B3
:101D2C008B49087840F00800087021E08948006869
:101D3C0040F00051874801608748006800F48070CB
:101D4C00B0B9854801686FF4705001EA000040F4A6
:101D5C004071814801608048006840F480717E4881
:101D6C0001607D4801686FF4007001407A480160A1
:101D7C00AA217A4801700D9800F0100058B97848E3
:101D8C00007800F09F0176480170764800780128B1
:101D9C0000D0FAE71BE00D9800F01000B8B10E99D6
:101DAC007148814208D960216D4801706D480078F6
:101DBC00802800D0FAE70AE06948007800F09F011B
:101DCC006748017067480078012800D0FAE7049949
:101DDC0066480160664801686FF440200140029833
:101DEC0000F44020014362480160624801686FF4CE
:101DFC0040300140039800F4403001435D480160DD
:101E0C000F9830B10F98012803D00F98022800D0FA
:101E1C0064E0019800F0800050B9089800F0400090
:101E2C0028B10B9800F00300002800D100E015E069
:101E3C005148006840F400714F4801604F480168F8
:101E4C004F4801404D480160069800F0040028B14D
:101E5C004C4801684A4801404A4801600A994A487E
:101E6C000170059949480170059800F0040040B1D3
:101E7C004748007800F01000C0B2002800D1F7E706
:101E8C0006E04348007800F01000C0B200B1F8E75B
:101E9C004048007800F0BF01C9B2069800F0FD0080
:101EAC0001433C480170079800F0E0013A48007883
:101EBC0000F01F00C0B20143374801700199374848
:101ECC0001700B99364801700F98022805D13148E2
:101EDC00007840F002012F480170BDE0019800F03D
:101EEC00800020B90B9800F0030000B166E0224896
:101EFC00006840F4007120480160204801682048C7
:101F0C0001404FE00000000000000C000000010048
:101F1C00000014012200000024000000000000005A
:101F2C00020000004600000000000000000000005D
:101F3C00000000000000000007000000C0D40100F9
:101F4C000E2005400020054008ED00E000F00740A1
:101F5C0002D007403C80044010D0034000E0074012
:101F6C0001E0074003E00740803801004480044052
:101F7C0000700440048004403880044048900440C1
:101F8C00FFF8FFFE4C90044008400640004006401D
:101F9C000640064001400640034006400050064003
:101FAC000C4006407F480160069800F0040028B100
:101FBC007D4801687D4801407B4801600A997C4856
:101FCC0001707C48007800F0BF01C9B2069800F09F
:101FDC00FD000143774801700199774801700B9916
:101FEC00764801700F98072805D1059840F08001BC
:101FFC007348017002E0059971480170069800F071
:10200C00040050B10B9800F0030030B96D48007813
:10201C0000F00200C0B200B9F8E7059800F0040027
:10202C0040B16848007800F01000C0B2002800D120
:10203C00F7E706E06348007800F01000C0B200B18A
:10204C00F8E7079800F0E0015F48007800F01F0007
:10205C00C0B201435C480170089800F0BF015B48B6
:10206C000170099800F0BF0159480170089800F000
:10207C00400028B15548007840F0400153480170A9
:10208C000F98052806D14B48007840F002014948CA
:10209C0001701CE00F98062803D00F98072800D079
:1020AC0015E04B48007840F0400149480170454824
:1020BC00007800F04000C0B200B9F8E70F9807288C
:1020CC0005D13F48007800F03F013D4801700F9862
:1020DC0018B10F98032800D029E03A48007800F096
:1020EC000C00C0B200B1F8E73A48006840F00101BA
:1020FC003848016000213848016080213748016070
:10210C0005213748016001213448016033480068DB
:10211C0000F0800000B9F9E70021304801602D483B
:10212C0001686FF0010001402A4801602DE00F9812
:10213C00012803D00F98022800D008E0214800782D
:10214C0000F00C00C0B2042800D0F7E71DE00F9897
:10215C00042806D00F98062803D00F98052800D025
:10216C0008E01848007800F00C00C0B2082800D035
:10217C00F7E70AE00F98072807D11248007800F01B
:10218C000C00C0B20C2800D0F7E7164801686FF0BD
:10219C000F0001400C9800F00F0001431148016042
:1021AC0010B07047489004404C900440FFF8FFFE7C
:1021BC000840064001400640005006400C400640D6
:1021CC0000400640064006400340064004400640DE
:1021DC0005400640388004400800044000000440DC
:0821EC00040004404880044097
:101C440081B002490248016001B07047C0D401006C
:041C54005C48FF1FCA
:081C240081B0FEE701B070473A
:101C2C0081B072B60349086840F47000086062B66F
:081C3C0001B0704788ED00E0E3
:1071A40000B5DFF824B0DFF824A0DFF824C0FAF734
:1071B40033FCDFF820B0DFF820A0DFF820C0FAF7B6
:1071C4002BFC00BD704700BF0000FF1F0600FF1F1F
:1071D4009C7100000800FF1F1000FF1F9471000045
:0071E400AB
:1072400000B5DFF810B0DFF810A0FAF7CDFC00BDF4
:0C725000704700BF0000FF1F6848FF1FD0
:100400000000000000000000FFFFFFFF02FDFFFFF3
:1021F400001060006000000000000000000000000B
:1022040000000000000000000000000000000000CA
:1022140000000000000000000000000000000000BA
:1022240000000000000000000000000000000000AA
:10223400000000000000000000000000000000009A
:10284400000000000000FFFFFFFF00000000000088
:102854000000000000000000000000000000000074
:102864000000000000000000000000000000000064
:102874000000000000000000000000000000000054
:102884000000000000000000000000000000000044
:102894000000000000000000000000000000000034
:1028A4000000000000000000000000000000000024
:1028B4000000000000000000000000000000000014
:1028C4000000000000000000000000000000000004
:1028D400000000000000000000000000FFFFFFFFF8
:1028E4000000000000000000FFFFFFFF00000000E8
:1028F40000000000000000000000000000000000D4
:10290400000000000000FFFFFFFF000000000000C7
:1029140000000000000000000000000000000000B3
:1029240000000000000000000000000000000000A3
:102934000000000000000000000000000000000093
:102944000000000000000000000000000000000083
:102954000000000000000000000000000000000073
:102964000000000000000000000000000000000063
:102974000000000000000000000000000000000053
:102984000000000000000000000000000000000043
:10299400000000000000000000000000FFFFFFFF37
:1029A4000000000000000000FFFFFFFF0000000027
:1029B4000000000000000000000000000000000013
:1029C400000000000000FFFFFFFF00000000000007
:1029D40000000000000000000000000000000000F3
:1029E40000000000000000000000000000000000E3
:1029F40000000000000000000000000000000000D3
:102A040000000000000000000000000000000000C2
:102A140000000000000000000000000000000000B2
:102A240000000000000000000000000000000000A2
:102A34000000000000000000000000000000000092
:102A44000000000000000000000000000000000082
:102A5400000000000000000000000000FFFFFFFF76
:102A64000000000000000000FFFFFFFF0000FFFF68
:102A7400FFFF00000000FFFFFFFF00000000FFFF5A
:102A8400FFFFFFFFFFFFFFFFFFFF0000FFFFFFFF50
:102A94000000FFFF00000000FFFFFFFFFFFFFFFF3C
:102AA400FFFF000000000000FFFFFFFFFFFFFFFF2C
:102AB400FFFFFFFF00000000FFFFFFFFFFFFFFFF1E
:102AC40000000000FFFFFFFF0000FFFFFFFFFFFF0C
:102AD40000000000000000000000000000000000F2
:102AE40000000000000000000000000000000000E2
:102AF40000000000000000000000000000000000D2
:102B040000000000000000000000000000000000C1
:102B1400000000000000000000000000FFFFFFFFB5
:102B24000000000000000000FFFFFFFF0000FFFFA7
:102B3400FFFF00000000FFFFFFFF0000FFFFFFFF9B
:102B4400000000000000FFFFFFFF0000FFFFFFFF89
:102B5400FFFFFFFF0000FFFFFFFF00000000000079
:102B6400FFFFFFFF0000FFFFFFFF00000000000069
:102B7400FFFFFFFF0000FFFFFFFF00000000FFFF5B
:102B8400FFFF0000FFFFFFFFFFFF00000000FFFF4B
:102B9400FFFF000000000000000000000000000033
:102BA4000000000000000000000000000000000021
:102BB4000000000000000000000000000000000011
:102BC4000000000000000000000000000000000001
:102BD400000000000000000000000000FFFFFFFFF5
:102BE400FFFFFFFFFFFFFFFFFFFFFFFF0000FFFFEF
:102BF400FFFF00000000FFFFFFFF0000FFFFFFFFDB
:102C0400000000000000FFFFFFFF0000FFFFFFFFC8
:102C1400000000000000FFFFFFFF000000000000B4
:102C2400FFFFFFFF0000FFFFFFFF000000000000A8
:102C3400FFFFFFFF0000FFFFFFFF00000000FFFF9A
:102C4400FFFF0000FFFFFFFF000000000000FFFF88
:102C5400FFFF000000000000000000000000000072
:102C64000000000000000000000000000000000060
:102C74000000000000000000000000000000000050
:102C84000000000000000000000000000000000040
:102C9400000000000000000000000000FFFFFFFF34
:102CA4000000000000000000FFFFFFFF0000000024
:102CB400FFFFFFFFFFFFFFFF00000000FFFFFFFF1C
:102CC400000000000000FFFFFFFF0000FFFFFFFF08
:102CD400000000000000FFFFFFFF000000000000F4
:102CE400FFFFFFFF0000FFFFFFFF000000000000E8
:102CF400FFFFFFFF0000FFFFFFFFFFFFFFFFFFFFDE
:102D0400FFFF0000FFFFFFFF000000000000FFFFC7
:102D1400FFFF0000000000000000000000000000B1
:102D2400000000000000000000000000000000009F
:102D3400000000000000000000000000000000008F
:102D4400000000000000000000000000000000007F
:102D5400000000000000000000000000FFFFFFFF73
:102D64000000000000000000FFFFFFFF0000000063
:102D7400FFFFFFFFFFFFFFFF00000000FFFFFFFF5B
:102D8400000000000000FFFFFFFF0000FFFFFFFF47
:102D9400000000000000FFFFFFFF00000000000033
:102DA400FFFFFFFF0000FFFFFFFF00000000000027
:102DB400FFFFFFFF0000FFFFFFFF00000000000017
:102DC40000000000FFFFFFFF000000000000FFFF05
:102DD400FFFF0000000000000000000000000000F1
:102DE40000000000000000000000000000000000DF
:102DF40000000000000000000000000000000000CF
:102E040000000000000000000000000000000000BE
:102E1400000000000000000000000000FFFFFFFFB2
:102E24000000000000000000FFFFFFFF00000000A2
:102E34000000FFFFFFFF000000000000FFFFFFFF96
:102E440000000000FFFFFFFFFFFF0000FFFFFFFF88
:102E5400000000000000FFFFFFFF00000000000072
:102E6400FFFFFFFF0000FFFFFFFF00000000FFFF68
:102E7400FFFFFFFF0000FFFFFFFF00000000000056
:102E8400FFFF0000FFFFFFFF000000000000FFFF46
:102E9400FFFF000000000000000000000000000030
:102EA400000000000000000000000000000000001E
:102EB400000000000000000000000000000000000E
:102EC40000000000000000000000000000000000FE
:102ED400000000000000000000000000FFFFFFFFF2
:102EE4000000000000000000FFFFFFFF00000000E2
:102EF4000000FFFFFFFF0000000000000000FFFFD4
:102F0400FFFFFFFF0000FFFFFFFF0000FFFFFFFFC9
:102F14000000000000000000FFFFFFFFFFFFFFFFB5
:102F2400FFFF000000000000FFFFFFFFFFFF0000A5
:102F3400FFFFFFFF00000000FFFFFFFFFFFFFFFF99
:102F440000000000FFFFFFFF000000000000FFFF83
:102F5400FFFF00000000000000000000000000006F
:102F6400000000000000000000000000000000005D
:102F7400000000000000000000000000000000004D
:102F8400000000000000000000000000000000003D
:102F9400000000000000000000000000000000002D
:102FA400000000000000000000000000000000001D
:102FB400FFFFFFFF00000000000000000000000011
:102FC40000000000000000000000000000000000FD
:102FD40000000000000000000000000000000000ED
:102FE40000000000000000000000000000000000DD
:102FF400FFFFFFFF000000000000000000000000D1
:1030040000000000000000000000000000000000BC
:1030140000000000000000000000000000000000AC
:10302400000000000000000000000000000000009C
:10303400000000000000000000000000000000008C
:10304400000000000000000000000000000000007C
:10305400000000000000000000000000000000006C
:10306400000000000000000000000000000000005C
:10307400FFFFFFFF00000000000000000000000050
:10308400000000000000000000000000000000003C
:10309400000000000000000000000000000000002C
:1030A4000000000000000000FFFFFFFFFFFFFFFF24
:1030B400FFFF00000000000000000000000000000E
:1030C40000000000000000000000000000000000FC
:1030D40000000000000000000000000000000000EC
:1030E40000000000000000000000000000000000DC
:1030F40000000000000000000000000000000000CC
:1033640000000000000000000000FFFFFFFFFFFF5F
:10337400FFFFFFFFFFFFFFFFFFFFFFFFFFFFFFFF59
:10338400FFFFFFFFFFFFFFFFFFFFFFFFFFFFFFFF49
:10339400FFFFFFFFFFFFFFFFFFFFFFFFFFFFFFFF39
:1033A400FFFFFFFFFFFFFFFFFFFFFFFFFFFFFFFF29
:1033B400FFFFFFFFFFFFFFFFFFFFFFFFFFFFFFFF19
:1033C400FFFF0000000000000000000000000000FB
:1033D40000000000000000000000000000000000E9
:1033E40000000000000000000000000000000000D9
:1033F40000000000000000000000000000000000C9
:1034040000000000000000000000000000000000B8
:1034140000000000000000000000000000000000A8
:1034240000000000000000007DEFFFFF821082100A
:1034340082108210821082108210000000000000AE
:10344400000000000000821082108210821082109E
:1034540082108210821082108210821082108210D8
:1034640082108210821082108210821082108210C8
:1034740082108210821082108210821082108210B8
:10348400FFFFFFFF0000000000000000000000003C
:103494000000000000000000000000000000000028
:1034A4000000000000000000000000000000000018
:1034B4000000000000000000000000000000000008
:1034C40000000000000000000000000000000000F8
:1034D40000000000000000000000000000000000E8
:1034E4000000000000003CE7FFFF000000000000B7
:1034F40000000000000000000000000000000000C8
:1035040000000000000000000000000000000000B7
:1035140000000000000000000000000000000000A7
:103524000000000000000000000000000000000097
:103534000000000000000000000000000000000087
:103544000000FFFFFFFF000000000000000000007B
:103554000000000000000000000000000000000067
:103564000000000000000000000000000000000057
:103574000000000000000000000000000000000047
:103584000000000000000000000000000000000037
:103594000000000000000000000000000000000027
:1035A400000000000000FFFF000000000000000019
:1035B4000000000000000000000000000000000007
:1035C40000000000000000000000000000000000F7
:1035D40000000000000000000000000000000000E7
:1035E40000000000000000000000000000000000D7
:1035F40000000000000000000000000000000000C7
:1036040000000000FFFF00000000000000000000B8
:1036140000000000000000000000000000000000A6
:103624000000000000000000000000000000000096
:103634000000000000000000000000000000000086
:103644000000000000000000000000000000000076
:103654000000000000000000000000000000000066
:10366400000000000000FFFF000000000000000058
:103674000000000000000000000000000000000046
:103684000000000000000000000000000000000036
:103694000000000000000000000000000000000026
:1036A4000000000000000000000000000000000016
:1036B4000000000000000000000000000000000006
:1036C40000000000FFFF00000000000000000000F8
:1036D40000000000000000000000000000000000E6
:1036E40000000000000000000000000000000000D6
:1036F40000000000000000000000000000000000C6
:1037040000000000000000000000000000000000B5
:1037140000000000000000000000000000000000A5
:10372400000000000000FFFF000000000000000097
:103734000000000000000000000000000000000085
:103744000000000000000000000000000000000075
:103754000000000000000000000000000000000065
:103764000000000000000000000000000000000055
:103774000000000000000000000000000000000045
:1037840000000000FFFF0000000000000000000037
:103794000000000000000000000000000000000025
:1037A4000000000000000000000000000000000015
:1037B4000000000000000000000000000000000005
:1037C40000000000000000000000000000000000F5
:1037D40000000000000000000000000000000000E5
:1037E400000000000000FFFF0000000000000000D7
:1037F40000000000000000000000000000000000C5
:1038040000000000000000000000000000000000B4
:1038140000000000000000000000000000000000A4
:103824000000000000000000000000000000000094
:103834000000000000000000000000000000000084
:1038440000000000FFFF0000000000000000000076
:103854000000000000000000000000000000000064
:103864000000000000000000000000000000000054
:103874000000000000000000000000000000000044
:103884000000000000000000000000000000000034
:103894000000000000000000000000000000000024
:1038A400000000000000FFFF000000000000000016
:1038B4000000000000000000000000000000000004
:1038C40000000000000000000000000000000000F4
:1038D40000000000000000000000000000000000E4
:1038E40000000000000000000000000000000000D4
:1038F40000000000000000000000000000000000C4
:1039040000000000FFFF00000000000000000000B5
:1039140000000000000000000000000000000000A3
:103924000000000000000000000000000000000093
:103934000000000000000000000000000000000083
:103944000000000000000000000000000000000073
:103954000000000000000000000000000000000063
:10396400000000000000FFFF000000000000000055
:103974000000000000000000000000000000000043
:1039840000000000C318C739494A08420421000056
:10399400000000000000000000000000410845296C
:1039A4000842494AC73982100000000000000000A4
:1039B4000000000000000000000000000000000003
:1039C40000000000FFFF00000000000000000000F5
:1039D40000000000000000000000000000000000E3
:1039E40000000000000000000000000000000000D3
:1039F40000000000000000000000000000000000C3
:103A040000000000000000000000000000000000B2
:103A140000000000000000000000000000000000A2
:103A2400000000000000FFFF000000000000000094
:103A34000000000000000000000000000000000082
:103A44008A52B6B57DEFFFFFFFFFFFFFBEF7F7BD5C
:103A54000C63410800000000C318CF7B79CEBEF789
:103A6400FFFFFFFFFFFF3CE734A508420000000012
:103A74000000000000000000000000000000000042
:103A840000000000FFFF0000000000000000000034
:103A94000000000000000000000000000000000022
:103AA4000000000000000000000000000000000012
:103AB4000000000000000000000000000000000002
:103AC40000000000000000000000000000000000F2
:103AD40000000000000000000000000000000000E2
:103AE400000000000000FFFF0000000000000000D4
:103AF4000000000000000000000000000421B6B532
:103B0400FFFFFFFFFFFFFFFF7DEFBEF7FFFFFFFF9C
:103B1400FFFF38CE8631494AFBDEFFFFFFFFFFFF80
:103B2400BEF77DEFFFFFFFFFFFFFFFFFB2944108E9
:103B34000000000000000000000000000000000081
:103B440000000000FFFF0000000000000000000073
:103B54000000000000000000000000000000000061
:103B64000000000000000000000000000000000051
:103B74000000000000000000000000000000000041
:103B84000000000000000000000000000000000031
:103B94000000000000000000000000000000000021
:103BA400000000000000FFFF000000000000000013
:103BB400000000000000000000004529FBDEFFFFBC
:103BC400FFFFF7BD0C63863104218631CB5AB6B5AD
:103BD400FFFFFFD7FC3D3D56FFEFBEFFF39C8A522B
:103BE40045290421C7398E73BAD6FFFFFFFFB6B546
:103BF400821000000000000000000000000000002F
:103C040000000000FFFF00000000000000000000B2
:103C140000000000000000000000000000000000A0
:103C24000000000000000000000000000000000090
:103C34000000000000000000000000000000000080
:103C44000000000000000000000000000000000070
:103C54000000000000000000000000000000000060
:103C6400000000000000FFFF000000000000000052
:103C74000000000000000000821079CEFFFFBEF7B4
:103C84004D6B000000000000000000000000000078
:103C94008A52BC357E057E057A4DC741000000007E
:103CA40000000000000000008210718CFFFFFFFF85
:103CB40034A5000000000000000000000000000027
:103CC40000000000FFFF00000000000000000000F2
:103CD40000000000000000000000000000000000E0
:103CE40000000000000000000000000000000000D0
:103CF40000000000000000000000000000000000C0
:103D040000000000000000000000000000000000AF
:103D1400000000000000000000000000000000009F
:103D2400000000000000FFFF000000000000000091
:103D340000000000000000003084FFFFFFFFCB5AAA
:103D4400000000000000000000000000000000006F
:103D540000083A2D7E05BE05752C00000000000009
:103D64000000000000000000000000003084FFFF9D
:103D7400FFFF8A5200000000000000000000000065
:103D840000000000FFFF0000000000000000000031
:103D9400000000000000000000000000000000001F
:103DA400000000000000000000000000000000000F
:103DB40000000000000000000000000000000000FF
:103DC40000000000000000000000000000000000EF
:103DD40000000000000000000000000000000000DF
:103DE400000000000000FFFF0000000000000000D1
:103DF400000000000000C3183CE7FFFFB29400007D
:103E040000000000000000000000000000000000AE
:103E1400CB62BFDFBF66BF767EE78631000000005D
:103E2400000000000000000000000000000038C690
:103E3400FFFF38C600000000000000000000000082
:103E440000000000FFFF0000000000000000000070
:103E5400000000000000000000000000000000005E
:103E6400000000000000000000000000000000004E
:103E7400000000000000000000000000000000003E
:103E8400000000000000000000000000000000002E
:103E9400000000000000000000000000000000001E
:103EA400000000000000FFFF000000000000000010
:103EB400000000000000CB5AFFFFBEF745290000B8
:103EC40000000000000000000000000000000000EE
:103ED40075ADFFFF79D63CEFFFFFCF7B00000000FC
:103EE40000000000000000000000000000008A52F2
:103EF400FFFFFFFF45290000000000000000000054
:103F040000000000FFFF00000000000000000000AF
:103F1400000000000000000000000000000000009D
:103F2400000000000000000000000000000000008D
:103F3400000000000000000000000000000000007D
:103F4400000000000000000000000000000000006D
:103F5400000000000000000000000000000000005D
:103F6400000000000000FFFF00000000000000004F
:103F7400000000000000718CFFFF38C60000000044
:103F840000000000000000000000000000004108E4
:103F9400FBDEFFFF8D73B294FFFF75AD00000000E0
:103FA4000000000000000000000000000000C31832
:103FB4007DEFFFFF0C630000000000000000000024
:103FC40000000000FFFF00000000000000000000EF
:103FD40000000000000000000000000000000000DD
:103FE40000000000000000000000000000000000CD
:103FF40000000000000000000000000000000000BD
:1040040000000000000000000000000000000000AC
:10401400000000000000000000000000000000009C
:10402400000000000000FFFF00000000000000008E
:1040340000000000000034A5FFFF34A500000000CC
:104044000000000000000000000000000000C31891
:104054007DEFFFFF08428E73FFFF38C600000000AB
:10406400000000000000000000000000000000004C
:10407400BAD6FFFFCF7B0000000000000000000064
:1040840000000000FFFF000000000000000000002E
:10409400000000000000000000000000000000001C
:1040A400000000000000000000000000000000000C
:1040B40000000000000000000000000000000000FC
:1040C40000000000000000000000000000000000EC
:1040D40000000000000000000000000000000000DC
:1040E400000000000000FFFF0000000000000000CE
:1040F40000000000000034A5FFFF34A5000000000C
:104104000000000000000000000000000000C318D0
:104114007DEFFFFF0842CF7BFFFF38C600000000A1
:10412400000000000000000000000000000000008B
:10413400BAD6FFFFCF7B00000000000000000000A3
:1041440000000000FFFF000000000000000000006D
:10415400000000000000000000000000000000005B
:10416400000000000000000000000000000000004B
:10417400000000000000000000000000000000003B
:10418400000000000000000000000000000000002B
:10419400000000000000000000000000000000001B
:1041A400000000000000FFFF00000000000000000D
:1041B400000000000000718CFFFF38C60000000002
:1041C40000000000000000000000000000004108A2
:1041D400FBDEFFFF8E73B294FFFF75AD000000009D
:1041E4000000000000000000000000000000C318F0
:1041F4007DEFFFFF0C6300000000000000000000E2
:1042040000000000FFFF00000000000000000000AC
:10421400000000000000000000000000000000009A
:10422400000000000000000000000000000000008A
:10423400000000000000000000000000000000007A
:10424400000000000000000000000000000000006A
:10425400000000000000000000000000000000005A
:10426400000000000000FFFF00000000000000004C
:10427400000000000000CB5AFFFFBEF745290000F4
:10428400000000000000000000000000000000002A
:1042940075ADFFFFB9D63CEFFFFFCF7B00000000F8
:1042A4000000000000000000000000000000CB5AE5
:1042B400FFFFFFFF45290000000000000000000090
:1042C40000000000FFFF00000000000000000000EC
:1042D40000000000000000000000000000000000DA
:1042E40000000000000000000000000000000000CA
:1042F40000000000000000000000000000000000BA
:1043040000000000000000000000000000000000A9
:104314000000000000000000000000000000000099
:10432400000000000000FFFF00000000000000008B
:10433400000000000000C3183CE7FFFFF39C0000EE
:104344000000000000000000000000000000000069
:10435400CB627FD77E66BF767EDF853100000000AA
:10436400000000000000000000000000410838C602
:10437400FFFFF7BD00000000000000000000000087
:1043840000000000FFFF000000000000000000002B
:104394000000000000000000000000000000000019
:1043A4000000000000000000000000000000000009
:1043B40000000000000000000000000000000000F9
:1043C40000000000000000000000000000000000E9
:1043D40000000000000000000000000000000000D9
:1043E400000000000000FFFF0000000000000000CB
:1043F4000000000000000000CF7BFFFFFFFFCB5A4E
:1044040000000000000000000000000000000000A8
:1044140000083A257E05BE05752C0000000000004A
:10442400000000000000000000000000718CFFFF8D
:10443400FFFF8A520000000000000000000000009E
:1044440000000000FFFF000000000000000000006A
:104454000000000000000000000000000000000058
:104464000000000000000000000000000000000048
:104474000000000000000000000000000000000038
:104484000000000000000000000000000000000028
:104494000000000000000000000000000000000018
:1044A400000000000000FFFF00000000000000000A
:1044B4000000000000000000821079CEFFFFBEF76C
:1044C4004D6B000000000000000000000000000030
:1044D400CB5ABC357E057E05BA4D074A0000000064
:1044E40000000000000000008210B294FFFFFFFFF4
:1044F400F39C000000000000000000000000000029
:1045040000000000FFFF00000000000000000000A9
:104514000000000000000000000000000000000097
:104524000000000000000000000000000000000087
:104534000000000000000000000000000000000077
:104544000000000000000000000000000000000067
:104554000000000000000000000000000000000057
:10456400000000000000FFFF000000000000000049
:10457400000000000000000000000421BAD6FFFF84
:10458400FFFF38C64D6BC739042186310C63B6B5BD
:10459400FFFFFFD7BC453D56FFEFFFFF34A58A520E
:1045A400452904210842CF7BBAD6FFFFFFFFB6B5E9
:1045B4008210000000000000000000000000000065
:1045C40000000000FFFF00000000000000000000E9
:1045D40000000000000000000000000000000000D7
:1045E40000000000000000000000000000000000C7
:1045F40000000000000000000000000000000000B7
:1046040000000000000000000000000000000000A6
:104614000000000000000000000000000000000096
:10462400000000000000FFFF000000000000000088
:10463400000000000000000000000000042175AD2F
:10464400FFFFFFFFFFFFFFFFBEF7FFFFFFFFFFFFBF
:10465400FFFF38CE8531484ABADEFFFFFFFFFFFF78
:10466400BEF7BEF7FFFFFFFFFFFFFFFFB294410855
:104674000000000000000000000000000000000036
:1046840000000000FFFF0000000000000000000028
:104694000000000000000000000000000000000016
:1046A4000000000000000000000000000000000006
:1046B40000000000000000000000000000000000F6
:1046C40000000000000000000000000000000000E6
:1046D40000000000000000000000000000000000D6
:1046E400000000000000FFFF0000000000000000C8
:1046F40000000000000000000000000000000000B6
:10470400494A75AD7DEFFFFFFFFFFFFF7DEFF7BD6A
:10471400CB5A00000000000082108E7338C6BEF72A
:10472400FFFFFFFFFFFF3CE7F39CC73900000000D9
:104734000000000000000000000000000000000075
:1047440000000000FFFF0000000000000000000067
:104754000000000000000000000000000000000055
:104764000000000000000000000000000000000045
:104774000000000000000000000000000000000035
:104784000000000000000000000000000000000025
:104794000000000000000000000000000000000015
:1047A400000000000000FFFF000000000000000007
:1047B40000000000000000000000000000000000F5
:1047C40000000000C318C739494A0842C318000052
:1047D40000000000000000000000000000000421B0
:1047E40008420842863182100000000000000000E8
:1047F40000000000000000000000000000000000B5
:1048040000000000FFFF00000000000000000000A6
:104814000000000000000000000000000000000094
:104824000000000000000000000000000000000084
:104834000000000000000000000000000000000074
:104844000000000000000000000000000000000064
:104854000000000000000000000000000000000054
:10486400000000000000FFFF000000000000000046
:104874000000000000000000000000000000000034
:104884000000000000000000000000000000718C27
:10489400B6B54108000000000000718C75AD000041
:1048A4000000000000000000000000000000000004
:1048B40000000000000000000000000000000000F4
:1048C40000000000FFFF00000000000000000000E6
:1048D40000000000000000000000000000000000D4
:1048E40000000000000000000000000000000000C4
:1048F40000000000000000000000000000000000B4
:1049040000000000000000000000000000000000A3
:104914000000000000000000000000000000000093
:10492400000000000000FFFF000000000000000085
:104934000000000000000000000000000000000073
:104944000000000000000000000000000000BAD6D3
:10495400FFFFC318000000004108BAD6FFFF04217E
:104964000000000000000000000000000000000043
:104974000000000000000000000000000000000033
:1049840000000000FFFF0000000000000000000025
:104994000000000000000000000000000000000013
:1049A4000000000000000000000000000000000003
:1049B40000000000000000000000000000000000F3
:1049C40000000000000000000000000000000000E3
:1049D40000000000000000000000000000000000D3
:1049E400000000000000FFFF0000000000000000C5
:1049F40000000000000000000000000000000000B3
:104A0400000000000000000000000000000079CE5B
:104A1400FFFF821000000000000079CEBEF70421E1
:104A24000000000000000000000000000000000082
:104A34000000000000000000000000000000000072
:104A440000000000FFFF0000000000000000000064
:104A54000000000000000000000000000000000052
:104A64000000000000000000000000000000000042
:104A74000000000000000000000000000000000032
:104A84000000000000000000000000000000000022
:104A94000000000000000000000000000000000012
:104AA400000000000000FFFF000000000000000004
:104AB40000000000000000000000000000000000F2
:104AC400000000000000000000000000000079CE9B
:104AD400FFFFC739042104214529BAD6BEF70421B2
:104AE40000000000000000000000000000000000C2
:104AF40000000000000000000000000000000000B2
:104B040000000000FFFF00000000000000000000A3
:104B14000000000000000000000000000000000091
:104B24000000000000000000000000000000000081
:104B34000000000000000000000000000000000071
:104B44000000000000000000000000000000000061
:104B54000000000000000000000000000000000051
:104B6400000000000000FFFF000000000000000043
:104B74000000000000000000000000000000000031
:104B8400000000000000000000000000000079CEDA
:104B9400FFFFBEF7BEF7BEF7BEF7FFFF7DEF0421B0
:104BA4000000000000000000000000000000000001
:104BB40000000000000000000000000000000000F1
:104BC40000000000FFFF00000000000000000000E3
:104BD40000000000000000000000000000000000D1
:104BE40000000000000000000000000000000000C1
:104BF40000000000000000000000000000000000B1
:104C040000000000000000000000000000000000A0
:104C14000000000000000000000000000000000090
:104C2400000000000000FFFF000000000000000082
:104C34000000000000000000000000000000000070
:104C4400000000000000000000000000000079CE19
:104C5400FFFF718CCF7BCF7BCF7B3CE77DEF0421C3
:104C64000000000000000000000000000000000040
:104C74000000000000000000000000000000000030
:104C840000000000FFFF0000000000000000000022
:104C94000000000000000000000000000000000010
:104CA4000000000000000000000000000000000000
:104CB40000000000000000000000000000000000F0
:104CC40000000000000000000000000000000000E0
:104CD40000000000000000000000000000000000D0
:104CE400000000000000FFFF0000000000000000C2
:104CF40000000000000000000000000000000000B0
:104D0400000000000000000000000000000079CE58
:104D1400FFFF821000000000000079CEBEF70421DE
:104D2400000000000000000000000000000000007F
:104D3400000000000000000000000000000000006F
:104D440000000000FFFF0000000000000000000061
:104D5400000000000000000000000000000000004F
:104D6400000000000000000000000000000000003F
:104D7400000000000000000000000000000000002F
:104D8400000000000000000000000000000000001F
:104D9400000000000000000000000000000000000F
:104DA400000000000000FFFF000000000000000001
:104DB40000000000000000000000000000000000EF
:104DC4000000000000000000000000000000BAD64F
:104DD400FFFFC31800000000410879CEBEF704218C
:104DE400C318718C718C04210000000000000000C5
:104DF40000000000000000000000000000000000AF
:104E040000000000FFFF00000000000000000000A0
:104E1400000000000000000000000000000000008E
:104E2400000000000000000000000000000000007E
:104E3400000000000000000000000000000000006E
:104E4400000000000000000000000000000000005E
:104E5400000000000000000000000000000000004E
:104E6400000000000000FFFF000000000000000040
:104E7400000000000000000000000000000000002E
:104E84000000000000000000000000000000BAD68E
:104E9400FFFFC318000000000000BAD6FFFFC318CC
:104EA4008E730C638E73F39C0000000000000000FE
:104EB40000000000000000000000000000000000EE
:104EC40000000000FFFF00000000000000000000E0
:104ED40000000000000000000000000000000000CE
:104EE40000000000000000000000000000000000BE
:104EF40000000000000000000000000000000000AE
:104F0400000000000000000000000000000000009D
:104F1400000000000000000000000000000000008D
:104F2400000000000000FFFF00000000000000007F
:104F3400000000000000000000000000000000006D
:104F440000000000000000000000000000008E735C
:104F5400B29441080000000000008E73B29441082E
:104F64004108821034A5CB5A000000000000000064
:104F7400000000000000000000000000000000002D
:104F840000000000FFFF000000000000000000001F
:104F9400000000000000000000000000000000000D
:104FA40000000000000000000000000000000000FD
:104FB40000000000000000000000000000000000ED
:104FC40000000000000000000000000000000000DD
:104FD40000000000000000000000000000000000CD
:104FE400000000000000FFFF0000000000000000BF
:104FF40000000000000000000000000000000000AD
:10500400000000000000000000000000000000009C
:10501400000000000000000000000000000000008C
:10502400C31875AD4D6B00000000000000000000C7
:10503400000000000000000000000000000000006C
:1050440000000000FFFF000000000000000000005E
:10505400000000000000000000000000000000004C
:10506400000000000000000000000000000000003C
:10507400000000000000000000000000000000002C
:10508400000000000000000000000000000000001C
:10509400000000000000000000000000000000000C
:1050A400000000000000FFFF0000000000000000FE
:1050B40000000000000000000000000000000000EC
:1050C40000000000000000000000000000000000DC
:1050D40000000000000000000000000000000000CC
:1050E4008E733CE7F39C0C6300000000000000009A
:1050F40000000000000000000000000000000000AC
:1051040000000000FFFF000000000000000000009D
:10511400000000000000000000000000000000008B
:10512400000000000000000000000000000000007B
:10513400000000000000000000000000000000006B
:10514400000000000000000000000000000000005B
:10515400000000000000000000000000000000004B
:10516400000000000000FFFF00000000000000003D
:10517400000000000000000000000000000000002B
:10518400000000000000000000000000000000001B
:10519400000000000000000000000000000000000B
:1051A4004108C3180421C3180000000000000000D7
:1051B40000000000000000000000000000000000EB
:1051C40000000000FFFF00000000000000000000DD
:1051D40000000000000000000000000000000000CB
:1051E40000000000000000000000000000000000BB
:1051F40000000000000000000000000000000000AB
:10520400000000000000000000000000000000009A
:10521400000000000000000000000000000000008A
:10522400000000000000FFFF00000000000000007C
:10523400000000000000000000000000000000006A
:10524400000000000000000000000000000000005A
:10525400000000000000000000000000000000004A
:10526400000000000000000000000000000000003A
:10527400000000000000000000000000000000002A
:1052840000000000FFFF000000000000000000001C
:10529400000000000000000000000000000000000A
:1052A40000000000000000000000000000000000FA
:1052B40000000000000000000000000000000000EA
:1052C40000000000000000000000000000000000DA
:1052D40000000000000000000000000000000000CA
:1052E400000000000000FFFF0000000000000000BC
:1052F40000000000000000000000000000000000AA
:105304000000000000000000000000000000000099
:105314000000000000000000000000000000000089
:105324000000000000000000000000000000000079
:105334000000000000000000000000000000000069
:1053440000000000FFFF000000000000000000005B
:105354000000000000000000000000000000000049
:105364000000000000000000000000000000000039
:105374000000000000000000000000000000000029
:105384000000000000000000000000000000000019
:105394000000000000000000000000000000000009
:1053A400000000000000FFFF0000000000000000FB
:1053B40000000000000000000000000000000000E9
:1053C40000000000000000000000000000000000D9
:1053D40000000000000000000000000000000000C9
:1053E40000000000000000000000000000000000B9
:1053F40000000000000000000000000000000000A9
:1054040000000000FFFF000000000000000000009A
:105414000000000000000000000000000000000088
:105424000000000000000000000000000000000078
:105434000000000000000000000000000000000068
:105444000000000000000000000000000000000058
:105454000000000000000000000000000000000048
:10546400000000000000FFFF00000000000000003A
:105474000000000000000000000000000000000028
:105484000000000000000000000000000000000018
:105494000000000000000000000000000000000008
:1054A40000000000000000000000000000000000F8
:1054B40000000000000000000000000000000000E8
:1054C40000000000FFFF00000000000000000000DA
:1054D40000000000000000000000000000000000C8
:1054E40000000000000000000000000000000000B8
:1054F40000000000000000000000000000000000A8
:105504000000000000000000000000000000000097
:105514000000000000000000000000000000000087
:10552400000000000000FFFF000000000000000079
:105534000000000000000000000000000000000067
:105544000000000000000000000000000000000057
:105554000000000000000000000000000000000047
:105564000000000000000000000000000000000037
:105574000000000000000000000000000000000027
:1055840000000000FFFF0000000000000000000019
:105594000000000000000000000000000000000007
:1055A40000000000000000000000000000000000F7
:1055B40000000000000000000000000000000000E7
:1055C40000000000000000000000000000000000D7
:1055D40000000000000000000000000000000000C7
:1055E400000000000000FFFF0000000000000000B9
:1055F40000000000000000000000000000000000A7
:105604000000000000000000000000000000000096
:105614000000000000000000000000000000000086
:105624000000000000000000000000000000000076
:105634000000000000000000000000000000000066
:1056440000000000FFFF0000000000000000000058
:105654000000000000000000000000000000000046
:105664000000000000000000000000000000000036
:105674000000000000000000000000000000000026
:105684000000000000000000000000000000000016
:105694000000000000000000000000000000000006
:1056A400000000000000FFFFFFFF000000000000FA
:1056B40000000000000000000000000000000000E6
:1056C40000000000000000000000000000000000D6
:1056D40000000000000000000000000000000000C6
:1056E40000000000000000000000000000000000B6
:1056F40000000000000000000000000000000000A6
:105704000000FFFFFFFF0000000000000000000099
:105714000000000000000000000000000000000085
:105724000000000000000000000000000000000075
:105734000000000000000000000000000000000065
:105744000000000000000000000000000000000055
:105754000000000000000000000000000000000045
:105764000000000000000000FFFFFFFF0000000039
:105774000000000000000000000000000000000025
:105784000000000000000000000000000000000015
:105794000000000000000000000000000000000005
:1057A40000000000000000000000000000000000F5
:1057B40000000000000000000000000000000000E5
:1057C400FFFFFFFF000000000000000000000000D9
:1057D40000000000000000000000000000000000C5
:1057E40000000000000000000000000000000000B5
:1057F40000000000000000000000000000000000A5
:105804000000000000000000000000000000000094
:105814000000000000000000000000000000000084
:1058240000000000000000000000FFFFFFFFFFFF7A
:10583400FFFFFFFFFFFFFFFFFFFFFFFFFFFFFFFF74
:10584400FFFFFFFFFFFFFFFFFFFFFFFFFFFFFFFF64
:10585400FFFFFFFFFFFFFFFFFFFFFFFFFFFFFFFF54
:10586400FFFFFFFFFFFFFFFFFFFFFFFFFFFFFFFF44
:10587400FFFFFFFFFFFFFFFFFFFFFFFFFFFFFFFF34
:10588400FFFF000000000000000000000000000016
:105894000000000000000000000000000000000004
:1058A40000000000000000000000000000000000F4
:1058B40000000000000000000000000000000000E4
:1058C40000000000000000000000000000000000D4
:1058D40000000000000000000000000000000000C4
:1058E40000000000000000000000000000000000B4
:1058F40000000000000000000000000000000000A4
:105904000000000000000000000000000000000093
:105914000000000000000000000000000000000083
:105924000000000000000000000000000000000073
:105934000000000000000000000000000000000063
:105944000000000000000000000000000000000053
:105954000000000000000000000000000000000043
:105964000000000000000000000000000000000033
:105974000000000000000000000000000000000023
:105984000000000000000000000000000000000013
:105994000000000000000000000000000000000003
:1059A40000000000000000000000000000000000F3
:1059B40000000000000000000000000000000000E3
:1059C40000000000000000000000000000000000D3
:1059D40000000000000000000000000000000000C3
:1059E40000000000000000000000000000000000B3
:1059F40000000000000000000000000000000000A3
:105A04000000000000000000000000000000000092
:105A14000000000000000000000000000000000082
:105A24000000000000000000000000000000000072
:105A34000000000000000000000000000000000062
:105A4400000000000000000082100C638E738E734F
:105A54008E738E738E738E738E738E738E738E733A
:105A64008E738E738E738E738E738E738E738E732A
:105A74008E738E738E738E738E738E738E738E731A
:105A84008E738E738E738E738E738E738E738E730A
:105A94008E738E738E738E738E738E738E738E73FA
:105AA4008E738E738E738E738E738E738E738E73EA
:105AB4008E738E738E738E738E738E738E738E73DA
:105AC4008E738E738E738E738E738E738E738E73CA
:105AD4008E738E738E738E738E738E738E738E73BA
:105AE4008A5241080000000000000000000000008D
:105AF40000000000000000000000000000000000A2
:105B0400000000000000000034A5FFFFFFFFFFFFBE
:105B1400FFFFFFFFFFFFFFFFFFFFFFFFFFFFFFFF91
:105B2400FFFFFFFFFFFFFFFFFFFFFFFFFFFFFFFF81
:105B3400FFFFFFFFFFFFFFFFFFFFFFFFFFFFFFFF71
:105B4400FFFFFFFFFFFFFFFFFFFFFFFFFFFFFFFF61
:105B5400FFFFFFFFFFFFFFFFFFFFFFFFFFFFFFFF51
:105B6400FFFFFFFFFFFFFFFFFFFFFFFFFFFFFFFF41
:105B7400FFFFFFFFFFFFFFFFFFFFFFFFFFFFFFFF31
:105B8400FFFFFFFFFFFFFFFFFFFFFFFFFFFFFFFF21
:105B9400FFFFFFFFFFFFFFFFFFFFFFFFFFFFFFFF11
:105BA400FFFFCF7B000000000000000000000000A9
:105BB40000000000000000000000000000000000E1
:105BC4000000000000004108FBDEFFFFFFFFFFFFB5
:105BD400FFFFFFFFFFFFFFFFFFFFFFFFFFFFFFFFD1
:105BE400FFFFFFFFFFFFFFFFFFFFFFFFFFFFFFFFC1
:105BF400FFFFFFFFFFFFFFFFFFFFFFFFFFFFFFFFB1
:105C0400FFFFFFFFFFFFFFFFFFFFFFFFFFFFFFFFA0
:105C1400FFFFFFFFFFFFFFFFFFFFFFFFFFFFFFFF90
:105C2400FFFFFFFFFFFFFFFFFFFFFFFFFFFFFFFF80
:105C3400FFFFFFFFFFFFFFFFFFFFFFFFFFFFFFFF70
:105C4400FFFFFFFFFFFFFFFFFFFFFFFFFFFFFFFF60
:105C5400FFFFFFFFFFFFFFFFFFFFFFFFFFFFFFFF50
:105C6400FFFFF7BD0000000000000000000000007E
:105C74000000000000000000000000000000000020
:105C84000000000000004108BAD6FFFFFFFFFFFF3D
:105C9400FFFFFFFFFFFFFFFFFFFFFFFFFFFFFFFF10
:105CA400FFFFFFFFFFFFFFFFFFFFFFFFFFFFFFFF00
:105CB400FFFFFFFFFFFFFFFFFFFFFFFFFFFFFFFFF0
:105CC400FFFFFFFFFFFFFFFFFFFFFFFFFFFFFFFFE0
:105CD400FFFFFFFFFFFFFFFFFFFFFFFFFFFFFFFFD0
:105CE400FFFFFFFFFFFFFFFFFFFFFFFFFFFFFFFFC0
:105CF400FFFFFFFFFFFFFFFFFFFFFFFFFFFFFFFFB0
:105D0400FFFFFFFFFFFFFFFFFFFFFFFFFFFFFFFF9F
:105D1400FFFFFFFFFFFFFFFFFFFFFFFFFFFFFFFF8F
:105D2400FFFFF7BD000000000000000000000000BD
:105D3400000000000000000000000000000000005F
:105D44000000000000004108BAD6FFFFFFFFFFFF7C
:105D5400FFFFFFFFFFFFFFFFFFFFFFFFFFFFFFFF4F
:105D6400FFFFFFFFFFFFFFFFFFFFFFFFFFFFFFFF3F
:105D7400FFFFFFFFFFFFFFFFFFFFFFFFFFFFFFFF2F
:105D8400FFFFFFFFFFFFFFFFFFFFFFFFFFFFFFFF1F
:105D9400FFFFFFFFFFFFFFFFFFFFFFFFFFFFFFFF0F
:105DA400FFFFFFFFFFFFFFFFFFFFFFFFFFFFFFFFFF
:105DB400FFFFFFFFFFFFFFFFFFFFFFFFFFFFFFFFEF
:105DC400FFFFFFFFFFFFFFFFFFFFFFFFFFFFFFFFDF
:105DD400FFFFFFFFFFFFFFFFFFFFFFFFFFFFFFFFCF
:105DE400FFFFB6B500000000000000000000000046
:105DF400000000000000000000000000000000009F
:105E04000000000000004108BAD6FFFFFFFFFFFFBB
:105E1400FFFFFFFFFFFFFFFFFFFFFFFFFFFFFFFF8E
:105E2400FFFFFFFFFFFFFFFFFFFFFFFFFFFFFFFF7E
:105E3400FFFFFFFFFFFFFFFFFFFFFFFFFFFFFFFF6E
:105E4400FFFFFFFFFFFFFFFFFFFFFFFFFFFFFFFF5E
:105E5400FFFFFFFFFFFFFFFFFFFFFFFFFFFFFFFF4E
:105E6400FFFFFFFFFFFFFFFFFFFFFFFFFFFFFFFF3E
:105E7400FFFFFFFFFFFFFFFFFFFFFFFFFFFFFFFF2E
:105E8400FFFFFFFFFFFFFFFFFFFFFFFFFFFFFFFF1E
:105E9400FFFFFFFFFFFFFFFFFFFFFFFFFFFFFFFF0E
:105EA400FFFFB6B500000000000000000000000085
:105EB40000000000000000000000000000000000DE
:105EC4000000000000004108BAD6FFFFFFFFFFFFFB
:105ED400FFFFFFFFFFFFFFFFFFFFFFFFFFFFFFFFCE
:105EE400FFFFFFFFFFFFFFFFFFFFFFFFFFFFFFFFBE
:105EF400FFFFFFFFFFFFFFFFFFFFFFFFFFFFFFFFAE
:105F0400FFFFFFFFFFFFFFFFFFFFFFFFFFFFFFFF9D
:105F1400FFFFFFFFFFFFFFFFFFFFFFFFFFFFFFFF8D
:105F2400FFFFFFFFFFFFFFFFFFFFFFFFFFFFFFFF7D
:105F3400FFFFFFFFFFFFFFFFFFFFFFFFFFFFFFFF6D
:105F4400FFFFFFFFFFFFFFFFFFFFFFFFFFFFFFFF5D
:105F5400FFFFFFFFFFFFFFFFFFFFFFFFFFFFFFFF4D
:105F6400FFFFB6B5000000000000000000000000C4
:105F7400000000000000000000000000000000001D
:105F84000000000000004108BAD6FFFFFFFFFFFF3A
:105F9400FFFFFFFFFFFFFFFFFFFFFFFFFFFFFFFF0D
:105FA400FFFFFFFFFFFFFFFFFFFFFFFFFFFFFFFFFD
:105FB400FFFFFFFFFFFFFFFFFFFFFFFFFFFFFFFFED
:105FC400FFFFFFFFFFFFFFFFFFFFFFFFFFFFFFFFDD
:105FD400FFFFFFFFFFFFFFFFFFFFFFFFFFFFFFFFCD
:105FE400FFFFFFFFFFFFFFFFFFFFFFFFFFFFFFFFBD
:105FF400FFFFFFFFFFFFFFFFFFFFFFFFFFFFFFFFAD
:10600400FFFFFFFFFFFFFFFFFFFFFFFFFFFFFFFF9C
:10601400FFFFFFFFFFFFFFFFFFFFFFFFFFFFFFFF8C
:10602400FFFFB6B500000000000000000000000003
:10603400000000000000000000000000000000005C
:106044000000000000004108BAD6FFFFFFFFFFFF79
:10605400FFFFFFFFFFFFFFFFFFFFFFFFFFFFFFFF4C
:10606400FFFFFFFFFFFFFFFFFFFFFFFFFFFFFFFF3C
:10607400FFFFFFFFFFFFFFFFFFFFFFFFFFFFFFFF2C
:10608400FFFFFFFFFFFFFFFFFFFFFFFFFFFFFFFF1C
:10609400FFFFFFFFFFFFFFFFFFFFFFFFFFFFFFFF0C
:1060A400FFFFFFFFFFFFFFFFFFFFFFFFFFFFFFFFFC
:1060B400FFFFFFFFFFFFFFFFFFFFFFFFFFFFFFFFEC
:1060C400FFFFFFFFFFFFFFFFFFFFFFFFFFFFFFFFDC
:1060D400FFFFFFFFFFFFFFFFFFFFFFFFFFFFFFFFCC
:1060E400FFFFB6B500000000000000000000000043
:1060F400000000000000000000000000000000009C
:106104000000000000004108BAD6FFFFFFFFFFFFB8
:10611400FFFFFFFFFFFFFFFFFFFFFFFFFFFFFFFF8B
:10612400FFFFFFFFFFFFFFFFFFFFFFFFFFFFFFFF7B
:10613400FFFFFFFFFFFFFFFFFFFFFFFFFFFFFFFF6B
:10614400FFFFFFFFFFFFFFFFFFFFFFFFFFFFFFFF5B
:10615400FFFFFFFFFFFFFFFFFFFFFFFFFFFFFFFF4B
:10616400FFFFFFFFFFFFFFFFFFFFFFFFFFFFFFFF3B
:10617400FFFFFFFFFFFFFFFFFFFFFFFFFFFFFFFF2B
:10618400FFFFFFFFFFFFFFFFFFFFFFFFFFFFFFFF1B
:10619400FFFFFFFFFFFFFFFFFFFFFFFFFFFFFFFF0B
:1061A400FFFFB6B500000000000000000000000082
:1061B40000000000000000000000000000000000DB
:1061C4000000000000004108BAD6FFFFFFFFFFFFF8
:1061D400FFFFFFFFFFFFFFFFFFFFFFFFFFFFFFFFCB
:1061E400FFFFFFFFFFFFFFFFFFFFFFFFFFFFFFFFBB
:1061F400FFFFFFFFFFFFFFFFFFFFFFFFFFFFFFFFAB
:10620400FFFFFFFFFFFFFFFFFFFFFFFFFFFFFFFF9A
:10621400FFFFFFFFFFFFFFFFFFFFFFFFFFFFFFFF8A
:10622400FFFFFFFFFFFFFFFFFFFFFFFFFFFFFFFF7A
:10623400FFFFFFFFFFFFFFFFFFFFFFFFFFFFFFFF6A
:10624400FFFFFFFFFFFFFFFFFFFFFFFFFFFFFFFF5A
:10625400FFFFFFFFFFFFFFFFFFFFFFFFFFFFFFFF4A
:10626400FFFFB6B5000000000000000000000000C1
:10627400000000000000000000000000000000001A
:106284000000000000004108BAD6FFFFFFFFFFFF37
:10629400FFFFFFFFFFFFFFFFFFFFFFFFFFFFFFFF0A
:1062A400FFFFFFFFFFFFFFFFFFFFFFFFFFFFFFFFFA
:1062B400FFFFFFFFFFFFFFFFFFFFFFFFFFFFFFFFEA
:1062C400FFFFFFFFFFFFFFFFFFFFFFFFFFFFFFFFDA
:1062D400FFFFFFFFFFFFFFFFFFFFFFFFFFFFFFFFCA
:1062E400FFFFFFFFFFFFFFFFFFFFFFFFFFFFFFFFBA
:1062F400FFFFFFFFFFFFFFFFFFFFFFFFFFFFFFFFAA
:10630400FFFFFFFFFFFFFFFFFFFFFFFFFFFFFFFF99
:10631400FFFFFFFFFFFFFFFFFFFFFFFFFFFFFFFF89
:10632400FFFFB6B500000000000000000000000000
:106334000000000000000000000000000000000059
:106344000000000000004108FBDEFFFFFFFFFFFF2D
:10635400FFFFFFFFFFFFFFFFFFFFFFFFFFFFFFFF49
:10636400FFFFFFFFFFFFFFFFFFFFFFFFFFFFFFFF39
:10637400FFFFFFFFFFFFFFFFFFFFFFFFFFFFFFFF29
:10638400FFFFFFFFFFFFFFFFFFFFFFFFFFFFFFFF19
:10639400FFFFFFFFFFFFFFFFFFFFFFFFFFFFFFFF09
:1063A400FFFFFFFFFFFFFFFFFFFFFFFFFFFFFFFFF9
:1063B400FFFFFFFFFFFFFFFFFFFFFFFFFFFFFFFFE9
:1063C400FFFFFFFFFFFFFFFFFFFFFFFFFFFFFFFFD9
:1063D400FFFFFFFFFFFFFFFFFFFFFFFFFFFFFFFFC9
:1063E400FFFFF7BD000000000000000000000000F7
:1063F4000000000000000000000000000000000099
:106404000000000000000000B6B5FFFFFFFFFFFF23
:10641400FFFFFFFFFFFFFFFFFFFFFFFFFFFFFFFF88
:10642400FFFFFFFFFFFFFFFFFFFFFFFFFFFFFFFF78
:10643400FFFFFFFFFFFFFFFFFFFFFFFFFFFFFFFF68
:10644400FFFFFFFFFFFFFFFFFFFFFFFFFFFFFFFF58
:10645400FFFFFFFFFFFFFFFFFFFFFFFFFFFFFFFF48
:10646400FFFFFFFFFFFFFFFFFFFFFFFFFFFFFFFF38
:10647400FFFFFFFFFFFFFFFFFFFFFFFFFFFFFFFF28
:10648400FFFFFFFFFFFFFFFFFFFFFFFFFFFFFFFF18
:10649400FFFFFFFFFFFFFFFFFFFFFFFFFFFFFFFF08
:1064A400FFFF718C000000000000000000000000ED
