:10000000FCFF022001100000191500001915000066
:100010001915000019150000191500001915000028
:100020001915000019150000191500001915000018
:100030001915000019150000191500001915000008
:1000400019150000191500001915000019150000F8
:1000500019150000191500001915000019150000E8
:1000600019150000191500001915000019150000D8
:1000700019150000191500001915000019150000C8
:1000800019150000191500001915000019150000B8
:1000900019150000191500001915000019150000A8
:1000A0001915000019150000191500001915000098
:1000B0001915000019150000191500001915000088
:1000C0001915000019150000191500001915000078
:1000D0001915000019150000191500001915000068
:1000E0001915000019150000191500001915000058
:1000F0001915000019150000191500001915000048
:100100001915000019150000191500001915000037
:100110001915000019150000191500001915000027
:100120001915000019150000191500001915000017
:100130001915000019150000191500001915000007
:1001400019150000191500001915000019150000F7
:1001500019150000191500001915000019150000E7
:1001600019150000191500001915000019150000D7
:1001700019150000191500001915000019150000C7
:1001800019150000191500001915000019150000B7
:0801900019150000191500000B
:1010000081B000F099FA00F08BFA05F0E5F900F0F4
:1010100037FD05F0A1F900F0CDF806480246064973
:10102000064800F0B3F8064800F05CF8014800F00C
:101030003FFAFEE7941A00001B0002201A0002206B
:041040001800022072
:1010D00081B01CF8019B0BF8019BBBEB0A0FF8D108
:0410E00001B07047A4
:1014740081B04FF000094FF0000CBDEB0A0F04DC03
:10148400BDEB0B0F01DBD446EA464BF8049BBBEBE8
:101494000A0FFAD1BCEB0A0F05DDE246D9F800B019
:0A14A4000BF1040BF1E701B07047F3
:1011B40081B0CDF800E00321A34801700021A348C9
:1011C4000160FFF7A3FD4FF40051A148FFF7D0FDE4
:1011D4004FF400419F48FFF7CBFD4FF040019E487C
:1011E400FFF7C6FD4FF480119C48FFF7C1FD9C4AF0
:1011F4009C499D48FFF7DEFEFFF74EFFFFF7F0FE28
:10120400002149B299480160FFF7EAFE012149B281
:1012140096480160FFF7E4FEFFF712FF0121FD206D
:10122400FFF718FF08B102200AE100211220FFF79E
:1012340011FF08B1022003E10121FD20FFF70AFF9D
:1012440008B10220FCE00021B120FFF703FF08B140
:101254000220F5E00121AE20FFF7FCFE08B10220D8
:10126400EEE00121B320FFF7F5FE08B10220E7E02C
:101274000021F120FFF7EEFE08B10220E0E0012199
:10128400CA20FFF7E7FE08B10220D9E000215F2061
:10129400FFF7E0FE08B10220D2E00121A020FFF711
:1012A400D9FE08B10220CBE000216020FFF7D2FE76
:1012B40008B10220C4E001211520FFF7CBFE08B1DC
:1012C4000220BDE000210020FFF7C4FE08B1022087
:1012D400B6E000215F20FFF7BDFE08B10220AFE0B9
:1012E40001217520FFF7B6FE08B10220A8E0002115
:1012F4000020FFF7AFFE08B10220A1E000215F202B
:10130400FFF7A8FE08B102209AE00121A120FFF70F
:10131400A1FE08B1022093E000218020FFF79AFE8D
:1013240008B102208CE00121A220FFF793FE08B14E
:10133400022085E000216020FFF78CFE08B1022026
:101344007EE00121B120FFF785FE08B1022077E09D
:1013540001213220FFF77EFE08B1022070E0012156
:10136400BE20FFF777FE08B1022069E001210520C5
:10137400FFF770FE08B1022062E00121A620FFF70A
:1013840069FE08B102205BE00121C120FFF762FE83
:1013940008B1022054E000218A20FFF75BFE08B167
:1013A40002204DE000215120FFF754FE08B1022035
:1013B40046E000218A20FFF74DFE08B102203FE0FD
:1013C4000121C720FFF746FE08B1022038E00021C2
:1013D400CF20FFF73FFE08B1022031E00121B42005
:1013E400FFF738FE08B102202AE00021A020FFF711
:1013F40031FE08B1022023E00021B520FFF72AFEC8
:1014040008B102201CE000215520FFF723FE08B19B
:10141400022015E00121B620FFF71CFE08B10220CE
:101424000EE000210120FFF715FE08B1022007E0BD
:101434000121AF20FFF70EFE08B1022000E00020DA
:10144400DDF800E001B07047120002201400022011
:1014540080F00F40C0F00F4000F10F4040F00F400B
:101464009C62000007000084C0E1E4001820FE43F1
:0014740078
:100D100081B0114911480160114912480160012256
:100D2000142A0EDAD1000F48411840F20000086082
:100D3000D1000C484018011D00200860521CD2B29E
:100D4000EEE70121084801700021084801700021E8
:100D50000748017001B07047FFFF01002800022022
:100D600004000020240002200200002003000220D2
:040D7000030000205C
:100D740081B0CDF800E0034AFFF7AAFFDDF800E0F8
:080D840001B0704704010400F6
:100CD40081B0CDF800E080460A4B984503D20A4B18
:100CE400984500D909E0074BA8EB030303F03F0341
:100CF40003B102E04046FFF777FEDDF800E001B003
:0C0D0400704700BF00F00F4014F10F40DA
:1009EC0083B0CDF800E006460C4615463046FFF7BE
:1009FC0039FC40F2FF1306EA030080090026224668
:100A0C002946202E39D24FF0010303FA06F402EAEC
:100A1C0004031F46A3422ED104031A4B1C19B30026
:100A2C00E51801952C68184B04EA03032B60174B4F
:100A3C0001EA0304019B1B6843EA0404019B1C604C
:100A4C0001F48033B3F5803F15D08401104B1B1992
:100A5C001433029301F400333BB1FC43029B1B683B
:100A6C0003EA0404029B1C6005E0029B1B6843EA3A
:100A7C000704029B1C60761CC3E7DDF800E003B0A2
:100A8C00704700BF009004400000FFFFFFFF000014
:040A9C0000F00F4017
:1002700081B040F2FF1100EA01018909084600F24D
:1002800009024FF0010101FA02F20449096841EA4A
:10029000020202490A6001B0704700BF3880044082
:0002A0005E
:100FB80081B0CDF800E003460C4615460648FFF719
:100FC8004FFE224619462B460348FFF7D7FDDDF8AA
:0C0FD80000E001B0704700BF00C00A40FC
:100C680081B00F49884206D10E4A0F490A600F4ADF
:100C78000F490A6012E00F49884206D10E4A0A4914
:100C88000A600E4A0A490A6008E00D49884205D1FF
:100C98000C4A05490A600C4A05490A6001B07047C8
:100CA80000C0024045030000C4000220FFFFFFFF10
:100CB800C800022000D00240A10A0000FFFFFFFF89
:0C0CC80000C00A40C10A0000FFFFFFFF4F
:100B840084B0CDF800E00391014610460190029133
:100B94001846FFF7CBFC0299019800F010042409D1
:100BA4002746019002910846FFF7A6FB029902919D
:100BB4000846FFF7D5FB0299019800F000450C6840
:100BC4002C430C6000F080450C682C430C600C68CE
:100BD40044F440540C600D686FF4804405EA040446
:100BE4000C6001F20C05BC002E1900F00F053468EE
:100BF4002C43346001F20C05BC002E1900F0806512
:100C040034682C43346001F20C05BC002E1900F04A
:100C1400007534682C43346001F20C05BC002E19B5
:100C240000F0807534682C43346001F20C05BC007C
:100C34002D196FF0F0442C6001F20C05BC002D1945
:100C440000F00F04E4062C600191039A0846F9B2FF
:100C5400FFF7DCFB01990846FFF7B8FBDDF800E07D
:040C640004B0704721
:1005300082B0CDF800E0014600208C4681000CEB33
:1005400001010968B1F1FF3F13D00CF134018300C0
:10055000C91809680A460CEB03010968ADF80400E4
:1005600008461146FFF758FEBDF80400401C80B253
:0A057000E4E7DDF800E002B0704798
:1002180082B0CDF800E081464FEA591202F0070299
:10022800924609F01F04A34693010D4AD3184FF0D4
:100238000102A240019218460A46019900F046FDC3
:100248004FEA0A33074AD3184FEA8B029C1809F47D
:10025800E06322681A432260DDF800E002B07047CC
:0802680000F00F40009004407B
:1002FC0081B00B49884203D1012252B209490A60EC
:10030C000949884203D1012252B208490A600849BE
:10031C00884203D1012252B206490A6001B07047EB
:10032C0000C00240B007904200D00240B407904297
:08033C0000C00A4030069042A7
:1003640081B002686FF4804102EA01010160016812
:1003740041F00101016000F22C031A68124942EABB
:100384000101196000F208020021116000F20C0260
:100394004FF0F041116000F210024FF0F041116093
:1003A40000F230020021116000F2340200211160D9
:1003B400016841F440610160026844F2010142EACB
:0C03C4000101016001B0704700000A9ABE
:1004100091B0CDF800E00F9010468DF840100E908E
:1004200001AB1846FFF7C0FE4FF0FF330D930023DA
:1004300006930023089301230A9300230B930023C0
:100440000593059B042B41D20D9B002B3ED000232E
:100450000793079B102B35D20D9B002B32D0012325
:100460000993099B032B29D20D9B3BB3099C029B4B
:1004700003FB04F6059B9C002B4B1B191D68079B77
:100480009C002A4B1B191B686B43B6FBF3F42046F8
:100490000E9BA3420ED30E9B1C1A0C940D9BA342E1
:1004A00008D90C9B0D93059B0693079B08930B9013
:1004B000099B0A93099B5B1C0993D2E7079B5B1C72
:1004C0000793C6E7059B5B1C0593BAE70F9B03F2F6
:1004D0000C049DF840309B00E5180A9B5B1EDC076E
:1004E0002B6823432B600F9B03F20C049DF84030D4
:1004F0009B00E518069B1B0403F440342B68234340
:100500002B600F9B03F20C049DF840309B00E51814
:10051000089B03F00F042B6823432B600B98DDF836
:1005200000E011B0704700BF48630000086300009E
:00053000CB
:1001A80081B0CDF800E00446FFF7F2FF40F2E831F5
:1001B80000FB01F3154909680A0F1449096801F0A1
:1001C8007061090EC8B21149096801F47001090D7E
:1001D800CDB20E49096801F47021090CCEB2D1B232
:1001E80003FA01F10F462360221D27FA00F111607E
:1001F80004F2080227FA05F1116004F20C0227FA4A
:1002080006F11160DDF800E001B070474480044059
:00021800E6
:1001980081B00248006801B0704700BF200002200B
:0001A80057
:1003D00081B002686FF0010102EA0101016001B021
:0203E000704764
:10109C0081B0002149B20248016001B0704700BF25
:0410AC003410FE43BB
:100FE40081B049F63E47C0F2000700BF00BF7F1E34
:0C0FF400FDD100BF00BF00BF01B070477E
:1010440081B0012149B20248016001B0704700BF7C
:041054003410FE4313
:1010580081B0CDF800E021B100235BB20B4A1360E8
:1010680003E001235BB2094A136000235BB2084A1C
:101078001360C0B2FFF7B2F901235BB2044A1360F0
:101088000020DDF800E001B0704700BF3C18FE43C7
:041098005008FE43BB
:1003E40081B0CDF800E0034C2468A047DDF800E0BC
:0803F40001B07047C4000220B3
:1003440081B0CDF800E082B24FF080610348FFF73E
:10035400A5FFDDF800E001B0704700BF00C0024017
:0003640099
:1002A00081B000F22C04236843F00043236000F285
:1002B000340493B241EA0303236000F22C031C6868
:0C02C000C4F3C07303B9F8E701B0704745
:100AA00081B0CDF800E082B24FF080610348FFF7DB
:100AB000F7FBDDF800E001B0704700BF00D0024056
:000AC00036
:100AC00081B0CDF800E082B24FF080610348FFF7BB
:100AD000E7FBDDF800E001B0704700BF00C00A404E
:000AE00016
:10118C0081B0931C1C78D31C1B781B029BB2E318F8
:10119C000B70131D1C78531D1B781B029BB2E3189C
:0611AC00037001B0704762
:1010E40081B0CDF800E081462249096869B909F167
:1010F40002010A7809F103010978514309B208B2DF
:10110400FFF7D4FF1B4908601DE009F103010A78C9
:10111400194909788A4207D109F102010A78174965
:1011240009788A4200D10EE0FFF77AFE09F1020144
:101134000A7809F103010978514309B208B2FFF7AB
:10114400B5FF0C49086099F800200D490A7009F1AF
:1011540001010A780B490A7009F102010A7807496A
:101164000A7009F103010A7803490A70DDF800E006
:1011740001B0704708000220070002200600022088
:08118400040002200500022016
:1010B00081B0CDF800E041000846FFF72BFD014666
:1010C00008B9002000E00846DDF800E001B07047F4
:0010D00020
:100B140082B0CDF800E0074640F20108042F02D36A
:100B240040F2040804E0022F02D140F20208FFE779
:100B34005FFA88F13846FFF71FFD019050B9084964
:100B4400097839B1FFF720FE5FFA88F13846FFF7DC
:100B540013FD01900198DDF800E002B0704700BF7A
:040B6400030000206A
:10057C0083B040F200047F4A12780AB12046F7E0BB
:10058C000022CDB2D1B2142980F256800126012D61
:10059C000CD9CB00784AD2181368B3FBF5F205FBE3
:1005AC0012320AB1002200E0F2B200E0F2B2002AEC
:1005BC003FD0CB00704AD2181268002A39D9CB0030
:1005CC006D4AD218121D1268824232D3CB006A4A8D
:1005DC00D21812681546CB00674AD218121D126841
:1005EC00824214D9CB00644AD418CB00624AD21888
:1005FC00126812182260CB005F4AD218141DCB006F
:10060C005D4AD218121D1268121A22600FE0CB003C
:10061C00594AD31840F200021A60CB00564AD2183D
:10062C00131D00221A60554B1A78521E1A70284658
:10063C009EE04A1CD1B2A6E7012D01D8204697E0D6
:10064C004E4A1278132A01D1204691E0FF2252B271
:10065C00002126460446C8B251B2142880F2878085
:10066C00C300454AD2181268002A40F27880C300B1
:10067C00414AD218126801920294012D0DD9019BA6
:10068C00B3FBF5F205FB123232B1019A521C019206
:10069C00029A521C0292F2E7FFE7C300364AD218C4
:1006AC00121D1368029A9342C0F05880B1F1FF3FBB
:1006BC000ED1421C51B22546142908DACB002E4A21
:1006CC00D218126802B902E0491C49B2F4E700E002
:1006DC002546CB00284AD418C300274AD2181268E2
:1006EC002260CB00244AD218131D029A521B1A60A6
:1006FC00224B1A78521C1A700199C3001E4AD21848
:10070C00121D1368029A934216D9C3001A4AD418C0
:10071C00C300194AD2181368029A9A182260C300AF
:10072C00154AD218141DC300134AD218121D13688F
:10073C00029A9A1A22600FE0C3000F4AD31840F2B3
:10074C0000021A60C3000C4AD218131D00221A6052
:10075C000A4B1A78521E1A70084609E004E0B1F1EF
:10076C00FF3F01D141B2FFE7421CD0B275E73046E2
:10077C0003B0704703000220240002200200002076
:00078C006D
:10078C0082B0CDF800E000208DF8040000208DF838
:10079C0005009DF80500132880F073809DF8040077
:1007AC00002840F06E809DF80500401CC5B2142D49
:1007BC0080F261809DF80400002840F05C80E90024
:1007CC0044484118081D00680446086803469DF813
:1007DC000500C1003F484218101D00680146106812
:1007EC001A462346FFF76CFDC1B201281DD19DF8B6
:1007FC000500C10037484018031D1A68E900354848
:10080C004018001D006810181860E90031484118A4
:10081C0040F200000860E9002E484018011D00203D
:10082C00086001208DF8040022E0022920D1E900A3
:10083C0028484018031D1A689DF80500C10025487A
:10084C004018001D0068101818609DF80500C100C4
:10085C002048411840F2000008609DF80500C100D6
:10086C001C484018011D0020086001208DF8040070
:10087C006D1CEDB29BE79DF80500401C8DF8050042
:10088C0087E79DF8040001283FF47DAF0021124852
:10089C00017000208DF805009DF80500142811DA70
:1008AC009DF80500C1000B4840180068002803D9CA
:1008BC0009490878401C08709DF80500401C8DF80B
:1008CC000500E9E7002105480170DDF800E002B001
:1008DC00704700BF2400022002000020030000200B
:0008EC000C
:1002CC0081B008B9002010E00AB900200DE090427E
:1002DC0001D1002009E04418944201D1012004E02E
:0E02EC00D418844201D10220FFE701B0704710
:100E240081B0CDF800E00A48006860B10948017853
:100E340009480078414309B205480068FFF792FE6B
:100E4400002103480160DDF800E001B0704700BFF5
:0C0E540008000220070002200600022017
:100B680081B0CDF800E008B9032002E0FFF7BAFE33
:0A0B78000020DDF800E001B0704736
:1008EC0081B0CDF800E03A4A127812B9002800D055
:1008FC0000E068E0002740F2000806460D46B8F11B
:10090C00140F36DA4FEAC803324AD418221D126883
:10091C001346226829463046FFF7D2FCC1B20128A3
:10092C0013D14FEAC8032B4AD3181A68521B1A600A
:10093C004FEAC803274AD218131D1A6852191A60B5
:10094C0001200123244A137014E002290CD14FEA30
:10095C00C803204AD218131D1A6852191A600120B4
:10096C0001231D4A137005E008F101085FFA88F8AD
:10097C00C5E7F8B208BB00202946C4B23046142C97
:10098C0015DAE300134AD21812686AB9E300114A67
:10099C00D2181060E3000F4AD218121D11600F4BD1
:1009AC001A78521C1A7002E0641CE4B2E7E7142CAB
:1009BC0003D10123064A137005E0084A1278132A62
:1009CC0001D1FFF7DDFEDDF800E001B0704700BF9C
:1009DC00030002202400022003000020020000205B
:0009EC000B
:1014B00081B0CDF800E0FFF7D3FC12490C78124957
:1014C0000B7812490A7812490978C8B2D1B2DAB257
:1014D000E3B2FFF70BFD0B490A780B49097851433A
:1014E00009B24A0012B20B490968084611B2FFF767
:1014F0004DFC08B1022000E00020DDF800E001B062
:10150000704700BF070002200600022005000220ED
:08151000040002200800022083
:100E600082B0CDF800E000241B490A781B490978BC
:100E7000891809B2491E09B2602913DC174909789B
:100E800000290FD316490A7816490978891809B23A
:100E9000491E09B2602905DC12490978002901D3ED
:100EA000002100E0012109B1032011E00C490A787A
:100EB0000949097801FB02F3821D0B498DF80440B2
:100EC000086811469AB2FFF70BFE9DF80440E0B2A5
:100ED000DDF800E002B070470600022004000220A6
:0C0EE0000700022005000220080002208C
:100AE00081B093B20A4600211446024698B2814270
:100AF0000DD223781B021380631C1D461C781388BB
:100B000023431380921C6B1C1C46491CEFE701B069
:020B100070472C
:100EEC0086B0CDF800E08DF808008DF80C108DF868
:100EFC0010208DF814309DF8084010348DF80840FF
:100F0C009DF80C408DF80C4000248DF80440012114
:100F1C00152000F09BF89DF8044004438DF8044024
:100F2C0000219DF8080000F091F89DF8044004435E
:100F3C008DF804409DF81040651E2DB29DF80840B8
:100F4C00641924B2002120B200F080F89DF804400E
:100F5C0004438DF804400121752000F077F89DF8CA
:100F6C00044004438DF8044000219DF80C0000F06F
:100F7C006DF89DF8044004438DF804409DF814402E
:100F8C00651E2DB29DF80C40641924B2002120B2CC
:100F9C0000F05CF89DF804400443E4B2002C00D14E
:0C0FAC0000E0B1E7DDF800E006B070479F
:100D8C0084B0CDF800E002900391204A13884FF60E
:100D9C00FF72934212D0029900252846039A5208FA
:100DAC0090420BD242008C182388184A128803EA0E
:100DBC0002022280421C15462846EFE701215C20E6
:100DCC0000F044F908B102201CE001235BB2104A88
:100DDC00136000235BB20F4A13600298039B039AC3
:100DEC00521E03924BB10278019090B2FFF7F4FAC5
:100DFC000198421C11460846F0E701235BB2054AF4
:100E0C0013600020DDF800E004B070470000002003
:080E1C003C18FE435008FE43A0
:1015380090B072B6974801909748029097480390E8
:1015480097480490974805909748069097480790C1
:10155800974808909748099097480A9097480B90A1
:1015680097480C90974998480D9098480E900D9878
:1015780000F007000F9001F0010050B94CF2205024
:10158800934908804DF62810088040F2D2119148FE
:1015980001800021904801609048007800F0010027
:1015A800C0B258B18E48007800F00800C0B220B12F
:1015B8008B49087840F00800087021E089480068E5
:1015C80040F00051874801608748006800F4807047
:1015D800B0B9854801686FF4705001EA000040F422
:1015E8004071814801608048006840F480717E48FD
:1015F80001607D4801686FF4007001407A4801601D
:10160800AA217A4801700D9800F0100058B978485E
:10161800007800F09F01764801707648007801282C
:1016280000D0FAE71BE00D9800F01000B8B10E9951
:101638007148814208D960216D4801706D48007871
:10164800802800D0FAE70AE06948007800F09F0196
:101658006748017067480078012800D0FAE70499C4
:1016680066480160664801686FF4402001400298AE
:1016780000F44020014362480160624801686FF449
:1016880040300140039800F4403001435D48016058
:101698000F9830B10F98012803D00F98022800D076
:1016A80064E0019800F0800050B9089800F040000C
:1016B80028B10B9800F00300002800D100E015E0E5
:1016C8005148006840F400714F4801604F48016874
:1016D8004F4801404D480160069800F0040028B1C9
:1016E8004C4801684A4801404A4801600A994A48FA
:1016F8000170059949480170059800F0040040B14F
:101708004748007800F01000C0B2002800D1F7E781
:1017180006E04348007800F01000C0B200B1F8E7D6
:101728004048007800F0BF01C9B2069800F0FD00FB
:1017380001433C480170079800F0E0013A480078FE
:1017480000F01F00C0B201433748017001993748C3
:1017580001700B99364801700F98022805D131485D
:10176800007840F002012F480170BDE0019800F0B8
:10177800800020B90B9800F0030000B166E0224811
:10178800006840F400712048016020480168204842
:1017980001404FE080000000000008000000010048
:1017A80000004401220000002400000000000000A6
:1017B80002000000460000000000000000000000D9
:1017C800090000000000000007000000C0D401006C
:1017D8000E2005400020054008ED00E000F007401D
:1017E80002D007403C80044010D0034000E007408E
:1017F80001E0074003E007408038010044800440CE
:10180800007004400480044038800440489004403C
:10181800FFF8FFFE4C900440084006400040064098
:10182800064006400140064003400640005006407E
:101838000C4006407F480160069800F0040028B17B
:101848007D4801687D4801407B4801600A997C48D1
:1018580001707C48007800F0BF01C9B2069800F01A
:10186800FD000143774801700199774801700B9991
:10187800764801700F98072805D1059840F0800137
:101888007348017002E0059971480170069800F0EC
:10189800040050B10B9800F0030030B96D4800788F
:1018A80000F00200C0B200B9F8E7059800F00400A3
:1018B80040B16848007800F01000C0B2002800D19C
:1018C800F7E706E06348007800F01000C0B200B106
:1018D800F8E7079800F0E0015F48007800F01F0083
:1018E800C0B201435C480170089800F0BF015B4832
:1018F8000170099800F0BF0159480170089800F07C
:10190800400028B15548007840F040015348017024
:101918000F98052806D14B48007840F00201494845
:1019280001701CE00F98062803D00F98072800D0F4
:1019380015E04B48007840F040014948017045489F
:10194800007800F04000C0B200B9F8E70F98072807
:1019580005D13F48007800F03F013D4801700F98DD
:1019680018B10F98032800D029E03A48007800F011
:101978000C00C0B200B1F8E73A48006840F0010135
:1019880038480160002138480160802137480160EB
:101998000521374801600121344801603348006857
:1019A80000F0800000B9F9E70021304801602D48B7
:1019B80001686FF0010001402A4801602DE00F988E
:1019C800012803D00F98022800D008E021480078A9
:1019D80000F00C00C0B2042800D0F7E71DE00F9813
:1019E800042806D00F98062803D00F98052800D0A1
:1019F80008E01848007800F00C00C0B2082800D0B1
:101A0800F7E70AE00F98072807D11248007800F096
:101A18000C00C0B20C2800D0F7E7164801686FF038
:101A28000F0001400C9800F00F00014311480160BD
:101A380010B07047489004404C900440FFF8FFFEF7
:101A48000840064001400640005006400C40064051
:101A58000040064006400640034006400440064059
:101A68000540064038800440080004400000044057
:081A7800040004404880044012
:101A800081B002490248016001B07047C0D4010032
:041A90002000022010
:0815180081B0FEE701B070474D
:1015200081B072B60349086840F47000086001B0E9
:08153000704700BF88ED00E0E8
:1063580000B5DFF814B0DFF814A0DFF814C0FAF7BE
:10636800B3FE00BD704700BF0000002002000020FF
:04637800FA02000025
:1063D80000B5DFF810B0DFF810A0FBF747F800BDF4
:0C63E800704700BF00000020CC00022025
:0202FA00FFFF04
:10040000FFFFFFFFFFFFFFFFFFFFFFFF02FDFFFFFB
:101A94000010600060000000000000000000000072
:101AA4000000000000000000000000000000000032
:101AB4000000000000000000000000000000000022
:101AC4000000000000000000000000000000000012
:101AD4000000000000000000000000000000000002
:10205400000000000000FFFFFFFF00000000000080
:10206400000000000000000000000000000000006C
:10207400000000000000000000000000000000005C
:10208400000000000000000000000000000000004C
:10209400000000000000000000000000000000003C
:1020A400000000000000000000000000000000002C
:1020B400000000000000000000000000000000001C
:1020C400000000000000000000000000000000000C
:1020D4000000FFFFFFFFFFFFFFFFFFFFFFFFFFFF0A
:1020E40000000000000000000000000000000000EC
:1020F40000000000000000000000000000000000DC
:1021040000000000000000000000000000000000CB
:10211400000000000000FFFFFFFF000000000000BF
:1021240000000000000000000000000000000000AB
:10213400000000000000000000000000000000009B
:10214400000000000000000000000000000000008B
:10215400000000000000000000000000000000007B
:10216400000000000000000000000000000000006B
:10217400000000000000000000000000000000005B
:10218400000000000000000000000000000000004B
:102194000000FFFFFFFF0000000000000000FFFF41
:1021A400FFFF00000000000000000000000000002D
:1021B400000000000000000000000000000000001B
:1021C400000000000000000000000000000000000B
:1021D400000000000000FFFFFFFF000000000000FF
:1021E40000000000000000000000000000000000EB
:1021F40000000000000000000000000000000000DB
:1022040000000000000000000000000000000000CA
:1022140000000000000000000000000000000000BA
:1022240000000000000000000000000000000000AA
:10223400000000000000000000000000000000009A
:10224400000000000000000000000000000000008A
:102254000000FFFFFFFF0000000000000000FFFF80
:10226400FFFF0000000000000000FFFFFFFFFFFF72
:10227400FFFF000000000000FFFFFFFF0000FFFF62
:10228400FFFFFFFFFFFF0000000000000000FFFF52
:10229400FFFFFFFFFFFFFFFFFFFF00000000000044
:1022A400000000000000000000000000000000002A
:1022B400000000000000000000000000000000001A
:1022C400000000000000000000000000000000000A
:1022D40000000000000000000000000000000000FA
:1022E40000000000000000000000000000000000EA
:1022F40000000000000000000000000000000000DA
:1023040000000000000000000000000000000000C9
:102314000000FFFFFFFF0000000000000000FFFFBF
:10232400FFFF000000000000FFFFFFFF00000000AF
:10233400FFFFFFFF00000000FFFFFFFFFFFF0000A3
:1023440000000000FFFFFFFF00000000FFFFFFFF91
:10235400000000000000FFFFFFFF0000000000007D
:102364000000000000000000000000000000000069
:102374000000000000000000000000000000000059
:102384000000000000000000000000000000000049
:102394000000000000000000000000000000000039
:1023A4000000000000000000000000000000000029
:1023B4000000000000000000000000000000000019
:1023C4000000000000000000000000000000000009
:1023D4000000FFFFFFFFFFFFFFFFFFFFFFFFFFFF07
:1023E400000000000000FFFFFFFF000000000000ED
:1023F4000000FFFFFFFF0000FFFFFFFF00000000E1
:1024040000000000FFFFFFFF0000FFFFFFFF0000D0
:10241400000000000000FFFFFFFF000000000000BC
:1024240000000000000000000000000000000000A8
:102434000000000000000000000000000000000098
:102444000000000000000000000000000000000088
:102454000000000000000000000000000000000078
:102464000000000000000000000000000000000068
:102474000000000000000000000000000000000058
:102484000000000000000000000000000000000048
:102494000000FFFFFFFF0000000000000000FFFF3E
:1024A400FFFF00000000FFFFFFFF0000000000002E
:1024B4000000FFFFFFFF0000FFFFFFFF0000000020
:1024C40000000000FFFFFFFF0000FFFFFFFF000010
:1024D400000000000000FFFFFFFF000000000000FC
:1024E40000000000000000000000000000000000E8
:1024F40000000000000000000000000000000000D8
:1025040000000000000000000000000000000000C7
:1025140000000000000000000000000000000000B7
:1025240000000000000000000000000000000000A7
:102534000000000000000000000000000000000097
:102544000000000000000000000000000000000087
:102554000000FFFFFFFF000000000000000000007B
:10256400FFFFFFFF0000FFFFFFFF0000000000006F
:102574000000FFFFFFFF0000FFFFFFFF000000005F
:1025840000000000FFFFFFFF0000FFFFFFFF00004F
:10259400000000000000FFFFFFFF0000000000003B
:1025A4000000000000000000000000000000000027
:1025B4000000000000000000000000000000000017
:1025C4000000000000000000000000000000000007
:1025D40000000000000000000000000000000000F7
:1025E40000000000000000000000000000000000E7
:1025F40000000000000000000000000000000000D7
:1026040000000000000000000000000000000000C6
:102614000000FFFFFFFF00000000000000000000BA
:10262400FFFFFFFF0000FFFFFFFF000000000000AE
:102634000000FFFFFFFF0000FFFFFFFF000000009E
:1026440000000000FFFFFFFF0000FFFFFFFF00008E
:10265400000000000000FFFFFFFF0000000000007A
:102664000000000000000000000000000000000066
:102674000000000000000000000000000000000056
:102684000000000000000000000000000000000046
:102694000000000000000000000000000000000036
:1026A4000000000000000000000000000000000026
:1026B4000000000000000000000000000000000016
:1026C4000000000000000000000000000000000006
:1026D4000000FFFFFFFF0000000000000000FFFFFC
:1026E400FFFF000000000000FFFFFFFF00000000EC
:1026F400FFFFFFFF00000000FFFFFFFF00000000DE
:1027040000000000FFFFFFFF00000000FFFFFFFFCD
:1027140000000000FFFFFFFFFFFF000000000000BB
:1027240000000000000000000000000000000000A5
:102734000000000000000000000000000000000095
:102744000000000000000000000000000000000085
:102754000000000000000000000000000000000075
:102764000000000000000000000000000000000065
:102774000000000000000000000000000000000055
:102784000000000000000000000000000000000045
:102794000000FFFFFFFFFFFFFFFFFFFFFFFFFFFF43
:1027A40000000000000000000000FFFFFFFFFFFF2B
:1027B400FFFF000000000000FFFFFFFF000000001B
:1027C40000000000FFFFFFFF000000000000FFFF0B
:1027D400FFFFFFFF0000FFFFFFFF000000000000FD
:1027E40000000000000000000000000000000000E5
:1027F40000000000000000000000000000000000D5
:1028040000000000000000000000000000000000C4
:1028140000000000000000000000000000000000B4
:102C040000000000000000008631B6B5BEF7BEF734
:102C1400BEF7BEF7BEF7BEF7BEF7BEF7BEF7BEF708
:102C2400FFFFFBDE4D6B0000000000000000000011
:102C34000000000000000000000000000000000090
:102C44000000000000000000000000000000000080
:102C54000000000000000000000000000000000070
:102C64000000000000000000000000000000000060
:102C74000000000000000000000000000000000050
:102C84000000000000000000000000000000000040
:102C94000000000000000000000000000000000030
:102CA4000000000000000000000000000000000020
:102CB4000000000000000000000000000000000010
:102CC40000000000000086317DEFBAD64D6BCB5A70
:102CD400CB5A8A52494A494A494A8A52CB5ACB5A10
:102CE400CB5A34A5FFFFCF7B00000000000000009A
:102CF40000000000000000000000000000000000D0
:102D040000000000000000000000000000000000BF
:102D140000000000000000000000000000000000AF
:102D2400000000000000000000000000000000009F
:102D3400000000000000000000000000000000008F
:102D4400000000000000000000000000000000007F
:102D5400000000000000000000000000000000006F
:102D6400000000000000000000000000000000005F
:102D7400000000000000000000000000000000004F
:102D8400000000000000B6B5BAD6821000000000B2
:102D94000000C739B294718CB2944D6B00000000EE
:102DA40000000000718CBEF74529000000000000FF
:102DB400000000000000000000000000000000000F
:102DC40000000000000000000000000000000000FF
:102DD40000008210CB5A4D6B4D6BCB5A8210000011
:102DE40000000000000000000000000000000000DF
:102DF40000000000000000000000000000000000CF
:102E040000000000000000000000000000000000BE
:102E140000000000000000000000000000000000AE
:102E2400000000000000000000000000000000009E
:102E3400000000000000000000000000000000008E
:102E4400000000000000BEF7CF7B0000000000007F
:102E540000008A52B6B575ADB6B5718C4108000054
:102E6400000000000421FFFF8A520000000000005F
:102E7400000000000000000000000000000000004E
:102E8400000000000000000000000000000000003E
:102E9400410875ADFFFFFFFFFFFFFFFF34A50000F2
:102EA400000000000000000000000000000000001E
:102EB400000000000000000000000000000000000E
:102EC40000000000000000000000000000000000FE
:102ED40000000000000000000000000000000000EE
:102EE40000000000000000000000000000000000DE
:102EF40000000000000000000000000000000000CE
:102F0400000000000000FFFF8E73000000000000BE
:102F140000000000000000000000000000000000AD
:102F2400000000000421FFFFCB5A00000000000055
:102F3400000000000000000000000000000000008D
:102F4400000000000000000000000000000000007D
:102F54000421FFFFFFFFFFFFFFFFFFFFFFFF04212F
:102F6400000000000000000000000000000000005D
:102F7400000000000000000000000000000000004D
:102F8400000000000000000000000000000000003D
:102F9400000000000000000000000000000000002D
:102FA400000000000000000000000000000000001D
:102FB400000000000000000000000000000000000D
:102FC400000000000000BEF78E7300000000000047
:102FD40000000000000000000000000000000000ED
:102FE400000000004529FFFFCB5A0000000000004C
:102FF40000000000000000000000000000000000CD
:1030040000000000000000000000000000000000BC
:103014004529FFFFFFFFFFFFFFFFFFFFFFFF4529DC
:10302400000000000000000000000000000000009C
:10303400000000000000000000000000000000008C
:10304400000000000000000000000000000000007C
:10305400000000000000000000000000000000006C
:10306400000000000000000000000000000000005C
:10307400000000000000000000000000000000004C
:10308400000000000000BEF78E7300000000000086
:10309400000000000000000000000000000000002C
:1030A400000000004529FFFFCB5A0000000000008B
:1030B400000000000000000000000000000000000C
:1030C40000000000000000000000000000000000FC
:1030D4004108B294F39CF39CF39CF39CB294410892
:1030E40000000000000000000000000000000000DC
:1030F40000000000000000000000000000000000CC
:1031040000000000000000000000000000000000BB
:1031140000000000000000000000000000000000AB
:10312400000000000000000000000000000000009B
:10313400000000000000000000000000000000008B
:10314400000000000000BEF78E73000000000000C5
:10315400000000000000000000000000000000006B
:10316400000000004529FFFFCB5A000000000000CA
:10317400000000000000000000000000000000004B
:10318400000000000000000000000000000000003B
:10319400CB5A75AD75AD75AD75AD75AD75ADCB5A15
:1031A400000000000000000000000000000000001B
:1031B400000000000000000000000000000000000B
:1031C40000000000000000000000000000000000FB
:1031D40000000000000000000000000000000000EB
:1031E40000000000000000000000000000000000DB
:1031F40000000000000000000000000000000000CB
:10320400000000000000BEF78E7300000000000004
:1032140000000000000000000000000000000000AA
:10322400000000004529FFFFCB5A00000000000009
:10323400000000000000000000000000000000008A
:103244000000000000000000000000000000CB5A55
:10325400FFFF38C6B6B5B6B5B6B5B6B538C6FFFFC6
:103264008A5200000000000000000000000000007E
:10327400000000000000000000000000000000004A
:10328400000000000000000000000000000000003A
:10329400000000000000000000000000000000002A
:1032A400000000000000000000000000000000001A
:1032B400000000000000000000000000000000000A
:1032C400000000000000BEF78E7300000000000044
:1032D40000000000000000000000000000000000EA
:1032E400000000004529FFFFCB5A00000000000049
:1032F40000000000000000000000000000000000CA
:1033040000000000000000000000000082107DEFBB
:1033140034A500000000000000000000000075ADAE
:103324003CE78210000000000000000000000000E4
:103334000000000000000000000000000000000089
:103344000000000000000000000000000000000079
:103354000000000000000000000000000000000069
:103364000000000000000000000000000000000059
:103374000000000000000000000000000000000049
:10338400000000000000BEF78E7300000000000083
:103394000000000000000000000000000000000029
:1033A400000000004529FFFFCB5A00000000000088
:1033B4000000000000000000000000000000000009
:1033C400000000000000000000000000718CBEF747
:1033D400452900000000000000000000000045290D
:1033E400BEF7718C00000000000000000000000027
:1033F40000000000000000000000000000000000C9
:1034040000000000000000000000000000000000B8
:1034140000000000000000000000000000000000A8
:103424000000000000000000000000000000000098
:103434000000000000000000000000000000000088
:10344400000000000000BEF78E73000000000000C2
:103454000000000000000000000000000000000068
:10346400000000004529FFFFCB5A000000000000C7
:1034740000004108000000000000000000000000FF
:10348400410800000000000000008631FFFF308486
:103494000000000000000000000000000000000028
:1034A400718CBEF7452900000000000000000000F8
:1034B4000000000000000000000000000000000008
:1034C40000000000000000000000000000000000F8
:1034D40000000000000000000000000000000000E8
:1034E40000000000000000000000000000000000D8
:1034F40000000000000000000000000000000000C8
:10350400000000000000BEF78E7300000000000001
:1035140000000000000000000000000000000000A7
:10352400000000004529FFFFCB5A000000004108BD
:10353400B29404210000000000000000000000001C
:10354400CF7B494A00000000000075ADFBDE410856
:103554000000000000000000000000000000000067
:103564008210FBDE75AD00000000000000000000CA
:103574000000000000000000000000000000000047
:103584000000000000000000000000000000000037
:103594000000000000000000000000000000000027
:1035A4000000000000000000000000000000000017
:1035B4000000000000000000000000000000000007
:1035C400000000000000BEF78E7300000000000041
:1035D40000000000000000000000000000000000E7
:1035E400000000004529FFFFCB5A0000410875ADDB
:1035F400FFFF38C6F7BDCF7B00004529B6B5B6B589
:103604007DEFBEF7084200008210FFFF8E730000BA
:1036140000000000000000000000000000000000A6
:1036240000008E73FFFF0000000000000000000097
:103634000000000000000000000000000000000086
:103644000000000000000000000000000000000076
:103654000000000000000000000000000000000066
:103664000000000000000000000000000000000056
:103674000000000000000000000000000000000046
:10368400000000000000BEF78E7300000000000080
:103694000000000000000000000000000000000026
:1036A400000000004529FFFFCB5A00004108B294F6
:1036B400FFFFF7BDB6B58E730000452934A575AD7F
:1036C4003CE77DEF08420000410879CEF7BD0000D9
:1036D40000000000000000000000000000000000E6
:1036E4000000F7BD79CE00000000000000000000DB
:1036F40000000000000000000000000000000000C6
:1037040000000000000000000000000000000000B5
:1037140000000000000000000000000000000000A5
:103724000000000000000000000000000000000095
:103734000000000000000000000000000000000085
:10374400000000000000BEF78E73000000000000BF
:103754000000000000000000000000000000000065
:10376400000000004529FFFFCB5A000000000000C4
:10377400CF7B0421000000000000000000000000D6
:103784008E73C7390000000000008A52FFFFCB5A35
:103794000000000000000000000000000000000025
:1037A4000C63FFFF494A0000000000000000000015
:1037B4000000000000000000000000000000000005
:1037C40000000000000000000000000000000000F5
:1037D40000000000000000000000000000000000E5
:1037E40000000000000000000000000000000000D5
:1037F40000000000000000000000000000000000C5
:10380400000000000000BEF78E73000000000000FE
:1038140000000000000000000000000000000000A4
:10382400000000004529FFFFCB5A00000000000003
:103834000000000000000000000000000000000084
:1038440000000000000000000000000075AD3CE72F
:10385400C318000000000000000000000000C318AE
:103864003CE775AD0000000000000000000000000F
:103874000000000000000000000000000000000044
:103884000000000000000000000000000000000034
:103894000000000000000000000000000000000024
:1038A4000000000000000000000000000000000014
:1038B4000000000000000000000000000000000004
:1038C400000000000000BEF78E730000000000003E
:1038D40000000000000000000000000000000000E4
:1038E400000000004529FFFFCB5A00000000000043
:1038F40000000000000000000000000000000000C4
:103904000000000000000000000000004529FFFF47
:10391400308400000000000000000000000030843B
:10392400FFFF452900000000000000000000000027
:103934000000000000000000000000000000000083
:103944000000000000000000000000000000000073
:103954000000000000000000000000000000000063
:103964000000000000000000000000000000000053
:103974000000000000000000000000000000000043
:10398400000000000000BEF78E730000000000007D
:103994000000000000000000000000000000000023
:1039A400000000004529FFFFCB5A00000000000082
:1039B4000000000000000000000000000000000003
:1039C400000000000000000000000000000030843F
:1039D400FFFF30848E7330843084CF7B718CFFFF83
:1039E400CF7B000000000000000000000000000089
:1039F40000000000000000000000000000000000C3
:103A040000000000000000000000000000000000B2
:103A140000000000000000000000000000000000A2
:103A24000000000000000000000000000000000092
:103A34000000000000000000000000000000000082
:103A4400000000000000BEF78E73000000000000BC
:103A54000000000000000000000000000000000062
:103A6400000000004529FFFFCB5A000000000000C1
:103A74000000000000000000000000000000000042
:103A840000000000000000000000000000004108E9
:103A9400718CBAD6FBDEBAD6BAD6BAD6BAD6718C7F
:103AA40041080000000000000000000000000000C9
:103AB4000000000000000000000000000000000002
:103AC40000000000000000000000000000000000F2
:103AD40000000000000000000000000000000000E2
:103AE40000000000000000000000000000000000D2
:103AF40000000000000000000000000000000000C2
:103B0400000000000000BEF78E73000000000000FB
:103B140000000000000000000000000000000000A1
:103B2400000000004529FFFFCB5A00000000000000
:103B34000000000000000000000000000000000081
:103B44000000000000000000000000000000000071
:103B54004108CF7B3084308430843084CF7B41086B
:103B64000000000000000000000000000000000051
:103B74000000000000000000000000000000000041
:103B84000000000000000000000000000000000031
:103B94000000000000000000000000000000000021
:103BA4000000000000000000000000000000000011
:103BB4000000000000000000000000000000000001
:103BC400000000000000BEF78E730000000000003B
:103BD40000000000000000000000000000000000E1
:103BE400000000004529FFFFCB5A00000000000040
:103BF40000000000000000000000000000000000C1
:103C040000000000000000000000000000000000B0
:103C14004529FFFFFFFFFFFFFFFFFFFFFFFF4529D0
:103C24000000000000000000000000000000000090
:103C34000000000000000000000000000000000080
:103C44000000000000000000000000000000000070
:103C54000000000000000000000000000000000060
:103C64000000000000000000000000000000000050
:103C74000000000000000000000000000000000040
:103C8400000000000000BEF78E730000000000007A
:103C94000000000041080842042100000000000068
:103CA400000000004529FFFFCB5A0000000000007F
:103CB4000000000000000000000000000000000000
:103CC40000000000000000000000000000000000F0
:103CD4000421FFFFFFFFFFFFFFFFFFFFBEF70421EB
:103CE40000000000000000000000000000000000D0
:103CF40000000000000000000000000000000000C0
:103D040000000000000000000000000000000000AF
:103D1400000000000000000000000000000000009F
:103D2400000000000000000000000000000000008F
:103D3400000000000000000000000000000000007F
:103D4400000000000000FFFF8E7300000000000070
:103D540000000000718CFFFFBAD6C31800000000F9
:103D6400000000000421FFFFCB5A00000000000007
:103D7400000000000000000000000000000000003F
:103D8400000000000000000000000000000000002F
:103D9400410838C6FFFFFFFFFFFFFFFFF7BD4108E3
:103DA400000000000000000000000000000000000F
:103DB40000000000000000000000000000000000FF
:103DC40000000000000000000000000000000000EF
:103DD40000000000000000000000000000000000DF
:103DE40000000000000000000000000000000000CF
:103DF40000000000000000000000000000000000BF
:103E0400000000000000BEF78E73000000000000F8
:103E140000000000F7BDFFFFFFFF45290000000080
:103E2400000000000421FFFFCB5A00000000000046
:103E3400000000000000000000000000000000007E
:103E4400000000000000000000000000000000006E
:103E540000000421CF7B30843084CF7B0421000018
:103E6400000000000000000000000000000000004E
:103E7400000000000000000000000000000000003E
:103E8400000000000000000000000000000000002E
:103E9400000000000000000000000000000000001E
:103EA400000000000000000000000000000000000E
:103EB40000000000000000000000000000000000FE
:103EC400000000000000B6B579CE821000000000AA
:103ED400000000004529718C8A5200000000000097
:103EE400000000003084BEF74529000000000000F7
:103EF40000000000000000000000000000000000BE
:103F040000000000000000000000000000000000AD
:103F1400000000000000000000000000000000009D
:103F2400000000000000000000000000000000008D
:103F3400000000000000000000000000000000007D
:103F4400000000000000000000000000000000006D
:103F5400000000000000000000000000000000005D
:103F6400000000000000000000000000000000004D
:103F7400000000000000000000000000000000003D
:103F840000000000000086317DEF38C60C63CB5A78
:103F9400CB5ACB5A8A52494A8A52CB5ACB5ACB5A19
:103FA400CB5AB294FFFFCF7B00000000000000005A
:103FB40000000000000000000000000000000000FD
:103FC40000000000000000000000000000000000ED
:103FD40000000000000000000000000000000000DD
:103FE40000000000000000000000000000000000CD
:103FF40000000000000000000000000000000000BD
:1040040000000000000000000000000000000000AC
:10401400000000000000000000000000000000009C
:10402400000000000000000000000000000000008C
:10403400000000000000000000000000000000007C
:104044000000000000000000C739F7BDBEF7BEF74E
:10405400BEF7BEF7BEF7BEF7BEF7BEF7BEF7BEF7B4
:10406400BEF7FBDE4D6B0000000000000000000006
:10407400000000000000000000000000000000003C
:10408400000000000000000000000000000000002C
:10409400000000000000000000000000000000001C
:1040A400000000000000000000000000000000000C
:105764007DEFFFFFFFFFFFFFFFFFFFFFFFFFFFFFD7
:10577400FFFFFFFFFFFFFFFFFFFFFFFFFFFFFFFF35
:10578400FFFFFFFFFFFFFFFFFFFFFFFFFFFFFFFF25
:10579400FFFFFFFFFFFFFFFFFFFFFFFFFFFFFFFF15
:1057A400FFFFFFFFFFFFFFFFFFFF7DEF0000000093
:1057B40000000000000000000000000000000000E5
:1057C40000000000000000000000000000000000D5
:1057D40000000000000000000000000000000000C5
:1057E40000000000000000000000000000000000B5
:1057F40000000000000000000000000000000000A5
:105804000000000000000000000000000000000094
:105814000000000000000000000000000000FBDEAB
:10582400FFFFFFFFFFFFFFFFFFFFFFFFFFFFFFFF84
:10583400FFFFFFFFFFFFFFFFFFFFFFFFFFFFFFFF74
:10584400FFFFFFFFFFFFFFFFFFFFFFFFFFFFFFFF64
:10585400FFFFFFFFFFFFFFFFFFFFFFFFFFFFFFFF54
:10586400FFFFFFFFFFFFFFFFFFFFFFFFFBDE000067
:105874000000000000000000000000000000000024
:105884000000000000000000000000000000000014
:105894000000000000000000000000000000000004
:1058A40000000000000000000000000000000000F4
:1058B40000000000000000000000000000000000E4
:1058C40000000000000000000000000000000000D4
:1058D400000000000000000000000000FBDEFFFFED
:1058E400FFFFFFFFFFFFFFFFFFFFFFFFFFFFFFFFC4
:1058F400FFFFFFFFFFFFFFFFFFFFFFFFFFFFFFFFB4
:10590400FFFFFFFFFFFFFFFFFFFFFFFFFFFFFFFFA3
:10591400FFFFFFFFFFFFFFFFFFFFFFFFFFFFFFFF93
:10592400FFFFFFFFFFFFFFFFFFFFFFFFFFFFFBDEA8
:105934000000000000000000000000000000000063
:105944000000000000000000000000000000000053
:105954000000000000000000000000000000000043
:105964000000000000000000000000000000000033
:105974000000000000000000000000000000000023
:105984000000000000000000000000000000000013
:10599400000000000000000000000000FFFFFFFF07
:1059A400FFFFFFFFFFFFFFFFFFFFFFFFFFFFFFFF03
:1059B400FFFFFFFFFFFFFFFFFFFFFFFFFFFFFFFFF3
:1059C400FFFFFFFFFFFFFFFFFFFFFFFFFFFFFFFFE3
:1059D400FFFFFFFF00000000FFFFFFFFFFFFFFFFCF
:1059E400FFFFFFFFFFFFFFFFFFFFFFFFFFFFFFFFC3
:1059F40000000000000000000000000000000000A3
:105A04000000000000000000000000000000000092
:105A14000000000000000000000000000000000082
:105A24000000000000000000000000000000000072
:105A34000000000000000000000000000000000062
:105A44000000000000000000000000000000000052
:105A54000000000000000000000038C6FFFFFFFF48
:105A6400FFFFFFFFFFFFFFFFFFFFFFFF000000003E
:105A7400000000000000FFFFFFFFFFFFFFFFFFFF2C
:105A8400FFFFFFFFFFFFFFFFFFFFFFFFFFFFFFFF22
:105A9400FFFFFFFF00000000FFFFFFFFFFFFFFFF0E
:105AA400FFFFFFFFFFFFFFFFFFFFFFFFFFFFFFFF02
:105AB40038C60000000000000000000000000000E4
:105AC40000000000000000000000000000000000D2
:105AD40000000000000000000000000000000000C2
:105AE40000000000000000000000000000000000B2
:105AF40000000000000000000000000000000000A2
:105B04000000000000000000000000000000000091
:105B140000000000000000000000FFFFFFFFFFFF87
:105B2400FFFFFFFFFFFFFFFFFFFFFFFF000000007D
:105B3400FFFFFFFF00000000FFFFFFFFFFFFFFFF6D
:105B4400FFFFFFFFFFFFFFFFFFFFFFFFFFFFFFFF61
:105B5400FFFFFFFF00000000FFFFFFFFFFFFFFFF4D
:105B6400FFFFFFFFFFFFFFFFFFFFFFFFFFFFFFFF41
:105B7400FFFF000000000000000000000000000023
:105B84000000000000000000000000000000000011
:105B94000000000000000000000000000000000001
:105BA40000000000000000000000000000000000F1
:105BB40000000000000000000000000000000000E1
:105BC40000000000000000000000000000000000D1
:105BD40000000000000000000000FFFFFFFFFFFFC7
:105BE400FFFFFFFFFFFFFFFFFFFFFFFF00000000BD
:105BF400FFFFFFFF00000000FFFFFFFF00000000A9
:105C040000000000FFFFFFFFFFFF00000000000096
:105C14000000FFFF00000000FFFFFFFF0000000086
:105C2400FFFFFFFFFFFFFFFFFFFFFFFFFFFFFFFF80
:105C3400FFFF000000000000000000000000000062
:105C44000000000000000000000000000000000050
:105C54000000000000000000000000000000000040
:105C64000000000000000000000000000000000030
:105C74000000000000000000000000000000000020
:105C84000000000000000000000000000000000010
:105C940000000000000000000000FFFFFFFFFFFF06
:105CA400FFFFFFFFFFFFFFFFFFFFFFFF00000000FC
:105CB400000000000000FFFFFFFFFFFFFFFFFFFFEA
:105CC400FFFF00000000FFFF00000000FFFFFFFFD8
:105CD400FFFFFFFF00000000FFFF00000000FFFFC8
:105CE400FFFFFFFFFFFFFFFFFFFFFFFFFFFFFFFFC0
:105CF400FFFF0000000000000000000000000000A2
:105D0400000000000000000000000000000000008F
:105D1400000000000000000000000000000000007F
:105D2400000000000000000000000000000000006F
:105D3400000000000000000000000000000000005F
:105D4400000000000000000000000000000000004F
:105D540000000000000000000000FFFFFFFFFFFF45
:105D6400FFFFFFFFFFFFFFFFFFFFFFFF000000003B
:105D7400FFFFFFFF00000000FFFFFFFF0000000027
:105D8400000000000000FFFF00000000FFFFFFFF15
:105D9400FFFFFFFF0000000000000000FFFFFFFF07
:105DA400FFFFFFFFFFFFFFFFFFFFFFFFFFFFFFFFFF
:105DB400FFFF0000000000000000000000000000E1
:105DC40000000000000000000000000000000000CF
:105DD40000000000000000000000000000000000BF
:105DE40000000000000000000000000000000000AF
:105DF400000000000000000000000000000000009F
:105E0400000000000000000000000000000000008E
:105E140000000000000000000000FFFFFFFFFFFF84
:105E2400FFFFFFFFFFFFFFFFFFFFFFFF000000007A
:105E3400FFFFFFFF00000000FFFF00000000FFFF66
:105E4400FFFF00000000FFFF00000000FFFFFFFF56
:105E5400FFFFFFFF0000000000000000FFFFFFFF46
:105E6400FFFFFFFFFFFFFFFFFFFFFFFFFFFFFFFF3E
:105E7400FFFF000000000000000000000000000020
:105E8400000000000000000000000000000000000E
:105E940000000000000000000000000000000000FE
:105EA40000000000000000000000000000000000EE
:105EB40000000000000000000000000000000000DE
:105EC40000000000000000000000000000000000CE
:105ED40000000000000000000000FFFFFFFFFFFFC4
:105EE400FFFFFFFFFFFFFFFFFFFFFFFF00000000BA
:105EF400FFFFFFFF00000000FFFF00000000FFFFA6
:105F0400FFFF00000000FFFF00000000FFFFFFFF95
:105F1400FFFFFFFF00000000FFFF00000000FFFF85
:105F2400FFFFFFFFFFFFFFFFFFFFFFFFFFFFFFFF7D
:105F3400FFFF00000000000000000000000000005F
:105F4400000000000000000000000000000000004D
:105F5400000000000000000000000000000000003D
:105F6400000000000000000000000000000000002D
:105F7400000000000000000000000000000000001D
:105F8400000000000000000000000000000000000D
:105F940000000000000000000000FFFFFFFFFFFF03
:105FA400FFFFFFFFFFFFFFFFFFFFFFFF00000000F9
:105FB400000000000000FFFFFFFFFFFF00000000E3
:105FC400000000000000FFFFFFFF000000000000D1
:105FD4000000FFFF00000000FFFFFFFF00000000C3
:105FE400FFFFFFFFFFFFFFFFFFFFFFFFFFFFFFFFBD
:105FF400FFFF00000000000000000000000000009F
:10600400000000000000000000000000000000008C
:10601400000000000000000000000000000000007C
:10602400000000000000000000000000000000006C
:10603400000000000000000000000000000000005C
:10604400000000000000000000000000000000004C
:1060540000000000000000000000FFFFFFFFFFFF42
:10606400FFFFFFFFFFFFFFFFFFFFFFFFFFFFFFFF3C
:10607400FFFFFFFFFFFFFFFFFFFFFFFFFFFFFFFF2C
:10608400FFFFFFFFFFFFFFFFFFFFFFFFFFFFFFFF1C
:10609400FFFFFFFFFFFFFFFFFFFFFFFFFFFFFFFF0C
:1060A400FFFFFFFFFFFFFFFFFFFFFFFFFFFFFFFFFC
:1060B400FFFF0000000000000000000000000000DE
:1060C40000000000000000000000000000000000CC
:1060D40000000000000000000000000000000000BC
:1060E40000000000000000000000000000000000AC
:1060F400000000000000000000000000000000009C
:10610400000000000000000000000000000000008B
:1061140000000000000000000000FFFFFFFFFFFF81
:10612400FFFFFFFFFFFFFFFFFFFFFFFFFFFFFFFF7B
:10613400FFFFFFFFFFFFFFFFFFFFFFFFFFFFFFFF6B
:10614400FFFFFFFFFFFFFFFFFFFFFFFFFFFFFFFF5B
:10615400FFFFFFFFFFFFFFFFFFFFFFFFFFFFFFFF4B
:10616400FFFFFFFFFFFFFFFFFFFFFFFFFFFFFFFF3B
:10617400FFFF00000000000000000000000000001D
:10618400000000000000000000000000000000000B
:1061940000000000000000000000000000000000FB
:1061A40000000000000000000000000000000000EB
:1061B40000000000000000000000000000000000DB
:1061C40000000000000000000000000000000000CB
:1061D40000000000000000000000FFFFFFFFFFFFC1
:1061E400FFFFFFFFFFFFFFFFFFFFFFFFFFFFFFFFBB
:1061F400FFFFFFFFFFFFFFFFFFFFFFFFFFFFFFFFAB
:10620400FFFFFFFFFFFFFFFFFFFFFFFFFFFFFFFF9A
:10621400FFFFFFFFFFFFFFFFFFFFFFFFFFFFFFFF8A
:10622400FFFFFFFFFFFFFFFFFFFFFFFFFFFFFFFF7A
:10623400FFFF00000000000000000000000000005C
:10624400000000000000000000000000000000004A
:10625400000000000000000000000000000000003A
:10626400000000000000000000000000000000002A
:10627400000000000000000000000000000000001A
:10628400000000000000000000000000000000000A
:0662940000000000000004
:10629C00350200003702000036020000FFFFFFFF4E
:1062AC0000000000000000000000000000000000E2
:1062BC0000000000000000000000000000000000D2
:1062CC0000000000020008000200080002000800A4
:1062DC00FFFFFFFF000000000000000000000000B6
:1062EC0000000000000000000000000000000000A2
:0C62FC0000000000000000000000000096
:106308000200000004000000060000000800000071
:106318001000000020000000400000008000000085
:106328000001000000020000000400000008000056
:106338000010000000200000004000000080000065
:106348000200000003000000050000000700000034
:00000001FF
