:10000000FCFF0220D5740100BD750100BD75010023
:10001000BD750100BD750100BD750100BD75010014
:10002000BD750100BD750100BD750100997C010021
:10003000BD750100BD750100197C0100D97C01006E
:10004000D5720100C1720100997201008572010030
:1000500071720100AD7201005D7201004972010010
:10006000F17B010019750100557501004175010012
:1000700095750100697501002D750100C57C0100B1
:10008000057C0100BD750100BD750100BD75010055
:10009000BD750100BD750100BD750100BD75010094
:1000A000BD750100BD750100BD750100BD75010084
:1000B000BD750100BD750100BD750100BD75010074
:1000C000BD750100BD750100BD750100BD75010064
:1000D000BD750100BD750100BD750100BD75010054
:1000E000BD750100BD750100BD750100BD75010044
:1000F000BD750100BD750100AD730100BD75010046
:10010000BD750100BD750100BD750100BD75010023
:10011000BD750100BD750100BD750100BD75010013
:10012000BD750100BD75010079730100BD75010049
:10013000BD750100E9720100BD750100BD750100CA
:10014000BD750100D1750100357B0100BD75010051
:10015000BD750100BD750100BD750100BD750100D3
:10016000BD750100BD750100BD750100BD750100C3
:10017000BD750100BD750100BD750100BD750100B3
:10018000BD750100BD750100BD750100BD750100A3
:08019000BD750100BD75010001
:020000040001F9
:1074D40081B000F089F800F04FF8BDF0C3F800F077
:1074E40061F8BDF063F8FFF711FE0848006840F446
:1074F400E021064801600649086840F0020008607F
:10750400FFF7A8FDFFF780FDFEE7FEE724ED00E0AE
:0475140008E000E0AB
:1071100081B0CDF800E0FFF7D9FBFFF755F9DDF8B6
:0671200000E001B0704721
:1068CC0081B0CDF800E0012149B22D4801602D487E
:1068DC0001602D4801602D4801602D4801602D4953
:1068EC002D48016048F200012C4801604FF48051A2
:1068FC002B48FEF7B1FF002149B22A4801604FF046
:10690C0000512948FEF7A8FF012149B22748016030
:10691C004FF400612648FEF79FFF4FF48041244856
:10692C00FEF79AFF4FF480712248FEF795FF4FF067
:10693C0001011F48FEF790FF4FF400711D48FEF750
:10694C008BFF012149B21C4801601C4801601C48A6
:10695C00016002221B49088862F30A200880022287
:10696C001949088862F30A2008801848006840F02A
:10697C00020116480160DDF800E001B0704700BF6D
:10698C0024079042280790422C07904230079042EF
:10699C0034079042001BB7001079FF1F1479FF1FBA
:1069AC0040F00F403008FE4300F00F407400FE43EF
:1069BC00C0F00F4080F00F402010FE430018FE4343
:1069CC002410FE4354A0044058A0044038900440C6
:0069DC00BB
:1058640081B0CDF800E0034AFEF754FFDDF800E014
:0858740001B0704704010400BB
:1047180081B0CDF800E0FEF743FBDDF800E001B022
:024728007047D8
:102DA80083B0CDF800E006460C4615463046FEF7DF
:102DB800DDFE40F2FF1306EA0300800900262246E2
:102DC8002946202E39D24FF0010303FA06F402EA0D
:102DD80004031F46A3422ED104031A4B1C19B30047
:102DE800E51801952C68184B04EA03032B60174B70
:102DF80001EA0304019B1B6843EA0404019B1C606D
:102E080001F48033B3F5803F15D08401104B1B19B2
:102E18001433029301F400333BB1FC43029B1B685B
:102E280003EA0404029B1C6005E0029B1B6843EA5A
:102E38000704029B1C60761CC3E7DDF800E003B0C2
:102E4800704700BF009004400000FFFFFFFF000034
:042E580000F00F4037
:101B740081B040F2FF1100EA01018909084600F230
:101B840009024FF0010101FA02F20449096841EA2D
:101B9400020202490A6001B0704700BF3880044065
:001BA40041
:1063C80081B0CDF800E0104801461048FFF74EFDB7
:1063D8000F48104B024610490220FEF71DFF0F48D8
:1063E8000F4A01460220FFF791FF40F22500FFF710
:1063F800FDFDFFF7EDFC0B4801460B48FFF75EFC7F
:10640800DDF800E001B0704726040000C478FF1FE3
:106418006A450D002079FF1F682EFF1F80440D007C
:0C642800542AFF1F2C450D000879FF1FAF
:105FF40081B0042806D11949096841F4803217494F
:106004000A6028E0052806D11449096841F40032E1
:1060140012490A601FE0062806D11049096841F4B4
:1060240080220E490A6016E00F2806D10C4909683F
:1060340041F002020A490A600DE010280BD3A0F2D5
:10604400100461098A0007498B1804F01F024FF0FD
:1060540001019140196001B0704700BF24ED00E0D8
:0860640010E000E000E100E0A3
:105E740085B0CDF800E00491364A12680AB10020DA
:105E840063E0344A1060024600211046442212B2F4
:105E9400FDF73CFE2F4A12681046FEF74BFA00222B
:105EA4000292029A012A39D22B4B029A92009A1832
:105EB400126803920298FEF7B5FF0398FFF714F8EF
:105EC400049A1278D1B20398FEF72EFC049A521C5D
:105ED4001278002A40F2000200D10122D1B20398C4
:105EE400FEF710FC1D4B029A92009A18106800F0FD
:105EF4007FF800263546102D0CD2194B029A9201D8
:105F04009B18AA009A18106800F072F86A1C1646CA
:105F14003546F0E7029A521C0292C2E7002202922E
:105F2400029A012A10D20F4B029A92009A18126810
:105F3400104601900298FEF76BFF0198FEF72CFBC8
:105F4400029A521C0292EBE70020DDF800E005B053
:105F5400704700BF7003FF1F7C450D0080450D0096
:085F6400A0410D0084450D0071
:103B100081B013B20246C8B211461DB22CB26B1E60
:103B20001DB214B10870491CF8E7104601B0704787
:003B300095
:1043380083B0CDF800E0024602B1FFE70192012008
:10434800FFF748F8019A1060116809B9012000E0E8
:0A4358000020DDF800E003B070471C
:1033DC0082B0CDF800E0C2B24FF000014FF0010016
:1033EC00FEF7EAFB0190FDF76DFF0198DDF800E0B8
:0433FC0002B0704764
:101BC40084B0CDF800E0D5B20A460146002940F2BF
:101BD400000300D9012343B904239C468CF31188E4
:101BE400BFF34F8FBFF36F8FFEE712B94FF00000C2
:101BF40001E001FB02F000F248038DF80450029268
:101C040003911846FEF77EFE0399029A9DF804504C
:101C1400064660B106F248043346019608B4EBB2B6
:101C2400084611462246FEF7B7FF01B0019E304632
:081C3400DDF800E004B0704788
:1009080083B0CDF800E0029002F076FD0298FFF780
:10091800ADFC019002F0A8F80198DDF800E003B002
:02092800704716
:1034000081B003480068411C0148016001B0704769
:04341000002CFF1F6E
:1002740081B0CDF800E0F42800F20E810B2801D201
:10028400102004E0001DC01D6FF0070108408346E4
:10029400C2081046BA490968D1400A4601F0030170
:1002A40000293CD0D14301F001014118084649001E
:1002B4008A00B4498A18134602F2080109680C46F8
:1002C400083109680D468A4208D14FF00101814086
:1002D400CB43AB4A1168194011600FE0AA49096881
:1002E4008D420BD305F20C010968A14206D105F237
:1002F4000C010B6003F208010D60FFE7221DC10031
:1003040041F0010141F002011160C10061180A1DB0
:10031400116841F00101116004F208002CE19B49CD
:1003240009688B4540F2B680002A00F0A88002FAE2
:1003340000F34FF0010181404A004FF00101814078
:100344004900494242EA010103EA0102514202EA38
:1003540001014B1E190B01F01002D340590901F0A1
:1003640008015218CB40990801F004015218CB40FF
:10037400590801F002015218CB40590801F001015B
:10038400521823FA01F151180C4649008A007D499C
:100394008A18134602F208010968084608310968F8
:1003A4000D468A4208D14FF00101A140CB43744A63
:1003B4001168194011600FE0734909688D420BD32D
:1003C40005F20C010968814206D105F20C010B60AB
:1003D40003F208010D60FFE7E100A1EB0B010C46FD
:1003E400021D4BF0010141F00201116000EB0B0111
:1003F4000D460A1D44F00101116029190C6063497E
:100404000A680968002934D061490E68D3089846FF
:1004140059008A005B4989180F4689464FF001014B
:1004240001FA03F256490968114049B94FF0010134
:1004340001FA08F3524A1168194311604A460CE064
:1004440007F208010A68504909688A4204D307F28E
:10045400080109680A4600E04A4607F208010E60EE
:1004640002F20C010E6006F208010A6006F20C01A9
:100474000F6046490C6046490D6008307CE04549F0
:10048400096839B159463E48FDF7DCF8014608B120
:10049400084671E0584619E06FF03F01884202D3E4
:1004A4004FF0FF3012E0011DCA1D6FF0070102EA90
:1004B40001018C463749096839B161463048FCF777
:1004C40071FA014608B1084656E060462F490968AA
:1004D400884230D82D4909680A1A14462C490B68F9
:1004E400102A12D31A182A490A60154627490C60A3
:1004F400121D44F00101116029190C601A1D40F00D
:10050400010141F00201116012E0204A106800214B
:10051400116000221E490A601A1D40F0010141F0D9
:100524000201116019180A1D116841F001011160DE
:1005340003F2080020E018490968884216D2164AD6
:1005440011680B1A1360154A1468114609680918D2
:1005540011600A1D43F001011160221D40F00101E8
:1005640041F00201116004F2080005E0014604486C
:10057400FCF7FCFC01460846DDF800E001B07047DA
:100584006080FF1F8880FF1F7080FF1F6880FF1F2F
:100594007480FF1F6480FF1F6C80FF1F7880FF1F23
:0005A40057
:020000040000FA
:10D6480082B00091014600980A1D13685A4203EA05
:10D658000202541E220B02F01003DC40620902F0A1
:10D6680008029B18D440A20802F004029B18D44078
:10D67800620802F002029B18D440620802F001021C
:10D688009B1824FA02F29A1801F5987392009A18D6
:10D69800126814461546121D13686FF0070203EA54
:10D6A8000202121A134600932346009C03F210024A
:10D6B80012681AB103F21002126805E003F21002B0
:10D6C800121D126813461A46164682B1321D136897
:10D6D8006FF0070203EA0202121A1346A24204D2AA
:10D6E8001A46334614461D46FFE73346DEE701F285
:10D6F800100212689542C0F03A812A1816469542DF
:10D7080080F0358105F21802176805F20C021268DC
:10D71800AA4224D005F208021368984605F20C02C2
:10D728001268914601F210021268934212D308F16E
:10D738000C021268AA420DD109F108021268AA4225
:10D7480008D108F10C02C2F8009009F10802C2F8E9
:10D758000080FFE7C8468146284625463CE005F29A
:10D768001002121D13461268904652B905F21002B3
:10D7780090461268134632B99846814622462C468E
:10D7880028E01A4601E0424698460B4631462646AE
:10D7980004463846174608F11002121D0192126815
:10D7A8002AB908F110020192126802B904E0019F37
:10D7B800019A12689046EEE703F210021268974247
:10D7C80002D300223A60FFE7074632460E46194662
:10D7D800A1462C4615462046002F00F0628001F530
:10D7E800987300F21C02126892009A181346126885
:10D7F80090420FD1C3F800801A6852B90C1D00F28C
:10D808001C0213684FF001029A40D34322681A4061
:10D81800226014E001F21002126897420FD307F257
:10D8280010021268824204D107F21002C2F8008086
:10D8380004E007F21002121DC2F80080FFE7B8F1F9
:10D84800000F2ED001F210021268904529D308F17A
:10D858001802176000F210021268134662B101F252
:10D8680010021268934207D308F11002136003F202
:10D878001802C2F80080FFE700F21002121D1268B9
:10D8880013466AB101F210021268934208D308F1F4
:10D898001002121D136003F21802C2F80080FFE79D
:10D8A800FFE7102D10D2031D05EB090242F001021B
:10D8B80042F002021A6005EB09028218131D1A6869
:10D8C80042F001021A604EE0031D49F0010242F0E5
:10D8D80002021A60331D45F001021A6072191560C0
:10D8E80001F2080212681346BAB301F21402126870
:10D8F8001746DC08A14601F22803620092009A1834
:10D90800904692460B684FF00102A24003EA0202D9
:10D9180042B94FF0010202FA09F30A681A430A6091
:10D9280053460DE008F10802136801F2100212686C
:10D93800934204D308F108021268134600E05346E4
:10D9480008F10802176003F20C02176007F20802D8
:10D95800136007F20C02C2F8008001F20802156099
:10D9680001F21402166000F20802104600E00020DE
:04D9780002B0704742
:10C9A80083B00E464FF0000772429046320A114695
:10C9B8000AB9002127E04FF6FF72914201D91F21E1
:10C9C80021E0A1F58072120C02F0080301FA03F4C9
:10C9D800A4F58052120C02F004029B1804FA02F526
:10C9E800A5F58042120C02F002041A19C2F10E03D6
:10C9F80005FA04F2D20B9A185100D21D26FA02F257
:10CA080002F00102891800F598738A009A181268D2
:10CA18009246002A42D01F2901D1002304E04A0887
:10CA28000832921EC2F11F0306FA03F54FF00009FF
:10CA38004446B8460AF1040213686FF0070203EA95
:10CA48000202921B1346A24207D2D0461F461BB9C8
:10CA58003A46454654461EE000E027460AF11004CF
:10CA6800221D13689B46EA0F02F001029200A218E9
:10CA78001268924623B1D34503D05A469146FFE740
:10CA8800FFE7BAF1000F03D14C463A46454602E0AB
:10CA98006D003C46CEE70F46114603E054463D463E
:10CAA8000F464146002C39D1002D39D14FF00102F3
:10CAB800BA4053004FF00102BA40520052421343A9
:10CAC800021D126803EA020213462AB35A4203EA15
:10CAD8000202541E220B02F01003DC40620902F02D
:10CAE80008029B18D440A20802F004029B18D44004
:10CAF800620802F002029B18D440620802F00102A8
:10CB08009B1824FA02F29A1800F5987392009A1862
:10CB1800126813461A4600E0224600E0224600E06A
:10CB2800224604460846294635461646E6B1321DD1
:10CB380013686FF0070203EA0202521B134682428F
:10CB480002D218463146FFE706F2100212681AB1FF
:10CB580006F21002126805E006F21002121D1268B1
:10CB680013461A461646E1E7002900F0FA8104F256
:10CB780008021268521B904280F0F38104F21002FE
:10CB880012689142C0F0ED814A191746914280F02F
:10CB9800E88101F218021268164601F20C021268C6
:10CBA8008A4223D001F208021368984601F20C0267
:10CBB8001268914604F210021268934212D308F1E7
:10CBC8000C0212688A420DD109F1080212688A42E1
:10CBD80008D108F10C02C2F8009009F10802C2F865
:10CBE8000080FFE7C846B146264639E001F2100248
:10CBF800121D1346126890464AB901F21002904677
:10CC0800126813462AB99846B146224627E01A46C2
:10CC180001E0424698460346304626460C463946C9
:10CC2800174608F11002121D019212682AB908F17C
:10CC380010020192126802B904E0019F019A126879
:10CC48009046EEE706F210021268974202D30022DD
:10CC58003A60FFE7814618460F4621463246164697
:10CC6800B9F1000F00F0638006F5987301F21C0219
:10CC7800126892009A181346126891420FD1C3F8AD
:10CC880000801A6852B9341D01F21C0213684FF073
:10CC980001029A40D34322681A40226014E006F247
:10CCA8001002126891450FD309F1100212688A42E6
:10CCB80004D109F11002C2F8008004E009F1100261
:10CCC800121DC2F80080FFE7B8F1000F2FD006F25E
:10CCD8001002126890452AD308F11802C2F8009091
:10CCE80001F210021268134662B106F210021268CD
:10CCF800934207D308F11002136003F21802C2F836
:10CD08000080FFE701F21002121D126813466AB193
:10CD180006F210021268934208D308F11002121D9D
:10CD2800136003F21802C2F80080FFE7FFE710283B
:10CD38000FD20B1D421942F0010242F002021A60A2
:10CD480042198A18131D1A6842F001021A6008462F
:10CD580003E10B1D45F0010242F002021A603B1D7F
:10CD680040F001021A603A181060C208202A34D232
:10CD7800C408254606F22803620092009A18104655
:10CD8800904633684FF00102A24003EA020242B91A
:10CD98004FF0010202FA05F332681A433260434643
:10CDA8000DE000F20802136806F2100212689342BE
:10CDB80004D300F208021268134600E0434600F26A
:10CDC8000802176003F20C02176007F208021360EA
:10CDD80007F20C0210600846BFE0B846020A154682
:10CDE8000AB900252AE04FF6FF72954202D91F22A0
:10CDF800154623E0A5F58072120C02F0080305FA27
:10CE080003F4A4F58052120C02F004029B1804FAF1
:10CE180002F5A5F58042120C02F002041A19C2F1BB
:10CE28000E0305FA04F2D20B9A185300D21D20FA09
:10CE380002F202F001029A1813461D4606F598738D
:10CE4800AA009A18174608F11C02156008F110028A
:10CE58001446131D00221A601A682260321D1368D6
:10CE68004FF00102AA4003EA0202B2B9341D4FF0A2
:10CE7800010202FA05F322681A432260C7F800800B
:10CE880008F11802176008F1080308F10C02C2F84B
:10CE9800008012681A6008465FE03A6813461F2D42
:10CEA80001D1002404E06A080832921EC2F11F046E
:10CEB80000FA04F70D46414634461E46321D1368F3
:10CEC8006FF0070203EA0202824223D006F210033F
:10CED800FA0F02F0010292009B1802937F001A6871
:10CEE8001AB1029A1268164613E004F21002136887
:10CEF800029A9A420CD3029A116001F21802166043
:10CF080001F2080301F20C02116012681A6023E0B2
:10CF180022E020E006F208021268104604F210022D
:10CF28001268964216D304F210021268904211D386
:10CF380006F2080300F20C02116012681A6001F28E
:10CF48000802106001F20C02166001F218030022B8
:10CF58001A6001E000E0B1E7284600F20802104636
:08CF680000E0002003B0704757
:10CF700087B0CDF800E0074688460DF1140B0BF1A1
:10CF8000080ADFF84CC304F059FE4FF00009D14AFB
:10CF900012681AB9FBF772FC00B9FFE707F5DE72F9
:10CFA000126802F000027AB1CB4A126890450BD3A6
:10CFB00007F20C0212683AB141463846FBF7A4FD6D
:10CFC000014608B10846CFE2C44A02F007020AB996
:10CFD000002006E0C14A02F00702C2F1080000F09A
:10CFE000070000F218021032083208EB0203BC4CB2
:10CFF0002268521E9B1822461268521ED24303EA30
:10D0000002021546424501D80020ADE207F5DC7268
:10D01000126872B107F5D87213685A1910469A420D
:10D0200005D907F5DC721268904200D801E00020B3
:10D030009AE207F5DE72126802F00402002A40F05C
:10D04000FC80A84A0392AC4607F2180212680AB99B
:10D05000A54807E007F2180211683846FDF76CFA98
:10D06000014608460646002846D10020FDF72CFA66
:10D0700006469E4A90423DD09D4A1268521E06EADC
:10D0800002027AB19A4C2268521EB31822461268E4
:10D09000521ED24303EA0202921B0CEB0202144618
:10D0A000214600E0614607F5D87212685218104612
:10D0B00041451DD96FF00042914219D207F5DC724B
:10D0C00012685AB107F5D8721268904205D907F56F
:10D0D000DC721268904200D800E009E00191084635
:10D0E000FDF7F2F901990390B04201D1059606913E
:10D0F0008C46FFE7664633E007F20C021268A8EBA5
:10D100000203764A02F007020AB9002006E0734AD9
:10D1100002F00702C2F1080000F0070000F2180256
:10D12000103208329B186E4C2268521E9B18224601
:10D130001268521ED24313409C466FF00042934245
:10D140000DD26046FDF7C0F90390321D13683268B6
:10D15000D218904203D1039A0592CDF818C06646C2
:10D16000059B644A934240F06880039B624A934265
:10D1700000F054806FF0004296424BD2574A02F0C2
:10D1800007020AB9002006E0544A02F00702C2F181
:10D19000080000F0070000F218021032083208EB15
:10D1A0000202964238D24D4A02F007020AB9002024
:10D1B00006E04A4A02F00702C2F1080000F0070048
:10D1C00000F218021032083208EB0202931B444CA2
:10D1D0002268521E9B1822461268521ED2431340E8
:10D1E0001C466FF00042934211D22046FDF76CF9C5
:10D1F000424A904202D03119084606E07242104677
:10D20000FDF762F93E4A03923046014600E031469E
:10D21000084600E0304600E0304600E03046039B20
:10D22000384A934203D0039A0592069005E007F529
:10D23000DE731A6842F004021A60059B324A934278
:10D240002AD16FF00042954226D22846FDF73CF9DC
:10D2500004460020FDF738F92C4A94421CD02C4A91
:10D26000904219D0844217D2021B10461B4A02F08A
:10D2700007020AB9002106E0184A02F00702C2F1CB
:10D28000080101F0070101F21802103208EB020256
:10D29000904201D905940690059B1E4A934200F0E6
:10D2A000628107F5D8742368069A9A182260236869
:10D2B00007F5DA721268934205D907F5DA7307F5B4
:10D2C000D87212681A6007F218021268002A23E066
:10D2D00040440D003882FF1F4482FF1F08000000F9
:10D2E0004082FF1FFFFFFFFF00000000FFFFFFFF66
:10D2F0003C82FF1FFFFFFFFFFFFFFFFFFFFFFFFF5E
:10D30000FFFFFFFFFFFFFFFFFFFFFFFFFFFFFFFF2D
:10D31000FFFFFFFFFFFFFFFF40F06C8007F21002EE
:10D32000126832B107F210021368059A9A4200D3CC
:10D3300003E007F21003059A1A6007F5E073059AF7
:10D340001A6007F5E072131D069A1A6007F5E0727D
:10D350000C32C2F8009007F22403854A12681A6062
:10D3600007F220034FF0FF321A603846FCF78CFBBF
:10D37000804A974217D1804A02F007020AB900207A
:10D3800006E07D4A02F00702C2F1080000F0070043
:10D3900000F2180202F21003069AD21A05993846D2
:10D3A000FCF7CCF923E0A7F20804221D13686FF004
:10D3B000070203EA0202A4182046069B059AD21827
:10D3C000121B13466C4A02F007020AB9002106E05C
:10D3D000694A02F00702C2F1080101F0070101F2F7
:10D3E000180210329A1A01463846FCF7A7F941464E
:10D3F000384696E007F5E07A3E464D46BAF1000F12
:10D400000ED00AF104021368DAF80020D318059A46
:10D410009A4205D00AF10802126810468246EDE7EA
:10D42000BAF1000F34D00AF10C02126802F00802BF
:10D4300072BB0AF10C02126802F00002AA4227D164
:10D4400006F218021368DAF80020934220D306F29D
:10D45000180214680AF104021368DAF80020D218DE
:10D46000944215D20AF104042368069A9A1822609D
:10D4700006F20C021368069A9B1806F2180212684C
:10D4800011461A463046FCF759F93046414648E005
:10D4900006F210021368059A9A4203D206F21003AC
:10D4A000059A1A6006F5E07C2C4641463046BCF1F0
:10D4B000000F0BD0069B059AD318DCF800209A4287
:10D4C00004D00CF1080212689446F0E7BCF1000F9A
:10D4D0001ED00CF10C02126802F00802C2B90CF165
:10D4E0000C02126802F00002A24211D1DCF8002006
:10D4F0001546059ACCF800200CF104042368069A1E
:10D500009A1822600B462A460599FBF77FFE2BE00E
:10D51000019102902346069A0599FBF7D5FC0298E3
:10D52000019900F20C02126891421CD200F20C0325
:10D530001A68521A1A601A68154600F2180422680E
:10D5400010462346521822601A68131D45F0010246
:10D550001A60031D41F0010242F002021A6000F25B
:10D560000802104600E00020DDF800E007B0704738
:0CD570003882FF1F6080FF1F08000000D1
:020000040001F9
:101C3C0081B01CF8019B0BF8019BBBEB0A0FF8D190
:041C4C0001B070472C
:020000040000FA
:10887C0082B018480068002828D140F2004140F22C
:10888C000042481E01EA000000B9FFE712480260EE
:10889C00124801604FF0FF31114801604FF4802104
:1088AC00104801600021104801604FF000010F4892
:1088BC00016001A880F05530019040F00801019151
:1088CC006FF007000140019102480160012002B0E5
:1088DC00704700BF3882FF1F4082FF1F3C82FF1F82
:1088EC004482FF1F4882FF1F4C82FF1F1C82FF1F08
:0088FC007C
:108B080081B00D4605F21802D31D344C2268521E5E
:108B18009B1822461268521ED24303EA02021146EB
:108B280000F5DC72126872B100F5D87213685A1831
:108B380014469A4205D900F5DC721268944200D8AE
:108B480001E0002048E0A94245D9254C254A944235
:108B580041D004F2080202F007020AB9002307E034
:108B680004F2080202F00702C2F1080303F0070347
:108B7800CA1A103A1546E21816461360321D1560D7
:108B88007219131D07221A602A1DB218131D00221C
:108B98001A6000F2100212682AB100F2100212687C
:108BA800944200D302E000F21002146000F5D8737A
:108BB8001A6852181A601B6800F5DA721268934234
:108BC80005D900F5DA7300F5D87212681A6006F252
:108BD8000802104600E0002001B070473C82FF1FE9
:088BE800FFFFFFFFFFFFFFFF8D
:10A5380081B000F5E07210460090084600990A685C
:10A54800904207D30A1D13680A68D218904201D2B4
:10A55800084608E001F2080212681146002A01D1F3
:0AA56800002000E0EBE701B07047AF
:10A4C80081B01449097841B1134A14490A6000223D
:10A4D80013490A6000220F490A70002813D910494D
:10A4E80009680A180F498A4201D90F480AE00B4A3D
:10A4F80013681146096809181160094A1168091892
:10A508001160184604E010B90449086800E00748DB
:10A5180001B07047F92CFF1F000000205082FF1F78
:10A528005482FF1F00800200FFFFFFFFFFFFFFFFB5
:00A5380023
:109A880081B00024202C0DD200F228026100890048
:109A9800531803F2080203F20C010B600968116005
:089AA800641CEFE701B07047F8
:10973C0081B001F2080303F007030BB9002507E021
:10974C0001F2080303F00703C3F1080505F0070550
:10975C004C192146521B00F218031C6000F20C033A
:10976C001A600C1D42F0010323608B181C1D0C4B5E
:10977C0003F007030BB9002106E0094B03F00703C4
:10978C00C3F1080101F0070101F218031033236043
:10979C0000F21C04034B1B68236001B0704700BF30
:0897AC00080000004882FF1FC5
:10920C0083B01E4601F2080404F007040CB90023D5
:10921C0007E001F2080404F00704C4F1080303F0AA
:10922C000703C91802F2080404F007040CB9002360
:10923C0007E002F2080404F00704C4F1080303F089
:10924C000703D4182246671A8B19BF1B0D1D46F055
:10925C00010444F002042C6000F218042468A242B9
:10926C000FD100F20C052C68E4192C602C682246F6
:10927C0000F2180423601D1D42F001042C60084606
:10928C0050E200F214042468A24211D100F2080545
:10929C002C68E4192C602C68224600F2140423601C
:1092AC001D1D42F001042C609C182260084639E216
:1092BC00141D246804F00304012C40F02981141DB2
:1092CC0025686FF0070405EA0404A046E408202C86
:1092DC004BD202F208042668B14602F20C04246850
:1092EC00A2464FEAD804A34600F228056400A40065
:1092FC002C19A6420BD000F210042468A14505D30A
:10930C0009F10C042468944200D100E028E0CA451D
:10931C0008D14FF0010404FA0BF4E54304682C4027
:10932C0004601CE000F228054FEA4B04A4002C1941
:10933C00A2450BD000F210042468A24505D30AF113
:10934C0008042468944200D100E008E009F10C0400
:10935C00C4F800A00AF10804C4F80090FFE7FFE786
:10936C00464615461A463B46CAE0164602F2180413
:10937C00D4F8009002F20C042468944222D006F235
:10938C0008042568AA4606F20C042468A34600F2D9
:10939C0010042468A54212D30AF10C042468B442C8
:1093AC000DD10BF108042468B44208D10AF10C0465
:1093BC00C4F800B00BF10804C4F800A0FFE7DA46CB
:1093CC00B34632E006F21004241D25462468A2465A
:1093DC0044B906F21004A2462468254624B9AA46CC
:1093EC00B34622E02C4601E05446AA464D46A1461F
:1093FC000AF11004241D019424682CB90AF11004FC
:10940C000194246804B905E0DDF80490019C2468FB
:10941C00A246EDE700F210042468A14503D3002412
:10942C00C9F80040FFE7A946B346B9F1000F00F0B8
:10943C00638000F598750BF11C042468A4002C19AA
:10944C0025462468A3450FD1C5F800A02C6854B953
:10945C00061D0BF11C0425684FF00104AC40E543DC
:10946C0034682C40346014E000F210042468A145E8
:10947C000FD309F1100424685C4504D109F11004E0
:10948C00C4F800A004E009F11004241DC4F800A0E5
:10949C00FFE7BAF1000F2FD000F210042468A245A8
:1094AC002AD30AF11804C4F800900BF110042468B4
:1094BC00254664B100F210042468A54207D30AF1D2
:1094CC001004256005F21804C4F800A0FFE70BF1A6
:1094DC001004241D246825466CB100F21004246885
:1094EC00A54208D30AF11004241D256005F21804C6
:1094FC00C4F800A0FFE7FFE7464615461A463B4670
:10950C00AD199C1923461746024618462B4604E013
:10951C000093134602463846009F1E1D35686FF0B7
:10952C00010405EA040434603D1D40F001042C6084
:10953C003C182060C408202C33D2C608334602F2F3
:10954C0028057400A4002C192046A04615684FF07D
:10955C000104B44005EA040444B94FF0010404FAD0
:10956C0003F514682C43146042460CE000F2080426
:10957C00256802F210042468A54203D300F2080403
:10958C00226800E0424600F20804276002F20C0454
:10959C00276007F20804226007F20C0420600846DA
:1095AC00C0E03B46040A27460CB900272AE04FF6D8
:1095BC00FF74A74202D91F24274623E0A7F5807425
:1095CC00240C04F0080507FA05F6A6F58054240CC3
:1095DC0004F004042D1906FA04F7A7F58044240CB2
:1095EC0004F00206AC19C4F10E0507FA06F4E40BFC
:1095FC002C196500E41D20FA04F404F001042C1964
:10960C0025462F4602F59875BC002C19A04603F28E
:10961C001C04276003F210042646251D00242C6030
:10962C002C683460141D25684FF00104BC4005EA19
:10963C000404B4B9161D4FF0010404FA07F534689C
:10964C002C433460C8F8003003F21804C4F80080CE
:10965C0003F2080503F20C04236024682C6008460E
:10966C0060E0D8F8004025461F2F01D1002604E009
:10967C007C080834A41EC4F11F0600FA06F70093F8
:10968C000B462E460099341D25686FF0070405EA39
:10969C000404844223D006F21005FC0F04F00104EC
:1096AC00A4002D1902957F002C681CB1029C246823
:1096BC00264613E002F210042568029CAC420CD33F
:1096CC00029C216001F21804266001F2080501F2E7
:1096DC000C04216024682C6023E022E020E006F2D8
:1096EC0008042468204602F210042468A64216D30B
:1096FC0002F210042468A04211D306F2080500F20D
:10970C000C04216024682C6001F20804206001F232
:10971C000C04266001F2180500242C6001E000E026
:0E972C00B1E7184600F20804204603B070476B
:108EC80087B0CDF800E08046894692469B4608F177
:108ED80018042468A4462146404601F029FB056889
:108EE800041D24682C1920464FF0180606F21004B9
:108EF800E41D041B2146083404F007040CB90022C1
:108F080007E001F2080404F00704C4F1080202F0C3
:108F180007028D1829460CF11004A54201D26346B8
:108F280000E00B461A461F4603F208019C19234627
:108F3800B34C04F007040CB9002506E0B04C04F06B
:108F48000704C4F1080505F0070505F218041034F4
:108F5800AAEB040401930291039204902246494625
:108F6800404600F0E7FB0498039A0299019B3D1DD7
:108F780046F0010444F002042C6008F5E0744FF058
:108F880010070E4625460193CDF808C0DC46034677
:108F9800DDF808B00198FFE72C7834707F1E6D1C4F
:108FA800761C002FF8D108F5E074C4F8009008F595
:108FB800E074241DC4F800A008F5E0740C34C4F86B
:108FC80000C008F5E07408342160044640461146A4
:108FD8005A46251D059507242C60059C241D9C4296
:108FE80001D2059C00E000E0F3E7914200F0048123
:108FF80013468C1A21461419261D35686FF0010492
:1090080005EA040434601D1D41F001042C605C185D
:109018002160CC08202C32D2CE08324600F2280536
:109028007400A4002C192146274605684FF0010456
:10903800B44005EA040444B94FF0010404FA02F507
:1090480004682C43046038460CE001F208042568E3
:1090580000F210042468A54203D301F20804206832
:1090680000E0384601F20804236000F20C04236093
:1090780003F20804206003F20C042160BCE01A46E5
:109088000C0A23460CB900272AE04FF6FF74A342C6
:1090980002D91F231F4623E0A3F58074240C04F093
:1090A800080503FA05F6A6F58054240C04F0040418
:1090B8002D1906FA04F7A7F58044240C04F00206DB
:1090C800AC19C4F10E0507FA06F4E40B2C19650077
:1090D800E41D21FA04F404F001042C1923461F4668
:1090E80000F59875BC002C19234602F21C04276071
:1090F80002F210042646251D00242C602C683460DA
:10910800041D25684FF00104BC4005EA04049CB91D
:10911800061D4FF0010404FA07F534682C43346047
:109128001A6002F21804236002F2080502F20C0425
:10913800226024682C605FE01C6823461F2F01D141
:10914800002504E07C080834A41EC4F11F0501FAB8
:1091580005F601921A460B4601460198141D25682A
:109168006FF0070405EA04049C4223D002F21005BC
:10917800F40F04F00104A4002D19069576002C685C
:109188001CB1069C2468224613E001F210042568ED
:10919800069CAC420CD3069C206000F218042260A6
:1091A80000F2080500F20C04206024682C6023E01B
:1091B80022E020E002F208042468234601F21004A9
:1091C8002468A24216D301F210042468A34211D3E2
:1091D80002F2080503F20C04206024682C6000F2F7
:1091E8000804236000F20C04226000F21805002431
:1091F8002C6001E000E0B1E7DDF800E007B070475F
:04920800080000005A
:020000040001F9
:102A700084B0CDF800E00DF1080B0BF1080ADFF887
:102A800020C1FFF7DBF84748006840B904208446BE
:102A90008CF31188BFF34F8FBFF36F8FFEE700F009
:102AA0006DFA40480068411E3E4801603D4800689C
:102AB000002840F06D803C480068002840F26780A4
:102AC0003A480068002840F2000000D101200028A8
:102AD00032D1374800680C30006802901830FEF799
:102AE000CDFB0298001DFEF7C9FB02982C3001684F
:102AF00030480068814204D902982C3001682D4882
:102B000001600298021D02982C3001681420414394
:102B1000294840181146FEF751FA02982C300168F6
:102B2000264800682C300068814204D34FF0010130
:102B300023480160FFE7C3E7029808B1FEF756F9A2
:102B400020480268002A13D900E00A460192FEF7E5
:102B50006DF9019A20B14FF0010119480160FFE7BA
:102B6000501E01460028F0D8002116480160FFE7FA
:102B70001348006858B14FF0010003904FF08051A6
:102B800011480160BFF34F8FBFF36F8FFFE7FFE77F
:102B900000F084F90398DDF800E004B0704700BF4E
:102BA00024450D00002CFF1F142CFF1FB07AFF1FBF
:102BB000BC7AFF1F0C2CFF1FCC7AFF1FF42BFF1FCA
:0C2BC000042CFF1F202CFF1F04ED00E080
:102F7C0081B0042084468CF31188BFF34F8FBFF3CC
:102F8C006F8F0D490868401C0860012812D10B484E
:102F9C00006800F0FF00002840F2000000D1012082
:102FAC0040B9042084468CF31188BFF34F8FBFF3D4
:102FBC006F8FFEE701B07047B42AFF1F04ED00E0ED
:002FCC0005
:10127C0081B000F2100109680B46011D096801F2EA
:10128C00080200F208010968116000F208010968FF
:10129C000A1D011D09681160191D0968814205D1DB
:1012AC001A1D00F2080109681160FFE700F2100234
:1012BC00002111601968491E19601968084601B0AF
:0212CC00704769
:100FBC0081B0021D13681C460A1D136001F2080360
:100FCC0004F2080212681A6004F208021268121D78
:100FDC00116004F20802116001F210021060026844
:080FEC00521C026001B07047C5
:100DEC0081B00D4800680068002840F2000000D176
:100DFC00012020B14FF0FF31084801600AE006489D
:100E0C0000680830001D00680C300068001D016887
:100E1C000248016001B07047C87AFF1F082CFF1F01
:000E2C00C6
:100E2C0084B0CDF800E04FF0000003905548006806
:100E3C00002840F0968054480068411C02915248AA
:100E4C00016009BB514800680068002840F20000AE
:100E5C0000D1012040B9042084468CF31188BFF3E3
:100E6C004F8FBFF36F8FFEE7484802684848016810
:100E7C00464801604648026046480068411C4548A7
:100E8C000160FFF7ADFFFFE7434801680298884215
:100E9C00C0F057803D4800680068002840F2000010
:100EAC0000D1012020B14FF0FF313B48016048E0F8
:100EBC00364800680830001D00680C300068034696
:100ECC00001D01680A460298884202D2324802602C
:100EDC0037E0181D019300F0CBF9019B03F21800C9
:100EEC001030006830B103F21800019300F0C0F923
:100EFC00019BFFE703F22C0001682848006881423F
:100F0C0004D903F22C000168244801601A1D03F275
:100F1C002C000168142041432148401801931146CC
:100F2C0000F046F8019B03F22C0001681D48006894
:100F3C002C300068814203D34FF001000390FFE78F
:100F4C00A8E7184800682C30016814204143144865
:100F5C0040180068012803D94FF001000390FFE707
:100F6C0004E011480068411C0F4801600F480068FC
:100F7C0018B14FF001000390FFE70398DDF800E093
:100F8C0004B07047002CFF1FFC2BFF1FC87AFF1FFB
:100F9C00C47AFF1FF82BFF1F082CFF1F0C2CFF1F00
:100FAC00CC7AFF1FF42BFF1F202CFF1F042CFF1FDC
:000FBC0035
:102E9C0081B00B48006840B9042084468CF311883B
:102EAC00BFF34F8FBFF36F8FFEE705490868401ED5
:102EBC00086018B9002084468CF3118801B0704763
:042ECC00B42AFF1F06
:100B9C0081B0CDF800E01346019A09B9126000E06B
:100BAC00136002F23C04206002F2400421604FF01A
:100BBC0001011046FFF7A8FADDF800E001B070471C
:000BCC0029
:1001140083B0CDF800E002460846114642B90422F5
:1001240094468CF31188BFF34F8FBFF36F8FFEE7B4
:100134000191029002F020FF029801990D1D0C68B4
:1001440001F23C02136801F2400212685A43A218F9
:100154002A6001F238034FF000021A6001F208032A
:100164000A681A6001F20C050C6801F23C0212687C
:10017400531E01F2400212685A43A2182A6001F287
:100184004403FF2252B21A7001F24503FF2252B215
:100194001A70C8B901F210021268002A40F2000273
:1001A40000D101227AB901F21002104601F01AFFBF
:1001B40040B14FF080530E4A1360BFF34F8FBFF32B
:1001C4006F8FFFE7FFE70BE001F210020191104689
:1001D400FFF72CFD019901F224021046FFF726FDDA
:1001E40002F05AFE4FF00100DDF800E003B0704762
:0401F40004ED00E036
:101FE80082B0CDF800E000F20801091D09680C3143
:101FF8000968084641B904218C468CF31188BFF35F
:102008004F8FBFF36F8FFEE700F21801019008466B
:10201800FFF730F901982049096801BB011D0190BB
:102028000846FFF727F9019800F22C010A681B49B6
:1020380009688A4204D900F22C010A6817490A6023
:10204800031D00F22C010A6814214A431449891817
:10205800019008461946FEF7ADFF019806E000F228
:10206800180101900F48FEF7A5FF019800F22C0116
:102078000A680D4909682C3109688A4206D94FF067
:1020880001004FF0010209490A6001E04FF0000029
:10209800DDF800E002B07047002CFF1F0C2CFF1F7A
:1020A800CC7AFF1FB07AFF1FF42BFF1F042CFF1FF1
:0020B80028
:020000040000FA
:10FC300081B0021D00F20801116000F208024FF0CD
:10FC4000FF31116000F20802111D0A6000F2080283
:10FC500002F208010A604FF00001016001B0704734
:00FC6000A4
:020000040001F9
:1012D00081B0CDF800E080B1021D00211160002135
:1012E000016000F20C02002111604FF000034FF08A
:1012F0000002002101F06AFFFFE7DDF800E001B025
:02130000704734
:1031CC0088B0CDF800E00591069207934FF000040B
:1031DC000494039040B90424A4468CF31188BFF3E3
:1031EC004F8FBFF36F8FFEE7059C2CB9039C4034C7
:1031FC0024680CB1012400E00024002C40F20004EF
:10320C0000D10124E4B244B90424A4468CF31188FF
:10321C00BFF34F8FBFF36F8FFEE7079C022C06D1D5
:10322C00039C3C342468012C01D0012400E00024D0
:10323C00002C40F2000400D10124E4B244B904246F
:10324C00A4468CF31188BFF34F8FBFF36F8FFEE74B
:10325C0000F0B0FA18B9069C0CB1012400E000246F
:10326C00002C40F2000400D10124E4B244B904243F
:10327C00A4468CF31188BFF34F8FBFF36F8FFEE71B
:10328C00FFF776FE039C38342568039C3C34246895
:10329C00A54203D3079C022C00D02CE0079A059979
:1032AC000398FEF73DFB039C24342468002C40F269
:1032BC00000400D101247CB9039C24342046FEF781
:1032CC008DFE40B14FF080553E4C2560BFF34F8FC3
:1032DC00BFF36F8FFFE709E040B14FF080553A4CD8
:1032EC002560BFF34F8FBFF36F8FFFE7FFF7D0FD64
:1032FC004FF0010061E0069C24B9FFF7C9FD4FF0C7
:10330C0000005AE0049C3CB901AC2046FFF7CAFC13
:10331C004FF001040494FFE7FFF7BAFD00F06AF8E0
:10332C00FFF726FE039C443494F90040B4F1FF3FB0
:10333C0005D1039C04F24405002464B22C70039C58
:10334C00453494F90040B4F1FF3F05D1039C04F2DD
:10335C004505002464B22C70FFF79AFD06AD01AC54
:10336C0029462046FFF72CFCF0B90398FEF754FBD6
:10337C00A0B1039C103406992046FFF773FC039808
:10338C00FFF7A8FCFFF76EFB38B94FF080550F4CD8
:10339C002560BFF34F8FBFF36F8F04E00398FFF7E7
:1033AC0099FCFFF75FFB07E00398FFF793FCFFF72F
:1033BC0059FB4FF0000000E062E7DDF800E008B0D8
:1033CC00704700BF04ED00E004ED00E004ED00E008
:0033DC00F1
:1037C00081B00848006810B94FF0010007E00648D2
:1037D000006810B94FF0020001E04FF0000001B0A6
:0C37E000704700BF182CFF1F002CFF1FBB
:10192C0084B0CDF800E00F46014616464FF0000398
:10193C00039301F238031B68029301F240031B6806
:10194C006BB90B6853B90B1D01911868FEF76AFE51
:10195C00019903900C1D00232360FFE751E00EBB9F
:10196C0001F240031C6801F208031B68019122B2CA
:10197C0039461846FFF7C2FF019901F2080501F23A
:10198C0040031C682B681B192B6001F208031C68B0
:10199C000B1D1B689C4204D301F208040B682360E6
:1019AC00FFE72EE001F240031C6801F20C031B68F8
:1019BC00019122B239461846FFF7A0FF019901F2B6
:1019CC000C0501F240031C682B681B1B2B6001F2F9
:1019DC000C031C680B689C4209D201F20C050B1D10
:1019EC001C6801F240031B68E31A2B60FFE7022E10
:1019FC0007D1029B002B03D9029B5B1E0293FFE7CE
:101A0C00FFE701F23804029B5B1C23600398DDF8AE
:061A1C0000E004B0704779
:1006300082B0CDF800E001460C464FF000000029E2
:1006400000F06380334909688C4240F2000100D118
:10065000012141B904218C468CF31188BFF34F8FDF
:10066000BFF36F8FFEE704F27401096841B90421FA
:100670008C468CF31188BFF34F8FBFF36F8FFEE76B
:1006800004F274021168491E116004F22C010A6818
:1006900004F2700109688A4236D004F274010968D4
:1006A000002930D1211D0194084600F0E7FD019C8E
:1006B00000B9FFE704F22C0204F27001096811602E
:1006C00004F2180204F22C010968C1F14001116022
:1006D00004F22C010A68104909688A4204D904F21C
:1006E0002C010A680C490A60231D04F22C010A68D7
:1006F00014214A43094989180846194600F05EFC4E
:100700004FF00100FFE7FFE7FFE7DDF800E002B090
:10071000704700BFF42BFF1F0C2CFF1FCC7AFF1F6C
:00072000D9
:1019080081B00B46014618460D4614B2531E1AB252
:1019180024B103782B706D1C401CF6E7084601B013
:02192800704706
:102CB00081B040B904218C468CF31188BFF34F8F4B
:102CC000BFF36F8FFEE7044909680160021D0349E5
:102CD0000968116001B07047F82BFF1FFC2BFF1F24
:002CE000F4
:102BCC0083B0CDF800E040B9042294468CF3118810
:102BDC00BFF34F8FBFF36F8FFEE741B904229446CA
:102BEC008CF31188BFF34F8FBFF36F8FFEE701910A
:102BFC00029000F0BDF902980199184A14680A680D
:102C0C00B2F1FF3F02D14FF000001EE00368144AFE
:102C1C0012689A4206D0021D1268944202D34FF0F9
:102C2C00010012E0021D1268A31A0A6893420AD22C
:102C3C00021D1268A31A0A68D21A0A6000F032F850
:102C4C004FF0000001E04FF00100019000F020F97E
:102C5C000198DDF800E003B0704700BFFC2BFF1FAC
:042C6C00F82BFF1F23
:101A240083B0CDF800E0019001F0A6FA019800F22D
:101A340038010A6800F23C0109688A4203D14FF078
:101A44000101029102E04FF00001029101F024FA39
:0A1A54000298DDF800E003B07047CF
:102C700082B0CDF800E040B9042294468CF311886C
:102C8000BFF34F8FBFF36F8FFEE7084A1268183209
:102C900001911146FEF73AFF019908464FF00101F4
:102CA000FEF7DEFEDDF800E002B07047F42BFF1FF8
:002CB00024
:101B0C0081B00A681346B2F1FF3F04D100F208021B
:101B1C00083214680DE000F2080400930B4600999B
:101B2C00221D126812688A4202D8221D1468F7E737
:101B3C0019460B1D221D12681A600A1D1268083204
:101B4C00116001F208021460221D116001F21002F2
:0C1B5C0010600268521C026001B070476B
:101A600084B0CDF800E004460B46224A1168224AB1
:101A70001268121D0191029303941046FFF7FEFBBA
:101A8000039C029B019900B9FFE7B4F1FF3F08D125
:101A90003BB1194A1268121D11461848FFF78EFA19
:101AA00023E00B191846144A1268121D136088426D
:101AB00009D2114A1268131D114A126819461046BC
:101AC00000F024F811E00C4A1268131D0D4A126848
:101AD00001901946104600F019F801980A4A126858
:101AE000904202D2084A1060FFE7DDF800E004B03F
:101AF000704700BFFC2BFF1FF42BFF1F9C7AFF1FBA
:0C1B0000C47AFF1FC87AFF1F082CFF1FCB
:102CE00083B0CDF800E0029000F048F90299453138
:102CF00091F900108DF804109DF90410002919DDD8
:102D0000029924310968002940F2000100D1012113
:102D100049B9029924310846FFF766F910B1FEF768
:102D2000B1FDFFE700E005E09DF90410491E8DF8B4
:102D30000410E1E7029901F24502FF2149B2117046
:102D400000F0ACF800F01AF90299443191F9001042
:102D50008DF805109DF90510002919DD0299103133
:102D60000968002940F2000100D1012171B90299DE
:102D700010310846FFF738F910B1FEF783FDFFE781
:102D80009DF90510491E8DF8051000E000E0E1E70F
:102D9000029901F24402FF2149B2117000F07EF85D
:082DA000DDF800E003B070470C
:1018840081B04FF001010248016001B0704700BF10
:04189400042CFF1F02
:104E280081B0012252B202490A6001B0704700BF46
:044E38000408904298
:104EEC0081B0CDF800E00022017862F386110170E8
:104EFC000022016862F3514101600022016862F3F3
:104F0C00104101600022017862F34101017000221E
:104F1C00017862F3C71101700022017862F38201FB
:104F2C00017000240546102C05D221462846FDF7B9
:0E4F3C0049FD641CF7E7DDF800E001B07047A6
:1029D00081B04A0102F58052831800221A604B012F
:1029E00041F20402D218831800221A804B0141F2EE
:1029F0000602D218831800221A804B0141F2080205
:102A0000D218831800221A604B0141F20C02D2182E
:102A1000831800221A604B0141F21002D218831869
:102A200000221A604B0141F21402D21883180022CE
:102A30001A804B0141F21602D218831800221A8024
:102A40004B0141F21802D218831800221A604B0180
:102A500041F21C02D218831800221A804B0141F265
:0E2A60001E02D218831800221A8001B070479F
:10472C0081B0CBB2027863F38202027001B07047A1
:00473C007D
:1047080081B0CBB2027863F30412027001B0704733
:00471800A1
:104E140081B0012252B202490A6001B0704700BF5A
:044E2400840790422D
:10459C0081B0002424B2102C0EDA031900221978F1
:1045AC0062F3C711197003190022197862F305011F
:0C45BC001970641C24B2EEE701B07047D7
:1052200086B0CDF800E00290039104920593784D8A
:10523000029CA4002C1924680194039C24B1049CB2
:1052400014B1059C04B101E00920DCE0059C04F0E8
:105250001F040CB10E20D6E0582212B20021039890
:10526000FEF756FC0298FFF731F80298FFF75AF85C
:10527000039C0C342060049C2578039C2570039CBF
:1052800004F20805049CE41C24782C70039C04F2AE
:105290000905049CA41C24782C700198FFF786FB58
:1052A000039C143400212046FFF714FA08B10D20A6
:1052B000A9E001210198FFF771FB049C641C24788C
:1052C000E1B20198FFF7CCFD049C241D2478E5B2DF
:1052D000049CE41C2478EAB2E1B20198FFF772FD65
:1052E000012201210198FFF7C5F80125049C2478CB
:1052F00001230022E1B2019820B4FFF717FD01B0AD
:10530000029CA500434C6519039C2C60424D029CF5
:10531000A4002C192468204600F06CFE0198FEF7CA
:1053200065FA029CE4B9039C3834224640F20E111F
:1053300009B2FE20FFF762FCB0F1FF0F01D10C2093
:1053400061E0039C1834224640F20F1109B2FE209E
:10535000FFF754FCB0F1FF0F01D10C2053E03BE00C
:10536000029C012C1CD1039C3834224640F21011BF
:1053700009B2FE20FFF742FCB0F1FF0F01D10C2073
:1053800041E0039C1834224640F2001109B2FE208D
:10539000FFF734FCB0F1FF0F01D10C2033E01BE02C
:1053A000039C3834224640F2111109B2FE20FFF767
:1053B00025FCB0F1FF0F01D10C2024E0039C183430
:1053C000224640F2001109B2FE20FFF717FCB0F1AF
:1053D000FF0F01D10C2016E0039C2834224640F236
:1053E000001109B2FE20FFF709FCB0F1FF0F01D157
:1053F0000C2008E0039C04F24805059C2C600198F1
:10540000FFF7C4F80020DDF800E006B0704700BFE9
:0C541000BC440D006403FF1FC8440D00E5
:1042CC0081B0032800D313E082000A4989180A68D8
:1042DC00510902F01F04C9B28A0007498B18E2B2D7
:1042EC00012109B201FA02F212B2196811431960E4
:0C42FC0001B07047B0440D002880044061
:1043240081B0CDF800E0FEF73DFFDDF800E001B01C
:024334007047D0
:1031A80082B0CDF800E0FEF7DBFD0190FEF704FEEB
:1031B800411C09B20198B0FBF1F0DDF800E002B063
:0231C80070474E
:101D680081B0CDF800E012490878420092B21149DA
:101D7800087842EA0000C0B20DE0FEF791FD13E0DA
:101D8800FEF768FD10E0FEF7E5FE0DE0FEF76AF8E5
:101D98000AE0002008E00328EFD00028F0D001284E
:101DA800F1D00228F2D0F4E7DDF800E001B0704786
:081DB800CC00C842C800C8427B
:1008A80081B0CDF800E01249087820B911490878DC
:1008B80008B9002000E0012008B9002014E0FFF783
:1008C800D1FA0D49097801F01F01C9B2491C09B2D2
:1008D800C9B2B0FBF1F10948007800F01F00C0B2BE
:1008E800183000B2C0B24843DDF800E001B07047EC
:1008F800D400C8429800C84204400640054006405B
:00090800EF
:020000040000FA
:10FE6C0081B00C48007800F0030009E00A480068F3
:10FE7C000DE00A4800680AE0094808E0002006E0A6
:10FE8C000028F3D00128F4D00228F5D0F6E701B011
:10FE9C00704700BF0C4006401079FF1F1479FF1FFC
:04FEAC00006CDC0208
:020000040001F9
:10085C0082B0CDF800E00E49087808B1002013E012
:10086C00FFF7ACFA014608B900200DE00948027800
:10087C00094800784009C0B200F003000191D1B2E0
:10088C00C2B20198FFF7D0FCDDF800E002B070476F
:0C089C00D400C8427C00C8420340064063
:020000040000FA
:10FDC80081B0CDF800E02349087800283CD100F044
:10FDD80049F821490978C908C9B201F00703DBB21B
:10FDE800DCB21E4909780909C9B201F00302D2B28E
:10FDF8001B49097801F00301D840034602B30129E1
:10FE080020D00BE058091AE01420B3FBF0F016E0FC
:10FE18000C20B3FBF0F012E0002010E0002CF1D031
:10FE2800012CEFD0022CEDD0032CEBD0042CE9D020
:10FE3800052CE7D0062CE7D0072CE9D0ECE700E04A
:10FE4800184600E0184601E048F20000DDF800E03E
:10FE580001B070470800C842004006400140064013
:04FE68000C40064004
:020000040001F9
:1002340081B029B1B0F5004F01D9002013E00AE0E4
:1002440047F61223984204D349F69703984200D8FC
:1002540001E0002007E09400044B1C194B00E31854
:100264001B884343184601B0704700BF28440D0063
:000274008A
:100B5C0081B00B49087808B900200FE009490878E2
:100B6C0010B948F2000009E0074800784108C9B202
:100B7C000648C84000F007000146084601B070471F
:100B8C000400C8422000C8420840064000093D004D
:000B9C0059
:101DC00081B004480068000E00F00F00C0B201B0FE
:081DD000704700BF448004408D
:1049AC0081B00022018862F38E31018001220178EE
:1049BC0062F30001017000F22C021449116000F244
:1049CC0008020021116000F20C024FF0F04111605E
:1049DC0000F20C010A1D4FF0F041116000F23002A0
:1049EC000021116000F234020021116001220188C3
:1049FC0062F3CB2101800122018862F38A210180BC
:104A0C0044F20101016001B0704700BF00000A9A36
:004A1C009A
:1046D40083B0CDF800E08DF8041001469DF8040085
:1046E40001B1FFE70191C1B2FF20FEF7BBFF0199C1
:1046F40008600A680AB9012000E00020DDF800E043
:0447040003B0704747
:1036680082B0CDF800E0002840F2000200D001222C
:1036780042B9042294468CF31188BFF34F8FBFF3ED
:103688006F8FFEE7814240F2000200D8012242B962
:10369800042294468CF31188BFF34F8FBFF36F8FCA
:1036A800FEE7019102224FF00001FEF787FA019927
:1036B800034618B103F238021160FFE71846DDF837
:0636C80000E002B07047B3
:10499C0081B0CBB2026863F3DF72026001B0704782
:0049AC000B
:104E600081B0CBB2026863F39E72026001B07047FA
:004E700042
:104DC40081B00368C3F305431C46012A02D144EAB7
:104DD400010104E0CBB2DB439BB204EA03010C46BD
:0C4DE400036864F31543036001B07047DE
:1044740081B0CDF800E00546CCB2D6B22B88C3F3A8
:10448400803717B12846FFF7AFF9002C40F200033C
:1044940000D10123DBB2DCB22B8864F34D332B80D3
:1044A400002E40F2000300D10123DBB2DCB22B88E2
:1044B40064F30C332B8017B12846FFF789F8DDF835
:0644C40000E001B07047AA
:1037EC0081B00022018862F38E31018001B07047F4
:0037FC00CD
:1035D40081B00122018862F38E31018001B070470D
:0035E400E7
:104D2C0081B09DF804700568C5F3C074002C41D0A7
:104D3C00012F13D100F20C058C0024B22E1915464C
:104D4C00346865F39754346000F20C058C0024B27F
:104D5C002E199DB2348865F30F343480022F13D191
:104D6C0000F20C058C0024B22E191546346865F33C
:104D7C001554346000F20C058C0024B22E199DB22F
:104D8C00348865F30B243480032F13D100F20C0507
:104D9C008C0024B22E191546346865F393443460A4
:104DAC0000F20C058C0024B22E19DDB2347865F3B8
:084DBC000714347001B07047C8
:104BFC0087B0CDF800E08DF81000ADF814100692D7
:104C0C009DF81030FE2B57D14FF000030393BDF9E4
:104C1C0014301B0A0293029B002B4BD0039C0123E4
:104C2C0003FA04F4A4B2029B2340002B35D0039B5F
:104C3C001B010193039B5B1C1C01019BA3422CD207
:104C4C00364B1B684FF0FF311846FEF73BFD334BDC
:104C5C001B681C1D019B9B00E3181B68A3B92F4DFF
:104C6C002B681C1D019B9B00E418069B23602B46A4
:104C7C001B681846FEF756F9069ABDF914100198F0
:104C8C00FEF79EF9019845E0244B1B681846FEF789
:104C9C0049F9019B5B1C0193CCE7039C0123A340C6
:104CAC009BB2DC43A4B2029B23400293039B5B1C8C
:104CBC000393B0E7FF202DE0184B1B684FF0FF313A
:104CCC001846FEF7FFFC154B1B681C1D9DF8103099
:104CDC009B00E3181B68BBB9104D2B681C1D9DF87D
:104CEC0010309B00E418069B23602B461B6818466B
:104CFC00FEF718F9069ABDF914109DF81000FEF78E
:104D0C005FF99DF8100005E0044B1B681846FEF790
:104D1C0009F9FF20DDF800E007B070477003FF1FB2
:004D2C0087
:1036D00087B0CDF800E003900491039A02B1FFE7B0
:1036E000039A12681046FDF793FA0690FDF7E2FA86
:1036F000069A824201D101201EE0049AB2F1FF3FF6
:1037000002D14FF0FF3008E0049A901C4FF0C8023D
:1037100050434FF47A72B0FBF2F0039A12680192B0
:103720004FF0000300210246019801F007F801283C
:1037300001D0022000E00020DDF800E007B0704773
:0037400089
:100C100083B0CDF800E0019002F0B0F901980168CE
:100C200019B9011D0968029101E00021029102F049
:0C0C300035F90298DDF800E003B07047D1
:100CB40081B00248006801B0704700BFF42BFF1FE9
:000CC40030
:10473C008AB0CDF800E00591069207934FF0000483
:10474C000494039040B90424A4468CF31188BFF35D
:10475C004F8FBFF36F8FFEE7059C2CB9039C403441
:10476C0024680CB1012400E00024002C40F2000469
:10477C0000D10124E4B244B90424A4468CF311887A
:10478C00BFF34F8FBFF36F8FFEE7FFF713F818B926
:10479C00069C0CB1012400E00024002C40F2000423
:1047AC0000D10124E4B244B90424A4468CF311884A
:1047BC00BFF34F8FBFF36F8FFEE7FEF7D9FB039C60
:1047CC00383424682746002C55D9039C0C342468B3
:1047DC00A04605990398FDF769FC079C4CBB039C0C
:1047EC0004F238057C1E2C60039C24683CB9039CA5
:1047FC00241D0994FEF79CF8099C2060FFE7039C9C
:10480C0010342468002C40F2000400D101247CB93F
:10481C00039C10342046FDF7E1FB40B14FF080556E
:10482C00514C2560BFF34F8FBFF36F8FFFE7FFE74E
:10483C001CE0039C0C34C4F80080039C24342468D2
:10484C00002C40F2000400D101247CB9039C2434D8
:10485C002046FDF7C3FB40B14FF08055434C25601B
:10486C00BFF34F8FBFF36F8FFFE7FFE7FEF710FB30
:10487C004FF0010073E0069C24B9FEF709FB4FF0E2
:10488C0000006CE0049C3CB901AC2046FEF70AFA2F
:10489C004FF001040494FFE7FEF7FAFAFEF7AAFDC5
:1048AC00FEF766FB039C443494F90040B4F1FF3FDF
:1048BC0005D1039C04F24405002464B22C70039CC3
:1048CC00453494F90040B4F1FF3F05D1039C04F248
:1048DC004505002464B22C70FEF7DAFA06AD01AC83
:1048EC0029462046FEF76CF960BB0398FDF7E4FA05
:1048FC0010B3039C24684CB9FEF73AFB039C241DAF
:10490C002068FDF7FFFAFEF7C3FAFFE7039C243497
:10491C0006992046FEF7A6F90398FEF7DBF9FEF799
:10492C00A1F840B94FF08055114C2560BFF34F8F63
:10493C00BFF36F8FFFE704E00398FEF7CBF9FEF7A8
:10494C0091F80BE00398FEF7C5F9FEF78BF8039886
:10495C00FDF7B2FA10B14FF0000000E02DE7DDF8E2
:10496C0000E00AB0704700BF04ED00E004ED00E089
:04497C0004ED00E066
:1020B80081B0CDF800E0064606F240021268F2B19F
:1020C80006F20C0406F2400213682268D218226055
:1020D80006F20C021368321D1268934204D306F20A
:1020E8000C0332681A60FFE706F24002136806F232
:1020F8000C021268084611461AB2FFF701FCDDF817
:0621080000E001B0704789
:10293C0081B00748006830B10548006800F27401A6
:10294C000868401C08600248006801B0704700BF6E
:04295C00F42BFF1F3A
:101EC40083B0CDF800E0029001F056F80299383161
:101ED400096819B94FF00101019102E04FF00001C6
:101EE400019100F0D9FF0198DDF800E003B07047DC
:001EF400EE
:101F100082B0CDF800E00446002800F05A8004F2B8
:101F20002C010A682D4909682C3109688A424FD270
:101F300004F21801096801F0004149B904F21802DD
:101F4000264909682C310968C1F140011160FFE799
:101F5000211D10310B6804F22C010A6814214A4338
:101F60001F4989188B4240F2000100D1012139B389
:101F7000211D01940846FFF781F9019C00B9FFE794
:101F800004F22C02154909682C310968116004F229
:101F90002C010A68134909688A4204D904F22C0109
:101FA0000A6810490A60231D04F22C010A681421F2
:101FB0004A430B49891808461946FEF7FFFF06E019
:101FC00004F22C02054909682C3109681160FFE709
:101FD000FFE7DDF800E002B0704700BFF42BFF1F01
:081FE000CC7AFF1F0C2CFF1F3F
:102F300084B0CDF800E0024602B1FFE711680192CB
:102F40000846FDF765FE0390FDF7B4FE019A03996C
:102F5000814201D001200DE011684FF000034FF0D5
:102F600000020846002100F031F9012801D00120BB
:0C2F700000E00020DDF800E004B0704735
:102FCC0086B0CDF800E0C6B217460BB203F0FF0393
:102FDC008DF804303409E4B21B4BA5005B191B6857
:102FEC00029306F00F04E4B20394184B5B191B68B0
:102FFC0004930594102212B20021384600F082FD91
:10300C003E709DF80C2001210298FEF73FFC002237
:10301C0005990498FEF746FC9DF8043003F03F0335
:10302C00DAB205990498FDF7E1FD0122059904989F
:10303C00FEF738FC03990298FFF7C4FC0020DDF87A
:10304C0000E006B0704700BF7C450D0084450D00C4
:00305C0074
:1018980081B019B100F219031A7002E000F21803BE
:0618A8001A7001B0704748
:1018B00081B0102900D305E04518D4B22B7864F329
:0818C000C7132B7001B0704743
:100BF80081B0102900D305E04518D4B22B7864F3EE
:080C080005032B7001B07047D9
:10458C0081B00022017862F30001017001B0704724
:00459C001F
:1063140085B0CDF800E084001C4B1B191B681E4699
:106324001B4B1B191B681F4601B92AE006F20C031C
:106334001B681D460B681C4633780197029603922E
:1063440004912246D9B22B463846FDF775FC0499D0
:10635400039A029E019F10600C1D337801960291EE
:106364002246D9B23846FEF72DF90299019E0B1D3B
:106374001B68102B01D9082003E0341D0B1D1B687A
:106384002360DDF800E005B0704700BF6403FF1F21
:04639400BC440D00F8
:103C3C008AB0CDF800E081465FFA81F81646484616
:103C4C0002F014FE08B9002087E04FF0FF3409940D
:103C5C000024029400240494012406940024079464
:103C6C00002401943246019C042C52D2099C002C55
:103C7C004FD00024039416461D465FFA88F049463F
:103C8C00039C102C3CD2099C002C39D001240594A7
:103C9C0089465FFA80F82B463246059C032C26D2C7
:103CAC00099C24B3059C03FB04F7019CA5002D4C37
:103CBC0064192668039CA5002B4C64192468744372
:103CCC00B7FBF4F42046A2420DD3151A0895099CB3
:103CDC00AC4208D9089C0994019C0294039C04945E
:103CEC000790059C0694059C641C0594D5E7039CE1
:103CFC00641C039416461D465FFA88F04946BFE7DC
:103D0C00019C641C019489465FFA80F82B4632466C
:103D1C00A9E709F10C054FEA880424B22E19069C78
:103D2C00641E2546346865F3DF74346009F10C05B4
:103D3C004FEA880424B22E19029D346865F31144AD
:103D4C00346009F10C054FEA880424B22E19049D45
:103D5C00347865F3030434700798DDF800E00AB09A
:0C3D6C00704700BF18440D00E0410D003E
:0E68780081B00268C2F3C071C8B201B07047AF
:1045C80081B0CDF800E00646CFB29046D8F800306A
:1045D800042B13D3D8F80030102B04D93468C4F353
:1045E800C07303B10AE0D8F80030202B05D934682D
:1045F800C4F3C073002B00D100E001E0062060E0A6
:10460800304602F035F9A0B306F20C04BB001BB229
:10461800E518D8F800305B1E1C462B6864F3DE638F
:104628002B6006F20C04BB001BB2E51808F104036A
:104638001B78DCB22B6864F39A632B6006F20C04D7
:10464800BB001BB2E51808F105031B78DCB22B6828
:1046580064F359632B6006F20C04BB001BB2E51827
:1046680008F106031B78DCB22B6864F318632B602F
:1046780026E006F20C04BB001BB2E518D8F800309F
:104688005B1E1C462B6864F3DE632B6006F20C0489
:10469800BB001BB2E51808F104031B78DCB22B68D9
:1046A80064F39A632B6006F20C04BB001BB2E51896
:1046B80008F105031B78DCB22B6864F359632B609F
:0A46C8000020DDF800E001B07047AB
:105DD80081B0CDF800E0012252B2144802600021DF
:105DE8001348016000211348016000211248016036
:105DF800002112480160002111480160002111486A
:105E0800016011480260114802601148026011489F
:105E180002601148026040F2370000F0E7F81021F4
:105E28000E480160DDF800E001B07047EC079042D1
:105E380008B003400CB0034018B003401CB0034046
:105E480020B0034024B00340080176420C0176429A
:105E580088017642800176428401764200B0034090
:005E68003A
:105CC40084B0CDF800E006460D460DB106B101E002
:105CD400022077E02A78012A08D12A1D1278012AA5
:105CE40004D1AA1D12780AB903206BE001235BB228
:105CF400364A1360FDF7DEFE6A1D12788DF8052022
:105D04002A1D1278002A40F2000200D10122D2B2E8
:105D14008DF80420AA1D12788DF8062081B00DF1AB
:105D2400080C0DF1000B0BF1030AFBF785FFFEF7DE
:105D340021F801B02A788DF80720EA1C12788DF832
:105D44000820AA1C12788DF809206A1C12788DF894
:105D54000A2081B00DF10B0C0DF1000B0BF1040ABC
:105D6400FBF76AFFFEF7CCF901B0194A166000226E
:105D74003260EA1D12783AB10120FEF7B9F940F217
:105D84004A0000F035F906E00020FEF7B1F940F2D0
:105D94004A00FDF74FFE2A78A2B9321D03926A1D0C
:105DA4001278D0B2FEF7DCF9039A10602A1D12783B
:105DB40042B1341D2368AA1D1278521C12B223FA70
:105DC40002F22260DDF800E004B070470007904260
:045DD4001879FF1F1C
:103A380081B0042807D11B490A686FF480310A4015
:103A480018490A602BE0052807D116490A686FF45F
:103A580000310A4013490A6021E0062807D11149BC
:103A68000A686FF480210A400E490A6017E00F289F
:103A780007D10D490A686FF002010A400A490A6035
:103A88000DE010280BD3A0F2100461098A00074941
:103A98008B1804F01F024FF001019140196001B02A
:103AA800704700BF24ED00E010E000E080E100E096
:003AB8000E
:103AB80081B0002149B20248016001B0704700BFDF
:043AC8000000804238
:103D780081B09DF80600C10089B29DF8040080005A
:103D880080B2014389B29DF80500014389B2024817
:0C3D9800016001B0704700BF040004404F
:1041040081B01148006800F041010F4801609DF83A
:1041140004100E4801609DF805100D4801609DF8DB
:1041240006100C4801609DF8070000F001010A48E0
:1041340001609DF8070000F00200C0B24108074882
:10414400016001B0704700BF0000044004008042D9
:10415400080080420C00804210008042140080421B
:004164005B
:1040F40081B00249086001B0704700BF18008042D7
:00410400BB
:1041640081B042E0264A117809B900200FE0254ABF
:10417400117811B948F2000009E023490978490887
:10418400C9B201F00302D2B2204941FA02F035E08B
:1041940040F2E83032E01E490968890CC8B212E0E6
:1041A4001C490968B1F5004F02D148F2000100E052
:1041B400002188B20EE0184908680BE040F2E830AC
:1041C40008E0002006E00028EAD00228F3D0032803
:1041D400F4D0F6E712E0114A117811B10D490868DC
:1041E40000E000200AE0002008E00028BAD00128FE
:1041F400CED00228CFD00328EDD0F4E701B0704729
:104204000400C8422000C8420840064000093D009E
:10421400007004401079FF1F1479FF1F1C00CA426C
:004224009A
:1070580081B0CDF800E00D4D0024002301220C4939
:107068000C4820B410B408B404B4002341F2000260
:10707800FFF7F4F904B020B1002000F00DF8022069
:1070880000E00020DDF800E001B070473078FF1F15
:08709800D428FF1F256601004A
:1064640081B0CDF800E093B2BDF80450029A9DF8D3
:106474000C40049C2746C5F14004A4B2A61EB6B243
:106484009D080C461346AAB2214680B440B4FFF7D7
:10649400F9FE02B0012801D0012000E00020DDF85F
:0664A40000E001B07047AA
:1062880087B0CDF800E003900491ADF81420069390
:10629800079C0794089C0894BDF81440A400204665
:1062A800FAF72EFB014670B101918020FAF728FB1E
:1062B8000199029018B1029C3034216002E008462E
:1062C800FDF704FF01E000240294029CC4B140F2EF
:1062D8000008029F089E079DBDF81440069B2246B1
:1062E800049903984DF8048D80B440B420B4FDF7A8
:1062F80013FB04B00298FEF709FC4FF0010001E01F
:0C6308004FF0FF30DDF800E007B07047F8
:1040D40082B0CDF800E038B10190FFF78FF9019874
:1040E400FEF750F8FEF7C2FCDDF800E002B07047BE
:0040F400CC
:1021880085B0CDF800E0002800F0C983A0F208026D
:102198001346D64909688A42C0F0C183191D0968E7
:1021A80001F00301012900F0BA83191D0A686FF0D4
:1021B800070102EA01010F46581802F0010100293F
:1021C80040F0338119680E46191D096801F00301B2
:1021D80009B900F0A4BB9A1BBC191546C349096884
:1021E8008A42C0F01F81C24909688D4200F000810F
:1021F800F108202942D205F208010B681F4605F2B2
:102208000C0109688846F1080E4649008A00B94958
:1022180089188B420AD0B54909688F4205D307F25D
:102228000C010968A94200D100E024E0B84508D1B2
:102238004FF00101B140CB43AF4A1168194011601A
:1022480018E071008A00AB49891888450AD0A74967
:102258000968884505D308F108010968A94200D131
:1022680000E007E007F20C01C1F8008008F108015E
:102278000F60FFE7FFE72A462146B5E02B4605F247
:1022880018010E6805F20C010968A94220D003F272
:1022980008010A68174603F20C0109688846934941
:1022A80009688A4211D307F20C01096899420CD1D6
:1022B80008F108010968994207D107F20C01C1F831
:1022C800008008F108010F60FFE7474698462FE0B5
:1022D80003F21001091D0A4609680F4641B903F2C5
:1022E80010010F4609680A4621B9174698461FE0AB
:1022F800114601E03946174632460E4607F21001EC
:10230800091D0291096829B907F2100102910968AB
:1023180001B904E0029E029909680F46EEE7734985
:1023280009688E4202D300213160FFE716469846BD
:10233800002E00F0578008F11C0109688A006F49D7
:1023480089180A46096888450ED11760116851B97D
:1023580008F11C010A684FF001019140CB43684A1B
:1023680011681940116011E0604909688E420DD367
:1023780006F210010968414503D106F210010F6009
:1023880003E006F21001091D0F60FFE7002F29D0B6
:10239800564909688F4225D307F218010E6008F1E3
:1023A800100109680A4651B1504909688A4206D3A2
:1023B80007F210010A6002F218010F60FFE708F146
:1023C8001001091D09680A4659B1484909688A4235
:1023D80007D307F21001091D0A6002F218010F6005
:1023E800FFE7FFE72A46214606460F46114618E052
:1023F800011D096801F0030103290FD141490C604F
:10240800031D1A686FF0010102EA010119602A1D13
:1024180044F00101116029190C6080E20646274644
:10242800294600E07BE2084601E006461846B0422D
:1024380080F07582311D096801F00101002900F062
:102448006E82311D096801F00201002940F04F81B8
:102458002D4909688E4214D12C4A1168CB19136092
:1024680029490860021D43F00101116020490968EB
:10247800884205D100221E490A60002221490A60CB
:102488004DE21B4909688E420DD11E4A1168CB19CD
:1024980013601C4616490860021D43F001011160D3
:1024A80001190C603BE2311D0A686FF007010A4010
:1024B8001546BC18D108202955D206F208010B6828
:1024C8001F4606F20C0109688846E9080D464900CE
:1024D8008A00084989188B421ED0044909688F422E
:1024E80019D307F20C01096800F012B87080FF1FB9
:1024F8007480FF1F8880FF1F6080FF1F9081FF1F6F
:102508006480FF1F6880FF1F7880FF1F6C80FF1F9B
:10251800B14200D100E024E0B84508D14FF00101F4
:10252800A940CB43E04A11681940116018E06900DE
:102538008A00DE49891888450AD0DD490968884536
:1025480005D308F108010968B14200D100E007E0AD
:1025580007F20C01C1F8008008F108010F60FFE7DD
:10256800FFE72346B3E0334606F218010D6806F28A
:102578000C010968B1421FD003F208010A68164627
:1025880003F20C0109680F46C94909688A4210D349
:1025980006F20C01096899420BD107F20801096893
:1025A800994206D106F20C010F6007F208010E608D
:1025B800FFE73E461F462FE003F21001091D0A46B9
:1025C80009680E4641B903F210010E4609680A4629
:1025D80021B916461F461FE0114601E0314616464E
:1025E8002A460D4606F21001091D0391096829B90A
:1025F80006F210010391096801B904E0039D0399EB
:1026080009680E46EEE7AA4909688D4202D30021FF
:102618002960FFE715461F46002D00F0578007F296
:102628001C0109688A00A34989180A4609688F426B
:102638000ED11660116851B907F21C010A684FF0F3
:1026480001019140CB439C4A11681940116011E087
:10265800974909688D420DD305F210010968B942FE
:1026680003D105F210010E6003E005F21001091D07
:102678000E60FFE7002E29D08D4909688E4225D3C8
:1026880006F218010D6007F2100109680A4651B1F7
:10269800874909688A4206D306F210010A6002F2E5
:1026A80018010E60FFE707F21001091D09680A46C4
:1026B80059B17F4909688A4207D306F21001091DFA
:1026C8000A6002F218010E60FFE7FFE72346021DC9
:1026D80043F001011160C1180B607849096888420C
:1026E80002D177490B601AE1044618460EE0331D03
:1026F8001A686FF0010102EA01011960021D47F032
:1027080001011160C1190F6004463846C10820292B
:1027180033D2C3081D4659008A00644989180846FF
:102728000E464FF0010101FA03F25F4909681140B2
:1027380049B94FF0010101FA05F35B4A11681943E1
:10274800116032460CE000F208010A68584909682D
:102758008A4204D300F2080109680A4600E03246BA
:1027680000F208010C6002F20C010C6004F208018E
:102778000A6004F20C010860D0E02546010A0C4604
:1027880009B900242AE04FF6FF718C4202D91F21B3
:102798000C4623E0A4F58071090C01F0080204FA44
:1027A80002F3A3F58051090C01F00401521803FA51
:1027B80001F4A4F58041090C01F00203D118C1F11C
:1027C8000E0204FA03F1C90B51184A00C91D20FA78
:1027D80001F101F0010151180A461446A2003549D9
:1027E80089180E4605F21C010C6005F210010B4613
:1027F8000A1D00211160116819604FF0010101FAEA
:1028080004F22D490968114099B94FF0010101FA04
:1028180004F3294A116819431160356005F218015B
:102828000E6005F2080205F20C010D6009681160DE
:102838006CE031680A461F2C01D1002304E06108CE
:102848000831891EC1F11F0300FA03F10B460193F9
:102858002B461446019D211D0A686FF0070102EA04
:102868000101814232D004F21002E90F01F00101A6
:102878008900521804926D00116819B10499096809
:102888000C4622E00A490A68049991421CD304992B
:102898000B6003F218010C6003F2080203F20C014A
:1028A8000B60096800F00EB86080FF1F8880FF1F6A
:1028B8007080FF1F9081FF1F6480FF1F7480FF1FBF
:1028C8006880FF1F116021E020E01EE004F208018B
:1028D80009680846144909688C4215D312490968E1
:1028E800884211D304F2080200F20C010B60096857
:1028F800116003F20801086003F20C010C6003F296
:1029080018020021116001E000E0A4E7074A1168FD
:10291800491E116011B90648FEF700FDFFE7DDF812
:1029280000E005B0704700BF7080FF1F8080FF1F68
:042938006080FF1F9D
:1013240096B004464FF000004FF0000304F5E0715E
:1013340008310A68002A00F0438211680F46111D23
:101344000968884602F208010D685E1C02F20C016D
:10135400096801F00001002900F02B8202F20C015F
:10136400096801F00801002940F0268207F208010B
:1013740001F0070111B90021019108E007F2080109
:1013840001F00701C1F1080101F007010191019980
:10139400791814910B1D1A686FF0070102EA010114
:1013A4001591196801F00301012940F0F481159A9F
:1013B40014998B1807EB0802FC4901F0070111B9D5
:1013C4000021029107E0F94901F00701C1F1080188
:1013D40001F007010291029918311031511A8B4220
:1013E400C0F0DD811499139104F214010A68149970
:1013F400914209D104F214020021116004F208029E
:10140400002111602746D3E0139918310968099126
:1014140013990C310A6813998A4225D0139908311B
:101424000A68039213990C3109680A9104F21001B5
:1014340009688A4216D303990C310A6813998A42BF
:1014440010D10A9908310A6813998A420AD103997A
:1014540001F20C020A9911600A9901F20802039937
:101464001160FFE727462DE013991031091D0591FE
:1014740009680A9139B913991031059109680A91DB
:1014840009B927461EE033460A991031091D049113
:10149400096829B90A9910310491096801B905E06C
:1014A40004990591049909680A91EDE704F2100181
:1014B4000A680599914203D3002205990A60FFE75F
:1014C4001E4627460999002900F0728007F5987294
:1014D40013991C3109688900511808910A681399F5
:1014E400914211D10A9A08990A600899096851B978
:1014F4003B1D13991C310A684FF001019140CA4306
:1015040019681140196017E007F210010A68099977
:10151400914211D3099910310A6813998A4205D16D
:10152400099901F210020A99116004E00999103135
:101534000A1D0A991160FFE70A99002938D007F2B9
:1015440010010A680A99914232D30A9901F21802E9
:1015540009991160139910310968069181B107F254
:1015640010010A68069991420AD30A9901F21002FD
:1015740006991160069901F218020A991160FFE7B1
:1015840013991031091D0968079181B107F21001FF
:101594000A68079991420AD30A9910310A1D0799DA
:1015A4001160079901F218020A991160FFE7FFE739
:1015B4001599090A0B9111B9002112912CE00B9A8B
:1015C4004FF6FF718A4202D91F21129124E00B9930
:1015D400A1F58071090C01F008020B9901FA02F3DC
:1015E400A3F58051090C01F00401521803FA01F427
:1015F400A4F58041090C01F00203D118C1F10E02D7
:1016040004FA03F1C90B51184B00CA1D1599D140B6
:1016140001F001015918129107F598721299890085
:1016240051181191139901F21C0212991160139926
:1016340010310B460A1D0021116011681960391D13
:101644000B68129A4FF00101914003EA0101F1B9CC
:101654003B1D129A4FF0010101FA02F2196811437D
:101664001960139A11990A60139901F218021199D9
:101674001160139901F20803139901F20C021399F2
:1016840011601168196033462A4639467FE0119982
:1016940009680F9112991F2902D100210C9106E0CB
:1016A400129949080831891EC1F11F010C910C9A45
:1016B400159991401091009606462C463D46009897
:1016C4000F99091D0A686FF007010A4015998A42AB
:1016D4002DD00F9901F210021099C90F01F00101E8
:1016E400890052180D92109949001091116819B18E
:1016F4000D9909680F9119E005F210010A680D9916
:10170400914212D3139A0D990A60139901F21802A7
:101714000F991160139901F20803139901F20C0255
:1017240013991160116819602DE02CE02AE00F99DB
:10173400083109680E9105F210010A680F99914267
:101744001FD305F210010A680E99914219D30F991B
:1017540001F208030E9901F20C0213991160116849
:101764001960139901F208020E991160139901F29C
:101774000C020F991160139901F2180200211160F3
:1017840001E000E09CE703463046224629460093E8
:101794000B46009902E031462A46234602E03146D0
:1017A4002A4623461C460B46114601E00800000069
:1017B40001E03346294601E0334629460A46B9E5A5
:1017C40004F22002B3F1FF3F01D9194601E04FF0C2
:0817D400FF31116016B07047EF
:1039200087B0CDF800E003900493079C0794089CAF
:10393000089409980A9C00F230042568541EA400DB
:103940002D196FF0070405EA0404029404F007043B
:10395000002C40F2000400D1012444B90424A44600
:103960008CF31188BFF34F8FBFF36F8FFEE74FF0DB
:103970000009884603464A463C2A0FD203F2340423
:10398000A51808EB020424782C7008EB02042478B4
:1039900004B903E0541CA1464A46EDE703F234049F
:1039A00004F23B0500242C70079C402C02D33F24DA
:1039B0000794FFE703F22C05079C2C6003F27005C7
:1039C000079C2C6003F2740500242C601C1D0193DD
:1039D0002046FEF7DFFF019B03F218040193204607
:1039E000FEF7D8FF019B1C1D0C34236003F2180561
:1039F000079CC4F140042C6003F218040C342360CB
:103A000003F2780500242C6003F27C0500242C705E
:103A10001C4606940193049A03990298FFF71EFA34
:103A2000019B069C2060089C14B1089C2360FFE762
:083A3000DDF800E007B070476B
:0E29940081B000F210020021116001B0704706
:102E5C0081B0031F18461A60041F20464FF0807380
:102E6C002360031F18461960041F2046074B23607C
:102E7C00A0F2140318461A60041F20466FF00203D8
:102E8C002360A0F22003184601B07047D1700100F6
:002E9C0036
:104B140082B0CDF800E00190FEF72EFA01982F49FB
:104B240009684A1C2D490A602D49096859B92C495C
:104B340008602A490968012904D10190FDF7E6FAC1
:104B44000198FFE70FE02749096861B9244909681A
:104B54002C310A6800F22C0109688A4202D82049E3
:104B64000860FFE7FFE7204A1168491C116000F262
:104B74002C010A681D4909688A4204D900F22C01F3
:104B84000A681A490A60031D00F22C010A681421FC
:104B94004A4317498918019008461946FCF70CFA4C
:104BA400FEF77AF901980F49096891B10C4909682F
:104BB4002C310A6800F22C0109688A4208D24FF0AD
:104BC40080520C490A60BFF34F8FBFF36F8FFFE72A
:104BD400FFE7DDF800E002B0704700BF142CFF1FB0
:104BE400F42BFF1F182CFF1F1C2CFF1F0C2CFF1F66
:084BF400CC7AFF1F04ED00E084
:1021100082B0CDF800E04FF00002402A0AD214202D
:1021200000FB02F1104840180192FDF781FD019A71
:10213000521CF2E70D48FDF77BFD0D48FDF778FDD9
:102140000C48FDF775FD0C48FDF772FD0B48FDF7D7
:102150006FFD06490A48016005490A480160DDF83B
:1021600000E002B0704700BFCC7AFF1FE07FFF1F86
:10217000F47FFF1FB07AFF1FCC7FFF1F9C7AFF1FE9
:08218000C87AFF1FC47AFF1F9B
:0E70A00081B000BF102800D100BF01B07047C2
:1066240082B0CDF800E000218DF80410FEF7F4FEEE
:106634000020FEF713FFFEF7A5FCFFF7A7FC0122DD
:1066440052B236490A6036490A6036490A60FFF791
:106654008BFC9DF8041001438DF80410FFF77AF9C0
:106664009DF8041001438DF80410FFF721F89DF8FC
