:10000000FCFF022075210000E5200000E520000033
:10001000E5200000E5200000E5200000E5200000CC
:10002000E5200000E5200000E5200000E5200000BC
:10003000E5200000E5200000E5200000E5200000AC
:10004000E5200000E5200000E5200000E52000009C
:10005000E5200000E5200000E5200000E52000008C
:10006000E5200000E5200000E5200000E52000007C
:10007000E5200000E5200000E5200000E52000006C
:10008000E5200000E5200000E5200000E52000005C
:10009000E5200000E5200000E5200000E52000004C
:1000A000E5200000E5200000E5200000E52000003C
:1000B000E5200000E5200000E5200000E52000002C
:1000C000E5200000E5200000E520000005210000FB
:1000D000E5200000E5200000E5200000E52000000C
:1000E000E5200000E5200000E5200000E5200000FC
:1000F000E5200000E5200000E5200000E5200000EC
:10010000E5200000E5200000E5200000E5200000DB
:10011000E5200000E5200000E5200000E5200000CB
:10012000E5200000E5200000E5200000E5200000BB
:10013000E5200000E5200000E5200000E5200000AB
:10014000E5200000E5200000E5200000E52000009B
:10015000E5200000E5200000E5200000E52000008B
:10016000E5200000E5200000E5200000E52000007B
:10017000E5200000E5200000E5200000E52000006B
:10018000E5200000E5200000E5200000E52000005B
:08019000E5200000E52000005D
:1021740081B000F099F8FFF7B7FF05F0F1FB00F02C
:1021840037FB05F09FFB00213348017000213348E1
:102194000170002132480170002132480170002191
:1021A40031480170002131480170FFF711FE3048B9
:1021B40000224FF6FF71FFF76FFC2E48002200212A
:1021C400FFF708FC2C4801B440F2000340F200027F
:1021D40040F200012948FFF767FF01B02848FFF7E4
:1021E400D1FD0D20FFF7F6FA0A20FFF7F3FAFFF707
:1021F400A9FB40F23300FFF769FB2248007840F066
:10220400200120480170FFF7A5FBFFF77BFC1E4867
:10221400007800B9FBE71D48042212B21C49FFF7FD
:1022240027FBA0B91B481C49FFF73CFB28B91B49F5
:10223400086880F00100086009E019481649FFF7B2
:1022440031FB20B91749086880F001000860FEF7E7
:1022540091FCDCE7FEE700BF9700FF1FE904FF1FC6
:10226400EA04FF1F9500FF1FEB04FF1FEC04FF1F90
:102274000E70000008280000A077000038C101009B
:10228400F300FF1F03C006401C00FF1FF900FF1FDF
:102294000101FF1FD500FF1F0A01FF1F2C00FE4391
:0822A400FE00FF1F8C11FE4338
:0E19480081B0EFF3108C604662B601B07047BC
:1018D00081B0042806D11949096841F480321749BA
:1018E0000A6028E0052806D11449096841F400324D
:1018F00012490A601FE0062806D11049096841F420
:1019000080220E490A6016E00F2806D10C490968AA
:1019100041F002020A490A600DE010280BD3A0F240
:10192000100461098A0007498B1804F01F024FF068
:1019300001019140196001B0704700BF24ED00E043
:0819400010E000E000E100E00E
:1018600081B01CF8019B0BF8019BBBEB0A0FF8D170
:0418700001B070470C
:1018240081B04FF000094FF0000CBDEB0A0F04DC4F
:10183400BDEB0B0F01DBD446EA464BF8049BBBEB34
:101844000A0FFAD1BCEB0A0F05DDE246D9F800B065
:0A1854000BF1040BF1E701B070473F
:101DD40081B0CDF800E00321A64801700021A64897
:101DE40001604FF40051A548FFF7E6FA4FF40041B3
:101DF400A348FFF7E1FA4FF04001A248FFF7DCFAED
:101E04004FF48011A048FFF7D7FAA04AA049A1488F
:101E1400FFF748FB012149B29F4801609F480160D8
:101E24009F480160FFF716FAFFF728FA002149B22C
:101E34009C480160FFF722FA012149B299480160E8
:101E4400FFF71CFAFFF710FA0121FD20FFF7A0FCB1
:101E540008B102200AE100211220FFF799FC08B121
:101E6400022003E10121FD20FFF792FC08B10220CA
:101E7400FCE00021B120FFF78BFC08B10220F5E063
:101E84000121AE20FFF784FC08B10220EEE001211D
:101E9400B320FFF77DFC08B10220E7E00021F12028
:101EA400FFF776FC08B10220E0E00121CA20FFF729
:101EB4006FFC08B10220D9E000215F20FFF768FC25
:101EC40008B10220D2E00121A020FFF761FC08B193
:101ED4000220CBE000216020FFF75AFC08B1022069
:101EE400C4E001211520FFF753FC08B10220BDE036
:101EF40000210020FFF74CFC08B10220B6E00021CD
:101F04005F20FFF745FC08B10220AFE001217520F6
:101F1400FFF73EFC08B10220A8E000210020FFF7F3
:101F240037FC08B10220A1E000215F20FFF730FC5C
:101F340008B102209AE00121A120FFF729FC08B191
:101F4400022093E000218020FFF722FC08B1022048
:101F54008CE00121A220FFF71BFC08B1022085E0E0
:101F640000216020FFF714FC08B102207EE001216B
:101F7400B120FFF70DFC08B1022077E001213220E7
:101F8400FFF706FC08B1022070E00121BE20FFF734
:101F9400FFFB08B1022069E001210520FFF7F8FBEF
:101FA40008B1022062E00121A620FFF7F1FB08B18D
:101FB40002205BE00121C120FFF7EAFB08B1022007
:101FC40054E000218A20FFF7E3FB08B102204DE032
:101FD40000215120FFF7DCFB08B1022046E000217C
:101FE4008A20FFF7D5FB08B102203FE00121C7207A
:101FF400FFF7CEFB08B1022038E00021CF20FFF725
:10200400C7FB08B1022031E00121B420FFF7C0FB77
:1020140008B102202AE00021A020FFF7B9FB08B193
:10202400022023E00021B520FFF7B2FB08B1022013
:102034001CE000215520FFF7ABFB08B1022015E09E
:102044000121B620FFF7A4FB08B102200EE0002115
:102054000120FFF79DFB08B1022007E00121AF201A
:10206400FFF796FB08B1022000E00020DDF800E055
:1020740001B07047064DFF1F084DFF1F80F00F4051
:10208400C0F00F4000F10F4040F00F4034770000E3
:102094000700008680A81201980A9442180B944203
:0820A400980B94421820FE4342
:1013BC0081B0CDF800E0034AFFF736FEDDF800E01F
:0813CC0001B0704704010400A8
:1010340081B0CDF800E0FFF771FCDDF800E001B00D
:021044007047F3
:1009200083B0CDF800E006460C4615463046FFF78A
:10093000DBFD40F2FF1306EA030080090026224691
:100940002946202E39D24FF0010303FA06F402EAB9
:1009500004031F46A3422ED104031A4B1C19B300F3
:10096000E51801952C68184B04EA03032B60174B1C
:1009700001EA0304019B1B6843EA0404019B1C6019
:1009800001F48033B3F5803F15D08401104B1B195F
:100990001433029301F400333BB1FC43029B1B6808
:1009A00003EA0404029B1C6005E0029B1B6843EA07
:1009B0000704029B1C60761CC3E7DDF800E003B06F
:1009C000704700BF009004400000FFFFFFFF0000E1
:0409D00000F00F40E4
:1004E80081B040F2FF1100EA01018909084600F2D3
:1004F80009024FF0010101FA02F20449096841EAD0
:10050800020202490A6001B0704700BF3880044007
:00051800E3
:1014A80081B0CDF800E003460C4615460648FFF724
:1014B8004FFE224619462B460348FFF7D1FDDDF8BB
:0C14C80000E001B0704700BF00C00A4007
:1011580081B00F49884206D10E4A0F490A600F4AEA
:101168000F490A6012E00F49884206D10E4A0A491F
:101178000A600E4A0A490A6008E00D49884205D10A
:101188000C4A05490A600C4A05490A6001B07047D3
:1011980000C00240950E0000104DFF1FFFFFFFFF2B
:1011A800144DFF1F00D00240ED0E0000FFFFFFFFAF
:0C11B80000C00A4049100000FFFFFFFFCC
:1010680084B0CDF800E0039101461046019002914A
:101078001846FFF771FA0299019800F01004240944
:101088002746019002910846FFF742FA0299029119
:101098000846FFF787FA0299019800F000450C68A6
:1010A8002C430C6000F080450C682C430C600C68E5
:1010B80044F440540C600D686FF4804405EA04045D
:1010C8000C6001F20C05BC002E1900F00F05346805
:1010D8002C43346001F20C05BC002E1900F0806529
:1010E80034682C43346001F20C05BC002E1900F062
:1010F800007534682C43346001F20C05BC002E19CD
:1011080000F0807534682C43346001F20C05BC0093
:101118002E1935686FF0F04405EA0404346001F2D2
:101128000C05BC002E1900F00F04E50634682C43AA
:1011380034600191039A0846F9B2FFF78FFA0199D2
:0E1148000846FFF729FBDDF800E004B0704711
:1005600081B0CDF800E040F2000C83464FEA8C01E8
:100570000BEB01010968B1F1FF3F12D00BF134011F
:100580004FEA8C03C91809680A460BEB0301096896
:1005900008461146FFF77CFF0CF1010C1FFA8CFC9A
:0A05A000E4E7DDF800E001B0704769
:1004900082B0CDF800E080464FEA581202F0070221
:1004A000914608F01F04A24693010D4AD3184FF05D
:1004B0000102A240019218460A46019900F0BAFDD5
:1004C0004FEA0933074AD3184FEA8A029C1808F406
:1004D000E06322681A432260DDF800E002B0704752
:0804E00000F00F400090044001
:1005180081B00B49884203D1012252B209490A60CD
:100528000949884203D1012252B208490A600849A0
:10053800884203D1012252B206490A6001B07047CD
:1005480000C00240B007904200D00240B407904279
:0805580000C00A403006904289
:1005AC0081B002686FF4804102EA010101600168C8
:1005BC0041F00101016000F22C031A68124942EA71
:1005CC000101196000F208020021116000F20C0216
:1005DC004FF0F041116000F210024FF0F041116049
:1005EC0000F230020021116000F23402002111608F
:1005FC00016841F440610160026844F2010142EA81
:0C060C000101016001B0704700000A9A73
:1006640091B0CDF800E00F9010468DF840100E9038
:1006740001AB1846FFF7D2FE4FF0FF330D93002372
:1006840006930023089301230A9300230B9300236A
:100694000593059B042B41D20D9B002B3ED00023D8
:1006A4000793079B102B35D20D9B002B32D00123CF
:1006B4000993099B032B29D20D9B3BB3099C029BF5
:1006C40003FB04F6059B9C00314B1B191D68079B1B
:1006D4009C00304B1B191B686B43B6FBF3F420469C
:1006E4000E9BA3420ED30E9B1C1A0C940D9BA3428B
:1006F40008D90C9B0D93059B0693079B08930B90BD
:10070400099B0A93099B5B1C0993D2E7079B5B1C1B
:100714000793C6E7059B5B1C0593BAE70F9B03F29F
:100724000C049DF840309B00E5182C681A4B04EA31
:1007340003032B600F9B03F20C049DF840309B00D5
:10074400E5180A9B5B1EDC072B6823432B600F9B79
:1007540003F20C049DF840309B00E518069B1B0433
:1007640003F440342B6823432B600F9B03F20C04E7
:100774009DF840309B00E518089B03F00F042B689C
:1007840023432B600B98DDF800E011B0704700BFE5
:0C079400B878000078780000F0FFFC7FCF
:1004200081B0CDF800E00446FFF7F2FF40F2E8317A
:1004300000FB01F3154909680A0F1449096801F026
:100440007061090EC8B21149096801F47001090D03
:10045000CDB20E49096801F47021090CCEB2D1B2B7
:1004600003FA01F10F462360221D27FA00F1116003
:1004700004F2080227FA05F1116004F20C0227FACF
:1004800006F11160DDF800E001B0704744800440DF
:000490006C
:1004100081B00248006801B0704700BF0C4DFF1F5B
:00042000DC
:1007A00081B002686FF0010102EA0101016001B04D
:0207B000704790
:1012580081B0002149B20248016001B0704700BF67
:041268003410FE43FD
:1012800081B049F63E47C0F2000700BF00BF7F1E95
:0C129000FDD100BF00BF00BF01B07047DF
:10126C0081B0012149B20248016001B0704700BF52
:04127C003410FE43E9
:1017940081B0CDF800E021B100235BB20B4A1360A5
:1017A40003E001235BB2094A136000235BB2084AD9
:1017B4001360C0B2FFF746FC01235BB2044A136016
:1017C4000020DDF800E001B0704700BF3C18FE4384
:0417D4005008FE4378
:1010480081B0CDF800E082B24FF080610348FFF72D
:10105800EFFADDF800E001B0704700BF00C00A40B9
:0010680088
:1006380081B000F22C04236843F00043236000F2E9
:10064800340493B241EA0303236000F22C031C68CC
:0C065800C4F3C07303B9F8E701B07047A9
:101A9C0081B0124B1860831C1C78C31C1B781B0272
:101AAC009BB2E4180E4B1C80031D1C78431D1B7845
:101ABC001B029BB2E4180B4B1C80831D1C780A4B39
:101ACC001C800A4B19800A4B1A700124094B1C709C
:101ADC000024094B1C7001B0704700BFF04CFF1F75
:101AEC00EE4CFF1FF44CFF1FF64CFF1FF84CFF1F72
:0C1AFC00ED4CFF1F9600FF1FFA4CFF1F6F
:1019D80082B0CDF800E05FFA81FA5FFA82FB014637
:1019E8008C1C2378D9B2641C23781B029BB2CB18B9
:1019F8001FFA83FC641C2178C9B2631C1B781B0284
:101A08009BB2CB189BB299B20AEB03039BB25B1E45
:101A18009BB2602B0ED8BAF1000F0BD30BEB0C0363
:101A28009BB25B1E9BB2602B04D8BBF1000F01D3A5
:101A3800002300E0012303B10BE001FB0CF4831D3C
:101A4800ADF80410A2B219461148FFF7CDFEBDF853
:101A58000410ADF804105FFA8CF3CAB25FFA8BF188
:101A68005FFA8AF0FFF76EFDBDF8041001FB0CF376
:101A78009BB25B009BB299B20548FFF757FE08B1CD
:101A8800022000E00020DDF800E002B0704700BF4F
:041A9800ED04FF1F3B
:1017F00081B093B20A4600211446024698B2814253
:101800000DD223781B021380631C1D461C7813889D
:1018100023431380921C6B1C1C46491CEFE701B04C
:0218200070470F
:10154C0081B0CDF800E000F21004E6B2CCB2E5B206
:10155C005FFA82F8DFB240F200090121152000F099
:10156C0013F949EA00095FFA89F90021F0B200F099
:10157C000BF949EA00095FFA89F9A8F1010424B2D0
:10158C00341924B2002120B200F0FEF849EA000917
:10159C005FFA89F90121752000F0F6F849EA000993
:1015AC005FFA89F90021E8B200F0EEF849EA000987
:1015BC005FFA89F97C1E24B22C1924B2002120B2C6
:1015CC0000F0E2F849EA0004E4B2002C00D100E09B
:0A15DC00C1E7DDF800E001B0704740
:1017340081B0CDF800E005460E4601215C2000F0A2
:1017440027F808B102201AE001235BB20E4A1360A5
:1017540000235BB20D4A1360284605463046034613
:10176400421E164633B12A7890B2FFF76BFC6D1C0B
:101774003046F4E701235BB2044A13600020DDF82D
:1017840000E001B0704700BF3C18FE435008FE4320
:0017940055
:1020AC0081B0CDF800E09FB203468DB296B2DDF858
:1020BC0004800848FFF792FA4446AAB21946B3B214
:1020CC00044810B480B4FFF7FFF902B0DDF800E06B
:0820DC0001B0704700C006408E
:1015E80081B0304988420CD12F4A30490A60304ACC
:1015F80030490A60304A31490A60314A31490A6043
:101608004EE0314988420CD1304A28490A60304AB4
:1016180028490A602F4A29490A602F4A29490A603D
:101628003EE02E4988420CD12D4A20490A602D4AB5
:1016380020490A602C4A21490A602C4A21490A603B
:101648002EE02B4988420CD12A4A18490A602A4AB6
:1016580018490A60294A19490A60294A19490A6039
:101668001EE0284988420CD1274A10490A60274AB7
:1016780010490A60264A11490A60264A11490A6037
:101688000EE0254988420BD1244A08490A60244AB9
:1016980008490A60234A09490A60234A09490A6035
:1016A80001B0704700A00640D10E0000184DFF1F82
:1016B800FD110000204DFF1F15120000244DFF1FD3
:1016C800650A00001C4DFF1F00B00640B50E000063
:1016D800950A00007D0A0000DD0A000000C00640EF
:1016E800310E0000C50A0000AD0A00004D0A0000D6
:1016F80000D00640450B0000D5090000ED090000A8
:10170800350A000000A00E40290B00001D0A000049
:10171800050A0000F50A000000B00E400D0B00009D
:0C1728007D0E0000650E00004D0E00005C
:1014D40085B0CDF800E001900291ADF80C20ADF894
:1014E4001030BDF81440ADF814400698FFF736F8F4
:1014F4000198FFF709FD02990198FFF74FFDBDF828
:101504000C100198FFF784FDBDF810100198FFF747
:1015140057FEBDF814100198FFF78EFE0198FFF7EF
:1015240091FE0198FFF780FEDDF800E005B07047FA
:00153400B7
:100F0C0081B01849884204D1012252B216490A60B4
:100F1C0026E01649884204D1012252B214490A60D3
:100F2C001EE01449884204D1012252B212490A60CF
:100F3C0016E01249884204D1012252B210490A60CB
:100F4C000EE01049884204D1012252B20E490A60C7
:100F5C0006E00E49884203D1012252B20C490A60C4
:100F6C0001B0704700A00640A806904200B00640B1
:100F7C00AC06904200C00640B006904200D006403D
:100F8C00B406904200A00E402805904200B00E40DE
:040F9C002C0590424E
:100FA00085B0CDF800E08046894601AA1046FFF7DB
:100FB00037FA164A904503D0154A904500D001E013
:100FC000019800E002984FEA0912B0FBF2F291B2E8
:100FD00092B2130A9BB298F800201A4388F80020B6
:100FE00008F10103CAB21A7043014FEA0912B3FBB8
:100FF000F2F34A0192B29A1AD0B208F10A031A78AF
:1010000002431A70DDF800E005B0704700A006400A
:0410100000B00640E6
:1010140081B0841C23784FF6EF7212B203EA020205
:101024002270841C0B0122781A43227001B070478D
:00103400BC
:1011C40081B001F0020262B1841C01F002032278B2
:1011D4001A432270841C01F0010322781A432270FE
:1011E40007E0841C23784FF6FD7212B203EA020270
:0611F400227001B07047FB
:0C123C0081B002780A43027001B07047D4
:1012480081B0C21C117841F00401117001B07047DF
:0012580096
:10122C0081B0C21C117841F00801117001B07047F7
:00123C00B2
:101D880083B0CDF800E0029000218DF8051002998B
:101D980009788DF804109DF8041099B1FFF7C6FB77
:101DA80000B9FBE79DF80400FFF712FD9DF8051048
:101DB8004A1CD2B28DF805200299891809788DF845
:0C1DC8000410E8E7DDF800E003B070470D
:1015340081B0CDF800E0034C2468A047DDF800E05A
:0815440001B070471C4DFF1FB0
:1011FC0081B0CDF800E00348FFF760FBDDF800E0BC
:08120C0001B0704700A006408C
:1008C80081B0011D0A78C2F3401101B9F9E7C11DD1
:0808D8000978C8B201B07047B5
:1012140081B0CDF800E00348FFF770FBDDF800E093
:0812240001B0704700A0064074
:0E09000081B0011D0978C1F3401001B07047AD
:100A640081B0CDF800E00348FFF750FFDDF800E067
:080A740001B0704700A006402C
:0E09100081B0011D0978C1F3801001B070475D
:100A940081B0CDF800E00348FFF714FFDDF800E073
:080AA40001B0704700B00640EC
:100A7C0081B0CDF800E00348FFF73CFFDDF800E063
:080A8C0001B0704700B0064004
:100ADC0081B0CDF800E00348FFF714FFDDF800E02B
:080AEC0001B0704700B00640A4
:100AC40081B0CDF800E00348FFF7FCFEDDF800E05C
:080AD40001B0704700C00640AC
:100AAC0081B0CDF800E00348FFF724FFDDF800E04B
:080ABC0001B0704700C00640C4
:100A4C0081B0CDF800E00348FFF75CFFDDF800E073
:080A5C0001B0704700C0064024
:1009D40081B0CDF800E00348FFF774FFDDF800E0D4
:0809E40001B0704700D006408D
:1009EC0081B0CDF800E00348FFF784FFDDF800E0AC
:0809FC0001B0704700D0064075
:100A340081B0CDF800E00348FFF768FFDDF800E07F
:080A440001B0704700D006402C
:100A1C0081B0CDF800E00348FFF750FFDDF800E0AF
:080A2C0001B0704700A00E406C
:100A040081B0CDF800E00348FFF778FFDDF800E09F
:080A140001B0704700A00E4084
:100AF40081B0CDF800E00348FFF708FFDDF800E01F
:080B040001B0704700A00E4093
:100E7C0081B0CDF800E00348FFF720FDDDF800E07D
:080E8C0001B0704700B00E40F8
:100E640081B0CDF800E00348FFF748FDDDF800E06D
:080E740001B0704700B00E4010
:100E4C0081B0CDF800E00348FFF75CFDDDF800E071
:080E5C0001B0704700B00E4028
:1017D80081B0CDF800E0034C2468A047DDF800E0B4
:0817E80001B07047184DFF1F0E
:100E940081B0CDF800E082B24FF080610348FFF7E3
:100EA400C9FBDDF800E001B0704700BF00C002409C
:000EB4003E
:100EEC0081B0CDF800E082B24FF080610348FFF78B
:100EFC009DFBDDF800E001B0704700BF00D0024060
:000F0C00E5
:100ED00081B0CDF800E081B20348FFF79DFBDDF85B
:0C0EE00000E001B0704700BF00A0064019
:1006180081B0ADF800100146BDF800000A1D13783E
:10062800C3F3C01202B9F9E7CA1D107001B07047D0
:00063800C2
:100EB40081B0CDF800E081B20348FFF7ABFBDDF869
:0C0EC40000E001B0704700BF00B0064025
:100E300081B0CDF800E081B20348FFF7EDFBDDF8AB
:0C0E400000E001B0704700BF00C0064099
:100B440081B0CDF800E081B20348FFF763FDDDF822
:0C0B540000E001B0704700BF00D0064078
:100B280081B0CDF800E081B20348FFF771FDDDF830
:0C0B380000E001B0704700BF00A00E40BC
:100B0C0081B0CDF800E081B20348FFF77FFDDDF83E
:0C0B1C0000E001B0704700BF00B00E40C8
:1019580081B0CDF800E04FF008011648FFF72AFDE6
:101968004FF400211348FFF725FD4FF008011248F6
:10197800FFF720FD4FF400611048FFF71BFD002220
:1019880052B20F4802600F480260012149B20E4866
:1019980001600E48026045F6FE17C0F2622700BFDC
:1019A80000BF7F1EFDD100BF00BF00BFDDF800E013
:1019B80001B0704740F00F4080F00F4000F00F403A
:1019C8002C00FE438C11FE430C08FE434C0AFE43D8
:0019D8000F
:101B080081B0CDF800E08D4850220521FFF79EFCFA
:101B18008B48FFF75BFCFFF769FC00B9FBE745F66C
:101B2800FE17C0F2622700BF00BF7F1EFDD100BFB5
:101B380000BF00BF8348FFF749FCFFF757FC00B917
:101B4800FBE745F6FE17C0F2622700BF00BF7F1E05
:101B5800FDD100BF00BF00BF40F2000001B4102358
:101B6800602250210020FFF795FB01B076485022F3
:101B78000F21FFF76BFC7548FFF728FCFFF736FCD1
:101B880000B9FBE745F6FE17C0F2622700BF00BFA9
:101B98007F1EFDD100BF00BF00BF6D48FFF716FCD8
:101BA800FFF724FC00B9FBE745F6FE17C0F26227F1
:101BB80000BF00BF7F1EFDD100BF00BF00BF40F2C5
:101BC800000001B41023602250210020FFF762FBBF
:101BD80001B0604850220C21FFF738FC5E4800F045
:101BE800CFF82220FFF7F4FD5C48006800F0C8F841
:101BF8002220FFF7EDFD2C20FFF7EAFD2220FFF75A
:101C0800E7FD5748006800F0BBF82220FFF7E0FD29
:101C18002C20FFF7DDFD3520FFF7DAFD2C20FFF73C
:101C2800D7FD3020FFF7D4FD0D20FFF7D1FD0A20A6
:101C3800FFF7CEFDFFF7DAFB00B9FBE745F6FE1725
:101C4800C0F2622700BF00BF7F1EFDD100BF00BFEA
:101C580000BF444800F094F82220FFF7B9FD42483D
:101C680000F08EF82220FFF7B3FD0D20FFF7B0FD3E
:101C78000A20FFF7ADFDFFF7B9FB00B9FBE745F612
:101C8800FE17C0F2622700BF00BF7F1EFDD100BF54
:101C980000BF00BF40F2000001B4102360225021B1
:101CA8000020FFF7F7FA01B0304850220A21FFF769
:101CB800CDFB2F4800F064F82C20FFF789FD2D4854
:101CC800006800F05DF80D20FFF782FD0A20FFF79D
:101CD8007FFDFFF78BFB00B9FBE745F6FE17C0F267
:101CE800622700BF00BF7F1EFDD100BF00BF00BF3D
:101CF80040F2000001B41023602250210020FFF7B9
:101D0800C9FA01B01C4850221E21FFF79FFB1B484F
:101D1800FFF75CFBFFF76AFB00B9FBE745F6FE1728
:101D2800C0F2622700BF00BF7F1EFDD100BF00BF09
:101D380000BFDDF800E001B0704700BF3200FF1FB0
:101D48004300FF1F4A00FF1F5600FF1F6500FF1FCB
:101D58007100FF1F7D00FF1F8B00FF1F9800FF1FF2
:101D68009C00FF1FA000FF1FAA00FF1FB600FF1F57
:101D7800C600FF1FD800FF1FDC00FF1FE600FF1F83
:001D88005B
:1014540083B0CDF800E00290602900D31DE0602A3B
:1014640000D31AE00023ADF8043088B291B2FFF73C
:1014740075FBBDF80440029B1B191B786BB1BDF8CA
:101484000440029B1B191B7898B2FFF7B1FBBDF80F
:1014940004305B1CADF80430EBE7DDF800E003B08A
:0214A40070478F
:100B600081B0034A1080034A118001B0704700BF72
:080B7000FE4CFF1FFC4CFF1FAF
:100BF40086B0CDF800E085B240F20001ADF81410E3
:100C040000218DF816107F49097849B97E490022E0
:100C1400084640F2000100F03FFF012279490A70C2
:100C24007A4909888D4200D2E7E0794909888D42E2
:100C340000D9E2E075490988691A89B28A0092B23A
:100C4400744C216808318B1893F800C0591C09783A
:100C5400CAB2991C097809025218D91C09780904E6
:100C6400521821460968891804916B49097821B101
:100C740069490978022900D064E068490A8800219A
:100C84008DF80D105FFA8CF390B265490A889DF8CF
:100C94000D1091424AD263490988ADF81410002618
:100CA40000218DF80C1082B25FFA83FC9DF80C10C1
:100CB400614530D24EB9049909788DF8161004991B
:100CC400491C04910126F0B200E0F0B29DF8161020
:100CD4000140C9B291B1544909888DF80400ADF8B6
:100CE4000620ADF80820BDF814008AB2BDF908103A
:100CF400FFF76CFDBDF806209DF80400BDF8141044
:100D0400491CADF814104100CEB29DF80C10491CDA
:100D14008DF80C10CAE7521C92B29DF80D10491CB4
:100D24008DF80D105FFA8CF390B2AEE73A4909786A
:100D340029B9BDF814104A1C3A490A8001E0374920
:100D440008805AE037490B8800218DF80D1098B2BD
:100D54005FFA8CF332490A889DF80D10914247D20C
:100D64002E490988ADF81410002600218DF80C10C6
:100D740082B25FFA83FC9DF80C1061452DD24EB906
:100D8400049909788DF816100499491C04910126D8
:100D9400F0B200E0F0B29DF816100140C9B279B18A
:100DA400214909888DF80400ADF8062010B28AB2F2
:100DB400BDF81410FFF70AFDBDF806209DF80400E5
:100DC400BDF81410491EADF814104100CEB29DF8C0
:100DD4000C10491C8DF80C10CDE7511C8BB29DF8FA
:100DE4000D10491C8DF80D1098B25FFA8CF3B1E721
:100DF400BDF814104A1E09490A80DDF800E006B067
:100E0400704700BF9600FF1F0E700000EE4CFF1FDE
:100E1400F44CFF1FF04CFF1FED4CFF1FFC4CFF1F59
:0C0E2400F64CFF1FFE4CFF1FF84CFF1F98
:1007D00082B0CDF800E00FFA80FA0FFA81FB0AF13F
:1007E00001031BB25B1E1BB2602B0EDCBAF1000FC3
:1007F0000BDB0BF101031BB25B1E1BB2602B04DC95
:10080000BBF1000F01DB002300E001230BB103204B
:1008100024E0ADF80420602360225FFA8BF15FFAD8
:100820008AF000F093FEBDF8043003F47F439BB2DE
:100830001C0AA4B2BDF8043003F0FF039BB21B02F4
:100840009BB244EA0303ADF8043001AB0221184621
:1008500000F070FF08B1022000E00020DDF800E0A9
:0408600002B070472B
:1013D40081B0CDF800E000F0D5FC0D2000F0FAF962
:0E13E4000A2000F0F7F9DDF800E001B07047D4
:1013F40081B0CDF800E01148007800B9FBE710484F
:1014040001461048FFF7D2FB60B90F4801460D486A
:10141400FFF7CCFB30B90D4801460A48FFF7C6FB7D
:1014240000B902E00120C6B201E00020C6B2FFF715
:10143400A1FBF0B2DDF800E001B070471C00FF1F13
:101444001D00FF1F0101FF1F2000FF1F2A00FF1FB7
:0014540098
:100BB00081B0CDF800E006460D46AEB132789AB16C
:100BC0002846FFF7F7FDC2B229463046FFF75EFE22
:100BD00008B9304609E02A78D3B2721CD9B210465F
:100BE000FFF740FE0646E8E70020DDF800E001B030
:020BF00070474C
:1007B40081B0014608460B460246401C117801B13F
:0C07C400FAE7C11A491E08B201B07047E4
:10088C0081B08DF8002002469DF80000C4B2431ED2
:10089C00D8B274B1137823B10C781378A34200D179
:1008AC0004E014780B78E31A18B204E0521C491CCB
:0A08BC00ECE7002000B201B0704725
:1008640081B08DF8001001469DF80000FFE70A787A
:10087400824201D1084605E00B46491C1A78002A39
:08088400F5D1002001B070471E
:100B780082B0CDF800E009480190008802B2002157
:100B88000748FFF7A9FE00210648017000210198D7
:100B98000180DDF800E002B0704700BF3000FF1FA1
:080BA8000101FF1F1C00FF1FEB
:1008E00081B013B20246C8B211461DB22CB26B1EC3
:1008F0001DB214B10870491CF8E7104601B07047EA
:00090000F7
:10129C0081B0CDF800E01FFA80FA1FFA81F995B2FF
:1012AC001FFA83F8BDF8046005FB08F4A4B2A7B2DA
:1012BC000AEB0504A4B2641EA4B2602C0ED8BAF1D9
:1012CC00000F0BD309EB0804A4B2641EA4B2602C6B
:1012DC0004D8B9F1000F01D3002400E001240CB1B3
:1012EC0003205DE00AF1100A1FFA8AFA0121152089
:1012FC0000F04AFA08B1022052E000211FFA8AF0ED
:10130C0000F042FA08B102204AE06C1EA4B20AEBCB
:10131C000404A4B20021A0B200F036FA08B10220F5
:10132C003EE00121752000F02FFA08B1022037E0D1
:10133C0000211FFA89F000F027FA08B102202FE0F3
:10134C00A8F10104A4B209EB0404A4B20021A0B2D8
:10135C0000F01AFA08B1022022E001215C2000F012
:10136C0013FA08B102201BE001256DB20E4C25606A
:10137C0000256DB20D4C256000203D4687B2AF4272
:10138C0009D2340AE0B2FFF759FEF0B2FFF756FE6D
:10139C007F1CBFB2F3E701256DB2044C2560002021
:1013AC00DDF800E001B070473C18FE435008FE43E6
:0013BC0031
:1018740081B0ADF800200246BDF9000004B2431E59
:1018840018B25CB114780B789C4204D014780B78AD
:10189400E31A18B204E0521C491CEFE7002000B21E
:0418A40001B07047D8
:1018A80081B00091014600980A7832B10B7802782D
:1018B800934202D1491C401CF6E70B7802789A1A29
:0618C80010B201B07047F0
:1022AC0090B072B697480190974802909748039067
:1022BC009748049097480590974806909748079040
:1022CC00974808909748099097480A9097480B9020
:1022DC0097480C90974998480D9098480E900D98F7
:1022EC0000F007000F9001F0010050B94CF22050A3
:1022FC00934908804DF62810088040F2D21191487D
:10230C0001800021904801609048007800F00100A5
:10231C00C0B258B18E48007800F00800C0B220B1AD
:10232C008B49087840F00800087021E08948006863
:10233C0040F00051874801608748006800F48070C5
:10234C00B0B9854801686FF4705001EA000040F4A0
:10235C004071814801608048006840F480717E487B
:10236C0001607D4801686FF4007001407A4801609B
:10237C00AA217A4801700D9800F0100058B97848DD
:10238C00007800F09F0176480170764800780128AB
:10239C0000D0FAE71BE00D9800F01000B8B10E99D0
:1023AC007148814208D960216D4801706D480078F0
:1023BC00802800D0FAE70AE06948007800F09F0115
:1023CC006748017067480078012800D0FAE7049943
:1023DC0066480160664801686FF44020014002982D
:1023EC0000F44020014362480160624801686FF4C8
:1023FC0040300140039800F4403001435D480160D7
:10240C000F9830B10F98012803D00F98022800D0F4
:10241C0064E0019800F0800050B9089800F040008A
:10242C0028B10B9800F00300002800D100E015E063
:10243C005148006840F400714F4801604F480168F2
:10244C004F4801404D480160069800F0040028B147
:10245C004C4801684A4801404A4801600A994A4878
:10246C000170059949480170059800F0040040B1CD
:10247C004748007800F01000C0B2002800D1F7E700
:10248C0006E04348007800F01000C0B200B1F8E755
:10249C004048007800F0BF01C9B2069800F0FD007A
:1024AC0001433C480170079800F0E0013A4800787D
:1024BC0000F01F00C0B20143374801700199374842
:1024CC0001700B99364801700F98022805D13148DC
:1024DC00007840F002012F480170BDE0019800F037
:1024EC00800020B90B9800F0030000B166E0224890
:1024FC00006840F4007120480160204801682048C1
:10250C0001404FE00000000000000C000000010042
:10251C000000140122000000240000000000000054
:10252C000200000046000000000000000000000057
:10253C00000000000000000007000000C0D40100F3
:10254C000E2005400020054008ED00E000F007409B
:10255C0002D007403C80044010D0034000E007400C
:10256C0001E0074003E0074080380100448004404C
:10257C0000700440048004403880044048900440BB
:10258C00FFF8FFFE4C900440084006400040064017
:10259C0006400640014006400340064000500640FD
:1025AC000C4006407F480160069800F0040028B1FA
:1025BC007D4801687D4801407B4801600A997C4850
:1025CC0001707C48007800F0BF01C9B2069800F099
:1025DC00FD000143774801700199774801700B9910
:1025EC00764801700F98072805D1059840F08001B6
:1025FC007348017002E0059971480170069800F06B
:10260C00040050B10B9800F0030030B96D4800780D
:10261C0000F00200C0B200B9F8E7059800F0040021
:10262C0040B16848007800F01000C0B2002800D11A
:10263C00F7E706E06348007800F01000C0B200B184
:10264C00F8E7079800F0E0015F48007800F01F0001
:10265C00C0B201435C480170089800F0BF015B48B0
:10266C000170099800F0BF0159480170089800F0FA
:10267C00400028B15548007840F0400153480170A3
:10268C000F98052806D14B48007840F002014948C4
:10269C0001701CE00F98062803D00F98072800D073
:1026AC0015E04B48007840F040014948017045481E
:1026BC00007800F04000C0B200B9F8E70F98072886
:1026CC0005D13F48007800F03F013D4801700F985C
:1026DC0018B10F98032800D029E03A48007800F090
:1026EC000C00C0B200B1F8E73A48006840F00101B4
:1026FC00384801600021384801608021374801606A
:10270C0005213748016001213448016033480068D5
:10271C0000F0800000B9F9E70021304801602D4835
:10272C0001686FF0010001402A4801602DE00F980C
:10273C00012803D00F98022800D008E02148007827
:10274C0000F00C00C0B2042800D0F7E71DE00F9891
:10275C00042806D00F98062803D00F98052800D01F
:10276C0008E01848007800F00C00C0B2082800D02F
:10277C00F7E70AE00F98072807D11248007800F015
:10278C000C00C0B20C2800D0F7E7164801686FF0B7
:10279C000F0001400C9800F00F000143114801603C
:1027AC0010B07047489004404C900440FFF8FFFE76
:1027BC000840064001400640005006400C400640D0
:1027CC0000400640064006400340064004400640D8
:1027DC0005400640388004400800044000000440D6
:0827EC00040004404880044091
:1027F40081B002490248016001B07047C0D40100B1
:042804000C4DFF1F59
:0820E40081B0FEE701B0704776
:1020EC0081B072B60349086840F47000086062B6AB
:0820FC0001B0704788ED00E01F
:1078C80000B5DFF824B0DFF824A0DFF824C0F9F70A
:1078D800C3FFDFF820B0DFF820A0DFF820C0F9F7F9
:1078E800BBFF00BD704700BF0000FF1F9700FF1FD0
:1078F8009D7600009800FF1F0101FF1F0C78000013
:007908007F
:1079640000B5DFF810B0DFF810A0F9F759FF00BD3B
:0C797400704700BF0000FF1F284DFF1FE0
:102104001548007815480178154801701AE01548FB
:102114000088012802D90121134801701BE01148ED
:102124000188124841180020087014E00D4A1188F3
:102134000E4841180A480078087010460088401C70
:10214400108008E0064800780A28E0D004480078A7
:102154000D28E4D0EAE7704704C0064007C00640F3
:10216400EB04FF1F3000FF1F1C00FF1F0101FF1FB6
:002174006B
:100400000000000000000000FFFFFFFF02FDFFFFF3
:1028080000106000600000000000000000000000F0
:1028180000000000000000000000000000000000B0
:1028280000000000000000000000000000000000A0
:102838000000000000000000000000000000000090
:102848000000000000000000000000000000000080
:102F1800FFFFFFFF000000000000FFFF00000000AF
:102F28000000FFFFFFFF0000FFFFFFFF0000FFFFA3
:102F3800FFFFFFFFFFFFFFFF0000FFFFFFFF000095
:102F48000000000000000000000000000000000079
:102F58000000000000000000000000000000000069
:102F68000000000000000000000000000000000059
:102F78000000000000000000000000000000000049
:102F88000000000000000000000000000000000039
:102F98000000000000000000000000000000000029
:102FA8000000000000000000000000000000000019
:102FB8000000000000000000000000000000000009
:102FC80000000000000000000000000000000000F9
:102FD800FFFFFFFF00000000FFFFFFFFFFFF0000F3
:102FE8000000FFFFFFFF0000000000000000FFFFDF
:102FF800FFFF0000000000000000000000000000CB
:1030080000000000000000000000000000000000B8
:1030180000000000000000000000000000000000A8
:103028000000000000000000000000000000000098
:103038000000000000000000000000000000000088
:103048000000000000000000000000000000000078
:103058000000000000000000000000000000000068
:103068000000000000000000000000000000000058
:103078000000000000000000000000000000000048
:103088000000000000000000000000000000000038
:10309800FFFFFFFF00000000FFFFFFFFFFFF000032
:1030A8000000FFFFFFFF0000FFFFFFFF0000FFFF22
:1030B800FFFF0000000000000000FFFFFFFF00000E
:1030C80000000000000000000000000000000000F8
:1030D80000000000000000000000000000000000E8
:1030E80000000000000000000000000000000000D8
:1030F80000000000000000000000000000000000C8
:1031080000000000000000000000000000000000B7
:1031180000000000000000000000000000000000A7
:103128000000000000000000000000000000000097
:103138000000000000000000000000000000000087
:103148000000000000000000000000000000000077
:10315800FFFFFFFF00000000FFFF0000FFFF00006F
:103168000000FFFFFFFF0000FFFFFFFF0000FFFF61
:10317800FFFF0000000000000000FFFFFFFF00004D
:103188000000000000000000000000000000000037
:103198000000000000000000000000000000000027
:1031A8000000000000000000000000000000000017
:1031B8000000000000000000000000000000000007
:1031C80000000000000000000000000000000000F7
:1031D80000000000000000000000000000000000E7
:1031E80000000000000000000000000000000000D7
:1031F80000000000000000000000000000000000C7
:1032080000000000000000000000000000000000B6
:103218000000FFFFFFFFFFFFFFFF0000FFFFFFFFB2
:10322800FFFFFFFF00000000FFFFFFFF0000FFFFA0
:10323800FFFFFFFFFFFFFFFF0000FFFFFFFF000092
:103248000000000000000000000000000000000076
:103258000000000000000000000000000000000066
:103268000000000000000000000000000000000056
:103278000000000000000000000000000000000046
:103288000000000000000000000000000000000036
:103298000000000000000000000000000000000026
:1032A8000000000000000000000000000000000016
:1032B8000000000000000000000000000000000006
:1032C80000000000000000000000000000000000F6
:1032D8000000FFFFFFFFFFFFFFFF0000FFFFFFFFF2
:1032E800FFFFFFFF00000000FFFFFFFF0000FFFFE0
:1032F800FFFF0000000000000000FFFFFFFF0000CC
:1033080000000000000000000000000000000000B5
:1033180000000000000000000000000000000000A5
:103328000000000000000000000000000000000095
:103338000000000000000000000000000000000085
:103348000000000000000000000000000000000075
:103358000000000000000000000000000000000065
:103368000000000000000000000000000000000055
:103378000000000000000000000000000000000045
:103388000000000000000000000000000000000035
:103398000000FFFFFFFFFFFFFFFF0000FFFFFFFF31
:1033A800FFFFFFFF00000000FFFFFFFF0000FFFF1F
:1033B800FFFF0000000000000000FFFFFFFF00000B
:1033C80000000000000000000000000000000000F5
:1033D80000000000000000000000000000000000E5
:1033E80000000000000000000000000000000000D5
:1033F80000000000000000000000000000000000C5
:1034080000000000000000000000000000000000B4
:1034180000000000000000000000000000000000A4
:103428000000000000000000000000000000000094
:103438000000000000000000000000000000000084
:103448000000000000000000000000000000000074
:1034580000000000FFFFFFFF000000000000FFFF6A
:10346800FFFF000000000000FFFFFFFF0000FFFF5C
:10347800FFFF0000000000000000FFFFFFFF00004A
:103488000000000000000000000000000000000034
:103498000000000000000000000000000000000024
:1034A8000000000000000000000000000000000014
:1034B8000000000000000000000000000000000004
:1034C80000000000000000000000000000000000F4
:1034D80000000000000000000000000000000000E4
:1034E80000000000000000000000000000000000D4
:1034F80000000000000000000000000000000000C4
:1035080000000000000000000000000000000000B3
:1035180000000000FFFFFFFF000000000000FFFFA9
:10352800FFFF000000000000FFFFFFFF0000FFFF9B
:10353800FFFF0000000000000000FFFFFFFF000089
:103548000000000000000000000000000000000073
:103558000000000000000000000000000000000063
:103568000000000000000000000000000000000053
:103578000000000000000000000000000000000043
:1039780000000000000000000000FFFFFFFFFFFF45
:10398800FFFFFFFFFFFFFFFFFFFFFFFFFFFFFFFF3F
:10399800FFFFFFFFFFFFFFFFFFFFFFFFFFFFFFFF2F
:1039A800FFFFFFFFFFFFFFFFFFFFFFFFFFFFFFFF1F
:1039B800FFFFFFFFFFFFFFFFFFFFFFFFFFFFFFFF0F
:1039C800FFFFFFFFFFFFFFFFFFFFFFFFFFFFFFFFFF
:1039D800FFFF0000000000000000000000000000E1
:1039E80000000000000000000000000000000000CF
:1039F80000000000000000000000000000000000BF
:103A080000000000000000000000000000000000AE
:103A1800000000000000000000000000000000009E
:103A2800000000000000000000000000000000008E
:103A380000000000000000007DEFFFFF82108210F0
:103A48008210821082108210821000000000000094
:103A58000000000000008210821082108210821084
:103A680082108210821082108210821082108210BE
:103A780082108210821082108210821082108210AE
:103A8800821082108210821082108210821082109E
:103A9800FFFFFFFF00000000000000000000000022
:103AA800000000000000000000000000000000000E
:103AB80000000000000000000000000000000000FE
:103AC80000000000000000000000000000000000EE
:103AD80000000000000000000000000000000000DE
:103AE80000000000000000000000000000000000CE
:103AF8000000000000003CE7FFFF0000000000009D
:103B080000000000000000000000000000000000AD
:103B1800000000000000000000000000000000009D
:103B2800000000000000000000000000000000008D
:103B3800000000000000000000000000000000007D
:103B4800000000000000000000000000000000006D
:103B58000000FFFFFFFF0000000000000000000061
:103B6800000000000000000000000000000000004D
:103B7800000000000000000000000000000000003D
:103B8800000000000000000000000000000000002D
:103B9800000000000000000000000000000000001D
:103BA800000000000000000000000000000000000D
:103BB800000000000000FFFF0000000000000000FF
:103BC80000000000000000000000000000000000ED
:103BD80000000000000000000000000000000000DD
:103BE80000000000000000000000000000000000CD
:103BF80000000000000000000000000000000000BD
:103C080000000000000000000000000000000000AC
:103C180000000000FFFF000000000000000000009E
:103C2800000000000000000000000000000000008C
:103C3800000000000000000000000000000000007C
:103C4800000000000000000000000000000000006C
:103C5800000000000000000000000000000000005C
:103C6800000000000000000000000000000000004C
:103C7800000000000000FFFF00000000000000003E
:103C8800000000000000000000000000000000002C
:103C9800000000000000000000000000000000001C
:103CA800000000000000000000000000000000000C
:103CB80000000000000000000000000000000000FC
:103CC80000000000000000000000000000000000EC
:103CD80000000000FFFF00000000000000000000DE
:103CE80000000000000000000000000000000000CC
:103CF80000000000000000000000000000000000BC
:103D080000000000000000000000000000000000AB
:103D1800000000000000000000000000000000009B
:103D2800000000000000000000000000000000008B
:103D3800000000000000FFFF00000000000000007D
:103D4800000000000000000000000000000000006B
:103D5800000000000000000000000000000000005B
:103D6800000000000000000000000000000000004B
:103D7800000000000000000000000000000000003B
:103D8800000000000000000000000000000000002B
:103D980000000000FFFF000000000000000000001D
:103DA800000000000000000000000000000000000B
:103DB80000000000000000000000000000000000FB
:103DC80000000000000000000000000000000000EB
:103DD80000000000000000000000000000000000DB
:103DE80000000000000000000000000000000000CB
:103DF800000000000000FFFF0000000000000000BD
:103E080000000000000000000000000000000000AA
:103E1800000000000000000000000000000000009A
:103E2800000000000000000000000000000000008A
:103E3800000000000000000000000000000000007A
:103E4800000000000000000000000000000000006A
:103E580000000000FFFF000000000000000000005C
:103E6800000000000000000000000000000000004A
:103E7800000000000000000000000000000000003A
:103E8800000000000000000000000000000000002A
:103E9800000000000000000000000000000000001A
:103EA800000000000000000000000000000000000A
:103EB800000000000000FFFF0000000000000000FC
:103EC80000000000000000000000000000000000EA
:103ED80000000000000000000000000000000000DA
:103EE80000000000000000000000000000000000CA
:103EF80000000000000000000000000000000000BA
:103F080000000000000000000000000000000000A9
:103F180000000000FFFF000000000000000000009B
:103F28000000000000000000000000000000000089
:103F38000000000000000000000000000000000079
:103F48000000000000000000000000000000000069
:103F58000000000000000000000000000000000059
:103F68000000000000000000000000000000000049
:103F7800000000000000FFFF00000000000000003B
:103F88000000000000000000000000000000000029
:103F98000000000000000000000000000000000019
:103FA8000000000000000000000000000000000009
:103FB80000000000000000000000000000000000F9
:103FC80000000000000000000000000000000000E9
:103FD80000000000FFFF00000000000000000000DB
:103FE80000000000000000000000000000000000C9
:103FF80000000000000000000000000000000000B9
:1040080000000000000000000000000000000000A8
:104018000000000000000000000000000000000098
:104028000000000000000000000000000000000088
:10403800000000000000FFFF00000000000000007A
:104048000000000000000000000000000000000068
:104058000000000000000000000000000000000058
:104068000000000000000000000000000000000048
:104078000000000000000000000000000000000038
:104088000000000000000000000000000000000028
:1040980000000000FFFF000000000000000000001A
:1040A8000000000000000000000000000000000008
:1040B80000000000000000000000000000000000F8
:1040C80000000000000000000000000000000000E8
:1040D80000000000000000000000000000000000D8
:1040E80000000000000000000000000000000000C8
:1040F800000000000000FFFF0000000000000000BA
:1041080000000000000000000000000000000000A7
:104118000000000000000000000000000000000097
:104128000000000000000000000000000000000087
:104138000000000000000000000000000000000077
:104148000000000000000000000000000000000067
:1041580000000000FFFF0000000000000000000059
:104168000000000000000000000000000000000047
:104178000000000000000000000000000000000037
:104188000000000000000000000000000000000027
:104198000000000000000000000000000000000017
:1041A8000000000000000000000000000000000007
:1041B800000000000000FFFF0000000000000000F9
:1041C80000000000000000000000000000000000E7
:1041D80000000000000000000000000000000000D7
:1041E80000000000000000000000000000000000C7
:1041F80000000000000000000000000000000000B7
:1042080000000000000000000000000000000000A6
:1042180000000000FFFF0000000000000000000098
:104228000000000000000000000000000000000086
:104238000000000000000000000000000000000076
:104248000000000000000000000000000000000066
:104258000000000000000000000000000000000056
:104268000000000000000000000000000000000046
:10427800000000000000FFFF000000000000000038
:104288000000000000000000000000000000000026
:104298000842C739000000000000000000000000CC
:1042A8000000000000000000000000000000000006
:1042B80000000000000041088A5245290000000063
:1042C80000000000000000000000000000000000E6
:1042D80000000000FFFF00000000000000000000D8
:1042E80000000000000000000000000000000000C6
:1042F80000000000000000000000000000000000B6
:1043080000000000000000000000000000000000A5
:104318000000000000000000000000000000000095
:104328000000000000000000000000000000000085
:10433800000000000000FFFF000000000000000077
:1043480000000000000000000000000000000C63F6
:10435800FFFF3CE7821000000000000000000000A2
:104368000000000000000000000000000000000045
:10437800000000000000C739FFFF3CE7863100005D
:104388000000000000000000000000000000000025
:1043980000000000FFFF0000000000000000000017
:1043A8000000000000000000000000000000000005
:1043B80000000000000000000000000000000000F5
:1043C80000000000000000000000000000000000E5
:1043D80000000000000000000000000000000000D5
:1043E80000000000000000000000000000000000C5
:1043F800000000000000FFFF0000000000000000B7
:104408000000000000000000000000008A52BEF713
:10441800FFFF3084000000000000000000000000E2
:104428000000000000000000000000000000000084
:104438000000000000008210B6B5FFFFFBDE452932
:104448000000000000000000000000000000000064
:1044580000000000FFFF0000000000000000000056
:104468000000000000000000000000000000000044
:104478000000000000000000000000000000000034
:104488000000000000000000000000000000000024
:104498000000000000000000000000000000000014
:1044A8000000000000000000000000000000000004
:1044B800000000000000FFFF0000000000000000F6
:1044C8000000000000000000000045297DEFFFFF0C
:1044D800718C0000000004210000000000000000B2
:1044E80000000000000000000000000000000000C4
:1044F80000004108042100004108F7BDFFFF38C64D
:10450800410800000000000000000000000000005A
:1045180000000000FFFF0000000000000000000095
:104528000000000000000000000000000000000083
:104538000000000000000000000000000000000073
:104548000000000000000000000000000000000063
:104558000000000000000000000000000000000053
:104568000000000000000000000000000000000043
:10457800000000000000FFFF000000000000000035
:1045880000000000000000000000B6B5FFFFB6B54F
:1045980000000000718CBEF70C63000000000000F2
:1045A8000000000000000000000000000000000003
:1045B8000000F39C7DEFCB5A0000C318FBDEFFFF21
:1045C800CF7B000000000000000000000000000099
:1045D80000000000FFFF00000000000000000000D5
:1045E80000000000000000000000000000000000C3
:1045F80000000000000000000000000000000000B3
:1046080000000000000000000000000000000000A2
:104618000000000000000000000000000000000092
:104628000000000000000000000000000000000082
:10463800000000000000FFFF000000000000000074
:1046480000000000000000008A52FFFF3CE7042140
:1046580000008E73FFFFFFFF494A000000000000C2
:104668000000000000000000000000000000000042
:1046780000003084FFFFBEF708420000494AFFFFF0
:104688007DEF042100000000000000000000000091
:1046980000000000FFFF0000000000000000000014
:1046A8000000000000000000000000000000000002
:1046B80000000000000000000000000000000000F2
:1046C80000000000000000000000000000000000E2
:1046D80000000000000000000000000000000000D2
:1046E80000000000000000000000000000000000C2
:1046F800000000000000FFFF0000000000000000B4
:104708000000000000000000F7BDFFFFCF7B0000A5
:104718008631BEF7FFFF0C630000000000000000B8
:104728000000000000000000000000000000000081
:1047380000000000B294FFFFFBDE82100000B6B557
:10474800FFFF3084000000000000000000000000AF
:1047580000000000FFFF0000000000000000000053
:104768000000000000000000000000000000000041
:104778000000000000000000000000000000000031
:104788000000000000000000000000000000000021
:104798000000000000000000000000000000000011
:1047A8000000000000000000000000000000000001
:1047B800000000000000FFFF0000000000000000F3
:1047C8000000000000008631FFFF7DEFC3180000E5
:1047D800B6B5FFFFF39C0000410875AD34A541084C
:1047E800000000000000000000000000C31838C6E8
:1047F80030840000410879CEFFFFCF7B00000842DB
:10480800FFFFFBDE82100000000000000000000037
:1048180000000000FFFF0000000000000000000092
:104828000000000000000000000000000000000080
:104838000000000000000000000000000000000070
:104848000000000000000000000000000000000060
:104858000000000000000000000000000000000050
:104868000000000000000000000000000000000040
:10487800000000000000FFFF000000000000000032
:10488800000000000000CF7BFFFFF39C0000863192
:10489800FFFF7DEF04210000B294FFFFFBDE8210D2
:1048A8000000000000000000000000008631FFFF4B
:1048B800FFFFCB5A00008A52FFFFFBDE8210000088
:1048C800BAD6FFFF494A00000000000000000000BF
:1048D80000000000FFFF00000000000000000000D2
:1048E80000000000000000000000000000000000C0
:1048F80000000000000000000000000000000000B0
:10490800000000000000000000000000000000009F
:10491800000000000000000000000000000000008F
:10492800000000000000000000000000000000007F
:10493800000000000000FFFF000000000000000071
:10494800000000000000B6B5FFFFCB5A0000718CD4
:10495800FFFFF39C00008631BEF7BEF70842000057
:104968000000494A718C30848631000000008E7343
:10497800FFFFFBDE82104108BAD6FFFF494A00005C
:10498800B294FFFF30840000000000000000000027
:1049980000000000FFFF0000000000000000000011
:1049A80000000000000000000000000000000000FF
:1049B80000000000000000000000000000000000EF
:1049C80000000000000000000000000000000000DF
:1049D80000000000000000000000000000000000CF
:1049E80000000000000000000000000000000000BF
:1049F800000000000000FFFF0000000000000000B1
:104A08000000000041083CE7FFFF45290000F7BD12
:104A1800FFFF8A520000718CFFFFF39C000000002A
:104A2800718CFFFFFFFFFFFFBEF7CB5A0000410864
:104A380079CEFFFF8A520000718CFFFF718C000055
:104A48000C63FFFF75AD00000000000000000000CF
:104A580000000000FFFF0000000000000000000050
:104A6800000000000000000000000000000000003E
:104A7800000000000000000000000000000000002E
:104A8800000000000000000000000000000000001E
:104A9800000000000000000000000000000000000E
:104AA80000000000000000000000000000000000FE
:104AB800000000000000FFFF0000000000000000F0
:104AC80000000000C318BEF77DEF82104108FBDE2E
:104AD800FFFF4529000038C6FFFF494A0000494A40
:104AE800FFFFFFFFFFFFFFFFFFFF7DEFC318000081
:104AF8003084FFFFB2940000CB5AFFFF75AD000071
:104B08000842FFFF38C60000000000000000000057
:104B180000000000FFFF000000000000000000008F
:104B2800000000000000000000000000000000007D
:104B3800000000000000000000000000000000006D
:104B4800000000000000000000000000000000005D
:104B5800000000000000000000000000000000004D
:104B6800000000000000000000000000000000003D
:104B7800000000000000FFFF00000000000000002F
:104B8800000000004529FFFF3CE70000C3187DEF47
:104B98007DEFC3184108FBDEFFFF45290000718C3B
:104BA800FFFFFFFFFFFFFFFFFFFFFFFF8A5200002D
:104BB800CB5AFFFF75AD0000494AFFFFF7BD000063
:104BC800C739FFFFBAD64108000000000000000006
:104BD80000000000FFFF00000000000000000000CF
:104BE80000000000000000000000000000000000BD
:104BF80000000000000000000000000000000000AD
:104C0800000000000000000000000000000000009C
:104C1800000000000000000000000000000000008C
:104C2800000000000000000000000000000000007C
:104C3800000000000000FFFF00000000000000006E
:104C4800000000000421FFFF3CE7000082107DEF18
:104C58007DEF04210000BAD6FFFF45290000CF7B75
:104C6800FFFFFFFFFFFFFFFFFFFFFFFF494A0000B5
:104C78000C63FFFF75AD0000494AFFFFF7BD000058
:104C8800C739FFFF79CE410800000000000000008E
:104C980000000000FFFF000000000000000000000E
:104CA80000000000000000000000000000000000FC
:104CB80000000000000000000000000000000000EC
:104CC80000000000000000000000000000000000DC
:104CD80000000000000000000000000000000000CC
:104CE80000000000000000000000000000000000BC
:104CF800000000000000FFFF0000000000000000AE
:104D080000000000C318BEF77DEFC3184108BAD6EB
:104D1800FFFF86310000F7BDFFFFCB5A0000863148
:104D2800BEF7FFFFFFFFFFFFFFFFBAD682100000AC
:104D3800B294FFFF308400000C63FFFF34A500002D
:104D4800494AFFFFF7BD0000000000000000000016
:104D580000000000FFFF000000000000000000004D
:104D6800000000000000000000000000000000003B
:104D7800000000000000000000000000000000002B
:104D8800000000000000000000000000000000001B
:104D9800000000000000000000000000000000000B
:104DA80000000000000000000000000000000000FB
:104DB800000000000000FFFF0000000000000000ED
:104DC800000000004108FBDEFFFFC7390000B6B550
:104DD800FFFF0C6300008E73FFFFF7BD00000000AB
:104DE800CB5A3CE7FFFFFFFF79CE86310000C3189E
:104DF8003CE7FFFF08420000F39CFFFFCF7B000069
:104E08004D6BFFFFF39C0000000000000000000055
:104E180000000000FFFF000000000000000000008C
:104E2800000000000000000000000000000000007A
:104E3800000000000000000000000000000000006A
:104E4800000000000000000000000000000000005A
:104E5800000000000000000000000000000000004A
:104E6800000000000000000000000000000000003A
:104E7800000000000000FFFF00000000000000002C
:104E880000000000000075ADFFFF4D6B00008E7341
:104E9800FFFFB6B5000004217DEFFFFF4D6B00005A
:104EA8000000C3188A52494A41080000410834A545
:104EB800FFFFF7BD410882103CE7FFFFC73900003C
:104EC80034A5FFFF8E730000000000000000000002
:104ED80000000000FFFF00000000000000000000CC
:104EE80000000000000000000000000000000000BA
:104EF80000000000000000000000000000000000AA
:104F08000000000000000000000000000000000099
:104F18000000000000000000000000000000000089
:104F28000000000000000000000000000000000079
:104F3800000000000000FFFF00000000000000006B
:104F48000000000000004D6BFFFFB6B50000042113
:104F5800BEF7BEF7C73900000C63FFFF7DEF821074
:104F68000000000000000000000000008631FFFF84
:104F7800BEF7C73900004D6BFFFF79CE410882109C
:104F88003CE7FFFF86310000000000000000000041
:104F980000000000FFFF000000000000000000000B
:104FA80000000000000000000000000000000000F9
:104FB80000000000000000000000000000000000E9
:104FC80000000000000000000000000000000000D9
:104FD80000000000000000000000000000000000C9
:104FE80000000000000000000000000000000000B9
:104FF800000000000000FFFF0000000000000000AB
:105008000000000000000421BEF7BEF7452900009B
:10501800B294FFFF38C6410800004D6B4D6B00008D
:105028000000000000000000000000008210308432
:10503800494A000004213CE7FFFFCB5A00000C63FB
:10504800FFFF79CE410800000000000000000000CA
:1050580000000000FFFF000000000000000000004A
:105068000000000000000000000000000000000038
:105078000000000000000000000000000000000028
:105088000000000000000000000000000000000018
:105098000000000000000000000000000000000008
:1050A80000000000000000000000000000000000F8
:1050B800000000000000FFFF0000000000000000EA
:1050C800000000000000000034A5FFFFF39C000072
:1050D800C318FBDEFFFFB2940000000000000000D0
:1050E80000000000000000000000000000000000B8
:1050F8000000821038C6FFFFB6B50000410879CE1F
:10510800FFFF4D6B000000000000000000000000E1
:1051180000000000FFFF0000000000000000000089
:105128000000000000000000000000000000000077
:105138000000000000000000000000000000000067
:105148000000000000000000000000000000000057
:105158000000000000000000000000000000000047
:105168000000000000000000000000000000000037
:10517800000000000000FFFF000000000000000029
:1051880000000000000000008631BEF7FFFF084263
:105198000000494ABEF7FFFF0C6300000000000052
:1051A80000000000000000000000000000000000F7
:1051B800000034A5FFFFFBDE042100008E73FFFF13
:1051C800FBDE82100000000000000000000000006C
:1051D80000000000FFFF00000000000000000000C9
:1051E80000000000000000000000000000000000B7
:1051F80000000000000000000000000000000000A7
:105208000000000000000000000000000000000096
:105218000000000000000000000000000000000086
:105228000000000000000000000000000000000076
:10523800000000000000FFFF000000000000000068
:1052480000000000000000000000718CFFFFBAD6CB
:10525800C3180000CB5A38C60842000000000000FE
:105268000000000000000000000000000000000036
:1052780000008E7338C686310000C739BEF7FFFFBD
:105288008A5200000000000000000000000000003A
:1052980000000000FFFF0000000000000000000008
:1052A80000000000000000000000000000000000F6
:1052B80000000000000000000000000000000000E6
:1052C80000000000000000000000000000000000D6
:1052D80000000000000000000000000000000000C6
:1052E80000000000000000000000000000000000B6
:1052F800000000000000FFFF0000000000000000A8
:1053080000000000000000000000821079CEFFFFBE
:10531800F7BD82100000000000000000000000003F
:105328000000000000000000000000000000000075
:1053380000000000000000008631FBDEFFFFF39C48
:105348000000000000000000000000000000000055
:1053580000000000FFFF0000000000000000000047
:105368000000000000000000000000000000000035
:105378000000000000000000000000000000000025
:105388000000000000000000000000000000000015
:105398000000000000000000000000000000000005
:1053A80000000000000000000000000000000000F5
:1053B800000000000000FFFF0000000000000000E7
:1053C8000000000000000000000000004529FBDE8E
:1053D800FFFFB6B541080000000000000000000013
:1053E80000000000000000000000000000000000B5
:1053F8000000000000000421FBDEFFFFF7BD4108AC
:105408000000000000000000000000000000000094
:1054180000000000FFFF0000000000000000000086
:105428000000000000000000000000000000000074
:105438000000000000000000000000000000000064
:105448000000000000000000000000000000000054
:105458000000000000000000000000000000000044
:105468000000000000000000000000000000000034
:10547800000000000000FFFF000000000000000026
:10548800000000000000000000000000000086315D
:10549800FBDE79CE82100000000000000000000052
:1054A80000000000000000000000000000000000F4
:1054B80000000000000045297DEFF7BD82100000C4
:1054C80000000000000000000000000000000000D4
:1054D80000000000FFFF00000000000000000000C6
:1054E80000000000000000000000000000000000B4
:1054F80000000000000000000000000000000000A4
:105508000000000000000000000000000000000093
:105518000000000000000000000000000000000083
:105528000000000000000000000000000000000073
:10553800000000000000FFFF000000000000000065
:105548000000000000000000000000000000000053
:10555800821082100000000000000000000000001F
:105568000000000000000000000000000000000033
:105578000000000000000000C318410800000000FF
:105588000000000000000000000000000000000013
:1055980000000000FFFF0000000000000000000005
:1055A80000000000000000000000000000000000F3
:1055B80000000000000000000000000000000000E3
:1055C80000000000000000000000000000000000D3
:1055D80000000000000000000000000000000000C3
:1055E80000000000000000000000000000000000B3
:1055F800000000000000FFFF0000000000000000A5
:105608000000000000000000000000000000000092
:105618000000000000000000000000000000000082
:105628000000000000000000000000000000000072
:105638000000000000000000000000000000000062
:105648000000000000000000000000000000000052
:1056580000000000FFFF0000000000000000000044
:105668000000000000000000000000000000000032
:105678000000000000000000000000000000000022
:105688000000000000000000000000000000000012
:105698000000000000000000000000000000000002
:1056A80000000000000000000000000000000000F2
:1056B800000000000000FFFF0000000000000000E4
:1056C80000000000000000000000000000000000D2
:1056D80000000000000000000000000000000000C2
:1056E80000000000000000000000000000000000B2
:1056F80000000000000000000000000000000000A2
:105708000000000000000000000000000000000091
:1057180000000000FFFF0000000000000000000083
:105728000000000000000000000000000000000071
:105738000000000000000000000000000000000061
:105748000000000000000000000000000000000051
:105758000000000000000000000000000000000041
:105768000000000000000000000000000000000031
:10577800000000000000FFFF000000000000000023
:105788000000000000000000000000000000000011
:105798000000000000000000000000000000000001
:1057A80000000000000000000000000000000000F1
:1057B80000000000000000000000000000000000E1
:1057C80000000000000000000000000000000000D1
:1057D80000000000FFFF00000000000000000000C3
:1057E80000000000000000000000000000000000B1
:1057F80000000000000000000000000000000000A1
:105808000000000000000000000000000000000090
:105818000000000000000000000000000000000080
:105828000000000000000000000000000000000070
:10583800000000000000FFFF000000000000000062
:105848000000000000000000000000000000000050
:105858000000000000000000000000000000000040
:105868000000000000000000000000000000000030
:105878000000000000000000000000000000000020
:105888000000000000000000000000000000000010
:1058980000000000FFFF0000000000000000000002
:1058A80000000000000000000000000000000000F0
:1058B80000000000000000000000000000000000E0
:1058C80000000000000000000000000000000000D0
:1058D80000000000000000000000000000000000C0
:1058E80000000000000000000000000000000000B0
:1058F800000000000000FFFF0000000000000000A2
:10590800000000000000000000000000000000008F
:10591800000000000000000000000000000000007F
:10592800000000000000000000000000000000006F
:10593800000000000000000000000000000000005F
:10594800000000000000000000000000000000004F
:1059580000000000FFFF0000000000000000000041
:10596800000000000000000000000000000000002F
:10597800000000000000000000000000000000001F
:10598800000000000000000000000000000000000F
:1059980000000000000000000000000000000000FF
:1059A80000000000000000000000000000000000EF
:1059B800000000000000FFFF0000000000000000E1
:1059C80000000000000000000000000000000000CF
:1059D80000000000000000000000000000000000BF
:1059E80000000000000000000000000000000000AF
:1059F800000000000000000000000000000000009F
:105A0800000000000000000000000000000000008E
:105A180000000000FFFF0000000000000000000080
:105A2800000000000000000000000000000000006E
:105A3800000000000000000000000000000000005E
:105A4800000000000000000000000000000000004E
:105A5800000000000000000000000000000000003E
:105A6800000000000000000000000000000000002E
:105A7800000000000000FFFF000000000000000020
:105A8800000000000000000000000000000000000E
:105A980000000000000000000000000000000000FE
:105AA80000000000000000000000000000000000EE
:105AB80000000000000000000000000000000000DE
:105AC80000000000000000000000000000000000CE
:105AD80000000000FFFF00000000000000000000C0
:105AE80000000000000000000000000000000000AE
:105AF800000000000000000000000000000000009E
:105B0800000000000000000000000000000000008D
:105B1800000000000000000000000000000000007D
:105B2800000000000000000000000000000000006D
:105B3800000000000000FFFF00000000000000005F
:105B4800000000000000000000000000000000004D
:105B5800000000000000000000000000000000003D
:105B6800000000000000000000000000000000002D
:105B7800000000000000000000000000000000001D
:105B8800000000000000000000000000000000000D
:105B980000000000FFFF00000000000000000000FF
:105BA80000000000000000000000000000000000ED
:105BB80000000000000000000000000000000000DD
:105BC80000000000000000000000000000000000CD
:105BD80000000000000000000000000000000000BD
:105BE80000000000000000000000000000000000AD
:105BF800000000000000FFFF00000000000000009F
:105C0800000000000000000000000000000000008C
:105C1800000000000000000000000000000000007C
:105C2800000000000000000000000000000000006C
:105C3800000000000000000000000000000000005C
:105C4800000000000000000000000000000000004C
:105C580000000000FFFF000000000000000000003E
:105C6800000000000000000000000000000000002C
:105C7800000000000000000000000000000000001C
:105C8800000000000000000000000000000000000C
:105C980000000000000000000000000000000000FC
:105CA80000000000000000000000000000000000EC
:105CB800000000000000FFFFFFFF000000000000E0
:105CC80000000000000000000000000000000000CC
:105CD80000000000000000000000000000000000BC
:105CE80000000000000000000000000000000000AC
:105CF800000000000000000000000000000000009C
:105D0800000000000000000000000000000000008B
:105D18000000FFFFFFFF000000000000000000007F
:105D2800000000000000000000000000000000006B
:105D3800000000000000000000000000000000005B
:105D4800000000000000000000000000000000004B
:105D5800000000000000000000000000000000003B
:105D6800000000000000000000000000000000002B
:105D78000000000000000000FFFFFFFF000000001F
:105D8800000000000000000000000000000000000B
:105D980000000000000000000000000000000000FB
:105DA80000000000000000000000000000000000EB
:105DB80000000000000000000000000000000000DB
:105DC80000000000000000000000000000000000CB
:105DD800FFFFFFFF000000000000000000000000BF
:105DE80000000000000000000000000000000000AB
:105DF800000000000000000000000000000000009B
:105E0800000000000000000000000000000000008A
:105E1800000000000000000000000000000000007A
:105E2800000000000000000000000000000000006A
:105E380000000000000000000000FFFFFFFFFFFF60
:105E4800FFFFFFFFFFFFFFFFFFFFFFFFFFFFFFFF5A
:105E5800FFFFFFFFFFFFFFFFFFFFFFFFFFFFFFFF4A
:105E6800FFFFFFFFFFFFFFFFFFFFFFFFFFFFFFFF3A
:105E7800FFFFFFFFFFFFFFFFFFFFFFFFFFFFFFFF2A
:105E8800FFFFFFFFFFFFFFFFFFFFFFFFFFFFFFFF1A
:105E9800FFFF0000000000000000000000000000FC
:105EA80000000000000000000000000000000000EA
:105EB80000000000000000000000000000000000DA
:105EC80000000000000000000000000000000000CA
:105ED80000000000000000000000000000000000BA
:0670080000000000000082
:10700E00000020007F000D10038801000295010092
:10701E0003A2010007AF010005BC01000AC901006F
:10702E0007E3010001F0010003FD0100030A020065
:10703E00051702000724020002310200033E02007F
:10704E00024B0200035802000565020004720200A2
:10705E00057F0200058C02000599020005A60200BC
:10706E0005B3020005C0020005CD020005DA0200DC
:10707E0002E7020002F4020007010300070E0300FC
:10708E00071B03000428030009350300064F030005
:10709E00055C030006690300067603000583030002
:1070AE0005900300069D030006AA030003B7030024
:1070BE0004C4030005D1030004DE030007EB030044
:1070CE0006F803000705040005120400071F04005C
:1070DE00062C04000539040005460400065304007E
:1070EE0005600400096D0400058704000594040082
:1070FE0005A1040003AE040003BB040003C8040092
:10710E0007D5040006E2040003EF040005FC0400AA
:10711E0005090500041605000523050005300500C8
:10712E00033D0500054A05000557050001640500ED
:10713E0002710500057E0500018B0500079805000C
:10714E0005A5050005B2050005BF050005CC050027
:10715E0003D9050004E6050003F30500050006004B
:10716E00050D0600071A0600052706000534060061
:10717E0004410600044E0600025B06000468060089
:10718E0007750600038206000000000000000000E4
:10719E0000000000000000000202020202020002D3
:1071AE0000000000050505000000000000000000C2
:1071BE00000028287E14143F0A0A00000000040470
:1071CE001E05050E14140F040400000000000046F6
:1071DE000049002900260090015002480288010053
:1071EE00000000000000060909262911314E00009A
:1071FE00000001010100000000000000000000047A
:10720E000202010101010102020400000102020456
:10721E0004040404020201000004150E150400000B
:10722E0000000000000000000808087F08080800A1
:10723E000000000000000000000002020201000039
:10724E000000000000070000000000000000000029
:10725E00000000000202000000000404040202020A
:10726E0002020101010000000E1111111111110E87
:10727E000000000000040604040404040E000000D4
:10728E0000000E1110080402011F00000000000E85
:10729E0011100C1010110E0000000000080C0A094D
:1072AE001F08080800000000001F01010F10101138
:1072BE000E00000000000C02010F1111110E000053
:1072CE000000001F10080804040202000000000065
:1072DE000E11110E1111110E00000000000E1111F1
:1072EE00111E10080600000000000000020200003F
:1072FE000202000000000000000202000002020272
:10730E00010000000040300C020C30400000000074
:10731E00000000007F007F0000000000000000025F
:10732E000C3040300C020000000000070808040278
:10733E0002000200000000000000007C0082003904
:10734E0001250125012501F90002003C0000000085
:10735E0000000C0C1212123F212100000000000F41
:10736E0011110F1111110F00000000003C0201015C
:10737E000101023C00000000000F1121212121110A
:10738E000F00000000001F01010F0101011F00008E
:10739E000000001F01011F0101010100000000009B
:1073AE003C0201013921223C000000000021212174
:1073BE003F212121210000000000070202020202EB
:1073CE00020700000000000E080808080808070061
:1073DE00000000001109050303050911000000005B
:1073EE0000010101010101010F00000000006363B3
:1073FE005555494941410000000000232325252908
:10740E0029313100000000001C2241414141221C63
:10741E0000000000000F1111110F0101010000000A
:10742E0000001C2241414141221C10600000000F4F
:10743E001111110F09112100000000001E01010E93
:10744E001010100F00000000001F040404040404B8
:10745E00040000000000212121212121211E000015
:10746E000000001111110A0A0A04040000000000B5
:10747E00000000110111011101AA00AA00AA004486
:10748E000044000000000000000011110A04040A6C
:10749E001111000000000011110A0A040404040076
:1074AE00000000001F1008040402011F000000006D
:1074BE0007010101010101010101070000010101A4
:1074CE00020202020204040400000704040404047D
:1074DE000404040407000000081422410000000008
:1074EE0000000000000000000000000000003F004F
:1074FE000002040000000000000000000000000078
:10750E00000E101E11111E000000000101010F11CE
:10751E001111110F000000000000000E0101010109
:10752E000E000000001010101E111111111E00008F
:10753E0000000000000E111F01110E0000000006D9
:10754E000101070101010101000000000000001E01
:10755E00111111111E100E00000101010F11111158
:10756E0011110000000000010001010101010100E4
:10757E0000000000020003020202020202010000EB
:10758E0001010109050305091100000000010101B7
:10759E00010101010101000000000000003749490E
:1075AE00494949000000000000000F11111111118E
:1075BE00000000000000000E111111110E0000005D
:1075CE00000000000F111111110F01010000000049
:1075DE00001E111111111E101000000000000503F5
:1075EE0001010101000000000000000E01030C0863
:1075FE000700000000000101070101010106000063
:10760E00000000000011111111111E0000000000F9
:10761E00000011110A0A04040000000000000049D5
:10762E00495555222200000000000000110A0404F2
:10763E000A110000000000000011110A0A040402E1
:10764E000200000000000F080402010F00000000FD
:10765E0008040404040304040404080000020202E3
:10766E000202020202020202000001020202020CE7
:10767E000202020201000000000000464931000033
:10768E000000000000070505050505050700004878
:10769E00455849574541525F576946695F33003136
:0676AE00323334353600D2
:0676B40034303430000008
:1076BA004F4B006E6F206368616E6765007265618B
:1076CA006479000000526573657474696E67206D91
:0676DA006F64756C650091
:1076E00041542B5253540041542B43574D4F444562
:1076F0003D310053657420636F6E6E656374696F0E
:027700006E0019
:0C77020041542B4349504D55583D310077
:0C770E0041542B43574D4F44453D320081
:0E771A004D616B696E6720536F6674415000BD
:0A77280041542B43575341503D00DC
:02773200000055
:10773400350200003702000036020000FFFFFFFFA1
:107744000000000000000000000000000000000035
:107754000000000000000000000000000000000025
:1077640000000000000008000000080000000800FD
:10777400FFFFFFFF00000000000000000000000009
:1077840000000000000000000000000000000000F5
:0C779400000000000000000000000000E9
:1077A0006303000062030000FFFFFFFF0000000012
:1077B00000000000000000000000000000000000C9
:1077C00000000000000000000000000000000000B9
