:10000000FCFF022001100000210D0000210D000066
:10001000210D0000210D0000210D0000210D000028
:10002000210D0000210D0000210D0000210D000018
:10003000210D0000210D0000210D0000210D000008
:10004000210D0000210D0000210D0000210D0000F8
:10005000210D0000210D0000210D0000210D0000E8
:10006000210D0000210D0000210D0000210D0000D8
:10007000210D0000210D0000210D0000210D0000C8
:10008000210D0000210D0000210D0000210D0000B8
:10009000210D0000210D0000210D0000210D0000A8
:1000A000210D0000210D0000210D0000210D000098
:1000B000210D0000210D0000210D0000210D000088
:1000C000210D0000210D0000210D0000210D000078
:1000D000210D0000210D0000210D0000210D000068
:1000E000210D0000210D0000210D0000210D000058
:1000F000210D0000210D0000210D0000210D000048
:10010000210D0000210D0000210D0000210D000037
:10011000210D0000210D0000210D0000210D000027
:10012000210D0000210D0000210D0000210D000017
:10013000210D0000210D0000210D0000210D000007
:10014000210D0000210D0000210D0000210D0000F7
:10015000210D0000210D0000210D0000210D0000E7
:10016000210D0000210D0000210D0000210D0000D7
:10017000210D0000210D0000210D0000210D0000C7
:10018000210D0000210D0000210D0000210D0000B7
:08019000210D0000210D00000B
:1010000000F054F8FFF78EFEFFF73CFFFFF794FE69
:10101000FFF7F8FE4FF480611C48FFF751FE4FF0D8
:1010200010011B48FFF740FEFFF7E0FC19480022C3
:101030000021FFF779FC18480168184800788142C0
:1010400022D0154801681548017014E0012149B209
:1010500013480160134800220021FFF765FC13E0EC
:10106000012149B2104801600A4800220021FFF71F
:101070005BFC09E008E0094800780028E6D0074852
:1010800000780128ECD0F5E7D5E7FEE700F00F4047
:1010900080F00F40FA5D00001012FE430000FF1FB9
:0C10A000A800FE43F41500002801FE43E8
:100CD8001CF8019B0BF8019BBBEB0A0FF8D170477E
:000CE8000C
:100CE8004FF000094FF0000CBDEB0A0F04DCBDEB20
:100CF8000B0F01DBD446EA464BF8049BBBEB0A0F0B
:100D0800FAD1BCEB0A0F05DDE246D9F800B00BF1C9
:060D1800040BF1E7704737
:100CC00081B0CDF800E0034AFFF764FDDDF800E0F5
:080CD00001B0704704010400AB
:1007940081B0CDF800E080460A4B984503D20A4B5D
:1007A400984500D909E0074BA8EB030303F03F0386
:1007B40003B102E04046FFF7EDFEDDF800E001B0D2
:0C07C400704700BF00F00F4014F10F4020
:1005980083B0CDF800E006460C4615463046FFF716
:1005A800F9FE40F2FF1306EA0300800900262246FE
:1005B8002946202E39D24FF0010303FA06F402EA45
:1005C80004031F46A3422ED104031A4B1C19B3007F
:1005D800E51801952C68184B04EA03032B60174BA8
:1005E80001EA0304019B1B6843EA0404019B1C60A5
:1005F80001F48033B3F5803F15D08401104B1B19EB
:100608001433029301F400333BB1FC43029B1B6893
:1006180003EA0404029B1C6005E0029B1B6843EA92
:100628000704029B1C60761CC3E7DDF800E003B0FA
:10063800704700BF009004400000FFFFFFFF00006C
:0406480000F00F406F
:10039C0040F2FF1100EA01018909084600F2090246
:1003AC004FF0010101FA02F20349096841EA020225
:0C03BC0001490A60704700BF388004400F
:100CA80081B0CDF800E0034AFFF770FDDDF800E001
:080CB80001B0704704010200C5
:1009EC0081B0CDF800E00321A24801700021A2489B
:1009FC0001604FF40051A14800F05CF94FF4004144
:100A0C009F4800F057F94FF040019E4800F052F912
:100A1C004FF480119C4800F04DF99C4A9C499D482C
:100A2C00FFF766FFFFF77EFEFFF7D8FC002149B207
:100A3C0099480160FFF7D2FC012149B29648016048
:100A4C00FFF7CCFCFFF798FE0121FD20FFF772FEAB
:100A5C0008B102200AE100211220FFF76BFE08B159
:100A6C00022003E10121FD20FFF764FE08B1022002
:100A7C00FCE00021B120FFF75DFE08B10220F5E09B
:100A8C000121AE20FFF756FE08B10220EEE0012155
:100A9C00B320FFF74FFE08B10220E7E00021F12060
:100AAC00FFF748FE08B10220E0E00121CA20FFF761
:100ABC0041FE08B10220D9E000215F20FFF73AFE89
:100ACC0008B10220D2E00121A020FFF733FE08B1CB
:100ADC000220CBE000216020FFF72CFE08B10220A1
:100AEC00C4E001211520FFF725FE08B10220BDE06E
:100AFC0000210020FFF71EFE08B10220B6E0002105
:100B0C005F20FFF717FE08B10220AFE0012175202E
:100B1C00FFF710FE08B10220A8E000210020FFF72B
:100B2C0009FE08B10220A1E000215F20FFF702FEC0
:100B3C0008B102209AE00121A120FFF7FBFD08B1CA
:100B4C00022093E000218020FFF7F4FD08B1022081
:100B5C008CE00121A220FFF7EDFD08B1022085E019
:100B6C0000216020FFF7E6FD08B102207EE00121A4
:100B7C00B120FFF7DFFD08B1022077E00121322020
:100B8C00FFF7D8FD08B1022070E00121BE20FFF76D
:100B9C00D1FD08B1022069E001210520FFF7CAFD53
:100BAC0008B1022062E00121A620FFF7C3FD08B1C5
:100BBC0002205BE00121C120FFF7BCFD08B102203F
:100BCC0054E000218A20FFF7B5FD08B102204DE06A
:100BDC0000215120FFF7AEFD08B1022046E00021B4
:100BEC008A20FFF7A7FD08B102203FE00121C720B2
:100BFC00FFF7A0FD08B1022038E00021CF20FFF75D
:100C0C0099FD08B1022031E00121B420FFF792FDDB
:100C1C0008B102202AE00021A020FFF78BFD08B1CB
:100C2C00022023E00021B520FFF784FD08B102204B
:100C3C001CE000215520FFF77DFD08B1022015E0D6
:100C4C000121B620FFF776FD08B102200EE000214D
:100C5C000120FFF76FFD08B1022007E00121AF2052
:100C6C00FFF768FD08B1022000E00020DDF800E08D
:100C7C0001B070470A48FF1F0C48FF1F80F00F405F
:100C8C00C0F00F4000F10F4040F00F40480D000045
:0C0C9C0007000084C0E1E4001820FE43C3
:1008FC0081B0CDF800E003460C4615460648FFF7DC
:10090C0011FE224619462B460348FFF799FEDDF8E7
:0C091C0000E001B0704700BF00C00A40BE
:100530000E49884206D10E4A0E490A600E4A0F49FA
:100540000A6012E00E49884206D10E4A09490A6043
:100550000D4A0A490A6008E00C49884205D10C4A54
:1005600004490A600B4A05490A60704700C002400E
:10057000FFFFFFFF1448FF1FFFFFFFFF1848FF1F8B
:1005800000D00240FFFFFFFFFFFFFFFF00C00A4057
:08059000C9030000FFFFFFFF9B
:10064C0084B0CDF800E00391014610460190029170
:10065C001846FFF75BFE0299019800F0100424097C
:10066C002746019002910846FFF72EFE029902914F
:10067C000846FFF7F5FD0299019800F000450C685B
:10068C002C430C6000F080450C682C430C600C680B
:10069C0044F440540C600D686FF4804405EA040483
:1006AC000C6001F20C05BC002E1900F00F0534682B
:1006BC002C43346001F20C05BC002E1900F080654F
:1006CC0034682C43346001F20C05BC002E1900F088
:1006DC00007534682C43346001F20C05BC002E19F3
:1006EC0000F0807534682C43346001F20C05BC00BA
:1006FC002D196FF0F0442C6001F20C05BC002D1983
:10070C0000F00F04E4062C600191039A0846F9B23C
:10071C00FFF778FE01990846FFF71EFEDDF800E0B2
:04072C0004B070475E
:1003180082B0CDF800E0014600208C4681000CEB4D
:1003280001010968B1F1FF3F13D00CF134018300DA
:10033800C91809680A460CEB03010968ADF80400FE
:1003480008461146FFF72AFFBDF80400401C80B29A
:0A035800E4E7DDF800E002B07047B2
:1001A40082B0CDF800E081464FEA591202F007020E
:1001B400924609F01F04A34693010D4AD3184FF049
:1001C4000102A240019218460A46019900F0E0FAA1
:1001D4004FEA0A33074AD3184FEA8B029C1809F4F2
:1001E400E06322681A432260DDF800E002B0704741
:0801F40000F00F4000900440F0
:1002D4000A49884203D1012252B209490A600949F4
:1002E400884203D1012252B207490A600749884271
:1002F40003D1012252B206490A60704700C002408D
:10030400B007904200D00240B407904200C00A40B7
:0403140030069042DD
:10026C0002686FF4804102EA01010160016841F00B
:10027C000101016000F22C031A68124942EA0101E3
:10028C00196000F208020021116000F20C024FF01C
:10029C00F041116000F210024FF0F041116000F2D9
:1002AC0030020021116000F234020021116001685B
:1002BC0041F440610160026844F2010142EA01012B
:0802CC000160704700000A9A6E
:1004100091B0CDF800E00F9010468DF840100E908E
:1004200001AB1846FFF7EAFE4FF0FF330D930023B0
:1004300006930023089301230A9300230B930023C0
:100440000593059B042B41D20D9B002B3ED000232E
:100450000793079B102B35D20D9B002B32D0012325
:100460000993099B032B29D20D9B3BB3099C029B4B
:1004700003FB04F6059B9C002B4B1B191D68079B77
:100480009C002A4B1B191B686B43B6FBF3F42046F8
:100490000E9BA3420ED30E9B1C1A0C940D9BA342E1
:1004A00008D90C9B0D93059B0693079B08930B9013
:1004B000099B0A93099B5B1C0993D2E7079B5B1C72
:1004C0000793C6E7059B5B1C0593BAE70F9B03F2F6
:1004D0000C049DF840309B00E5180A9B5B1EDC076E
:1004E0002B6823432B600F9B03F20C049DF84030D4
:1004F0009B00E518069B1B0403F440342B68234340
:100500002B600F9B03F20C049DF840309B00E51814
:10051000089B03F00F042B6823432B600B98DDF836
:1005200000E011B0704700BFF40D0000B40D0000F2
:00053000CB
:1001FC0081B0CDF800E00446FFF7C8FF40F2E831CB
:10020C0000FB01F3154909680A0F1449096801F04C
:10021C007061090EC8B21149096801F47001090D29
:10022C00CDB20E49096801F47021090CCEB2D1B2DD
:10023C0003FA01F10F462360221D27FA00F1116029
:10024C0004F2080227FA05F1116004F20C0227FAF5
:10025C0006F11160DDF800E001B070474480044005
:00026C0092
:0C01980001480068704700BF1048FF1FBE
:0E03640002686FF0010102EA010101607047BA
:10073000002149B201480160704700BF3410FE43F8
:00074000B9
:1003E80049F63E47C0F2000700BF00BF7F1EFDD19F
:0803F80000BF00BF00BF704709
:10078400012149B201480160704700BF3410FE43A3
:0007940065
:1007400081B0CDF800E021B100235BB20B4A136009
:1007500003E001235BB2094A136000235BB2084A3D
:100760001360C0B2FFF730FE01235BB2044A13608E
:100770000020DDF800E001B0704700BF3C18FE43E8
:040780005008FE43DC
:1003C80081B0CDF800E082B24FF080610348FFF7BA
:1003D800CDFFDDF800E001B0704700BF00C00A4063
:0003E80015
:1003740000F22C04236843F00043236000F23404A9
:1003840093B241EA0303236000F22C031C68C4F314
:08039400C07303B9F8E77047DC
:1009280082B0CDF800E05FFA81FA5FFA82FB0146F7
:100938008C1C2378D9B2641C23781B029BB2CB1879
:100948001FFA83FC641C2178C9B2631C1B781B0244
:100958009BB2CB189BB299B20AEB03039BB25B1E06
:100968009BB2602B0ED8BAF1000F0BD30BEB0C0324
:100978009BB25B1E9BB2602B04D8BBF1000F01D366
:10098800002300E0012303B10BE001FB0CF4831DFD
:10099800ADF80410A2B219461148FFF715FFBDF8CB
:1009A8000410ADF804105FFA8CF3CAB25FFA8BF149
:1009B8005FFA8AF0FFF750FFBDF8041001FB0CF353
:1009C8009BB25B009BB299B20548FFF715FF08B1CF
:1009D800022000E00020DDF800E002B0704700BF10
:0409E8000100FF1FEC
:1007D00093B20A4600211446024698B281420DD2D5
:1007E00023781B021380631C1D461C781388234347
:0E07F0001380921C6B1C1C46491CEFE77047DF
:1008600081B0CDF800E000F21004E6B2CCB2E5B2FF
:100870005FFA82F8DFB240F2000901211520FFF78C
:100880005FFF49EA00095FFA89F90021F0B2FFF73A
:1008900057FF49EA00095FFA89F9A8F1010424B277
:1008A000341924B2002120B2FFF74AFF49EA0009B7
:1008B0005FFA89F901217520FFF742FF49EA000933
:1008C0005FFA89F90021E8B2FFF73AFF49EA000927
:1008D0005FFA89F97C1E24B22C1924B2002120B2BF
:1008E000FFF72EFF49EA0004E4B2002C00D100E03B
:0A08F000C1E7DDF800E001B0704739
:1008000081B0CDF800E005460E4601215C20FFF7DF
:1008100097FF08B102201AE001235BB20E4A136071
:1008200000235BB20D4A1360284605463046034656
:10083000421E164633B12A7890B2FFF7C5FD6D1CF3
:100840003046F4E701235BB2044A13600020DDF870
:1008500000E001B0704700BF3C18FE435008FE4363
:0008600098
:1010AC008FB072B69748009097480190974802907D
:1010BC009748039097480490974805909748069056
:1010CC0097480790974808909748099097480A9036
:1010DC0097480B90974998480C9098480D900C980D
:1010EC0000F007000E9001F0010050B94CF22050B6
:1010FC00934908804DF62810088040F2D21191488F
:10110C0001800021904801609048007800F00100B7
:10111C00C0B258B18E48007800F00800C0B220B1BF
:10112C008B49087840F00800087021E08948006875
:10113C0040F00051874801608748006800F48070D7
:10114C00B0B9854801686FF4705001EA000040F4B2
:10115C004071814801608048006840F480717E488D
:10116C0001607D4801686FF4007001407A480160AD
:10117C00AA217A4801700C9800F0100058B97848F0
:10118C00007800F09F0176480170764800780128BD
:10119C0000D0FAE71BE00C9800F01000B8B10D99E4
:1011AC007148814208D960216D4801706D48007802
:1011BC00802800D0FAE70AE06948007800F09F0127
:1011CC006748017067480078012800D0FAE7039956
:1011DC0066480160664801686FF440200140019840
:1011EC0000F44020014362480160624801686FF4DA
:1011FC0040300140029800F4403001435D480160EA
:10120C000E9830B10E98012803D00E98022800D009
:10121C0064E0009800F0800050B9079800F040009E
:10122C0028B10A9800F00300002800D100E015E076
:10123C005148006840F400714F4801604F48016804
:10124C004F4801404D480160059800F0040028B15A
:10125C004C4801684A4801404A48016009994A488B
:10126C000170049949480170049800F0040040B1E1
:10127C004748007800F01000C0B2002800D1F7E712
:10128C0006E04348007800F01000C0B200B1F8E767
:10129C004048007800F0BF01C9B2059800F0FD008D
:1012AC0001433C480170069800F0E0013A48007890
:1012BC0000F01F00C0B20143374801700099374855
:1012CC0001700A99364801700E98022805D13148F0
:1012DC00007840F002012F480170BDE0009800F04A
:1012EC00800020B90A9800F0030000B166E02248A3
:1012FC00006840F4007120480160204801682048D3
:10130C0001404FE0800000000000080000000100D8
:10131C000000440122000000240000000000000036
:10132C000200000046000000000000000000000069
:10133C00090000000000000007000000C0D40100FC
:10134C000E2005400020054008ED00E000F00740AD
:10135C0002D007403C80044010D0034000E007401E
:10136C0001E0074003E0074080380100448004405E
:10137C0000700440048004403880044048900440CD
:10138C00FFF8FFFE4C900440084006400040064029
:10139C00064006400140064003400640005006400F
:1013AC000C4006407F480160059800F0040028B10D
:1013BC007D4801687D4801407B48016009997C4863
:1013CC0001707C48007800F0BF01C9B2059800F0AC
:1013DC00FD000143774801700099774801700A9924
:1013EC00764801700E98072805D1049840F08001CA
:1013FC007348017002E0049971480170059800F07F
:10140C00040050B10A9800F0030030B96D48007820
:10141C0000F00200C0B200B9F8E7049800F0040034
:10142C0040B16848007800F01000C0B2002800D12C
:10143C00F7E706E06348007800F01000C0B200B196
:10144C00F8E7069800F0E0015F48007800F01F0014
:10145C00C0B201435C480170079800F0BF015B48C3
:10146C000170089800F0BF0159480170079800F00E
:10147C00400028B15548007840F0400153480170B5
:10148C000E98052806D14B48007840F002014948D7
:10149C0001701CE00E98062803D00E98072800D087
:1014AC0015E04B48007840F0400149480170454830
:1014BC00007800F04000C0B200B9F8E70E98072899
:1014CC0005D13F48007800F03F013D4801700E986F
:1014DC0018B10E98032800D029E03A48007800F0A3
:1014EC000C00C0B200B1F8E73A48006840F00101C6
:1014FC00384801600021384801608021374801607C
:10150C0005213748016001213448016033480068E7
:10151C0000F0800000B9F9E70021304801602D4847
:10152C0001686FF0010001402A4801602DE00E981F
:10153C00012803D00E98022800D008E0214800783A
:10154C0000F00C00C0B2042800D0F7E71DE00E98A4
:10155C00042806D00E98062803D00E98052800D033
:10156C0008E01848007800F00C00C0B2082800D041
:10157C00F7E70AE00E98072807D11248007800F028
:10158C000C00C0B20C2800D0F7E7164801686FF0C9
:10159C000F0001400B9800F00F000143114801604F
:1015AC000FB07047489004404C900440FFF8FFFE89
:1015BC000840064001400640005006400C400640E2
:1015CC0000400640064006400340064004400640EA
:1015DC0005400640388004400800044000000440E8
:0815EC000400044048800440A3
:100D38000149024801607047C0D401001048FF1FF4
:000D4800AB
:040D2000FEE7704733
:100D240072B60349086840F470000860704700BF59
:040D340088ED00E066
:100E040000B5DFF814B0DFF814A0DFF814C0FFF762
:100E140061FF00BD704700BF0000FF1F0100FF1FFE
:040E24006203000065
:100E840000B5DFF810B0DFF810A0FFF72BFF00BDAE
:0C0E9400704700BF0000FF1F1C48FF1F3C
:010362000199
:100400000000000000000000FFFFFFFF02FDFFFFF3
:100D4800350200003702000036020000FFFFFFFFF7
:100D5800000000000000000000000000000000008B
:100D6800000000000000000000000000000000007B
:100D7800000000000200080002000800020008004D
:100D8800FFFFFFFF0000000000000000000000005F
:100D9800000000000000000000000000000000004B
:0C0DA8000000000000000000000000003F
:100DB400020000000400000006000000080000001B
:100DC400100000002000000040000000800000002F
:100DD4000001000000020000000400000008000000
:100DE400001000000020000000400000008000000F
:100DF40002000000030000000500000007000000DE
:1015F4000010600060000000000000000000000017
:1016040000000000000000000000000000000000D6
:1016140000000000000000000000000000000000C6
:1016240000000000000000000000000000000000B6
:1016340000000000000000000000000000000000A6
:101CF40000000000FFFFFFFFFFFFFFFFFFFFFFFFEC
:101D040000000000000000000000000000000000CF
:101D140000000000000000000000000000000000BF
:101D2400FFFFFFFF000000000000000000000000B3
:101D3400000000000000000000000000000000009F
:101D4400000000000000000000000000000000008F
:101D5400000000000000000000000000000000007F
:101D6400000000000000000000000000000000006F
:101D7400000000000000000000000000000000005F
:101D8400000000000000000000000000000000004F
:101D9400000000000000000000000000000000003F
:101DA400000000000000000000000000000000002F
:101DB40000000000FFFFFFFF000000000000FFFF25
:101DC400FFFF000000000000000000000000000011
:101DD40000000000000000000000000000000000FF
:101DE400FFFFFFFF000000000000000000000000F3
:101DF40000000000000000000000000000000000DF
:101E040000000000000000000000000000000000CE
:101E140000000000000000000000000000000000BE
:101E240000000000000000000000000000000000AE
:101E3400000000000000000000000000000000009E
:101E4400000000000000000000000000000000008E
:101E5400000000000000000000000000000000007E
:101E6400000000000000000000000000000000006E
:101E740000000000FFFFFFFF000000000000FFFF64
:101E8400FFFF0000FFFFFFFF0000FFFF0000000056
:101E9400FFFFFFFFFFFFFFFFFFFF00000000FFFF4A
:101EA400FFFFFFFFFFFFFFFF00000000FFFFFFFF3A
:101EB400FFFFFFFFFFFF0000000000000000000024
:101EC400000000000000000000000000000000000E
:101ED40000000000000000000000000000000000FE
:101EE40000000000000000000000000000000000EE
:101EF40000000000000000000000000000000000DE
:101F040000000000000000000000000000000000CD
:101F140000000000000000000000000000000000BD
:101F240000000000000000000000000000000000AD
:101F340000000000FFFFFFFF000000000000FFFFA3
:101F4400FFFF0000FFFFFFFFFFFFFFFF0000FFFF99
:101F5400FFFF000000000000FFFFFFFF0000000083
:101F6400FFFFFFFF000000000000FFFFFFFF000075
:101F740000000000FFFFFFFF000000000000000061
:101F8400000000000000000000000000000000004D
:101F9400000000000000000000000000000000003D
:101FA400000000000000000000000000000000002D
:101FB400000000000000000000000000000000001D
:101FC400000000000000000000000000000000000D
:101FD40000000000000000000000000000000000FD
:101FE40000000000000000000000000000000000ED
:101FF40000000000FFFFFFFF000000000000FFFFE3
:10200400FFFF0000FFFFFFFF000000000000FFFFD4
:10201400FFFF000000000000FFFFFFFF00000000C2
:10202400FFFFFFFF000000000000FFFFFFFF0000B4
:1020340000000000FFFFFFFF0000000000000000A0
:10204400000000000000000000000000000000008C
:10205400000000000000000000000000000000007C
:10206400000000000000000000000000000000006C
:10207400000000000000000000000000000000005C
:10208400000000000000000000000000000000004C
:10209400000000000000000000000000000000003C
:1020A400000000000000000000000000000000002C
:1020B40000000000FFFFFFFFFFFFFFFFFFFFFFFF28
:1020C40000000000FFFFFFFF000000000000FFFF12
:1020D400FFFF000000000000FFFFFFFF0000000002
:1020E400FFFFFFFF000000000000FFFFFFFF0000F4
:1020F40000000000FFFFFFFF0000000000000000E0
:1021040000000000000000000000000000000000CB
:1021140000000000000000000000000000000000BB
:1021240000000000000000000000000000000000AB
:10213400000000000000000000000000000000009B
:10214400000000000000000000000000000000008B
:10215400000000000000000000000000000000007B
:10216400000000000000000000000000000000006B
:1021740000000000FFFFFFFF00000000000000005F
:1021840000000000FFFFFFFF000000000000FFFF51
:10219400FFFF000000000000FFFFFFFF0000000041
:1021A400FFFFFFFF000000000000FFFFFFFF000033
:1021B40000000000FFFFFFFF00000000000000001F
:1021C400000000000000000000000000000000000B
:1021D40000000000000000000000000000000000FB
:1021E40000000000000000000000000000000000EB
:1021F40000000000000000000000000000000000DB
:1022040000000000000000000000000000000000CA
:1022140000000000000000000000000000000000BA
:1022240000000000000000000000000000000000AA
:1022340000000000FFFFFFFF00000000000000009E
:1022440000000000FFFFFFFF000000000000FFFF90
:10225400FFFF000000000000FFFFFFFF0000000080
:10226400FFFFFFFF000000000000FFFFFFFF000072
:1022740000000000FFFFFFFF00000000000000005E
:10228400000000000000000000000000000000004A
:10229400000000000000000000000000000000003A
:1022A400000000000000000000000000000000002A
:1022B400000000000000000000000000000000001A
:1022C400000000000000000000000000000000000A
:1022D40000000000000000000000000000000000FA
:1022E40000000000000000000000000000000000EA
:1022F40000000000FFFFFFFF0000000000000000DE
:1023040000000000FFFFFFFF0000000000000000CD
:10231400FFFFFFFFFFFFFFFFFFFF000000000000C3
:102324000000FFFFFFFFFFFF00000000FFFFFFFFB3
:10233400FFFFFFFFFFFF000000000000000000009F
:102344000000000000000000000000000000000089
:102354000000000000000000000000000000000079
:102364000000000000000000000000000000000069
:102374000000000000000000000000000000000059
:1027640000000000000000000000FFFFFFFFFFFF6B
:10277400FFFFFFFFFFFFFFFFFFFFFFFFFFFFFFFF65
:10278400FFFFFFFFFFFFFFFFFFFFFFFFFFFFFFFF55
:10279400FFFFFFFFFFFFFFFFFFFFFFFFFFFFFFFF45
:1027A400FFFFFFFFFFFFFFFFFFFFFFFFFFFFFFFF35
:1027B400FFFFFFFFFFFFFFFFFFFFFFFFFFFFFFFF25
:1027C400FFFF000000000000000000000000000007
:1027D40000000000000000000000000000000000F5
:1027E40000000000000000000000000000000000E5
:1027F40000000000000000000000000000000000D5
:1028040000000000000000000000000000000000C4
:1028140000000000000000000000000000000000B4
:1028240000000000000000007DEFFFFF8210821016
:1028340082108210821082108210000000000000BA
:1028440000000000000082108210821082108210AA
:1028540082108210821082108210821082108210E4
:1028640082108210821082108210821082108210D4
:1028740082108210821082108210821082108210C4
:10288400FFFFFFFF00000000000000000000000048
:102894000000000000000000000000000000000034
:1028A4000000000000000000000000000000000024
:1028B4000000000000000000000000000000000014
:1028C4000000000000000000000000000000000004
:1028D40000000000000000000000000000000000F4
:1028E4000000000000003CE7FFFF000000000000C3
:1028F40000000000000000000000000000000000D4
:1029040000000000000000000000000000000000C3
:1029140000000000000000000000000000000000B3
:1029240000000000000000000000000000000000A3
:102934000000000000000000000000000000000093
:102944000000FFFFFFFF0000000000000000000087
:102954000000000000000000000000000000000073
:102964000000000000000000000000000000000063
:102974000000000000000000000000000000000053
:102984000000000000000000000000000000000043
:102994000000000000000000000000000000000033
:1029A400000000000000FFFF000000000000000025
:1029B4000000000000000000000000000000000013
:1029C4000000000000000000000000000000000003
:1029D40000000000000000000000000000000000F3
:1029E40000000000000000000000000000000000E3
:1029F40000000000000000000000000000000000D3
:102A040000000000FFFF00000000000000000000C4
:102A140000000000000000000000000000000000B2
:102A240000000000000000000000000000000000A2
:102A34000000000000000000000000000000000092
:102A44000000000000000000000000000000000082
:102A54000000000000000000000000000000000072
:102A6400000000000000FFFF000000000000000064
:102A74000000000000000000000000000000000052
:102A84000000000000000000000000000000000042
:102A94000000000000000000000000000000000032
:102AA4000000000000000000000000000000000022
:102AB4000000000000000000000000000000000012
:102AC40000000000FFFF0000000000000000000004
:102AD40000000000000000000000000000000000F2
:102AE40000000000000000000000000000000000E2
:102AF40000000000000000000000000000000000D2
:102B040000000000000000000000000000000000C1
:102B140000000000000000000000000000000000B1
:102B2400000000000000FFFF0000000000000000A3
:102B34000000000000000000000000000000000091
:102B44000000000000000000000000000000000081
:102B54000000000000000000000000000000000071
:102B64000000000000000000000000000000000061
:102B74000000000000000000000000000000000051
:102B840000000000FFFF0000000000000000000043
:102B94000000000000000000000000000000000031
:102BA4000000000000000000000000000000000021
:102BB4000000000000000000000000000000000011
:102BC4000000000000000000000000000000000001
:102BD40000000000000000000000000000000000F1
:102BE400000000000000FFFF0000000000000000E3
:102BF40000000000000000000000000000000000D1
:102C040000000000000000000000000000000000C0
:102C140000000000000000000000000000000000B0
:102C240000000000000000000000000000000000A0
:102C34000000000000000000000000000000000090
:102C440000000000FFFF0000000000000000000082
:102C54000000000000000000000000000000000070
:102C64000000000000000000000000000000000060
:102C74000000000000000000000000000000000050
:102C84000000000000000000000000000000000040
:102C94000000000000000000000000000000000030
:102CA400000000000000FFFF000000000000000022
:102CB4000000000000000000000000000000000010
:102CC4000000000000000000000000000000000000
:102CD40000000000000000000000000000000000F0
:102CE40000000000000000000000000000000000E0
:102CF40000000000000000000000000000000000D0
:102D040000000000FFFF00000000000000000000C1
:102D140000000000000000000000000000000000AF
:102D2400000000000000000000000000000000009F
:102D3400000000000000000000000000000000008F
:102D4400000000000000000000000000000000007F
:102D5400000000000000000000000000000000006F
:102D6400000000000000FFFF000000000000000061
:102D74000000000000000000000000000000C7394F
:102D84008E73B294F39CF39CF39CF39CF39CF39C9E
:102D9400F39CF39CF39CF39CF39CF39CF39CF39CB7
:102DA400F39CF39CF39CF39CB2948E7386310000E5
:102DB400000000000000000000000000000000000F
:102DC40000000000FFFF0000000000000000000001
:102DD40000000000000000000000000000000000EF
:102DE40000000000000000000000000000000000DF
:102DF40000000000000000000000000000000000CF
:102E040000000000000000000000000000000000BE
:102E140000000000000000000000000000000000AE
:102E2400000000000000FFFF0000000000000000A0
:102E3400000000000000000000008631B6B5FFFF6E
:102E4400FFFFFFFFFFFFFFFFFFFFFFFFFFFFFFFF8E
:102E5400FFFFFFFFFFFFFFFFFFFFFFFFFFFFFFFF7E
:102E6400FFFFFFFFFFFFFFFFFFFFFFFFBEFF34A5D4
:102E74000421000000000000000000000000000029
:102E840000000000FFFF0000000000000000000040
:102E9400000000000000000000000000000000002E
:102EA400000000000000000000000000000000001E
:102EB400000000000000000000000000000000000E
:102EC40000000000000000000000000000000000FE
:102ED40000000000000000000000000000000000EE
:102EE400000000000000FFFF0000000000000000E0
:102EF4000000000000000000494A7DEFFFFFFFFFD3
:102F0400FFFFFFFFFFFFFFFFFFFFFFFFFFFFFFFFCD
:102F1400FFFFFFFFFFFFFFFFFFFFFFFFFFFFFFFFBD
:102F2400FFFFBDE7F8A6B57EB58639B7FFFFFFFF03
:102F3400FBDE8631000000000000000000000000FD
:102F440000000000FFFF000000000000000000007F
:102F5400000000000000000000000000000000006D
:102F6400000000000000000000000000000000005D
:102F7400000000000000000000000000000000004D
:102F8400000000000000000000000000000000003D
:102F9400000000000000000000000000000000002D
:102FA400000000000000FFFF00000000000000001F
:102FB40000000000000045297DEFFFFFFFFFFFFF39
:102FC400FFFFFFFFFFFFFFFFFFFFFFFFFFFFFFFF0D
:102FD400FFFFFFFFFFFFFFFFFFFFFFFFFFFFFFFFFD
:102FE400F79E6D252A052A052A052A05EF3D7BC78C
:102FF400FFFFBAD6C3180000000000000000000064
:1030040000000000FFFF00000000000000000000BE
:1030140000000000000000000000000000000000AC
:10302400000000000000000000000000000000009C
:10303400000000000000000000000000000000008C
:10304400000000000000000000000000000000007C
:10305400000000000000000000000000000000006C
:10306400000000000000FFFF00000000000000005E
:1030740000000000000075ADFFFFFFFFFFFFFFFF32
:103084003CE73CE7FFFFFFFFFFFF7DEFFFFFFFFF94
:10309400FFFF7DEFFFFFFFFFFFFFFFFFFFFFF69640
:1030A4002A052A052B052B052B052B052A056C154E
:1030B4007BCFFFFF718C00000000000000000000C7
:1030C40000000000FFFF00000000000000000000FE
:1030D40000000000000000000000000000000000EC
:1030E40000000000000000000000000000000000DC
:1030F40000000000000000000000000000000000CC
:1031040000000000000000000000000000000000BB
:1031140000000000000000000000000000000000AB
:10312400000000000000FFFF00000000000000009D
:10313400000000004529BEF7FFFFFFFF3CE74D7389
:103144008A528A528F7B7DF77DEF8A5A35ADFFFF15
:103154003CE70C633CE7FFFFFFFFFFFF7CD76C0DF0
:103164002A052B052B052B052B052B052B052A05DD
:10317400F045FFFF3CEF821000000000000000005B
:1031840000000000FFFF000000000000000000003D
:10319400000000000000000000000000000000002B
:1031A400000000000000000000000000000000001B
:1031B400000000000000000000000000000000000B
:1031C40000000000000000000000000000000000FB
:1031D40000000000000000000000000000000000EB
:1031E400000000000000FFFF0000000000000000DD
:1031F400000000004D6BFFFFFFFFFFFF8E73CB5AF3
:103204003CE7FBDE8A5230843CE7C739C7393CE7E8
:103214003CE70842FBDEFFFFFFFFFFFFB5862A0500
:103224002B052B052B052B052B052B052B052B051A
:103234002B057BCFFFFF494A00000000000000007F
:1032440000000000FFFF000000000000000000007C
:10325400000000000000000000000000000000006A
:10326400000000000000000000000000000000005A
:10327400000000000000000000000000000000004A
:10328400000000000000000000000000000000003A
:10329400000000000000000000000000000000002A
:1032A400000000000000FFFF00000000000000001C
:1032B400000000003084FFFFFFFF7DEF0842F7BDF0
:1032C400FFFFFFFFB6B54952BAD68A520C634D735D
:1032D4003CE7494AFBDEFFFFFFFFFFFF31562A05AB
:1032E4002B052B052B052B052B052B052B052B055A
:1032F4002A05F79EFFFF0C63000000000000000099
:1033040000000000FFFF00000000000000000000BB
:1033140000000000000000000000000000000000A9
:103324000000000000000000000000000000000099
:103334000000000000000000000000000000000089
:103344000000000000000000000000000000000079
:103354000000000000000000000000000000000069
:10336400000000000000FFFF00000000000000005B
:10337400000000003084FFFFFFFF3CE7C84138C66F
:10338400FFFFFFFFF7BD494ABAD649527AD6CB5A56
:1033940030848A52FBDEFFFFFFFFFFFF31562A0510
:1033A4002B052B052B052B052B052B052B052B0599
:1033B4002A05F796FFFF0C630000000000000000E0
:1033C40000000000FFFF00000000000000000000FB
:1033D40000000000000000000000000000000000E9
:1033E40000000000000000000000000000000000D9
:1033F40000000000000000000000000000000000C9
:1034040000000000000000000000000000000000B8
:1034140000000000000000000000000000000000A8
:10342400000000000000FFFF00000000000000009A
:1034340000000000CB5AFFFFFFFFBEF7CB5ACF7B43
:10344400FFFFFFFF4D6B4D6B3CE7084A3CE779CE2D
:103454008631C7393CE7FFFFFFFFFFFFB57E2A0532
:103464002B052B052B052B052B052B052B052B05D8
:103474002B057BC7FFFFC7390000000000000000D8
:1034840000000000FFFF000000000000000000003A
:103494000000000000000000000000000000000028
:1034A4000000000000000000000000000000000018
:1034B4000000000000000000000000000000000008
:1034C40000000000000000000000000000000000F8
:1034D40000000000000000000000000000000000E8
:1034E400000000000000FFFF0000000000000000DA
:1034F4000000000004217DEFFFFFFFFF79CE494A61
:10350400CB5ACB5A8A52FBDE3CE7494AFBDEFFFF2B
:10351400308486313CE7FFFFFFFFFFFF7BCF6B0D5D
:103524002A052B052B052B052B052B052B052A0519
:10353400EF35FFFFFBDE4108000000000000000043
:1035440000000000FFFF0000000000000000000079
:103554000000000000000000000000000000000067
:103564000000000000000000000000000000000057
:103574000000000000000000000000000000000047
:103584000000000000000000000000000000000037
:103594000000000000000000000000000000000027
:1035A400000000000000FFFF000000000000000019
:1035B400000000000000B294FFFFFFFFFFFF7DEF5B
:1035C400F7BD38C67DEFFFFFBEF7BAD6BEF7FFFFE3
:1035D400BEF77AD6FFFFFFFFFFFFFFFFFFFFB586B1
:1035E4002A052A052B052B052B052B052A056B0D12
:1035F4007AC7FFFF8E730000000000000000000087
:1036040000000000FFFF00000000000000000000B8
:1036140000000000000000000000000000000000A6
:103624000000000000000000000000000000000096
:103634000000000000000000000000000000000086
:103644000000000000000000000000000000000076
:103654000000000000000000000000000000000066
:10366400000000000000FFFF000000000000000058
:10367400000000000000C318BAD6FFFFFFFFFFFFE1
:10368400FFFFFFFFFFFFFFFFFFFFFFFFFFFFFFFF46
:10369400FFFFFFFFFFFFFFFFFFFFFFFFFFFFFFFF36
:1036A400B68E6C152A052A052A052A05AE2D3AB7C9
:1036B400FFFFF7BD4108000000000000000000000B
:1036C40000000000FFFF00000000000000000000F8
:1036D40000000000000000000000000000000000E6
:1036E40000000000000000000000000000000000D6
:1036F40000000000000000000000000000000000C6
:1037040000000000000000000000000000000000B5
:1037140000000000000000000000000000000000A5
:10372400000000000000FFFF000000000000000097
:103734000000000000000000452979CEFFFFFFFFD4
:10374400FFFFFFFFFFFFFFFFFFFFFFFFFFFFFFFF85
:10375400FFFFFFFFFFFFFFFFFFFFFFFFFFFFFFFF75
:10376400FFFFBCDFB6967366736EF8A6FFF7FFFF24
:10377400B6B5C318000000000000000000000000FF
:1037840000000000FFFF0000000000000000000037
:103794000000000000000000000000000000000025
:1037A4000000000000000000000000000000000015
:1037B4000000000000000000000000000000000005
:1037C40000000000000000000000000000000000F5
:1037D40000000000000000000000000000000000E5
:1037E400000000000000FFFF0000000000000000D7
:1037F4000000000000000000000082103084FBDEA6
:10380400FFFFFFFFFFFFFFFFFFFFFFFFFFFFFFFFC4
:10381400FFFFFFFFFFFFFFFFFFFFFFFFFFFFFFFFB4
:10382400FFFFFFFFFFFFFFFFFFFFFFFFFBDE8E73C6
:10383400410800000000000000000000000000003B
:1038440000000000FFFF0000000000000000000076
:103854000000000000000000000000000000000064
:103864000000000000000000000000000000000054
:103874000000000000000000000000000000000044
:103884000000000000000000000000000000000034
:103894000000000000000000000000000000000024
:1038A400000000000000FFFF000000000000000016
:1038B4000000000000000000000000000000821072
:1038C40008420C634D6B4D6B4D6B4D6B4D6B4D6BEB
:1038D4004D6B4D6B4D6B4D6B4D6B4D6B4D6B4D6B24
:1038E4004D6B4D6B4D6B4D6B0C63C739410800003C
:1038F40000000000000000000000000000000000C4
:1039040000000000FFFF00000000000000000000B5
:1039140000000000000000000000000000000000A3
:103924000000000000000000000000000000000093
:103934000000000000000000000000000000000083
:103944000000000000000000000000000000000073
:103954000000000000000000000000000000000063
:10396400000000000000FFFF000000000000000055
:103974000000000000000000000000000000000043
:103984000000000000000000000000000000000033
:103994000000000000000000000000000000000023
:1039A4000000000000000000000000000000000013
:1039B4000000000000000000000000000000000003
:1039C40000000000FFFF00000000000000000000F5
:1039D40000000000000000000000000000000000E3
:1039E40000000000000000000000000000000000D3
:1039F40000000000000000000000000000000000C3
:103A040000000000000000000000000000000000B2
:103A140000000000000000000000000000000000A2
:103A2400000000000000FFFF000000000000000094
:103A34000000000000000000000000000000000082
:103A44000000000000000000000000000000000072
:103A54000000000000000000000000000000000062
:103A64000000000000000000000000000000000052
:103A74000000000000000000000000000000000042
:103A840000000000FFFF0000000000000000000034
:103A94000000000000000000000000000000000022
:103AA4000000000000000000000000000000000012
:103AB4000000000000000000000000000000000002
:103AC40000000000000000000000000000000000F2
:103AD40000000000000000000000000000000000E2
:103AE400000000000000FFFF0000000000000000D4
:103AF40000000000000000000000000000000000C2
:103B040000000000000000000000000000000000B1
:103B140000000000000000000000000000000000A1
:103B24000000000000000000000000000000000091
:103B34000000000000000000000000000000000081
:103B440000000000FFFF0000000000000000000073
:103B54000000000000000000000000000000000061
:103B64000000000000000000000000000000000051
:103B74000000000000000000000000000000000041
:103B84000000000000000000000000000000000031
:103B94000000000000000000000000000000000021
:103BA400000000000000FFFF000000000000000013
:103BB4000000000000000000000000000000000001
:103BC40000000000000000000000000000000000F1
:103BD40000000000000000000000000000000000E1
:103BE40000000000000000000000000000000000D1
:103BF40000000000000000000000000000000000C1
:103C040000000000FFFF00000000000000000000B2
:103C140000000000000000000000000000000000A0
:103C24000000000000000000000000000000000090
:103C34000000000000000000000000000000000080
:103C44000000000000000000000000000000000070
:103C54000000000000000000000000000000000060
:103C6400000000000000FFFF000000000000000052
:103C74000000000000000000000000000000000040
:103C84000000000000000000000000000000000030
:103C94000000000000000000000000000000000020
:103CA4000000000000000000000000000000000010
:103CB4000000000000000000000000000000000000
:103CC40000000000FFFF00000000000000000000F2
:103CD40000000000000000000000000000000000E0
:103CE40000000000000000000000000000000000D0
:103CF40000000000000000000000000000000000C0
:103D040000000000000000000000000000000000AF
:103D1400000000000000000000000000000000009F
:103D2400000000000000FFFF000000000000000091
:103D3400000000000000000000000000000000007F
:103D4400000000000000000000000000000000006F
:103D5400000000000000000000000000000000005F
:103D6400000000000000000000000000000000004F
:103D7400000000000000000000000000000000003F
:103D840000000000FFFF0000000000000000000031
:103D9400000000000000000000000000000000001F
:103DA400000000000000000000000000000000000F
:103DB40000000000000000000000000000000000FF
:103DC40000000000000000000000000000000000EF
:103DD40000000000000000000000000000000000DF
:103DE400000000000000FFFF0000000000000000D1
:103DF40000000000000000000000000000000000BF
:103E040000000000000000000000000000000000AE
:103E1400000000000000000000000000000000009E
:103E2400000000000000000000000000000000008E
:103E3400000000000000000000000000000000007E
:103E440000000000FFFF0000000000000000000070
:103E5400000000000000000000000000000000005E
:103E6400000000000000000000000000000000004E
:103E7400000000000000000000000000000000003E
:103E8400000000000000000000000000000000002E
:103E9400000000000000000000000000000000001E
:103EA400000000000000FFFF000000000000000010
:103EB40000000000000000000000000000000000FE
:103EC40000000000000000000000000000000000EE
:103ED40000000000000000000000000000000000DE
:103EE40000000000000000000000000000000000CE
:103EF40000000000000000000000000000000000BE
:103F040000000000FFFF00000000000000000000AF
:103F1400000000000000000000000000000000009D
:103F2400000000000000000000000000000000008D
:103F3400000000000000000000000000000000007D
:103F4400000000000000000000000000000000006D
:103F5400000000000000000000000000000000005D
:103F6400000000000000FFFF00000000000000004F
:103F7400000000000000000000000000000000003D
:103F8400000000000000000000000000000000002D
:103F9400000000000000000000000000000000001D
:103FA400000000000000000000000000000000000D
:103FB40000000000000000000000000000000000FD
:103FC40000000000FFFF00000000000000000000EF
:103FD40000000000000000000000000000000000DD
:103FE40000000000000000000000000000000000CD
:103FF40000000000000000000000000000000000BD
:1040040000000000000000000000000000000000AC
:10401400000000000000000000000000000000009C
:10402400000000000000FFFF00000000000000008E
:10403400000000000000000000000000000000007C
:10404400000000000000000000000000000000006C
:10405400000000000000000000000000000000005C
:10406400000000000000000000000000000000004C
:10407400000000000000000000000000000000003C
:1040840000000000FFFF000000000000000000002E
:10409400000000000000000000000000000000001C
:1040A400000000000000000000000000000000000C
:1040B40000000000000000000000000000000000FC
:1040C40000000000000000000000000000000000EC
:1040D40000000000000000000000000000000000DC
:1040E400000000000000FFFF0000000000000000CE
:1040F40000000000000000000000000000000000BC
:1041040000000000000000000000000000000000AB
:10411400000000000000000000000000000000009B
:10412400000000000000000000000000000000008B
:10413400000000000000000000000000000000007B
:1041440000000000FFFF000000000000000000006D
:10415400000000000000000000000000000000005B
:10416400000000000000000000000000000000004B
:10417400000000000000000000000000000000003B
:10418400000000000000000000000000000000002B
:10419400000000000000000000000000000000001B
:1041A400000000000000FFFF00000000000000000D
:1041B40000000000000000000000000000000000FB
:1041C40000000000000000000000000000000000EB
:1041D40000000000000000000000000000000000DB
:1041E40000000000000000000000000000000000CB
:1041F40000000000000000000000000000000000BB
:1042040000000000FFFF00000000000000000000AC
:10421400000000000000000000000000000000009A
:10422400000000000000000000000000000000008A
:10423400000000000000000000000000000000007A
:10424400000000000000000000000000000000006A
:10425400000000000000000000000000000000005A
:10426400000000000000FFFF00000000000000004C
:10427400000000000000000000000000000000003A
:10428400000000000000000000000000000000002A
:10429400000000000000000000000000000000001A
:1042A400000000000000000000000000000000000A
:1042B40000000000000000000000000000000000FA
:1042C40000000000FFFF00000000000000000000EC
:1042D40000000000000000000000000000000000DA
:1042E40000000000000000000000000000000000CA
:1042F40000000000000000000000000000000000BA
:1043040000000000000000000000000000000000A9
:104314000000000000000000000000000000000099
:10432400000000000000FFFF00000000000000008B
:104334000000000000000000000000000000000079
:104344000000000000000000000000000000000069
:104354000000000000000000000000000000000059
:104364000000000000000000000000000000000049
:104374000000000000000000000000000000000039
:1043840000000000FFFF000000000000000000002B
:104394000000000000000000000000000000000019
:1043A4000000000000000000000000000000000009
:1043B40000000000000000000000000000000000F9
:1043C40000000000000000000000000000000000E9
:1043D40000000000000000000000000000000000D9
:1043E400000000000000FFFF0000000000000000CB
:1043F40000000000000000000000000000000000B9
:1044040000000000000000000000000000000000A8
:104414000000000000000000000000000000000098
:104424000000000000000000000000000000000088
:104434000000000000000000000000000000000078
:1044440000000000FFFF000000000000000000006A
:104454000000000000000000000000000000000058
:104464000000000000000000000000000000000048
:104474000000000000000000000000000000000038
:104484000000000000000000000000000000000028
:104494000000000000000000000000000000000018
:1044A400000000000000FFFF00000000000000000A
:1044B40000000000000000000000000000000000F8
:1044C40000000000000000000000000000000000E8
:1044D40000000000000000000000000000000000D8
:1044E40000000000000000000000000000000000C8
:1044F40000000000000000000000000000000000B8
:1045040000000000FFFF00000000000000000000A9
:104514000000000000000000000000000000000097
:104524000000000000000000000000000000000087
:104534000000000000000000000000000000000077
:104544000000000000000000000000000000000067
:104554000000000000000000000000000000000057
:10456400000000000000FFFF000000000000000049
:104574000000000000000000000000000000000037
:104584000000000000000000000000000000000027
:104594000000000000000000000000000000000017
:1045A4000000000000000000000000000000000007
:1045B40000000000000000000000000000000000F7
:1045C40000000000FFFF00000000000000000000E9
:1045D40000000000000000000000000000000000D7
:1045E40000000000000000000000000000000000C7
:1045F40000000000000000000000000000000000B7
:1046040000000000000000000000000000000000A6
:104614000000000000000000000000000000000096
:10462400000000000000FFFF000000000000000088
:104634000000000000000000000000000000000076
:104644000000000000000000000000000000000066
:104654000000000000000000000000000000000056
:104664000000000000000000000000000000000046
:104674000000000000000000000000000000000036
:1046840000000000FFFF0000000000000000000028
:104694000000000000000000000000000000000016
:1046A4000000000000000000000000000000000006
:1046B40000000000000000000000000000000000F6
:1046C40000000000000000000000000000000000E6
:1046D40000000000000000000000000000000000D6
:1046E400000000000000FFFF0000000000000000C8
:1046F40000000000000000000000000000000000B6
:1047040000000000000000000000000000000000A5
:104714000000000000000000000000000000000095
:104724000000000000000000000000000000000085
:104734000000000000000000000000000000000075
:1047440000000000FFFF0000000000000000000067
:104754000000000000000000000000000000000055
:104764000000000000000000000000000000000045
:104774000000000000000000000000000000000035
:104784000000000000000000000000000000000025
:104794000000000000000000000000000000000015
:1047A400000000000000FFFF000000000000000007
:1047B40000000000000000000000000000000000F5
:1047C40000000000000000000000000000000000E5
:1047D40000000000000000000000000000000000D5
:1047E40000000000000000000000000000000000C5
:1047F40000000000000000000000000000000000B5
:1048040000000000FFFF00000000000000000000A6
:104814000000000000000000000000000000000094
:104824000000000000000000000000000000000084
:104834000000000000000000000000000000000074
:104844000000000000000000000000000000000064
:104854000000000000000000000000000000000054
:10486400000000000000FFFF000000000000000046
:104874000000000000000000000000000000000034
:104884000000000000000000000000000000000024
:104894000000000000000000000000000000000014
:1048A4000000000000000000000000000000000004
:1048B40000000000000000000000000000000000F4
:1048C40000000000FFFF00000000000000000000E6
:1048D40000000000000000000000000000000000D4
:1048E40000000000000000000000000000000000C4
:1048F40000000000000000000000000000000000B4
:1049040000000000000000000000000000000000A3
:104914000000000000000000000000000000000093
:10492400000000000000FFFF000000000000000085
:104934000000000000000000000000000000000073
:104944000000000000000000000000000000000063
:104954000000000000000000000000000000000053
:104964000000000000000000000000000000000043
:104974000000000000000000000000000000000033
:1049840000000000FFFF0000000000000000000025
:104994000000000000000000000000000000000013
:1049A4000000000000000000000000000000000003
:1049B40000000000000000000000000000000000F3
:1049C40000000000000000000000000000000000E3
:1049D40000000000000000000000000000000000D3
:1049E400000000000000FFFF0000000000000000C5
:1049F40000000000000000000000000000000000B3
:104A040000000000000000000000000000000000A2
:104A14000000000000000000000000000000000092
:104A24000000000000000000000000000000000082
:104A34000000000000000000000000000000000072
:104A440000000000FFFF0000000000000000000064
:104A54000000000000000000000000000000000052
:104A64000000000000000000000000000000000042
:104A74000000000000000000000000000000000032
:104A84000000000000000000000000000000000022
:104A94000000000000000000000000000000000012
:104AA400000000000000FFFFFFFF00000000000006
:104AB40000000000000000000000000000000000F2
:104AC40000000000000000000000000000000000E2
:104AD40000000000000000000000000000000000D2
:104AE40000000000000000000000000000000000C2
:104AF40000000000000000000000000000000000B2
:104B04000000FFFFFFFF00000000000000000000A5
:104B14000000000000000000000000000000000091
:104B24000000000000000000000000000000000081
:104B34000000000000000000000000000000000071
:104B44000000000000000000000000000000000061
:104B54000000000000000000000000000000000051
:104B64000000000000000000FFFFFFFF0000000045
:104B74000000000000000000000000000000000031
:104B84000000000000000000000000000000000021
:104B94000000000000000000000000000000000011
:104BA4000000000000000000000000000000000001
:104BB40000000000000000000000000000000000F1
:104BC400FFFFFFFF000000000000000000000000E5
:104BD40000000000000000000000000000000000D1
:104BE40000000000000000000000000000000000C1
:104BF40000000000000000000000000000000000B1
:104C040000000000000000000000000000000000A0
:104C14000000000000000000000000000000000090
:104C240000000000000000000000FFFFFFFFFFFF86
:104C3400FFFFFFFFFFFFFFFFFFFFFFFFFFFFFFFF80
:104C4400FFFFFFFFFFFFFFFFFFFFFFFFFFFFFFFF70
:104C5400FFFFFFFFFFFFFFFFFFFFFFFFFFFFFFFF60
:104C6400FFFFFFFFFFFFFFFFFFFFFFFFFFFFFFFF50
:104C7400FFFFFFFFFFFFFFFFFFFFFFFFFFFFFFFF40
:104C8400FFFF000000000000000000000000000022
:104C94000000000000000000000000000000000010
:104CA4000000000000000000000000000000000000
:104CB40000000000000000000000000000000000F0
:104CC40000000000000000000000000000000000E0
:065DF400000000000000A9
:105DFA0000106000600000000000000000000000C9
:105E0A000000000000000000000000000000000088
:105E1A000000000000000000000000000000000078
:105E2A000000000000000000000000000000000068
:105E3A000000000000000000000000000000000058
:1064FA0000000000FFFFFFFFFFFFFFFFFFFFFFFF9E
:10650A000000000000000000000000000000000081
:10651A000000000000000000000000000000000071
:10652A00FFFFFFFF00000000000000000000000065
:10653A000000000000000000000000000000000051
:10654A000000000000000000000000000000000041
:10655A000000000000000000000000000000000031
:10656A000000000000000000000000000000000021
:10657A000000000000000000000000000000000011
:10658A000000000000000000000000000000000001
:10659A0000000000000000000000000000000000F1
:1065AA0000000000000000000000000000000000E1
:1065BA0000000000FFFFFFFF000000000000FFFFD7
:1065CA00FFFF0000000000000000000000000000C3
:1065DA0000000000000000000000000000000000B1
:1065EA00FFFFFFFF000000000000000000000000A5
:1065FA000000000000000000000000000000000091
:10660A000000000000000000000000000000000080
:10661A000000000000000000000000000000000070
:10662A000000000000000000000000000000000060
:10663A000000000000000000000000000000000050
:10664A000000000000000000000000000000000040
:10665A000000000000000000000000000000000030
:10666A000000000000000000000000000000000020
:10667A0000000000FFFFFFFF000000000000FFFF16
:10668A00FFFF0000FFFFFFFF0000FFFF0000000008
:10669A00FFFFFFFFFFFFFFFFFFFF00000000FFFFFC
:1066AA00FFFFFFFFFFFFFFFF00000000FFFFFFFFEC
:1066BA00FFFFFFFFFFFF00000000000000000000D6
:1066CA0000000000000000000000000000000000C0
:1066DA0000000000000000000000000000000000B0
:1066EA0000000000000000000000000000000000A0
:1066FA000000000000000000000000000000000090
:10670A00000000000000000000000000000000007F
:10671A00000000000000000000000000000000006F
:10672A00000000000000000000000000000000005F
:10673A0000000000FFFFFFFF000000000000FFFF55
:10674A00FFFF0000FFFFFFFFFFFFFFFF0000FFFF4B
:10675A00FFFF000000000000FFFFFFFF0000000035
:10676A00FFFFFFFF000000000000FFFFFFFF000027
:10677A0000000000FFFFFFFF000000000000000013
:10678A0000000000000000000000000000000000FF
:10679A0000000000000000000000000000000000EF
:1067AA0000000000000000000000000000000000DF
:1067BA0000000000000000000000000000000000CF
:1067CA0000000000000000000000000000000000BF
:1067DA0000000000000000000000000000000000AF
:1067EA00000000000000000000000000000000009F
:1067FA0000000000FFFFFFFF000000000000FFFF95
:10680A00FFFF0000FFFFFFFF000000000000FFFF86
:10681A00FFFF000000000000FFFFFFFF0000000074
:10682A00FFFFFFFF000000000000FFFFFFFF000066
:10683A0000000000FFFFFFFF000000000000000052
:10684A00000000000000000000000000000000003E
:10685A00000000000000000000000000000000002E
:10686A00000000000000000000000000000000001E
:10687A00000000000000000000000000000000000E
:10688A0000000000000000000000000000000000FE
:10689A0000000000000000000000000000000000EE
:1068AA0000000000000000000000000000000000DE
:1068BA0000000000FFFFFFFFFFFFFFFFFFFFFFFFDA
:1068CA0000000000FFFFFFFF000000000000FFFFC4
:1068DA00FFFF000000000000FFFFFFFF00000000B4
:1068EA00FFFFFFFF000000000000FFFFFFFF0000A6
:1068FA0000000000FFFFFFFF000000000000000092
:10690A00000000000000000000000000000000007D
:10691A00000000000000000000000000000000006D
:10692A00000000000000000000000000000000005D
:10693A00000000000000000000000000000000004D
:10694A00000000000000000000000000000000003D
:10695A00000000000000000000000000000000002D
:10696A00000000000000000000000000000000001D
:10697A0000000000FFFFFFFF000000000000000011
:10698A0000000000FFFFFFFF000000000000FFFF03
:10699A00FFFF000000000000FFFFFFFF00000000F3
:1069AA00FFFFFFFF000000000000FFFFFFFF0000E5
:1069BA0000000000FFFFFFFF0000000000000000D1
:1069CA0000000000000000000000000000000000BD
:1069DA0000000000000000000000000000000000AD
:1069EA00000000000000000000000000000000009D
:1069FA00000000000000000000000000000000008D
:106A0A00000000000000000000000000000000007C
:106A1A00000000000000000000000000000000006C
:106A2A00000000000000000000000000000000005C
:106A3A0000000000FFFFFFFF000000000000000050
:106A4A0000000000FFFFFFFF000000000000FFFF42
:106A5A00FFFF000000000000FFFFFFFF0000000032
:106A6A00FFFFFFFF000000000000FFFFFFFF000024
:106A7A0000000000FFFFFFFF000000000000000010
:106A8A0000000000000000000000000000000000FC
:106A9A0000000000000000000000000000000000EC
:106AAA0000000000000000000000000000000000DC
:106ABA0000000000000000000000000000000000CC
:106ACA0000000000000000000000000000000000BC
:106ADA0000000000000000000000000000000000AC
:106AEA00000000000000000000000000000000009C
:106AFA0000000000FFFFFFFF000000000000000090
:106B0A0000000000FFFFFFFF00000000000000007F
:106B1A00FFFFFFFFFFFFFFFFFFFF00000000000075
:106B2A000000FFFFFFFFFFFF00000000FFFFFFFF65
:106B3A00FFFFFFFFFFFF0000000000000000000051
:106B4A00000000000000000000000000000000003B
:106B5A00000000000000000000000000000000002B
:106B6A00000000000000000000000000000000001B
:106B7A00000000000000000000000000000000000B
:106F6A0000000000000000000000FFFFFFFFFFFF1D
:106F7A00FFFFFFFFFFFFFFFFFFFFFFFFFFFFFFFF17
:106F8A00FFFFFFFFFFFFFFFFFFFFFFFFFFFFFFFF07
:106F9A00FFFFFFFFFFFFFFFFFFFFFFFFFFFFFFFFF7
:106FAA00FFFFFFFFFFFFFFFFFFFFFFFFFFFFFFFFE7
:106FBA00FFFFFFFFFFFFFFFFFFFFFFFFFFFFFFFFD7
:106FCA00FFFF0000000000000000000000000000B9
:106FDA0000000000000000000000000000000000A7
:106FEA000000000000000000000000000000000097
:106FFA000000000000000000000000000000000087
:10700A000000000000000000000000000000000076
:10701A000000000000000000000000000000000066
:10702A0000000000000000007DEFFFFF82108210C8
:10703A00821082108210821082100000000000006C
:10704A00000000000000821082108210821082105C
:10705A008210821082108210821082108210821096
:10706A008210821082108210821082108210821086
:10707A008210821082108210821082108210821076
:10708A00FFFFFFFF000000000000000000000000FA
:10709A0000000000000000000000000000000000E6
:1070AA0000000000000000000000000000000000D6
:1070BA0000000000000000000000000000000000C6
:1070CA0000000000000000000000000000000000B6
:1070DA0000000000000000000000000000000000A6
:1070EA000000000000003CE7FFFF00000000000075
:1070FA000000000000000000000000000000000086
:10710A000000000000000000000000000000000075
:10711A000000000000000000000000000000000065
:10712A000000000000000000000000000000000055
:10713A000000000000000000000000000000000045
:10714A000000FFFFFFFF0000000000000000000039
:10715A000000000000000000000000000000000025
:10716A000000000000000000000000000000000015
:10717A000000000000000000000000000000000005
:10718A0000000000000000000000000000000000F5
:10719A0000000000000000000000000000000000E5
:1071AA00000000000000FFFF0000000000000000D7
:1071BA0000000000000000000000000000000000C5
:1071CA0000000000000000000000000000000000B5
:1071DA0000000000000000000000000000000000A5
:1071EA000000000000000000000000000000000095
:1071FA000000000000000000000000000000000085
:10720A0000000000FFFF0000000000000000000076
:10721A000000000000000000000000000000000064
:10722A000000000000000000000000000000000054
:10723A000000000000000000000000000000000044
:10724A000000000000000000000000000000000034
:10725A000000000000000000000000000000000024
:10726A00000000000000FFFF000000000000000016
:10727A000000000000000000000000000000000004
:10728A0000000000000000000000000000000000F4
:10729A0000000000000000000000000000000000E4
:1072AA0000000000000000000000000000000000D4
:1072BA0000000000000000000000000000000000C4
:1072CA0000000000FFFF00000000000000000000B6
:1072DA0000000000000000000000000000000000A4
:1072EA000000000000000000000000000000000094
:1072FA000000000000000000000000000000000084
:10730A000000000000000000000000000000000073
:10731A000000000000000000000000000000000063
:10732A00000000000000FFFF000000000000000055
:10733A000000000000000000000000000000000043
:10734A000000000000000000000000000000000033
:10735A000000000000000000000000000000000023
:10736A000000000000000000000000000000000013
:10737A000000000000000000000000000000000003
:10738A0000000000FFFF00000000000000000000F5
:10739A0000000000000000000000000000000000E3
:1073AA0000000000000000000000000000000000D3
:1073BA0000000000000000000000000000000000C3
:1073CA0000000000000000000000000000000000B3
:1073DA0000000000000000000000000000000000A3
:1073EA00000000000000FFFF000000000000000095
:1073FA000000000000000000000000000000000083
:10740A000000000000000000000000000000000072
:10741A000000000000000000000000000000000062
:10742A000000000000000000000000000000000052
:10743A000000000000000000000000000000000042
:10744A0000000000FFFF0000000000000000000034
:10745A000000000000000000000000000000000022
:10746A000000000000000000000000000000000012
:10747A000000000000000000000000000000000002
:10748A0000000000000000000000000000000000F2
:10749A0000000000000000000000000000000000E2
:1074AA00000000000000FFFF0000000000000000D4
:1074BA0000000000000000000000000000000000C2
:1074CA0000000000000000000000000000000000B2
:1074DA0000000000000000000000000000000000A2
:1074EA000000000000000000000000000000000092
:1074FA000000000000000000000000000000000082
:10750A0000000000FFFF0000000000000000000073
:10751A000000000000000000000000000000000061
:10752A000000000000000000000000000000000051
:10753A000000000000000000000000000000000041
:10754A000000000000000000000000000000000031
:10755A000000000000000000000000000000000021
:10756A00000000000000FFFF000000000000000013
:10757A000000000000000000000000000000000001
:10758A0000000000000000000000000000000000F1
:10759A0000000000000000000000000000000000E1
:1075AA0000000000000000000000000000000000D1
:1075BA0000000000000000000000000000000000C1
:1075CA0000000000FFFF00000000000000000000B3
:1075DA0000000000000000000000000000000000A1
:1075EA000000000000000000000000000000000091
:1075FA000000000000000000000000000000000081
:10760A000000000000000000000000000000000070
:10761A000000000000000000000000000000000060
:10762A00000000000000FFFF000000000000000052
:10763A000000000000000000000000000000000040
:10764A000000000000000000000000000000000030
:10765A000000000000000000000000000000000020
:10766A000000000000000000000000000000000010
:10767A000000000000000000000000000000000000
:10768A0000000000FFFF00000000000000000000F2
:10769A0000000000000000000000000000000000E0
:1076AA0000000000000000000000000000000000D0
:1076BA0000000000000000000000000000000000C0
:1076CA0000000000000000000000000000000000B0
:1076DA0000000000000000000000000000000000A0
:1076EA00000000000000FFFF000000000000000092
:1076FA000000000000000000000000000000000080
:10770A00000000000000000000000000000000006F
:10771A00000000000000000000000000000000005F
:10772A00000000000000000000000000000000004F
:10773A00000000000000000000000000000000003F
:10774A0000000000FFFF0000000000000000000031
:10775A00000000000000000000000000000000001F
:10776A00000000000000000000000000000000000F
:10777A0000000000000000000000000000000000FF
:10778A0000000000000000000000000000000000EF
:10779A0000000000000000000000000000000000DF
:1077AA00000000000000FFFF0000000000000000D1
:1077BA0000000000000000000000000000000000BF
:1077CA0000000000000000000000000000000000AF
:1077DA00000000000000000000000000000000009F
:1077EA00000000000000000000000000000000008F
:1077FA00000000000000000000000000000000007F
:10780A0000000000FFFF0000000000000000000070
:10781A00000000000000000000000000000000005E
:10782A00000000000000000000000000000000004E
:10783A00000000000000000000000000000000003E
:10784A00000000000000000000000000000000002E
:10785A00000000000000000000000000000000001E
:10786A00000000000000FFFF000000000000000010
:10787A0000000000000000000000000000000000FE
:10788A0000000000000000000000000000000000EE
:10789A0000000000000000000000000000000000DE
:1078AA0000000000000000000000000000000000CE
:1078BA0000000000000000000000000000000000BE
:1078CA0000000000FFFF00000000000000000000B0
:1078DA00000000000000000000000000000000009E
:1078EA00000000000000000000000000000000008E
:1078FA00000000000000000000000000000000007E
:10790A00000000000000000000000000000000006D
:10791A00000000000000000000000000000000005D
:10792A00000000000000FFFF00000000000000004F
:10793A00000000000000000000000000000000003D
:10794A00000000000000000000000000000000002D
:10795A00000000000000000000000000000000001D
:10796A00000000000000000000000000000000000D
:10797A0000000000000000000000000000000000FD
:10798A0000000000FFFF00000000000000000000EF
:10799A0000000000000000000000000000000000DD
:1079AA0000000000000000000000000000000000CD
:1079BA0000000000000000000000000000000000BD
:1079CA0000000000000000000000000000000000AD
:1079DA00000000000000000000000000000000009D
:1079EA00000000000000FFFF00000000000000008F
:1079FA00000000000000000000000000000000007D
:107A0A00000000000000000000000000000000006C
:107A1A00000000000000000000000000000000005C
:107A2A00000000000000000000000000000000004C
:107A3A00000000000000000000000000000000003C
:107A4A0000000000FFFF000000000000000000002E
:107A5A00000000000000000000000000000000001C
:107A6A00000000000000000000000000000000000C
:107A7A0000000000000000000000000000000000FC
:107A8A0000000000000000000000000000000000EC
:107A9A0000000000000000000000000000000000DC
:107AAA00000000000000FFFF0000000000000000CE
:107ABA0000000000000000000000000000000000BC
:107ACA0000000000000000000000000000000000AC
:107ADA00000000000000000000000000000000009C
:107AEA00000000000000000000000000000000008C
:107AFA00000000000000000000000000000000007C
:107B0A0000000000FFFF000000000000000000006D
:107B1A00000000000000000000000000000000005B
:107B2A00000000000000000000000000000000004B
:107B3A00000000000000000000000000000000003B
:107B4A00000000000000000000000000000000002B
:107B5A00000000000000000000000000000000001B
:107B6A00000000000000FFFF00000000000000000D
:107B7A0000000000000000000000000000000000FB
:107B8A0000000000000000000000000000000000EB
:107B9A0000000000000000000000000000000000DB
:107BAA0000000000000000000000000000000000CB
:107BBA0000000000000000000000000000000000BB
:107BCA0000000000FFFF00000000000000000000AD
:107BDA00000000000000000000000000000000009B
:107BEA00000000000000000000000000000000008B
:107BFA00000000000000000000000000000000007B
:107C0A00000000000000000000000000000000006A
:107C1A00000000000000000000000000000000005A
:107C2A00000000000000FFFF00000000000000004C
:107C3A00000000000000000000000000000000003A
:107C4A00000000000000000000000000000000002A
:107C5A00000000000000000000000000000000001A
:107C6A00000000000000000000000000000000000A
:107C7A0000000000000000000000000000000000FA
:107C8A0000000000FFFF00000000000000000000EC
:107C9A0000000000000000000000000000000000DA
:107CAA0000000000000000000000000000000000CA
:107CBA0000000000000000000000000000000000BA
:107CCA0000000000000000000000000000000000AA
:107CDA00000000000000000000000000000000009A
:107CEA00000000000000FFFF00000000000000008C
:107CFA00000000000000000000000000000000007A
:107D0A000000000000000000000000000000000069
:107D1A000000000000000000000000000000000059
:107D2A000000000000000000000000000000000049
:107D3A000000000000000000000000000000000039
:107D4A0000000000FFFF000000000000000000002B
:107D5A000000000000000000000000000000000019
:107D6A000000000000000000000000000000000009
:107D7A0000000000000000000000000000000000F9
:107D8A0000000000000000000000000000000000E9
:107D9A0000000000000000000000000000000000D9
:107DAA00000000000000FFFF0000000000000000CB
:107DBA0000000000000000000000000000000000B9
:107DCA0000000000000000000000000000000000A9
:107DDA000000000000000000000000000000000099
:107DEA000000000000000000000000000000000089
:107DFA000000000000000000000000000000000079
:107E0A0000000000FFFF000000000000000000006A
:107E1A000000000000000000000000000000000058
:107E2A000000000000000000000000000000000048
:107E3A000000000000000000000000000000000038
:107E4A000000000000000000000000000000000028
:107E5A000000000000000000000000000000000018
:107E6A00000000000000FFFF00000000000000000A
:107E7A0000000000000000000000000000000000F8
:107E8A0000000000000000000000000000000000E8
:107E9A0000000000000000000000000000000000D8
:107EAA0000000000000000000000000000000000C8
:107EBA0000000000000000000000000000000000B8
:107ECA0000000000FFFF00000000000000000000AA
:107EDA000000000000000000000000000000000098
:107EEA000000000000000000000000000000000088
:107EFA000000000000000000000000000000000078
:107F0A000000000000000000000000000000000067
:107F1A000000000000000000000000000000000057
:107F2A00000000000000FFFF000000000000000049
:107F3A000000000000000000000000000000000037
:107F4A000000000000000000000000000000000027
:107F5A000000000000000000000000000000000017
:107F6A000000000000000000000000000000000007
:107F7A0000000000000000000000000000000000F7
:107F8A0000000000FFFF00000000000000000000E9
:107F9A0000000000000000000000000000000000D7
:107FAA0000000000000000000000000000000000C7
:107FBA0000000000000000000000000000000000B7
:107FCA0000000000000000000000000000000000A7
:107FDA000000000000000000000000000000000097
:107FEA00000000000000FFFF000000000000000089
:107FFA000000000000000000000000000000000077
:10800A000000000000000000000000000000000066
:10801A000000000000000000000000000000000056
:10802A000000000000000000000000000000000046
:10803A000000000000000000000000000000000036
:10804A0000000000FFFF0000000000000000000028
:10805A000000000000000000000000000000000016
:10806A000000000000000000000000000000000006
:10807A0000000000000000000000000000000000F6
:10808A0000000000000000000000000000000000E6
:10809A0000000000000000000000000000000000D6
:1080AA00000000000000FFFF0000000000000000C8
:1080BA0000000000000000000000000000000000B6
:1080CA0000000000000000000000000000000000A6
:1080DA000000000000000000000000000000000096
:1080EA000000000000000000000000000000000086
:1080FA000000000000000000000000000000000076
:10810A0000000000FFFF0000000000000000000067
:10811A000000000000000000000000000000000055
:10812A000000000000000000000000000000000045
:10813A000000000000000000000000000000000035
:10814A000000000000000000000000000000000025
:10815A000000000000000000000000000000000015
:10816A00000000000000FFFF000000000000000007
:10817A0000000000000000000000000000000000F5
:10818A0000000000000000000000000000000000E5
:10819A0000000000000000000000000000000000D5
:1081AA0000000000000000000000000000000000C5
:1081BA0000000000000000000000000000000000B5
:1081CA0000000000FFFF00000000000000000000A7
:1081DA000000000000000000000000000000000095
:1081EA000000000000000000000000000000000085
:1081FA000000000000000000000000000000000075
:10820A000000000000000000000000000000000064
:10821A000000000000000000000000000000000054
:10822A00000000000000FFFF000000000000000046
:10823A000000000000000000000000000000000034
:10824A000000000000000000000000000000000024
:10825A000000000000000000000000000000000014
:10826A000000000000000000000000000000000004
