:10000000FCFF0220CD110000FD030000FD030000F5
:10001000FD030000FD030000FD030000FD030000E0
:10002000FD030000FD030000FD030000FD030000D0
:10003000FD030000FD030000FD030000FD030000C0
:10004000FD030000FD030000FD030000FD030000B0
:10005000FD030000FD030000FD030000FD030000A0
:10006000FD030000FD030000FD030000FD03000090
:10007000FD030000FD030000FD030000FD03000080
:10008000FD030000FD030000FD030000FD03000070
:10009000FD030000FD030000FD030000FD03000060
:1000A000FD030000FD030000FD030000FD03000050
:1000B000FD030000FD030000FD030000FD03000040
:1000C000FD030000FD030000FD030000FD03000030
:1000D000FD030000FD030000FD030000FD03000020
:1000E000FD030000FD030000FD030000FD03000010
:1000F000FD030000FD030000FD030000FD03000000
:10010000FD030000FD030000FD030000FD030000EF
:10011000FD030000FD030000FD030000FD030000DF
:10012000FD030000FD030000FD030000FD030000CF
:10013000FD030000FD030000FD030000FD030000BF
:10014000FD030000FD030000FD030000FD030000AF
:10015000FD030000FD030000FD030000FD0300009F
:10016000FD030000FD030000FD030000FD0300008F
:10017000FD030000FD030000FD030000FD0300007F
:10018000FD030000FD030000FD030000FD0300006F
:08019000FD030000FD03000067
:1011CC0082B000F059F8FFF7E9FF04F05BFFFFF77E
:1011DC00EFFFFFF777FE234800220021FFF7E8FD21
:1011EC00FFF7D8FD204921480160FFF743FE142189
:1011FC0009B21F48019001802F211C48009001600A
:10120C00FFF76EFC42F62F7118480160FFF70AFDDC
:10121C000F2109B21648018042F600710098016056
:10122C00FFF75EFC134911480160FFF7FBFC4FF41C
:10123C003C110E4801600A2109B201980180FFF7A8
:10124C004FFC4FF02F1109480160FFF7EBFC052113
:10125C0009B207480180044900980160FFF7E2FCDD
:10126C00C5E7FEE7CC1700002F2F2F000000002051
:08127C0044000020002F2F00A8
:100D68004FF000094FF0000CBDEB0A0F04DCBDEB9F
:100D78000B0F01DBD446EA464BF8049BBBEB0A0F8A
:100D8800FAD1BCEB0A0F05DDE246D9F800B00BF149
:060D9800040BF1E77047B7
:100ED00081B0CDF800E00321A64801700021A648AA
:100EE00001604FF40051A548FFF70AFD4FF400419F
:100EF000A348FFF705FD4FF04001A248FFF700FDB2
:100F00004FF48011A048FFF7FBFCA04AA049A1487C
:100F1000FFF702FD012149B29F4801609F4801602F
:100F20009F480160FFF774FDFFF73CFD002149B2C7
:100F30009C480160FFF736FD012149B299480160E4
:100F4000FFF730FDFFF73AFD0121FD20FFF73EFDE1
:100F500008B102200AE100211220FFF737FD08B195
:100F6000022003E10121FD20FFF730FD08B102203E
:100F7000FCE00021B120FFF729FD08B10220F5E0D7
:100F80000121AE20FFF722FD08B10220EEE0012191
:100F9000B320FFF71BFD08B10220E7E00021F1209C
:100FA000FFF714FD08B10220E0E00121CA20FFF79D
:100FB0000DFD08B10220D9E000215F20FFF706FDFA
:100FC00008B10220D2E00121A020FFF7FFFC08B108
:100FD0000220CBE000216020FFF7F8FC08B10220DE
:100FE000C4E001211520FFF7F1FC08B10220BDE0AB
:100FF00000210020FFF7EAFC08B10220B6E0002142
:101000005F20FFF7E3FC08B10220AFE0012175206B
:10101000FFF7DCFC08B10220A8E000210020FFF768
:10102000D5FC08B10220A1E000215F20FFF7CEFC33
:1010300008B102209AE00121A120FFF7C7FC08B106
:10104000022093E000218020FFF7C0FC08B10220BD
:101050008CE00121A220FFF7B9FC08B1022085E055
:1010600000216020FFF7B2FC08B102207EE00121E0
:10107000B120FFF7ABFC08B1022077E0012132205C
:10108000FFF7A4FC08B1022070E00121BE20FFF7A9
:101090009DFC08B1022069E001210520FFF796FCC4
:1010A00008B1022062E00121A620FFF78FFC08B101
:1010B00002205BE00121C120FFF788FC08B102207B
:1010C00054E000218A20FFF781FC08B102204DE0A6
:1010D00000215120FFF77AFC08B1022046E00021F0
:1010E0008A20FFF773FC08B102203FE00121C720EE
:1010F000FFF76CFC08B1022038E00021CF20FFF799
:1011000065FC08B1022031E00121B420FFF75EFC4C
:1011100008B102202AE00021A020FFF757FC08B107
:10112000022023E00021B520FFF750FC08B1022087
:101130001CE000215520FFF749FC08B1022015E012
:101140000121B620FFF742FC08B102200EE0002189
:101150000120FFF73BFC08B1022007E00121AF208E
:10116000FFF734FC08B1022000E00020DDF800E0C9
:1011700001B070474E0000205000002080F00F406A
:10118000C0F00F4000F10F4040F00F40D45F00006E
:101190000700008680A81201980A9442180B944216
:0811A000980B94421820FE4355
:1009000081B0CDF800E0034AFFF7C4FEDDF800E057
:0809100001B07047040104006E
:1006940081B0CDF800E080460A4B984503D20A4B5E
:1006A400984500D909E0074BA8EB030303F03F0387
:1006B40003B102E04046FFF72DFFDDF800E001B092
:0C06C400704700BF00F00F4014F10F4021
:1005180083B0CDF800E006460C4615463046FFF796
:100528003DFE40F2FF1306EA03008009002622463A
:100538002946202E39D24FF0010303FA06F402EAC5
:1005480004031F46A3422ED104031A4B1C19B300FF
:10055800E51801952C68184B04EA03032B60174B28
:1005680001EA0304019B1B6843EA0404019B1C6025
:1005780001F48033B3F5803F15D08401104B1B196B
:100588001433029301F400333BB1FC43029B1B6814
:1005980003EA0404029B1C6005E0029B1B6843EA13
:1005A8000704029B1C60761CC3E7DDF800E003B07B
:1005B800704700BF009004400000FFFFFFFF0000ED
:0405C80000F00F40F0
:1001A40040F2FF1100EA01018909084600F2090240
:1001B4004FF0010101FA02F20349096841EA02021F
:0C01C40001490A60704700BF3880044009
:1009180081B0CDF800E003460C4615460648FFF7BF
:10092800FBFE224619462B460348FFF729FFDDF850
:0C09380000E001B0704700BF00C00A40A2
:100720000E49884206D10E4A0E490A600E4A0F4908
:100730000A6012E00E49884206D10E4A09490A6051
:100740000D4A0A490A6008E00C49884205D10C4A62
:1007500004490A600B4A05490A60704700C002401C
:10076000FFFFFFFF58480020FFFFFFFF5C4800200D
:1007700000D00240FFFFFFFFFFFFFFFF00C00A4065
:0807800075060000FFFFFFFFFA
:1007880084B0CDF800E00391014610460190029133
:100798001846FFF717FF0299019800F01004240982
:1007A8002746019002910846FFF732FF029902910D
:1007B8000846FFF735FE0299019800F000450C68DD
:1007C8002C430C6000F080450C682C430C600C68CE
:1007D80044F440540C600D686FF4804405EA040446
:1007E8000C6001F20C05BC002E1900F00F053468EE
:1007F8002C43346001F20C05BC002E1900F0806512
:1008080034682C43346001F20C05BC002E1900F04A
:10081800007534682C43346001F20C05BC002E19B5
:1008280000F0807534682C43346001F20C05BC007C
:100838002D196FF0F0442C6001F20C05BC002D1945
:1008480000F00F04E4062C600191039A0846F9B2FF
:10085800FFF72CFD01990846FFF7C4FDDDF800E01D
:0408680004B0704721
:1005CC0082B0CDF800E0014600208C4681000CEB97
:1005DC0001010968B1F1FF3F13D00CF13401830024
:1005EC00C91809680A460CEB03010968ADF8040048
:1005FC0008461146FFF7E6FDBDF80400401C80B22A
:0A060C00E4E7DDF800E002B07047FB
:1001D00082B0CDF800E081464FEA591202F00702E2
:1001E000924609F01F04A34693010D4AD3184FF01D
:1001F0000102A240019218460A46019900F04AFA0B
:100200004FEA0A33074AD3184FEA8B029C1809F4C5
:10021000E06322681A432260DDF800E002B0704714
:0802200000F00F4000900440C3
:100618000A49884203D1012252B209490A600949AC
:10062800884203D1012252B207490A600749884229
:1006380003D1012252B206490A60704700C0024045
:10064800B007904200D00240B407904200C00A4070
:040658003006904296
:1004280002686FF4804102EA01010160016841F04D
:100438000101016000F22C031A68124942EA010125
:10044800196000F208020021116000F20C024FF05E
:10045800F041116000F210024FF0F041116000F21B
:1004680030020021116000F234020021116001689D
:1004780041F440610160026844F2010142EA01016D
:080488000160704700000A9AB0
:1002B40091B0CDF800E00F9010468DF840100E90EC
:1002C40001AB1846FFF7AEFF4FF0FF330D93002349
:1002D40006930023089301230A9300230B9300231E
:1002E4000593059B042B41D20D9B002B3ED000238C
:1002F4000793079B102B35D20D9B002B32D0012383
:100304000993099B032B29D20D9B3BB3099C029BA8
:1003140003FB04F6059B9C002B4B1B191D68079BD4
:100324009C002A4B1B191B686B43B6FBF3F4204655
:100334000E9BA3420ED30E9B1C1A0C940D9BA3423E
:1003440008D90C9B0D93059B0693079B08930B9070
:10035400099B0A93099B5B1C0993D2E7079B5B1CCF
:100364000793C6E7059B5B1C0593BAE70F9B03F253
:100374000C049DF840309B00E5180A9B5B1EDC07CB
:100384002B6823432B600F9B03F20C049DF8403031
:100394009B00E518069B1B0403F440342B6823439D
:1003A4002B600F9B03F20C049DF840309B00E51872
:1003B400089B03F00F042B6823432B600B98DDF894
:1003C40000E011B0704700BF806000004060000092
:0003D40029
:1002280081B0CDF800E00446FFF7B2FF40F2E831B4
:1002380000FB01F3154909680A0F1449096801F020
:100248007061090EC8B21149096801F47001090DFD
:10025800CDB20E49096801F47021090CCEB2D1B2B1
:1002680003FA01F10F462360221D27FA00F11160FD
:1002780004F2080227FA05F1116004F20C0227FAC9
:1002880006F11160DDF800E001B0704744800440D9
:0002980066
:0C01980001480068704700BF5448002078
:0E03EC0002686FF0010102EA01010160704732
:100A1000002149B201480160704700BF3410FE4315
:000A2000D6
:1009A40049F63E47C0F2000700BF00BF7F1EFDD1DD
:0809B40000BF00BF00BF704747
:1009BC00012149B201480160704700BF3410FE4369
:0009CC002B
:1009CC0081B0CDF800E021B100235BB20B4A13607B
:1009DC0003E001235BB2094A136000235BB2084AAF
:1009EC001360C0B2FFF740FE01235BB2044A1360F0
:1009FC000020DDF800E001B0704700BF3C18FE435A
:040A0C005008FE434D
:1006740081B0CDF800E082B24FF080610348FFF70B
:1006840005FFDDF800E001B0704700BF00C00A407C
:0006940066
:1004900000F22C04236843F00043236000F234048C
:1004A00093B241EA0303236000F22C031C68C4F3F7
:0804B000C07303B9F8E77047BF
:100DBC0082B0CDF800E05FFA81FA5FFA82FB01465F
:100DCC008C1C2378D9B2641C23781B029BB2CB18E1
:100DDC001FFA83FC641C2178C9B2631C1B781B02AC
:100DEC009BB2CB189BB299B20AEB03039BB25B1E6E
:100DFC009BB2602B0ED8BAF1000F0BD30BEB0C038C
:100E0C009BB25B1E9BB2602B04D8BBF1000F01D3CD
:100E1C00002300E0012303B10BE001FB0CF4831D64
:100E2C00ADF80410A2B219461148FFF741FEBDF807
:100E3C000410ADF804105FFA8CF3CAB25FFA8BF1B0
:100E4C005FFA8AF0FFF7E6FDBDF8041001FB0CF326
:100E5C009BB25B009BB299B20548FFF76DFD08B1E0
:100E6C00022000E00020DDF800E002B0704700BF77
:040E7C0054000020FE
:100ABC0093B20A4600211446024698B281420DD2E6
:100ACC0023781B021380631C1D461C781388234358
:0E0ADC001380921C6B1C1C46491CEFE77047F0
:100A200081B0CDF800E000F21004E6B2CCB2E5B23D
:100A30005FFA82F8DFB240F2000901211520FFF7CA
:100A4000C5FF49EA00095FFA89F90021F0B2FFF712
:100A5000BDFF49EA00095FFA89F9A8F1010424B24F
:100A6000341924B2002120B2FFF7B0FF49EA00098F
:100A70005FFA89F901217520FFF7A8FF49EA00090B
:100A80005FFA89F90021E8B2FFF7A0FF49EA0009FF
:100A90005FFA89F97C1E24B22C1924B2002120B2FD
:100AA000FFF794FF49EA0004E4B2002C00D100E013
:0A0AB000C1E7DDF800E001B0704777
:1009440081B0CDF800E005460E4601215C2000F0A0
:100954003BF808B102201AE001235BB20E4A13608F
:1009640000235BB20D4A1360284605463046034611
:10097400421E164633B12A7890B2FFF779FE6D1CF9
:100984003046F4E701235BB2044A13600020DDF82B
:1009940000E001B0704700BF3C18FE435008FE431E
:0009A40053
:100DA00081B0CDF800E04FF400610348FFF7A8FDE3
:0C0DB000DDF800E001B0704740F00F409B
:100E800081B0CDF800E040F20109B9F1100F17D898
:100E90000D4800680D4A01465FFA89F0FFF7E6FC4D
:100EA00040F6FE07C0F23D0700BF00BF7F1EFDD128
:100EB00000BF00BF00BF09F101091FFA89F9E4E78B
:100EC000DDF800E001B070470000002004000020C1
:000ED00022
:10086C0081B0CDF800E013460A46C1B20020CFB2E9
:10087C0016461D465FFA80F8B8F1100F1CD27B1E8D
:10088C001BB298450DD14FEA8803EB181946304638
:10089C00FFF734FF4FEA8803EB181846FFF712FFF7
:1008AC0005E04FEA8803EB181846FFF70BFF08F139
:1008BC0001085FFA88F8DFE7FFF7CAFEDDF800E011
:0408CC0001B07047C0
:1007080000F0FF03020C12021343020A120443EA28
:0607180002020A607047B6
:1006D00081B0CDF800E0172464B20346002C0EDB95
:1006E0001A684FF00101A14002EA010111B9FFF7B8
:1006F000E3FE01E0FFF7F8FE641E64B2EEE7DDF80A
:0607000000E001B07047AB
:1004B80081B0CDF800E0012149B20848016003206D
:1004C800FFF7E6FE002149B2044801600720FFF764
:1004D800DFFEDDF800E001B0704700BF2C08FE43E6
:0004E80014
:1002980000BFAFF30080401E401E00BF00BF00BF7C
:0C02A80000BF00BF00BF00BFF6D17047D0
:1004E80081B0CDF800E0012149B208480160072039
:1004F800FFF7CEFE002149B2044801600620FFF74D
:10050800C7FEDDF800E001B0704700BF2C08FE43CD
:00051800E3
:10065C0081B0CDF800E0FFF7B7FEFFF7D3FEDDF871
:06066C0000E001B0704740
:1003D40040F2CE77C0F2000700BF00BF7F1EFDD100
:0803E40000BF00BF00BF70471D
:1004100040F28E17C0F2000700BF00BF7F1EFDD163
:0804200000BF00BF00BF7047E0
:100AEC0081B0CDF800E049480068494A014604202D
:100AFC00FFF7B6FEFFF7E6FE44480068444A01469D
:100B0C000320FFF7ADFEFFF7DDFE40480068404ACA
:100B1C0001460220FFF7A4FEFFF7D4FE3B48006815
:100B2C003B4A01460120FFF79BFEFFF7CBFE3748FF
:100B3C000068374A01460520FFF792FEFFF7C2FE18
:100B4C0032480068324A01460920FFF789FEFFF758
:100B5C00B9FE2E4800682E4A01460D20FFF780FE94
:100B6C00FFF7B0FE29480068294A01460E20FFF71E
:100B7C0077FEFFF7A7FE25480068254A01460F209F
:100B8C00FFF76EFEFFF79EFE20480068204A0146E4
:100B9C001020FFF765FEFFF795FE1C4800681C4A05
:100BAC0001460C20FFF75CFEFFF78CFE174800682F
:100BBC00174A01460820FFF753FEFFF783FE134840
:100BCC000068134A01460720FFF74AFEFFF77AFE3A
:100BDC000E4800680E4A01460620FFF741FEFFF75B
:100BEC0071FE0A4800680A4A01460A20FFF738FEDF
:100BFC00FFF768FE05480068054A01460B20FFF721
:100C0C002FFEDDF800E001B0704700BF00000020AF
:040C1C0004000020B0
:1008D00001210A48B0F9000081420DD840F63E5788
:1008E000C0F2030700BF00BF7F1EFDD100BF00BFE5
:1008F00000BF491C89B2ECE7704700BF44000020EC
:00090000F7
:100C300081B0CDF800E04A4800684A4A01460B20DE
:100C4000FFF714FEFFF744FE45480068454A014699
:100C50000A20FFF70BFEFFF73BFE41480068414AC0
:100C600001460620FFF702FEFFF732FE3C4800680F
:100C70003C4A01460720FFF7F9FDFFF729FE3848F7
:100C80000068384A01460820FFF7F0FDFFF720FE14
:100C900033480068334A01460C20FFF7E7FDFFF7B1
:100CA00017FE2F4800682F4A01461020FFF7DEFD8F
:100CB000FFF70EFE2A4800682A4A01460F20FFF778
:100CC000D5FDFFF705FE26480068264A01460E209E
:100CD000FFF7CCFDFFF7FCFD21480068214A0146E3
:100CE0000D20FFF7C3FDFFF7F3FD1D4800681D4A07
:100CF00001460920FFF7BAFDFFF7EAFD1848006832
:100D0000184A01460520FFF7B1FDFFF7E1FD144841
:100D10000068144A01460120FFF7A8FDFFF7D8FD3F
:100D20000F4800680F4A01460220FFF79FFDFFF7BA
:100D3000CFFD0B4800680B4A01460320FFF796FDE4
:100D4000FFF7C6FD06480068064A01460420FFF783
:100D50008DFDFFF7BDFDDDF800E001B0704700BF7D
:080D6000000000200400002047
:100C20001CF8019B0BF8019BBBEB0A0FF8D1704736
:000C3000C4
:101284008FB072B6974800909748019097480290A3
:10129400974803909748049097480590974806907C
:1012A40097480790974808909748099097480A905C
:1012B40097480B90974998480C9098480D900C9833
:1012C40000F007000E9001F0010050B94CF22050DC
:1012D400934908804DF62810088040F2D2119148B5
:1012E40001800021904801609048007800F00100DE
:1012F400C0B258B18E48007800F00800C0B220B1E6
:101304008B49087840F00800087021E0894800689B
:1013140040F00051874801608748006800F48070FD
:10132400B0B9854801686FF4705001EA000040F4D8
:101334004071814801608048006840F480717E48B3
:1013440001607D4801686FF4007001407A480160D3
:10135400AA217A4801700C9800F0100058B9784816
:10136400007800F09F0176480170764800780128E3
:1013740000D0FAE71BE00C9800F01000B8B10D990A
:101384007148814208D960216D4801706D48007828
:10139400802800D0FAE70AE06948007800F09F014D
:1013A4006748017067480078012800D0FAE703997C
:1013B40066480160664801686FF440200140019866
:1013C40000F44020014362480160624801686FF400
:1013D40040300140029800F4403001435D48016010
:1013E4000E9830B10E98012803D00E98022800D030
:1013F40064E0009800F0800050B9079800F04000C5
:1014040028B10A9800F00300002800D100E015E09C
:101414005148006840F400714F4801604F4801682A
:101424004F4801404D480160059800F0040028B180
:101434004C4801684A4801404A48016009994A48B1
:101444000170049949480170049800F0040040B107
:101454004748007800F01000C0B2002800D1F7E738
:1014640006E04348007800F01000C0B200B1F8E78D
:101474004048007800F0BF01C9B2059800F0FD00B3
:1014840001433C480170069800F0E0013A480078B6
:1014940000F01F00C0B2014337480170009937487B
:1014A40001700A99364801700E98022805D1314816
:1014B400007840F002012F480170BDE0009800F070
:1014C400800020B90A9800F0030000B166E02248C9
:1014D400006840F4007120480160204801682048F9
:1014E40001404FE0800000000000080000000100FF
:1014F400000044012200000024000000000000005D
:10150400020000004600000000000000000000008F
:10151400090000000000000007000000C0D4010022
:101524000E2005400020054008ED00E000F00740D3
:1015340002D007403C80044010D0034000E0074044
:1015440001E0074003E00740803801004480044084
:1015540000700440048004403880044048900440F3
:10156400FFF8FFFE4C90044008400640004006404F
:101574000640064001400640034006400050064035
:101584000C4006407F480160059800F0040028B133
:101594007D4801687D4801407B48016009997C4889
:1015A40001707C48007800F0BF01C9B2059800F0D2
:1015B400FD000143774801700099774801700A994A
:1015C400764801700E98072805D1049840F08001F0
:1015D4007348017002E0049971480170059800F0A5
:1015E400040050B10A9800F0030030B96D48007847
:1015F40000F00200C0B200B9F8E7049800F004005B
:1016040040B16848007800F01000C0B2002800D152
:10161400F7E706E06348007800F01000C0B200B1BC
:10162400F8E7069800F0E0015F48007800F01F003A
:10163400C0B201435C480170079800F0BF015B48E9
:101644000170089800F0BF0159480170079800F034
:10165400400028B15548007840F0400153480170DB
:101664000E98052806D14B48007840F002014948FD
:1016740001701CE00E98062803D00E98072800D0AD
:1016840015E04B48007840F0400149480170454856
:10169400007800F04000C0B200B9F8E70E980728BF
:1016A40005D13F48007800F03F013D4801700E9895
:1016B40018B10E98032800D029E03A48007800F0C9
:1016C4000C00C0B200B1F8E73A48006840F00101EC
:1016D40038480160002138480160802137480160A2
:1016E400052137480160012134480160334800680E
:1016F40000F0800000B9F9E70021304801602D486E
:1017040001686FF0010001402A4801602DE00E9845
:10171400012803D00E98022800D008E02148007860
:1017240000F00C00C0B2042800D0F7E71DE00E98CA
:10173400042806D00E98062803D00E98052800D059
:1017440008E01848007800F00C00C0B2082800D067
:10175400F7E70AE00E98072807D11248007800F04E
:101764000C00C0B20C2800D0F7E7164801686FF0EF
:101774000F0001400B9800F00F0001431148016075
:101784000FB07047489004404C900440FFF8FFFEAF
:101794000840064001400640005006400C40064008
:1017A4000040064006400640034006400440064010
:1017B400054006403880044008000440000004400E
:0817C4000400044048800440C9
:1011BC000149024801607047C0D401005448002026
:0011CC0023
:0403FC00FEE7704761
:1011A80072B60349086840F470000860704700BFD1
:0411B80088ED00E0DE
:1060900000B5DFF810B0DFF810A0FAF765FE00BD1C
:0C60A000704700BF000000206048002096
:10040000FFFFFFFFFFFFFFFFFFFFFFFF02FDFFFFFB
:1017CC000007600060000000000000000000000046
:1017DC0000000000000000000000000000000000FD
:1017EC0000000000000000000000000000000000ED
:1017FC0000000000000000000000000000000000DD
:10180C0000000000000000000000000000000000CC
:101EBC00000000000000000000000000FFFFFFFF1A
:101ECC000000000000000000000000000000000006
:101EDC0000000000000000000000FFFFFFFF0000FA
:101EEC0000000000000000000000FFFFFFFFFFFFEC
:101EFC00FFFFFFFFFFFF0000000000000000FFFFDE
:101F0C00FFFFFFFFFFFFFFFF00000000FFFFFFFFD1
:101F1C00FFFFFFFFFFFFFFFF0000000000000000BD
:101F2C0000000000000000000000000000000000A5
:101F3C000000000000000000000000000000000095
:101F4C000000000000000000000000000000000085
:101F5C000000000000000000000000000000000075
:101F6C000000000000000000000000000000000065
:101F7C0000000000000000000000FFFFFFFFFFFF5B
:101F8C000000000000000000000000000000000045
:101F9C000000000000000000FFFFFFFFFFFF00003B
:101FAC0000000000000000000000FFFFFFFF000029
:101FBC0000000000FFFFFFFF00000000FFFFFFFF1D
:101FCC000000000000000000FFFF0000FFFFFFFF0B
:101FDC00000000000000FFFFFFFF000000000000F9
:101FEC0000000000000000000000000000000000E5
:101FFC0000000000000000000000000000000000D5
:10200C0000000000000000000000000000000000C4
:10201C0000000000000000000000000000000000B4
:10202C0000000000000000000000000000000000A4
:10203C000000000000000000FFFF0000FFFFFFFF9A
:10204C0000000000FFFFFFFF00000000FFFFFFFF8C
:10205C00000000000000FFFF0000FFFFFFFF00007A
:10206C0000000000000000000000FFFFFFFF000068
:10207C0000000000FFFFFFFF00000000FFFFFFFF5C
:10208C000000000000000000FFFF0000FFFFFFFF4A
:10209C00000000000000FFFFFFFF00000000000038
:1020AC000000000000000000000000000000000024
:1020BC000000000000000000000000000000000014
:1020CC000000000000000000000000000000000004
:1020DC0000000000000000000000000000000000F4
:1020EC0000000000000000000000000000000000E4
:1020FC00000000000000FFFF00000000FFFFFFFFDA
:10210C0000000000FFFFFFFF00000000FFFFFFFFCB
:10211C0000000000FFFF00000000FFFFFFFF0000B9
:10212C0000000000000000000000FFFFFFFF0000A7
:10213C0000000000FFFFFFFF00000000FFFFFFFF9B
:10214C00000000000000000000000000FFFFFFFF87
:10215C00000000000000FFFFFFFF00000000000077
:10216C000000000000000000000000000000000063
:10217C000000000000000000000000000000000053
:10218C000000000000000000000000000000000043
:10219C000000000000000000000000000000000033
:1021AC000000000000000000000000000000000023
:1021BC0000000000FFFF000000000000FFFFFFFF19
:1021CC00000000000000FFFFFFFFFFFFFFFF00000B
:1021DC000000FFFF000000000000FFFFFFFF0000F9
:1021EC0000000000000000000000FFFFFFFFFFFFE9
:1021FC00FFFFFFFFFFFF000000000000FFFFFFFFDD
:10220C0000000000FFFFFFFFFFFF0000FFFFFFFFCC
:10221C00FFFFFFFFFFFFFFFF0000000000000000BA
:10222C0000000000000000000000000000000000A2
:10223C000000000000000000000000000000000092
:10224C000000000000000000000000000000000082
:10225C000000000000000000000000000000000072
:10226C000000000000000000000000000000000062
:10227C0000000000FFFFFFFFFFFFFFFFFFFFFFFF5E
:10228C00FFFF000000000000FFFFFFFF0000000048
:10229C000000FFFFFFFFFFFFFFFFFFFFFFFFFFFF40
:1022AC0000000000000000000000FFFFFFFF000026
:1022BC00FFFFFFFF0000000000000000FFFFFFFF1A
:1022CC00000000000000FFFFFFFF0000FFFFFFFF0A
:1022DC00000000000000FFFFFFFF000000000000F6
:1022EC0000000000000000000000000000000000E2
:1022FC0000000000000000000000000000000000D2
:10230C0000000000000000000000000000000000C1
:10231C0000000000000000000000000000000000B1
:10232C0000000000000000000000000000000000A1
:10233C00000000000000000000000000FFFFFFFF95
:10234C00000000000000FFFFFFFFFFFFFFFF000089
:10235C0000000000000000000000FFFFFFFF000075
:10236C0000000000000000000000FFFFFFFF000065
:10237C000000FFFFFFFF000000000000FFFFFFFF59
:10238C00000000000000FFFFFFFF0000FFFFFFFF49
:10239C00000000000000FFFFFFFF00000000000035
:1023AC000000000000000000000000000000000021
:1023BC000000000000000000000000000000000011
:1023CC000000000000000000000000000000000001
:1023DC0000000000000000000000000000000000F1
:1023EC0000000000000000000000000000000000E1
:1023FC00000000000000000000000000FFFFFFFFD5
:10240C0000000000FFFFFFFF00000000FFFFFFFFC8
:10241C0000000000000000000000FFFFFFFF0000B4
:10242C0000000000000000000000FFFFFFFF0000A4
:10243C0000000000FFFFFFFF00000000FFFFFFFF98
:10244C00000000000000FFFFFFFF0000FFFFFFFF88
:10245C00000000000000FFFFFFFF00000000000074
:10246C000000000000000000000000000000000060
:10247C000000000000000000000000000000000050
:10248C000000000000000000000000000000000040
:10249C000000000000000000000000000000000030
:1024AC000000000000000000000000000000000020
:1024BC00000000000000000000000000FFFFFFFF14
:1024CC0000000000FFFFFFFF00000000FFFFFFFF08
:1024DC0000000000000000000000FFFFFFFF0000F4
:1024EC0000000000000000000000FFFFFFFF0000E4
:1024FC00000000000000FFFFFFFF00000000FFFFD6
:10250C00FFFFFFFFFFFFFFFFFFFF0000FFFFFFFFCD
:10251C00FFFFFFFFFFFFFFFF0000000000000000B7
:10252C00000000000000000000000000000000009F
:10253C00000000000000000000000000000000008F
:10254C00000000000000000000000000000000007F
:10255C00000000000000000000000000000000006F
:10293C0000000000000000000000FFFFFFFFFFFF91
:10294C00FFFFFFFFFFFFFFFFFFFFFFFFFFFFFFFF8B
:10295C00FFFFFFFFFFFFFFFFFFFFFFFFFFFFFFFF7B
:10296C00FFFFFFFFFFFFFFFFFFFFFFFFFFFFFFFF6B
:10297C00FFFFFFFFFFFFFFFFFFFFFFFFFFFFFFFF5B
:10298C00FFFFFFFFFFFFFFFFFFFFFFFFFFFFFFFF4B
:10299C00FFFF00000000000000000000000000002D
:1029AC00000000000000000000000000000000001B
:1029BC00000000000000000000000000000000000B
:1029CC0000000000000000000000000000000000FB
:1029DC0000000000000000000000000000000000EB
:1029EC0000000000000000000000000000000000DB
:1029FC0000000000000000007DEFFFFF821082103D
:102A0C0082108210821082108210000000000000E0
:102A1C0000000000000082108210821082108210D0
:102A2C00821082108210821082108210821082100A
:102A3C0082108210821082108210821082108210FA
:102A4C0082108210821082108210821082108210EA
:102A5C00FFFFFFFF0000000000000000000000006E
:102A6C00000000000000000000000000000000005A
:102A7C00000000000000000000000000000000004A
:102A8C00000000000000000000000000000000003A
:102A9C00000000000000000000000000000000002A
:102AAC00000000000000000000000000000000001A
:102ABC000000000000003CE7FFFF000000000000E9
:102ACC0000000000000000000000000000000000FA
:102ADC0000000000000000000000000000000000EA
:102AEC0000000000000000000000000000000000DA
:102AFC0000000000000000000000000000000000CA
:102B0C0000000000000000000000000000000000B9
:102B1C000000FFFFFFFF00000000000000000000AD
:102B2C000000000000000000000000000000000099
:102B3C000000000000000000000000000000000089
:102B4C000000000000000000000000000000000079
:102B5C000000000000000000000000000000000069
:102B6C000000000000000000000000000000000059
:102B7C00000000000000FFFF00000000000000004B
:102B8C000000000000000000000000000000000039
:102B9C000000000000000000000000000000000029
:102BAC000000000000000000000000000000000019
:102BBC000000000000000000000000000000000009
:102BCC0000000000000000000000000000000000F9
:102BDC0000000000FFFF00000000000000000000EB
:102BEC0000000000000000000000000000000000D9
:102BFC0000000000000000000000000000000000C9
:102C0C0000000000000000000000000000000000B8
:102C1C0000000000000000000000000000000000A8
:102C2C000000000000000000000000000000000098
:102C3C00000000000000FFFF00000000000000008A
:102C4C000000000000000000000000000000000078
:102C5C000000000000000000000000000000000068
:102C6C000000000000000000000000000000000058
:102C7C000000000000000000000000000000000048
:102C8C000000000000000000000000000000000038
:102C9C0000000000FFFF000000000000000000002A
:102CAC000000000000000000000000000000000018
:102CBC000000000000000000000000000000000008
:102CCC0000000000000000000000000000000000F8
:102CDC0000000000000000000000000000000000E8
:102CEC0000000000000000000000000000000000D8
:102CFC00000000000000FFFF0000000000000000CA
:102D0C0000000000000000000000000000000000B7
:102D1C0000000000000000000000000000000000A7
:102D2C000000000000000000000000000000000097
:102D3C000000000000000000000000000000000087
:102D4C000000000000000000000000000000000077
:102D5C0000000000FFFF0000000000000000000069
:102D6C000000000000000000000000000000000057
:102D7C000000000000000000000000000000000047
:102D8C000000000000000000000000000000000037
:102D9C000000000000000000000000000000000027
:102DAC000000000000000000000000000000000017
:102DBC00000000000000FFFF000000000000000009
:102DCC0000000000000000000000000000000000F7
:102DDC0000000000000000000000000000000000E7
:102DEC0000000000000000000000000000000000D7
:102DFC0000000000000000000000000000000000C7
:102E0C0000000000000000000000000000000000B6
:102E1C0000000000FFFF00000000000000000000A8
:102E2C000000000000000000000000000000000096
:102E3C000000000000000000000000000000000086
:102E4C000000000000000000000000000000000076
:102E5C000000000000000000000000000000000066
:102E6C000000000000000000000000000000000056
:102E7C00000000000000FFFF000000000000000048
:102E8C000000000000000000000000000000000036
:102E9C000000000000000000000000000000000026
:102EAC000000000000000000000000000000000016
:102EBC000000000000000000000000000000000006
:102ECC0000000000000000000000000000000000F6
:102EDC0000000000FFFF00000000000000000000E8
:102EEC0000000000000000000000000000000000D6
:102EFC0000000000000000000000000000000000C6
:102F0C0000000000000000000000000000000000B5
:102F1C0000000000000000000000000000000000A5
:102F2C000000000000000000000000000000000095
:102F3C00000000000000FFFF000000000000000087
:102F4C000000000000000000000000000000000075
:102F5C000000000000000000000000000000000065
:102F6C0000000000000041180000000000000000FC
:102F7C000000000000080008000000000000000035
:102F8C000000000000000000000000000000000035
:102F9C0000000000FFFF0000000000000000000027
:102FAC000000000000000000000000000000000015
:102FBC000000000000000000000000000000000005
:102FCC0000000000000000000000000000000000F5
:102FDC0000000000000000000000000000000000E5
:102FEC0000000000000000000000000000000000D5
:102FFC00000000000000FFFF0000000000000000C7
:10300C0000000000000000000000000000000000B4
:10301C0000000000000000000000000000000000A4
:10302C0000000000412886D90491412000000000D6
:10303C000000412045B945B100100000000000001F
:10304C000000000000000000000000000000000074
:10305C0000000000FFFF0000000000000000000066
:10306C000000000000000000000000000000000054
:10307C000000000000000000000000000000000044
:10308C000000000000000000000000000000000034
:10309C000000000000000000000000000000000024
:1030AC000000000000000000000000000000000014
:1030BC00000000000000FFFF000000000000000006
:1030CC0000000000000000000000000000000000F4
:1030DC00000000008240C378C478C480C3704120D3
:1030EC0000000000412887E987F986D9C3680008E9
:1030FC000000824087F187E94120000000000000B9
:10310C0000000000000000000000000000000000B3
:10311C0000000000FFFF00000000000000000000A5
:10312C000000000000000000000000000000000093
:10313C000000000000000000000000000000000083
:10314C000000000000000000000000000000000073
:10315C000000000000000000000000000000000063
:10316C000000000000000000000000000000000053
:10317C00000000000000FFFF000000000000000045
:10318C000000000000000000000000000000000033
:10319C000000000045B987E10491049946D186D915
:1031AC0041280000412887E187E987E987F145C17B
:1031BC008240423887E987E141200000000000008E
:1031CC0000000000000000000000000000000000F3
:1031DC0000000000FFFF00000000000000000000E5
:1031EC0000000000000000000000000000000000D3
:1031FC0000000000000000000000000000000000C3
:10320C0000000000000000000000000000000000B2
:10321C0000000000000000000000000000000000A2
:10322C000000000000000000000000000000000092
:10323C00000000000000FFFF000000000000000084
:10324C000000000000000000000000000000000072
:10325C000000000045C105A9000000004130C8F97C
:10326C0083600000412887E187E987E987E987F1D6
:10327C0087E945B987E987E141200000000000009B
:10328C000000000000000000000000000000000032
:10329C0000000000FFFF0000000000000000000024
:1032AC000000000000000000000000000000000012
:1032BC000000000000000000000000000000000002
:1032CC0000000000000000000000000000000000F2
:1032DC0000000000000000000000000000000000E2
:1032EC0000000000000000000000000000000000D2
:1032FC00000000000000FFFF0000000000000000C4
:10330C0000000000000000000000000000000000B1
:10331C000000000045B946D1C368C36805B186D921
:10332C0041280000412887E187E987E987E987E997
:10333C0087E987F187E987E1412000000000000060
:10334C000000000000000000000000000000000071
:10335C0000000000FFFF0000000000000000000063
:10336C000000000000000000000000000000000051
:10337C000000000000000000000000000000000041
:10338C000000000000000000000000000000000031
:10339C000000000000000000000000000000000021
:1033AC000000000000000000000000000000000011
:1033BC00000000000000FFFF000000000000000003
:1033CC0000000000000000000000000000000000F1
:1033DC000000000045B986D904A187E986D94120AF
:1033EC0000000000412887E187E987E987E987F138
:1033FC0087E946C987E987E1412000000000000009
:10340C0000000000000000000000000000000000B0
:10341C0000000000FFFF00000000000000000000A2
:10342C000000000000000000000000000000000090
:10343C000000000000000000000000000000000080
:10344C000000000000000000000000000000000070
:10345C000000000000000000000000000000000060
:10346C000000000000000000000000000000000050
:10347C00000000000000FFFF000000000000000042
:10348C000000000000000000000000000000000030
:10349C000000000045C105A90000423887E90489F5
:1034AC0000000000412887E187E987E987F146D1D0
:1034BC008258824087E987E141200000000000002B
:1034CC0000000000000000000000000000000000F0
:1034DC0000000000FFFF00000000000000000000E2
:1034EC0000000000000000000000000000000000D0
:1034FC0000000000000000000000000000000000C0
:10350C0000000000000000000000000000000000AF
:10351C00000000000000000000000000000000009F
:10352C00000000000000000000000000000000008F
:10353C00000000000000FFFF000000000000000081
:10354C00000000000000000000000000000000006F
:10355C000000000046C945B900000000C378C8F956
:10356C0082480000412887E187F187E1048901182E
:10357C000000823887E987E141200000000000004C
:10358C00000000000000000000000000000000002F
:10359C0000000000FFFF0000000000000000000021
:1035AC00000000000000000000000000000000000F
:1035BC0000000000000000000000000000000000FF
:1035CC0000000000000000000000000000000000EF
:1035DC0000000000000000000000000000000000DF
:1035EC0000000000000000000000000000000000CF
:1035FC00000000000000FFFF0000000000000000C1
:10360C0000000000000000000000000000000000AE
:10361C0000000000C378C37000000000000804998B
:10362C0082580000412887E105A9413000000000C4
:10363C000000423887F187E94118000000000000C3
:10364C00000000000000000000000000000000006E
:10365C0000000000FFFF0000000000000000000060
:10366C00000000000000000000000000000000004E
:10367C00000000000000000000000000000000003E
:10368C00000000000000000000000000000000002E
:10369C00000000000000000000000000000000001E
:1036AC00000000000000000000000000000000000E
:1036BC00000000000000FFFF000000000000000000
:1036CC0000000000000000000000000000000000EE
:1036DC0000000000000000000000000000000000DE
:1036EC000000000000084130000000000000000055
:1036FC000000000882384238000000000000000082
:10370C0000000000000000000000000000000000AD
:10371C0000000000FFFF000000000000000000009F
:10372C00000000000000000000000000000000008D
:10373C00000000000000000000000000000000007D
:10374C00000000000000000000000000000000006D
:10375C00000000000000000000000000000000005D
:10376C00000000000000000000000000000000004D
:10377C00000000000000FFFF00000000000000003F
:10378C00000000000000000000000000000000002D
:10379C00000000000000000000000000000000001D
:1037AC00000000000000000000000000000000000D
:1037BC0000000000000000000000000000000000FD
:1037CC0000000000000000000000000000000000ED
:1037DC0000000000FFFF00000000000000000000DF
:1037EC0000000000000000000000000000000000CD
:1037FC0000000000000000000000000000000000BD
:10380C0000000000000000000000000000000000AC
:10381C00000000000000000000000000000000009C
:10382C00000000000000000000000000000000008C
:10383C00000000000000FFFF00000000000000007E
:10384C00000000000000000000000000000000006C
:10385C00000000000000000000000000000000005C
:10386C0000000000000081000000000000000000CB
:10387C00000000000000000000000000000000003C
:10388C00000000000000000000000000000000002C
:10389C0000000000FFFF000000000000000000001E
:1038AC00000000000000000000000000000000000C
:1038BC0000000000000000000000000000000000FC
:1038CC0000000000000000000000000000000000EC
:1038DC0000000000000000000000000000000000DC
:1038EC0000000000000000000000000000000000CC
:1038FC00000000000000FFFF0000000000000000BE
:10390C0000000000000000000000000000000000AB
:10391C00000000000000000000000000000000009B
:10392C0000000000C200AA04060381000000000091
:10393C000000C1002904C803410000000000000081
:10394C00000000000000000000000000000000006B
:10395C0000000000FFFF000000000000000000005D
:10396C00000000000000000000000000000000004B
:10397C00000000000000000000000000000000003B
:10398C00000000000000000000000000000000002B
:10399C00000000000000000000000000000000001B
:1039AC00000000000000000000000000000000000B
:1039BC00000000000000FFFF0000000000000000FD
:1039CC0000000000000000000000000000000000EB
:1039DC000000000040008502290469042804C40189
:1039EC000000000002016B05AC05AA0404020000F3
:1039FC0000004301AB056B05C10000000000000096
:103A0C0000000000000000000000000000000000AA
:103A1C0000000000FFFF000000000000000000009C
:103A2C00000000000000000000000000000000008A
:103A3C00000000000000000000000000000000007A
:103A4C00000000000000000000000000000000006A
:103A5C00000000000000000000000000000000005A
:103A6C00000000000000000000000000000000004A
:103A7C00000000000000FFFF00000000000000003C
:103A8C00000000000000000000000000000000002A
:103A9C0000004000C8032B058502C4014703EC0558
:103AAC000402000002012B056B056B056B05280455
:103ABC00420102016B052B05C10000000000000053
:103ACC0000000000000000000000000000000000EA
:103ADC0000000000FFFF00000000000000000000DC
:103AEC0000000000000000000000000000000000CA
:103AFC0000000000000000000000000000000000BA
:103B0C0000000000000000000000000000000000A9
:103B1C000000000000000000000000000000000099
:103B2C000000000000000000000000000000000089
:103B3C00000000000000FFFF00000000000000007B
:103B4C000000000000000000000000000000000069
:103B5C0000008301AC050402000000000000850297
:103B6C008301000002012B056B052B056B056B0512
:103B7C002A0528042B052B05C100000000000000BD
:103B8C000000000000000000000000000000000029
:103B9C0000000000FFFF000000000000000000001B
:103BAC000000000000000000000000000000000009
:103BBC0000000000000000000000000000000000F9
:103BCC0000000000000000000000000000000000E9
:103BDC0000000000000000000000000000000000D9
:103BEC0000000000000000000000000000000000C9
:103BFC00000000000000FFFF0000000000000000BB
:103C0C0000000000000000000000000000000000A8
:103C1C000000C6022B05C100000002010402C40111
:103C2C00C200000002012B056B052B052B052B0593
:103C3C006B05AB056B052B05C100000000000000F7
:103C4C000000000000000000000000000000000068
:103C5C0000000000FFFF000000000000000000005A
:103C6C000000000000000000000000000000000048
:103C7C000000000000000000000000000000000038
:103C8C000000000000000000000000000000000028
:103C9C000000000000000000000000000000000018
:103CAC000000000000000000000000000000000008
:103CBC00000000000000FFFF0000000000000000FA
:103CCC0000000000000000000000000000000000E8
:103CDC00000085026B05C2000000450228042A057D
:103CEC002804000002012B056B052B052B056B0529
:103CFC006B05AA042B052B05C10000000000000079
:103D0C0000000000000000000000000000000000A7
:103D1C0000000000FFFF0000000000000000000099
:103D2C000000000000000000000000000000000087
:103D3C000000000000000000000000000000000077
:103D4C000000000000000000000000000000000067
:103D5C000000000000000000000000000000000057
:103D6C000000000000000000000000000000000047
:103D7C00000000000000FFFF000000000000000039
:103D8C000000000000000000000000000000000027
:103D9C0000000201AB050603000000000000C80390
:103DAC00A904000002012B056B056B05AB05EA04A9
:103DBC00450283016B052B05C100000000000000CB
:103DCC0000000000000000000000000000000000E7
:103DDC0000000000FFFF00000000000000000000D9
:103DEC0000000000000000000000000000000000C7
:103DFC0000000000000000000000000000000000B7
:103E0C0000000000000000000000000000000000A6
:103E1C000000000000000000000000000000000096
:103E2C000000000000000000000000000000000086
:103E3C00000000000000FFFF000000000000000078
:103E4C000000000000000000000000000000000066
:103E5C000000000085026B052904470328042B058C
:103E6C00C602000002012B05AB056B054703C2001F
:103E7C00000043016B052B05C10000000000000091
:103E8C000000000000000000000000000000000026
:103E9C0000000000FFFF0000000000000000000018
:103EAC000000000000000000000000000000000006
:103EBC0000000000000000000000000000000000F6
:103ECC0000000000000000000000000000000000E6
:103EDC0000000000000000000000000000000000D6
:103EEC0000000000000000000000000000000000C6
:103EFC00000000000000FFFF0000000000000000B8
:103F0C0000000000000000000000000000000000A5
:103F1C000000000000000201850206038502020178
:103F2C000000000002016B052904430100000000A1
:103F3C0000004301AB056B05810000000000000090
:103F4C000000000000000000000000000000000065
:103F5C0000000000FFFF0000000000000000000057
:103F6C000000000000000000000000000000000045
:103F7C000000000000000000000000000000000035
:103F8C000000000000000000000000000000000025
:103F9C000000000000000000000000000000000015
:103FAC000000000000000000000000000000000005
:103FBC00000000000000FFFF0000000000000000F7
:103FCC0000000000000000000000000000000000E5
:103FDC0000000000000000000000000000000000D5
:103FEC000000000040004301400000000000000001
:103FFC0000004000C401830100000000000000002C
:10400C0000000000000000000000000000000000A4
:10401C0000000000FFFF0000000000000000000096
:10402C000000000000000000000000000000000084
:10403C000000000000000000000000000000000074
:10404C000000000000000000000000000000000064
:10405C000000000000000000000000000000000054
:10406C000000000000000000000000000000000044
:10407C00000000000000FFFF000000000000000036
:10408C000000000000000000000000000000000024
:10409C000000000000000000000000000000000014
:1040AC000000000000000000000000000000000004
:1040BC0000000000000000000000000000000000F4
:1040CC0000000000000000000000000000000000E4
:1040DC0000000000FFFF00000000000000000000D6
:1040EC0000000000000000000000000000000000C4
:1040FC0000000000000000000000000000000000B4
:10410C0000000000000000000000000000000000A3
:10411C000000000000000000000000000000000093
:10412C000000000000000000000000000000000083
:10413C00000000000000FFFF000000000000000075
:10414C000000000000000000000000000000000063
:10415C000000000000000000000000000000000053
:10416C000000000000004200000000000000000001
:10417C000000000000000000000000000000000033
:10418C000000000000000000000000000000000023
:10419C0000000000FFFF0000000000000000000015
:1041AC000000000000000000000000000000000003
:1041BC0000000000000000000000000000000000F3
:1041CC0000000000000000000000000000000000E3
:1041DC0000000000000000000000000000000000D3
:1041EC0000000000000000000000000000000000C3
:1041FC00000000000000FFFF0000000000000000B5
:10420C0000000000000000000000000000000000A2
:10421C000000000048018E02CF02CF024C02830046
:10422C0000000000C400B904CF02420000000000EE
:10423C000000C400D50394034200000000000000FD
:10424C000000000000000000000000000000000062
:10425C0000000000FFFF0000000000000000000054
:10426C000000000000000000000000000000000042
:10427C000000000000000000000000000000000032
:10428C000000000000000000000000000000000022
:10429C000000000000000000000000000000000012
:1042AC000000000000000000000000000000000002
:1042BC00000000000000FFFF0000000000000000F4
:1042CC0000000000000000000000000000000000E2
:1042DC000000000077047C059303D5033C05B8046B
:1042EC00830000000501BD05FF05B904CA010000EB
:1042FC0000008801FF05BE05C4000000000000009E
:10430C0000000000000000000000000000000000A1
:10431C0000000000FFFF0000000000000000000093
:10432C000000000000000000000000000000000081
:10433C000000000000000000000000000000000071
:10434C000000000000000000000000000000000061
:10435C000000000000000000000000000000000051
:10436C000000000000000000000000000000000041
:10437C00000000000000FFFF000000000000000033
:10438C000000000000000000000000000000000021
:10439C0000000000B8043504000000004C02FF05CA
:1043AC000601000005017D05BD05BE05BE05D50352
:1043BC0005010601BD057D05C400000000000000DC
:1043CC0000000000000000000000000000000000E1
:1043DC0000000000FFFF00000000000000000000D3
:1043EC0000000000000000000000000000000000C1
:1043FC0000000000000000000000000000000000B1
:10440C0000000000000000000000000000000000A0
:10441C000000000000000000000000000000000090
:10442C000000000000000000000000000000000080
:10443C00000000000000FFFF000000000000000072
:10444C000000000000000000000000000000000060
:10445C00000000007704FB04100351033B05930399
:10446C000000000005017D05BD057D057D05BF052E
:10447C003B05D5037D057D05C40000000000000050
:10448C000000000000000000000000000000000020
:10449C0000000000FFFF0000000000000000000012
:1044AC000000000000000000000000000000000000
:1044BC0000000000000000000000000000000000F0
:1044CC0000000000000000000000000000000000E0
:1044DC0000000000000000000000000000000000D0
:1044EC0000000000000000000000000000000000C0
:1044FC00000000000000FFFF0000000000000000B2
:10450C00000000000000000000000000000000009F
:10451C00000000007704FB041003100377047804F8
:10452C000501000005017D05BD057D057D057D05A9
:10453C00BE05BF05BD057C05C400000000000000E1
:10454C00000000000000000000000000000000005F
:10455C0000000000FFFF0000000000000000000051
:10456C00000000000000000000000000000000003F
:10457C00000000000000000000000000000000002F
:10458C00000000000000000000000000000000001F
:10459C00000000000000000000000000000000000F
:1045AC0000000000000000000000000000000000FF
:1045BC00000000000000FFFF0000000000000000F1
:1045CC0000000000000000000000000000000000DF
:1045DC0000000000B804D503000000008200BE05F6
:1045EC001003000005017D05BD057D057D05BE059B
:1045FC00BE053B057D057C05C400000000000000E5
:10460C00000000000000000000000000000000009E
:10461C0000000000FFFF0000000000000000000090
:10462C00000000000000000000000000000000007E
:10463C00000000000000000000000000000000006E
:10464C00000000000000000000000000000000005E
:10465C00000000000000000000000000000000004E
:10466C00000000000000000000000000000000003E
:10467C00000000000000FFFF000000000000000030
:10468C00000000000000000000000000000000001E
:10469C0000000000B8043B054D028D02D503BE0599
:1046AC00CA01000005017D05BD057D05BF057C0522
:1046BC008E02C9017D057D05C400000000000000CC
:1046CC0000000000000000000000000000000000DE
:1046DC0000000000FFFF00000000000000000000D0
:1046EC0000000000000000000000000000000000BE
:1046FC0000000000000000000000000000000000AE
:10470C00000000000000000000000000000000009D
:10471C00000000000000000000000000000000008D
:10472C00000000000000000000000000000000007D
:10473C00000000000000FFFF00000000000000006F
:10474C00000000000000000000000000000000005D
:10475C00000000004C02350436043604D403CA01B0
:10476C000000000005017D05BE05BE05D403050152
:10477C0000004701BE057D05C400000000000000DC
:10478C00000000000000000000000000000000001D
:10479C0000000000FFFF000000000000000000000F
:1047AC0000000000000000000000000000000000FD
:1047BC0000000000000000000000000000000000ED
:1047CC0000000000000000000000000000000000DD
:1047DC0000000000000000000000000000000000CD
:1047EC0000000000000000000000000000000000BD
:1047FC00000000000000FFFF0000000000000000AF
:10480C00000000000000000000000000000000009C
:10481C00000000000000000000000000000000008C
:10482C00000000000501BE05B904CA01000000002B
:10483C0000004701BE05BE05C400000000000000DA
:10484C00000000000000000000000000000000005C
:10485C0000000000FFFF000000000000000000004E
:10486C00000000000000000000000000000000003C
:10487C00000000000000000000000000000000002C
:10488C00000000000000000000000000000000001C
:10489C00000000000000000000000000000000000C
:1048AC0000000000000000000000000000000000FC
:1048BC00000000000000FFFF0000000000000000EE
:1048CC0000000000000000000000000000000000DC
:1048DC0000000000000000000000000000000000CC
:1048EC00000000004100C90142000000000000006F
:1048FC00000041000B020B02010000000000000050
:10490C00000000000000000000000000000000009B
:10491C0000000000FFFF000000000000000000008D
:10492C00000000000000000000000000000000007B
:10493C00000000000000000000000000000000006B
:10494C00000000000000000000000000000000005B
:10495C00000000000000000000000000000000004B
:10496C00000000000000000000000000000000003B
:10497C00000000000000FFFF00000000000000002D
:10498C00000000000000000000000000000000001B
:10499C00000000000000000000000000000000000B
:1049AC0000000000000000000000000000000000FB
:1049BC0000000000000000000000000000000000EB
:1049CC0000000000000000000000000000000000DB
:1049DC0000000000FFFF00000000000000000000CD
:1049EC0000000000000000000000000000000000BB
:1049FC0000000000000000000000000000000000AB
:104A0C00000000000000000000000000000000009A
:104A1C00000000000000000000000000000000008A
:104A2C00000000000000000000000000000000007A
:104A3C00000000000000FFFF00000000000000006C
:104A4C00000000000000000000000000000000005A
:104A5C00000000000000000000000000000000004A
:104A6C00000000000000000000000000000000003A
:104A7C00000000000000000000000000000000002A
:104A8C00000000000000000000000000000000001A
:104A9C0000000000FFFF000000000000000000000C
:104AAC0000000000000000000000000000000000FA
:104ABC0000000000000000000000000000000000EA
:104ACC0000000000000000000000000000000000DA
:104ADC0000000000000000000000000000000000CA
:104AEC0000000000000000000000000000000000BA
:104AFC00000000000000FFFF0000000000000000AC
:104B0C000000000000000000000000000000000099
:104B1C000000000000000000000000000000000089
:104B2C000000000000000000000000000000000079
:104B3C000000000000000000000000000000000069
:104B4C000000000000000000000000000000000059
:104B5C0000000000FFFF000000000000000000004B
:104B6C000000000000000000000000000000000039
:104B7C000000000000000000000000000000000029
:104B8C000000000000000000000000000000000019
:104B9C000000000000000000000000000000000009
:104BAC0000000000000000000000000000000000F9
:104BBC00000000000000FFFF0000000000000000EB
:104BCC0000000000000000000000000000000000D9
:104BDC0000000000000000000000000000000000C9
:104BEC0000000000000000000000000000000000B9
:104BFC0000000000000000000000000000000000A9
:104C0C000000000000000000000000000000000098
:104C1C0000000000FFFF000000000000000000008A
:104C2C000000000000000000000000000000000078
:104C3C000000000000000000000000000000000068
:104C4C000000000000000000000000000000000058
:104C5C000000000000000000000000000000000048
:104C6C000000000000000000000000000000000038
:104C7C00000000000000FFFFFFFF0000000000002C
:104C8C000000000000000000000000000000000018
:104C9C000000000000000000000000000000000008
:104CAC0000000000000000000000000000000000F8
:104CBC0000000000000000000000000000000000E8
:104CCC0000000000000000000000000000000000D8
:104CDC000000FFFFFFFF00000000000000000000CC
:104CEC0000000000000000000000000000000000B8
:104CFC0000000000000000000000000000000000A8
:104D0C000000000000000000000000000000000097
:104D1C000000000000000000000000000000000087
:104D2C000000000000000000000000000000000077
:104D3C000000000000000000FFFFFFFF000000006B
:104D4C000000000000000000000000000000000057
:104D5C000000000000000000000000000000000047
:104D6C000000000000000000000000000000000037
:104D7C000000000000000000000000000000000027
:104D8C000000000000000000000000000000000017
:104D9C00FFFFFFFF0000000000000000000000000B
:104DAC0000000000000000000000000000000000F7
:104DBC0000000000000000000000000000000000E7
:104DCC0000000000000000000000000000000000D7
:104DDC0000000000000000000000000000000000C7
:104DEC0000000000000000000000000000000000B7
:104DFC0000000000000000000000FFFFFFFFFFFFAD
:104E0C00FFFFFFFFFFFFFFFFFFFFFFFFFFFFFFFFA6
:104E1C00FFFFFFFFFFFFFFFFFFFFFFFFFFFFFFFF96
:104E2C00FFFFFFFFFFFFFFFFFFFFFFFFFFFFFFFF86
:104E3C00FFFFFFFFFFFFFFFFFFFFFFFFFFFFFFFF76
:104E4C00FFFFFFFFFFFFFFFFFFFFFFFFFFFFFFFF66
:104E5C00FFFF000000000000000000000000000048
:104E6C000000000000000000000000000000000036
:104E7C000000000000000000000000000000000026
:104E8C000000000000000000000000000000000016
:104E9C000000000000000000000000000000000006
:065FCC00000000000000CF
:105FD400350200003702000036020000FFFFFFFF19
:105FE40000000000000000000000000000000000AD
:105FF400000000000000000000000000000000009D
:10600400000000000200080002000800020008006E
:10601400FFFFFFFF00000000000000000000000080
:10602400000000000000000000000000000000006C
:0C60340000000000000000000000000060
:10604000020000000400000006000000080000003C
:106050001000000020000000400000008000000050
:106060000001000000020000000400000008000021
:106070000010000000200000004000000080000030
:1060800002000000030000000500000007000000FF
:00000001FF
