:10000000FCFF022045140000111400001114000030
:10001000111400001114000011140000111400004C
:10002000111400001114000011140000111400003C
:10003000111400001114000011140000111400002C
:10004000111400001114000011140000111400001C
:10005000111400001114000011140000111400000C
:1000600011140000111400001114000011140000FC
:1000700011140000111400001114000011140000EC
:1000800011140000111400001114000011140000DC
:1000900011140000111400001114000011140000CC
:1000A00011140000111400001114000011140000BC
:1000B00011140000111400001114000011140000AC
:1000C000111400001114000011140000111400009C
:1000D000111400001114000011140000111400008C
:1000E000111400001114000011140000111400007C
:1000F000111400001114000011140000111400006C
:10010000111400001114000011140000111400005B
:10011000111400001114000011140000111400004B
:10012000111400001114000011140000111400003B
:10013000111400001114000011140000111400002B
:10014000111400001114000011140000111400001B
:10015000111400001114000011140000111400000B
:1001600011140000111400001114000011140000FB
:1001700011140000111400001114000011140000EB
:1001800011140000111400001114000011140000DB
:0801900011140000111400001D
:1014440000F044F8FFF7E6FF05F0C8FBFFF7EEFFF6
:1014540005F084FBFFF734FD144800220021FFF758
:10146400B5FE4FF010011248FFF750FC114A124923
:101474001248FFF70DFF42F2FE37C0F2F40700BF37
:1014840000BF7F1EFDD100BF00BF00BFFFF716FFE6
:101494000A210B48FFF74EFF0A210A48FFF74AFFCB
:1014A4000A210948FFF746FFF2E7FEE7181A000091
:1014B40080F00F408C6A000007000080404B4C0015
:0C14C4000000FF1F0A00FF1F0F00FF1FA9
:1011BC0081B01CF8019B0BF8019BBBEB0A0FF8D11B
:0411CC0001B07047B7
:1011800081B04FF000094FF0000CBDEB0A0F04DCFA
:10119000BDEB0B0F01DBD446EA464BF8049BBBEBDF
:1011A0000A0FFAD1BCEB0A0F05DDE246D9F800B010
:0A11B0000BF1040BF1E701B07047EA
:100EC40081B0CDF800E00321A24801700021A248BE
:100ED40001604FF40051A148FFF718FF4FF400419F
:100EE4009F48FFF713FF4FF040019E48FFF70EFFA6
:100EF4004FF480119C48FFF709FF9C4A9C499D4888
:100F0400FFF710FFFFF724FFFFF7CAFE002149B2E5
:100F140099480160FFF7C4FE012149B29648016077
:100F2400FFF7BEFEFFF7C8FE0121FD20FFF7CCFE50
:100F340008B102200AE100211220FFF7C5FE08B122
:100F4400022003E10121FD20FFF7BEFE08B10220CB
:100F5400FCE00021B120FFF7B7FE08B10220F5E064
:100F64000121AE20FFF7B0FE08B10220EEE001211E
:100F7400B320FFF7A9FE08B10220E7E00021F12029
:100F8400FFF7A2FE08B10220E0E00121CA20FFF72A
:100F94009BFE08B10220D9E000215F20FFF794FEF8
:100FA40008B10220D2E00121A020FFF78DFE08B194
:100FB4000220CBE000216020FFF786FE08B102206A
:100FC400C4E001211520FFF77FFE08B10220BDE037
:100FD40000210020FFF778FE08B10220B6E00021CE
:100FE4005F20FFF771FE08B10220AFE001217520F8
:100FF400FFF76AFE08B10220A8E000210020FFF7F5
:1010040063FE08B10220A1E000215F20FFF75CFE2F
:1010140008B102209AE00121A120FFF755FE08B192
:10102400022093E000218020FFF74EFE08B1022049
:101034008CE00121A220FFF747FE08B1022085E0E1
:1010440000216020FFF740FE08B102207EE001216C
:10105400B120FFF739FE08B1022077E001213220E8
:10106400FFF732FE08B1022070E00121BE20FFF735
:101074002BFE08B1022069E001210520FFF724FEC0
:1010840008B1022062E00121A620FFF71DFE08B18D
:1010940002205BE00121C120FFF716FE08B1022007
:1010A40054E000218A20FFF70FFE08B102204DE032
:1010B40000215120FFF708FE08B1022046E000217C
:1010C4008A20FFF701FE08B102203FE00121C7207A
:1010D400FFF7FAFD08B1022038E00021CF20FFF726
:1010E400F3FD08B1022031E00121B420FFF7ECFD4B
:1010F40008B102202AE00021A020FFF7E5FD08B195
:10110400022023E00021B520FFF7DEFD08B1022014
:101114001CE000215520FFF7D7FD08B1022015E09F
:101124000121B620FFF7D0FD08B102200EE0002116
:101134000120FFF7C9FD08B1022007E00121AF201B
:10114400FFF7C2FD08B1022000E00020DDF800E056
:1011540001B070473648FF1F3848FF1F80F00F402A
:10116400C0F00F4000F10F4040F00F40206A000033
:0C11740007000084C0E1E4001820FE43E6
:100D100081B0CDF800E0034AFFF758FEDDF800E0AF
:080D200001B07047040104005A
:1009CC0081B0CDF800E0FFF7EDFEDDF800E001B0FE
:0209DC00704762
:1007B00083B0CDF800E006460C4615463046FFF7FC
:1007C00065FE40F2FF1306EA030080090026224678
:1007D0002946202E39D24FF0010303FA06F402EA2B
:1007E00004031F46A3422ED104031A4B1C19B30065
:1007F000E51801952C68184B04EA03032B60174B8E
:1008000001EA0304019B1B6843EA0404019B1C608A
:1008100001F48033B3F5803F15D08401104B1B19D0
:100820001433029301F400333BB1FC43029B1B6879
:1008300003EA0404029B1C6005E0029B1B6843EA78
:100840000704029B1C60761CC3E7DDF800E003B0E0
:10085000704700BF009004400000FFFFFFFF000052
:0408600000F00F4055
:10048C0081B040F2FF1100EA01018909084600F22F
:10049C0009024FF0010101FA02F20449096841EA2C
:1004AC00020202490A6001B0704700BF3880044064
:0004BC0040
:100D280081B0CDF800E003460C4615460648FFF7AB
:100D380013FE224619462B460348FFF755FEDDF8F9
:0C0D480000E001B0704700BF00C00A408E
:1009600081B00F49884206D10E4A0F490A600F4AEA
:100970000F490A6012E00F49884206D10E4A0A491F
:100980000A600E4A0A490A6008E00D49884205D10A
:100990000C4A05490A600C4A05490A6001B07047D3
:1009A00000C00240F50800001C00FF1FFFFFFFFF12
:1009B0002400FF1F00D0024041090000FFFFFFFF9D
:0C09C00000C00A4081080000FFFFFFFF9C
:1009F00084B0CDF800E003910146104601900291C9
:100A00001846FFF787FD0299019800F010042409A9
:100A10002746019002910846FFF7A2FD0299029134
:100A20000846FFF7C1FD0299019800F000450C68E7
:100A30002C430C6000F080450C682C430C600C6863
:100A400044F440540C600D686FF4804405EA0404DB
:100A50000C6001F20C05BC002E1900F00F05346883
:100A60002C43346001F20C05BC002E1900F08065A7
:100A700034682C43346001F20C05BC002E1900F0E0
:100A8000007534682C43346001F20C05BC002E194B
:100A900000F0807534682C43346001F20C05BC0012
:100AA0002E1935686FF0F04405EA0404346001F251
:100AB0000C05BC002E1900F00F04E50634682C4329
:100AC00034600191039A0846F9B2FFF7C9FD019914
:0E0AD0000846FFF763FEDDF800E004B0704753
:1005140081B0CDF800E040F2000C83464FEA8C0134
:100524000BEB01010968B1F1FF3F12D00BF134016B
:100534004FEA8C03C91809680A460BEB03010968E2
:1005440008461146FFF7B8FF0CF1010C1FFA8CFCAA
:0A055400E4E7DDF800E001B07047B5
:1004BC0082B0CDF800E080464FEA581202F00702F5
:1004CC00914608F01F04A24693010D4AD3184FF031
:1004DC000102A240019218460A46019900F070FAF6
:1004EC004FEA0933074AD3184FEA8A029C1808F4DA
:1004FC00E06322681A432260DDF800E002B0704726
:08050C0000F00F4000900440D4
:1005600081B00B49884203D1012252B209490A6085
:100570000949884203D1012252B208490A60084958
:10058000884203D1012252B206490A6001B0704785
:1005900000C00240B007904200D00240B407904231
:0805A00000C00A403006904241
:1005A80081B002686FF4804102EA010101600168CC
:1005B80041F00101016000F22C031A68124942EA75
:1005C8000101196000F208020021116000F20C021A
:1005D8004FF0F041116000F210024FF0F04111604D
:1005E80000F230020021116000F234020021116093
:1005F800016841F440610160026844F2010142EA85
:0C0608000101016001B0704700000A9A77
:1006600091B0CDF800E00F9010468DF840100E903C
:1006700001AB1846FFF7D2FE4FF0FF330D93002376
:1006800006930023089301230A9300230B9300236E
:100690000593059B042B41D20D9B002B3ED00023DC
:1006A0000793079B102B35D20D9B002B32D00123D3
:1006B0000993099B032B29D20D9B3BB3099C029BF9
:1006C00003FB04F6059B9C00314B1B191D68079B1F
:1006D0009C00304B1B191B686B43B6FBF3F42046A0
:1006E0000E9BA3420ED30E9B1C1A0C940D9BA3428F
:1006F00008D90C9B0D93059B0693079B08930B90C1
:10070000099B0A93099B5B1C0993D2E7079B5B1C1F
:100710000793C6E7059B5B1C0593BAE70F9B03F2A3
:100720000C049DF840309B00E5182C681A4B04EA35
:1007300003032B600F9B03F20C049DF840309B00D9
:10074000E5180A9B5B1EDC072B6823432B600F9B7D
:1007500003F20C049DF840309B00E518069B1B0437
:1007600003F440342B6823432B600F9B03F20C04EB
:100770009DF840309B00E518089B03F00F042B68A0
:1007800023432B600B98DDF800E011B0704700BFE9
:0C079000506B0000F86A0000F0FFFC7FD6
:10041C0081B0CDF800E00446FFF7F4FF40F2E8317C
:10042C0000FB01F3154909680A0F1449096801F02A
:10043C007061090EC8B21149096801F47001090D07
:10044C00CDB20E49096801F47021090CCEB2D1B2BB
:10045C0003FA01F10F462360221D27FA00F1116007
:10046C0004F2080227FA05F1116004F20C0227FAD3
:10047C0006F11160DDF800E001B0704744800440E3
:00048C0070
:0C04100001480068704700BF3C48FF1F17
:10079C0081B002686FF0010102EA0101016001B051
:0207AC00704794
:100D5400002149B201480160704700BF3410FE43CE
:000D64008F
:100CA40049F63E47C0F2000700BF00BF7F1EFDD1DA
:080CB40000BF00BF00BF704744
:100CBC00012149B201480160704700BF3410FE4366
:000CCC0028
:100CCC0081B0CDF800E021B100235BB20B4A136078
:100CDC0003E001235BB2094A136000235BB2084AAC
:100CEC001360C0B2FFF7C6FD01235BB2044A136068
:100CFC000020DDF800E001B0704700BF3C18FE4357
:040D0C005008FE434A
:1008800081B0CDF800E082B24FF080610348FFF7FD
:10089000C1FEDDF800E001B0704700BF00C00A40B3
:0008A00058
:1006140081B000F22C04236843F00043236000F20D
:10062400340493B241EA0303236000F22C031C68F0
:0C063400C4F3C07303B9F8E701B07047CD
:1011D00082B0CDF800E05FFA81FA5FFA82FB014647
:1011E0008C1C2378D9B2641C23781B029BB2CB18C9
:1011F0001FFA83FC641C2178C9B2631C1B781B0294
:101200009BB2CB189BB299B20AEB03039BB25B1E55
:101210009BB2602B0ED8BAF1000F0BD30BEB0C0373
:101220009BB25B1E9BB2602B04D8BBF1000F01D3B5
:10123000002300E0012303B10BE001FB0CF4831D4C
:10124000ADF80410A2B219461148FFF723FEBDF80D
:101250000410ADF804105FFA8CF3CAB25FFA8BF198
:101260005FFA8AF0FFF7C8FDBDF8041001FB0CF32C
:101270009BB25B009BB299B20548FFF773FD08B1C2
:10128000022000E00020DDF800E002B0704700BF5F
:041290003000FF1F0C
:100E940093B20A4600211446024698B281420DD20A
:100EA40023781B021380631C1D461C78138823437C
:0E0EB4001380921C6B1C1C46491CEFE7704714
:100DF80081B0CDF800E000F21004E6B2CCB2E5B262
:100E08005FFA82F8DFB240F2000901211520FFF7EE
:100E180059FF49EA00095FFA89F90021F0B2FFF7A2
:100E280051FF49EA00095FFA89F9A8F1010424B2DF
:100E3800341924B2002120B2FFF744FF49EA00091F
:100E48005FFA89F901217520FFF73CFF49EA00099B
:100E58005FFA89F90021E8B2FFF734FF49EA00098F
:100E68005FFA89F97C1E24B22C1924B2002120B221
:100E7800FFF728FF49EA0004E4B2002C00D100E0A3
:0A0E8800C1E7DDF800E001B070479B
:100D640081B0CDF800E005460E4601215C20FFF776
:100D7400ABFF08B102201AE001235BB20E4A1360F4
:100D840000235BB20D4A13602846054630460346ED
:100D9400421E164633B12A7890B2FFF76FFD6D1CE0
:100DA4003046F4E701235BB2044A13600020DDF807
:100DB40000E001B0704700BF3C18FE435008FE43FA
:000DC4002F
:1012940081B0CDF800E003460C4615460648FFF73A
:1012A4005DFB224619462B460348FFF79FFBDDF8FA
:0C12B40000E001B0704700BF00C0024025
:1012C00083B0CDF800E0FFF77DFD01AA029209206E
:1012D0001070511C002008701046FFF747FC01A950
:1012E0000B200870029A511C072008701046FFF767
:1012F0003DFC01A90A200870029A511C0F200870B9
:101300001046FFF733FC01A90F200870029A511C08
:10131000002008701046FFF729FC01A90C20087076
:10132000029A511C012008701046FFF71FFCDDF8DF
:0613300000E003B070476D
:100DC40081B0CDF800E00748016807480160074892
:100DD400016807480160FFF79BFDDDF800E001B002
:100DE400704700BF1C00FF1F1800FF1F2400FF1FD7
:040DF4002000FF1FBD
:10091400012149B201480160704700BF1010FE4335
:00092400D3
:100B6C0082B0CDF800E00190FFF734FF01990978CD
:100B7C00CCB2A0B2084C2468A0470199491C097852
:100B8C00CCB2A0B2044C2468A047FFF7BDFEDDF840
:0C0B9C0000E002B0704700BF1800FF1F0F
:1008F40081B0CDF800E082B24FF080610348FFF789
:1009040087FEDDF800E001B0704700BF00C0024080
:00091400E3
:1009400081B0CDF800E082B24FF080610348FFF73C
:1009500061FEDDF800E001B0704700BF00D002404A
:0009600097
:1009240081B0CDF800E081B20348FFF787FEDDF81F
:0C09340000E001B0704700BF00A00640CA
:1006400081B0ADF800100146BDF800000A1D137816
:10065000C3F3C01202B9F9E7CA1D107001B07047A8
:000660009A
:1008640081B0CDF800E081B20348FFF7E7FEDDF880
:0C08740000E001B0704700BF00B006407B
:1008BC0081B0CDF800E081B20348FFF7BBFEDDF854
:0C08CC0000E001B0704700BF00C0064013
:1008A00081B0CDF800E081B20348FFF7C9FEDDF862
:0C08B00000E001B0704700BF00D006401F
:100AFC0081B0CDF800E081B20348FFF79BFDDDF833
:0C0B0C0000E001B0704700BF00A00E40E8
:100AE00081B0CDF800E081B20348FFF7A9FDDDF841
:0C0AF00000E001B0704700BF00B00E40F5
:1009E000002149B201480160704700BF1010FE436A
:0009F00007
:1013380085B0CDF800E08DF810100390082212B2A5
:1013480000212F48FFF79AFC039A02B953E0039A49
:101358001278002A4FD0002636B208252DB2082E62
:1013680045DA00273FB231B238B208283ADA244ABF
:1013780013181A7852001A70214A1418039A12780E
:10138800D20012B253191BB21E4AD2181378012286
:1013980012B2824012B203EA020212B242FA00F317
:1013A8001BB222781A432270ADF80450ADF806102B
:1013B800ADF80800FFF70EFCBDF90800BDF90610EE
:1013C800BDF90450ADF80410ADF806009DF8100002
:1013D800FFF7E6FBBDF90600BDF90410421C17B281
:1013E80038B2C2E74A1C16B26D1E2DB2B7E7039A8F
:1013F800521C0392ABE7DDF800E005B0704700BF70
:081408002800FF1F1E62000016
:100C840081B013B20246C8B211461DB22CB26B1E1B
:100C94001DB214B10870491CF8E7104601B0704742
:000CA40050
:100BDC0084B0CDF800E0002626480390072000B230
:100BEC00ADF8080000231BB2BDF9080000283CDB5F
:100BFC0007252DB21AB22CB2F5B2002C17DBC4F1BA
:100C0C00070109B2039840180178012000B2904006
:100C1C0000B201EA000000B2104100B2A04000B2E4
:100C2C0045EA0000C6B2601EF5B204B2E5E7ADF8C5
:100C3C000420E8B2FFF76AFFBDF90420C3B20DF13E
:100C4C000A01501C0870481C0370ADF804200846BB
:100C5C00FFF786FFBDF904200026BDF90800401EF1
:100C6C00ADF80800501C03B2BEE7DDF800E004B09C
:080C7C00704700BF2800FF1FB4
:100B180000F0F001C9B20A09D2B200F00F01C9B25F
:100B2800090189B242EA0103D9B201F0CC01C9B284
:100B38008A08D2B2D9B201F03301C9B2890089B2A8
:100B480042EA0103D9B201F0AA01C9B24A08D2B2F5
:100B5800D9B201F05501C9B2490089B242EA01018E
:040B6800C8B2704758
:100BA80081B0CDF800E00A4901FB00F20A21B2FB4E
:100BB800F1F1C91E0846FFF78BFE00BF00BF00BF5A
:100BC80000BF00BF00BFDDF800E001B0704700BF04
:040BD800C0D4010084
:1008D80000BFAFF30080401E401E00BF00BF00BF36
:0C08E80000BF00BF00BF00BFF6D170478A
:1014D00090B072B697480190974802909748039051
:1014E000974804909748059097480690974807902A
:1014F000974808909748099097480A9097480B900A
:1015000097480C90974998480D9098480E900D98E0
:1015100000F007000F9001F0010050B94CF220508C
:10152000934908804DF62810088040F2D211914866
:1015300001800021904801609048007800F001008F
:10154000C0B258B18E48007800F00800C0B220B197
:101550008B49087840F00800087021E0894800684D
:1015600040F00051874801608748006800F48070AF
:10157000B0B9854801686FF4705001EA000040F48A
:101580004071814801608048006840F480717E4865
:1015900001607D4801686FF4007001407A48016085
:1015A000AA217A4801700D9800F0100058B97848C7
:1015B000007800F09F017648017076480078012895
:1015C00000D0FAE71BE00D9800F01000B8B10E99BA
:1015D0007148814208D960216D4801706D480078DA
:1015E000802800D0FAE70AE06948007800F09F01FF
:1015F0006748017067480078012800D0FAE704992D
:1016000066480160664801686FF440200140029816
:1016100000F44020014362480160624801686FF4B1
:1016200040300140039800F4403001435D480160C0
:101630000F9830B10F98012803D00F98022800D0DE
:1016400064E0019800F0800050B9089800F0400074
:1016500028B10B9800F00300002800D100E015E04D
:101660005148006840F400714F4801604F480168DC
:101670004F4801404D480160069800F0040028B131
:101680004C4801684A4801404A4801600A994A4862
:101690000170059949480170059800F0040040B1B7
:1016A0004748007800F01000C0B2002800D1F7E7EA
:1016B00006E04348007800F01000C0B200B1F8E73F
:1016C0004048007800F0BF01C9B2069800F0FD0064
:1016D00001433C480170079800F0E0013A48007867
:1016E00000F01F00C0B2014337480170019937482C
:1016F00001700B99364801700F98022805D13148C6
:10170000007840F002012F480170BDE0019800F020
:10171000800020B90B9800F0030000B166E0224879
:10172000006840F4007120480160204801682048AA
:1017300001404FE0800000000000080000000100B0
:10174000000044012200000024000000000000000E
:101750000200000046000000000000000000000041
:10176000090000000000000007000000C0D40100D4
:101770000E2005400020054008ED00E000F0074085
:1017800002D007403C80044010D0034000E00740F6
:1017900001E0074003E00740803801004480044036
:1017A00000700440048004403880044048900440A5
:1017B000FFF8FFFE4C900440084006400040064001
:1017C00006400640014006400340064000500640E7
:1017D0000C4006407F480160069800F0040028B1E4
:1017E0007D4801687D4801407B4801600A997C483A
:1017F00001707C48007800F0BF01C9B2069800F083
:10180000FD000143774801700199774801700B99F9
:10181000764801700F98072805D1059840F080019F
:101820007348017002E0059971480170069800F054
:10183000040050B10B9800F0030030B96D480078F7
:1018400000F00200C0B200B9F8E7059800F004000B
:1018500040B16848007800F01000C0B2002800D104
:10186000F7E706E06348007800F01000C0B200B16E
:10187000F8E7079800F0E0015F48007800F01F00EB
:10188000C0B201435C480170089800F0BF015B489A
:101890000170099800F0BF0159480170089800F0E4
:1018A000400028B15548007840F04001534801708D
:1018B0000F98052806D14B48007840F002014948AE
:1018C00001701CE00F98062803D00F98072800D05D
:1018D00015E04B48007840F0400149480170454808
:1018E000007800F04000C0B200B9F8E70F98072870
:1018F00005D13F48007800F03F013D4801700F9846
:1019000018B10F98032800D029E03A48007800F079
:101910000C00C0B200B1F8E73A48006840F001019D
:101920003848016000213848016080213748016053
:1019300005213748016001213448016033480068BF
:1019400000F0800000B9F9E70021304801602D481F
:1019500001686FF0010001402A4801602DE00F98F6
:10196000012803D00F98022800D008E02148007811
:1019700000F00C00C0B2042800D0F7E71DE00F987B
:10198000042806D00F98062803D00F98052800D009
:1019900008E01848007800F00C00C0B2082800D019
:1019A000F7E70AE00F98072807D11248007800F0FF
:1019B0000C00C0B20C2800D0F7E7164801686FF0A1
:1019C0000F0001400C9800F00F0001431148016026
:1019D00010B07047489004404C900440FFF8FFFE60
:1019E0000840064001400640005006400C400640BA
:1019F00000400640064006400340064004400640C2
:101A000005400640388004400800044000000440BF
:081A100004000440488004407A
:1014300081B002490248016001B07047C0D4010088
:041440003C48FF1F06
:0814100081B0FEE701B0704756
:1014180081B072B60349086840F47000086062B68B
:0814280001B0704788ED00E0FF
:106B600000B5DFF814B0DFF814A0DFF814C0FAF7AE
:106B700025FB00BD704700BF0000FF1F1700FF1F6F
:046B8000386B00006E
:106BE00000B5DFF810B0DFF810A0FAF7C9FA00BD61
:0C6BF000704700BF0000FF1F4048FF1F5F
:100400000000000000000000FFFFFFFF02FDFFFFF3
:101A180000106000600000000000000000000000EE
:101A280000000000000000000000000000000000AE
:101A3800000000000000000000000000000000009E
:101A4800000000000000000000000000000000008E
:101A5800000000000000000000000000000000007E
:10210800000000000000FFFFFFFFFFFFFFFFFFFFD1
:1021180000000000000000000000000000000000B7
:1021280000000000FFFFFFFFFFFFFFFFFFFF0000B1
:1021380000000000000000000000FFFFFFFFFFFF9D
:10214800FFFFFFFFFFFF0000000000000000FFFF8F
:10215800FFFFFFFFFFFFFFFF00000000FFFFFFFF83
:10216800FFFFFFFFFFFFFFFF00000000000000006F
:102178000000000000000000000000000000000057
:102188000000000000000000000000000000000047
:102198000000000000000000000000000000000037
:1021A8000000000000000000000000000000000027
:1021B8000000000000000000000000000000000017
:1021C80000000000FFFFFFFF000000000000FFFF0D
:1021D800FFFF0000000000000000000000000000F9
:1021E8000000FFFFFFFF000000000000FFFFFFFFEF
:1021F80000000000000000000000FFFFFFFF0000DB
:1022080000000000FFFFFFFF00000000FFFFFFFFCE
:102218000000000000000000FFFF0000FFFFFFFFBC
:10222800000000000000FFFFFFFF000000000000AA
:102238000000000000000000000000000000000096
:102248000000000000000000000000000000000086
:102258000000000000000000000000000000000076
:102268000000000000000000000000000000000066
:102278000000000000000000000000000000000056
:1022880000000000FFFFFFFF000000000000FFFF4C
:10229800FFFF0000FFFFFFFF00000000FFFFFFFF40
:1022A8000000FFFFFFFF000000000000FFFFFFFF2E
:1022B80000000000000000000000FFFFFFFF00001A
:1022C80000000000FFFFFFFF00000000FFFFFFFF0E
:1022D8000000000000000000FFFF0000FFFFFFFFFC
:1022E800000000000000FFFFFFFF000000000000EA
:1022F80000000000000000000000000000000000D6
:1023080000000000000000000000000000000000C5
:1023180000000000000000000000000000000000B5
:1023280000000000000000000000000000000000A5
:102338000000000000000000000000000000000095
:1023480000000000FFFFFFFF000000000000FFFF8B
:10235800FFFF0000FFFFFFFF00000000FFFFFFFF7F
:102368000000FFFFFFFF000000000000FFFFFFFF6D
:1023780000000000000000000000FFFFFFFF000059
:1023880000000000FFFFFFFF00000000FFFFFFFF4D
:10239800000000000000000000000000FFFFFFFF39
:1023A800000000000000FFFFFFFF00000000000029
:1023B8000000000000000000000000000000000015
:1023C8000000000000000000000000000000000005
:1023D80000000000000000000000000000000000F5
:1023E80000000000000000000000000000000000E5
:1023F80000000000000000000000000000000000D5
:10240800000000000000FFFFFFFFFFFFFFFFFFFFCE
:10241800000000000000FFFFFFFFFFFFFFFF0000BC
:1024280000000000FFFFFFFFFFFFFFFFFFFF0000AE
:1024380000000000000000000000FFFFFFFFFFFF9A
:10244800FFFFFFFFFFFF000000000000FFFFFFFF8E
:1024580000000000FFFFFFFFFFFF0000FFFFFFFF7E
:10246800FFFFFFFFFFFFFFFF00000000000000006C
:102478000000000000000000000000000000000054
:102488000000000000000000000000000000000044
:102498000000000000000000000000000000000034
:1024A8000000000000000000000000000000000024
:1024B8000000000000000000000000000000000014
:1024C80000000000FFFFFFFF000000000000FFFF0A
:1024D800FFFF000000000000FFFFFFFF00000000FA
:1024E8000000FFFFFFFF000000000000FFFFFFFFEC
:1024F80000000000000000000000FFFFFFFF0000D8
:10250800FFFFFFFF0000000000000000FFFFFFFFCB
:10251800000000000000FFFFFFFF0000FFFFFFFFBB
:10252800000000000000FFFFFFFF000000000000A7
:102538000000000000000000000000000000000093
:102548000000000000000000000000000000000083
:102558000000000000000000000000000000000073
:102568000000000000000000000000000000000063
:102578000000000000000000000000000000000053
:1025880000000000FFFFFFFF000000000000FFFF49
:10259800FFFF00000000FFFFFFFFFFFFFFFF00003D
:1025A8000000FFFFFFFF000000000000FFFFFFFF2B
:1025B80000000000000000000000FFFFFFFF000017
:1025C8000000FFFFFFFF000000000000FFFFFFFF0B
:1025D800000000000000FFFFFFFF0000FFFFFFFFFB
:1025E800000000000000FFFFFFFF000000000000E7
:1025F80000000000000000000000000000000000D3
:1026080000000000000000000000000000000000C2
:1026180000000000000000000000000000000000B2
:1026280000000000000000000000000000000000A2
:102638000000000000000000000000000000000092
:1026480000000000FFFFFFFF000000000000FFFF88
:10265800FFFF0000FFFFFFFF00000000FFFFFFFF7C
:102668000000FFFFFFFF000000000000FFFFFFFF6A
:1026780000000000000000000000FFFFFFFF000056
:1026880000000000FFFFFFFF00000000FFFFFFFF4A
:10269800000000000000FFFFFFFF0000FFFFFFFF3A
:1026A800000000000000FFFFFFFF00000000000026
:1026B8000000000000000000000000000000000012
:1026C8000000000000000000000000000000000002
:1026D80000000000000000000000000000000000F2
:1026E80000000000000000000000000000000000E2
:1026F80000000000000000000000000000000000D2
:10270800000000000000FFFFFFFFFFFFFFFFFFFFCB
:1027180000000000FFFFFFFF00000000FFFFFFFFB9
:1027280000000000FFFFFFFFFFFFFFFFFFFF0000AB
:1027380000000000000000000000FFFFFFFF000095
:10274800000000000000FFFFFFFF00000000FFFF87
:10275800FFFFFFFFFFFFFFFFFFFF0000FFFFFFFF7F
:10276800FFFFFFFFFFFFFFFF000000000000000069
:102778000000000000000000000000000000000051
:102788000000000000000000000000000000000041
:102798000000000000000000000000000000000031
:1027A8000000000000000000000000000000000021
:102B880000000000000000000000FFFFFFFFFFFF43
:102B9800FFFFFFFFFFFFFFFFFFFFFFFFFFFFFFFF3D
:102BA800FFFFFFFFFFFFFFFFFFFFFFFFFFFFFFFF2D
:102BB800FFFFFFFFFFFFFFFFFFFFFFFFFFFFFFFF1D
:102BC800FFFFFFFFFFFFFFFFFFFFFFFFFFFFFFFF0D
:102BD800FFFFFFFFFFFFFFFFFFFFFFFFFFFFFFFFFD
:102BE800FFFF0000000000000000000000000000DF
:102BF80000000000000000000000000000000000CD
:102C080000000000000000000000000000000000BC
:102C180000000000000000000000000000000000AC
:102C2800000000000000000000000000000000009C
:102C3800000000000000000000000000000000008C
:102C480000000000000000007DEFFFFF82108210EE
:102C58008210821082108210821000000000000092
:102C68000000000000008210821082108210821082
:102C780082108210821082108210821082108210BC
:102C880082108210821082108210821082108210AC
:102C9800821082108210821082108210821082109C
:102CA800FFFFFFFF00000000000000000000000020
:102CB800000000000000000000000000000000000C
:102CC80000000000000000000000000000000000FC
:102CD80000000000000000000000000000000000EC
:102CE80000000000000000000000000000000000DC
:102CF80000000000000000000000000000000000CC
:102D08000000000000003CE7FFFF0000000000009A
:102D180000000000000000000000000000000000AB
:102D2800000000000000000000000000000000009B
:102D3800000000000000000000000000000000008B
:102D4800000000000000000000000000000000007B
:102D5800000000000000000000000000000000006B
:102D68000000FFFFFFFF000000000000000000005F
:102D7800000000000000000000000000000000004B
:102D8800000000000000000000000000000000003B
:102D9800000000000000000000000000000000002B
:102DA800000000000000000000000000000000001B
:102DB800000000000000000000000000000000000B
:102DC800000000000000FFFF0000000000000000FD
:102DD80000000000000000000000000000000000EB
:102DE80000000000000000000000000000000000DB
:102DF80000000000000000000000000000000000CB
:102E080000000000000000000000000000000000BA
:102E180000000000000000000000000000000000AA
:102E280000000000FFFF000000000000000000009C
:102E3800000000000000000000000000000000008A
:102E4800000000000000000000000000000000007A
:102E5800000000000000000000000000000000006A
:102E6800000000000000000000000000000000005A
:102E7800000000000000000000000000000000004A
:102E8800000000000000FFFF00000000000000003C
:102E9800000000000000000000000000000000002A
:102EA800000000000000000000000000000000001A
:102EB800000000000000000000000000000000000A
:102EC80000000000000000000000000000000000FA
:102ED80000000000000000000000000000000000EA
:102EE80000000000FFFF00000000000000000000DC
:102EF80000000000000000000000000000000000CA
:102F080000000000000000000000000000000000B9
:102F180000000000000000000000000000000000A9
:102F28000000000000000000000000000000000099
:102F38000000000000000000000000000000000089
:102F4800000000000000FFFF00000000000000007B
:102F58000000000000000000000000000000000069
:102F68000000000000000000000000000000000059
:102F78000000000000000000000000000000000049
:102F88000000000000000000000000000000000039
:102F98000000000000000000000000000000000029
:102FA80000000000FFFF000000000000000000001B
:102FB8000000000000000000000000000000000009
:102FC80000000000000000000000000000000000F9
:102FD80000000000000000000000000000000000E9
:102FE80000000000000000000000000000000000D9
:102FF80000000000000000000000000000000000C9
:10300800000000000000FFFF0000000000000000BA
:1030180000000000000000000000000000000000A8
:103028000000000000000000000000000000000098
:103038000000000000000000000000000000000088
:103048000000000000000000000000000000000078
:103058000000000000000000000000000000000068
:1030680000000000FFFF000000000000000000005A
:103078000000000000000000000000000000000048
:103088000000000000000000000000000000000038
:103098000000000000000000000000000000000028
:1030A8000000000000000000000000000000000018
:1030B8000000000000000000000000000000000008
:1030C800000000000000FFFF0000000000000000FA
:1030D80000000000000000000000000000000000E8
:1030E80000000000000000000000000000000000D8
:1030F80000000000000000000000000000000000C8
:1031080000000000000000000000000000000000B7
:1031180000000000000000000000000000000000A7
:1031280000000000FFFF0000000000000000000099
:103138000000000000000000000000000000000087
:103148000000000000000000000000000000000077
:103158000000000000000000000000000000000067
:103168000000000000000000000000000000000057
:103178000000000000000000000000000000000047
:10318800000000000000FFFF000000000000000039
:103198000000000000000000000000000000000027
:1031A8000000000000000000000000000000000017
:1031B80000000000000041180000000000000000AE
:1031C80000000000000800080000000000000000E7
:1031D80000000000000000000000000000000000E7
:1031E80000000000FFFF00000000000000000000D9
:1031F80000000000000000000000000000000000C7
:1032080000000000000000000000000000000000B6
:1032180000000000000000000000000000000000A6
:103228000000000000000000000000000000000096
:103238000000000000000000000000000000000086
:10324800000000000000FFFF000000000000000078
:103258000000000000000000000000000000000066
:103268000000000000000000000000000000000056
:1032780000000000412886D9049141200000000088
:103288000000412045B945B10010000000000000D1
:103298000000000000000000000000000000000026
:1032A80000000000FFFF0000000000000000000018
:1032B8000000000000000000000000000000000006
:1032C80000000000000000000000000000000000F6
:1032D80000000000000000000000000000000000E6
:1032E80000000000000000000000000000000000D6
:1032F80000000000000000000000000000000000C6
:10330800000000000000FFFF0000000000000000B7
:1033180000000000000000000000000000000000A5
:10332800000000008240C378C478C480C370412084
:1033380000000000412887E987F986D9C36800089A
:103348000000824087F187E941200000000000006A
:103358000000000000000000000000000000000065
:1033680000000000FFFF0000000000000000000057
:103378000000000000000000000000000000000045
:103388000000000000000000000000000000000035
:103398000000000000000000000000000000000025
:1033A8000000000000000000000000000000000015
:1033B8000000000000000000000000000000000005
:1033C800000000000000FFFF0000000000000000F7
:1033D80000000000000000000000000000000000E5
:1033E8000000000045B987E10491049946D186D9C7
:1033F80041280000412887E187E987E987F145C12D
:103408008240423887E987E141200000000000003F
:1034180000000000000000000000000000000000A4
:1034280000000000FFFF0000000000000000000096
:103438000000000000000000000000000000000084
:103448000000000000000000000000000000000074
:103458000000000000000000000000000000000064
:103468000000000000000000000000000000000054
:103478000000000000000000000000000000000044
:10348800000000000000FFFF000000000000000036
:103498000000000000000000000000000000000024
:1034A8000000000045C105A9000000004130C8F92E
:1034B80083600000412887E187E987E987E987F188
:1034C80087E945B987E987E141200000000000004D
:1034D80000000000000000000000000000000000E4
:1034E80000000000FFFF00000000000000000000D6
:1034F80000000000000000000000000000000000C4
:1035080000000000000000000000000000000000B3
:1035180000000000000000000000000000000000A3
:103528000000000000000000000000000000000093
:103538000000000000000000000000000000000083
:10354800000000000000FFFF000000000000000075
:103558000000000000000000000000000000000063
:103568000000000045B946D1C368C36805B186D9D3
:1035780041280000412887E187E987E987E987E949
:1035880087E987F187E987E1412000000000000012
:103598000000000000000000000000000000000023
:1035A80000000000FFFF0000000000000000000015
:1035B8000000000000000000000000000000000003
:1035C80000000000000000000000000000000000F3
:1035D80000000000000000000000000000000000E3
:1035E80000000000000000000000000000000000D3
:1035F80000000000000000000000000000000000C3
:10360800000000000000FFFF0000000000000000B4
:1036180000000000000000000000000000000000A2
:103628000000000045B986D904A187E986D9412060
:1036380000000000412887E187E987E987E987F1E9
:1036480087E946C987E987E14120000000000000BA
:103658000000000000000000000000000000000062
:1036680000000000FFFF0000000000000000000054
:103678000000000000000000000000000000000042
:103688000000000000000000000000000000000032
:103698000000000000000000000000000000000022
:1036A8000000000000000000000000000000000012
:1036B8000000000000000000000000000000000002
:1036C800000000000000FFFF0000000000000000F4
:1036D80000000000000000000000000000000000E2
:1036E8000000000045C105A90000423887E90489A7
:1036F80000000000412887E187E987E987F146D182
:103708008258824087E987E14120000000000000DC
:1037180000000000000000000000000000000000A1
:1037280000000000FFFF0000000000000000000093
:103738000000000000000000000000000000000081
:103748000000000000000000000000000000000071
:103758000000000000000000000000000000000061
:103768000000000000000000000000000000000051
:103778000000000000000000000000000000000041
:10378800000000000000FFFF000000000000000033
:103798000000000000000000000000000000000021
:1037A8000000000046C945B900000000C378C8F908
:1037B80082480000412887E187F187E104890118E0
:1037C8000000823887E987E14120000000000000FE
:1037D80000000000000000000000000000000000E1
:1037E80000000000FFFF00000000000000000000D3
:1037F80000000000000000000000000000000000C1
:1038080000000000000000000000000000000000B0
:1038180000000000000000000000000000000000A0
:103828000000000000000000000000000000000090
:103838000000000000000000000000000000000080
:10384800000000000000FFFF000000000000000072
:103858000000000000000000000000000000000060
:1038680000000000C378C37000000000000804993D
:1038780082580000412887E105A941300000000076
:103888000000423887F187E9411800000000000075
:103898000000000000000000000000000000000020
:1038A80000000000FFFF0000000000000000000012
:1038B8000000000000000000000000000000000000
:1038C80000000000000000000000000000000000F0
:1038D80000000000000000000000000000000000E0
:1038E80000000000000000000000000000000000D0
:1038F80000000000000000000000000000000000C0
:10390800000000000000FFFF0000000000000000B1
:10391800000000000000000000000000000000009F
:10392800000000000000000000000000000000008F
:103938000000000000084130000000000000000006
:103948000000000882384238000000000000000033
:10395800000000000000000000000000000000005F
:1039680000000000FFFF0000000000000000000051
:10397800000000000000000000000000000000003F
:10398800000000000000000000000000000000002F
:10399800000000000000000000000000000000001F
:1039A800000000000000000000000000000000000F
:1039B80000000000000000000000000000000000FF
:1039C800000000000000FFFF0000000000000000F1
:1039D80000000000000000000000000000000000DF
:1039E80000000000000000000000000000000000CF
:1039F80000000000000000000000000000000000BF
:103A080000000000000000000000000000000000AE
:103A1800000000000000000000000000000000009E
:103A280000000000FFFF0000000000000000000090
:103A3800000000000000000000000000000000007E
:103A4800000000000000000000000000000000006E
:103A5800000000000000000000000000000000005E
:103A6800000000000000000000000000000000004E
:103A7800000000000000000000000000000000003E
:103A8800000000000000FFFF000000000000000030
:103A9800000000000000000000000000000000001E
:103AA800000000000000000000000000000000000E
:103AB800000000000000810000000000000000007D
:103AC80000000000000000000000000000000000EE
:103AD80000000000000000000000000000000000DE
:103AE80000000000FFFF00000000000000000000D0
:103AF80000000000000000000000000000000000BE
:103B080000000000000000000000000000000000AD
:103B1800000000000000000000000000000000009D
:103B2800000000000000000000000000000000008D
:103B3800000000000000000000000000000000007D
:103B4800000000000000FFFF00000000000000006F
:103B5800000000000000000000000000000000005D
:103B6800000000000000000000000000000000004D
:103B780000000000C200AA04060381000000000043
:103B88000000C1002904C803410000000000000033
:103B9800000000000000000000000000000000001D
:103BA80000000000FFFF000000000000000000000F
:103BB80000000000000000000000000000000000FD
:103BC80000000000000000000000000000000000ED
:103BD80000000000000000000000000000000000DD
:103BE80000000000000000000000000000000000CD
:103BF80000000000000000000000000000000000BD
:103C0800000000000000FFFF0000000000000000AE
:103C1800000000000000000000000000000000009C
:103C28000000000040008502290469042804C4013A
:103C38000000000002016B05AC05AA0404020000A4
:103C480000004301AB056B05C10000000000000047
:103C5800000000000000000000000000000000005C
:103C680000000000FFFF000000000000000000004E
:103C7800000000000000000000000000000000003C
:103C8800000000000000000000000000000000002C
:103C9800000000000000000000000000000000001C
:103CA800000000000000000000000000000000000C
:103CB80000000000000000000000000000000000FC
:103CC800000000000000FFFF0000000000000000EE
:103CD80000000000000000000000000000000000DC
:103CE80000004000C8032B058502C4014703EC050A
:103CF8000402000002012B056B056B056B05280407
:103D0800420102016B052B05C10000000000000004
:103D1800000000000000000000000000000000009B
:103D280000000000FFFF000000000000000000008D
:103D3800000000000000000000000000000000007B
:103D4800000000000000000000000000000000006B
:103D5800000000000000000000000000000000005B
:103D6800000000000000000000000000000000004B
:103D7800000000000000000000000000000000003B
:103D8800000000000000FFFF00000000000000002D
:103D9800000000000000000000000000000000001B
:103DA80000008301AC050402000000000000850249
:103DB8008301000002012B056B052B056B056B05C4
:103DC8002A0528042B052B05C1000000000000006F
:103DD80000000000000000000000000000000000DB
:103DE80000000000FFFF00000000000000000000CD
:103DF80000000000000000000000000000000000BB
:103E080000000000000000000000000000000000AA
:103E1800000000000000000000000000000000009A
:103E2800000000000000000000000000000000008A
:103E3800000000000000000000000000000000007A
:103E4800000000000000FFFF00000000000000006C
:103E5800000000000000000000000000000000005A
:103E68000000C6022B05C100000002010402C401C3
:103E7800C200000002012B056B052B052B052B0545
:103E88006B05AB056B052B05C100000000000000A9
:103E9800000000000000000000000000000000001A
:103EA80000000000FFFF000000000000000000000C
:103EB80000000000000000000000000000000000FA
:103EC80000000000000000000000000000000000EA
:103ED80000000000000000000000000000000000DA
:103EE80000000000000000000000000000000000CA
:103EF80000000000000000000000000000000000BA
:103F0800000000000000FFFF0000000000000000AB
:103F18000000000000000000000000000000000099
:103F2800000085026B05C2000000450228042A052E
:103F38002804000002012B056B052B052B056B05DA
:103F48006B05AA042B052B05C1000000000000002A
:103F58000000000000000000000000000000000059
:103F680000000000FFFF000000000000000000004B
:103F78000000000000000000000000000000000039
:103F88000000000000000000000000000000000029
:103F98000000000000000000000000000000000019
:103FA8000000000000000000000000000000000009
:103FB80000000000000000000000000000000000F9
:103FC800000000000000FFFF0000000000000000EB
:103FD80000000000000000000000000000000000D9
:103FE80000000201AB050603000000000000C80342
:103FF800A904000002012B056B056B05AB05EA045B
:10400800450283016B052B05C1000000000000007C
:104018000000000000000000000000000000000098
:1040280000000000FFFF000000000000000000008A
:104038000000000000000000000000000000000078
:104048000000000000000000000000000000000068
:104058000000000000000000000000000000000058
:104068000000000000000000000000000000000048
:104078000000000000000000000000000000000038
:10408800000000000000FFFF00000000000000002A
:104098000000000000000000000000000000000018
:1040A8000000000085026B052904470328042B053E
:1040B800C602000002012B05AB056B054703C200D1
:1040C800000043016B052B05C10000000000000043
:1040D80000000000000000000000000000000000D8
:1040E80000000000FFFF00000000000000000000CA
:1040F80000000000000000000000000000000000B8
:1041080000000000000000000000000000000000A7
:104118000000000000000000000000000000000097
:104128000000000000000000000000000000000087
:104138000000000000000000000000000000000077
:10414800000000000000FFFF000000000000000069
:104158000000000000000000000000000000000057
:10416800000000000000020185020603850202012A
:104178000000000002016B05290443010000000053
:1041880000004301AB056B05810000000000000042
:104198000000000000000000000000000000000017
:1041A80000000000FFFF0000000000000000000009
:1041B80000000000000000000000000000000000F7
:1041C80000000000000000000000000000000000E7
:1041D80000000000000000000000000000000000D7
:1041E80000000000000000000000000000000000C7
:1041F80000000000000000000000000000000000B7
:10420800000000000000FFFF0000000000000000A8
:104218000000000000000000000000000000000096
:104228000000000000000000000000000000000086
:1042380000000000400043014000000000000000B2
:1042480000004000C40183010000000000000000DD
:104258000000000000000000000000000000000056
:1042680000000000FFFF0000000000000000000048
:104278000000000000000000000000000000000036
:104288000000000000000000000000000000000026
:104298000000000000000000000000000000000016
:1042A8000000000000000000000000000000000006
:1042B80000000000000000000000000000000000F6
:1042C800000000000000FFFF0000000000000000E8
:1042D80000000000000000000000000000000000D6
:1042E80000000000000000000000000000000000C6
:1042F80000000000000000000000000000000000B6
:1043080000000000000000000000000000000000A5
:104318000000000000000000000000000000000095
:1043280000000000FFFF0000000000000000000087
:104338000000000000000000000000000000000075
:104348000000000000000000000000000000000065
:104358000000000000000000000000000000000055
:104368000000000000000000000000000000000045
:104378000000000000000000000000000000000035
:10438800000000000000FFFF000000000000000027
:104398000000000000000000000000000000000015
:1043A8000000000000000000000000000000000005
:1043B80000000000000042000000000000000000B3
:1043C80000000000000000000000000000000000E5
:1043D80000000000000000000000000000000000D5
:1043E80000000000FFFF00000000000000000000C7
:1043F80000000000000000000000000000000000B5
:1044080000000000000000000000000000000000A4
:104418000000000000000000000000000000000094
:104428000000000000000000000000000000000084
:104438000000000000000000000000000000000074
:10444800000000000000FFFF000000000000000066
:104458000000000000000000000000000000000054
:104468000000000048018E02CF02CF024C028300F8
:1044780000000000C400B904CF02420000000000A0
:104488000000C400D50394034200000000000000AF
:104498000000000000000000000000000000000014
:1044A80000000000FFFF0000000000000000000006
:1044B80000000000000000000000000000000000F4
:1044C80000000000000000000000000000000000E4
:1044D80000000000000000000000000000000000D4
:1044E80000000000000000000000000000000000C4
:1044F80000000000000000000000000000000000B4
:10450800000000000000FFFF0000000000000000A5
:104518000000000000000000000000000000000093
:104528000000000077047C059303D5033C05B8041C
:10453800830000000501BD05FF05B904CA0100009C
:1045480000008801FF05BE05C4000000000000004F
:104558000000000000000000000000000000000053
:1045680000000000FFFF0000000000000000000045
:104578000000000000000000000000000000000033
:104588000000000000000000000000000000000023
:104598000000000000000000000000000000000013
:1045A8000000000000000000000000000000000003
:1045B80000000000000000000000000000000000F3
:1045C800000000000000FFFF0000000000000000E5
:1045D80000000000000000000000000000000000D3
:1045E80000000000B8043504000000004C02FF057C
:1045F8000601000005017D05BD05BE05BE05D50304
:1046080005010601BD057D05C4000000000000008D
:104618000000000000000000000000000000000092
:1046280000000000FFFF0000000000000000000084
:104638000000000000000000000000000000000072
:104648000000000000000000000000000000000062
:104658000000000000000000000000000000000052
:104668000000000000000000000000000000000042
:104678000000000000000000000000000000000032
:10468800000000000000FFFF000000000000000024
:104698000000000000000000000000000000000012
:1046A800000000007704FB04100351033B0593034B
:1046B8000000000005017D05BD057D057D05BF05E0
:1046C8003B05D5037D057D05C40000000000000002
:1046D80000000000000000000000000000000000D2
:1046E80000000000FFFF00000000000000000000C4
:1046F80000000000000000000000000000000000B2
:1047080000000000000000000000000000000000A1
:104718000000000000000000000000000000000091
:104728000000000000000000000000000000000081
:104738000000000000000000000000000000000071
:10474800000000000000FFFF000000000000000063
:104758000000000000000000000000000000000051
:10476800000000007704FB041003100377047804AA
:104778000501000005017D05BD057D057D057D055B
:10478800BE05BF05BD057C05C40000000000000093
:104798000000000000000000000000000000000011
:1047A80000000000FFFF0000000000000000000003
:1047B80000000000000000000000000000000000F1
:1047C80000000000000000000000000000000000E1
:1047D80000000000000000000000000000000000D1
:1047E80000000000000000000000000000000000C1
:1047F80000000000000000000000000000000000B1
:10480800000000000000FFFF0000000000000000A2
:104818000000000000000000000000000000000090
:1048280000000000B804D503000000008200BE05A7
:104838001003000005017D05BD057D057D05BE054C
:10484800BE053B057D057C05C40000000000000096
:104858000000000000000000000000000000000050
:1048680000000000FFFF0000000000000000000042
:104878000000000000000000000000000000000030
:104888000000000000000000000000000000000020
:104898000000000000000000000000000000000010
:1048A8000000000000000000000000000000000000
:1048B80000000000000000000000000000000000F0
:1048C800000000000000FFFF0000000000000000E2
:1048D80000000000000000000000000000000000D0
:1048E80000000000B8043B054D028D02D503BE054B
:1048F800CA01000005017D05BD057D05BF057C05D4
:104908008E02C9017D057D05C4000000000000007D
:10491800000000000000000000000000000000008F
:1049280000000000FFFF0000000000000000000081
:10493800000000000000000000000000000000006F
:10494800000000000000000000000000000000005F
:10495800000000000000000000000000000000004F
:10496800000000000000000000000000000000003F
:10497800000000000000000000000000000000002F
:10498800000000000000FFFF000000000000000021
:10499800000000000000000000000000000000000F
:1049A800000000004C02350436043604D403CA0162
:1049B8000000000005017D05BE05BE05D403050104
:1049C80000004701BE057D05C4000000000000008E
:1049D80000000000000000000000000000000000CF
:1049E80000000000FFFF00000000000000000000C1
:1049F80000000000000000000000000000000000AF
:104A0800000000000000000000000000000000009E
:104A1800000000000000000000000000000000008E
:104A2800000000000000000000000000000000007E
:104A3800000000000000000000000000000000006E
:104A4800000000000000FFFF000000000000000060
:104A5800000000000000000000000000000000004E
:104A6800000000000000000000000000000000003E
:104A7800000000000501BE05B904CA0100000000DD
:104A880000004701BE05BE05C4000000000000008C
:104A9800000000000000000000000000000000000E
:104AA80000000000FFFF0000000000000000000000
:104AB80000000000000000000000000000000000EE
:104AC80000000000000000000000000000000000DE
:104AD80000000000000000000000000000000000CE
:104AE80000000000000000000000000000000000BE
:104AF80000000000000000000000000000000000AE
:104B0800000000000000FFFF00000000000000009F
:104B1800000000000000000000000000000000008D
:104B2800000000000000000000000000000000007D
:104B3800000000004100C901420000000000000020
:104B4800000041000B020B02010000000000000001
:104B5800000000000000000000000000000000004D
:104B680000000000FFFF000000000000000000003F
:104B7800000000000000000000000000000000002D
:104B8800000000000000000000000000000000001D
:104B9800000000000000000000000000000000000D
:104BA80000000000000000000000000000000000FD
:104BB80000000000000000000000000000000000ED
:104BC800000000000000FFFF0000000000000000DF
:104BD80000000000000000000000000000000000CD
:104BE80000000000000000000000000000000000BD
:104BF80000000000000000000000000000000000AD
:104C0800000000000000000000000000000000009C
:104C1800000000000000000000000000000000008C
:104C280000000000FFFF000000000000000000007E
:104C3800000000000000000000000000000000006C
:104C4800000000000000000000000000000000005C
:104C5800000000000000000000000000000000004C
:104C6800000000000000000000000000000000003C
:104C7800000000000000000000000000000000002C
:104C8800000000000000FFFF00000000000000001E
:104C9800000000000000000000000000000000000C
:104CA80000000000000000000000000000000000FC
:104CB80000000000000000000000000000000000EC
:104CC80000000000000000000000000000000000DC
:104CD80000000000000000000000000000000000CC
:104CE80000000000FFFF00000000000000000000BE
:104CF80000000000000000000000000000000000AC
:104D0800000000000000000000000000000000009B
:104D1800000000000000000000000000000000008B
:104D2800000000000000000000000000000000007B
:104D3800000000000000000000000000000000006B
:104D4800000000000000FFFF00000000000000005D
:104D5800000000000000000000000000000000004B
:104D6800000000000000000000000000000000003B
:104D7800000000000000000000000000000000002B
:104D8800000000000000000000000000000000001B
:104D9800000000000000000000000000000000000B
:104DA80000000000FFFF00000000000000000000FD
:104DB80000000000000000000000000000000000EB
:104DC80000000000000000000000000000000000DB
:104DD80000000000000000000000000000000000CB
:104DE80000000000000000000000000000000000BB
:104DF80000000000000000000000000000000000AB
:104E0800000000000000FFFF00000000000000009C
:104E1800000000000000000000000000000000008A
:104E2800000000000000000000000000000000007A
:104E3800000000000000000000000000000000006A
:104E4800000000000000000000000000000000005A
:104E5800000000000000000000000000000000004A
:104E680000000000FFFF000000000000000000003C
:104E7800000000000000000000000000000000002A
:104E8800000000000000000000000000000000001A
:104E9800000000000000000000000000000000000A
:104EA80000000000000000000000000000000000FA
:104EB80000000000000000000000000000000000EA
:104EC800000000000000FFFFFFFF000000000000DE
:104ED80000000000000000000000000000000000CA
:104EE80000000000000000000000000000000000BA
:104EF80000000000000000000000000000000000AA
:104F08000000000000000000000000000000000099
:104F18000000000000000000000000000000000089
:104F28000000FFFFFFFF000000000000000000007D
:104F38000000000000000000000000000000000069
:104F48000000000000000000000000000000000059
:104F58000000000000000000000000000000000049
:104F68000000000000000000000000000000000039
:104F78000000000000000000000000000000000029
:104F88000000000000000000FFFFFFFF000000001D
:104F98000000000000000000000000000000000009
:104FA80000000000000000000000000000000000F9
:104FB80000000000000000000000000000000000E9
:104FC80000000000000000000000000000000000D9
:104FD80000000000000000000000000000000000C9
:104FE800FFFFFFFF000000000000000000000000BD
:104FF80000000000000000000000000000000000A9
:105008000000000000000000000000000000000098
:105018000000000000000000000000000000000088
:105028000000000000000000000000000000000078
:105038000000000000000000000000000000000068
:1050480000000000000000000000FFFFFFFFFFFF5E
:10505800FFFFFFFFFFFFFFFFFFFFFFFFFFFFFFFF58
:10506800FFFFFFFFFFFFFFFFFFFFFFFFFFFFFFFF48
:10507800FFFFFFFFFFFFFFFFFFFFFFFFFFFFFFFF38
:10508800FFFFFFFFFFFFFFFFFFFFFFFFFFFFFFFF28
:10509800FFFFFFFFFFFFFFFFFFFFFFFFFFFFFFFF18
:1050A800FFFF0000000000000000000000000000FA
:1050B80000000000000000000000000000000000E8
:1050C80000000000000000000000000000000000D8
:1050D80000000000000000000000000000000000C8
:1050E80000000000000000000000000000000000B8
:0662180000000000000080
:10621E0000000000000000007E81A98D8DA9817E06
:10622E007EFFD7F3F3D7FF7E0070F8FC7EFCF8708C
:10623E000010387CFE7C381000185DFFFFFF5D18E3
:10624E0000081D3FFF3F1D080000183C3C180000D1
:10625E00FFFFE7C3C3E7FFFF003C664242663C0018
:10626E00FFC399BDBD99C3FFF0E0FEBF11111F0E14
:10627E000072FA8F8FFA7200E0E0A0A0FEFF070313
:10628E00FCFEA6A0A0FEFF03995A3CE7E73C5A99F4
:10629E0000101038387C7CFE00FE7C7C38381010E4
:1062AE00002466FFFF66240000FAFA0000FAFA00E6
:1062BE00FEFE80FEFE90F0600040DABFA5FD5B02A0
:1062CE00000E0E0E0E0E0E0001296DFFFF6D290140
:1062DE00002060FEFE60200000080CFEFE0C080090
:1062EE000010387C5410101000101010547C381010
:1062FE000004040404043C3C10387C10107C38105C
:10630E000C1C3C7C7C3C1C0C6070787C7C78706037
:10631E00000000000000000000000060FAFA6000BB
:10632E000000E0E000E0E0000028FEFE28FEFE286F
:10633E000000485CD6D6742400466630180C66629F
:10634E0000125EECBAF25E0C0000000000C0E0200D
:10635E0000000082C67C3800000000387CC6820037
:10636E0010547C38387C5410000010107C7C1010B7
:10637E0000000000060701000000101010101010A1
:10638E0000000000060600000080C06030180C06F9
:10639E00007CFEB29A8EFE7C00000000FEFE4000E5
:1063AE00000062F2929ACE4600006CFE9292C644B3
:1063BE000008FEFEC868381800009CBEA2A2E6E4E3
:1063CE0000000C9E92D27E3C0000E0F09E8E8080FB
:1063DE0000006CFE9292FE6C000078FC9692F260C9
:1063EE000000000066660000000000006667010005
:1063FE0000000082C66C38100000242424242424BB
:10640E00000010386CC68200000060F09A8AC0400E
:10641E000078F8BABA82FE7C003E7EC8C87E3E0086
:10642E00006CFE9292FEFE000044C68282C67C384C
:10643E0000387CC682FEFE000082829292FEFE0032
:10644E000080809090FEFE00004ECE8A82C67C3880
:10645E0000FEFE1010FEFE00000000FEFE0000001A
:10646E0000FCFE02020E0C0000C6EE3810FEFE000E
:10647E000002020202FEFE0000FEFE703870FEFEFA
:10648E0000FEFE183060FEFE007CFE8282FE7C0066
:10649E000060F09090FEFE00007AFE8E84FC780084
:1064AE000066FE9890FEFE00004CCE9AB2F6640096
:1064BE00008080FEFE80800000FEFE0202FEFC00D8
:1064CE0000F8FC0606FCF80000FEFE0C180CFEFEA2
:1064DE0000C6EE3838EEC60000E0F01E1EF0E000FA
:1064EE0000C2E2B29A8E86820000008282FEFE0018
:1064FE0000060C183060C080000000FEFE82820094
:10650E0000103060C0603010010101010101010175
:10651E0000000020E0C00000001E3C2A2A2E0400CD
:10652E00000C1E1212FCFE0000143622223E1C002D
:10653E0000FEFC12121E0C0000183A2A2A3E1C0005
:10654E000040C090FE7E1000003E1F25253D180025
:10655E00001E3E2010FEFE00000000BEBE00000029
:10656E000000BEBF010107060022361C08FEFE0019
:10657E00000000FEFE0000001E3E301C3C303E3E81
:10658E00001E3E20203E3E00001C3E22223E1C00ED
:10659E0000183C24241F3F00003F1F24243C1800F9
:1065AE0000103020301E3E0000242E2A2A3A1200FF
:1065BE0000002422FEFC2000003E3C02023E3C0075
:1065CE0000383C06063C3800003C3E0E1C0E3E3C9D
:1065DE000022361C081C3622003E3F05053D3800C1
:1065EE000022323A2E26220000008282EE7C10100B
:1065FE00000000EEEE000000000010107CEE828223
:10660E000080C040C080C040000E1E3262321E0E9E
:10661E0000FEFEC8683E1E00000C9E9292FEFE001A
:10662E00006CFE9292FEFE000080808080FEFE00D6
:10663E000003FFFEC27E3F030082929292FEFE0096
:10664E00C6EE38FEFE38EEC6006CFE9292C64400D0
:10665E0000FEFE3018FEFE00007EFEB098FE7E00AC
:10666E000082C66C38FEFE0000FEFEC0603E1E00BC
:10667E0000FEFE703C70FEFE00FEFE1010FEFE00E0
:10668E00007CFE8282FE7C0000FEFE8080FEFE000C
:10669E000070F88888FEFE000044C68282FE7C00F0
:1066AE00008080FEFE80800000FCFE1212F6E400E8
:1066BE0070F888FEFE88F87000C6EE3838EEC60018
:1066CE0003FFFE0202FEFE0000FEFE1010F0E000D0
:1066DE00FEFE02FEFE02FEFEFFFF02FEFE02FEFEBA
:1066EE00000C1E1212FEFE8000FEFE0C1E12FEFE9E
:1066FE00000C1E1212FEFE0000387CD692928244CE
:10670E007CFE82FE7C10FEFE00FEFE888CFE720079
:10671E00001E3C2A2A2E0400000C5E52527E2C00D3
:10672E0000143E2A2A3E3E0000202020203E3E003D
:10673E0000033E3E321E0E0300183A2A2A3E1C006B
:10674E0022361C3E3E1C362200143E2A22361400EF
:10675E00003E3E180C3E3E00003E3E584C3E3E0073
:10676E000022361C083E3E00003E3E30180E06004B
:10677E00003E3E181E183E3E003E3E08083E3E00BD
:10678E00001C3E22223E1C00003E3E20203E3E00CB
:10679E00AA005500AA005500AA55AA55AA55AA55F1
:1067AE00FF55FFAAFF55FFAA000000FFFF000000E3
:1067BE00000000FFFF101010000000FFFF505050AF
:1067CE0000FFFF00FFFF1010001F1F101F1F1010F3
:1067DE000000007F7F50505000FFFF00DFDF505061
:1067EE0000FFFF00FFFF0000007F7F405F5F505003
:1067FE0000F0F010D0D0505000F0F010F0F010106B
:10680E00000000F0F05050500000001F1F1010103C
:10681E00101010F0F0000000101010F0F01010101A
:10682E001010101F1F101010101010FFFF0000008E
:10683E001010101010101010101010FFFF1010106C
:10684E00505050FFFF00000010FFFF00FFFF000040
:10685E0050D0D010F0F00000505F5F407F7F0000FE
:10686E0050D0D010D0D05050505F5F405F5F50502E
:10687E0050DFDF00FFFF000050505050505050507E
:10688E0050DFDF00DFDF5050505050D0D05050500E
:10689E0010F0F010F0F010105050505F5F5050504C
:1068AE00101F1F101F1F101010F0F010F0F000003E
:1068BE00505050F0F00000005050507F7F0000000C
:1068CE00101F1F101F1F000010FFFF10FFFF1010E2
:1068DE00505050FFFF505050000000F0F0101010BC
:1068EE001010101F1F000000FFFFFFFFFFFFFFFF34
:1068FE001F1F1F1F1F1F1F1F00000000FFFFFFFF96
:10690E00FFFFFFFF00000000E0E0E0E0E0E0E0E07D
:10691E0000183C24243E3E0000143622223E1C0069
:10692E000020203E3E202000003C3E0A0A3A320063
:10693E00183C243E3E243C180022361C1C362200F5
:10694E00033F3E02023E3E00003E3E080838300045
:10695E003E3E023E3E023E3E3F3F023E3E023E3E37
:10696E0000040E0A0A3E3E20003E3E040E0A3E3E43
:10697E0000040E0A0A3E3E00001C3E2A2A2A22006D
:10698E001C3E223E1C083E3E003E3E282C3E12007F
:10699E00002A2A2A2A2A2A2A00002222FA22220041
:1069AE0000081C366341000000004163361C0800DD
:1069BE0060E080FF7F000000000000FEFF01070680
:1069CE000008086B6B08080000486C246C486C24A7
:1069DE0000003078487830000000001818000000E1
:1069EE00000000080800000080E0380E03060C08C6
:1069FE003C4281A5A599423C00000048A898480059
:106A0E0000003C3C3C3C3C00000602020202060038
:106A2000350200003702000036020000FFFFFFFFC2
:106A30000000000000000000000000000000000056
:106A40000000000000000000000000000000000046
:106A5000000000000000080000000800000008001E
:106A6000FFFFFFFF0000000000000000000000002A
:106A70000000000000000000000000000000000016
:0C6A80000000000000000000000000000A
:106A8C00450200004702000046020000FFFFFFFF26
:106A9C0000000000000000000000000000000000EA
:106AAC0000000000000000000000000000000000DA
:106ABC0000000000000008000000080000000800B2
:106ACC00FFFFFFFF000000000000000000000000BE
:106ADC0000000000000000000000000000000000AA
:0C6AEC000000000000000000000000009E
:106AF800020000000400000006000000080000007A
:106B0800100000002000000040000000800000008D
:106B1800000100000002000000040000000800005E
:106B2800001000000020000000400000008000006D
:0A6B380048455849574541522000D6
:0D6B42004E585020004D494B524F45200049
:106B50000200000003000000050000000700000024
:00000001FF
