:10000000FCFF02209D53000069530000695300006B
:1000100069530000695300006953000069530000F0
:1000200069530000695300006953000069530000E0
:1000300069530000695300006953000069530000D0
:1000400069530000695300006953000069530000C0
:1000500069530000695300006953000069530000B0
:1000600069530000695300006953000069530000A0
:100070006953000069530000695300006953000090
:100080006953000069530000695300006953000080
:100090006953000069530000695300006953000070
:1000A0006953000069530000695300006953000060
:1000B0006953000069530000695300006953000050
:1000C0006953000069530000695300006953000040
:1000D0006953000069530000695300006953000030
:1000E0006953000069530000695300006953000020
:1000F0006953000069530000695300006953000010
:1001000069530000695300006953000069530000FF
:1001100069530000695300006953000069530000EF
:1001200069530000695300006953000069530000DF
:1001300069530000695300006953000069530000CF
:1001400069530000695300006953000069530000BF
:1001500069530000695300006953000069530000AF
:10016000695300006953000069530000695300009F
:10017000695300006953000069530000695300008F
:10018000695300006953000069530000695300007F
:080190006953000069530000EF
:10539C0081B000F013F8FFF7E5FF09F089FFFFF784
:1053AC00EDFF09F037FFFFF709FEFFF727FE024874
:0C53BC00FFF786FEFEE700BFDC02FF1FCB
:1053540081B01CF8019B0BF8019BBBEB0A0FF8D141
:0453640001B07047DD
:104F8C0081B04FF000094FF0000CBDEB0A0F04DCB0
:104F9C00BDEB0B0F01DBD446EA464BF8049BBBEB95
:104FAC000A0FFAD1BCEB0A0F05DDE246D9F800B0C6
:0A4FBC000BF1040BF1E701B07047A0
:104FC80081B0CDF800E04FF010010B48FFF7CEFF9D
:104FD8004FF400610948FFF7C9FF4FF40051074833
:104FE800FFF7C4FF4FF004010448FFF7DFFEDDF8C8
:104FF80000E001B0704700BF80F00F4040F00F4064
:00500800A8
:104F740081B0CDF800E0034AFEF71CFDDDF800E047
:084F840001B0704704010400B4
:1039B80081B0CDF800E0FFF7E7FDDDF800E001B0E9
:0239C800704746
:1035900083B0CDF800E006460C4615463046FEF7EF
:1035A00033FD40F2FF1306EA03008009002622469D
:1035B0002946202E39D24FF0010303FA06F402EA1D
:1035C00004031F46A3422ED104031A4B1C19B30057
:1035D000E51801952C68184B04EA03032B60174B80
:1035E00001EA0304019B1B6843EA0404019B1C607D
:1035F00001F48033B3F5803F15D08401104B1B19C3
:103600001433029301F400333BB1FC43029B1B686B
:1036100003EA0404029B1C6005E0029B1B6843EA6A
:103620000704029B1C60761CC3E7DDF800E003B0D2
:10363000704700BF009004400000FFFFFFFF000044
:0436400000F00F4047
:1020080081B040F2FF1100EA01018909084600F297
:1020180009024FF0010101FA02F20449096841EA94
:10202800020202490A6001B0704700BF38800440CC
:00203800A8
:104DB40081B0CDF800E0034AFEF7FCFDDDF800E029
:084DC40001B070470401020078
:1050080081B0CDF800E0012252B222480260224865
:105018000260002149B2214801600260FFF7B0FC3C
:105028001F4800224FF6FF71FFF716FE1D480022A9
:105038000021FFF739FF1C4A1C491D48FFF71EFFD6
:105048001C491D48FFF7CAFA40F2000001B41E23AC
:105058005B2243210520FFF7CDFA01B0174844220F
:105068001621FFF7C3FB164851222221FFF7BEFB8A
:10507800FFF750FB45F6FE17C0F2622700BF00BFDE
:105088007F1EFDD100BF00BF00BFDDF800E001B00A
:10509800704700BF1010FE432C08FE433408FE433F
:1050A8001CE9000016A10000C4F000000700008001
:1050B80040420F0049390000E12800008200FF1F2C
:0450C8009200FF1F34
:1049880081B0CDF800E00321A64801700021A648B7
:1049980001604FF40051A54800F0E8FA4FF40041D7
:1049A800A34800F0E3FA4FF04001A24800F0DEFA15
:1049B8004FF48011A04800F0D9FAA04AA049A148B4
:1049C800FFF742FC012149B29F4801609F480160FE
:1049D8009F480160FFF74EFCFFF7E8F8002149B255
:1049E8009C480160FFF7E2F8012149B2994801604B
:1049F800FFF7DCF8FFF7E8F80121FD20FFF76EF874
:104A080008B102200AE100211220FFF767F808B177
:104A1800022003E10121FD20FFF760F808B1022020
:104A2800FCE00021B120FFF759F808B10220F5E0B9
:104A38000121AE20FFF752F808B10220EEE0012173
:104A4800B320FFF74BF808B10220E7E00021F1207E
:104A5800FFF744F808B10220E0E00121CA20FFF77F
:104A68003DF808B10220D9E000215F20FFF736F8B1
:104A780008B10220D2E00121A020FFF72FF808B1E9
:104A88000220CBE000216020FFF728F808B10220BF
:104A9800C4E001211520FFF721F808B10220BDE08C
:104AA80000210020FFF71AF808B10220B6E0002123
:104AB8005F20FFF713F808B10220AFE0012175204D
:104AC800FFF70CF808B10220A8E000210020FFF74A
:104AD80005F808B10220A1E000215F20FEF7FEFFE3
:104AE80008B102209AE00121A120FEF7F7FF08B1E2
:104AF800022093E000218020FEF7F0FF08B1022099
:104B08008CE00121A220FEF7E9FF08B1022085E030
:104B180000216020FEF7E2FF08B102207EE00121BB
:104B2800B120FEF7DBFF08B1022077E00121322037
:104B3800FEF7D4FF08B1022070E00121BE20FEF785
:104B4800CDFF08B1022069E001210520FEF7C6FF6C
:104B580008B1022062E00121A620FEF7BFFF08B1DC
:104B680002205BE00121C120FEF7B8FF08B1022056
:104B780054E000218A20FEF7B1FF08B102204DE081
:104B880000215120FEF7AAFF08B1022046E00021CB
:104B98008A20FEF7A3FF08B102203FE00121C720C9
:104BA800FEF79CFF08B1022038E00021CF20FEF775
:104BB80095FF08B1022031E00121B420FEF78EFFF5
:104BC80008B102202AE00021A020FEF787FF08B1E3
:104BD800022023E00021B520FEF780FF08B1022063
:104BE8001CE000215520FEF779FF08B1022015E0EE
:104BF8000121B620FEF772FF08B102200EE0002165
:104C08000120FEF76BFF08B1022007E00121AF2069
:104C1800FEF764FF08B1022000E00020DDF800E0A4
:104C280001B07047FA4AFF1FFC4AFF1F80F00F408F
:104C3800C0F00F4000F10F4040F00F4030F100008D
:104C48000700008680A81201980A9442180B944223
:084C5800980B94421820FE4362
:1042500081B0CDF800E003460C4615460648FFF74E
:104260005BF8224619462B460348FFF7EBF9DDF8C9
:0C42700000E001B0704700BF00C00A4031
:1033180081B00F49884206D10E4A0F490A600F4A08
:103328000F490A6012E00F49884206D10E4A0A493D
:103338000A600E4A0A490A6008E00D49884205D128
:103348000C4A05490A600C4A05490A6001B07047F1
:1033580000C002405D380000E002FF1F2127000086
:10336800D84DFF1F00D002403D38000071270000F3
:0C33780000C00A4049390000E1280000B4
:1036440084B0CDF800E00391014610460190029148
:103654001846FEF779FC0299019800F01004240939
:103664002746019002910846FFF712FA0299029147
:103674000846FFF75BF90299019800F000450C68D1
:103684002C430C6000F080450C682C430C600C68E3
:1036940044F440540C600D686FF4804405EA04045B
:1036A4000C6001F20C05BC002E1900F00F05346803
:1036B4002C43346001F20C05BC002E1900F0806527
:1036C40034682C43346001F20C05BC002E1900F060
:1036D400007534682C43346001F20C05BC002E19CB
:1036E40000F0807534682C43346001F20C05BC0092
:1036F4002E1935686FF0F04405EA0404346001F2D1
:103704000C05BC002E1900F00F04E50634682C43A8
:1037140034600191039A0846F9B2FFF7BDFA0199A2
:0E3724000846FEF789FFDDF800E004B07047AC
:101F4C0081B0CDF800E040F2000C83464FEA8C01E2
:101F5C000BEB01010968B1F1FF3F12D00BF1340119
:101F6C004FEA8C03C91809680A460BEB0301096890
:101F7C0008461146FFF756FD0CF1010C1FFA8CFCBC
:0A1F8C00E4E7DDF800E001B0704763
:101A300082B0CDF800E080464FEA581202F007026B
:101A4000914608F01F04A24693010D4AD3184FF0A7
:101A50000102A240019218460A46019901F0ACFF2A
:101A60004FEA0933074AD3184FEA8A029C1808F450
:101A7000E06322681A432260DDF800E002B070479C
:081A800000F00F40009004404B
:102A940081B00B49884203D1012252B209490A602C
:102AA4000949884203D1012252B208490A600849FF
:102AB400884203D1012252B206490A6001B070472C
:102AC40000C00240B007904200D00240B4079042D8
:082AD40000C00A4030069042E8
:1029300081B002686FF4804102EA01010160016820
:1029400041F00101016000F22C031A68124942EAC9
:102950000101196000F208020021116000F20C026E
:102960004FF0F041116000F210024FF0F0411160A1
:1029700000F230020021116000F2340200211160E7
:10298000016841F440610160026844F2010142EAD9
:0C2990000101016001B0704700000A9ACC
:102C9C0091B0CDF800E00F9010468DF840100E90DA
:102CAC0001AB1846FEF772F94FF0FF330D9300237A
:102CBC0006930023089301230A9300230B9300230C
:102CCC000593059B042B41D20D9B002B3ED000237A
:102CDC000793079B102B35D20D9B002B32D0012371
:102CEC000993099B032B29D20D9B3BB3099C029B97
:102CFC0003FB04F6059B9C00314B1B191D68079BBD
:102D0C009C00304B1B191B686B43B6FBF3F420463D
:102D1C000E9BA3420ED30E9B1C1A0C940D9BA3422C
:102D2C0008D90C9B0D93059B0693079B08930B905E
:102D3C00099B0A93099B5B1C0993D2E7079B5B1CBD
:102D4C000793C6E7059B5B1C0593BAE70F9B03F241
:102D5C000C049DF840309B00E5182C681A4B04EAD3
:102D6C0003032B600F9B03F20C049DF840309B0077
:102D7C00E5180A9B5B1EDC072B6823432B600F9B1B
:102D8C0003F20C049DF840309B00E518069B1B04D5
:102D9C0003F440342B6823432B600F9B03F20C0489
:102DAC009DF840309B00E518089B03F00F042B683E
:102DBC0023432B600B98DDF800E011B0704700BF87
:0C2DCC0008F200009CF10000F0FFFC7F0A
:100F980081B0CDF800E00446FFF740FF40F2E831A9
:100FA80000FB01F3154909680A0F1449096801F0A3
:100FB8007061090EC8B21149096801F47001090D80
:100FC800CDB20E49096801F47021090CCEB2D1B234
:100FD80003FA01F10F462360221D27FA00F1116080
:100FE80004F2080227FA05F1116004F20C0227FA4C
:100FF80006F11160DDF800E001B07047448004405C
:00100800E8
:100E240081B00248006801B0704700BF004BFF1F4B
:000E3400BE
:10263C0081B002686FF0010102EA0101016001B092
:02264C007047D5
:10427C0081B0002149B20248016001B0704700BF13
:04428C003410FE43A9
:103BB40081B049F63E47C0F2000700BF00BF7F1E38
:0C3BC400FDD100BF00BF00BF01B0704782
:103BD00081B0012149B20248016001B0704700BFC5
:043BE0003410FE435C
:103AE40081B0CDF800E021B100235BB20B4A136032
:103AF40003E001235BB2094A136000235BB2084A66
:103B04001360C0B2FFF71EFF01235BB2044A1360C7
:103B14000020DDF800E001B0704700BF3C18FE4310
:043B24005008FE4304
:1039480081B0CDF800E082B24FF080610348FFF704
:103958008BF9DDF800E001B0704700BF00C00A40F5
:003968005F
:102C700081B000F22C04236843F00043236000F28B
:102C8000340493B241EA0303236000F22C031C686E
:0C2C9000C4F3C07303B9F8E701B070474B
:104C600081B0124B1860831C1C78C31C1B781B027C
:104C70009BB2E4180E4B1C80031D1C78431D1B784F
:104C80001B029BB2E4180B4B1C80831D1C780A4B43
:104C90001C800A4B19800A4B1A700124094B1C70A6
:104CA0000024094B1C7001B0704700BFE402FF1FD5
:104CB000DE02FF1FE802FF1FEA02FF1FEC02FF1FD8
:0C4CC000DD02FF1F9A00FF1FEE02FF1F25
:104EB00082B0CDF800E05FFA81FA5FFA82FB01462A
:104EC0008C1C2378D9B2641C23781B029BB2CB18AC
:104ED0001FFA83FC641C2178C9B2631C1B781B0277
:104EE0009BB2CB189BB299B20AEB03039BB25B1E39
:104EF0009BB2602B0ED8BAF1000F0BD30BEB0C0357
:104F00009BB25B1E9BB2602B04D8BBF1000F01D398
:104F1000002300E0012303B10BE001FB0CF4831D2F
:104F2000ADF80410A2B219461148FEF7A5FEBDF86F
:104F30000410ADF804105FFA8CF3CAB25FFA8BF17B
:104F40005FFA8AF0FEF7B2FEBDF8041001FB0CF325
:104F50009BB25B009BB299B20548FEF751FE08B1C7
:104F6000022000E00020DDF800E002B0704700BF42
:044F7000EF02FF1F2E
:103C780081B093B20A4600211446024698B28142A6
:103C88000DD223781B021380631C1D461C781388F1
:103C980023431380921C6B1C1C46491CEFE701B0A0
:023CA800704763
:103CAC0081B0CDF800E000F21004E6B2CCB2E5B27F
:103CBC005FFA82F8DFB240F2000901211520FFF70C
:103CCC000BFF49EA00095FFA89F90021F0B2FFF70E
:103CDC0003FF49EA00095FFA89F9A8F1010424B24B
:103CEC00341924B2002120B2FFF7F6FE49EA00098C
:103CFC005FFA89F901217520FFF7EEFE49EA000908
:103D0C005FFA89F90021E8B2FFF7E6FE49EA0009FB
:103D1C005FFA89F97C1E24B22C1924B2002120B23E
:103D2C00FFF7DAFE49EA0004E4B2002C00D100E00F
:0A3D3C00C1E7DDF800E001B07047B8
:103C000081B0CDF800E005460E4601215C20FFF7AB
:103C100069FF08B102201AE001235BB20E4A13606B
:103C200000235BB20D4A1360284605463046034622
:103C3000421E164633B12A7890B2FFF785FE6D1CFE
:103C40003046F4E701235BB2044A13600020DDF83C
:103C500000E001B0704700BF3C18FE435008FE432F
:003C600064
:104E840081B0CDF800E003460C4615460648FEF70F
:104E940041FA224619462B460348FEF7D1FBDDF8BA
:0C4EA40000E001B0704700BF00C00240F9
:1045E40081B0034A1060034A116001B0704700BFF4
:0845F400D84DFF1FE002FF1F7C
:1045FC0081B0CDF800E01FFA80FA1FFA81F995B26C
:10460C001FFA83F8BDF8046005FB08F4A4B2A7B246
:10461C000AEB0504A4B2641EA4B2602C0ED8BAF145
:10462C00000F0BD309EB0804A4B2641EA4B2602CD7
:10463C0004D8B9F1000F01D3002400E001240CB11F
:10464C0003205DE00AF1100A1FFA8AFA01211520F5
:10465C00FFF742FA08B1022052E000211FFA8AF05B
:10466C00FFF73AFA08B102204AE06C1EA4B20AEB3A
:10467C000404A4B20021A0B2FFF72EFA08B1022064
:10468C003EE001217520FFF727FA08B1022037E040
:10469C0000211FFA89F0FFF71FFA08B102202FE062
:1046AC00A8F10104A4B209EB0404A4B20021A0B245
:1046BC00FFF712FA08B1022022E001215C20FFF77B
:1046CC000BFA08B102201BE001256DB20E4C2560DF
:1046DC0000256DB20D4C256000203D4687B2AF42DF
:1046EC0009D2340AE0B2FFF729F9F0B2FFF726F944
:1046FC007F1CBFB2F3E701256DB2044C256000208E
:10470C00DDF800E001B070473C18FE435008FE4352
:00471C009D
:1047F40083B0CDF800E00290602900D31DE0602A68
:1048040000D31AE00023ADF8043088B291B2FFF768
:1048140015FBBDF80440029B1B191B786BB1BDF856
:104824000440029B1B191B7898B2FFF72FFDBDF8BB
:1048340004305B1CADF80430EBE7DDF800E003B0B6
:024844007047BB
:103E400081B0034A1080034A118001B0704700BF5F
:083E5000F04AFF1FF24AFF1FB8
:1042900086B0CDF800E085B240F20001ADF8141010
:1042A00000218DF816107F49097849B97E4900220E
:1042B000084640F2000100F0D3FC012279490A705F
:1042C0007A4909888D4200D2E7E0794909888D4210
:1042D00000D9E2E075490988691A89B28A0092B268
:1042E000744C216808318B1893F800C0591C097868
:1042F000CAB2991C097809025218D91C0978090414
:10430000521821460968891804916B49097821B12E
:1043100069490978022900D064E068490A880021C7
:104320008DF80D105FFA8CF390B265490A889DF8FC
:104330000D1091424AD263490988ADF81410002645
:1043400000218DF80C1082B25FFA83FC9DF80C10EE
:10435000614530D24EB9049909788DF81610049948
:10436000491C04910126F0B200E0F0B29DF816104D
:104370000140C9B291B1544909888DF80400ADF8E3
:104380000620ADF80820BDF814008AB2BDF9081067
:10439000FFF774FABDF806209DF80400BDF814106C
:1043A000491CADF814104100CEB29DF80C10491C08
:1043B0008DF80C10CAE7521C92B29DF80D10491CE2
:1043C0008DF80D105FFA8CF390B2AEE73A49097898
:1043D00029B9BDF814104A1C3A490A8001E037494E
:1043E00008805AE037490B8800218DF80D1098B2EB
:1043F0005FFA8CF332490A889DF80D10914247D23A
:104400002E490988ADF81410002600218DF80C10F3
:1044100082B25FFA83FC9DF80C1061452DD24EB933
:10442000049909788DF816100499491C0491012605
:10443000F0B200E0F0B29DF816100140C9B279B1B7
:10444000214909888DF80400ADF8062010B28AB21F
:10445000BDF81410FFF712FABDF806209DF804000D
:10446000BDF81410491EADF814104100CEB29DF8ED
:104470000C10491C8DF80C10CDE7511C8BB29DF827
:104480000D10491C8DF80D1098B25FFA8CF3B1E74E
:10449000BDF814104A1E09490A80DDF800E006B094
:1044A000704700BF9A00FF1F1CE90000DE02FF1FDB
:1044B000E802FF1FE402FF1FDD02FF1FF24AFF1F99
:0C44C000EA02FF1FF04AFF1FEC02FF1F82
:10387C0082B0CDF800E00FFA80FA0FFA81FB0AF162
:10388C0001031BB25B1E1BB2602B0EDCBAF1000FE6
:10389C000BDB0BF101031BB25B1E1BB2602B04DCB8
:1038AC00BBF1000F01DB002300E001230BB103206F
:1038BC0024E0ADF80420602360225FFA8BF15FFAFC
:1038CC008AF000F0EDF9BDF8043003F47F439BB2AD
:1038DC001C0AA4B2BDF8043003F0FF039BB21B0218
:1038EC009BB244EA0303ADF8043001AB0221184645
:1038FC0000F080F908B1022000E00020DDF800E0C3
:04390C0002B070474E
:10471C0081B0CDF800E0012149B21C4801601C4871
:10472C000160002149B21B48016041F67E27C0F2AE
:10473C00060700BF00BF7F1EFDD100BF00BF00BF3A
:10474C00012149B2134801601349086800B9FBE71D
:10475C0040F600010020FFF7E1F947F600210220A6
:10476C00FFF7DCF942F200010320FFF7D7F90D2126
:10477C000A4801700D210A4801700D210D20FFF728
:10478C002BFADDF800E001B0704700BF3408FE439F
:10479C001010FE432C08FE43080AFE43AA00FF1F1C
:0447AC00AB00FF1F40
:103B280083B0CDF800E08DF80400ADF8081001234B
:103B38005BB2184A1360184B184A1946104600F031
:103B48004DFD00235BB2164A13600220154C246811
:103B5800A0479DF80400134C2468A04702AA521CF1
:103B68001278D4B2A0B20F4C2468A04702AA1278E7
:103B7800D4B2A0B20B4C2468A04701235BB2084A18
:103B88001360094B1A6802B9FBE7DDF800E003B0DF
:103B9800704700BF3408FE435D380000212700004D
:0C3BA8001010FE43E002FF1F080AFE435D
:10385C0081B0CDF800E082B24FF080610348FFF7F1
:10386C0001FADDF800E001B0704700BF00C0024073
:00387C004C
:10383C0081B0CDF800E082B24FF080610348FFF711
:10384C0011FADDF800E001B0704700BF00D0024073
:00385C006C
:103BE40081B0CDF800E0020292B2521891B20B20DB
:0C3BF400FFF798FFDDF800E001B070471B
:1050CC0083B0CDF800E00290002202990A70904A59
:1050DC00904908461146FFF77FFA40F2000102B4EE
:1050EC001E235B2243210520FFF782FA01B08A4977
:1050FC004B2208460521FFF777FB48F2FE67C0F20A
:10510C00933700BF00BF7F1EFDD100BF00BF00BFA3
:10511C000120FFF7D5F9FFF753FE002840F0D480AB
:10512C007E49002208460021FFF7BCFE00217C4886
:10513C00FFF7F4FD002800F0AD80754A754908466C
:10514C001146FFF749FA40F2000102B41E235B221C
:10515C0043210520FFF74CFA01B072494B22084657
:10516C000A21FFF741FB48F2FE67C0F2933700BFFC
:10517C0000BF7F1EFDD100BF00BF00BF6A48FFF714
:10518C0011FB634A634908461146FFF725FA40F2C2
:10519C00000102B41E235B2243210520FFF728FAED
:1051AC0001B0002200216148FFF77CFE60494B22D0
:1051BC0008460521FFF718FB5B490968B1F5007F2C
:1051CC0024D900221046B0F5007F09D2594909189C
:1051DC0001900846FFF732FB0198421C1046F2E79B
:1051EC000023184610280BD242015249891801900D
:1051FC000846FFF703FE0198411C0B461846F1E7E1
:10520C00494A1168A1F500711160D5E700221046DA
:10521C0045490968884209D246490918019008464F
:10522C00FFF70CFB0198421C1046F1E700221046D8
:10523C003D49096888420BD23E490918097801900A
:10524C00C8B2FFF73DFD0198411C0A461046EFE736
:10525C002F4A304908461146FFF7BEF940F20001CB
:10526C0002B41E235B2243210520FFF7C1F901B0D4
:10527C0031494B2208460A21FFF7B6FA48F2FE677D
:10528C00C0F2933700BF00BF7F1EFDD100BF00BF2F
:10529C0000BF18E01E4A1F4908461146FFF79CF94B
:1052AC0040F2000102B41E235B2243210520FFF7CC
:1052BC009FF901B021494B2208460521FFF794FACA
:1052CC00022202990A702BE7114A1249084611462C
:1052DC00FFF782F940F2000102B41E235B22432146
:1052EC000520FFF785F901B01549442208460C2129
:1052FC00FFF77AFA1349512208462321FFF774FA73
:10530C00022202990A70DDF800E003B0704700BF7A
:10531C0049390000E12800000000FF1F16A1000021
:10532C001400FF1F2200FF1FD800FF1F10590000A0
:10533C003300FF1FDC00FF1F4700FF1F5200FF1F41
:08534C006700FF1F7600FF1F40
:1044CC0081B0002821D1234A23490A60234A244978
:1044DC000A60244A24490A60244A25490A60254A6C
:1044EC0025490A60254A26490A60264A26490A6057
:1044FC00264A27490A60274A27490A60274A284939
:10450C000A60284A28490A6022E0012820D1274A5B
:10451C0011490A60264A12490A60264A12490A6061
:10452C00254A13490A60254A13490A60244A14494A
:10453C000A60244A14490A60234A15490A60234A2E
:10454C0015490A60224A16490A60224A16490A602D
:10455C0001B0704735370000C000FF1FDD2400009C
:10456C00AC00FF1F19240000B400FF1F051200004F
:10457C00C400FF1F15130000C800FF1F2514000006
:10458C00B800FF1FBD120000BC00FF1FF12D000082
:10459C00B000FF1FD5130000CC00FF1F89100000D6
:1045AC00D000FF1F65300000D400FF1FF52F000066
:1045BC0025210000B521000045100000E91C000079
:1045CC00350E0000591B000091390000AD0E0000A3
:0845DC00211C000069390000F8
:104DCC0082B0CDF800E000228DF80420FEF742FFFF
:104DDC009DF80420511CC0B218B1322901D2CAB2BC
:104DEC00F2E7322901D3FF2003E0FEF7A7FFFFF71C
:0A4DFC0059F9DDF800E002B070473D
:103C600081B0CDF800E0034C2468A047DDF800E007
:083C700001B07047C000FF1F06
:1037340083B0CDF800E005213C4801704FF28000D1
:10374400C4F20F004FF001014FEAC101384A00F002
:1037540031F9FEF7CFFF00210A290AD2ADF804108F
:10376400FF20344C2468A047BDF80410481C81B2E3
:10377400F2E7FEF7B5FF952200210020FEF766FF71
:10378400ADF80800FEF7B6FFBDF80800012801D027
:10379400012046E0FEF7A4FF872240F2AA11082088
:1037A400FEF754FFADF80800FF20224C2468A04720
:1037B400FF20204C2468A047FF201E4C2468A0470B
:1037C400FF201C4C2468A047FEF794FFBDF80800B6
:1037D400012807D00120FEF7F1FF10B10020FEF709
:1037E400EDFF02E00220FEF7E9FF1048007805280B
:1037F40001D1022015E00D480078042810D0FEF70E
:103804006FFFFF2240F200211020FEF71FFFADF8EA
:103814000800FEF76FFFBDF8080008B1032000E0C0
:103824000020DDF800E003B0704700BFA800FF1FD0
:0838340004010400D84DFF1F40
:1028E00081B0CDF800E086B21048FFF711F94FF043
:1028F00001024FF001010D48FFF712F90B48FFF7F5
:10290000E9F800210948FFF7F1F80848FFF796FEBB
:10291000B2B24FF08061054800F0AAF90348FFF712
:1029200005FA80B2DDF800E001B0704700C00A404F
:00293000A7
:0E1B100081B0016841F00101016001B0704731
:101B200081B004686FF4406304EA03030360940225
:0E1B3000CB021C4303682343036001B07047DF
:101AD40081B000F22C031A68024942EA010119603C
:081AE40001B0704700000A9AEE
:101AEC0081B000F208058AB2140400F208021368EF
:101AFC00034A03EA020244EA02022A6001B0704778
:041B0C00FFFF0000D7
:101D2C0081B000F22C010A68C2F3404101B9F8E716
:101D3C0000F2380109688BB200F22C024FF400312A
:081D4C00116098B201B070476C
:1027200081B0CDF800E086B21048FFF7F1F94FF024
:1027300001024FF001010D48FFF7F2F90B48FFF7D6
:10274000C9F900210948FFF7D1F90848FFF776FFDA
:10275000B2B24FF08061054800F08AFA0348FFF7F3
:10276000E5FA80B2DDF800E001B0704700C0024039
:0027700069
:1027700081B0CDF800E086B21048FFF7C9F94FF0FC
:1027800001024FF001010D48FFF7CAF90B48FFF7AE
:10279000A1F900210948FFF7A9F90848FFF74EFF02
:1027A000B2B24FF08061054800F062FA0348FFF7CB
:1027B000BDFA80B2DDF800E001B0704700D0024001
:0027C00019
:1026F80081B0CDF800E0012149B205480160FF2012
:10270800044C2468A047DDF800E001B0704700BF22
:082718000C10FE43D84DFF1F19
:1026E40081B0002149B20248016001B0704700BFC7
:0426F4000C10FE4385
:1026500084B0CDF800E002918DF80C2000F2400427
:10266000A0B21F4C2468A04702ABDB1C1B78DCB275
:10267000A0B21B4C2468A04702AB9B1C1B78DCB2A9
:10268000A0B2174C2468A04702AB5B1C1B78DCB2DD
:10269000A0B2134C2468A04702AB1B78DCB2A0B2F6
:1026A0000F4C2468A0479DF80C000D4C2468A047EF
:1026B0000021ADF80410FF20094C2468A047BDF8A4
:1026C000041082B24B1C99B200F080039BB213B18C
:1026D000642900D2EDE790B2DDF800E004B0704765
:0426E000D84DFF1FB3
:1027C00084B0CDF800E08DF80C000021ADF80410C5
:1027D000BDF8042042F210718A4280F077809DF8A3
:1027E0000C1099B9FFF77EFFFF2200210120FFF7AF
:1027F0002FFFADF80600FFF77FFFBDF8061021B9E7
:10280000002235490A70002061E059E0FFF76AFFB5
:10281000FF2200213720FFF71BFFADF80600FFF76E
:102820006BFFBDF80610012949D1FFF75BFFFF22BE
:102830004FF080412920FFF70BFFADF80600FFF7AE
:102840005BFFBDF80610002938D19DF80C10022955
:102850002FD1FFF747FFFF2200213A20FFF7F8FEB4
:10286000ADF80600FF201D4C2468A047ADF8080015
:10287000FF201A4C2468A047FF20184C2468A0476A
:10288000FF20164C2468A047FFF736FFBDF806105E
:1028900071B9BDF8081001F0400189B219B10422E4
:1028A0000D490A7002E003220B490A7000200EE075
:1028B00004E0012208490A70002008E000E005E079
:1028C000BDF80410491CADF8041081E70120DDF8C3
:1028D00000E004B0704700BFA800FF1FD84DFF1FE5
:0028E000F8
:102DF00082B0CDF800E04C20214C2468A047002090
:102E00001F4C2468A04700201D4C2468A0470020C8
:102E10001B4C2468A0470020194C2468A047FF20C1
:102E2000174C2468A0470022ADF80420FF20144C62
:102E30002468A047BDF8042083B2511C8AB200F078
:102E4000800080B210B1642A00D2EDE703F0800068
:102E500080B238B1ADF80430FFF74EFCBDF8043055
:102E600098B208E0FF20064C2468A0470028F9D05B
:102E7000FFF742FC0020DDF800E002B0704700BF21
:042E8000D84DFF1F0B
:1030640081B0CDF800E0FD20084C2468A047FF2083
:10307400064C2468A047B0F1FF0F00D0F7E7FFF734
:1030840039FB0020DDF800E001B07047D84DFF1F88
:003094003C
:102FF40082B0CDF800E0FFF76FFD08B1012027E0B3
:10300400FFF7CAFC08B1012022E013480268124805
:1030140001686FF0060001400F4801600F48006826
:103024000192FEF787FF019AC4B23CB902F0060090
:103034000192FEF7AFFF019AC4B2FFE706480260AF
:1030440040F20020FFF74CF908B1012000E0A0B2E3
:10305400DDF800E002B0704728100B40A000FF1F0D
:003064006C
:102ADC0094B0CDF800E04FF00000129000208DF87B
:102AEC004C0000200190002002900120FEF7E4FF32
:102AFC00554801686FF0010001405348016005A87A
:102B0C00FEF7FEFA01208DF80C0005A88DB0844666
:102B1C000DF1000B0BF1340A02F016FC4B48FEF7DA
:102B2C0035FB0DB04A494FF08070FEF7A3FB002136
:102B3C004FF0FF30FDF748FE00214FF0FF30FDF75E
:102B4C0085FE444C01214348FDF73EFE0121204601
:102B5C00FDF77CFE05A8FEF7D3FA4FF400700D903C
:102B6C0080200F9080201090002011900BA8FDF772
:102B7C0083FE0FA8FDF7ACFE05A8FDF755FE364801
:102B8C00049001208DF80C0003A8FDF797FDFEF7CB
:102B9C00C3F908B1012053E0FEF7D2F9A0B9002027
:102BAC00FEF7EAF9B0F5D57F07D14FF001012B48BC
:102BBC0001604FF08040129005E04FF0FF31274844
:102BCC00016001203CE002E00020FEF717FA002033
:102BDC00FEF714FA002832D19DF84C0008BB01997D
:102BEC001F4881421DD20020FEF708FA08B10120CF
:102BFC0026E01298FEF776FE08B1012020E00020B6
:102C0C00FEF7BAF90290C00F012802D1012040B2A0
:102C1C0001E0002040B28DF84C000198401C01905E
:102C2C00DAE701990E48814201D3012008E00298AD
:102C3C0000F0804018B14FF00201084801600020FC
:102C4C00DDF800E014B0704700D0004058F00000F0
:102C5C001027000003007F01801A0600A400FF1F4C
:042C6C00FFFF000066
:101AC40081B00249086001B0704700BF44069042EB
:001AD40012
:10110C0081B0021D204911600021017000F208021B
:10111C000021116000F208010A1D4FF0000111605E
:10112C0000F2080101F208020021116000F208012E
:10113C0001F20C020021116000F218024FF00001C4
:10114C00116000F218010A1D4FF02001116000F22D
:10115C00180101F208024FF00001116000F21801B1
:10116C0001F20C020021116000F228021021116022
:10117C0000F228010A1D1021116000F23002012139
:0C118C00116001B0704700BFA086010098
:1011980082B0CDF800E001904FF00000FFF7EAF9C7
:1011A80002A90846FFF78CFA1349097829B901986A
:1011B80000F0C8FE012210490A7008A90846FFF786
:1011C8005DFB0CA90846FFF785FB02A90846FFF757
:1011D8002DFB04A90846FFF70FFB00214FF0FF3055
:1011E800FFF7F4FA00214FF0FF30FFF731FBDDF88D
:0C11F80000E002B0704700BFA900FF1F1C
:10057C0081B078B1B0F1805F0CD00F49884209D0BE
:10058C000E49884206D0B0F1005F03D0B0F1405F55
:10059C0000D00DE00A490A680A490A4008490A6075
:1005AC000749096841EA000205490A60012000E098
:1005BC00002001B0704700BF0000011000000310C4
:0805CC0004800440000003302C
:1006C80086B0CDF800E04FF010084FF4807A4FF074
:1006D80001094FF0020B3B490A686FF00F010A400D
:1006E80038490A600178012940F0678035490A686D
:1006F80002F00F018C4602A90190084600F048FC60
:100708000198011D0968002938D90299B1FBF8F14F
:10071800B1FBFAF2011D09688A4205D950464146E3
:100728000B460146604628E0074660464646554661
:100738004C465B460299B1FBF3F1B1FBF6F2391D69
:1007480009688A4203D9AB4201D25B00F2E70196FD
:100758000546384626461C46019B0299B1FBF4F132
:10076800B1FBF6F2011D09688A4203D99E4201D203
:10077800761CF2E733462146284602E06046594691
:100788004B464A08591E1202090142EA010140EA91
:1007980001026FF4702102EA010141F4602141F085
:1007A800070208490A60084A116801B1FBE70549D0
:1007B800096841F0080203490A60DDF800E006B064
:0C07C800704700BF2C100B408C046243F3
:1008840081B012490A68124902EA01010B4600F2DA
:100894000C010A680E4902EA010143EA01020D490A
:1008A4000A40016801F001010A43011D096801F0D1
:1008B40030010A4300F20801096801F4407142EA78
:1008C400010108460149086001B0704728100B4037
:0808D40088000D07CEFCFFFFB8
:1008DC0081B0016809040A46011D096842EA010158
:1008EC0008460249086001B0704700BF44100B4035
:0008FC00FC
:1008340081B007490A686FF003010A4000F23001F1
:10084400096842EA010108460149086001B070479D
:04085400C0100B4085
:1008000081B04FF0000201680A43011D09680A43E4
:1008100000F2080109680A4300F20C01096801F0BE
:10082000D00142EA010108460149086001B0704761
:04083000C4100B40A5
:1007D40081B0012906D1084A126842EA0003064A98
:1007E400136006E0C343044A126802EA0303024AA0
:0C07F400136001B0704700BF34100B40D0
:1008580081B0012906D1084A126842EA0003064A13
:10086800136006E0C343044A126802EA0303024A1B
:0C087800136001B0704700BF38100B4047
:1012800081B000F0E06318460B4A126842EA03039B
:10129000094A1360084A126802401AB101B901E014
:1012A000491EF7E7002940F2000200D10122D2B224
:0C12B000D0B201B0704700BF2C100B4002
:100F240087B0CDF800E001A8FFF7E6FC00200390AD
:100F34004FF00000059001A8FFF74AFBFFF7A6FB5E
:080F4400DDF800E007B0704782
:1008FC0081B000210160021D0021116000F208028C
:10090C004021116000F20C024FF00001116000F266
:10091C0010024FF00001116000F21402002111606E
:04092C0001B070475F
:1005D40081B0224A116801B1FBE700F20801096801
:1005E400A1B100F2080109680C2910D000F2080139
:1005F40009680D290CD000F208010968342908D0D3
:10060400174A1168002900D0FAE7FFE7FFE7FFE780
:10061400FFE7011D0A6813490A6000F2080109682E
:10062400090601F07C5200F20C01096801F4400152
:100634000A4300F21001096801F4403142EA010161
:100644000B4600F214010A68074902EA010143EA71
:10065400010108460549086001B0704780046243FF
:100664008404624308100B40370038000C100B4020
:0006740086
:1006900081B0CDF800E00B4A002A06D94FF00100E6
:1006A000FFF7F2FE08B9521EF6E70AB9012004E08E
:1006B0004FF00300FFF75AFF0020DDF800E001B023
:0806C000704700BF1027000085
:1004880081B0054909680140814201D1012000E09D
:0C049800002001B0704700BF30100B4086
:10056C0081B00249086001B0704700BF30100B40E9
:00057C007F
:100F4C0087B0CDF800E001A8FFF7D2FC0820039091
:100F5C004FF4D57002904FF4003005904FF4C01050
:100F6C00069001A8FFF730FBFFF77EFBFFF7DAFCDA
:080F7C00DDF800E007B070474A
:1006740081B041F67E27C0F2060700BF00BF7F1E8F
:0C068400FDD100BF00BF00BF01B07047F7
:1009300081B0CDF800E01548026815480146154819
:1009400002EA000028B9002903D9491E0F480268AD
:10095000F5E719B102F4803000B905E04FF48030BA
:10096000FFF704FE01200DE002F4003028B14FF43F
:100970000030FFF7FBFD012004E04FF00300FFF71C
:10098000F5FD0020DDF800E001B0704730100B40AD
:08099000102700000100030024
:100F840081B0034A810051180968084601B07047CE
:040F940010100B40EE
:1010080087B0CDF800E0034601A90846FFF772FC57
:10101800372103914FF4003105914FF4C011069127
:101028000BB11904029101A90846FFF7CFFAFFF79F
:0A103800A3FDDDF800E007B07047EB
:100B800081B0CDF800E0484802684849484802EA88
:100B9000000028B9002903D9491E43480268F5E737
:100BA00019B102F4803000B905E04FF48030FFF74E
:100BB000DDFC012073E002F4003028B14FF4003076
:100BC000FFF7D4FC01206AE002F4002028B14FF4C2
:100BD0000020FFF7CBFC012061E04FF00300FFF79E
:100BE000C5FC002000F0CEF90246410A01F00F01D9
:100BF00008463049084008B9002050E002F00040A3
:100C000008B101204BE002F0804008B1012046E02D
:100C100002F0005008B1012041E002F0805008B11C
:100C200001203CE002F0006008B1012037E002F052
:100C3000806008B1012032E002F4000008B1012018
:100C40002DE002F4800008B1012028E002F4001039
:100C500008B1012023E002F4801008B101201EE059
:100C600002F4002008B1012019E002F4802008B14C
:100C7000012014E002F4003008B101200FE002F47A
:100C8000803008B101200AE002F4804008B1012060
:100C900005E002F0080008B1012000E00020DDF8C6
:100CA00000E001B0704700BF30100B40102700007B
:080CB0000100030008E0FFFD54
:1018F00087B0CDF800E001A90846FEF7FFFF2921D7
:101900000391074902914FF40031059101A908465E
:10191000FEF760FEFFF70CF9DDF800E007B0704756
:041920000000304053
:100B300081B0CDF800E0104802681048014602F08C
:100B4000011028B9002903D9491E0B480268F6E7AD
:100B500019B102F4803000B905E04FF48030FFF79E
:100B600005FD012004E04FF00300FFF7FFFC00202B
:100B7000DDF800E001B0704730100B401027000096
:000B800075
:10299C0081B0CDF800E0FEF7BFFF08B901205BE085
:1029AC002F48006804281CD0FEF762FF08B10120F4
:1029BC0052E00020FEF7E0FA2A4908600120FEF7F9
:1029CC00DBFA294908600220FEF7D6FA274908608D
:1029DC000320FEF7D1FA6FF07F4100EA0101244891
:1029EC0001601F48006860B11D480068012808D0CC
:1029FC001B480068062804D019480068022800D03B
:102A0C0006E01C490020FEF74BFF08B1012023E033
:102A1C001348006804281ED016480068FFF72EF8EB
:102A2C0008B1012018E00020FEF7A6FA1249086050
:102A3C000120FEF7A1FA114908600220FEF79CFA6A
:102A4C000F4908600320FEF797FA6FF07F4100EA08
:102A5C0001010C4801600020DDF800E001B0704776
:102A6C00A400FF1FDC4DFF1FE04DFF1FE44DFF1FB7
:102A7C00E84DFF1FA000FF1FEC4DFF1FF04DFF1F87
:082A8C00F44DFF1FF84DFF1F80
:1019240081B00449086808B1012000E0002001B03A
:08193400704700BF4406904219
:10187C0087B0CDF800E001A8FFF73AF802200390FA
:10188C004FF4803005904FF40020069001A8FEF72D
:0E189C009BFEFFF713F9DDF800E007B0704780
:100AC80081B0CDF800E01548026815480146154880
:100AD80002EA000028B9002903D9491E0F48026814
:100AE800F5E719B102F4803000B905E04FF4803021
:100AF800FFF738FD01200DE002F4003028B14FF473
:100B08000030FFF72FFD012004E04FF00300FFF74E
:100B180029FD0020DDF800E001B0704730100B40DF
:080B280010270000010003008A
:1018AC0087B0CDF800E003460C4601AA1046FFF7BE
:1018BC001FF8032203924FF4003205924FF4C0122A
:1018CC0006920BB11A04029201AA1046FEF77CFE96
:1018DC00FEF7CAFE2046FFF7E9F9DDF800E007B095
:0218EC00704743
:100CB80081B0CDF800E00246274909682748134665
:100CC8000A46274902EA010129B9002803D9401E2A
:100CD80021490A68F5E718B102F4803101B905E045
:100CE8004FF48030FFF73EFC012030E002F4003181
:100CF80029B14FF40030FFF735FC012027E002F45A
:100D0800002129B14FF40020FFF72CFC01201EE040
:100D18004FF00300FFF726FC002000F02FF90246F1
:100D280000F4604119B9110C196000200FE002F4B9
:100D3800005109B101200AE002F4804109B1012003
:100D480005E002F4004109B1012000E00020DDF8CF
:100D580000E001B0704700BF30100B4010270000C2
:040D68000100030083
:101A880087B0CDF800E0034601A90846FEF732FF0B
:101A9800092103914FF4803105914FF400210691FB
:101AA8000BB11904029101A90846FEF78FFDFFF753
:0A1AB80007F8DDF800E007B0704702
:101F380081B0CDF800E0FFF7FDFCDDF800E001B06E
:021F48007047E0
:10193C0087B0CDF800E0034601A90846FEF7D8FFB2
:10194C00072103913BB1190402914FF440310591E9
:10195C004FF4C011069101A90846FEF735FEFFF7BA
:0A196C0009F9DDF800E007B070474C
:101F980081B0CDF800E019490968032906D1B0F5E8
:101FA800805F01D1002024E0012022E01349096864
:101FB80041B112490968012904D010490968022968
:101FC80000D015E0B0F5805F01D1012011E0B0F537
:101FD800006F07D10120FFF7CBFC002801D00120BA
:101FE80007E005E00020FFF7C3FC08B1012000E08E
:101FF8000020DDF800E001B0704700BFA400FF1F1B
:00200800D8
:1019780086B0CDF800E0C3B20DF1100B0BF1080AE8
:10198800DFF898C003F0E2FC04AA254909688DF83D
:10199800043088B21146FFF71DFA9DF8043008B1EB
:1019A800012037E01F49039101218DF8081002A991
:1019B8008DF804300846FEF783FE9DF80430012BAD
:1019C80014D104A9091D096801F4806161B11449A1
:1019D80009680846FFF714FB08B101201AE040F235
:1019E8000200FFF7DBF915E0012013E004A9091D47
:1019F800096801F4807161B1094909680846FFF76F
:101A0800FFFA08B1012005E040F20000FFF7C6F92F
:101A180000E00120DDF800E006B0704718F2000091
:081A2800A000FF1F40787D01C2
:100DDC0081B0CDF800E00C460E4A1268104600F0C7
:100DEC000DF908B1012010E02046FFF755FB08B1C2
:100DFC0001200AE000214FF00800FFF7E5FC00217C
:100E0C004FF00800FFF722FD0020DDF800E001B0F4
:080E1C00704700BFA000FF1F9A
:1004A4008CB0CDF800E0044607A90846FFF7CAFF60
:1004B400082108910121099107A90846FFF7D0FFF7
:1004C4004FF40070FFF7A2FF01A9084600F014FAE8
:1004D40007A90191332103914FF4003105914FF4A1
:1004E400C01106911C490691099A08994A430B9434
:1004F4001A491140090441F0210141F002010A9115
:100504000B9A17490A600A9A16490A601548FFF7B8
:100514008DFF01214FF0080000F05AF901214FF03E
:10052400080000F097F901A9084600F051F82246A6
:100534004FF00200FFF7A6FF00B9F9E7116808467B
:10054400111D09681160111D086000F017FBDDF82A
:1005540000E00CB0704700BF11003800FFFF00003E
:08056400CC4DFF1FC84DFF1F25
:1004480081B0021D0021116000F208020021116034
:0A0458004FF46021016001B070470D
:1004640081B0011D09680A4600F2080109680904FF
:1004740042EA010108460249086001B0704700BF22
:0404840004100B4015
:1004100081B006490A686FF440710A4042EA00015F
:1004200008460249086001B0704700BF28100B4021
:00043000CC
:1004300081B0002202490A600249086001B0704799
:0804400000100B4058100B40A6
:100DA40087B0CDF800E0034601A90846FFF7A4FD8B
:100DB400062103914FF4003105914FF4C0110691BF
:100DC400029301A90846FFF703FCFFF7D7FEDDF8FD
:060DD40000E007B07047CB
:1022E40087B0CDF800E0034601A90846FEF704FBD9
:1022F400102103914FF4003105914FF4C011069160
:10230400029301A90846FEF763F9FEF737FCDDF8EE
:0623140000E007B0704775
:1039900081B0CDF800E0FEF78BFC08B1012005E016
:1039A00004494FF08060FDF76BFC0020DDF800E07B
:0839B00001B070471027000070
:1022B00087B0CDF800E001A8FEF720FB0C200390CA
:1022C0004FF4403005904FF4C01006904FF440009A
:1022D000049001A8FEF77EF9FEF752FCDDF800E05D
:0422E00007B070478C
:1039680081B0CDF800E0FEF79FFC08B1012005E02A
:1039780004494FF08060FDF77FFC0020DDF800E08F
:0839880001B070471027000098
:103D480081B0CDF800E001212B48017040F200223B
:103D580012B200212948FFF7D7FD0026022E0AD209
:103D6800710127484018202212B20021FFF7CCFD2C
:103D7800761CF6B2F2E7202212B200212148FFF7A2
:103D8800C3FD0026042E0AD2F1001F48401808225D
:103D980012B20021FFF7B8FD761CF6B2F2E718223E
:103DA80012B200211948FFF7AFFD13491848016006
:103DB80000211848017000211748016000211748A8
:103DC8000170002116480180002116480160FF217A
:103DD80049B2154801700D2212B200211348FFF7AD
:103DE80093FD002112480180002112480180DDF86E
:103DF80000E001B0704700BF044DFF1F044BFF1FD8
:103E0800644DFF1F444DFF1F084DFF1F284DFF1F26
:103E1800A44DFF1F404DFF1FA84DFF1FEF4AFF1F76
:103E2800424DFF1FAC4DFF1F414DFF1FB04DFF1FFF
:083E3800BE4DFF1FC04DFF1F2E
:1039100081B013B20246C8B211461DB22CB26B1E62
:103920001DB214B10870491CF8E7104601B0704789
:0039300097
:1040B00083B0CDF800E00121594801705949002032
:1040C000FFF736FC20B1102157480170FF20A2E015
:1040D000544901F5FF700078552801D001209AE07D
:1040E00001F2FF100078AA2801D0012093E00022FD
:1040F0000878E92802D10120C2B2FFE70878EB284E
:1041000005D1881C0078902803D1012000E0D0B2AE
:1041100000E0D0B2002848D0444A80201070111D21
:10412000002008600192FEF7B5FF019A002801DA2D
:10413000012070E03E480088002830D03D480178DA
:104140003D4800780843C0B248B13A4800780302BD
:10415000394800781B18511C0420087004E03748C7
:104160000368511C0620087035480068191A354844
:104170000088B1FBF0F10B4640F6F570814204D2A5
:10418000511C01200870012045E04FF6F570834274
:1041900004D9511C0B20087001203CE004E0511CA4
:1041A0000B200870012036E034E0274C0023042B5C
:1041B00016D2D9001D4841180A4620780870201DE3
:1041C0000446511C00780870211D0C46101D0290F9
:1041D0000846FFF78FF8029908605B1C9BB2E6E780
:1041E0001A480078C10011484018401C0078042883
:1041F0000AD016480078C1000C484018401C0078CE
:10420000062801D0012006E0FEF744FF002801DA6D
:10421000012000E00020DDF800E003B0704700BF9F
:10422000044DFF1F044BFF1FEF4AFF1F084DFF1FE8
:10423000324DFF1F184BFF1F174BFF1F244BFF1F53
:104240003C4DFF1F2A4DFF1FC24CFF1F404DFF1F5B
:004250006E
:1039300081B0CDF800E0034C2468A047DDF800E03A
:0839400001B07047AC00FF1F4D
:1024DC0085B0CDF800E00346029100F0FDF81E4AED
:1024EC001278042A01D1184600E05802FF22014656
:1024FC00112000F0A7F818B100F0F8F8012027E03F
:10250C00FF20164C2468A047FE2800D0F8E70023D3
:10251C0099B2B1F5007F10D2029A52180492ADF81C
:10252C000410FF200D4C2468A047BDF80410049A39
:10253C0010704A1C93B299B2EBE7FF20074C246849
:10254C00A047FF20054C2468A04700F0CFF80020DE
:10255C00DDF800E005B07047A800FF1FD84DFF1F45
:00256C006F
:1024180083B0CDF800E00346029100F05FF92B4A43
:102428001278042A01D1184600E05802FF2201461A
:10243800182000F009F918B100F05AF9012040E01D
:10244800FF20234C2468A047FF20214C2468A04784
:10245800FE201F4C2468A047002040F2FF12904243
:102468000FD8029A12181278D4B2ADF80400A0B2AC
:10247800174C2468A047BDF80400421C91B288B2EA
:10248800EBE7FF20124C2468A047FF20104C24687B
:10249800A047FF200E4C2468A04700F01F0292B20C
:1024A800052A03D000F024F902200AE0FF20084C96
:1024B8002468A047B0F1FF0F00D0F7E700F018F943
:1024C8000020DDF800E003B0704700BFA800FF1F40
:0424D800D84DFF1FBD
:1021240084B0CDF800E004460B460BB9012036E03C
:1021340001AA1046FEF786F940F20022029201221B
:102144000392194A019201AA1046FEF789F9174A27
:102154001268022A02D12046044602E062021046B6
:102164000446114E1D46FFF787FA18B1002E01D917
:10217400761EF8E70EB9012011E029462046FFF744
:102184001FFB08B101200AE000214FF00800FEF710
:102194001FFB00214FF00800FEF75CFB0020DDF878
:1021A40000E004B0704700BFFFFF0F00A400FF1F52
:0021B4002B
:10167C0082B0CDF800E04FF000014C4800680191B9
:10168C00FFF76EFB01994A4801EA000010B949487E
:10169C000168F8E701F4803028B14FF48030FEF790
:1016AC005FFF01207EE001F4003028B14FF40030E0
:1016BC00FEF756FF012075E001F4002028B14FF42D
:1016CC000020FEF74DFF01206CE04FF00300FEF709
:1016DC0047FF0020FFF750FC014600F0004008B126
:1016EC0001205FE001F0804008B101205AE001F0D8
:1016FC00005008B1012055E001F0805008B10120E4
:10170C0050E001F0006008B101204BE001F0806076
:10171C0008B1012046E001F0807008B1012041E0E1
:10172C0001F4000008B101203CE001F4800008B194
:10173C00012037E001F4001008B1012032E001F47F
:10174C00801008B101202DE001F4002008B1012027
:10175C0028E001F4802008B1012023E001F40030DE
:10176C0008B101201EE001F4803008B1012019E01D
:10177C0001F4004008B1012014E001F4804008B1EC
:10178C0001200FE001F4005008B101200AE001F043
:10179C00080008B1012005E001F4807008B10020B8
:1017AC0000E00120DDF800E002B07047A000FF1F50
:0817BC000100030030100B4096
:100D6C0087B0CDF800E0034601A90846FFF7C0FDA7
:100D7C000D2103914FF4003105914FF4C0110691F0
:100D8C000BB11904029101A90846FFF71DFCDDF80F
:060D9C0000E007B0704703
:1017C4008CB0CDF800E003460C4607AA1046FEF79D
:1017D40039FE40F2002208920122099207AA10461B
:1017E400FEF73EFE4FF40070FEF710FE01AA10460D
:1017F400FFF782F8112203924FF4003205924FF45E
:10180400C0120692184A06920293099B089A5343FF
:101814000B94164A1A40120442F0210242F00202CA
:101824000A920B9B124A13600A9B124A13601148D6
:10183400FEF7FCFD01214FF00800FEF7C9FF01216E
:101844004FF00800FFF706F801AA1046FEF7C0FEA5
:101854004FF00200FEF716FE00B9F9E7FFF78EF924
:10186400DDF800E00CB0704711003800FFFF000005
:08187400CC4DFF1FC84DFF1F02
:1021B40085B0CDF800E004460B460BB9012045E09C
:1021C40002AA1046FEF73EF940F2002203920122D1
:1021D4000492204A029202AA1046FEF741F91E4ACE
:1021E4001268022A02D12046044602E06202104626
:1021F4000446184E1D46FFF73FFA18B1002E01D9C8
:10220400761EF8E70EB9012020E029462046FFF7A4
:1022140025F908B1012019E000214FF00800FEF76C
:10222400D7FA00214FF00800FEF714FB01AA10466C
:10223400FFF770F908B1012008E09DF80420072A8F
:10224400F4D09DF80420062AF0D00020DDF800E048
:0C22540005B07047FFFF0F00A400FF1F43
:101460008CB0CDF800E003460C4607AA1046FEF704
:10147000EBFF40F2002208920122099207AA1046CF
:10148000FEF7F0FF4FF40070FEF7C2FF01AA10460E
:10149000FFF734FA182203924FF4003205924FF40A
:1014A000C0120692184A06920293099B089A534367
:1014B0000B94164A1A40120442F0210242F0020232
:1014C0000A920B9B124A13600A9B124A136011483E
:1014D000FEF7AEFF01214FF00800FFF77BF9012175
:1014E0004FF00800FFF7B8F901AA1046FFF772F8AD
:1014F0004FF00200FEF7C8FF00B9F9E7FFF740FB25
:10150000DDF800E00CB0704701003800FFFF00007C
:08151000CC4DFF1FC84DFF1F69
:1015180083B0CDF800E04FF000025249096801920B
:1015280002900846FFF71EFC0298019A03461046EF
:101538004D4900EA010111B94C490868F8E700F47F
:10154800803129B14FF48030FFF70CF8012084E096
:1015580000F4003129B14FF40030FFF703F80120FF
:101568007BE000F4002129B14FF40020FEF7FAFFD8
:10157800012072E04FF00300FEF7F4FF0020FFF7B0
:10158800FDFC0246410A01F00F01C9B21970384941
:1015980002EA010109B900205FE002F0004109B147
:1015A80001205AE002F0804109B1012055E002F023
:1015B800005109B1012050E002F0805109B1012029
:1015C8004BE002F0006109B1012046E002F08061C1
:1015D80009B1012041E002F0807109B101203CE02D
:1015E80002F4000109B1012037E002F4800109B1D9
:1015F800012032E002F4001109B101202DE002F4CB
:10160800801109B1012028E002F4002109B101206C
:1016180023E002F4802109B101201EE002F4003128
:1016280009B1012019E002F4803109B1012014E068
:1016380002F4004109B101200FE002F4804109B130
:1016480001200AE002F4005109B1012005E002F08E
:10165800080109B1012000E00020DDF800E003B036
:10166800704700BFA000FF1F0100030030100B40AF
:0416780008E0FFFD8A
:1030940085B0CDF800E0012134480170344800784F
:1030A400C10034484018001D0068334900F03EFC5C
:1030B40028B1102131480170FF2040B251E030485E
:1030C400FFF7EAF82F49049108802F4801782F4828
:1030D40001802F48FFF7E0F82E49039108802E481D
:1030E40001782E48029001702D48FFF7D5F82D493C
:1030F400019108802C48FFF7CFF82C4B18801C480E
:103104000078C1001B484018001D0168039800881E
:103114000A18274802601846018802980078484334
:1031240080B21418234B1C6001980088410189B2B5
:10313400049A10460088B1FBF0F080B221181E48B2
:1031440001601046008841081C4801801046008830
:1031540041091B480180184601681A480160002093
:1031640040B2DDF800E005B0704700BF044DFF1F1A
:10317400404DFF1F084DFF1F044BFF1FEF4AFF1F69
:103184000F4BFF1F284DFF1F114BFF1F2A4DFF1F21
:10319400124BFF1F2C4DFF1F144BFF1F2E4DFF1F03
:1031A400154BFF1F304DFF1F1A4BFF1F324DFF1FE2
:1031B400344DFF1F384DFF1F3C4DFF1FC24DFF1FF5
:0831C400C44DFF1FA84DFF1FC1
:10229C0081B0411C09780A0292B20178511888B2B7
:0422AC0001B07047C6
:1032F40081B0C11C09780A02811C097851180A029C
:10330400411C097851180A0201785118084601B085
:02331400704700
:104D280084B0CDF800E0CCB201461D4A92F90020CB
:104D38008DF80C201B4A12788DF80D208DF8044050
:104D48000291E2B208460721FFF782F802999DF81E
:104D5800044043B200281DDA6FF00102934217D1D4
:104D68009DF80D300F4A13709DF90C2053010E4A1F
:104D7800D21802F21C0300221A80E2B20846072168
:104D8800FFF766F8002801DA002004E0022002E0BC
:104D9800002000E00120DDF800E004B0704700BF0B
:0C4DA800414DFF1FEF4AFF1F644DFF1F2D
:103E58009BB0CDF800E007468DF864108DF8682017
:103E68003846FFF747F828B11224874B1C70FF200B
:103E780040B204E139468548FFF7A0F8844B1B8817
:103E8800BBB1844B93F900305C01834B1B194FF095
:103E980020061D46814C23782B70761E641C6D1CF1
:103EA800002EF8D100247A4B1C80FF2464B2794B91
:103EB8001C7014AB0D2212B274491846FFF76CF847
:103EC80009AB19467148FFF77DF900284CDA9DF8CF
:103ED8006840C4F3C013002B40D040F20003ADF893
:103EE8005E304FF0000318939DF8683003F05803D4
:103EF800DBB22BB10824644B1C70FF2040B2BEE03B
:103F080001AB202212B200211846FFF7FDFC9DF8F4
:103F1800683003F07F038DF80F3001AB0B2212B22B
:103F28005A491846FFF738F80DF15E0518AC01AB91
:103F38002A4621461846FFF721FA002802DAFF2010
:103F480040B29CE009AC14AB21461846FFF73AF999
:103F5800002802DAFF2040B291E005E00D244A4B28
:103F68001C70FF2040B28AE09DF8313003F05803FE
:103F7800DBB22BB10824444B1C70FF2040B27EE01A
:103F88000020022825D24401434B1B1919461C3333
:103F98001B88D3B18B1D1C88BDF84430A34214D1B3
:103FA80001F21C049DF8643023804FF020063B4D3D
:103FB8000C46FFE723782B70761E641C6D1C002EC0
:103FC800F8D1344B187040B259E0431C99B288B20A
:103FD800D7E70027022F4DD27C012F4B1B191C332A
:103FE8001B88002B42D17C012B4B1B1998462022A1
:103FF80012B200211846FFF787FC08F1060508F100
:104008000C04BDF84430238023882B8008F11C045D
:104018009DF864302380129BC8F8003008F104042E
:10402800BDF84C305B01238008F11804109B236015
:1040380008F1100508F10C031B889C1E184B1B88FF
:104048005C43184B1B681B192B604FF02006134D5F
:104058004446B8B2FFE723782B70761E641C6D1CAB
:10406800002EF8D10B4B187040B208E07B1C98B2B8
:1040780087B2AFE70924044B1C70FE2040B2DDF87C
:1040880000E01BB0704700BFEF4AFF1FB04DFF1F95
:10409800604DFF1F414DFF1F644DFF1F444DFF1F23
:0840A8002A4DFF1F3C4DFF1FD4
:102EFC0081B0CDF800E004462046FFF7BBF9C2B222
:102F0C00C1B211B9FF2040B240E00C2A02D9FE2018
:102F1C0040B23BE021782E2902D1FD2040B235E0B1
:102F2C00002676B22546D3B2D0B22246002B12D957
:102F3C00D11809782E290BD1012464B2082B02D99F
:102F4C00FC2040B222E0591C09B2521863B204E0D2
:102F5C005B1EDBB2EAE72A4673B2012B04D00828C9
:102F6C0002D9FB2040B211E0012B0DD11046FFF726
:102F7C0081F9C2B2C1B211B9F52040B206E0032A00
:102F8C0002D9F42040B201E0002040B2DDF800E0AC
:042F9C0001B07047C9
:1022800081B0014608460B460246401C117801B158
:0C229000FAE7C11A491E08B201B07047FD
:102FC40082B0CDF800E0002504460B460D2D0BD24F
:102FD400621901925A191278D0B2FFF73FF9019A97
:102FE40010706D1CEDB2F1E7DDF800E002B070473F
:002FF400DD
:1022600081B07A2808D8612807D34FF6DF7109B208
:0E22700000EA0101C8B2FFE7FFE701B07047C6
:102FA00081B00B46014618460D4614B2531E1AB2A4
:102FB00024B103782B706D1C401CF6E7084601B065
:022FC000704758
:1031CC0086B0CDF800E004900591049A12B9FF2066
:1031DC0040B272E00498FFF7C3F93A4A13683A4ACE
:1031EC0012689A4204D1394A1288ADF8062006E0DA
:1031FC00374A1388374A12885A43ADF80620324AA8
:10320C0012680392344A02920398FFF781F8012363
:10321C00324A13703048FFF7D9FD0022ADF8042074
:10322C00BDF80630BDF804209A423BD20B2212B2F4
:10323C0004990298FEF760FEF0B9FEF751FE28B132
:10324C001023274A1370FF2040B236E0059A82B152
:10325C0005990298FEF778FD059A02F22403039A69
:10326C001A60059A02F22804029B1B4A9A1A520908
:10327C002280002040B220E0029A02F22003029346
:10328C00184A1268934207D1039A521C0392124AAD
:10329C0002921148FFF79AFDBDF80420521CADF8BC
:1032AC000420BDE7FEF71CFE28B110230C4A137056
:1032BC00FF2040B201E0FF2040B2DDF800E006B094
:1032CC00704700BF384DFF1FA84DFF1F304DFF1F2B
:1032DC00C44DFF1F2A4DFF1F044BFF1F044DFF1F42
:0832EC00EF4AFF1FA44DFF1F74
:10256C0087B0CDF800E004A90D460446019402950D
:10257C0003900B2212B20846202101F0C3F90398F4
:10258C00029D019C0646317831B13178C8B2FEF714
:10259C000DFF08B1761CF6E723493046FEF7F2FE34
:1025AC0038B904AA2E211170521C2E21117020460C
:1025BC0030E01E493046FEF7E5FE20B904AA2E2174
:1025CC001170204626E022462C463346197871B10C
:1025DC001978C8B2FEF7EAFE48B919782E2906D048
:1025EC0019782170611C08465B1C0446EEE71978CB
:1025FC002E2901D1581C00E0184604AB0833019079
:10260C001046019A1178202904D9117819705B1C95
:10261C00521CF7E704A90B2212B200F0BBFCDDF848
:10262C0000E007B0704700BF9B00FF1F9E00FF1F1C
:00263C009E
:1013B80081B0202806D00D2802D8092800D301E0E2
:0C13C800002100E00121C8B201B0704714
:1013900081B00091014600980A7832B10B7802784A
:1013A000934202D1491C401CF6E70B7802789A1A46
:0613B00010B201B070470D
:10231C0081B0CDF800E0034C2468A047DDF800E064
:08232C0001B07047B800FF1F6B
:1014240081B0CDF800E0024601F05AF90A49097882
:10143400042901D1104600E05002FF220146122087
:1014440001F004F918B101F055F9012000E0002081
:0C145400DDF800E001B07047A800FF1FA9
:1013D40081B0CDF800E0024601F082F90E490978A7
:1013E400042901D1104600E05002FF2201461920D1
:1013F40001F02CF918B101F07DF9012008E0FF207B
:10140400064C2468A047FF20044C2468A047002011
:10141400DDF800E001B07047A800FF1FD84DFF1FA2
:00142400C8
:100E340083B0CDF800E01A4D044600F01DFC18B153
:100E4400002D01D96D1EF8E70DB9012024E01549E4
:100E54000968022902D12046034602E061020846DD
:100E640003464FF0200102914FF02001019101A9A6
:100E74000846FFF731FD1846FFF7CEFD08B1012003
:100E84000AE001214FF02000FFF7A2FC01214FF0FE
:100E94002000FFF7DFFC0020DDF800E003B070471E
:080EA400FFFF0F00A400FF1F77
:100A1C008AB0CDF800E003464FF00000FFF7F2FC7F
:100A2C0007A90846FFF70AFD40F2002108914FF68E
:100A3C00FF71099107A90846FFF70EFD01A90846A9
:100A4C00FFF756FF122103914FF4003105914FF43B
:100A5C00C011069106490691029301A90846FFF7B9
:100A6C00B3FD00F087F8DDF800E00AB0704700BF76
:040A7C00300038000E
:100EAC0083B0CDF800E01A4D044600F0E1FB18B118
:100EBC00002D01D96D1EF8E70DB9012024E015496C
:100ECC000968022902D12046034602E06102084665
:100EDC0003464FF0200102914FF02001019101A92E
:100EEC000846FFF7F5FC1846FFF760FD08B1012036
:100EFC000AE001214FF01000FFF766FC01214FF0D2
:100F0C001000FFF7A3FC0020DDF800E003B07047F1
:080F1C00FFFF0F00A400FF1FFE
:1009B8008AB0CDF800E003464FF00000FFF724FDB1
:1009C80007A90846FFF73CFD40F2002108914FF6C1
:1009D800FF71099107A90846FFF740FD01A90846DC
:1009E800FFF788FF192103914FF4003105914FF467
:1009F800C011069106490691029301A90846FFF71E
:100A0800E5FD00F0B9F8DDF800E00AB0704700BF76
:040A18002000380082
:102DD80081B0CDF800E0034C2468A047DDF800E09E
:082DE80001B07047BC00FF1FA1
:1012040085B0CDF800E0029001F06AFAFF220021D7
:101214000A2001F01BFA18B101F06CFA012026E053
:10122400FF20154C2468A047FE2800D0F8E70023CF
:101234009AB2102A10D2029989180491ADF80420A8
:10124400FF200D4C2468A047BDF8042004990870C1
:10125400511C8BB29AB2ECE7FF20074C2468A047DC
:10126400FF20054C2468A04701F044FA0020DDF873
:0C12740000E005B0704700BFD84DFF1F20
:1013140085B0CDF800E0029001F0E2F9FF2200214F
:10132400092001F093F918B101F0E4F9012026E055
:10133400FF20154C2468A047FE2800D0F8E70023BE
:101344009AB2102A10D2029989180491ADF8042097
:10135400FF200D4C2468A047BDF8042004990870B0
:10136400511C8BB29AB2ECE7FF20074C2468A047CB
:10137400FF20054C2468A04701F0BCF90020DDF8EB
:0C13840000E005B0704700BFD84DFF1F0F
:1012BC0085B0CDF800E00290FFF768FB00239AB2EE
:1012CC00B2F5007F10D2029989180491ADF8042070
:1012DC00FF200C4C2468A047BDF80420049908702A
:1012EC00511C8BB29AB2EBE7FF20064C2468A04746
:1012FC00FF20044C2468A0470020DDF800E005B076
:08130C00704700BFD84DFF1F20
:1009980081B0CDF800E0FF20044C2468A047FE2871
:1009A80000D0F8E7DDF800E001B07047D84DFF1F30
:0009B8003F
:1010880083B0CDF800E00290FC201D4C2468A047F6
:10109800002290B240F2FF1188420FD80299091835
:1010A8000978CCB2ADF80400A0B2154C2468A0476A
:1010B800BDF80400411C8AB290B2EBE7FF20104C47
:1010C8002468A047FF200E4C2468A047FF200C4C42
:1010D8002468A04700F01F0189B2052903D001F058
:1010E80007FB022008E0FF20054C2468A047B0F168
:1010F800FF0F00D0F7E70020DDF800E003B07047ED
:04110800D84DFF1FA0
:1010440081B0014600200B46042816D282000C49C8
:101054008D180024042C0DD2810009B2611809B244
:10106400C1F10E0109B25A18297811706D1C641C63
:10107400E4B2EFE7401CC0B2E6E7002001B07047DD
:04108400DC4DFF1F21
:101CE80081B0014600200B46042816D282000C4918
:101CF8008D180024042C0DD2810009B2611809B294
:101D0800C1F10E0109B25A18297811706D1C641CB2
:101D1800E4B2EFE7401CC0B2E6E7002001B070472C
:041D2800EC4DFF1F60
:101B580082B0CDF800E0002400220346FEF78CFF97
:101B680000F4E00100292AD12A498C422BD84FF4ED
:101B78000060FEF799FF012819D1002415461A467E
:101B8800202C0ED2A10051180191FEF785FF019972
:101B98000860691C0D46802901D3284602E0641CB0
:101BA800EEE7284602F280030024024600E0641CA7
:101BB800802A00D300E0D1E71146204601E0204604
:101BC80011460A4600E020461249884202D8802A77
:101BD80000D301E0012018E04FF48010FEF750FC1C
:101BE800012801D1012010E04FF48000FEF748FCE5
:101BF800012801D1012008E04FF40010FEF740FC55
:101C0800012801D1012000E00020DDF800E002B049
:081C1800704700BFFFFF1F0031
:100A800081B00248006801B0704700BF30100B40D1
:000A900066
:100AB00081B004490968014009B1012000E000202B
:080AC00001B0704724100B4047
:100AA00081B00248006801B0704700BF20100B40C1
:000AB00046
:101C200081B0CDF800E0002400220346FEF728FF33
:101C300000F4E001002929D12A498C422AD84FF426
:101C40008060FEF735FF012818D1002415461A469A
:101C5000202C0DD2A100511809680846FEF718FF84
:101C6000691C0D46802901D3284602E0641CEFE779
:101C7000284602F280030024024600E0641C802A09
:101C800000D300E0D2E71146204601E0204611468D
:101C90000A4600E02046FEF7EDFC1249884202D8D1
:101CA000802A00D301E0012018E04FF48010FEF7F5
:101CB000EBFB012801D1012010E04FF48000FEF77A
:101CC000E3FB012801D1012008E04FF40010FEF7EA
:101CD000DBFB012801D1012000E00020DDF800E05D
:081CE00001B07047FFFF1F0077
:100A900081B00249086001B0704700BF20100B40D0
:000AA00056
:101F040081B0ADF800200246BDF9000004B2431EC2
:101F140018B25CB114780B789C4204D014780B7816
:101F2400E31A18B204E0521C491CEFE7002000B287
:041F340001B0704741
:101EEC0081B0CDF800E0034C2468A047DDF800E099
:081EFC0001B07047B000FF1FA8
:101D540082B0CDF800E0024608461546044600214C
:101D6400134608290AD22A78202A00D106E02A78C4
:101D74002270641C6D1C491C89B2F2E703F208024C
:101D840011461278202A16D02E222270661C0022B8
:101D940005460C4691B203290AD22278202A00D1A2
:101DA40006E022783270761C641C491C89B2F2E782
:101DB40030461E4602E01E460546204600220270BA
:101DC40005F20D0306F20B0212781A7005F21C02DA
:101DD400019206F21C02104601F08AFA019A106080
:101DE40005F22002019206F21A02104600F054FA9B
:101DF400019A108006F20E021378521C1278120215
:101E040092B29C18A4B2A0B205F20E02D31CE20A4C
:101E14001A7005F20E02131D420992B202F03F023B
:101E24001A7005F20E02531D00F01F0292B2520006
:101E34001A7006F210021378521C1278120292B22F
:101E44009C18A4B2A0B205F20E02931C04F01F0267
:101E54001A7005F20E02531C420992B202F00F02EC
:101E64001A7005F20E03420A1A7006F2160213786B
:101E7400521C1278120292B29C18A4B2A0B205F2BB
:101E84001402D31CE20A1A7005F21402131D42094B
:101E940092B202F03F021A7005F21402531D00F0D0
:101EA4001F0292B252001A7006F218021378521CE2
:101EB4001278120292B29C18A4B2A0B205F21402D3
:101EC400931C04F01F021A7005F21402531C4209F9
:101ED40092B202F00F021A7005F21403420A1A7049
:081EE400DDF800E002B07047D8
:1033840087B0CDF800E0049005910692049B1A33AF
:103394001846FEF781FF069B1880069B1B88B3B96D
:1033A400FEF7C6FF069B1880069B1C884FF6FF732A
:1033B4009C4205D10424674B1C70FF2040B2C5E039
:1033C400069B1B884FF6FF7198B2FEF733FE069BEF
:1033D4001B889C1E604B1B885C43604B1B681C193C
:1033E400059B1C605E4B1C685E4B1B68A34204D1AA
:1033F4005D4B1B88ADF80A3006E05C4B1C88564BCD
:103404001B886343ADF80A30564B1B680393584836
:1034140001900398FEF780FF0124564B1C7054481A
:10342400FFF7D8FC01980023ADF808300146BDF839
:103434000A40BDF80830A34280F07A800B78E52B6F
:1034440003D00B78202B00D35AE00191FEF74CFDFA
:10345400019928B110243F4B1C70FF2040B275E045
:103464000191202212B208460499FFF797FD0199B1
:1034740001F21A04069B1B8803F0FF03237001F278
:103484001A035C1C069B1B881B0A237001F20E04A2
:10349400394B1B78237001F20E035C1C374E3378D2
:1034A400237001F21004364B1B78237001F21003D1
:1034B4005C1C344D2B78237001F216042E4B1B78C0
:1034C400237001F216035C1C33461B78237001F24F
:1034D40018042B4B1B78237001F218035C1C2B4639
:1034E4001B78237022490398FEF728FB28B1052492
:1034F400184B1C70FF2040B228E0002040B225E0A9
:1035040001F220042746204B1B689C4209D1039BEF
:103514005B1C0393164F01971548FFF75BFC019F53
:10352400FFE7BDF808305B1CADF8083039467EE78C
:10353400FEF7DAFC28B11024064B1C70FF2040B2C1
:1035440004E00624034B1C70FF2040B2DDF800E0C9
:1035540007B07047EF4AFF1F2A4DFF1F3C4DFF1F66
:10356400384DFF1FA84DFF1F304DFF1FC44DFF1FD7
:10357400044BFF1F044DFF1FBE4DFF1FBF4DFF1F18
:0C358400C04DFF1FC14DFF1FA44DFF1FD5
:1023340083B0CDF800E0304A118830480088484323
:10234400ADF804000220ADF806001046018840F202
:102354000200B0FBF1F080B281B2294800680B188A
:102364001046028840F20201B1FBF2F002FB1010A9
:1023740080B2410089B22348401802901846FFF702
:10238400CBFF0121204801701E4800F023FDBDF859
:102394000410BDF80600884215D20298008800B9DE
:1023A40011E00298811C0291BDF80600401CADF8B2
:1023B400060016480068814204D112480290114870
:1023C40000F008FDE3E7FFF78FFD28B11021104866
:1023D40001704FF6FF700AE0BDF80410BDF8060066
:1023E400884202D14FF6FF7001E0BDF80600DDF827
:1023F40000E003B0704700BFC24DFF1F324DFF1F06
:10240400344DFF1F044BFF1F044DFF1FA44DFF1F3E
:04241400EF4AFF1F6D
:1020380085B0CDF800E0ADF8101081B2304A1288B2
:10204800B1FBF2F292B203922E4A1368039AD418A3
:10205800039401232C4A1370ADF804102B49204631
:1020680001F062FCBDF8041028B11023284A13704F
:102078004FF6FF7040E0224A1388B1FBF3F203FBEE
:10208800121292B253009BB298B2204AD31804ACF1
:1020980022781A70431C9BB21C4AD318621C12780F
:1020A8001A701A490398FFF747FD28B10523184A03
:1020B80013704FF6FF701FE00122ADF80820154A93
:1020C8001378BDF808209A4215D2134A1388039A48
:1020D800D21803920D491046FFF72EFD28B10523AB
:1020E8000B4A13704FF6FF7006E0BDF80820521C2B
:1020F800ADF80820E3E70020DDF800E005B0704700
:10210800C24DFF1F344DFF1F044DFF1F044BFF1F1F
:0C211800EF4AFF1F2E4DFF1F324DFF1F2E
:101B400081B0CDF800E0034C2468A047DDF800E048
:081B500001B07047B400FF1F53
:1047B00082B0CDF800E00C49098801F0010189B20E
:1047C00029B900210160072208490A7007E0019019
:1047D0000020FFF7FBF80198054909680160DDF842
:1047E00000E002B0704700BF604DFF1FEF4AFF1F9F
:0447F0005C4DFF1FFE
:1039CC0082B0CDF800E03749098829B90722364979
:1039DC000A704FF0FF3061E0012234490A7034491B
:1039EC000968884204D932490A6832490A6001E000
:1039FC003049086030490A882E490968B1FBF2F257
:103A0C002E490988B2FBF1F188B22D490A882D495B
:103A1C000A8082B2002A1AD92A490988ADF80420F2
:103A2C0088B2FFF729FABDF80420264908804FF622
:103A3C00FF71884208D11E490A681E490A600A2291
:103A4C0019490A70002029E0521E92B2E2E71A4E80
:103A5C003288184D2968B1FBF2F2184C2188B2FB60
:103A6C00F1F301FB132318490B80164909888A1EB0
:103A7C00214609884A43154909688A1899B252188F
:103A8C0013490A6031460B8829460968B1FBF3F2E9
:103A9C0003FB12120F490A8029460868DDF800E082
:103AAC0002B07047604DFF1FEF4AFF1F044DFF1F10
:103ABC005C4DFF1F4C4DFF1F284DFF1F2A4DFF1F54
:103ACC004A4DFF1F504DFF1F584DFF1F3C4DFF1F10
:083ADC00544DFF1F5A4DFF1F5E
:102E840082B0CDF800E084B216490988B4FBF1F1B0
:102E940089B288B2144909684318012213490A7097
:102EA400ADF804401249184600F040FDBDF8044056
:102EB40028B110220F490A704FF6FF700DE009493E
:102EC4000A88B4FBF2F102FB114189B24A0092B2C2
:102ED400074989180846FFF7DFF9DDF800E002B07A
:102EE400704700BFC24DFF1F344DFF1F044DFF1F2D
:082EF400044BFF1FEF4AFF1F12
:1048480082B0CDF800E004464149098801F0010131
:1048580089B219B907223F490A7075E03E490A68CA
:104868003E490968914203D30B223A490A706BE02A
:104878003B490988B1F5007F40F04580002238495E
:104888000A80384B19884A1C92B21A80364909881E
:104898008A4223D1002233490A8034490988019485
:1048A80088B2FEF7EBFA019C304908804FF6FF7199
:1048B800884207D128490A6828490A600A222549F6
:1048C8000A7041E0294909888A1E274909884A430C
:1048D800274909688A1827490A6003E0254A1168A8
:1048E800491C1160002224490A7022490968019470
:1048F80008462249FFF718F8019C18B110221549FB
:104908000A7021E012E01C49097879B100221A499D
:104918000A7018490968019408461849FFF704F80D
:10492800019C18B110220B490A700DE00C4B1A8833
:10493800124989180978217019460988491C198073
:10494800064A1168491C1160DDF800E002B07047A2
:10495800604DFF1FEF4AFF1F5C4DFF1F4C4DFF1FAF
:104968005A4DFF1F584DFF1F2A4DFF1F504DFF1F67
:104978003C4DFF1F544DFF1F044DFF1F044BFF1FED
:004988002F
:104E080083B0CDF800E00290164A174908461146CB
:104E1800FFF7E4FB012252B214490A60002252B2A1
:104E280013490A60134A116801B9FBE70022D0B29E
:104E380020280FD2029909180978CCB28DF80400FD
:104E4800A0B20D4C2468A0479DF80400411CCAB2CA
:104E5800D0B2EDE7012252B205490A60DDF800E060
:104E680003B070475D380000212700001010FE4392
:0C4E78003408FE43080AFE43E002FF1F5E
:104CCC0081B0CDF800E0C3B20E4A0F490846114638
:104CDC00FFF782FC012252B20C490A60002252B248
:104CEC000B490A60D8B20B4A116801B9FBE70A4CB0
:104CFC002468A047012252B205490A60DDF800E0A1
:104D0C0001B070475D380000212700001010FE43F1
:0C4D1C003408FE43080AFE43E002FF1FBB
:1053C80090B072B69748019097480290974803901A
:1053D80097480490974805909748069097480790F3
:1053E800974808909748099097480A9097480B90D3
:1053F80097480C90974998480D9098480E900D98AA
:1054080000F007000F9001F0010050B94CF2205055
:10541800934908804DF62810088040F2D21191482F
:1054280001800021904801609048007800F0010058
:10543800C0B258B18E48007800F00800C0B220B160
:105448008B49087840F00800087021E08948006816
:1054580040F00051874801608748006800F4807078
:10546800B0B9854801686FF4705001EA000040F453
:105478004071814801608048006840F480717E482E
:1054880001607D4801686FF4007001407A4801604E
:10549800AA217A4801700D9800F0100058B9784890
:1054A800007800F09F01764801707648007801285E
:1054B80000D0FAE71BE00D9800F01000B8B10E9983
:1054C8007148814208D960216D4801706D480078A3
:1054D800802800D0FAE70AE06948007800F09F01C8
:1054E8006748017067480078012800D0FAE70499F6
:1054F80066480160664801686FF4402001400298E0
:1055080000F44020014362480160624801686FF47A
:1055180040300140039800F4403001435D48016089
:105528000F9830B10F98012803D00F98022800D0A7
:1055380064E0019800F0800050B9089800F040003D
:1055480028B10B9800F00300002800D100E015E016
:105558005148006840F400714F4801604F480168A5
:105568004F4801404D480160069800F0040028B1FA
:105578004C4801684A4801404A4801600A994A482B
:105588000170059949480170059800F0040040B180
:105598004748007800F01000C0B2002800D1F7E7B3
:1055A80006E04348007800F01000C0B200B1F8E708
:1055B8004048007800F0BF01C9B2069800F0FD002D
:1055C80001433C480170079800F0E0013A48007830
:1055D80000F01F00C0B201433748017001993748F5
:1055E80001700B99364801700F98022805D131488F
:1055F800007840F002012F480170BDE0019800F0EA
:10560800800020B90B9800F0030000B166E0224842
:10561800006840F400712048016020480168204873
:1056280001404FE00000000000000C0000000100F5
:105638000000140122000000240000000000000007
:10564800020000004600000000000000000000000A
:10565800000000000000000007000000C0D40100A6
:105668000E2005400020054008ED00E000F007404E
:1056780002D007403C80044010D0034000E00740BF
:1056880001E0074003E007408038010044800440FF
:10569800007004400480044038800440489004406E
:1056A800FFF8FFFE4C9004400840064000400640CA
:1056B80006400640014006400340064000500640B0
:1056C8000C4006407F480160069800F0040028B1AD
:1056D8007D4801687D4801407B4801600A997C4803
:1056E80001707C48007800F0BF01C9B2069800F04C
:1056F800FD000143774801700199774801700B99C3
:10570800764801700F98072805D1059840F0800168
:105718007348017002E0059971480170069800F01D
:10572800040050B10B9800F0030030B96D480078C0
:1057380000F00200C0B200B9F8E7059800F00400D4
:1057480040B16848007800F01000C0B2002800D1CD
:10575800F7E706E06348007800F01000C0B200B137
:10576800F8E7079800F0E0015F48007800F01F00B4
:10577800C0B201435C480170089800F0BF015B4863
:105788000170099800F0BF0159480170089800F0AD
:10579800400028B15548007840F040015348017056
:1057A8000F98052806D14B48007840F00201494877
:1057B80001701CE00F98062803D00F98072800D026
:1057C80015E04B48007840F04001494801704548D1
:1057D800007800F04000C0B200B9F8E70F98072839
:1057E80005D13F48007800F03F013D4801700F980F
:1057F80018B10F98032800D029E03A48007800F043
:105808000C00C0B200B1F8E73A48006840F0010166
:10581800384801600021384801608021374801601C
:105828000521374801600121344801603348006888
:1058380000F0800000B9F9E70021304801602D48E8
:1058480001686FF0010001402A4801602DE00F98BF
:10585800012803D00F98022800D008E021480078DA
:1058680000F00C00C0B2042800D0F7E71DE00F9844
:10587800042806D00F98062803D00F98052800D0D2
:1058880008E01848007800F00C00C0B2082800D0E2
:10589800F7E70AE00F98072807D11248007800F0C8
:1058A8000C00C0B20C2800D0F7E7164801686FF06A
:1058B8000F0001400C9800F00F00014311480160EF
:1058C80010B07047489004404C900440FFF8FFFE29
:1058D8000840064001400640005006400C40064083
:1058E800004006400640064003400640044006408B
:1058F8000540064038800440080004400000044089
:08590800040004404880044043
:1053880081B002490248016001B07047C0D40100F1
:04539800004BFF1FA8
:0853680081B0FEE701B07047BF
:1053700081B072B60349086840F47000086062B6F4
:0853800001B0704788ED00E068
:10F2200000B5DFF824B0DFF824A0DFF824C0F6F73B
:10F2300091F8DFF820B0DFF820A0DFF820C0F6F763
:10F2400089F800BD704700BF0000FF1FAA00FF1F24
:10F25000ABEF0000AC00FF1FD800FF1FDCF1000087
:00F26000AE
:10F2BC0000B5DFF810B0DFF810A0F5F761FE00BD67
:0CF2CC00704700BF0000FF1FFC4DFF1F3B
:100400000000000000000000FFFFFFFF02FDFFFFF3
:1059100000076000600000000000000000000000C0
:105920000000000000000000000000000000000077
:105930000000000000000000000000000000000067
:105940000000000000000000000000000000000057
:105950000000000000000000000000000000000047
:10601000000000000000000000000000FFFFFFFF84
:10602000000000000000000000000000FFFFFFFF74
:106030000000FFFFFFFFFFFFFFFFFFFFFFFF00006C
:1060400000000000FFFFFFFFFFFFFFFFFFFF00005A
:106050000000000000000000000000000000000040
:106060000000000000000000000000000000000030
:106070000000000000000000000000000000000020
:106080000000000000000000000000000000000010
:106090000000000000000000000000000000000000
:1060A00000000000000000000000000000000000F0
:1060B00000000000000000000000000000000000E0
:1060C00000000000000000000000000000000000D0
:1060D000000000000000000000000000FFFFFFFFC4
:1060E000FFFF0000000000000000FFFFFFFFFFFFB8
:1060F0000000FFFFFFFF000000000000FFFFFFFFA8
:106100000000FFFF0000000000000000FFFFFFFF95
:10611000000000000000000000000000000000007F
:10612000000000000000000000000000000000006F
:10613000000000000000000000000000000000005F
:10614000000000000000000000000000000000004F
:10615000000000000000000000000000000000003F
:10616000000000000000000000000000000000002F
:10617000000000000000000000000000000000001F
:10618000000000000000000000000000000000000F
:10619000000000000000000000000000FFFFFFFF03
:1061A000FFFFFFFF00000000FFFFFFFFFFFFFFFFFB
:1061B0000000FFFFFFFF000000000000FFFFFFFFE7
:1061C000000000000000000000000000FFFFFFFFD3
:1061D00000000000000000000000000000000000BF
:1061E00000000000000000000000000000000000AF
