:10000000FCFF02209D500000FD500000FD5000004C
:10001000FD500000FD500000FD500000FD500000AC
:10002000FD500000FD500000FD500000FD5000009C
:10003000FD500000FD500000FD500000FD5000008C
:10004000FD500000FD500000FD500000FD5000007C
:10005000FD500000FD500000FD500000FD5000006C
:10006000FD500000FD500000FD500000FD5000005C
:10007000FD500000FD500000FD500000FD5000004C
:10008000FD500000FD500000FD500000FD5000003C
:10009000FD500000FD500000FD500000FD5000002C
:1000A000FD500000FD500000FD500000FD5000001C
:1000B000FD500000FD500000FD500000FD5000000C
:1000C000FD500000FD500000FD500000FD500000FC
:1000D000FD500000FD500000FD500000FD500000EC
:1000E000FD500000FD500000FD500000FD500000DC
:1000F000FD500000FD500000FD500000FD500000CC
:10010000FD500000FD500000FD500000FD500000BB
:10011000FD500000FD500000FD500000FD500000AB
:10012000FD500000FD500000E14A0000FD500000BD
:10013000154B0000FD500000FD500000FD50000078
:10014000FD500000FD500000FD500000FD5000007B
:10015000FD500000FD500000FD500000FD5000006B
:10016000FD500000FD500000FD500000FD5000005B
:10017000FD500000FD500000FD500000FD5000004B
:10018000FD500000FD500000FD500000FD5000003B
:08019000FD500000FD500000CD
:10509C0082B0FFF759FDFFF74BFD05F0ADFF00F0B7
:1050AC002BF805F069FFFFF7CFFA00B1FEE70020FF
:1050BC0001B40F23602250210020FEF785FE01B0C1
:1050CC00094850220421FDF73DFF0848007840B103
:1050DC0001A8FFF795FB01A8FFF7ECFB00210348A3
:1050EC000170F2E7FEE700BF8D00FF1F6702FF1F94
:0050FC00B4
:1046400081B01CF8019B0BF8019BBBEB0A0FF8D162
:0446500001B07047FE
:104AA40081B04FF000094FF0000CBDEB0A0F04DC9D
:104AB400BDEB0B0F01DBD446EA464BF8049BBBEB82
:104AC4000A0FFAD1BCEB0A0F05DDE246D9F800B0B3
:0A4AD4000BF1040BF1E701B070478D
:1046540082B0CDF800E000208DF80400FFF7AAFC3A
:10466400594800220021FFF743FC4FF400615748EA
:10467400FEF7CCFC4FF400615548FEF7C7FC40F64A
:10468400FE07C0F23D0700BF00BF7F1EFDD100BF83
:1046940000BF00BF4F4800224FF6FF71FEF780FCB9
:1046A400002001B40F23602250210020FFF790FB6B
:1046B40001B0494850220421FEF748FC47494848C4
:1046C400FFF778FB40F6FE07C0F23D0700BF00BFCE
:1046D4007F1EFDD100BF00BF00BFFFF7D5F9FFF774
:1046E400A9F9FFF797F83F4802460B213E48FFF728
:1046F400A1F83E48FFF796F83C48FFF76FFF9DF896
:10470400040040F00200C0B240F004008DF8040040
:104714002820FFF73DFE88B1002001B40F2360225A
:1047240050210020FFF754FB01B0314850220421EE
:10473400FEF70CFC4FF6FF7000B240E09DF8040059
:10474400FFF7C4F988B1002001B40F23602250217F
:104754000020FFF73DFB01B0264850220421FEF75C
:10476400F5FB4FF6FF7000B229E008212248FFF75D
:104774008DFD88B1002001B40F2360225021002058
:10478400FFF726FB01B01D4850220421FEF7DEFB93
:104794004FF6FF7000B212E0002001B40F23602234
:1047A40050210020FFF714FB01B0154850220421CA
:1047B400FEF7CCFB002113480170002000B2DDF8A5
:1047C40000E002B0704700BF1851000040F00F40F5
:1047D40000F00F401E9900005F00FF1F60AD000055
:1047E400A0860100313A00002CAF0000D53800004B
:1047F4006F00FF1F7600FF1F4700FF1F7D00FF1F94
:084804008400FF1F6702FF1F83
:0E38180081B0EFF3108C604662B601B07047CD
:063A300081B001B07047F7
:1038D40097B0CDF800E00278D12A40F09780C21C5E
:1038E400169289E0821C1278D21D12B2831800222B
:1038F4001A70C61D821D1278D5B2421D1278D4B238
:10390400444B02AA019040B420B410B408B404B4E7
:10391400FFF7F0FA05B0404A47F6CF3110460022CF
:10392400FFF73EFB3D4A042110463722FFF70EFB0A
:10393400394A4FF6FF7110460022FFF731FB019818
:10394400C21D042110464622FFF700FB5DE0031D63
:1039540006E018E017E016E015E014E013E012E0CA
:103964001A78012AF5D01A78022AF3D01A78032A91
:10397400F1D01A78042AEFD01A78052AEDD01A78F3
:10398400062AEBD0EBE7821C1278121D12B28318C0
:1039940000221A70441D224B02AA10B408B404B4C5
:1039A400FFF7A8FA03B01C4A47F6CF3110460022AD
:1039B400FFF7F6FA1B4A042110463722FFF7C6FA2E
:1039C400154A4FF6FF7110460022FFF7E9FA02AAE2
:1039D400042110464622FFF7B9FA16E00E4A47F6CC
:1039E400CF3110460022FFF7DBFA0F4A04211046BC
:1039F4003722FFF7ABFA08E0169B1A78542A3FF4F3
:103A040071AF1A78552AA2D0E8E7FFE7DDF800E0A5
:103A140017B0704778AE00001E9900000000FF1F29
:0C3A240078AF00000D00FF1F1900FF1F0D
:102EF80083B0CDF800E0039A0498049002A904A8CE
:102F0800001D0860019210460A460499FFF7C2FAAC
:102F1800019A03B211180020087018B2DDF800E019
:042F280003B070473B
:10249C0087B0CDF800E040F2000636B21546024691
:1024AC0008460446471C23788DF81030002B00F0AA
:1024BC0070849DF81030252B07D09DF810301370C8
:1024CC00521C761C36B23846EBE7002424B20020AE
:1024DC001EE040F0080080B27B1C19460F4627E036
:1024EC0040F0010080B2791C0F4621E040F0020060
:1024FC0080B2791C0F461BE040F4006080B2791C5E
:10250C000F4615E040F0040080B2791C0F460FE036
:10251C003B782D2BDDD03B78202BE1D03B782B2B3F
:10252C00E4D03B78232BE7D03B78302BEAD000E08B
:10253C00CEE700F002039BB233B14FF6FE731840A6
:10254C0080B21FFA80F801E01FFA80F808F0080347
:10255C009BB233B14FF6FB7308EA03081FFA88F8F5
:10256C00FFE73B78D8B2FFF741FA08B3002000B27E
:10257C00394601E038B249460A231BB200FB03F787
:10258C003FB20B78FF183FB2303F3FB24B1C99461D
:10259C001B78D8B2FFF72AFA0028EBD1ADF80470FB
:1025AC002F461FFA88F590464846BDF9042011E0E5
:1025BC003B782A2B06D12C68231D2B60B4F9000024
:1025CC00791C01E0394620B22F461FFA88F5904657
:1025DC0002B2084603782E2B3AD1431C99461B783D
:1025EC002A2B10D13C68231D3B60B4F9000009F183
:1025FC000101ADF804601FFA85F905B240460E469C
:10260C00BDF9041023E040F2000A0FFA8AFA99F897
:10261C000030D8B2FFF7EAF990B10A231BB203FBE2
:10262C000AFA0FFA8AFA99F800300AEB030A0FFA41
:10263C008AFAAAF1300A0FFA8AFA09F10109E6E7D7
:10264C0031B24E461FFA85F90FFA8AF5404607E07B
:10265C00002109B21FFA85F90DB231B20646404687
:10266C00344606F1010823788DF81030B1E008B239
:10267C0000F090BBF64B05932CB21BE0F54B059389
:10268C00002424B216E049F04006B6B2F0E01FFA7E
:10269C0089F6EDE049F02004A4B201E01FFA89F4B8
:1026AC0044F08006B6B2E3E03C68231D3B6023682F
:1026BC0005932CB2059B0BB9E74B05930023ADF8A2
:1026CC0018303D4617B24246804620B20EB21FFA71
:1026DC0089F1BDF81840059B1B191B782BB1BDF86F
:1026EC0018305B1CADF81830F3E72C4605B24046A9
:1026FC002DB1BDF818309D4201D2ADF81850BDF87F
:10270C0018309F4204D9BDF81830FD1A2DB201E0E3
:10271C0000252DB201F008039BB2ABB927462CB2B1
:10272C006D1E2DB22CB120230370401C761C36B2CA
:10273C00F5E7ADF804500292024635B28EB2394636
:10274C000298BDF9047006E001902FB235B28EB23A
:10275C0021461046019ABDF81840BDF818305B1E92
:10276C00ADF818304CB1059B1B781370521C059BAF
:10277C005B1C05936D1C2DB2EDE706F008039BB2B4
:10278C006BB13EB234B2731E1EB22CB12023137047
:10279C00521C6D1C2DB2F5E72EB20D4601E02EB287
:1027AC000D467EE63C68231D3B60B4F900308DF885
:1027BC00103004AB05930123ADF818303C4617B22A
:1027CC0042460EB21FFA89F192E749F0C006B6B242
:1027DC004EE09DF81030002B3FF449AF9DF81030BF
:1027EC006C2B3FF447AF9DF810304C2B3FF442AFAD
:1027FC009DF81030452B3FF441AF9DF81030662BFF
:10280C003FF43CAF9DF81030652B3FF437AF9DF88B
:10281C001030672B3FF432AF9DF810306F2B3FF424
:10282C0032AF9DF81030642B3FF431AF9DF810306F
:10283C00692B3FF42CAF9DF81030702B3FF42AAF6E
:10284C009DF81030582B3FF425AF9DF81030782BA5
:10285C003FF424AF9DF81030732B3FF425AF9DF857
:10286C001030632B9ED09DF81030752BADD0A0E7A7
:10287C0006F0C0039BB2ABB93C68231D3B60B4F9B6
:10288C000030ADF81430BDF91430002B08DA46F0E6
:10289C000304A4B2BDF814305B42ADF8143000E070
:1028AC00B4B206E03C68231D3B602388ADF81430BD
:1028BC00B4B23DB9BDF814303BB96D1C2DB20FFA52
:1028CC0085F901E00FFA85F901E00FFA85F904F0BA
:1028DC00C003DDB26EE001238DF810300FFA89F6DB
:1028EC001FFA84F99DF81030052B10D09DF810308C
:1028FC005C005A4B1B191C88BDF81430A34200D243
:10290C0005E09DF810305B1C8DF81030EAE734B20E
:10291C00064638460FB2414615B21FFA89F259E005
:10292C0001238DF810300FFA89F61FFA84F99DF8FF
:10293C001030042B10D09DF810305C00484B1B1944
:10294C001C88BDF81430A34200D205E09DF810306D
:10295C005B1C8DF81030EAE734B2064638460FB2ED
:10296C00414615B21FFA89F234E001238DF810307C
:10297C000FFA89F61FFA84F99DF81030062B10D047
:10298C009DF810305C00374B1B191C88BDF81430B7
:10299C00A34200D205E09DF810305B1C8DF810307E
:1029AC00EAE734B2064638460FB2414615B21FFA72
:1029BC0089F20FE0002D8ED0C02D8CD0802DAFD0A1
:1029CC00402DD2D015B2A2B20FFA89F40646384681
:1029DC000FB241469DF81030A34202DA8DF8104038
:1029EC0007E09DF810309C4203DA9DF810301CB2C1
:1029FC00FFE735B102F003039BB21BB16D1E2DB284
:102A0C00FFE7FFE7A54202DD2D1B2DB201E00025FB
:102A1C002DB240F6C40302EA03039BB2B3F5046F74
:102A2C0004D115B16D1E2DB2FFE70EE002F40C635C
:102A3C009BB2B3F5086F08D1022D02DDAB1E1BB2A1
:102A4C0001E000231BB21DB2FFE702F004030BE010
:102A5C004102FF1F5102FF1F6202FF1F38AF00002F
:102A6C004CAF000020AF00009BB2002B00F07A802E
:102A7C0002F002039BB2A3B102F001039BB21BB1A3
:102A8C002D238DF80C3002E02B238DF80C309DF8A3
:102A9C000C303370761C07F1010A0FFA8AFA3346B0
:102AAC002FE002F001039BB22BB120233370761C74
:102ABC007B1C1BB222E002F40C639BB2B3F5086FD3
:102ACC001BD13023337006F101087E1C36B202F0A4
:102ADC0020039BB21BB158238DF80D3002E07823F4
:102AEC008DF80D309DF80D3088F8003008F1010795
:102AFC00761C36B233B23E4600E03BB20FFA83FA94
:102B0C00334625B306460F461FFA82F80FFA84F9AE
:102B1C009B4602E00FFA8BF5E34630238BF800302E
:102B2C000BF101039C460AF1010A0FFA8AFA6B1E9B
:102B3C001BB20FFA83FB002BECD1304639461FFA3F
:102B4C0088F20FFA89F40FFA8BF56346FFE70FFA58
:102B5C0085F91FFA82F8024620B21C460F460FFA7E
:102B6C008AF17BE0ADB102F008039BB2A3B901E09E
:102B7C000FFA88F520233370761C7F1C3FB26B1E36
:102B8C001BB20FFA83F8002BF2D133460FFA88F5FB
:102B9C0000E033461E46FFE702F002039BB29BB1F6
:102BAC0002F001039BB21BB12D238DF80E3002E015
:102BBC002B238DF80E309DF80E303370761C7B1C59
:102BCC001BB237461EB211E002F001039BB253B1A7
:102BDC0020233370761C7B1C1FB2ADF80470374673
:102BEC00BDF9046002E001963EB2019F02F40C6351
:102BFC009BB2B3F5046F06D130233B707F1C731C62
:102C0C001BB23E4621E002F40C639BB2B3F5086F95
:102C1C0017D130233B707F1C761C36B202F0200398
:102C2C009BB21BB158238DF80F3002E078238DF83E
:102C3C000F309DF80F303B707F1C761C36B23B4634
:102C4C0000E03B46019333B2019E0FFA85F91FFA5F
:102C5C0082F8024620B234460F4619B29DF8103065
:102C6C00984205DD30232370641C491C09B2F5E73A
:102C7C0005B208B221462CB26B1E0FFA83FA002C57
:102C8C0000F0648008F0C003DEB24EE04FEA4A0464
:102C9C00424B1B191C88BDF81430B3FBF4F5ADB2D4
:102CAC000A24B5FBF4F304FB13539BB230338DF8B9
:102CBC00103042E008F020039BB293B14FEA4A0473
:102CCC00374B1B191C88BDF81430B3FBF4F39BB2C3
:102CDC0003F00F04A4B2334B1B191B788DF8103082
:102CEC0011E04FEA4A042E4B1B191C88BDF8143016
:102CFC00B3FBF4F39BB203F00F04A4B22A4B1B19E1
:102D0C001B788DF8103018E04FEA4A04274B1B193A
:102D1C001C88BDF81430B3FBF4F39BB203F007032B
:102D2C009BB230338DF8103007E0002EAED0C02EA1
:102D3C00ACD0802EBED0402EE6D09DF810300B705B
:102D4C00491C401C00B20FFA8AF594E708F00803FE
:102D5C009BB293B1B9F1000F14DD3D460FFA89F423
:102D6C00FFE720230B70491C401C00B2631E1BB2F2
:102D7C001CB2002BF5D12B4600E03B4606B21546A3
:102D8C000A4603E03B4615460A4606B21846FFF7CC
:102D9C0088BB30B2DDF800E007B0704738AF0000F8
:102DAC004CAF0000D5AE0000C4AE000020AF000058
:002DBC0017
:1019F80081B0392803D8302801D3012100E0002123
:061A0800C8B201B07047F6
:102FA40081B0124B1860831C1C78C31C1B781B0255
:102FB4009BB2E4180E4B1C80031D1C78431D1B7828
:102FC4001B029BB2E4180B4B1C80831D1C780A4B1C
:102FD4001C800A4B19800A4B1A700124094B1C707F
:102FE4000024094B1C7001B0704700BF984AFF1FB2
:102FF4006E02FF1F944AFF1F9E4AFF1FA24AFF1F33
:0C300400964AFF1F1B02FF1F974AFF1F88
:102F500083B0CDF800E00290602900D31DE0602A24
:102F600000D31AE00023ADF8043088B291B2FFF725
:102F700011F8BDF80440029B1B191B786BB1BDF81A
:102F80000440029B1B191B7898B2FEF7D7FEBDF8D0
:102F900004305B1CADF80430EBE7DDF800E003B073
:022FA000704778
:101F940081B0034A1080034A118001B0704700BF2A
:081FA400A04AFF1F9C4AFF1F29
:101D3C0086B0CDF800E085B240F20001ADF8141089
:101D4C0000218DF816107F49097849B97E49002287
:101D5C00084640F2000101F01FF9012279490A708E
:101D6C007A4909888D4200D2E7E0794909888D4289
:101D7C0000D9E2E075490988691A89B28A0092B2E1
:101D8C00744C216808318B1893F800C0591C0978E1
:101D9C00CAB2991C097809025218D91C097809048D
:101DAC00521821460968891804916B49097821B1A8
:101DBC0069490978022900D064E068490A88002141
:101DCC008DF80D105FFA8CF390B265490A889DF876
:101DDC000D1091424AD263490988ADF814100026BF
:101DEC0000218DF80C1082B25FFA83FC9DF80C1068
:101DFC00614530D24EB9049909788DF816100499C2
:101E0C00491C04910126F0B200E0F0B29DF81610C6
:101E1C000140C9B291B1544909888DF80400ADF85C
:101E2C000620ADF80820BDF814008AB2BDF90810E0
:101E3C00FFF786FEBDF806209DF80400BDF81410CF
:101E4C00491CADF814104100CEB29DF80C10491C81
:101E5C008DF80C10CAE7521C92B29DF80D10491C5B
:101E6C008DF80D105FFA8CF390B2AEE73A49097811
:101E7C0029B9BDF814104A1C3A490A8001E03749C7
:101E8C0008805AE037490B8800218DF80D1098B264
:101E9C005FFA8CF332490A889DF80D10914247D2B3
:101EAC002E490988ADF81410002600218DF80C106D
:101EBC0082B25FFA83FC9DF80C1061452DD24EB9AD
:101ECC00049909788DF816100499491C049101267F
:101EDC00F0B200E0F0B29DF816100140C9B279B131
:101EEC00214909888DF80400ADF8062010B28AB299
:101EFC00BDF81410FFF724FEBDF806209DF8040071
:101F0C00BDF81410491EADF814104100CEB29DF866
:101F1C000C10491C8DF80C10CDE7511C8BB29DF8A0
:101F2C000D10491C8DF80D1098B25FFA8CF3B1E7C7
:101F3C00BDF814104A1E09490A80DDF800E006B00D
:101F4C00704700BF1B02FF1F1E9900006E02FF1F8F
:101F5C00944AFF1F984AFF1F964AFF1F9C4AFF1F77
:0C1F6C009E4AFF1FA04AFF1FA24AFF1F51
:101B4C0082B0CDF800E00FFA80FA0FFA81FB0AF1AF
:101B5C0001031BB25B1E1BB2602B0EDCBAF1000F33
:101B6C000BDB0BF101031BB25B1E1BB2602B04DC05
:101B7C00BBF1000F01DB002300E001230BB10320BC
:101B8C0024E0ADF80420602360225FFA8BF15FFA49
:101B9C008AF0FEF7A9FFBDF8043003F47F439BB233
:101BAC001C0AA4B2BDF8043003F0FF039BB21B0265
:101BBC009BB244EA0303ADF8043001AB0221184692
:101BCC00FEF762FF08B1022000E00020DDF800E023
:041BDC0002B070479C
:100AF40081B0CDF800E000F21004E6B2CCB2E5B269
:100B04005FFA82F8DFB240F2000901211520FFF7F5
:100B1400BFFD49EA00095FFA89F90021F0B2FFF745
:100B2400B7FD49EA00095FFA89F9A8F1010424B282
:100B3400341924B2002120B2FFF7AAFD49EA0009C2
:100B44005FFA89F901217520FFF7A2FD49EA00093E
:100B54005FFA89F90021E8B2FFF79AFD49EA000932
:100B64005FFA89F97C1E24B22C1924B2002120B228
:100B7400FFF78EFD49EA0004E4B2002C00D100E046
:0A0B8400C1E7DDF800E001B07047A2
:1006940081B0CDF800E021B100235BB20B4A1360B6
:1006A40003E001235BB2094A136000235BB2084AEA
:1006B4001360C0B2FFF7E0FE01235BB2044A13608B
:1006C4000020DDF800E001B0704700BF3C18FE4395
:0406D4005008FE4389
:10047C0081B0CDF800E082B24FF080610348FFF705
:10048C00CDFFDDF800E001B0704700BF00C00A40AE
:00049C0060
:1004280081B000F22C04236843F00043236000F2FB
:10043800340493B241EA0303236000F22C031C68DE
:0C044800C4F3C07303B9F8E701B07047BB
:100A940081B0CDF800E005460E4601215C20FFF749
:100AA400F7FD08B102201AE001235BB20E4A13607D
:100AB40000235BB20D4A13602846054630460346C0
:100AC400421E164633B12A7890B2FFF7D5FC6D1C4E
:100AD4003046F4E701235BB2044A13600020DDF8DA
:100AE40000E001B0704700BF3C18FE435008FE43CD
:000AF40002
:103FB80081B0CDF800E00321A64801700021A64891
:103FC80001604FF40051A548FFF71EF84FF4004177
:103FD800A348FFF719F84FF04001A248FFF714F87B
:103FE8004FF48011A048FFF70FF8A04AA049A14854
:103FF800FFF7BAFB012149B29F4801609F48016061
:104008009F480160FFF7A6FBFFF796FB002149B226
:104018009C480160FFF790FB012149B29948016073
:10402800FFF78AFBFFF7B6FB0121FD20FCF72EFB0B
:1040380008B102200AE100211220FCF727FB08B191
:10404800022003E10121FD20FCF720FB08B102203A
:10405800FCE00021B120FCF719FB08B10220F5E0D3
:104068000121AE20FCF712FB08B10220EEE001218D
:10407800B320FCF70BFB08B10220E7E00021F12098
:10408800FCF704FB08B10220E0E00121CA20FCF79C
:10409800FDFA08B10220D9E000215F20FCF7F6FA0A
:1040A80008B10220D2E00121A020FCF7EFFA08B104
:1040B8000220CBE000216020FCF7E8FA08B10220DA
:1040C800C4E001211520FCF7E1FA08B10220BDE0A7
:1040D80000210020FCF7DAFA08B10220B6E000213E
:1040E8005F20FCF7D3FA08B10220AFE00121752068
:1040F800FCF7CCFA08B10220A8E000210020FCF768
:10410800C5FA08B10220A1E000215F20FCF7BEFA41
:1041180008B102209AE00121A120FCF7B7FA08B102
:10412800022093E000218020FCF7B0FA08B10220B9
:104138008CE00121A220FCF7A9FA08B1022085E051
:1041480000216020FCF7A2FA08B102207EE00121DC
:10415800B120FCF79BFA08B1022077E00121322058
:10416800FCF794FA08B1022070E00121BE20FCF7A8
:104178008DFA08B1022069E001210520FCF786FAD2
:1041880008B1022062E00121A620FCF77FFA08B1FD
:1041980002205BE00121C120FCF778FA08B1022077
:1041A80054E000218A20FCF771FA08B102204DE0A2
:1041B80000215120FCF76AFA08B1022046E00021EC
:1041C8008A20FCF763FA08B102203FE00121C720EA
:1041D800FCF75CFA08B1022038E00021CF20FCF798
:1041E80055FA08B1022031E00121B420FCF74EFA5B
:1041F80008B102202AE00021A020FCF747FA08B104
:10420800022023E00021B520FCF740FA08B1022083
:104218001CE000215520FCF739FA08B1022015E00E
:104228000121B620FCF732FA08B102200EE0002185
:104238000120FCF72BFA08B1022007E00121AF208A
:10424800FCF724FA08B1022000E00020DDF800E0C5
:1042580001B070478E4AFF1F904AFF1F80F00F4041
:10426800C0F00F4000F10F4040F00F40CCAD00000F
:104278000700008680A81201980A9442180B9442FD
:08428800980B94421820FE433C
:1030100081B0CDF800E0034AFFF776F8DDF800E074
:0830200001B070470401040037
:1021080081B0CDF800E0FFF795FDDDF800E001B003
:0221180070470E
:101C3C0083B0CDF800E006460C4615463046FEF75C
:101C4C0043FE40F2FF1306EA0300800900262246F9
:101C5C002946202E39D24FF0010303FA06F402EA8A
:101C6C0004031F46A3422ED104031A4B1C19B300C4
:101C7C00E51801952C68184B04EA03032B60174BED
:101C8C0001EA0304019B1B6843EA0404019B1C60EA
:101C9C0001F48033B3F5803F15D08401104B1B1930
:101CAC001433029301F400333BB1FC43029B1B68D9
:101CBC0003EA0404029B1C6005E0029B1B6843EAD8
:101CCC000704029B1C60761CC3E7DDF800E003B040
:101CDC00704700BF009004400000FFFFFFFF0000B2
:041CEC0000F00F40B5
:1008D40081B040F2FF1100EA01018909084600F2E3
:1008E40009024FF0010101FA02F20449096841EAE0
:1008F400020202490A6001B0704700BF3880044018
:00090400F3
:1037700081B0CDF800E003460C4615460648FEF73A
:103780008DFC224619462B460348FEF70FFCDDF858
:0C37900000E001B0704700BF00C00A401C
:10209C0081B00F49884206D10E4A0F490A600F4A97
:1020AC000F490A6012E00F49884206D10E4A0A49CC
:1020BC000A600E4A0A490A6008E00D49884205D1B7
:1020CC000C4A05490A600C4A05490A6001B0704780
:1020DC0000C00240FFFFFFFFE44BFF1FFFFFFFFFAD
:1020EC00E84BFF1F00D00240FFFFFFFFFFFFFFFF89
:0C20FC0000C00A407D040000FFFFFFFF51
:101FAC0084B0CDF800E003910146104601900291F7
:101FBC001846FFF797FE0299019800F010042409C7
:101FCC002746019002910846FFF70EFE02990291F6
:101FDC000846FFF7D5FC0299019800F000450C6803
:101FEC002C430C6000F080450C682C430C600C6892
:101FFC0044F440540C600D686FF4804405EA04040A
:10200C000C6001F20C05BC002E1900F00F053468B1
:10201C002C43346001F20C05BC002E1900F08065D5
:10202C0034682C43346001F20C05BC002E1900F00E
:10203C00007534682C43346001F20C05BC002E1979
:10204C0000F0807534682C43346001F20C05BC0040
:10205C002E1935686FF0F04405EA0404346001F27F
:10206C000C05BC002E1900F00F04E50634682C4357
:10207C0034600191039A0846F9B2FFF7C3FC019949
:0E208C000846FFF7A7FDDDF800E004B070473E
:101CF00081B0CDF800E040F2000C83464FEA8C0141
:101D00000BEB01010968B1F1FF3F12D00BF1340177
:101D10004FEA8C03C91809680A460BEB03010968EE
:101D200008461146FEF73AFE0CF1010C1FFA8CFC36
:0A1D3000E4E7DDF800E001B07047C1
:10099C0082B0CDF800E080464FEA581202F0070210
:1009AC00914608F01F04A24693010D4AD3184FF04C
:1009BC000102A240019218460A46019901F09EFBE1
:1009CC004FEA0933074AD3184FEA8A029C1808F4F5
:1009DC00E06322681A432260DDF800E002B0704741
:0809EC0000F00F4000900440F0
:101BF40081B00B49884203D1012252B209490A60DB
:101C04000949884203D1012252B208490A600849AD
:101C1400884203D1012252B206490A6001B07047DA
:101C240000C00240B007904200D00240B407904286
:081C340000C00A403006904296
:10198C0081B002686FF4804102EA010101600168D4
:10199C0041F00101016000F22C031A68124942EA7D
:1019AC000101196000F208020021116000F20C0222
:1019BC004FF0F041116000F210024FF0F041116055
:1019CC0000F230020021116000F23402002111609B
:1019DC00016841F440610160026844F2010142EA8D
:0C19EC000101016001B0704700000A9A80
:101A100091B0CDF800E00F9010468DF840100E9078
:101A200001AB1846FEF7F2FF4FF0FF330D93002392
:101A300006930023089301230A9300230B930023AA
:101A40000593059B042B41D20D9B002B3ED0002318
:101A50000793079B102B35D20D9B002B32D001230F
:101A60000993099B032B29D20D9B3BB3099C029B35
:101A700003FB04F6059B9C00314B1B191D68079B5B
:101A80009C00304B1B191B686B43B6FBF3F42046DC
:101A90000E9BA3420ED30E9B1C1A0C940D9BA342CB
:101AA00008D90C9B0D93059B0693079B08930B90FD
:101AB000099B0A93099B5B1C0993D2E7079B5B1C5C
:101AC0000793C6E7059B5B1C0593BAE70F9B03F2E0
:101AD0000C049DF840309B00E5182C681A4B04EA72
:101AE00003032B600F9B03F20C049DF840309B0016
:101AF000E5180A9B5B1EDC072B6823432B600F9BBA
:101B000003F20C049DF840309B00E518069B1B0473
:101B100003F440342B6823432B600F9B03F20C0427
:101B20009DF840309B00E518089B03F00F042B68DC
:101B300023432B600B98DDF800E011B0704700BF25
:0C1B4000F8AE000038AE0000F0FFFC7FA3
:100A0C0081B0CDF800E00446FFF738FF40F2E83142
:100A1C0000FB01F3154909680A0F1449096801F034
:100A2C007061090EC8B21149096801F47001090D11
:100A3C00CDB20E49096801F47021090CCEB2D1B2C5
:100A4C0003FA01F10F462360221D27FA00F1116011
:100A5C0004F2080227FA05F1116004F20C0227FADD
:100A6C0006F11160DDF800E001B0704744800440ED
:000A7C007A
:1008880081B00248006801B0704700BFE04BFF1F0D
:0008980060
:101BE00081B002686FF0010102EA0101016001B0F9
:021BF00070473C
:10375C0081B0002149B20248016001B0704700BF3E
:04376C003410FE43D4
:1037400081B049F63E47C0F2000700BF00BF7F1EB0
:0C375000FDD100BF00BF00BF01B07047FA
:10379C0081B0012149B20248016001B0704700BFFD
:0437AC003410FE4394
:103EF40082B0CDF800E05FFA81FA5FFA82FB0146F6
:103F04008C1C2378D9B2641C23781B029BB2CB1877
:103F14001FFA83FC641C2178C9B2631C1B781B0242
:103F24009BB2CB189BB299B20AEB03039BB25B1E04
:103F34009BB2602B0ED8BAF1000F0BD30BEB0C0322
:103F44009BB25B1E9BB2602B04D8BBF1000F01D364
:103F5400002300E0012303B10BE001FB0CF4831DFB
:103F6400ADF80410A2B219461148FFF781FABDF862
:103F74000410ADF804105FFA8CF3CAB25FFA8BF147
:103F84005FFA8AF0FCF7B4FDBDF8041001FB0CF3F2
:103F94009BB25B009BB299B20548FCF779FD08B16E
:103FA400022000E00020DDF800E002B0704700BF0E
:043FB4008802FF1F61
:1034740081B093B20A4600211446024698B28142B2
:103484000DD223781B021380631C1D461C781388FD
:1034940023431380921C6B1C1C46491CEFE701B0AC
:0234A40070476F
:103DD40081B0CDF800E01FFA80FA1FFA81F995B29C
:103DE4001FFA83F8BDF8046005FB08F4A4B2A7B277
:103DF4000AEB0504A4B2641EA4B2602C0ED8BAF176
:103E0400000F0BD309EB0804A4B2641EA4B2602C07
:103E140004D8B9F1000F01D3002400E001240CB14F
:103E240003205DE00AF1100A1FFA8AFA0121152025
:103E3400FCF72EFC08B1022052E000211FFA8AF0A0
:103E4400FCF726FC08B102204AE06C1EA4B20AEB7F
:103E54000404A4B20021A0B2FCF71AFC08B10220A9
:103E64003EE001217520FCF713FC08B1022037E085
:103E740000211FFA89F0FCF70BFC08B102202FE0A7
:103E8400A8F10104A4B209EB0404A4B20021A0B275
:103E9400FCF7FEFB08B1022022E001215C20FCF7C4
:103EA400F7FB08B102201BE001256DB20E4C256022
:103EB40000256DB20D4C256000203D4687B2AF420F
:103EC40009D2340AE0B2FCF7D7FAF0B2FCF7D4FA1C
:103ED4007F1CBFB2F3E701256DB2044C25600020BE
:103EE400DDF800E001B070473C18FE435008FE4383
:003EF400CE
:103DB80081B0CDF800E00A4601460348FFF796FBBC
:0C3DC800DDF800E001B07047006006402C
:1034F4008AB0CDF800E04C4B98420DD1012464B25F
:103504004A4B1C604A4C4B4B1C604B4C4B4B1C6055
:103514004B4C4C4B1C6020E04B4B98420DD101248A
:1035240064B24A4B1C604A4C424B1C60494C434BAE
:103534001C60494C434B1C600FE0484B98420CD133
:10354400012464B2464B1C60464C3A4B1C60464C0A
:103554003A4B1C60454C3B4B1C6001910290104659
:10356400FEF7C4FB06AB1846FDF74EFA0298019924
:103574004FF0FF39002740F200080022022A37D812
:10358400B9F1000F34D001231BB203FA02F52DB2B6
:103594000026322E28D2F400354B1B191B1D1B6844
:1035A40005FB03F4079BB3FBF4F30493994203D99B
:1035B400049BCB1A039302E0049B5B1A0393039BC3
:1035C4000593039B4B450BD21746F400284B1B195C
:1035D400D3F80080059C059B002B00D105E000E09A
:1035E4004C46761CA146D4E74C46521CA146C5E77E
:1035F400441CBB0143EA08032370851C01242B7877
:1036040064F3C7132B70851C01242B7864F3861391
:103614002B70851D01242B7864F345132B70DDF882
:1036240000E00AB0704700BF006006409806904270
:10363400BD0800007402FF1F710600008402FF1F12
:10364400790900007C02FF1F007006409C0690422E
:103654007D0A00004D0600000509000000600E40D0
:1036640018059042F509000099080000C50B0000F8
:0436740024A400008A
:103A8C0081B0CDF800E04FF400510C48FFF7A4FCD6
:103A9C0040F24C00FFF7ACFC094801686FF4702051
:103AAC000140074801600648006840F410210448B2
:103ABC000160DDF800E001B0704700BF40F00F403E
:043ACC0034A00440DE
:1033FC0081B0042806D11949096841F48032174973
:10340C000A6028E0052806D11449096841F4003205
:10341C0012490A601FE0062806D11049096841F4D8
:10342C0080220E490A6016E00F2806D10C49096863
:10343C0041F002020A490A600DE010280BD3A0F2F9
:10344C00100461098A0007498B1804F01F024FF021
:10345C0001019140196001B0704700BF24ED00E0FC
:08346C0010E000E000E100E0C7
:1033E40081B0CDF800E0034AFEF78CFEDDF800E082
:0833F40001B070470401020062
:103A380081B0CDF800E0012252B20C4802600D219D
:103A48000B48016040210B4801600B48026040F2BE
:103A58004A00FFF7CFFC0A2108480160012149B25A
:103A680007480160DDF800E001B0704700079042A8
:103A7800040004400000044018008042080004408C
:043A88000000804278
:1038380081B0F02907D8084B1860084B1980084B4D
:103848001A60012006E00024044B1C800024044B6D
:103858001C60002001B07047A44AFF1F1C02FF1F14
:043868002002FF1F1C
:1038280081B00249086001B0704700BF2402FF1F41
:0038380090
:1045E00081B00249086001B0704700BFA84AFF1FB0
:0045F000CB
:10439400CEB0CDF800E00DF1080B0BF2171ADFF8E0
:1043A4001CC200F04BF9282805D0292803D04FF669
:1043B400FF7000B2FDE0FFF775F8002102B40F238F
:1043C400602250210020FFF703FD01B07C495022F8
:1043D40008460421FEF7BAFDFFF74CF9002102B4A8
:1043E4000F23602250210020FFF7F2FC01B0754931
:1043F400502208460421FEF7A9FD0DF5857302AA93
:1044040043A908B440F2021308460421FEF7E6FC6F
:1044140001B002A9C91C097871B9002102B40F23A3
:10442400602250210020FFF7D3FC01B066495022DE
:1044340008460421FEF78AFD002109B2ADF80410F4
:10444400042109B2ADF80610BDF90410042967DA95
:10445400002102B40F23602250210020FFF7B8FC92
:1044640001B05A49502208460421FEF76FFD44ABBF
:104474004D93BDF906105A18117841F001011170DD
:104484000DF585724C9202A94B9104B40A46082199
:10449400184640F20213FEF7A1FC01B044AABDF98C
:1044A400061053181A784FF6FE7109B202EA010198
:1044B40019704D9B4C9A4B9904B40A46082118462E
:1044C40040F20213FEF78AFC01B00DF5857302AACF
:1044D40044A908B440F2021308460821FEF77EFC02
:1044E40001B044AABDF906105218117841F0010137
:1044F40011704D9B4C9A4B9904B40A4608211846F6
:1045040040F20213FEF76AFC01B0BDF90410491C25
:10451400ADF80410BDF90610491CADF8061093E778
:10452400002102B40F23602250210020FFF750FC29
:1045340001B02749502208460421FEF707FD0DF576
:10454400857302AA46A908B440F20213084607215B
:10455400FEF744FC01B002A9C91C097879B900210D
:1045640002B40F23602250210020FFF731FC01B078
:104574001849502208460421FEF7E8FC0EE0002109
:1045840002B40F23602250210020FFF721FC01B068
:104594001149502208460421FEF7D8FCFDF738FFE4
:1045A400FFF768F818B14FF6FF7000B201E0002081
:1045B40000B2DDF800E04EB0704700BF23A8000051
:1045C400AC00FF1FBC00FF1FCB00FF1FD700FF1F65
:0C45D400E400FF1FF200FF1FFF00FF1FAC
:1034A80081B0CDF800E00A490A680A490A600A4969
:1034B8000A680A490A600A490A680A490A600A4900
:1034C8000870FEF7A3FFDDF800E001B0704700BF09
:1034D8007402FF1F7002FF1F7C02FF1F7802FF1F8C
:0C34E8008402FF1F8002FF1F6D02FF1F07
:1024140081B0CDF800E0012149B20A480160FFF71C
:102424004FF8002149B207480160FFF749F801213C
:1024340049B204480160FFF743F8DDF800E001B059
:08244400704700BF2C08FE43A5
:1014C40081B041F67E27C0F2060700BF00BF7F1E31
:0C14D400FDD100BF00BF00BF01B0704799
:10367800C5B0CDF800E00DF1040B0BF20D1ADFF820
:10368800B0C000F0D9FF002001B40F236022502100
:10369800002000F09BFB01B0264850220421FFF7D0
:1036A80053FC0DF5837201A90DF5857004B440F241
:1036B80002130A460421FFF78FFB01B080B1BDF960
:1036C8000811BDF90801401EADF8080119B94FF6F7
:1036D800FF7000B228E040F2F410FEF749FCE0E782
:1036E8000DF5837201A90DF5877004B440F2021339
:1036F8000A460321FFF770FB01B018B14FF6FF70BF
:1037080000B211E001A80078402809D101A8401CA6
:103718000078012804D101A8C01C007800B903E092
:103728004FF6FF7000B2FFE7DDF800E045B07047E4
:083738003AA900009D00FF1FEB
:102DE0009DB0CDF800E080461FFA81F91B92ADF846
:102DF00070301D9C1D94CDF860801B9C199403AC11
:102E000021460FFA89F0FEF76BFB002424B2ADF8DF
:102E1000684041461FFA89F0BDF9684084421ED2DD
:102E200017AD189C24780191ADF808002946E0B24E
:102E3000FEF78EFB189C641C189417AE2C4D03AC47
:102E400040B420B410B400F057F803B0BDF8080047
:102E50000199BDF96840641CADF86840DCE7019158
:102E600081B20198FEF7FEFA18B14FF6FF7000B27A
:102E700039E040F2E8331D9ABDF870101B98FEF758
:102E8000A7FB18B14FF6FF7000B22CE003AD1D9CFC
:102E9000248824B2294620B2FEF722FB002424B263
:102EA000ADF868401D9C2588BDF96840AC4218D239
:102EB00017AD199C24782946E0B2FEF749FB199C0E
:102EC000641C199417AE0B4D03AC40B420B410B47D
:102ED00000F012F803B0BDF96840641CADF868401A
:102EE000E0E7002000B2DDF800E01DB0704700BF51
:082EF0007CAF000074AF00008C
:1014E00081B0CDF800E00E46002183B2002805DA75
:1014F0000121404280B280B28FB201E098B28FB237
:101500003146FFF711FA06213446B8B2002908D94E
:1015100063184A1E92B2A21812781A70491E89B234
:10152000F4E72022227070B1002081B220464218D8
:101530001278202A02D1491C89B2F8E74A1E92B2D9
:0E15400083182D221A70DDF800E001B070470C
:1009280081B00A4681B200208DB21146052805D251
:100938000B1820221A70401CC0B2F7E70B180022CF
:100948001A70401EC0B20C180A23B5FBF3F203FB61
:10095800125292B2303222700A22B5FBF2F292B2EF
:1009680095B202B902E0401EC0B2ECE701B0704790
:000978007F
:1015500081B00309DBB2084AD21812780A704C1C19
:1015600000F00F03DBB2044AD218127822708B1CF1
:0C15700000221A7001B07047E6AE0000C7
:1014640083B0CDF800E0054688B21DB94FF6FF7091
:1014740000B21BE00F4C2468ADF804000295A047AD
:10148400029DBDF804000C4A12788DF8042040F245
:101494000103294682B29DF80400084C2468A04741
:1014A40010B1FF2040B201E0002040B2DDF800E0BE
:1014B40003B070477002FF1F6D02FF1F7802FF1F09
:0014C40028
:1008BC0081B0CDF800E00348FFF790FFDDF800E0D1
:0808CC0001B070470060064016
:1007E80081B0CDF800E004462046FFF7FDFEA31CCB
:1007F8000122197862F345111970E11C0A78C2F3D5
:100808000011C9B1E31C0122197862F304111970AF
:10081800A11D0A78C2F3001129B1A31D012219787C
:1008280062F304111970E31C0122197862F3410183
:1008380019704FF6FF701EE02046C11C0A78C2F3FB
:10084800400101B9F9E7811D0A78C2F3001129B105
:10085800831D0122197862F304111970C31C012247
:10086800197862F341011970C11C0A78C2F340017A
:0E08780001B1F9E70020DDF800E001B07047A3
:1005F00081B0CDF800E003461846FFF709FF00B9C7
:0A060000FAE7DDF800E001B07047F2
:1004100081B0C11C0A78C2F3401181F00101C9B258
:06042000C8B201B07047F4
:100A7C0081B0CDF800E00348FFF7B0FEDDF800E0F0
:080A8C0001B070470070064044
:1009F40081B0CDF800E00348FFF7F4FEDDF800E035
:080A040001B0704700600E40D4
:1009780081B0CDF800E008B413460A46C1B2044875
:10098800FFF7A6FE01B0DDF800E001B0704700BF38
:0409980000600640B5
:1006D80082B0CDF800E0054616461F46DDF80880D2
:1006E8004C00E1B22846FFF78DFF20B92846FFF7F6
:1006F800D1FE002070E040F20009CDF80480B04639
:100708003E462F46019DB1450FD208EB09042478D7
:10071800E1B23846FFF776FF20B93846FFF7BAFE50
:10072800002059E009F10109EDE7012D2FD13846E4
:10073800C41C2578C5F3400404B1F9E7861C0025DC
:10074800347865F345143470C41C2578C5F3400427
:1007580004B9F9E7841D2578C5F300142CB1861D6A
:100768000125347865F304143470841D2578C5F3A5
:1007780080142CB1861D0125347865F386143470F5
:10078800C61C0125347865F3410434701DE0BE1C95
:100798000125347865F3820434703846C41C257802
:1007A800C5F3400404B9F9E7841D2578C5F300149E
:1007B8002CB1861D0125347865F304143470C61CE9
:1007C8000125347865F341043470C41C2578C5F3D9
:1007D800400404B1F9E70020DDF800E002B07047FA
:0007E80011
:10060C0081B0841C0123227863F304122270021D32
:10061C001170C21C1378C3F3400202B9F9E7C41C71
:10062C000123227863F341022270C21C1378C3F3B6
:0E063C00000282F00102D2B2D0B201B07047CB
:10049C0082B0CDF800E0831C0022197862F345117C
:1004AC001970831C0022197862F3041119700190E1
:1004BC0000F098F80198C11C0A78C2F3400101B908
:1004CC00F9E7811D0A78C2F3801129B1831D01223D
:1004DC00197862F386111970C31C0122197862F322
:1004EC0041011970C11C0A78C2F3400101B1F9E74E
:0A04FC000020DDF800E002B07047B8
:1009040081B0CDF800E008B413460A46C1B20448E9
:10091400FFF7E0FE01B0DDF800E001B0704700BF72
:040924000070064019
:100BC40081B0CDF800E008B413460A46C1B2044827
:100BD400FFF780FD01B0DDF800E001B0704700BF11
:040BE40000600E405F
:1015D00083B0CDF800E00025154C25600192ADF8F0
:1015E000083003468AB2BDF808000199114C2478EE
:1015F00064B90A24B0FBF4F5ADB20D4C2468AC42DA
:1016000003D94FF6FF7000B20DE0EFE71846FFF781
:10161000EBFA18B14FF6FF7000B204E00025054C5C
:101620002570002000B2DDF800E003B0704700BF75
:081630006802FF1F6C02FF1F9E
:100BE80083B0CDF800E0019002911A4C2468A04728
:100BF800194B1B7803220199D8B240F20103174C14
:100C08002468A047019CA41C2478CCB1114C24680A
:100C1800A047019B9B1C1B78DDB2019BDC1C0E4B83
:100C28001B782A462146D8B240F201030B4C2468AF
:100C3800A047019B9B1C1B78DC1C029B1C8002E0CC
:100C48000324029B1C80002000B2DDF800E003B002
:100C5800704700BF7002FF1F6D02FF1F8002FF1F59
:000C68008C
:1006700081B0CDF800E008B413460A46C1B2044880
:10068000FFF742FF01B0DDF800E001B0704700BFA6
:0406900000600640C0
:1005080081B0CDF800E0804617469A46DDF80490A1
:100518004C00A4B244F00104E1B2404600F072F885
:1005280018B94046FFF7B6FF59E008F10206002562
:10053800347865F304143470BAF1010F07D108F167
:1005480002060125347865F3C304347006E008F127
:1005580002060025347865F3C30434704046FFF77B
:1005680075FFAAF101042046BA464F468146B9F103
:10057800000F30DB13E04046FFF78CFF16E008F170
:1005880002060125347865F3C30434700EE008F1DF
:1005980002060025347865F3C304347006E0B9F127
:1005A800000FE8D0B9F1010FE9D0F0E7B9F1000F79
:1005B80007D108F1040424788AF800400AF1010AF6
:1005C80006E04046FFF742FF8AF800000AF1010AF8
:1005D800A9F10109CBE717B9404600F001F9DDF8A8
:0605E80000E001B07047C5
:1004540081B00246111D08781446E11C0A78C2F3E3
:10046400400101B9F9E7E31C0122197862F3410163
:06047400197001B0704791
:10064C0081B0CDF800E008B413460A46C1B20448A4
:10065C00FFF754FF01B0DDF800E001B0704700BFB8
:04066C0000700640D4
:1008980081B0CDF800E008B413460A46C1B2044856
:1008A800FFF72EFE01B0DDF800E001B0704700BF91
:0408B80000600E408E
:101F780081B0CDF800E082B2411E88B212B101F002
:0C1F8800DBFBF8E7DDF800E001B070477B
:103AD000ADF25C2DCDF800E0C5B20DF5847B0BF5A1
:103AE000A77ADFF8D0C200F0ABFD15B9002000B214
:103AF0005AE1042D27D10DF20A2342AA0DF24721E3
:103B00008DF8045008B440F2021308460321FFF771
:103B100067F901B09DF8045018B14FF6FF7000B27C
:103B200042E142A909784F2909D142A9491C0978E3
:103B3000022904D142A9C91C097801B903E04FF652
:103B4000FF7000B230E1002605F00201C9B2B1B148
:103B50000DF20E23032109B2714309B20A1D12B2FC
:103B600002A989188DF80450032212B2084619469A
:103B7000FFF7DCF99DF80450761CF6B2FFE705F07C
:103B80000401C9B2A9B18EAB032109B2714309B2D4
:103B90000A1D12B202A989188DF804500F2212B220
:103BA00008461946FFF7C2F99DF80450711DCEB2C0
:103BB000FFE7002E3BD083AA02A996918DF804500E
:103BC00008461146022212B2FFF7B0F902A98A1C78
:103BD000032109B2714309B2491C1170969CE11C82
:103BE0000E700DF20A2342AAA11C0978C91C08B460
:103BF00040F2021389B22046FFF7F2F801B09DF8B7
:103C0000045018B14FF6FF7000B2CDE042A9097818
:103C1000412908D142A9491C097821B942A9C91CE6
:103C2000097801B903E04FF6FF7000B2BCE000264E
:103C300005F00201C9B2B1B10DF21123052109B29B
:103C4000714309B24A1D12B202A989188DF80450B5
:103C5000052212B208461946FFF768F99DF804508C
:103C6000761CF6B2FFE7002E3DD00DF24A2202A9E3
:103C700096918DF8045008461146052212B2FFF7BE
:103C800055F902A98A1C052109B2714309B2891CA0
:103C90001170969C211D0E700DF20A2342AAA11CE0
:103CA0000978C91C08B440F2021389B22046FFF714
:103CB00097F801B09DF8045018B14FF6FF7000B2AC
:103CC00072E042A90978412909D142A9491C097821
:103CD000012904D142A9C91C097801B903E04FF6B2
:103CE000FF7000B260E005F00201C9B229B10DF227
:103CF0004F218A1D1178403111700DF24F21891D1D
:103D0000097839B30DF20A2342AA0DF24F218DF83A
:103D1000045008B440F2021308460721FFF760F888
:103D200001B09DF8045018B14FF6FF7000B23BE0AF
:103D300042A90978402909D142A9491C09780229D8
:103D400004D142A9C91C097801B903E04FF6FF70FC
:103D500000B229E005F00201C9B219B30DF20A233D
:103D600042AA0DF2162108B440F20213084622219D
:103D7000FFF736F801B018B14FF6FF7000B213E04C
:103D800042A90978402909D142A9491C0978022988
:103D900004D142A9C91C097801B903E04FF6FF70AC
:103DA00000B201E0002000B2DDF800E00DF25C2D71
:083DB000704700BFB4A500003C
:102F2C0081B00B46014618460D4614B2531E1AB218
:102F3C0024B103782B706D1C401CF6E7084601B0D9
:022F4C007047CC
:10429000ADF21C2DCDF800E083908DF810120DF5D5
:1042A000827B0BF5837ADFF8E4C000F0C9F90022C5
:1042B00004B40F23602250210020FFF78BFD01B0D2
:1042C000334A042110465022FEF742FE82AB01AA77
:1042D000869219461046022212B2FEF727FE01AA64
:1042E000931C9DF81022520012B2521C1A70869A2A
:1042F000D31C9DF810221A7000209DF810229042C5
:1043000014D2420012B2121D12B201ACA318839A49
:10431000121812781A70420012B2521D12B2A3186B
:1043200001221A70421CD1B2C8B2E6E70DF206258E
:1043300041AC9DF81022520012B2131D01AA99B28D
:1043400040F202131046224620B4FEF749FD01B0A8
:1043500018B14FF6FF7000B213E041AA1278412A5B
:1043600009D141AA521C1278032A04D141AAD21CB5
:10437000127802B903E04FF6FF7000B201E00020AE
:1043800000B2DDF800E00DF21C2D704757AC0000C4
:044390000901FF1F01
:10480C0083B0CDF800E040F20001ADF80810FFE7EE
:10481C0002A9019000230A4640F202112048FCF73D
:10482C00D1FE01981E4909786129F1D11D490978F9
:10483C00052904D01B490978032900D0E7E7194959
:10484C00097805290BD1184909780170421C1749C0
:10485C0009781170821C1649097811701CE000212E
:10486C000170421C104909781170821C0F4909789B
:10487C001170BDF808104A1E92B2094989180978BE
:10488C00022909D102A940F2E8330A4640F202118A
:10489C000348FCF797FEECE7DDF800E003B0704747
:1048AC001901FF1F1A01FF1F1D01FF1F1E01FF1F12
:0448BC001F01FF1FBA
:1048C00096B0CDF800E015901599097803290DD11F
:1048D0001599891C097801F08001C9B2802900D19D
:1048E000FFE715990220FFF783FEC4E01599891CA4
:1048F000097801F0F001C9B2002940F0BC80159997
:10490000491C097880291CD1002102B40F236022A0
:1049100050210020FFF75EFA01B0594950220846A5
:104920000421FEF715FBFEF743FF45F6FE17C0F224
:10493000622700BF00BF7F1EFDD100BF00BF00BFC8
:1049400083E01599491C097805295ED015990978E5
:1049500000295AD01599491C0978CBB2494A01A9B6
:1049600008B404B402B4FEF7C7FA03B01599491CA1
:104970000978CBB2444A01A908B404B402B4FEF7E2
:10498000BBFA03B0002102B46023602200210020A2
:10499000FFF720FA01B03D490022084647F6CF3123
:1049A000FEF700FB002102B40F23602250210020FB
:1049B000FFF710FA01B036490A2208460421FEF733
:1049C000C7FA3249002208464FF6FF71FEF7EAFAAD
:1049D000002102B40F23602250210020FFF7FAF9D2
:1049E00001B0002102B40F23602250210020FFF704
:1049F000F1F901B001A9192208460421FEF7A8FA2D
:104A000015990420FFF7F4FD1FE0002102B40F23E5
:104A1000602250210020FFF7DDF901B01D4950222E
:104A200008460421FEF794FAFEF720FF08211A48F1
:104A3000FFF72EFC45F6FE17C0F2622700BF00BF4D
:104A40007F1EFDD100BF00BF00BF144900220846F1
:104A50000021FFF74FFA002102B40F2360225021FA
:104A60000020FFF7B7F901B00D4950220846042194
:104A7000FEF76EFAFFE7DDF800E016B0704700BF02
:104A80002500FF1F9EAE000008AF00001E99000029
:104A90003100FF1F3B00FF1F4700FF1F18510000A0
:044AA0004F00FF1FA5
:1045F00081B0CDF800E008E00846FEF715FD09E0BF
:104600000846FEF7C9FD05E004E00228F4D00428BE
:0C461000F6D0F9E7DDF800E001B07047DB
:10302800ADF22C2DCDF800E086900DF5857B0BF2E6
:103038000D1ADFF854C101F0FFFAFFF7BBFE8699BD
:10304800891C097801F08001C9B280290CD083ABB2
:103058000DF585720DF20E2108B440F202130846F0
:103068000521FFF7B9FE01B083AA0DF5857140F27D
:10307800D073084640F20211FEF7A6FA00285FD185
:103088000DF585710978002941D10DF58571491C27
:103098000978E1BB0DF1080B0BF5817ADFF8ECC07C
:1030A80001F0CAFA42AD02A98A91CC1C0DF58573CC
:1030B8008993991C0978CAB2D91C2B46084691B243
:1030C8002246FFF75FF802AA002111708A9C621C51
:1030D800BDF8081101F47F4189B2090A1170A21CD8
:1030E800BDF8081101F0FF01117083ABBDF808119C
:1030F800CA1C899908B4ADF8082040F2021320468A
:103108000A46BDF80810FFF767FE01B017E00DF595
:1031180085710978602906D10DF58571491C0978F2
:10312800082900D10CE00DF585710978612906D1CF
:103138000DF58571491C0978062900D100E093E74F
:103148008699891C097801F08001C9B2802916D0B6
:1031580083AB0DF585720DF2132108B440F202130A
:1031680008460421FFF738FE01B083AA0DF58571E2
:1031780040F2D073084640F20211FEF725FADDF856
:1031880000E00DF22C2D704716A3000014A20000D9
:0031980037
:102DBC0081B00648008818B101210548017002E075
:102DCC0000210348017001B0704700BF1C02FF1FB7
:042DDC001E02FF1FB5
:10218C0085B0CDF800E00646039204930025049C2C
:10219C00258002AC21463046FFF748FA6FE09DF8E7
:1021AC000840042C16D18F4C246894B106248DF869
:1021BC000940039881B00DF10C0C0DF1000B0BF1E3
:1021CC00030A02F037FAFFF7D3F901B00225049C99
:1021DC00258012E007248DF80940039881B00DF199
:1021EC000C0C0DF1000B0BF1030A02F023FAFFF7B4
:1021FC00BFF901B00225049C25804EE0F41C247824
:10220C00102C36D1341D2478022C32D1754C246814
:10221C0064B106F208042478E5B206F209040196CA
:10222C00A9B220466F4C2468A047019E0C248DF85F
:10223C000940039881B00DF10C0C0DF1000B0BF162
:10224C00030A02F0F7F9FFF793F901B0039CA51C00
:10225C00B41C24782409E4B2641C2C70039CE41C88
:10226C00062212B26049204600F05AFE0925049C51
:10227C00258012E005255D4C25700EE00DE09DF8E3
:10228C000940042C3FF48BAF9DF809400C2CB5D0C1
:10229C009DF80940062CEDD0F0E7049C2488002C16
:1022AC0040F09C8087E0022212B25149039800F062
:1022BC0037FE0225049C258004254C4C25708DE0AE
:1022CC000C248DF80940039881B00DF10C0C0DF124
:1022DC00000B0BF1030A02F0ADF9FFF749F901B05D
:1022EC00039CA51C00242C70039CE51C10242C7052
:1022FC00039C251D02242C70039C651D00242C704E
:10230C00039CA51D00242C70039CE51D00242C703F
:10231C00039C04F20806374D2C8834702C46268812
:10232C00354C2568039C093432B22946204600F00E
:10233C00F7FD304C248804F20905049C2580062501
:10234C002A4C25702D4C246844B12A4C25882A4CE3
:10235C002468A9B22046294C2468A0473EE0284DA9
:10236C002C88641CA4B22C80012C02D103251F4C98
:10237C00257040F2E830FFF7F9FD022212B2214934
:10238C00039800F0CDFD0225049C258026E0002555
:10239C001B4C25800225154C257040F2F410FFF7DC
:1023AC00E5FD022212B21749039800F0B9FD02258F
:1023BC00049C258012E00D4C2478032C3FF473AF61
:1023CC000A4C2478052C3FF47BAF084C2478022C63
:1023DC00C5D0064C2478012CD9D0DEE7DDF800E01E
:1023EC0005B070472402FF1F69AF00001E02FF1FDB
:1023FC00060500001C02FF1FA44AFF1F2002FF1F3E
:08240C002802FF1F7A04000002
:1016380081B0027892080A704C1C027802F003020A
:10164800D2B293009BB2421C12789209D2B29A1875
:1016580022708B1C421C127802F03F021A7001B0F3
:021668007047C9
:10157C0081B09DF806108A0092B29DF8051089087A
:10158C00C9B201F00301C9B251180170431C9DF896
:10159C0005108A0192B29DF804105118197001B00F
:0215AC00704786
:10319800ADF2302DCDF800E00DF5857B0BF2211A4C
:1031A800DFF834C201F048FA411C09780190C8B22E
:1031B800FEF7B0FF0198411C097803292CD183AB95
:1031C80002AA0DF21D21019008B440F2021308462C
:1031D8000721FFF701FE01B083AA02A940F2E833F4
:1031E800084640F20211FEF7EFF9019802A90978A2
:1031F800612910D102A9491C097808290BD102A913
:10320800C91C097839B902A9891D01900846FFF738
:1032180029F9019800E0C4E00DF20A250DF5857141
:10322800CC1C02AB991C0978CAB2D91C01902B4658
:10323800084691B22246FFF705F90198BDF80A122F
:1032480001B929E00DF5857400212170621CBDF8D3
:103258000A1201F47F4189B2090A1170A21CBDF853
:103268000A1201F0FF01117083AB02AABDF80A121D
:10327800C91C019008B440F202132046FFF7ACFDC8
:1032880001B083AA02A940F2D073084640F20211A5
:10329800FEF79AF90198BFE7411C8B9176E040F25E
:1032A800F410FEF765FE83AB02AA0DF20E2108B4F6
:1032B80040F2021308460A21FFF78EFD01B083AAE7
:1032C80002A940F2E833084640F20211FEF77CF901
:1032D80002A9097829B902A9491C0978002900D14D
:1032E800DDE75EE040F2F410FEF742FE83AB02AA8F
:1032F80086A908B440F2021308460521FFF76CFDC1
:1033080001B083AA02A940F2E833084640F202114C
:10331800FEF75AF902A9097849B902A9491C09789E
:1033280029B902A9891C0978112900D1DAE738E0FE
:1033380040F2F410FEF71CFE83AB02AA89A908B478
:1033480040F2021308460321FFF746FD01B083AAA5
:1033580002A940F2E833084640F20211FEF734F9B8
:1033680002A909786F290FD102A9491C09781129E6
:103378000AD102A9891C0978012905D102A9C91C09
:103388000978012900D1D3E70BE00AE08B9A11787C
:10339800012984D011780229A4D011780429C7D032
:1033A800F3E783AB02AA0DF2272108B440F2021317
:1033B80008460421FFF710FD01B083AA02A940F2D4
:1033C800E833084640F20211FEF7FEF8DDF800E0A7
:0C33D8000DF2302D704700BF02A700006E
:10211C0081B0CDF800E01BE0FFF744FA134A1449F4
:10212C000A601EE0FFF70CFC124A11490A6018E025
:10213C00FFF716FC104A0E490A6012E0FFF790FAFE
:10214C000E4A0B490A600CE0002209490A6008E0BB
:10215C000128E1D00228E5D00328E9D00428EDD0ED
:10216C00F2E7DDF800E001B0704700BF8D1600000B
:10217C002C02FF1F4D100000BD120000690C000066
:00218C0053
:1015B00081B000210348017003490448016001B073
:1015C000704700BF1F02FF1FBC4AFF1FB84AFF1F22
:0015D0001B
:10194C0081B000210348017003490448016001B0D3
:10195C00704700BF2A02FF1FBC4AFF1FB44BFF1F7A
:00196C007B
:10196C0081B000210348017003490448016001B0B3
:10197C00704700BF2B02FF1FBC4AFF1FC84BFF1F45
:00198C005B
:10166C0081B000210348017003490448016001B0B6
:10167C00704700BF4002FF1FBC4AFF1FDC4BFF1F1F
:00168C005E
:10246C0081B0CDF800E00646082212B2314606488B
:10247C0000F056FD082212B23146044800F050FD1F
:10248C00DDF800E001B07047B84BFF1F3202FF1FB0
:00249C0040
:10244C0081B0CDF800E0054C246814B1034C24682D
:10245C00A047DDF800E001B0704700BF2C02FF1F61
:00246C0070
:10168C0082B0CDF800E08146174698460024A8F8B1
:10169C00004023E1072212B29D49384601F040FC7C
:1016AC000724A8F8004001259A4C25702BE1072946
:1016BC0029D14C1EA4B209EB040424781CBB99F864
:1016CC000050954C257009F101042578934C257038
:1016DC0009F10204042212B22146914801F020FCC7
:1016EC00032212B28F49384601F01AFCFC1C04226A
:1016FC0012B28B49204601F013FC0724A8F80040D5
:10170C000225844C2570FEE07B2940F087804C1E1E
:10171C00A4B209EB04042478002C40F07F8009F17A
:10172C000A042478E12C40F079800E20CDF8048056
:10173C005FFA80FA88B2B846019F09EB0A04247854
:10174C00032C10D00AF1010424B209EB0404247810
:10175C00A41C24B20AEB04045FFA84FAE4B28442B7
:10176C0000D9D0E0E9E70AF1010424B209EB040442
:10177C0024786D4E3480441EA4B2103CA4B2A4EB69
:10178C000A04A4B2A41EE0B2E5B234462488AC42EA
:10179C001AD8654C26880AF1020424B209EB040518
:1017AC00624C246832B22946204601F0B9FB604CE9
:1017BC00246844B15C4C25885C4C2468A9B2204652
:1017CC005B4C2468A04729E05A4C208026880AF1FB
:1017DC00020424B209EB0405544C246832B22946A5
:1017EC00204601F09DFB1025534C25700A2212B2A5
:1017FC005249404601F094FB08F101054E4C247807
:10180C002C7008F10A04042212B24549204601F05A
:10181C0087FB0E243C8003253E4C257073E00A297F
:10182C0040F05A804C1EA4B209EB04042478002C1E
:10183C0040F052803F4C25883B4C2488641BA4B25A
:10184C00082C1FD2DFF8EC80B8F80050364C2488F6
:10185C00671B09F1010644462588344C2468641939
:10186C003AB23146204601F05BFB314C246844B15E
:10187C002D4C25882D4C2468A9B220462C4C24686C
:10188C00A04729E009F101062A4C2588274C246839
:10189C006419082212B23146204601F041FB254D55
:1018AC002C8808342C80244D2C78641C2C700A2233
:1018BC0012B22249384601F033FB7D1C1E4C2478B1
:1018CC002C7007F20A04042212B21549204601F0CA
:1018DC0027FB0E24A8F8004015E014E00D4C2478EA
:1018EC00002C3FF4D7AE0B4C2478012C3FF4DFAE28
:1018FC00084C2478022C3FF407AF064C2478032CB8
:10190C003FF48DAFE9E7DDF800E002B0704700BFAF
:10191C005BAF00001F02FF1FAC4AFF1FAD4AFF1F49
:10192C00AE4AFF1F80AF0000B64AFF1FB84AFF1F28
:10193C00A84AFF1FB44AFF1FB24AFF1F42AF000064
:00194C009B
:10104C0082B0CDF800E08046174699460024A9F8F6
:10105C00004007E130243C707D1C03242C700224DA
:10106C00A9F8004001258C4C257010E1112914D1F0
:10107C004C1EA4B208EB0404247874B998F8004010
:10108C00E12C0AD130243C707D1C04242C700224E9
:10109C00A9F800400225804C2570F8E0112940F099
:1010AC0095804C1EA4B208EB04042478002C40F06C
:1010BC008D80002001974F46C1468EB25FFA80FAB0
:1010CC00DDF8048009EB0A042478032C10D00AF113
:1010DC00010424B209EB04042478A41C24B20AEB06
:1010EC0004045FFA84FAE4B2B44200D9CFE0E9E731
:1010FC000AF1010424B209EB04042478B4F1FF0FC3
:10110C0011D10AF1020424B209EB0404247825025B
:10111C00ADB20AF1030424B209EB040424782D19AE
:10112C005E4C258007E00AF1010424B209EB0404AB
:10113C0025785A4C2580741EA4B2A4EB0A04A4B2E0
:10114C00A51EADB2554C2488AC421AD8534C2688F7
:10115C000AF1020424B209EB0405514C246832B2A2
:10116C002946204601F0DCFE4E4C246844B14B4C21
:10117C0025884B4C2468A9B220464A4C2468A047C9
:10118C0024E0741EA4B2A4EB0A04A4B2A51E464C1F
:10119C0025802EB20AF1020424B209EB0405404C5E
:1011AC00246832B22946204601F0BAFE08243F4E8C
:1011BC003470302488F8004008F101053446247856
:1011CC002C7002243C800325334C25705FE01129E0
:1011DC0046D14C1EA4B208EB04042478002C3FD159
:1011EC00314C25882D4C2488641BA4B2102C1BD2A6
:1011FC002D4F3D88294C2488661B3C462588284C5D
:10120C002468641932B24146204601F089FE254C0F
:10121C00246844B1214C2588214C2468A9B220466D
:10122C00204C2468A0471BE01F4C25881C4C2468CC
:10123C006419102212B24146204601F071FE1A4D7B
:10124C002C8810342C80194E3478241D34703024A2
:10125C003C707D1C344624782C700224A9F8004084
:10126C0015E014E00C4C2478002C3FF4F3AE0A4C3F
:10127C002478012C3FF4FAAE074C2478022C3FF46E
:10128C000DAF054C2478032C3FF4A1AFE9E7DDF852
:10129C0000E002B0704700BF2A02FF1FB04BFF1FD7
:1012AC00B44BFF1FA84AFF1FAE4BFF1FAC4BFF1FD9
:0012BC0032
:1012BC0081B0CDF800E08146174698460024A8F886
:1012CC000040A6E0102212B25C49384601F028FE1C
:1012DC001024A8F800400125594C2570A9E04C1E9B
:1012EC00A4B209EB04042478002C2BD109F10104DD
:1012FC002478072C26D109F10A04247814BB09F1AF
:10130C000B042478F4B909F11A042478E5B24D4C95
:10131C002580F02D00D915E000254B4C25800125AA
:10132C004A4C2570102212B24449384601F0F8FD9F
:10133C0007F20F0501242C701024A8F80040022598
:10134C003F4C257075E04C1EA4B209EB04042478C4
:10135C00002C40F05C8009F101042478072C40F04B
:10136C00568009F10A042478002C40F0508009F1D1
:10137C000B042478002C4AD1334C2588314C24881A
:10138C00641BA4B2102C1FD8DFF8BC80B8F8005036
:10139C002C4C2488671B09F10D06444625882C4CDF
:1013AC00246864193AB23146204601F0B9FD294C43
:1013BC00246844B1234C2588254C2468A9B22046C6
:1013CC00244C2468A04722E009F10D061E4C258808
:1013DC001F4C24686419102212B23146204601F0C9
:1013EC009FFD194D2C8810342C80184D2C78641CC2
:1013FC002C70102212B21149384601F091FD07F2FF
:10140C000F05124C24782C701024A8F8004010E022
:10141C000FE00B4C2478002C3FF454AF084C24788C
:10142C00012C3FF45CAF064C2478022C3FF48BAFBC
:10143C00EEE7DDF800E001B0704700BF3002FF1F9F
:10144C002B02FF1FC44BFF1FC24BFF1FC04BFF1FC4
:08145C00C84BFF1FA84AFF1F47
:100C680081B0CDF800E081461FFA81FA90461F4610
:100C780000243C80B1E10C2212B2B549404602F092
:100C880051F90C243C800125B24C2570CEE1AAF123
:100C98000204A4B209EB0404022212B2AE492046AF
:100CA800FFF772FF58B9072212B2AC49404602F06A
:100CB80039F907243C800325A64C25700EE00C2248
:100CC80012B2A349404602F02DF908F10B050024A1
:100CD8002C700C243C8002259E4C2570A6E1AAF1BC
:100CE8000204A4B209EB0404022212B29A49204673
:100CF800FFF74AFF70B9072212B29849404602F03E
:100D080011F908F1030500242C7007243C80032501
:100D1800904C25708AE1AAF10204A4B209EB0404FC
:100D2800022212B28C492046FFF72EFF50B9052245
:100D380012B28B49404602F0F5F805243C800425A0
:100D4800844C257072E1AAF10204A4B209EB0404F0
:100D5800022212B280492046FFF716FF002840F011
:100D68005B80BAF1110F40F0578009F10204257831
:100D78007C4C257009F1030424782502ADB209F1F1
:100D8800040424782D19784C258009F10504247869
:100D98002502ADB209F1060424782D19734C25807B
:100DA80009F109042578724C257009F10A0425789F
:100DB800704C257009F10B0424782502ADB209F1B5
:100DC8000C0424782D196C4C258009F10D04257824
:100DD8006A4C257009F10E042578694C25700722A4
:100DE80012B26849404602F09DF85E4C2478102CF7
:100DF80003D108F1030500242C7008F105055C4CAB
:100E080024782C7008F106055A4C24782C70072495
:100E18003C8005254F4C257008E1AAF10204A4B2D4
:100E280009EB0404022212B24B492046FFF7ACFE3C
:100E380070B9052212B24A49404602F073F80524F7
:100E48003C8008F1040502242C700625414C2570CD
:100E5800ECE0AAF10204A4B209EB0404022212B2E3
:100E68003D492046FFF790FE002831D199F800400F
:100E78002502ADB209F1010424782D19ADB2424C16
:100E88002580F02D00D923E00025404C258005223F
:100E980012B23349404602F045F808F1030502242E
:100EA8002C7008F10406304C2488651EADB2364C0F
:100EB8002488AC4204D92C4C2488601E80B201E0FE
:100EC800314C2078307005243C800725214C257052
:100ED800ACE0AAF10204A4B209EB0404022212B2A3
:100EE8001D492046FFF750FE002840F07480AAF103
:100EF8000206264C2588264C2468641932B24946D5
:100F0800204602F00FF8AAF10205ADB21F4E348850
:100F18006519ADB235801C4C2488A5420CD11D4CF6
:100F2800246844B1184C2588194C2468A9B2204675
:100F3800184C2468A0474EE0052212B208494046E2
:100F480001F0F0FF08F10306104D2C8800F024B8DA
:100F580014AF00004002FF1F2604000054AF000039
:100F68006FAF0000CC4BFF1FCE4BFF1FD04BFF1FB6
:100F7800D24BFF1FD34BFF1FD44BFF1FD64BFF1F76
:100F8800D74BFF1F62AF0000DA4BFF1FD84BFF1F84
:100F9800DC4BFF1FA84AFF1FA41C347008F104068D
:100FA8002C462588234C2488651BADB2224C248806
:100FB800641EA4B2A54204D91F4C2488601E80B2C6
:100FC80006E01E4C25881B4C2488601B80B2C0B2EA
:100FD800307005243C8029E028E0194C2478002C46
:100FE8003FF449AE164C2478012C3FF450AE144C13
:100FF8002478022C3FF473AE114C2478032C3FF470
:101008008AAE0F4C2478042C3FF49DAE0C4C247807
:10101800052C3FF402AF0A4C2478062C3FF419AF94
:10102800074C2478072C3FF454AFD5E7DDF800E0EF
:1010380001B07047DA4BFF1FCE4BFF1FD84BFF1F85
:041048004002FF1F44
:100B900081B0ADF800200246BDF9000004B2431E4A
:100BA00018B25CB114780B789C4204D014780B789E
:100BB000E31A18B204E0521C491CEFE7002000B20F
:040BC00001B07047C9
:1037B000C3B0CDF800E00DF1040B0BF5847ADFF80F
:1037C00054C000F03DFF0DF5837201A942A804B476
:1037D00040F202130A460421FFF702FB01B018B1C0
:1037E0004FF6FF7000B210E00DF5837101A840F2B2
:1037F000E8330A4640F20211FDF7EAFE18B14FF62F
:10380000FF7000B201E0002000B2DDF800E043B03C
:08381000704700BF4FAB000040
:10386C00C3B0CDF800E00DF1040B0BF5847ADFF852
:10387C0054C000F0DFFE0DF5837201A942A804B418
:10388C0040F202130A460421FFF7A4FA01B018B162
:10389C004FF6FF7000B210E00DF5837101A840F2F5
:1038AC00E8330A4640F20211FDF78CFE18B14FF6D0
:1038BC00FF7000B201E0002000B2DDF800E043B080
:0838CC00704700BF47AA00008D
:104B540090B072B697480190974802909748039096
:104B6400974804909748059097480690974807906F
:104B7400974808909748099097480A9097480B904F
:104B840097480C90974998480D9098480E900D9826
:104B940000F007000F9001F0010050B94CF22050D2
:104BA400934908804DF62810088040F2D2119148AC
:104BB40001800021904801609048007800F00100D5
:104BC400C0B258B18E48007800F00800C0B220B1DD
:104BD4008B49087840F00800087021E08948006893
:104BE40040F00051874801608748006800F48070F5
:104BF400B0B9854801686FF4705001EA000040F4D0
:104C04004071814801608048006840F480717E48AA
:104C140001607D4801686FF4007001407A480160CA
:104C2400AA217A4801700D9800F0100058B978480C
:104C3400007800F09F0176480170764800780128DA
:104C440000D0FAE71BE00D9800F01000B8B10E99FF
:104C54007148814208D960216D4801706D4800781F
:104C6400802800D0FAE70AE06948007800F09F0144
:104C74006748017067480078012800D0FAE7049972
:104C840066480160664801686FF44020014002985C
:104C940000F44020014362480160624801686FF4F7
:104CA40040300140039800F4403001435D48016006
:104CB4000F9830B10F98012803D00F98022800D024
:104CC40064E0019800F0800050B9089800F04000BA
:104CD40028B10B9800F00300002800D100E015E093
:104CE4005148006840F400714F4801604F48016822
:104CF4004F4801404D480160069800F0040028B177
:104D04004C4801684A4801404A4801600A994A48A7
:104D14000170059949480170059800F0040040B1FC
:104D24004748007800F01000C0B2002800D1F7E72F
:104D340006E04348007800F01000C0B200B1F8E784
:104D44004048007800F0BF01C9B2069800F0FD00A9
:104D540001433C480170079800F0E0013A480078AC
:104D640000F01F00C0B20143374801700199374871
:104D740001700B99364801700F98022805D131480B
:104D8400007840F002012F480170BDE0019800F066
:104D9400800020B90B9800F0030000B166E02248BF
:104DA400006840F4007120480160204801682048F0
:104DB40001404FE0800000000000080000000100F6
:104DC4000000440122000000240000000000000054
:104DD4000200000046000000000000000000000087
:104DE400090000000000000007000000C0D401001A
:104DF4000E2005400020054008ED00E000F00740CB
:104E040002D007403C80044010D0034000E007403B
:104E140001E0074003E0074080380100448004407B
:104E240000700440048004403880044048900440EA
:104E3400FFF8FFFE4C900440084006400040064046
:104E4400064006400140064003400640005006402C
:104E54000C4006407F480160069800F0040028B129
:104E64007D4801687D4801407B4801600A997C487F
:104E740001707C48007800F0BF01C9B2069800F0C8
:104E8400FD000143774801700199774801700B993F
:104E9400764801700F98072805D1059840F08001E5
:104EA4007348017002E0059971480170069800F09A
:104EB400040050B10B9800F0030030B96D4800783D
:104EC40000F00200C0B200B9F8E7059800F0040051
:104ED40040B16848007800F01000C0B2002800D14A
:104EE400F7E706E06348007800F01000C0B200B1B4
:104EF400F8E7079800F0E0015F48007800F01F0031
:104F0400C0B201435C480170089800F0BF015B48DF
:104F14000170099800F0BF0159480170089800F029
:104F2400400028B15548007840F0400153480170D2
:104F34000F98052806D14B48007840F002014948F3
:104F440001701CE00F98062803D00F98072800D0A2
:104F540015E04B48007840F040014948017045484D
:104F6400007800F04000C0B200B9F8E70F980728B5
:104F740005D13F48007800F03F013D4801700F988B
:104F840018B10F98032800D029E03A48007800F0BF
:104F94000C00C0B200B1F8E73A48006840F00101E3
:104FA4003848016000213848016080213748016099
:104FB4000521374801600121344801603348006805
:104FC40000F0800000B9F9E70021304801602D4865
:104FD40001686FF0010001402A4801602DE00F983C
:104FE400012803D00F98022800D008E02148007857
:104FF40000F00C00C0B2042800D0F7E71DE00F98C1
:10500400042806D00F98062803D00F98052800D04E
:1050140008E01848007800F00C00C0B2082800D05E
:10502400F7E70AE00F98072807D11248007800F044
:105034000C00C0B20C2800D0F7E7164801686FF0E6
:105044000F0001400C9800F00F000143114801606B
:1050540010B07047489004404C900440FFF8FFFEA5
:105064000840064001400640005006400C400640FF
:105074000040064006400640034006400440064007
:105084000540064038800440080004400000044005
:085094000400044048800440C0
:1051040081B002490248016001B07047C0D4010077
:04511400E04BFF1F4E
:0850FC0081B0FEE701B070472E
:104B3C0081B072B60349086840F47000086062B630
:084B4C0001B0704788ED00E0A4
:10AF840000B5DFF814B0DFF814A0DFF814C0F9F747
:10AF940055FB00BD704700BF0000FF1F6702FF1F85
:04AFA400AD9F00005D
:10B0040000B5DFF810B0DFF810A0F9F749FD00BD76
:0CB01400704700BF0000FF1FEC4BFF1F47
:104AE00081B0CDF800E00948006840F08001074837
:104AF00001600749086880F001010548016000BFB6
:104B0000FFF78CFDDDF800E001B0704700000440C5
:044B10002C00FE4334
:10461C0081B003480068411C0148016001B070473B
:04462C006802FF1F02
:104B140081B0CDF800E04FF0FF3105480160FFF7A8
:104B240085FD012103480170DDF800E001B0704704
:084B3400A0A004406702FF1F6E
:1046300081B001210148017001B070476C02FF1F79
:004640007A
:100400000000000000000000FFFFFFFF02FDFFFFF3
:02042600900044
:02047A00000080
:020506001120C2
:1051180000106000600000000000000000000000B7
:105128000000000000000000000000000000000077
:105138000000000000000000000000000000000067
:105148000000000000000000000000000000000057
:105158000000000000000000000000000000000047
:105828000000FFFFFFFF0000000000000000FFFF76
:105838000000FFFFFFFFFFFFFFFFFFFF000000006A
:10584800FFFFFFFFFFFFFFFFFFFF0000000000005A
:105858000000000000000000000000000000000040
:105868000000000000000000000000000000000030
:105878000000000000000000000000000000000020
:105888000000000000000000000000000000000010
:105898000000000000000000000000000000000000
:1058A80000000000000000000000000000000000F0
:1058B80000000000000000000000000000000000E0
:1058C80000000000000000000000000000000000D0
:1058D80000000000000000000000000000000000C0
:1058E8000000FFFFFFFFFFFF000000000000FFFFB8
:1058F8000000FFFFFFFF0000000000000000FFFFA6
:10590800FFFF0000000000000000FFFF0000000093
:10591800000000000000000000000000000000007F
:10592800000000000000000000000000000000006F
:10593800000000000000000000000000000000005F
:10594800000000000000000000000000000000004F
:10595800000000000000000000000000000000003F
:10596800000000000000000000000000000000002F
:10597800000000000000000000000000000000001F
:10598800000000000000000000000000000000000F
:1059980000000000000000000000000000000000FF
:1059A8000000FFFFFFFFFFFF000000000000FFFFF7
:1059B8000000FFFFFFFF0000000000000000FFFFE5
:1059C800FFFF0000000000000000FFFF00000000D3
:1059D80000000000000000000000000000000000BF
:1059E80000000000000000000000000000000000AF
:1059F800000000000000000000000000000000009F
:105A0800000000000000000000000000000000008E
:105A1800000000000000000000000000000000007E
:105A2800000000000000000000000000000000006E
:105A3800000000000000000000000000000000005E
:105A4800000000000000000000000000000000004E
:105A5800000000000000000000000000000000003E
:105A68000000FFFF0000FFFFFFFF00000000FFFF36
:105A78000000FFFFFFFF0000000000000000FFFF24
:105A8800FFFF000000000000000000000000000010
:105A980000000000000000000000000000000000FE
:105AA80000000000000000000000000000000000EE
:105AB80000000000000000000000000000000000DE
:105AC80000000000000000000000000000000000CE
:105AD80000000000000000000000000000000000BE
:105AE80000000000000000000000000000000000AE
:105AF800000000000000000000000000000000009E
:105B0800000000000000000000000000000000008D
:105B1800000000000000000000000000000000007D
:105B28000000FFFF00000000FFFFFFFF0000FFFF75
:105B38000000FFFFFFFFFFFFFFFFFFFF0000FFFF69
:105B4800FFFF00000000000000000000000000004F
:105B5800000000000000000000000000000000003D
:105B6800000000000000000000000000000000002D
:105B7800000000000000000000000000000000001D
:105B8800000000000000000000000000000000000D
:105B980000000000000000000000000000000000FD
:105BA80000000000000000000000000000000000ED
:105BB80000000000000000000000000000000000DD
:105BC80000000000000000000000000000000000CD
:105BD80000000000000000000000000000000000BD
:105BE8000000FFFF00000000FFFFFFFF0000FFFFB5
:105BF8000000FFFFFFFF0000000000000000FFFFA3
:105C0800FFFF00000000000000000000000000008E
:105C1800000000000000000000000000000000007C
:105C2800000000000000000000000000000000006C
:105C3800000000000000000000000000000000005C
:105C4800000000000000000000000000000000004C
:105C5800000000000000000000000000000000003C
:105C6800000000000000000000000000000000002C
:105C7800000000000000000000000000000000001C
:105C8800000000000000000000000000000000000C
:105C980000000000000000000000000000000000FC
:105CA8000000FFFF000000000000FFFFFFFFFFFFF4
:105CB8000000FFFFFFFF0000000000000000FFFFE2
:105CC800FFFF0000000000000000FFFF00000000D0
:105CD80000000000000000000000000000000000BC
:105CE80000000000000000000000000000000000AC
:105CF800000000000000000000000000000000009C
:105D0800000000000000000000000000000000008B
:105D1800000000000000000000000000000000007B
:105D2800000000000000000000000000000000006B
:105D3800000000000000000000000000000000005B
:105D4800000000000000000000000000000000004B
:105D5800000000000000000000000000000000003B
:105D68000000FFFF000000000000FFFFFFFFFFFF33
:105D78000000FFFFFFFF0000000000000000FFFF21
:105D8800FFFF0000000000000000FFFF000000000F
:105D980000000000000000000000000000000000FB
:105DA80000000000000000000000000000000000EB
:105DB80000000000000000000000000000000000DB
:105DC80000000000000000000000000000000000CB
:105DD80000000000000000000000000000000000BB
:105DE80000000000000000000000000000000000AB
:105DF800000000000000000000000000000000009B
:105E0800000000000000000000000000000000008A
:105E1800000000000000000000000000000000007A
:105E28000000FFFF0000000000000000FFFFFFFF70
:105E38000000FFFFFFFF000000000000000000005E
:105E4800FFFFFFFFFFFFFFFFFFFF00000000000054
:105E5800000000000000000000000000000000003A
:105E6800000000000000000000000000000000002A
:105E7800000000000000000000000000000000001A
:105E8800000000000000000000000000000000000A
:1062880000000000000000000000FFFFFFFFFFFF0C
:10629800FFFFFFFFFFFFFFFFFFFFFFFFFFFFFFFF06
:1062A800FFFFFFFFFFFFFFFFFFFFFFFFFFFFFFFFF6
:1062B800FFFFFFFFFFFFFFFFFFFFFFFFFFFFFFFFE6
:1062C800FFFFFFFFFFFFFFFFFFFFFFFFFFFFFFFFD6
:1062D800FFFFFFFFFFFFFFFFFFFFFFFFFFFFFFFFC6
:1062E800FFFF0000000000000000000000000000A8
:1062F8000000000000000000000000000000000096
:106308000000000000000000000000000000000085
:106318000000000000000000000000000000000075
:106328000000000000000000000000000000000065
:106338000000000000000000000000000000000055
:1063480000000000000000007DEFFFFF82108210B7
:10635800821082108210821082100000000000005B
:10636800000000000000821082108210821082104B
:106378008210821082108210821082108210821085
:106388008210821082108210821082108210821075
:106398008210821082108210821082108210821065
:1063A800FFFFFFFF000000000000000000000000E9
:1063B80000000000000000000000000000000000D5
:1063C80000000000000000000000000000000000C5
:1063D80000000000000000000000000000000000B5
:1063E80000000000000000000000000000000000A5
:1063F8000000000000000000000000000000000095
:106408000000000000003CE7FFFF00000000000063
:106418000000000000000000000000000000000074
:106428000000000000000000000000000000000064
:106438000000000000000000000000000000000054
:106448000000000000000000000000000000000044
:106458000000000000000000000000000000000034
:106468000000FFFFFFFF0000000000000000000028
:106478000000000000000000000000000000000014
:106488000000000000000000000000000000000004
:1064980000000000000000000000000000000000F4
:1064A80000000000000000000000000000000000E4
:1064B80000000000000000000000000000000000D4
:1064C800000000000000FFFF0000000000000000C6
:1064D80000000000000000000000000000000000B4
:1064E80000000000000000000000000000000000A4
:1064F8000000000000000000000000000000000094
:106508000000000000000000000000000000000083
:106518000000000000000000000000000000000073
:1065280000000000FFFF0000000000000000000065
:106538000000000000000000000000000000000053
:106548000000000000000000000000000000000043
:106558000000000000000000000000000000000033
:106568000000000000000000000000000000000023
:106578000000000000000000000000000000000013
:10658800000000000000FFFF000000000000000005
:1065980000000000000000000000000000000000F3
:1065A80000000000000000000000000000000000E3
:1065B80000000000000000000000000000000000D3
:1065C80000000000000000000000000000000000C3
:1065D80000000000000000000000000000000000B3
:1065E80000000000FFFF00000000000000000000A5
:1065F8000000000000000000000000000000000093
:106608000000000000000000000000000000000082
:106618000000000000000000000000000000000072
:106628000000000000000000000000000000000062
:106638000000000000000000000000000000000052
:10664800000000000000FFFF000000000000000044
:106658000000000000000000000000000000000032
:106668000000000000000000000000000000000022
:106678000000000000000000000000000000000012
