:10000000FCFF0220690F0000F9030000F903000063
:10001000F9030000F9030000F9030000F9030000F0
:10002000F9030000F9030000F9030000F9030000E0
:10003000F9030000F9030000F9030000F9030000D0
:10004000F9030000F9030000F9030000F9030000C0
:10005000F9030000F9030000F9030000F9030000B0
:10006000F9030000F9030000F9030000F9030000A0
:10007000F9030000F9030000F9030000F903000090
:10008000F9030000F9030000F9030000F903000080
:10009000F9030000F9030000F9030000F903000070
:1000A000F9030000F9030000F9030000F903000060
:1000B000F9030000F9030000F9030000F903000050
:1000C000F9030000F9030000F9030000F903000040
:1000D000F9030000F9030000F9030000F903000030
:1000E000F9030000F9030000F9030000F903000020
:1000F000F9030000F9030000F9030000F903000010
:10010000F9030000F9030000F9030000F9030000FF
:10011000F9030000F9030000F9030000F9030000EF
:10012000F9030000F9030000F9030000F9030000DF
:10013000F9030000F9030000F9030000F9030000CF
:10014000F9030000F9030000F9030000F9030000BF
:10015000F9030000F9030000F9030000F9030000AF
:10016000F9030000F9030000F9030000F90300009F
:10017000F9030000F9030000F9030000F90300008F
:10018000F9030000F9030000F9030000F90300007F
:08019000F9030000F90300006F
:100F680000F078F8FFF7EAFF09F0F2FBFFF7F0FF6F
:100F780009F0AEFBFFF7A4FF2E4800220021FFF77F
:100F88003DFF4BF2FE37C0F2C44700BF00BF7F1ED3
:100F9800FDD100BF00BF00BF2748FFF715FF274955
:100FA800274801603021274801802648008890287A
:100FB80038D22448018840F26010414389B21E4863
:100FC8004118214801603C21204801801F480088C1
:100FD8009C2822D21D4D2888410089B21A4C2068CD
:100FE80040180178164B1868017018460068421CB2
:100FF8001A6028460088400080B2411C89B2204609
:10100800006840180078107018460068401C186086
:1010180028460088401C2880D8E70A490888401CD0
:101028000880C2E7002200210948FFF7E7FEB3E77E
:10103800FEE700BFA41500000648FF1F0600FF1FBB
:10104800080E0020060E00200C0E0020100E0020B6
:041058000000FF1F76
:100DC0001CF8019B0BF8019BBBEB0A0FF8D1704795
:000DD00023
:100D88004FF000094FF0000CBDEB0A0F04DCBDEB7F
:100D98000B0F01DBD446EA464BF8049BBBEB0A0F6A
:100DA800FAD1BCEB0A0F05DDE246D9F800B00BF129
:060DB800040BF1E7704797
:100EC80081B0CDF800E041F2FE17C0F27A0700BF0A
:100ED80000BF7F1EFDD100BF00BF00BF4FF400510F
:100EE8001048FFF733FD4FF010010F48FFF7B8FD2A
:100EF800012149B20D48016041F2FE17C0F27A079C
:100F080000BF00BF7F1EFDD100BF00BF00BF084A61
:100F180008490948FFF78EFDFFF7C6FDDDF800E038
:100F280001B0704740F00F4080F00F401010FE43B2
:0C0F38001CA6000007000082002D310103
:1009540081B0CDF800E0034AFFF722FFDDF800E0A4
:0809640001B07047040102001C
:1007A40081B0CDF800E0FFF707FFDDF800E001B00D
:0207B40070478C
:1005BC0083B0CDF800E006460C4615463046FFF7F2
:1005CC00FFFD40F2FF1306EA0300800900262246D5
:1005DC002946202E39D24FF0010303FA06F402EA21
:1005EC0004031F46A3422ED104031A4B1C19B3005B
:1005FC00E51801952C68184B04EA03032B60174B84
:10060C0001EA0304019B1B6843EA0404019B1C6080
:10061C0001F48033B3F5803F15D08401104B1B19C6
:10062C001433029301F400333BB1FC43029B1B686F
:10063C0003EA0404029B1C6005E0029B1B6843EA6E
:10064C000704029B1C60761CC3E7DDF800E003B0D6
:10065C00704700BF009004400000FFFFFFFF000048
:04066C0000F00F404B
:1001CC0040F2FF1100EA01018909084600F2090218
:1001DC004FF0010101FA02F20349096841EA0202F7
:0C01EC0001490A60704700BF38800440E1
:100A680081B0CDF800E0034AFFF798FEDDF800E01A
:080A780001B070470401040005
:100A3C0081B0CDF800E003460C4615460648FFF79A
:100A4C0077FE224619462B460348FFF7AFFEDDF82A
:0C0A5C0000E001B0704700BF00C0024085
:10073C000E49884206D10E4A0E490A600E4A0F49EC
:10074C000A6012E00E49884206D10E4A09490A6035
:10075C000D4A0A490A6008E00C49884205D10C4A46
:10076C0004490A600B4A05490A60704700C0024000
:10077C00FFFFFFFF2456002099060000285600209A
:10078C0000D00240FFFFFFFFFFFFFFFF00C00A4049
:08079C009D050000FFFFFFFFB7
:1007B80084B0CDF800E00391014610460190029103
:1007C8001846FFF781FD0299019800F010042409EA
:1007D8002746019002910846FFF7D0FD0299029141
:1007E8000846FFF797FD0299019800F000450C684C
:1007F8002C430C6000F080450C682C430C600C689E
:1008080044F440540C600D686FF4804405EA040415
:100818000C6001F20C05BC002E1900F00F053468BD
:100828002C43346001F20C05BC002E1900F08065E1
:1008380034682C43346001F20C05BC002E1900F01A
:10084800007534682C43346001F20C05BC002E1985
:1008580000F0807534682C43346001F20C05BC004C
:100868002E1935686FF0F04405EA0404346001F28B
:100878000C05BC002E1900F00F04E50634682C4363
:1008880034600191039A0846F9B2FFF7BDFD01995A
:0E0898000846FFF711FDDDF800E004B07047E0
:1002D00081B0CDF800E040F2000C83464FEA8C017B
:1002E0000BEB01010968B1F1FF3F12D00BF13401B2
:1002F0004FEA8C03C91809680A460BEB0301096829
:1003000008461146FFF7B0FF0CF1010C1FFA8CFCF8
:0A031000E4E7DDF800E001B07047FB
:1002680082B0CDF800E080464FEA581202F007024B
:10027800914608F01F04A24693010D4AD3184FF087
:100288000102A240019218460A46019900F086FA36
:100298004FEA0933074AD3184FEA8A029C1808F430
:1002A800E06322681A432260DDF800E002B070477C
:0802B80000F00F40009004402B
:100384000A49884203D1012252B209490A60094943
:10039400884203D1012252B207490A6007498842C0
:1003A40003D1012252B206490A60704700C00240DC
:1003B400B007904200D00240B407904200C00A4007
:0403C400300690422D
:10031C0002686FF4804102EA01010160016841F05A
:10032C000101016000F22C031A68124942EA010132
:10033C00196000F208020021116000F20C024FF06B
:10034C00F041116000F210024FF0F041116000F228
:10035C0030020021116000F23402002111600168AA
:10036C0041F440610160026844F2010142EA01017A
:08037C000160704700000A9ABD
:1004100091B0CDF800E00F9010468DF840100E908E
:1004200001AB1846FFF7E8FE4FF0FF330D930023B2
:1004300006930023089301230A9300230B930023C0
:100440000593059B042B41D20D9B002B3ED000232E
:100450000793079B102B35D20D9B002B32D0012325
:100460000993099B032B29D20D9B3BB3099C029B4B
:1004700003FB04F6059B9C00314B1B191D68079B71
:100480009C00304B1B191B686B43B6FBF3F42046F2
:100490000E9BA3420ED30E9B1C1A0C940D9BA342E1
:1004A00008D90C9B0D93059B0693079B08930B9013
:1004B000099B0A93099B5B1C0993D2E7079B5B1C72
:1004C0000793C6E7059B5B1C0593BAE70F9B03F2F6
:1004D0000C049DF840309B00E5182C681A4B04EA88
:1004E00003032B600F9B03F20C049DF840309B002C
:1004F000E5180A9B5B1EDC072B6823432B600F9BD0
:1005000003F20C049DF840309B00E518069B1B0489
:1005100003F440342B6823432B600F9B03F20C043D
:100520009DF840309B00E518089B03F00F042B68F2
:1005300023432B600B98DDF800E011B0704700BF3B
:0C054000C8A6000088A60000F0FFFC7FA9
:1001F80081B0CDF800E00446FFF7CAFF40F2E831CD
:1002080000FB01F3154909680A0F1449096801F050
:100218007061090EC8B21149096801F47001090D2D
:10022800CDB20E49096801F47021090CCEB2D1B2E1
:1002380003FA01F10F462360221D27FA00F111602D
:1002480004F2080227FA05F1116004F20C0227FAF9
:1002580006F11160DDF800E001B070474480044009
:0002680096
:0C01980001480068704700BF205600209E
:0E02C00002686FF0010102EA0101016070475F
:100AB00081B0CDF800E00321A64801700021A648CE
:100AC00001604FF40051A548FFF7CEFF4FF40041FD
:100AD000A348FFF7C9FF4FF04001A248FFF7C4FF4A
:100AE0004FF48011A048FFF7BFFFA04AA049A148DA
:100AF000FFF7DAFE012149B29F4801609F4801607B
:100B00009F480160FFF7C0FDFFF7B2FD002149B229
:100B10009C480160FFF7ACFD012149B29948016092
:100B2000FFF7A6FDFFF702FE0121FD20FFF7DCFD28
:100B300008B102200AE100211220FFF7D5FD08B11B
:100B4000022003E10121FD20FFF7CEFD08B10220C4
:100B5000FCE00021B120FFF7C7FD08B10220F5E05D
:100B60000121AE20FFF7C0FD08B10220EEE0012117
:100B7000B320FFF7B9FD08B10220E7E00021F12022
:100B8000FFF7B2FD08B10220E0E00121CA20FFF723
:100B9000ABFD08B10220D9E000215F20FFF7A4FDE2
:100BA00008B10220D2E00121A020FFF79DFD08B18D
:100BB0000220CBE000216020FFF796FD08B1022063
:100BC000C4E001211520FFF78FFD08B10220BDE030
:100BD00000210020FFF788FD08B10220B6E00021C7
:100BE0005F20FFF781FD08B10220AFE001217520F1
:100BF000FFF77AFD08B10220A8E000210020FFF7EE
:100C000073FD08B10220A1E000215F20FFF76CFD19
:100C100008B102209AE00121A120FFF765FD08B18B
:100C2000022093E000218020FFF75EFD08B1022042
:100C30008CE00121A220FFF757FD08B1022085E0DA
:100C400000216020FFF750FD08B102207EE0012165
:100C5000B120FFF749FD08B1022077E001213220E1
:100C6000FFF742FD08B1022070E00121BE20FFF72E
:100C70003BFD08B1022069E001210520FFF734FDAA
:100C800008B1022062E00121A620FFF72DFD08B186
:100C900002205BE00121C120FFF726FD08B1022000
:100CA00054E000218A20FFF71FFD08B102204DE02B
:100CB00000215120FFF718FD08B1022046E0002175
:100CC0008A20FFF711FD08B102203FE00121C72073
:100CD000FFF70AFD08B1022038E00021CF20FFF71E
:100CE00003FD08B1022031E00121B420FFF7FCFC34
:100CF00008B102202AE00021A020FFF7F5FC08B18E
:100D0000022023E00021B520FFF7EEFC08B102200D
:100D10001CE000215520FFF7E7FC08B1022015E098
:100D20000121B620FFF7E0FC08B102200EE000210F
:100D30000120FFF7D9FC08B1022007E00121AF2014
:100D4000FFF7D2FC08B1022000E00020DDF800E04F
:100D500001B070471A0E00201C0E002080F00F40DA
:100D6000C0F00F4000F10F4040F00F40B0A5000070
:100D70000700008680A81201980A9442180B94423A
:080D8000980B94421820FE4379
:1008A80081B0CDF800E003460C4615460648FFF730
:1008B80041FF224619462B460348FFF779FFDDF82A
:0C08C80000E001B0704700BF00C00A4013
:10068800002149B201480160704700BF3410FE43A1
:0006980062
:1006700049F63E47C0F2000700BF00BF7F1EFDD114
:0806800000BF00BF00BF70477E
:10072C00012149B201480160704700BF3410FE43FB
:00073C00BD
:1006E80081B0CDF800E021B100235BB20B4A136062
:1006F80003E001235BB2094A136000235BB2084A96
:100708001360C0B2FFF746FF01235BB2044A1360CF
:100718000020DDF800E001B0704700BF3C18FE4340
:040728005008FE4334
:10059C0081B0CDF800E082B24FF080610348FFF7E4
:1005AC00FBFDDDF800E001B0704700BF00C00A4061
:0005BC003F
:1001A40000F22C04236843F00043236000F234047B
:1001B40093B241EA0303236000F22C031C68C4F3E6
:0801C400C07303B9F8E77047AE
:100E040082B0CDF800E05FFA81FA5FFA82FB014616
:100E14008C1C2378D9B2641C23781B029BB2CB1898
:100E24001FFA83FC641C2178C9B2631C1B781B0263
:100E34009BB2CB189BB299B20AEB03039BB25B1E25
:100E44009BB2602B0ED8BAF1000F0BD30BEB0C0343
:100E54009BB25B1E9BB2602B04D8BBF1000F01D385
:100E6400002300E0012303B10BE001FB0CF4831D1C
:100E7400ADF80410A2B219461148FFF7FFFDBDF802
:100E84000410ADF804105FFA8CF3CAB25FFA8BF168
:100E94005FFA8AF0FFF782FDBDF8041001FB0CF342
:100EA4009BB25B009BB299B20548FFF721FD08B1E4
:100EB400022000E00020DDF800E002B0704700BF2F
:040EC400200E0020DC
:100A800093B20A4600211446024698B281420DD222
:100A900023781B021380631C1D461C781388234394
:0E0AA0001380921C6B1C1C46491CEFE770472C
:1009A00081B0CDF800E000F21004E6B2CCB2E5B2BE
:1009B0005FFA82F8DFB240F2000901211520FFF74B
:1009C00093FE49EA00095FFA89F90021F0B2FFF7C6
:1009D0008BFE49EA00095FFA89F9A8F1010424B203
:1009E000341924B2002120B2FFF77EFE49EA000943
:1009F0005FFA89F901217520FFF776FE49EA0009BF
:100A00005FFA89F90021E8B2FFF76EFE49EA0009B2
:100A10005FFA89F97C1E24B22C1924B2002120B27D
:100A2000FFF762FE49EA0004E4B2002C00D100E0C6
:0A0A3000C1E7DDF800E001B07047F7
:1008F40081B0CDF800E005460E4601215C20FFF7EB
:10090400F1FE08B102201AE001235BB20E4A136023
:1009140000235BB20D4A1360284605463046034661
:10092400421E164633B12A7890B2FFF735FE6D1C8D
:100934003046F4E701235BB2044A13600020DDF87B
:1009440000E001B0704700BF3C18FE435008FE436E
:00095400A3
:100DD00081B0CDF800E00746002252B208490A600F
:100DE0000520FFF777FD4CF200613846FFF7BEFDA6
:100DF000012252B202490A60DDF800E001B07047FA
:040E00001010FE438D
:1008D40081B0CDF800E0054A116801B9FBE7FFF7E4
:1008E400D9FEDDF800E001B0704700BF340AFE43D2
:0008F40004
:1006980081B0CDF800E086B21048FFF775FF4FF043
:1006A80001024FF001010D48FFF794FE0B48FFF7D8
:1006B80087FE00210948FFF757FF0848FFF7FCFDB0
:1006C800B2B24FF080610548FFF768FD0348FFF7B5
:1006D80039FF80B2DDF800E001B0704700C0024089
:0006E80012
:0A059000016841F0010101607047AD
:1003DC0004686FF4406304EA030303609402CB02E5
:0A03EC001C430368234303607047BD
:1003C80000F22C031A68024942EA010119607047D9
:0403D80000000A9A7D
:1005700000F208058AB2140400F208021368034A64
:1005800003EA020244EA02022A607047FFFF000009
:000590006B
:10054C0000F22C010A68C2F3404101B9F8E700F24D
:10055C00380109688BB200F22C024FF400311160A3
:04056C0098B270478A
:10096C0081B0CDF800E08046084668B1471E084BC0
:10097C001A6802B9FBE70020FFF788FE88F8000030
:10098C0008F101083846F0E7DDF800E001B07047E7
:04099C00340AFE43D8
:10105C008FB072B6974800909748019097480290CD
:10106C0097480390974804909748059097480690A6
:10107C0097480790974808909748099097480A9086
:10108C0097480B90974998480C9098480D900C985D
:10109C0000F007000E9001F0010050B94CF2205006
:1010AC00934908804DF62810088040F2D2119148DF
:1010BC0001800021904801609048007800F0010008
:1010CC00C0B258B18E48007800F00800C0B220B110
:1010DC008B49087840F00800087021E089480068C6
:1010EC0040F00051874801608748006800F4807028
:1010FC00B0B9854801686FF4705001EA000040F403
:10110C004071814801608048006840F480717E48DD
:10111C0001607D4801686FF4007001407A480160FD
:10112C00AA217A4801700C9800F0100058B9784840
:10113C00007800F09F01764801707648007801280D
:10114C0000D0FAE71BE00C9800F01000B8B10D9934
:10115C007148814208D960216D4801706D48007852
:10116C00802800D0FAE70AE06948007800F09F0177
:10117C006748017067480078012800D0FAE70399A6
:10118C0066480160664801686FF440200140019890
:10119C0000F44020014362480160624801686FF42A
:1011AC0040300140029800F4403001435D4801603A
:1011BC000E9830B10E98012803D00E98022800D05A
:1011CC0064E0009800F0800050B9079800F04000EF
:1011DC0028B10A9800F00300002800D100E015E0C7
:1011EC005148006840F400714F4801604F48016855
:1011FC004F4801404D480160059800F0040028B1AB
:10120C004C4801684A4801404A48016009994A48DB
:10121C000170049949480170049800F0040040B131
:10122C004748007800F01000C0B2002800D1F7E762
:10123C0006E04348007800F01000C0B200B1F8E7B7
:10124C004048007800F0BF01C9B2059800F0FD00DD
:10125C0001433C480170069800F0E0013A480078E0
:10126C0000F01F00C0B201433748017000993748A5
:10127C0001700A99364801700E98022805D1314840
:10128C00007840F002012F480170BDE0009800F09A
:10129C00800020B90A9800F0030000B166E02248F3
:1012AC00006840F400712048016020480168204823
:1012BC0001404FE080000000000008000000010029
:1012CC000000440122000000240000000000000087
:1012DC0002000000460000000000000000000000BA
:1012EC00090000000000000007000000C0D401004D
:1012FC000E2005400020054008ED00E000F00740FE
:10130C0002D007403C80044010D0034000E007406E
:10131C0001E0074003E007408038010044800440AE
:10132C00007004400480044038800440489004401D
:10133C00FFF8FFFE4C900440084006400040064079
:10134C00064006400140064003400640005006405F
:10135C000C4006407F480160059800F0040028B15D
:10136C007D4801687D4801407B48016009997C48B3
:10137C0001707C48007800F0BF01C9B2059800F0FC
:10138C00FD000143774801700099774801700A9974
:10139C00764801700E98072805D1049840F080011A
:1013AC007348017002E0049971480170059800F0CF
:1013BC00040050B10A9800F0030030B96D48007871
:1013CC0000F00200C0B200B9F8E7049800F0040085
:1013DC0040B16848007800F01000C0B2002800D17D
:1013EC00F7E706E06348007800F01000C0B200B1E7
:1013FC00F8E7069800F0E0015F48007800F01F0065
:10140C00C0B201435C480170079800F0BF015B4813
:10141C000170089800F0BF0159480170079800F05E
:10142C00400028B15548007840F040015348017005
:10143C000E98052806D14B48007840F00201494827
:10144C0001701CE00E98062803D00E98072800D0D7
:10145C0015E04B48007840F0400149480170454880
:10146C00007800F04000C0B200B9F8E70E980728E9
:10147C0005D13F48007800F03F013D4801700E98BF
:10148C0018B10E98032800D029E03A48007800F0F3
:10149C000C00C0B200B1F8E73A48006840F0010116
:1014AC0038480160002138480160802137480160CC
:1014BC000521374801600121344801603348006838
:1014CC0000F0800000B9F9E70021304801602D4898
:1014DC0001686FF0010001402A4801602DE00E9870
:1014EC00012803D00E98022800D008E0214800788B
:1014FC0000F00C00C0B2042800D0F7E71DE00E98F5
:10150C00042806D00E98062803D00E98052800D083
:10151C0008E01848007800F00C00C0B2082800D091
:10152C00F7E70AE00E98072807D11248007800F078
:10153C000C00C0B20C2800D0F7E7164801686FF019
:10154C000F0001400B9800F00F000143114801609F
:10155C000FB07047489004404C900440FFF8FFFED9
:10156C000840064001400640005006400C40064032
:10157C00004006400640064003400640044006403A
:10158C000540064038800440080004400000044038
:08159C000400044048800440F3
:100F58000149024801607047C0D4010020560020B2
:000F680089
:0403F800FEE7704765
:100F440072B60349086840F47000086062B67047DE
:040F540088ED00E044
:10A6D80000B5DFF814B0DFF814A0DFF814C0F6F7FF
:10A6E8006BFB00BD704700BF0000FF1F0648FF1F3F
:04A6F800AA5D000057
:10A7580000B5DFF810B0DFF810A0F6F711FB00BD68
:0CA76800704700BF0000FF1F2C560020AF
:100400000000000000000000FFFFFFFF02FDFFFFF3
:1015A4000010600060000000000000000000000067
:1015B4000000000000000000000000000000000027
:1015C4000000000000000000000000000000000017
:1015D4000000000000000000000000000000000007
:1015E40000000000000000000000000000000000F7
:101C940000000000000000000000FFFFFFFFFFFF46
:101CA400FFFFFFFF00000000000000000000000034
:101CB4000000000000000000000000000000000020
:101CC4000000000000000000000000000000000010
:101CD4000000000000000000000000000000000000
:101CE40000000000000000000000000000000000F0
:101CF40000000000000000000000000000000000E0
:101D040000000000000000000000000000000000CF
:101D140000000000000000000000000000000000BF
:101D240000000000000000000000000000000000AF
:101D3400000000000000000000000000000000009F
:101D4400000000000000000000000000000000008F
:101D54000000000000000000FFFFFFFF0000000083
:101D640000000000FFFF0000000000000000000071
:101D7400000000000000000000000000000000005F
:101D8400000000000000000000000000000000004F
:101D9400000000000000000000000000000000003F
:101DA400000000000000000000000000000000002F
:101DB400000000000000000000000000000000001F
:101DC400000000000000000000000000000000000F
:101DD40000000000000000000000000000000000FF
:101DE40000000000000000000000000000000000EF
:101DF40000000000000000000000000000000000DF
:101E040000000000000000000000000000000000CE
:101E14000000000000000000FFFFFFFF00000000C2
:101E240000000000FFFF000000000000FFFFFFFFB4
:101E3400FFFF00000000FFFFFFFFFFFFFFFFFFFFAA
:101E44000000FFFFFFFFFFFF000000000000FFFF96
:101E5400FFFFFFFFFFFF00000000FFFFFFFF000088
:101E6400FFFF000000000000FFFFFFFFFFFF000076
:101E7400000000000000000000000000000000005E
:101E8400000000000000000000000000000000004E
:101E9400000000000000000000000000000000003E
:101EA400000000000000000000000000000000002E
:101EB400000000000000000000000000000000001E
:101EC400000000000000000000000000000000000E
:101ED4000000000000000000FFFFFFFF0000000002
:101EE40000000000000000000000FFFF00000000F0
:101EF400FFFFFFFF0000FFFFFFFF00000000FFFFE8
:101F0400FFFF00000000FFFFFFFF0000FFFFFFFFD7
:101F140000000000FFFFFFFF0000FFFFFFFFFFFFC7
:101F2400FFFF00000000FFFF00000000FFFFFFFFB5
:101F3400000000000000000000000000000000009D
:101F4400000000000000000000000000000000008D
:101F5400000000000000000000000000000000007D
:101F6400000000000000000000000000000000006D
:101F7400000000000000000000000000000000005D
:101F8400000000000000000000000000000000004D
:101F94000000000000000000FFFFFFFF0000000041
:101FA400000000000000000000000000000000002D
:101FB400FFFFFFFF0000FFFFFFFF00000000FFFF27
:101FC400FFFF00000000FFFFFFFF0000FFFFFFFF17
:101FD40000000000FFFFFFFF0000FFFFFFFF000005
:101FE400000000000000000000000000FFFFFFFFF1
:101FF40000000000000000000000000000000000DD
:1020040000000000000000000000000000000000CC
:1020140000000000000000000000000000000000BC
:1020240000000000000000000000000000000000AC
:10203400000000000000000000000000000000009C
:10204400000000000000000000000000000000008C
:102054000000000000000000FFFFFFFF0000000080
:1020640000000000000000000000FFFFFFFFFFFF72
:10207400FFFFFFFF0000FFFFFFFF00000000FFFF66
:10208400FFFF00000000FFFFFFFF0000FFFFFFFF56
:10209400FFFFFFFFFFFFFFFF0000FFFFFFFF000048
:1020A400000000000000FFFFFFFFFFFFFFFFFFFF36
:1020B400000000000000000000000000000000001C
:1020C400000000000000000000000000000000000C
:1020D40000000000000000000000000000000000FC
:1020E40000000000000000000000000000000000EC
:1020F40000000000000000000000000000000000DC
:1021040000000000000000000000000000000000CB
:102114000000000000000000FFFFFFFF00000000BF
:1021240000000000FFFF0000FFFFFFFF00000000B1
:10213400FFFFFFFF0000FFFFFFFF00000000FFFFA5
:10214400FFFF00000000FFFFFFFF0000FFFFFFFF95
:1021540000000000000000000000FFFFFFFF00007F
:1021640000000000FFFFFFFF00000000FFFFFFFF73
:10217400000000000000000000000000000000005B
:10218400000000000000000000000000000000004B
:10219400000000000000000000000000000000003B
:1021A400000000000000000000000000000000002B
:1021B400000000000000000000000000000000001B
:1021C400000000000000000000000000000000000B
:1021D4000000000000000000FFFFFFFF00000000FF
:1021E40000000000FFFF0000FFFFFFFF00000000F1
:1021F400FFFFFFFF0000FFFFFFFF00000000FFFFE5
:10220400FFFF00000000FFFFFFFF0000FFFFFFFFD4
:10221400000000000000FFFF0000FFFFFFFF0000C0
:1022240000000000FFFFFFFF00000000FFFFFFFFB2
:10223400000000000000000000000000000000009A
:10224400000000000000000000000000000000008A
:10225400000000000000000000000000000000007A
:10226400000000000000000000000000000000006A
:10227400000000000000000000000000000000005A
:10228400000000000000000000000000000000004A
:1022940000000000000000000000FFFFFFFFFFFF40
:1022A400FFFFFFFF000000000000FFFFFFFFFFFF34
:1022B400FFFFFFFF0000FFFFFFFF00000000FFFF24
:1022C400FFFF00000000FFFFFFFF00000000FFFF12
:1022D400FFFFFFFFFFFF00000000FFFFFFFF000004
:1022E400000000000000FFFFFFFFFFFFFFFFFFFFF4
:1022F40000000000000000000000000000000000DA
:1023040000000000000000000000000000000000C9
:1023140000000000000000000000000000000000B9
:1023240000000000000000000000000000000000A9
:1027140000000000000000000000FFFFFFFFFFFFBB
:10272400FFFFFFFFFFFFFFFFFFFFFFFFFFFFFFFFB5
:10273400FFFFFFFFFFFFFFFFFFFFFFFFFFFFFFFFA5
:10274400FFFFFFFFFFFFFFFFFFFFFFFFFFFFFFFF95
:10275400FFFFFFFFFFFFFFFFFFFFFFFFFFFFFFFF85
:10276400FFFFFFFFFFFFFFFFFFFFFFFFFFFFFFFF75
:10277400FFFF000000000000000000000000000057
:102784000000000000000000000000000000000045
:102794000000000000000000000000000000000035
:1027A4000000000000000000000000000000000025
:1027B4000000000000000000000000000000000015
:1027C4000000000000000000000000000000000005
:1027D40000000000000000007DEFFFFF8210821067
:1027E400821082108210821082100000000000000B
:1027F40000000000000082108210821082108210FB
:102804008210821082108210821082108210821034
:102814008210821082108210821082108210821024
:102824008210821082108210821082108210821014
:10283400FFFFFFFF00000000000000000000000098
:102844000000000000000000000000000000000084
:102854000000000000000000000000000000000074
:102864000000000000000000000000000000000064
:102874000000000000000000000000000000000054
:102884000000000000000000000000000000000044
:102894000000000000003CE7FFFF00000000000013
:1028A4000000000000000000000000000000000024
:1028B4000000000000000000000000000000000014
:1028C4000000000000000000000000000000000004
:1028D40000000000000000000000000000000000F4
:1028E40000000000000000000000000000000000E4
:1028F4000000FFFFFFFF00000000000000000000D8
:1029040000000000000000000000000000000000C3
:1029140000000000000000000000000000000000B3
:1029240000000000000000000000000000000000A3
:102934000000000000000000000000000000000093
:102944000000000000000000000000000000000083
:10295400000000000000FFFF000000000000000075
:102964000000000000000000000000000000000063
:102974000000000000000000000000000000000053
:102984000000000000000000000000000000000043
:102994000000000000000000000000000000000033
:1029A4000000000000000000000000000000000023
:1029B40000000000FFFF0000000000000000000015
:1029C4000000000000000000000000000000000003
:1029D40000000000000000000000000000000000F3
:1029E40000000000000000000000000000000000E3
:1029F40000000000000000000000000000000000D3
:102A040000000000000000000000000000000000C2
:102A1400000000000000FFFF0000000000000000B4
:102A240000000000000000000000000000000000A2
:102A34000000000000000000000000000000000092
:102A44000000000000000000000000000000000082
:102A54000000000000000000000000000000000072
:102A64000000000000000000000000000000000062
:102A740000000000FFFF0000000000000000000054
:102A84000000000000000000000000000000000042
:102A94000000000000000000000000000000000032
:102AA4000000000000000000000000000000000022
:102AB4000000000000000000000000000000000012
:102AC4000000000000000000000000000000000002
:102AD400000000000000FFFF0000000000000000F4
:102AE40000000000000000000000000000000000E2
:102AF40000000000000000000000000000000000D2
:102B040000000000000000000000000000000000C1
:102B140000000000000000000000000000000000B1
:102B240000000000000000000000000000000000A1
:102B340000000000FFFF0000000000000000000093
:102B44000000000000000000000000000000000081
:102B54000000000000000000000000000000000071
:102B64000000000000000000000000000000000061
:102B74000000000000000000000000000000000051
:102B84000000000000000000000000000000000041
:102B9400000000000000FFFF000000000000000033
:102BA4000000000000000000000000000000000021
:102BB4000000000000000000000000000000000011
:102BC4000000000000000000000000000000000001
:102BD40000000000000000000000000000000000F1
:102BE40000000000000000000000000000000000E1
:102BF40000000000FFFF00000000000000000000D3
:102C040000000000000000000000000000000000C0
:102C140000000000000000000000000000000000B0
:102C240000000000000000000000000000000000A0
:102C34000000000000000000000000000000000090
:102C44000000000000000000000000000000000080
:102C5400000000000000FFFF000000000000000072
:102C64000000000000000000000000000000000060
:102C74000000000000000000000000000000000050
:102C84000000000000000000000000000000000040
:102C94000000000000000000000000000000000030
:102CA4000000000000000000000000000000000020
:102CB40000000000FFFF0000000000000000000012
:102CC4000000000000000000000000000000000000
:102CD40000000000000000000000000000000000F0
:102CE40000000000000000000000000000000000E0
:102CF40000000000000000000000000000000000D0
:102D040000000000000000000000000000000000BF
:102D1400000000000000FFFF0000000000000000B1
:102D2400000000000000000000000000000000009F
:102D3400000000000000000000000000000000008F
:102D4400000000000000000000000000000000007F
:102D5400000000000000000000000000000000006F
:102D6400000000000000000000000000000000005F
:102D740000000000FFFF0000000000000000000051
:102D8400000000000000000000000000000000003F
:102D9400000000000000000000000000000000002F
:102DA400000000000000000000000000000000001F
:102DB400000000000000000000000000000000000F
:102DC40000000000000000000000000000000000FF
:102DD400000000000000FFFF0000000000000000F1
:102DE40000000000000000000000000000000000DF
:102DF40000000000000000000000000000000000CF
:102E040000000000000000000000000000000000BE
:102E140000000000000000000000000000000000AE
:102E2400000000000000000000000000000000009E
:102E340000000000FFFF0000000000000000000090
:102E4400000000000000000000000000000000007E
:102E5400000000000000000000000000000000006E
:102E6400000000000000000000000000000000005E
:102E7400000000000000000000000000000000004E
:102E8400000000000000000000000000000000003E
:102E9400000000000000FFFF000000000000000030
:102EA400000000000000000000000000000000001E
:102EB400000000000000000000000000000000000E
:102EC40000000000000000000000000000000000FE
:102ED40000000000000000000000000000000000EE
:102EE40000000000000000000000000000000000DE
:102EF40000000000FFFF00000000000000000000D0
:102F040000000000000000000000000000000000BD
:102F140000000000000000000000000000000000AD
:102F2400000000000000000000000000000000009D
:102F3400000000000000000000000000000000008D
:102F4400000000000000000000000000000000007D
:102F5400000000000000FFFF00000000000000006F
:102F6400000000000000000000000000000000005D
:102F7400000000000000000000000000000000004D
:102F8400000000000000000000000000000000003D
:102F9400000000000000000000000000000000002D
:102FA400000000000000000000000000000000001D
:102FB40000000000FFFF000000000000000000000F
:102FC40000000000000000000000000000000000FD
:102FD40000000000000000000000000000000000ED
:102FE40000000000000000000000000000000000DD
:102FF40000000000000000000000000000000000CD
:1030040000000000000000000000000000000000BC
:10301400000000000000FFFF0000000000000000AE
:10302400000000000000000000000000000000009C
:10303400000000000000000000000000000000008C
:10304400000000000000000000000000000000007C
:10305400000000000000000000000000000000006C
:10306400000000000000000000000000000000005C
:1030740000000000FFFF000000000000000000004E
:10308400000000000000000000000000000000003C
:10309400000000000000000000000000000000002C
:1030A400000000000000000000000000000000001C
:1030B400000000000000000000000000000000000C
:1030C40000000000000000000000000000000000FC
:1030D400000000000000FFFF0000000000000000EE
:1030E40000000000000000000000000000000000DC
:1030F40000000000000000000000000000000000CC
:1031040000000000000000000000000000000000BB
:1031140000000000000000000000000000000000AB
:10312400000000000000000000000000000000009B
:1031340000000000FFFF000000000000000000008D
:10314400000000000000000000000000000000007B
:10315400000000000000000000000000000000006B
:10316400000000000000000000000000000000005B
:10317400000000000000000000000000000000004B
:10318400000000000000000000000000000000003B
:10319400000000000000FFFF00000000000000002D
:1031A400000000000000000000000000000000001B
:1031B400000000000000000000000000000000000B
:1031C40000000000000000000000000000000000FB
:1031D40000000000000000000000000000000000EB
:1031E40000000000000000000000000000000000DB
:1031F40000000000FFFF00000000000000000000CD
:1032040000000000000000000000000000000000BA
:1032140000000000000000000000000000000000AA
:10322400000000000000000000000000000000009A
:10323400000000000000000000000000000000008A
:10324400000000000000000000000000000000007A
:10325400000000000000FFFF00000000000000006C
:10326400000000000000000000000000000000005A
:103274000000000000000000000041084529CB5A6E
:103284003084F39C75AD34A5B294CF7B494A0421B4
:10329400000000000000000000000000000000002A
:1032A400000000000000000000000000000000001A
:1032B40000000000FFFF000000000000000000000C
:1032C40000000000000000000000000000000000FA
:1032D40000000000000000000000000000000000EA
:1032E40000000000000000000000000000000000DA
:1032F40000000000000000000000000000000000CA
:1033040000000000000000000000000000000000B9
:10331400000000000000FFFF0000000000000000AB
:103324000000000000000000000000000000000099
:103334000000000000004529308479CEBEF7FFFF6D
:10334400FFFFFFFFFFFFFFFFFFFFFFFFFFFF7DEF1B
:10335400F7BD4D6BC3180000000000000000000022
:103364000000000000000000000000000000000059
:1033740000000000FFFF000000000000000000004B
:103384000000000000000000000000000000000039
:103394000000000000000000000000000000000029
:1033A4000000000000000000000000000000000019
:1033B4000000000000000000000000000000000009
:1033C40000000000000000000000000000000000F9
:1033D400000000000000FFFF0000000000000000EB
:1033E40000000000000000000000000000000000D9
:1033F40000000421F39C7DEFFFFFFFFFFFFFFFFFB1
:10340400FFFFBAD638C638C6FBDEFFFFFFFFFFFF5B
:10341400FFFFFFFF3CE7CF7B8210000000000000AD
:103424000000000000000000000000000000000098
:1034340000000000FFFF000000000000000000008A
:103444000000000000000000000000000000000078
:103454000000000000000000000000000000000068
:103464000000000000000000000000000000000058
:103474000000000000000000000000000000000048
:103484000000000000000000000000000000000038
:10349400000000000000FFFF00000000000000002A
:1034A4000000000000000000000000000000000018
:1034B4004D6B7DEFFFFFFFFFFFFFFFFFBEF7F39CA8
:1034C400C739821000000000C318494AB6B5FFFF8F
:1034D400FFFFFFFFFFFFFFFFBAD6494A00000000CD
:1034E40000000000000000000000000000000000D8
:1034F40000000000FFFF00000000000000000000CA
:1035040000000000000000000000000000000000B7
:1035140000000000000000000000000000000000A7
:103524000000000000000000000000000000000097
:103534000000000000000000000000000000000087
:103544000000000000000000000000000000000077
:10355400000000000000FFFF000000000000000069
:10356400000000000000000000000000821034A5EC
:10357400FFFFFFFFFFFFFFFFFFFF3CE7494A00009B
:1035840000000000000000000000000000008E7336
:10359400FFFFFFFFFFFFFFFFFFFFFFFFCF7B0000E9
:1035A4000000000000000000000000000000000017
:1035B40000000000FFFF0000000000000000000009
:1035C40000000000000000000000000000000000F7
:1035D40000000000000000000000000000000000E7
:1035E40000000000000000000000000000000000D7
:1035F40000000000000000000000000000000000C7
:1036040000000000000000000000000000000000B6
:10361400000000000000FFFF0000000000000000A8
:10362400000000000000000000008210F7BDFFFF52
:10363400FFFFFFFFFFFFFFFFBEF70842000000008F
:103644000000000000000000000000000000000076
:103654008E73FFFFFFFFFFFFFFFFFFFFFFFFB2942B
:103664000000000000000000000000000000000056
:1036740000000000FFFF0000000000000000000048
:103684000000000000000000000000000000000036
:103694000000000000000000000000000000000026
:1036A4000000000000000000000000000000000016
:1036B4000000000000000000000000000000000006
:1036C40000000000000000000000000000000000F6
:1036D400000000000000FFFF0000000000000000E8
:1036E40000000000000000004108F7BDFFFFFFFFDD
:1036F400FFFFFFFFFFFFFFFF30840000000000001A
:103704000000494A3084CF7B86310000000000006D
:103714000000B6B5FFFFFFFFFFFFFFFFFFFFFFFF46
:10372400718C000000000000000000000000000098
:1037340000000000FFFF0000000000000000000087
:103744000000000000000000000000000000000075
:103754000000000000000000000000000000000065
:103764000000000000000000000000000000000055
:103774000000000000000000000000000000000045
:103784000000000000000000000000000000000035
:10379400000000000000FFFF000000000000000027
:1037A4000000000000000000F39CFFFFFFFFFFFF8C
:1037B400FFFFFFFFFFFF3CE7C318000000004108C4
:1037C400F39CFFFFFFFFFFFFBEF74D6B00000000FF
:1037D4000000494AFFFFFFFFFFFFFFFFFFFFFFFF5E
:1037E400FFFF4D6B0000000000000000000000001F
:1037F40000000000FFFF00000000000000000000C7
:1038040000000000000000000000000000000000B4
:1038140000000000000000000000000000000000A4
:103824000000000000000000000000000000000094
:103834000000000000000000000000000000000084
:103844000000000000000000000000000000000074
:10385400000000000000FFFF000000000000000066
:103864000000000000000C63FFFFFFFFFFFFFFFFED
:10387400FFFFFFFFFFFFB6B50000000000000C6370
:10388400FFFFFFFFFFFFFFFFFFFFBEF786310000D2
:1038940000008210FBDEFFFFFFFFFFFFFFFFFFFFC3
:1038A400FFFFBEF7863100000000000000000000AA
:1038B40000000000FFFF0000000000000000000006
:1038C40000000000000000000000000000000000F4
:1038D40000000000000000000000000000000000E4
:1038E40000000000000000000000000000000000D4
:1038F40000000000000000000000000000000000C4
:1039040000000000000000000000000000000000B3
:10391400000000000000FFFF0000000000000000A5
:103924000000000082103CE7FFFFFFFFFFFFFFFFE6
:10393400FFFFFFFFFFFFB294000000000000B6B5D8
:10394400FFFFFFFFFFFFFFFFFFFFFFFFCF7B000035
:103954000000000038C6FFFFFFFFFFFFFFFFFFFF6F
:10396400FFFFFFFF75AD0000000000000000000035
:1039740000000000FFFF0000000000000000000045
:103984000000000000000000000000000000000033
:103994000000000000000000000000000000000023
:1039A4000000000000000000000000000000000013
:1039B4000000000000000000000000000000000003
:1039C40000000000000000000000000000000000F3
:1039D400000000000000FFFF0000000000000000E5
:1039E400000000008210BEF7FFFFFFFFFFFFFFFF94
:1039F400FFFFFFFFFFFF718C000000000000F7BD18
:103A0400FFFFFFFFFFFFFFFFFFFFFFFF308400000A
:103A14000000000038C6FFFFFFFFFFFFFFFFFFFFAE
:103A2400FFFFFFFFF7BD00000000000000000000E2
:103A340000000000FFFF0000000000000000000084
:103A44000000000000000000000000000000000072
:103A54000000000000000000000000000000000062
:103A64000000000000000000000000000000000052
:103A74000000000000000000000000000000000042
:103A84000000000000000000000000000000000032
:103A9400000000000000FFFF000000000000000024
:103AA4000000000000003084FFFFFFFFFFFFFFFF66
:103AB400FFFFFFFFFFFF75AD000000000000308432
:103AC400FFFFFFFFFFFFFFFFFFFFFFFF494A00006B
:103AD40000004108BAD6FFFFFFFFFFFFFFFFFFFF13
:103AE400FFFFFFFF8A5200000000000000000000FA
:103AF40000000000FFFF00000000000000000000C4
:103B040000000000000000000000000000000000B1
:103B140000000000000000000000000000000000A1
:103B24000000000000000000000000000000000091
:103B34000000000000000000000000000000000081
:103B44000000000000000000000000000000000071
:103B5400000000000000FFFF000000000000000063
:103B6400000000000000410838C6FFFFFFFFFFFF10
:103B7400FFFFFFFFFFFFFBDE82100000000082104A
:103B840038C6FFFFFFFFFFFFFFFFF39C00000000AC
:103B940000008631BEF7FFFFFFFFFFFFFFFFFFFFBF
:103BA400FFFFB294000000000000000000000000CD
:103BB40000000000FFFF0000000000000000000003
:103BC40000000000000000000000000000000000F1
:103BD40000000000000000000000000000000000E1
:103BE40000000000000000000000000000000000D1
:103BF40000000000000000000000000000000000C1
:103C040000000000000000000000000000000000B0
:103C1400000000000000FFFF0000000000000000A2
:103C240000000000000000000421FBDEFFFFFFFF96
:103C3400FFFFFFFFFFFFFFFF0C6300000000000019
:103C440082103084F7BDB6B50C630000000000009C
:103C54000000F39CFFFFFFFFFFFFFFFFFFFFFFFFDD
:103C6400B6B541080000000000000000000000009C
:103C740000000000FFFF0000000000000000000042
:103C84000000000000000000000000000000000030
:103C94000000000000000000000000000000000020
:103CA4000000000000000000000000000000000010
:103CB4000000000000000000000000000000000000
:103CC40000000000000000000000000000000000F0
:103CD400000000000000FFFF0000000000000000E2
:103CE4000000000000000000000086313CE7FFFFF8
:103CF400FFFFFFFFFFFFFFFFFBDE042100000000CA
:103D040000000000000000000000000000000000AF
:103D1400494ABEF7FFFFFFFFFFFFFFFFFFFFF7BDAD
:103D240082100000000000000000000000000000FD
:103D340000000000FFFF0000000000000000000081
:103D4400000000000000000000000000000000006F
:103D5400000000000000000000000000000000005F
:103D6400000000000000000000000000000000004F
:103D7400000000000000000000000000000000003F
:103D8400000000000000000000000000000000002F
:103D9400000000000000FFFF000000000000000021
:103DA4000000000000000000000000008631BAD6C8
:103DB400FFFFFFFFFFFFFFFFFFFF38C604210000E6
:103DC40000000000000000000000000000000842A5
:103DD4003CE7FFFFFFFFFFFFFFFFFFFF75AD821012
:103DE40000000000000000000000000000000000CF
:103DF40000000000FFFF00000000000000000000C1
:103E040000000000000000000000000000000000AE
:103E1400000000000000000000000000000000009E
:103E2400000000000000000000000000000000008E
:103E3400000000000000000000000000000000007E
:103E4400000000000000000000000000000000006E
:103E5400000000000000FFFF000000000000000060
:103E64000000000000000000000000000000C31873
:103E740034A5FFFFFFFFFFFFFFFFFFFFFBDE0C6327
:103E8400821000000000000000000421CF7BBEF778
:103E9400FFFFFFFFFFFFFFFFBEF7CF7B0000000027
:103EA400000000000000000000000000000000000E
:103EB40000000000FFFF0000000000000000000000
:103EC40000000000000000000000000000000000EE
:103ED40000000000000000000000000000000000DE
:103EE40000000000000000000000000000000000CE
:103EF40000000000000000000000000000000000BE
:103F040000000000000000000000000000000000AD
:103F1400000000000000FFFF00000000000000009F
:103F2400000000000000000000000000000000008D
:103F340000008A5279CEFFFFFFFFFFFFFFFFFFFF64
:103F4400FBDE75AD718CB294B6B53CE7FFFFFFFFA5
:103F5400FFFFFFFFFFFFB6B5C739000000000000F8
:103F6400000000000000000000000000000000004D
:103F740000000000FFFF000000000000000000003F
:103F8400000000000000000000000000000000002D
:103F9400000000000000000000000000000000001D
:103FA400000000000000000000000000000000000D
:103FB40000000000000000000000000000000000FD
:103FC40000000000000000000000000000000000ED
:103FD400000000000000FFFF0000000000000000DF
:103FE40000000000000000000000000000000000CD
:103FF400000000004108CB5AF7BDBEF7FFFFFFFFEA
:10400400FFFFFFFFFFFFFFFFFFFFFFFFFFFFFFFFBC
:104014003CE734A508420000000000000000000056
:10402400000000000000000000000000000000008C
:1040340000000000FFFF000000000000000000007E
:10404400000000000000000000000000000000006C
:10405400000000000000000000000000000000005C
:10406400000000000000000000000000000000004C
:10407400000000000000000000000000000000003C
:10408400000000000000000000000000000000002C
:10409400000000000000FFFF00000000000000001E
:1040A400000000000000000000000000000000000C
:1040B400000000000000000000004529CB5AB29423
:1040C400F7BD79CEBAD6BAD638C6B6B5718C8A528F
:1040D400C318000000000000000000000000000001
:1040E40000000000000000000000000000000000CC
:1040F40000000000FFFF00000000000000000000BE
:1041040000000000000000000000000000000000AB
:10411400000000000000000000000000000000009B
:10412400000000000000000000000000000000008B
:10413400000000000000000000000000000000007B
:10414400000000000000000000000000000000006B
:10415400000000000000FFFF00000000000000005D
:10416400000000000000000000000000000000004B
:10417400000000000000000000000000000000003B
:104184000000410841084108000000000000000050
:10419400000000000000000000000000000000001B
:1041A400000000000000000000000000000000000B
:1041B40000000000FFFF00000000000000000000FD
:1041C40000000000000000000000000000000000EB
:1041D40000000000000000000000000000000000DB
:1041E40000000000000000000000000000000000CB
:1041F40000000000000000000000000000000000BB
:1042040000000000000000000000000000000000AA
:10421400000000000000FFFF00000000000000009C
:10422400000000000000000000000000000000008A
:10423400000000000000000000000000000000007A
:10424400000000000000000000000000000000006A
:10425400000000000000000000000000000000005A
:10426400000000000000000000000000000000004A
:1042740000000000FFFF000000000000000000003C
:10428400000000000000000000000000000000002A
:10429400000000000000000000000000000000001A
:1042A400000000000000000000000000000000000A
:1042B40000000000000000000000000000000000FA
:1042C40000000000000000000000000000000000EA
:1042D400000000000000FFFF0000000000000000DC
:1042E40000000000000000000000000000000000CA
:1042F40000000000000000000000000000000000BA
:1043040000000000000000000000000000000000A9
:104314000000000000000000000000000000000099
:104324000000000000000000000000000000000089
:1043340000000000FFFF000000000000000000007B
:104344000000000000000000000000000000000069
:104354000000000000000000000000000000000059
:104364000000000000000000000000000000000049
:104374000000000000000000000000000000000039
:104384000000000000000000000000000000000029
:10439400000000000000FFFF00000000000000001B
:1043A4000000000000000000000000000000000009
:1043B40000000000000000000000000000000000F9
:1043C40000000000000000000000000000000000E9
:1043D40000000000000000000000000000000000D9
:1043E40000000000000000000000000000000000C9
:1043F40000000000FFFF00000000000000000000BB
:1044040000000000000000000000000000000000A8
:104414000000000000000000000000000000000098
:104424000000000000000000000000000000000088
:104434000000000000000000000000000000000078
:104444000000000000000000000000000000000068
:10445400000000000000FFFF00000000000000005A
:104464000000000000000000000000000000000048
:104474000000000000000000000000000000000038
:104484000000000000000000000000000000000028
:104494000000000000000000000000000000000018
:1044A4000000000000000000000000000000000008
:1044B40000000000FFFF00000000000000000000FA
:1044C40000000000000000000000000000000000E8
:1044D40000000000000000000000000000000000D8
:1044E40000000000000000000000000000000000C8
:1044F40000000000000000000000000000000000B8
:1045040000000000000000000000000000000000A7
:10451400000000000000FFFF000000000000000099
:104524000000000000000000000000000000000087
:104534000000000000000000000000000000000077
:104544000000000000000000000000000000000067
:104554000000000000000000000000000000000057
:104564000000000000000000000000000000000047
:1045740000000000FFFF0000000000000000000039
:104584000000000000000000000000000000000027
:104594000000000000000000000000000000000017
:1045A4000000000000000000000000000000000007
:1045B40000000000000000000000000000000000F7
:1045C40000000000000000000000000000000000E7
:1045D400000000000000FFFF0000000000000000D9
:1045E40000000000000000000000000000000000C7
:1045F40000000000000000000000000000000000B7
:1046040000000000000000000000000000000000A6
:104614000000000000000000000000000000000096
:104624000000000000000000000000000000000086
:1046340000000000FFFF0000000000000000000078
:104644000000000000000000000000000000000066
:104654000000000000000000000000000000000056
:104664000000000000000000000000000000000046
:104674000000000000000000000000000000000036
:104684000000000000000000000000000000000026
:10469400000000000000FFFF000000000000000018
:1046A4000000000000000000000000000000000006
:1046B40000000000000000000000000000000000F6
:1046C40000000000000000000000000000000000E6
:1046D40000000000000000000000000000000000D6
:1046E40000000000000000000000000000000000C6
:1046F40000000000FFFF00000000000000000000B8
:1047040000000000000000000000000000000000A5
:104714000000000000000000000000000000000095
:104724000000000000000000000000000000000085
:104734000000000000000000000000000000000075
:104744000000000000000000000000000000000065
:10475400000000000000FFFF000000000000000057
:104764000000000000000000000000000000000045
:104774000000000000000000000000000000000035
:104784000000000000000000000000000000000025
:104794000000000000000000000000000000000015
:1047A4000000000000000000000000000000000005
:1047B40000000000FFFF00000000000000000000F7
:1047C40000000000000000000000000000000000E5
:1047D40000000000000000000000000000000000D5
:1047E40000000000000000000000000000000000C5
:1047F40000000000000000000000000000000000B5
:1048040000000000000000000000000000000000A4
:10481400000000000000FFFF000000000000000096
:104824000000000000000000000000000000000084
:104834000000000000000000000000000000000074
:104844000000000000000000000000000000000064
:104854000000000000000000000000000000000054
:104864000000000000000000000000000000000044
:1048740000000000FFFF0000000000000000000036
:104884000000000000000000000000000000000024
:104894000000000000000000000000000000000014
:1048A4000000000000000000000000000000000004
:1048B40000000000000000000000000000000000F4
:1048C40000000000000000000000000000000000E4
:1048D400000000000000FFFF0000000000000000D6
:1048E40000000000000000000000000000000000C4
:1048F40000000000000000000000000000000000B4
:1049040000000000000000000000000000000000A3
:104914000000000000000000000000000000000093
:104924000000000000000000000000000000000083
:1049340000000000FFFF0000000000000000000075
:104944000000000000000000000000000000000063
:104954000000000000000000000000000000000053
:104964000000000000000000000000000000000043
:104974000000000000000000000000000000000033
:104984000000000000000000000000000000000023
:10499400000000000000FFFF000000000000000015
:1049A4000000000000000000000000000000000003
:1049B40000000000000000000000000000000000F3
:1049C40000000000000000000000000000000000E3
:1049D40000000000000000000000000000000000D3
:1049E40000000000000000000000000000000000C3
:1049F40000000000FFFF00000000000000000000B5
:104A040000000000000000000000000000000000A2
:104A14000000000000000000000000000000000092
:104A24000000000000000000000000000000000082
:104A34000000000000000000000000000000000072
:104A44000000000000000000000000000000000062
:104A5400000000000000FFFFFFFF00000000000056
:104A64000000000000000000000000000000000042
:104A74000000000000000000000000000000000032
:104A84000000000000000000000000000000000022
:104A94000000000000000000000000000000000012
:104AA4000000000000000000000000000000000002
:104AB4000000FFFFFFFF00000000000000000000F6
:104AC40000000000000000000000000000000000E2
:104AD40000000000000000000000000000000000D2
:104AE40000000000000000000000000000000000C2
:104AF40000000000000000000000000000000000B2
:104B040000000000000000000000000000000000A1
:104B14000000000000000000FFFFFFFF0000000095
:104B24000000000000000000000000000000000081
:104B34000000000000000000000000000000000071
:104B44000000000000000000000000000000000061
:104B54000000000000000000000000000000000051
:104B64000000000000000000000000000000000041
:104B7400FFFFFFFF00000000000000000000000035
:104B84000000000000000000000000000000000021
:104B94000000000000000000000000000000000011
:104BA4000000000000000000000000000000000001
:104BB40000000000000000000000000000000000F1
:104BC40000000000000000000000000000000000E1
:104BD40000000000000000000000FFFFFFFFFFFFD7
:104BE400FFFFFFFFFFFFFFFFFFFFFFFFFFFFFFFFD1
:104BF400FFFFFFFFFFFFFFFFFFFFFFFFFFFFFFFFC1
:104C0400FFFFFFFFFFFFFFFFFFFFFFFFFFFFFFFFB0
:104C1400FFFFFFFFFFFFFFFFFFFFFFFFFFFFFFFFA0
:104C2400FFFFFFFFFFFFFFFFFFFFFFFFFFFFFFFF90
:104C3400FFFF000000000000000000000000000072
:104C44000000000000000000000000000000000060
:104C54000000000000000000000000000000000050
:104C64000000000000000000000000000000000040
:104C74000000000000000000000000000000000030
:065DA400000000000000F9
:105DAA000010600060000000000000000000000019
:105DBA0000000000000000000000000000000000D9
:105DCA0000000000000000000000000000000000C9
:105DDA0000000000000000000000000000000000B9
:105DEA0000000000000000000000000000000000A9
:06A5AA00000000000000AB
:10A5B000350200003702000036020000FFFFFFFFF7
:10A5C000000000000000000000000000000000008B
:10A5D000000000000000000000000000000000007B
:10A5E000000000000200080002000800020008004D
:10A5F000FFFFFFFF0000000000000000000000005F
:10A60000000000000000000000000000000000004A
:0CA610000000000000000000000000003E
:10A61C00450200004702000046020000FFFFFFFF5A
:10A62C00000000000000000000000000000000001E
:10A63C00000000000000000000000000000000000E
:10A64C0000000000020008000200080002000800E0
:10A65C00FFFFFFFF000000000000000000000000F2
:10A66C0000000000000000000000000000000000DE
:0CA67C00000000000000000000000000D2
:10A6880002000000040000000600000008000000AE
:10A6980010000000200000004000000080000000C2
:10A6A8000001000000020000000400000008000093
:10A6B80000100000002000000040000000800000A2
:10A6C8000200000003000000050000000700000071
:00000001FF
